{
  "_format": "hh-sol-artifact-1",
  "contractName": "ChessBallGame",
  "sourceName": "contracts/Game.sol",
  "abi": [
    {
      "inputs": [],
      "stateMutability": "nonpayable",
      "type": "constructor"
    },
    {
      "inputs": [],
      "name": "ActionsNotCommitted",
      "type": "error"
    },
    {
      "inputs": [
        {
          "internalType": "address",
          "name": "target",
          "type": "address"
        }
      ],
      "name": "AddressEmptyCode",
      "type": "error"
    },
    {
      "inputs": [],
      "name": "ChangeTeamName_NotTeamOwner",
      "type": "error"
    },
    {
      "inputs": [],
      "name": "ChangeTeamName_SameNameProvided",
      "type": "error"
    },
    {
      "inputs": [],
      "name": "CreateTeam_NameIsRequired",
      "type": "error"
    },
    {
      "inputs": [],
      "name": "CreateTeam_TeamAlreadyExists",
      "type": "error"
    },
    {
      "inputs": [],
      "name": "CreateTeam_TeamNameAlreadyExists",
      "type": "error"
    },
    {
      "inputs": [],
      "name": "DoesNotExist",
      "type": "error"
    },
    {
      "inputs": [
        {
          "internalType": "address",
          "name": "implementation",
          "type": "address"
        }
      ],
      "name": "ERC1967InvalidImplementation",
      "type": "error"
    },
    {
      "inputs": [],
      "name": "ERC1967NonPayable",
      "type": "error"
    },
    {
      "inputs": [],
      "name": "FailedCall",
      "type": "error"
    },
    {
      "inputs": [],
      "name": "FinishGameByTimeout_NoLastMove",
      "type": "error"
    },
    {
      "inputs": [],
      "name": "GameHasNotReachedMaxMoves",
      "type": "error"
    },
    {
      "inputs": [],
      "name": "GameIsNotActive",
      "type": "error"
    },
    {
      "inputs": [],
      "name": "GameOwnerShouldCall",
      "type": "error"
    },
    {
      "inputs": [],
      "name": "GameRequestNotExpired",
      "type": "error"
    },
    {
      "inputs": [],
      "name": "GameRequestTimeoutNotReached",
      "type": "error"
    },
    {
      "inputs": [],
      "name": "InitAddressCannotBeZero",
      "type": "error"
    },
    {
      "inputs": [
        {
          "internalType": "uint8",
          "name": "goals",
          "type": "uint8"
        }
      ],
      "name": "InvalidGoals",
      "type": "error"
    },
    {
      "inputs": [],
      "name": "InvalidInitialization",
      "type": "error"
    },
    {
      "inputs": [
        {
          "internalType": "uint256",
          "name": "score",
          "type": "uint256"
        }
      ],
      "name": "InvalidScore",
      "type": "error"
    },
    {
      "inputs": [],
      "name": "InvalidTeam",
      "type": "error"
    },
    {
      "inputs": [],
      "name": "MovesAlreadyCommitted",
      "type": "error"
    },
    {
      "inputs": [],
      "name": "MovesEncryptedCannotBeZero",
      "type": "error"
    },
    {
      "inputs": [],
      "name": "NotInitializing",
      "type": "error"
    },
    {
      "inputs": [],
      "name": "OnlyGameEngineServerCanCall",
      "type": "error"
    },
    {
      "inputs": [],
      "name": "OnlyRelayerCanCall",
      "type": "error"
    },
    {
      "inputs": [
        {
          "internalType": "address",
          "name": "owner",
          "type": "address"
        }
      ],
      "name": "OwnableInvalidOwner",
      "type": "error"
    },
    {
      "inputs": [
        {
          "internalType": "address",
          "name": "account",
          "type": "address"
        }
      ],
      "name": "OwnableUnauthorizedAccount",
      "type": "error"
    },
    {
      "inputs": [],
      "name": "TeamAlreadyHasActiveGame",
      "type": "error"
    },
    {
      "inputs": [],
      "name": "TeamsCannotBeSame",
      "type": "error"
    },
    {
      "inputs": [],
      "name": "UUPSUnauthorizedCallContext",
      "type": "error"
    },
    {
      "inputs": [
        {
          "internalType": "bytes32",
          "name": "slot",
          "type": "bytes32"
        }
      ],
      "name": "UUPSUnsupportedProxiableUUID",
      "type": "error"
    },
    {
      "anonymous": false,
      "inputs": [
        {
          "indexed": true,
          "internalType": "uint256",
          "name": "teamId",
          "type": "uint256"
        },
        {
          "indexed": false,
          "internalType": "uint256",
          "name": "gameId",
          "type": "uint256"
        },
        {
          "indexed": false,
          "internalType": "uint64",
          "name": "eloRating",
          "type": "uint64"
        }
      ],
      "name": "EloUpdated",
      "type": "event"
    },
    {
      "anonymous": false,
      "inputs": [
        {
          "indexed": true,
          "internalType": "uint256",
          "name": "gameId",
          "type": "uint256"
        },
        {
          "indexed": false,
          "internalType": "enum GameLib.TeamEnum",
          "name": "winner",
          "type": "uint8"
        },
        {
          "indexed": false,
          "internalType": "enum GameLib.FinishReason",
          "name": "finishReason",
          "type": "uint8"
        }
      ],
      "name": "GameFinished",
      "type": "event"
    },
    {
      "anonymous": false,
      "inputs": [
        {
          "indexed": false,
          "internalType": "uint256",
          "name": "gameRequestId",
          "type": "uint256"
        },
        {
          "indexed": false,
          "internalType": "uint256",
          "name": "team1id",
          "type": "uint256"
        },
        {
          "indexed": false,
          "internalType": "uint256",
          "name": "team2id",
          "type": "uint256"
        }
      ],
      "name": "GameRequestCancelled",
      "type": "event"
    },
    {
      "anonymous": false,
      "inputs": [
        {
          "indexed": false,
          "internalType": "uint256",
          "name": "gameRequestId",
          "type": "uint256"
        },
        {
          "indexed": false,
          "internalType": "uint256",
          "name": "team1id",
          "type": "uint256"
        },
        {
          "indexed": false,
          "internalType": "uint256",
          "name": "team2id",
          "type": "uint256"
        }
      ],
      "name": "GameRequestCreated",
      "type": "event"
    },
    {
      "anonymous": false,
      "inputs": [
        {
          "indexed": true,
          "internalType": "uint256",
          "name": "gameId",
          "type": "uint256"
        },
        {
          "indexed": true,
          "internalType": "uint256",
          "name": "team1id",
          "type": "uint256"
        },
        {
          "indexed": true,
          "internalType": "uint256",
          "name": "team2id",
          "type": "uint256"
        },
        {
          "indexed": false,
          "internalType": "enum GameLib.TeamEnum",
          "name": "teamWithBall",
          "type": "uint8"
        }
      ],
      "name": "GameStarted",
      "type": "event"
    },
    {
      "anonymous": false,
      "inputs": [
        {
          "indexed": true,
          "internalType": "uint256",
          "name": "gameId",
          "type": "uint256"
        },
        {
          "indexed": false,
          "internalType": "enum GameLib.TeamEnum",
          "name": "cauzedByTeam",
          "type": "uint8"
        },
        {
          "indexed": false,
          "internalType": "enum ChessBallGame.ErrorType",
          "name": "errorType",
          "type": "uint8"
        },
        {
          "indexed": false,
          "internalType": "uint256",
          "name": "time",
          "type": "uint256"
        },
        {
          "indexed": false,
          "internalType": "string",
          "name": "errorMsg",
          "type": "string"
        }
      ],
      "name": "GameStateError",
      "type": "event"
    },
    {
      "anonymous": false,
      "inputs": [
        {
          "indexed": true,
          "internalType": "uint256",
          "name": "gameId",
          "type": "uint256"
        },
        {
          "indexed": false,
          "internalType": "enum GameLib.TeamEnum",
          "name": "scoringTeam",
          "type": "uint8"
        }
      ],
      "name": "GoalScored",
      "type": "event"
    },
    {
      "anonymous": false,
      "inputs": [
        {
          "indexed": false,
          "internalType": "uint64",
          "name": "version",
          "type": "uint64"
        }
      ],
      "name": "Initialized",
      "type": "event"
    },
    {
      "anonymous": false,
      "inputs": [
        {
          "indexed": true,
          "internalType": "uint256",
          "name": "gameId",
          "type": "uint256"
        },
        {
          "indexed": false,
          "internalType": "enum GameLib.StateType",
          "name": "stateType",
          "type": "uint8"
        },
        {
          "indexed": false,
          "internalType": "uint256",
          "name": "time",
          "type": "uint256"
        },
        {
          "indexed": false,
          "internalType": "uint8[]",
          "name": "clashRandomNumbers",
          "type": "uint8[]"
        },
        {
          "components": [
            {
              "internalType": "uint256",
              "name": "playerId",
              "type": "uint256"
            },
            {
              "internalType": "enum GameLib.MoveType",
              "name": "moveType",
              "type": "uint8"
            },
            {
              "components": [
                {
                  "internalType": "uint8",
                  "name": "x",
                  "type": "uint8"
                },
                {
                  "internalType": "uint8",
                  "name": "y",
                  "type": "uint8"
                }
              ],
              "internalType": "struct GameLib.Position",
              "name": "oldPosition",
              "type": "tuple"
            },
            {
              "components": [
                {
                  "internalType": "uint8",
                  "name": "x",
                  "type": "uint8"
                },
                {
                  "internalType": "uint8",
                  "name": "y",
                  "type": "uint8"
                }
              ],
              "internalType": "struct GameLib.Position",
              "name": "newPosition",
              "type": "tuple"
            }
          ],
          "indexed": false,
          "internalType": "struct GameLib.GameAction[]",
          "name": "team1Actions",
          "type": "tuple[]"
        },
        {
          "components": [
            {
              "internalType": "uint256",
              "name": "playerId",
              "type": "uint256"
            },
            {
              "internalType": "enum GameLib.MoveType",
              "name": "moveType",
              "type": "uint8"
            },
            {
              "components": [
                {
                  "internalType": "uint8",
                  "name": "x",
                  "type": "uint8"
                },
                {
                  "internalType": "uint8",
                  "name": "y",
                  "type": "uint8"
                }
              ],
              "internalType": "struct GameLib.Position",
              "name": "oldPosition",
              "type": "tuple"
            },
            {
              "components": [
                {
                  "internalType": "uint8",
                  "name": "x",
                  "type": "uint8"
                },
                {
                  "internalType": "uint8",
                  "name": "y",
                  "type": "uint8"
                }
              ],
              "internalType": "struct GameLib.Position",
              "name": "newPosition",
              "type": "tuple"
            }
          ],
          "indexed": false,
          "internalType": "struct GameLib.GameAction[]",
          "name": "team2Actions",
          "type": "tuple[]"
        },
        {
          "components": [
            {
              "components": [
                {
                  "internalType": "uint8",
                  "name": "x",
                  "type": "uint8"
                },
                {
                  "internalType": "uint8",
                  "name": "y",
                  "type": "uint8"
                }
              ],
              "internalType": "struct GameLib.Position[6]",
              "name": "team1PlayerPositions",
              "type": "tuple[6]"
            },
            {
              "components": [
                {
                  "internalType": "uint8",
                  "name": "x",
                  "type": "uint8"
                },
                {
                  "internalType": "uint8",
                  "name": "y",
                  "type": "uint8"
                }
              ],
              "internalType": "struct GameLib.Position[6]",
              "name": "team2PlayerPositions",
              "type": "tuple[6]"
            },
            {
              "components": [
                {
                  "internalType": "uint8",
                  "name": "x",
                  "type": "uint8"
                },
                {
                  "internalType": "uint8",
                  "name": "y",
                  "type": "uint8"
                }
              ],
              "internalType": "struct GameLib.Position",
              "name": "ballPosition",
              "type": "tuple"
            },
            {
              "internalType": "enum GameLib.TeamEnum",
              "name": "ballOwner",
              "type": "uint8"
            }
          ],
          "indexed": false,
          "internalType": "struct GameLib.BoardState",
          "name": "boardState",
          "type": "tuple"
        }
      ],
      "name": "NewGameState",
      "type": "event"
    },
    {
      "anonymous": false,
      "inputs": [
        {
          "indexed": true,
          "internalType": "address",
          "name": "previousOwner",
          "type": "address"
        },
        {
          "indexed": true,
          "internalType": "address",
          "name": "newOwner",
          "type": "address"
        }
      ],
      "name": "OwnershipTransferred",
      "type": "event"
    },
    {
      "anonymous": false,
      "inputs": [
        {
          "indexed": true,
          "internalType": "uint256",
          "name": "teamId",
          "type": "uint256"
        },
        {
          "indexed": true,
          "internalType": "address",
          "name": "owner",
          "type": "address"
        },
        {
          "indexed": false,
          "internalType": "string",
          "name": "name",
          "type": "string"
        },
        {
          "indexed": false,
          "internalType": "uint8",
          "name": "country",
          "type": "uint8"
        }
      ],
      "name": "TeamCreated",
      "type": "event"
    },
    {
      "anonymous": false,
      "inputs": [
        {
          "indexed": true,
          "internalType": "uint256",
          "name": "teamId",
          "type": "uint256"
        },
        {
          "indexed": false,
          "internalType": "string",
          "name": "oldName",
          "type": "string"
        },
        {
          "indexed": false,
          "internalType": "string",
          "name": "newName",
          "type": "string"
        }
      ],
      "name": "TeamNameChanged",
      "type": "event"
    },
    {
      "anonymous": false,
      "inputs": [
        {
          "indexed": true,
          "internalType": "address",
          "name": "implementation",
          "type": "address"
        }
      ],
      "name": "Upgraded",
      "type": "event"
    },
    {
      "anonymous": false,
      "inputs": [
        {
          "indexed": true,
          "internalType": "uint256",
          "name": "gameId",
          "type": "uint256"
        },
        {
          "indexed": false,
          "internalType": "uint256",
          "name": "timestamp",
          "type": "uint256"
        }
      ],
      "name": "gameActionCommitted",
      "type": "event"
    },
    {
      "inputs": [],
      "name": "UPGRADE_INTERFACE_VERSION",
      "outputs": [
        {
          "internalType": "string",
          "name": "",
          "type": "string"
        }
      ],
      "stateMutability": "view",
      "type": "function"
    },
    {
      "inputs": [
        {
          "internalType": "uint256",
          "name": "",
          "type": "uint256"
        }
      ],
      "name": "activeGames",
      "outputs": [
        {
          "internalType": "uint256",
          "name": "",
          "type": "uint256"
        }
      ],
      "stateMutability": "view",
      "type": "function"
    },
    {
      "inputs": [
        {
          "internalType": "uint256",
          "name": "gameRequestId",
          "type": "uint256"
        }
      ],
      "name": "cancelGameRequest",
      "outputs": [],
      "stateMutability": "nonpayable",
      "type": "function"
    },
    {
      "inputs": [
        {
          "internalType": "address",
          "name": "sender",
          "type": "address"
        },
        {
          "internalType": "uint256",
          "name": "gameRequestId",
          "type": "uint256"
        }
      ],
      "name": "cancelGameRequestRelayer",
      "outputs": [],
      "stateMutability": "nonpayable",
      "type": "function"
    },
    {
      "inputs": [
        {
          "internalType": "string",
          "name": "newName",
          "type": "string"
        }
      ],
      "name": "changeTeamName",
      "outputs": [],
      "stateMutability": "nonpayable",
      "type": "function"
    },
    {
      "inputs": [
        {
          "internalType": "address",
          "name": "sender",
          "type": "address"
        },
        {
          "internalType": "string",
          "name": "newName",
          "type": "string"
        }
      ],
      "name": "changeTeamNameRelayer",
      "outputs": [],
      "stateMutability": "nonpayable",
      "type": "function"
    },
    {
      "inputs": [
        {
          "internalType": "address",
          "name": "sender",
          "type": "address"
        },
        {
          "internalType": "uint256",
          "name": "gameId",
          "type": "uint256"
        },
        {
          "internalType": "enum GameLib.TeamEnum",
          "name": "team",
          "type": "uint8"
        },
        {
          "internalType": "bytes32",
          "name": "movesEncrypted",
          "type": "bytes32"
        }
      ],
      "name": "commitGameActionsRelayer",
      "outputs": [],
      "stateMutability": "nonpayable",
      "type": "function"
    },
    {
      "inputs": [
        {
          "internalType": "uint256",
          "name": "team1id",
          "type": "uint256"
        },
        {
          "internalType": "uint256",
          "name": "team2id",
          "type": "uint256"
        }
      ],
      "name": "createGameRequest",
      "outputs": [],
      "stateMutability": "nonpayable",
      "type": "function"
    },
    {
      "inputs": [
        {
          "internalType": "address",
          "name": "sender",
          "type": "address"
        },
        {
          "internalType": "uint256",
          "name": "team1id",
          "type": "uint256"
        },
        {
          "internalType": "uint256",
          "name": "team2id",
          "type": "uint256"
        }
      ],
      "name": "createGameRequestRelayer",
      "outputs": [],
      "stateMutability": "nonpayable",
      "type": "function"
    },
    {
      "inputs": [
        {
          "internalType": "string",
          "name": "name",
          "type": "string"
        },
        {
          "internalType": "uint8",
          "name": "country",
          "type": "uint8"
        }
      ],
      "name": "createTeam",
      "outputs": [],
      "stateMutability": "nonpayable",
      "type": "function"
    },
    {
      "inputs": [
        {
          "internalType": "address",
          "name": "sender",
          "type": "address"
        },
        {
          "internalType": "string",
          "name": "name",
          "type": "string"
        },
        {
          "internalType": "uint8",
          "name": "country",
          "type": "uint8"
        }
      ],
      "name": "createTeamRelayer",
      "outputs": [],
      "stateMutability": "nonpayable",
      "type": "function"
    },
    {
      "inputs": [
        {
          "internalType": "uint256",
          "name": "gameId",
          "type": "uint256"
        }
      ],
      "name": "finishGameByTimeout",
      "outputs": [],
      "stateMutability": "nonpayable",
      "type": "function"
    },
    {
      "inputs": [
        {
          "internalType": "address",
          "name": "sender",
          "type": "address"
        },
        {
          "internalType": "uint256",
          "name": "gameId",
          "type": "uint256"
        }
      ],
      "name": "finishGameByTimeoutRelayer",
      "outputs": [],
      "stateMutability": "nonpayable",
      "type": "function"
    },
    {
      "inputs": [],
      "name": "gameEngineServerAddress",
      "outputs": [
        {
          "internalType": "address",
          "name": "",
          "type": "address"
        }
      ],
      "stateMutability": "view",
      "type": "function"
    },
    {
      "inputs": [],
      "name": "gamePublicKey",
      "outputs": [
        {
          "internalType": "string",
          "name": "",
          "type": "string"
        }
      ],
      "stateMutability": "view",
      "type": "function"
    },
    {
      "inputs": [],
      "name": "gameRequestIndex",
      "outputs": [
        {
          "internalType": "uint256",
          "name": "",
          "type": "uint256"
        }
      ],
      "stateMutability": "view",
      "type": "function"
    },
    {
      "inputs": [
        {
          "internalType": "uint256",
          "name": "",
          "type": "uint256"
        }
      ],
      "name": "gameRequests",
      "outputs": [
        {
          "internalType": "uint256",
          "name": "gameRequestId",
          "type": "uint256"
        },
        {
          "internalType": "uint256",
          "name": "team1id",
          "type": "uint256"
        },
        {
          "internalType": "uint256",
          "name": "team2id",
          "type": "uint256"
        },
        {
          "internalType": "uint256",
          "name": "createdAt",
          "type": "uint256"
        }
      ],
      "stateMutability": "view",
      "type": "function"
    },
    {
      "inputs": [
        {
          "internalType": "uint256",
          "name": "",
          "type": "uint256"
        }
      ],
      "name": "games",
      "outputs": [
        {
          "internalType": "uint256",
          "name": "gameId",
          "type": "uint256"
        },
        {
          "internalType": "uint256",
          "name": "createdAt",
          "type": "uint256"
        },
        {
          "components": [
            {
              "internalType": "uint8",
              "name": "movesMade",
              "type": "uint8"
            },
            {
              "internalType": "uint64",
              "name": "lastMoveAt",
              "type": "uint64"
            },
            {
              "internalType": "bytes32",
              "name": "team1MovesEncrypted",
              "type": "bytes32"
            },
            {
              "internalType": "bytes32",
              "name": "team2MovesEncrypted",
              "type": "bytes32"
            },
            {
              "internalType": "enum GameLib.TeamEnum",
              "name": "lastMoveTeam",
              "type": "uint8"
            },
            {
              "internalType": "uint8",
              "name": "team1score",
              "type": "uint8"
            },
            {
              "internalType": "uint8",
              "name": "team2score",
              "type": "uint8"
            }
          ],
          "internalType": "struct GameLib.GameState",
          "name": "gameState",
          "type": "tuple"
        },
        {
          "components": [
            {
              "internalType": "uint256",
              "name": "teamId",
              "type": "uint256"
            },
            {
              "internalType": "uint64",
              "name": "eloRating",
              "type": "uint64"
            },
            {
              "internalType": "uint64",
              "name": "eloRatingNew",
              "type": "uint64"
            },
            {
              "internalType": "enum GameLib.TeamFormation",
              "name": "formation",
              "type": "uint8"
            },
            {
              "internalType": "uint256[5]",
              "name": "__gap",
              "type": "uint256[5]"
            }
          ],
          "internalType": "struct GameLib.TeamInfo",
          "name": "team1",
          "type": "tuple"
        },
        {
          "components": [
            {
              "internalType": "uint256",
              "name": "teamId",
              "type": "uint256"
            },
            {
              "internalType": "uint64",
              "name": "eloRating",
              "type": "uint64"
            },
            {
              "internalType": "uint64",
              "name": "eloRatingNew",
              "type": "uint64"
            },
            {
              "internalType": "enum GameLib.TeamFormation",
              "name": "formation",
              "type": "uint8"
            },
            {
              "internalType": "uint256[5]",
              "name": "__gap",
              "type": "uint256[5]"
            }
          ],
          "internalType": "struct GameLib.TeamInfo",
          "name": "team2",
          "type": "tuple"
        },
        {
          "internalType": "enum GameLib.GameStatus",
          "name": "status",
          "type": "uint8"
        },
        {
          "internalType": "enum GameLib.TeamEnum",
          "name": "winner",
          "type": "uint8"
        },
        {
          "components": [
            {
              "components": [
                {
                  "internalType": "uint8",
                  "name": "x",
                  "type": "uint8"
                },
                {
                  "internalType": "uint8",
                  "name": "y",
                  "type": "uint8"
                }
              ],
              "internalType": "struct GameLib.Position[6]",
              "name": "team1PlayerPositions",
              "type": "tuple[6]"
            },
            {
              "components": [
                {
                  "internalType": "uint8",
                  "name": "x",
                  "type": "uint8"
                },
                {
                  "internalType": "uint8",
                  "name": "y",
                  "type": "uint8"
                }
              ],
              "internalType": "struct GameLib.Position[6]",
              "name": "team2PlayerPositions",
              "type": "tuple[6]"
            },
            {
              "components": [
                {
                  "internalType": "uint8",
                  "name": "x",
                  "type": "uint8"
                },
                {
                  "internalType": "uint8",
                  "name": "y",
                  "type": "uint8"
                }
              ],
              "internalType": "struct GameLib.Position",
              "name": "ballPosition",
              "type": "tuple"
            },
            {
              "internalType": "enum GameLib.TeamEnum",
              "name": "ballOwner",
              "type": "uint8"
            }
          ],
          "internalType": "struct GameLib.BoardState",
          "name": "lastBoardState",
          "type": "tuple"
        },
        {
          "internalType": "bytes32",
          "name": "historyIPFS",
          "type": "bytes32"
        },
        {
          "internalType": "bool",
          "name": "isVerified",
          "type": "bool"
        },
        {
          "internalType": "bytes",
          "name": "encryptedKey",
          "type": "bytes"
        },
        {
          "internalType": "uint8",
          "name": "gameEngineVersion",
          "type": "uint8"
        }
      ],
      "stateMutability": "view",
      "type": "function"
    },
    {
      "inputs": [],
      "name": "gelatoAddress",
      "outputs": [
        {
          "internalType": "address",
          "name": "",
          "type": "address"
        }
      ],
      "stateMutability": "view",
      "type": "function"
    },
    {
      "inputs": [],
      "name": "getActiveGameCount",
      "outputs": [
        {
          "internalType": "uint256",
          "name": "",
          "type": "uint256"
        }
      ],
      "stateMutability": "view",
      "type": "function"
    },
    {
      "inputs": [],
      "name": "getActiveGames",
      "outputs": [
        {
          "internalType": "uint256[]",
          "name": "",
          "type": "uint256[]"
        }
      ],
      "stateMutability": "view",
      "type": "function"
    },
    {
      "inputs": [
        {
          "internalType": "uint256",
          "name": "gameId",
          "type": "uint256"
        }
      ],
      "name": "getGame",
      "outputs": [
        {
          "components": [
            {
              "internalType": "uint256",
              "name": "gameId",
              "type": "uint256"
            },
            {
              "internalType": "uint256",
              "name": "createdAt",
              "type": "uint256"
            },
            {
              "components": [
                {
                  "internalType": "uint8",
                  "name": "movesMade",
                  "type": "uint8"
                },
                {
                  "internalType": "uint64",
                  "name": "lastMoveAt",
                  "type": "uint64"
                },
                {
                  "internalType": "bytes32",
                  "name": "team1MovesEncrypted",
                  "type": "bytes32"
                },
                {
                  "internalType": "bytes32",
                  "name": "team2MovesEncrypted",
                  "type": "bytes32"
                },
                {
                  "internalType": "enum GameLib.TeamEnum",
                  "name": "lastMoveTeam",
                  "type": "uint8"
                },
                {
                  "internalType": "uint8",
                  "name": "team1score",
                  "type": "uint8"
                },
                {
                  "internalType": "uint8",
                  "name": "team2score",
                  "type": "uint8"
                }
              ],
              "internalType": "struct GameLib.GameState",
              "name": "gameState",
              "type": "tuple"
            },
            {
              "components": [
                {
                  "internalType": "uint256",
                  "name": "teamId",
                  "type": "uint256"
                },
                {
                  "internalType": "uint64",
                  "name": "eloRating",
                  "type": "uint64"
                },
                {
                  "internalType": "uint64",
                  "name": "eloRatingNew",
                  "type": "uint64"
                },
                {
                  "internalType": "enum GameLib.TeamFormation",
                  "name": "formation",
                  "type": "uint8"
                },
                {
                  "internalType": "uint256[5]",
                  "name": "__gap",
                  "type": "uint256[5]"
                }
              ],
              "internalType": "struct GameLib.TeamInfo",
              "name": "team1",
              "type": "tuple"
            },
            {
              "components": [
                {
                  "internalType": "uint256",
                  "name": "teamId",
                  "type": "uint256"
                },
                {
                  "internalType": "uint64",
                  "name": "eloRating",
                  "type": "uint64"
                },
                {
                  "internalType": "uint64",
                  "name": "eloRatingNew",
                  "type": "uint64"
                },
                {
                  "internalType": "enum GameLib.TeamFormation",
                  "name": "formation",
                  "type": "uint8"
                },
                {
                  "internalType": "uint256[5]",
                  "name": "__gap",
                  "type": "uint256[5]"
                }
              ],
              "internalType": "struct GameLib.TeamInfo",
              "name": "team2",
              "type": "tuple"
            },
            {
              "internalType": "enum GameLib.GameStatus",
              "name": "status",
              "type": "uint8"
            },
            {
              "internalType": "enum GameLib.TeamEnum",
              "name": "winner",
              "type": "uint8"
            },
            {
              "components": [
                {
                  "components": [
                    {
                      "internalType": "uint8",
                      "name": "x",
                      "type": "uint8"
                    },
                    {
                      "internalType": "uint8",
                      "name": "y",
                      "type": "uint8"
                    }
                  ],
                  "internalType": "struct GameLib.Position[6]",
                  "name": "team1PlayerPositions",
                  "type": "tuple[6]"
                },
                {
                  "components": [
                    {
                      "internalType": "uint8",
                      "name": "x",
                      "type": "uint8"
                    },
                    {
                      "internalType": "uint8",
                      "name": "y",
                      "type": "uint8"
                    }
                  ],
                  "internalType": "struct GameLib.Position[6]",
                  "name": "team2PlayerPositions",
                  "type": "tuple[6]"
                },
                {
                  "components": [
                    {
                      "internalType": "uint8",
                      "name": "x",
                      "type": "uint8"
                    },
                    {
                      "internalType": "uint8",
                      "name": "y",
                      "type": "uint8"
                    }
                  ],
                  "internalType": "struct GameLib.Position",
                  "name": "ballPosition",
                  "type": "tuple"
                },
                {
                  "internalType": "enum GameLib.TeamEnum",
                  "name": "ballOwner",
                  "type": "uint8"
                }
              ],
              "internalType": "struct GameLib.BoardState",
              "name": "lastBoardState",
              "type": "tuple"
            },
            {
              "internalType": "bytes32",
              "name": "historyIPFS",
              "type": "bytes32"
            },
            {
              "internalType": "bool",
              "name": "isVerified",
              "type": "bool"
            },
            {
              "internalType": "bytes",
              "name": "encryptedKey",
              "type": "bytes"
            },
            {
              "internalType": "uint8",
              "name": "gameEngineVersion",
              "type": "uint8"
            },
            {
              "internalType": "uint256[10]",
              "name": "__gap",
              "type": "uint256[10]"
            }
          ],
          "internalType": "struct GameLib.Game",
          "name": "",
          "type": "tuple"
        }
      ],
      "stateMutability": "view",
      "type": "function"
    },
    {
      "inputs": [
        {
          "internalType": "uint256",
          "name": "requestId",
          "type": "uint256"
        }
      ],
      "name": "getGameRequest",
      "outputs": [
        {
          "components": [
            {
              "internalType": "uint256",
              "name": "gameRequestId",
              "type": "uint256"
            },
            {
              "internalType": "uint256",
              "name": "team1id",
              "type": "uint256"
            },
            {
              "internalType": "uint256",
              "name": "team2id",
              "type": "uint256"
            },
            {
              "internalType": "uint256",
              "name": "createdAt",
              "type": "uint256"
            }
          ],
          "internalType": "struct GameLib.GameRequest",
          "name": "",
          "type": "tuple"
        }
      ],
      "stateMutability": "view",
      "type": "function"
    },
    {
      "inputs": [
        {
          "internalType": "uint256",
          "name": "gameId",
          "type": "uint256"
        }
      ],
      "name": "getGameStatus",
      "outputs": [
        {
          "internalType": "enum GameLib.GameStatus",
          "name": "",
          "type": "uint8"
        }
      ],
      "stateMutability": "view",
      "type": "function"
    },
    {
      "inputs": [
        {
          "internalType": "uint256",
          "name": "teamId",
          "type": "uint256"
        },
        {
          "internalType": "uint256",
          "name": "n",
          "type": "uint256"
        }
      ],
      "name": "getLastNGames",
      "outputs": [
        {
          "components": [
            {
              "internalType": "uint256",
              "name": "gameId",
              "type": "uint256"
            },
            {
              "internalType": "uint256",
              "name": "createdAt",
              "type": "uint256"
            },
            {
              "components": [
                {
                  "internalType": "uint8",
                  "name": "movesMade",
                  "type": "uint8"
                },
                {
                  "internalType": "uint64",
                  "name": "lastMoveAt",
                  "type": "uint64"
                },
                {
                  "internalType": "bytes32",
                  "name": "team1MovesEncrypted",
                  "type": "bytes32"
                },
                {
                  "internalType": "bytes32",
                  "name": "team2MovesEncrypted",
                  "type": "bytes32"
                },
                {
                  "internalType": "enum GameLib.TeamEnum",
                  "name": "lastMoveTeam",
                  "type": "uint8"
                },
                {
                  "internalType": "uint8",
                  "name": "team1score",
                  "type": "uint8"
                },
                {
                  "internalType": "uint8",
                  "name": "team2score",
                  "type": "uint8"
                }
              ],
              "internalType": "struct GameLib.GameState",
              "name": "gameState",
              "type": "tuple"
            },
            {
              "components": [
                {
                  "internalType": "uint256",
                  "name": "teamId",
                  "type": "uint256"
                },
                {
                  "internalType": "uint64",
                  "name": "eloRating",
                  "type": "uint64"
                },
                {
                  "internalType": "uint64",
                  "name": "eloRatingNew",
                  "type": "uint64"
                },
                {
                  "internalType": "enum GameLib.TeamFormation",
                  "name": "formation",
                  "type": "uint8"
                },
                {
                  "internalType": "uint256[5]",
                  "name": "__gap",
                  "type": "uint256[5]"
                }
              ],
              "internalType": "struct GameLib.TeamInfo",
              "name": "team1",
              "type": "tuple"
            },
            {
              "components": [
                {
                  "internalType": "uint256",
                  "name": "teamId",
                  "type": "uint256"
                },
                {
                  "internalType": "uint64",
                  "name": "eloRating",
                  "type": "uint64"
                },
                {
                  "internalType": "uint64",
                  "name": "eloRatingNew",
                  "type": "uint64"
                },
                {
                  "internalType": "enum GameLib.TeamFormation",
                  "name": "formation",
                  "type": "uint8"
                },
                {
                  "internalType": "uint256[5]",
                  "name": "__gap",
                  "type": "uint256[5]"
                }
              ],
              "internalType": "struct GameLib.TeamInfo",
              "name": "team2",
              "type": "tuple"
            },
            {
              "internalType": "enum GameLib.GameStatus",
              "name": "status",
              "type": "uint8"
            },
            {
              "internalType": "enum GameLib.TeamEnum",
              "name": "winner",
              "type": "uint8"
            },
            {
              "components": [
                {
                  "components": [
                    {
                      "internalType": "uint8",
                      "name": "x",
                      "type": "uint8"
                    },
                    {
                      "internalType": "uint8",
                      "name": "y",
                      "type": "uint8"
                    }
                  ],
                  "internalType": "struct GameLib.Position[6]",
                  "name": "team1PlayerPositions",
                  "type": "tuple[6]"
                },
                {
                  "components": [
                    {
                      "internalType": "uint8",
                      "name": "x",
                      "type": "uint8"
                    },
                    {
                      "internalType": "uint8",
                      "name": "y",
                      "type": "uint8"
                    }
                  ],
                  "internalType": "struct GameLib.Position[6]",
                  "name": "team2PlayerPositions",
                  "type": "tuple[6]"
                },
                {
                  "components": [
                    {
                      "internalType": "uint8",
                      "name": "x",
                      "type": "uint8"
                    },
                    {
                      "internalType": "uint8",
                      "name": "y",
                      "type": "uint8"
                    }
                  ],
                  "internalType": "struct GameLib.Position",
                  "name": "ballPosition",
                  "type": "tuple"
                },
                {
                  "internalType": "enum GameLib.TeamEnum",
                  "name": "ballOwner",
                  "type": "uint8"
                }
              ],
              "internalType": "struct GameLib.BoardState",
              "name": "lastBoardState",
              "type": "tuple"
            },
            {
              "internalType": "bytes32",
              "name": "historyIPFS",
              "type": "bytes32"
            },
            {
              "internalType": "bool",
              "name": "isVerified",
              "type": "bool"
            },
            {
              "internalType": "bytes",
              "name": "encryptedKey",
              "type": "bytes"
            },
            {
              "internalType": "uint8",
              "name": "gameEngineVersion",
              "type": "uint8"
            },
            {
              "internalType": "uint256[10]",
              "name": "__gap",
              "type": "uint256[10]"
            }
          ],
          "internalType": "struct GameLib.Game[]",
          "name": "",
          "type": "tuple[]"
        }
      ],
      "stateMutability": "view",
      "type": "function"
    },
    {
      "inputs": [
        {
          "internalType": "uint256",
          "name": "teamId",
          "type": "uint256"
        }
      ],
      "name": "getTeam",
      "outputs": [
        {
          "components": [
            {
              "internalType": "uint256",
              "name": "id",
              "type": "uint256"
            },
            {
              "internalType": "address",
              "name": "wallet",
              "type": "address"
            },
            {
              "internalType": "string",
              "name": "name",
              "type": "string"
            },
            {
              "internalType": "uint64",
              "name": "eloRating",
              "type": "uint64"
            },
            {
              "internalType": "uint256",
              "name": "registeredAt",
              "type": "uint256"
            },
            {
              "internalType": "uint256[]",
              "name": "games",
              "type": "uint256[]"
            },
            {
              "internalType": "uint8",
              "name": "country",
              "type": "uint8"
            },
            {
              "internalType": "bool",
              "name": "hasActiveGame",
              "type": "bool"
            },
            {
              "internalType": "uint256",
              "name": "gameRequestId",
              "type": "uint256"
            },
            {
              "internalType": "uint64",
              "name": "totalGames",
              "type": "uint64"
            },
            {
              "internalType": "uint256[10]",
              "name": "__gap",
              "type": "uint256[10]"
            }
          ],
          "internalType": "struct GameLib.Team",
          "name": "",
          "type": "tuple"
        }
      ],
      "stateMutability": "view",
      "type": "function"
    },
    {
      "inputs": [
        {
          "internalType": "address",
          "name": "wallet",
          "type": "address"
        }
      ],
      "name": "getTeamIdByWallet",
      "outputs": [
        {
          "internalType": "uint256",
          "name": "",
          "type": "uint256"
        }
      ],
      "stateMutability": "view",
      "type": "function"
    },
    {
      "inputs": [
        {
          "internalType": "address",
          "name": "_relayerAddress",
          "type": "address"
        },
        {
          "internalType": "address",
          "name": "_relayerSmartAccountAddress",
          "type": "address"
        },
        {
          "internalType": "address",
          "name": "_gameEngineServerAddress",
          "type": "address"
        },
        {
          "internalType": "string",
          "name": "_publicKey",
          "type": "string"
        }
      ],
      "name": "initialize",
      "outputs": [],
      "stateMutability": "nonpayable",
      "type": "function"
    },
    {
      "inputs": [
        {
          "internalType": "uint256",
          "name": "gameId",
          "type": "uint256"
        },
        {
          "internalType": "enum GameLib.StateType",
          "name": "stateType",
          "type": "uint8"
        },
        {
          "internalType": "uint8[]",
          "name": "clashRandomNumbers",
          "type": "uint8[]"
        },
        {
          "components": [
            {
              "internalType": "uint256",
              "name": "playerId",
              "type": "uint256"
            },
            {
              "internalType": "enum GameLib.MoveType",
              "name": "moveType",
              "type": "uint8"
            },
            {
              "components": [
                {
                  "internalType": "uint8",
                  "name": "x",
                  "type": "uint8"
                },
                {
                  "internalType": "uint8",
                  "name": "y",
                  "type": "uint8"
                }
              ],
              "internalType": "struct GameLib.Position",
              "name": "oldPosition",
              "type": "tuple"
            },
            {
              "components": [
                {
                  "internalType": "uint8",
                  "name": "x",
                  "type": "uint8"
                },
                {
                  "internalType": "uint8",
                  "name": "y",
                  "type": "uint8"
                }
              ],
              "internalType": "struct GameLib.Position",
              "name": "newPosition",
              "type": "tuple"
            }
          ],
          "internalType": "struct GameLib.GameAction[]",
          "name": "team1Actions",
          "type": "tuple[]"
        },
        {
          "components": [
            {
              "internalType": "uint256",
              "name": "playerId",
              "type": "uint256"
            },
            {
              "internalType": "enum GameLib.MoveType",
              "name": "moveType",
              "type": "uint8"
            },
            {
              "components": [
                {
                  "internalType": "uint8",
                  "name": "x",
                  "type": "uint8"
                },
                {
                  "internalType": "uint8",
                  "name": "y",
                  "type": "uint8"
                }
              ],
              "internalType": "struct GameLib.Position",
              "name": "oldPosition",
              "type": "tuple"
            },
            {
              "components": [
                {
                  "internalType": "uint8",
                  "name": "x",
                  "type": "uint8"
                },
                {
                  "internalType": "uint8",
                  "name": "y",
                  "type": "uint8"
                }
              ],
              "internalType": "struct GameLib.Position",
              "name": "newPosition",
              "type": "tuple"
            }
          ],
          "internalType": "struct GameLib.GameAction[]",
          "name": "team2Actions",
          "type": "tuple[]"
        },
        {
          "components": [
            {
              "components": [
                {
                  "internalType": "uint8",
                  "name": "x",
                  "type": "uint8"
                },
                {
                  "internalType": "uint8",
                  "name": "y",
                  "type": "uint8"
                }
              ],
              "internalType": "struct GameLib.Position[6]",
              "name": "team1PlayerPositions",
              "type": "tuple[6]"
            },
            {
              "components": [
                {
                  "internalType": "uint8",
                  "name": "x",
                  "type": "uint8"
                },
                {
                  "internalType": "uint8",
                  "name": "y",
                  "type": "uint8"
                }
              ],
              "internalType": "struct GameLib.Position[6]",
              "name": "team2PlayerPositions",
              "type": "tuple[6]"
            },
            {
              "components": [
                {
                  "internalType": "uint8",
                  "name": "x",
                  "type": "uint8"
                },
                {
                  "internalType": "uint8",
                  "name": "y",
                  "type": "uint8"
                }
              ],
              "internalType": "struct GameLib.Position",
              "name": "ballPosition",
              "type": "tuple"
            },
            {
              "internalType": "enum GameLib.TeamEnum",
              "name": "ballOwner",
              "type": "uint8"
            }
          ],
          "internalType": "struct GameLib.BoardState",
          "name": "boardState",
          "type": "tuple"
        }
      ],
      "name": "newGameState",
      "outputs": [],
      "stateMutability": "nonpayable",
      "type": "function"
    },
    {
      "inputs": [],
      "name": "nextGameId",
      "outputs": [
        {
          "internalType": "uint256",
          "name": "",
          "type": "uint256"
        }
      ],
      "stateMutability": "view",
      "type": "function"
    },
    {
      "inputs": [],
      "name": "nextTeamId",
      "outputs": [
        {
          "internalType": "uint256",
          "name": "",
          "type": "uint256"
        }
      ],
      "stateMutability": "view",
      "type": "function"
    },
    {
      "inputs": [],
      "name": "owner",
      "outputs": [
        {
          "internalType": "address",
          "name": "",
          "type": "address"
        }
      ],
      "stateMutability": "view",
      "type": "function"
    },
    {
      "inputs": [],
      "name": "proxiableUUID",
      "outputs": [
        {
          "internalType": "bytes32",
          "name": "",
          "type": "bytes32"
        }
      ],
      "stateMutability": "view",
      "type": "function"
    },
    {
      "inputs": [],
      "name": "relayerAddress",
      "outputs": [
        {
          "internalType": "address",
          "name": "",
          "type": "address"
        }
      ],
      "stateMutability": "view",
      "type": "function"
    },
    {
      "inputs": [],
      "name": "relayerSmartAccountAddress",
      "outputs": [
        {
          "internalType": "address",
          "name": "",
          "type": "address"
        }
      ],
      "stateMutability": "view",
      "type": "function"
    },
    {
      "inputs": [],
      "name": "renounceOwnership",
      "outputs": [],
      "stateMutability": "nonpayable",
      "type": "function"
    },
    {
      "inputs": [
        {
          "internalType": "uint256",
          "name": "gameId",
          "type": "uint256"
        },
        {
          "internalType": "enum GameLib.TeamEnum",
          "name": "cauzedByTeam",
          "type": "uint8"
        },
        {
          "internalType": "enum ChessBallGame.ErrorType",
          "name": "errorType",
          "type": "uint8"
        },
        {
          "internalType": "string",
          "name": "errorMsg",
          "type": "string"
        }
      ],
      "name": "setGameError",
      "outputs": [],
      "stateMutability": "nonpayable",
      "type": "function"
    },
    {
      "inputs": [
        {
          "internalType": "uint256",
          "name": "gameRequestId",
          "type": "uint256"
        },
        {
          "internalType": "bytes",
          "name": "_encryptedKey",
          "type": "bytes"
        }
      ],
      "name": "startGame",
      "outputs": [],
      "stateMutability": "nonpayable",
      "type": "function"
    },
    {
      "inputs": [
        {
          "internalType": "address",
          "name": "sender",
          "type": "address"
        },
        {
          "internalType": "uint256",
          "name": "gameRequestId",
          "type": "uint256"
        },
        {
          "internalType": "bytes",
          "name": "_encryptedKey",
          "type": "bytes"
        }
      ],
      "name": "startGameRelayer",
      "outputs": [],
      "stateMutability": "nonpayable",
      "type": "function"
    },
    {
      "inputs": [
        {
          "internalType": "address",
          "name": "",
          "type": "address"
        }
      ],
      "name": "teamIdByWallet",
      "outputs": [
        {
          "internalType": "uint256",
          "name": "",
          "type": "uint256"
        }
      ],
      "stateMutability": "view",
      "type": "function"
    },
    {
      "inputs": [
        {
          "internalType": "string",
          "name": "",
          "type": "string"
        }
      ],
      "name": "teamNames",
      "outputs": [
        {
          "internalType": "bool",
          "name": "",
          "type": "bool"
        }
      ],
      "stateMutability": "view",
      "type": "function"
    },
    {
      "inputs": [
        {
          "internalType": "uint256",
          "name": "",
          "type": "uint256"
        }
      ],
      "name": "teams",
      "outputs": [
        {
          "internalType": "uint256",
          "name": "id",
          "type": "uint256"
        },
        {
          "internalType": "address",
          "name": "wallet",
          "type": "address"
        },
        {
          "internalType": "string",
          "name": "name",
          "type": "string"
        },
        {
          "internalType": "uint64",
          "name": "eloRating",
          "type": "uint64"
        },
        {
          "internalType": "uint256",
          "name": "registeredAt",
          "type": "uint256"
        },
        {
          "internalType": "uint8",
          "name": "country",
          "type": "uint8"
        },
        {
          "internalType": "bool",
          "name": "hasActiveGame",
          "type": "bool"
        },
        {
          "internalType": "uint256",
          "name": "gameRequestId",
          "type": "uint256"
        },
        {
          "internalType": "uint64",
          "name": "totalGames",
          "type": "uint64"
        }
      ],
      "stateMutability": "view",
      "type": "function"
    },
    {
      "inputs": [
        {
          "internalType": "address",
          "name": "newOwner",
          "type": "address"
        }
      ],
      "name": "transferOwnership",
      "outputs": [],
      "stateMutability": "nonpayable",
      "type": "function"
    },
    {
      "inputs": [
        {
          "internalType": "address",
          "name": "newImplementation",
          "type": "address"
        },
        {
          "internalType": "bytes",
          "name": "data",
          "type": "bytes"
        }
      ],
      "name": "upgradeToAndCall",
      "outputs": [],
      "stateMutability": "payable",
      "type": "function"
    }
  ],
  "bytecode": "0x60a08060405234620000d157306080527ff0c57e16840df040f15088dc2f81fe391c3923bec73e23a9662efc9c229c6a009081549060ff8260401c16620000c257506001600160401b036002600160401b0319828216016200007c575b6040516154929081620000d7823960805181818161135f01526114430152f35b6001600160401b031990911681179091556040519081527fc7f505b2f371ae2175ee4913f4499e1f2633a7b5936321eed1cdaeb6115181d290602090a13880806200005c565b63f92ee8a960e01b8152600490fd5b600080fdfe608080604052600436101561001357600080fd5b60003560e01c9081628e0f1b14611de35750806302f785fd14611d565780630f1bf45414611d045780630fb9f86914611b8d578063117a5b9014611a5857806313e4c71414611a215780631894c75614611a0357806318a7cca8146119da5780631b76929c1461194157806322d60b1a146119295780632cc9c964146119005780632df84be5146117c65780633ed2b77a14611708578063414aa4d41461169b57806349e3969a146116455780634cf97fad146115fe5780634f1ef286146113f457806351903bd9146113b757806352d1902d1461134c57806359bcfbe41461128657806365e8e4f414610fc357806368599d0c14610fa55780636e6964d714610f44578063715018a614610eec57806371f5001f146109bc57806379b880ac146107c55780637bb597fa146107a75780638da5cb5b1461077157806392a52e8114610723578063a2f77bcc146105ed578063a462816c146105c4578063a88c8be91461058b578063a89ae45714610562578063ad3cb1cc14610518578063afcaa6e3146104a4578063b135bbb014610486578063c4b634f31461040b578063c648041314610202578063c9495041146103b9578063e34c2e5814610326578063ec5c504e14610309578063f2b1ffcf1461026c578063f2fde38b146102415763ff156d001461020257600080fd5b3461023c57602036600319011261023c576001600160a01b03610223612763565b1660005260056020526020604060002054604051908152f35b600080fd5b3461023c57602036600319011261023c5761026a61025d612763565b61026561447e565b612e8c565b005b3461023c57608036600319011261023c57610285612763565b60243590604435600381101561023c57600154336001600160a01b03918216141590816102fa575b506102e857826000526003602052600160406000200154156102d65761026a9260643592614cd3565b60405163b0ce759160e01b8152600490fd5b604051639608c6ff60e01b8152600490fd5b9050600d5416331415846102ad565b3461023c57602036600319011261023c5761026a60043533614b66565b3461023c57602036600319011261023c57600435610342612e67565b50806000526009602052600360406000200154156102d65760005260096020526080604060002060405161037581612381565b815491828252600181015460208301908152606060036002840154936040860194855201549301928352604051938452516020840152516040830152516060820152f35b3461023c57604036600319011261023c576103d2612763565b600154336001600160a01b03918216141590816103fc575b506102e85761026a9060243590614b66565b9050600d5416331415826103ea565b3461023c57606036600319011261023c57610424612763565b6024356001600160401b03811161023c57610443903690600401612476565b6044359060ff8216820361023c57600154336001600160a01b0391821614159081610477575b506102e85761026a9261340f565b9050600d541633141584610469565b3461023c57600036600319011261023c576020600654604051908152f35b3461023c57606036600319011261023c576104bd612763565b6044356001600160401b03811161023c576104dc903690600401612787565b600154909190336001600160a01b0391821614159081610509575b506102e85761026a9260243590613a35565b9050600d5416331415846104f7565b3461023c57600036600319011261023c5761055e604051610538816123b7565b60058152640352e302e360dc1b6020820152604051918291602083526020830190612078565b0390f35b3461023c57600036600319011261023c57600d546040516001600160a01b039091168152602090f35b3461023c57602036600319011261023c576004356001600160401b03811161023c576105be61026a913690600401612476565b336130fd565b3461023c57600036600319011261023c576002546040516001600160a01b039091168152602090f35b3461023c5760208060031936011261023c5760043561060a6128c3565b508060005260038252600160406000200154156102d6576000526003815260406000209061070960276040519361064085612365565b805485526001810154848601526106596002820161249d565b604086015261066a60068201612503565b606086015261067b600d8201612503565b60808601526106a860ff6014830154818116610696816121b2565b60a089015260081c1660c08701612491565b6106b4601582016125fb565b60e0860152602381015461010086015260ff60248201541615156101208601526040516106ef816106e88160258601612684565b0382612401565b61014086015260ff602682015416610160860152016127e4565b61018083015261055e604051928284938452830190612251565b3461023c57602036600319011261023c576004356000526009602052608060406000208054906001810154906003600282015491015491604051938452602084015260408301526060820152f35b3461023c57600036600319011261023c5760008051602061537d833981519152546040516001600160a01b039091168152602090f35b3461023c57600036600319011261023c576020600a54604051908152f35b3461023c57604036600319011261023c576107de612763565b6001805460243592906001600160a01b03908116331415806109ae575b6102e85783600052602092600384528060406000200154156102d65784600052600384528060406000200154156102d65784600052600384526040600020938160ff60148701541661084c816121b2565b0361099c5760068501548060005260048252838084604060002001541695168095141580610981575b61096f576000526004815283838360406000200154161480610963575b61094557600490600d8601546000525260406000200154161480610957575b6109455760018060401b03600282015460081c16603c810180911161092f5742111561091d576005015460ff16600381101561090757156108f55761026a906144b7565b6040516356eff76b60e01b8152600490fd5b634e487b7160e01b600052602160045260246000fd5b604051634e7fc88160e11b8152600490fd5b634e487b7160e01b600052601160045260246000fd5b604051631e86addb60e01b8152600490fd5b506004810154156108b1565b50600385015415610892565b604051633093624d60e21b8152600490fd5b50600d86015460005284848460406000200154161415610875565b6040516314bc0c2f60e31b8152600490fd5b5080600d54163314156107fb565b3461023c5761040036600319011261023c576004602435101561023c576001600160401b036044351161023c5736602360443501121561023c576001600160401b03600460443501351161023c573660246044356004013560051b60443501011161023c576064356001600160401b03811161023c57610a409036906004016127b4565b6084356001600160401b03811161023c57610a5f9036906004016127b4565b90916103603660a319011261023c576004356000526003602052600160406000200154156102d657600254336001600160a01b0391821614159081610edc575b81610ecd575b50610ebb576004356000526003602052604060002092600160ff601486015416610ace816121b2565b0361099c5760ff600285015416610e8b575b60158401600060a45b60068210610e5557505050601b840160006102245b60068210610e19575050506103a43560ff8116810361023c5760ff1660ff1960218601541617602185015560ff6103c435166103c4350361023c57610b496103c43560218601612d4b565b60036103e435101561023c57610b656103e43560228601612cc1565b610c5d60c06002860154610b7b60ff8216612d61565b90610b876024356121b2565b602435600203610e0957610ba460ff60058a015460081c16612d61565b610baf6024356121b2565b602435600303610df857610bcc60ff60058b015460101c16612d61565b925b60ff808060405193610bdf8561234a565b169384845260018060401b034216602085015260006040850152600060608501526000608085015216948560a0840152169485910152610100600160481b034260081b169160018060481b031916171760028801556000600388015560006004880155610c58600588019160ff19835416835582612d4b565b612d73565b610c686024356121b2565b602435600203610dc1576040516001815260008051602061535d833981519152602060043592a25b835492604051926104008401610ca76024356121b2565b6024358552426020860152610400604086015260443560040135905261042084019660246044350160005b604435600401358110610da157505093610d32600296947f1cc12e86ff5f2b2e761ab2fd8a6e3ee635d92958237b110363a2868ed2b6f8be94610d248b859660ff9c9a87602d9f036060890152612dad565b918483036080860152612dad565b610d4260a0830160158801612e2a565b610d536102208301601b8801612e2a565b610d736103a083016021880160ff60209154818116845260081c16910152565b610d88886022880154166103e08401906120db565b0390a20154161015610d9657005b61026a6004356146f6565b909860208060019260ff610db48e612779565b168152019a019101610cd2565b610dcc6024356121b2565b600360243503610c90576040516002815260008051602061535d833981519152602060043592a2610c90565b60ff60058a015460101c1692610bce565b60ff600589015460081c16610ba4565b600160408260ff610e2a8495612d3d565b1660ff19875416178655610e49610e4360208301612d3d565b87612d4b565b01930191019091610afe565b600160408260ff610e668495612d3d565b1660ff19875416178655610e7f610e4360208301612d3d565b01930191019091610ae9565b6003840154158015610eaf575b15610ae057604051631e86addb60e01b8152600490fd5b50600484015415610e98565b604051631c307ff760e31b8152600490fd5b9050600d541633141585610aa5565b8091506001541633141590610a9f565b3461023c57600036600319011261023c57610f0561447e565b60008051602061537d83398151915280546001600160a01b031981169091556000906001600160a01b03166000805160206153bd8339815191528280a3005b3461023c57602036600319011261023c576004356001600160401b03811161023c5760ff610f8f6020610f7c81943690600401612476565b8160405193828580945193849201612055565b8101600b81520301902054166040519015158152f35b3461023c57600036600319011261023c576020600754604051908152f35b3461023c57608036600319011261023c57610fdc612763565b6001600160a01b036024358181169081900361023c576044359282841680940361023c576001600160401b0360643581811161023c57611020903690600401612476565b946000805160206153dd8339815191529384549560ff8760401c1615948488169788158061127f575b6001809a149081611275575b15908161126c575b5061125a576001600160401b03198116891788558661123f575b501690811561122d57801561122d57821561122d5760018060a01b0319918288541617875581600d541617600d5560025416176002558451908111611217576110c1600c5461264a565b601f81116111bd575b50602094601f8211600114611158576110f192939495829160009261114d575b5050612d2a565b600c555b6110fd614f01565b611105614f01565b61110e33612e8c565b61111457005b805460ff60401b191690556040519081527fc7f505b2f371ae2175ee4913f4499e1f2633a7b5936321eed1cdaeb6115181d290602090a1005b0151905086806110ea565b601f19821695600c600052806000209160005b8881106111a75750838798979596971061118e575b505050811b01600c556110f5565b015160001960f88460031b161c19169055858080611180565b818301518455928701926020928301920161116b565b600c600052611207907fdf6966c971051c3d54ec59162606531493a51404a002842f56009d7e5cf4a8c7601f840160051c8101916020851061120d575b601f0160051c0190612cd9565b856110ca565b90915081906111fa565b634e487b7160e01b600052604160045260246000fd5b6040516301369f3160e61b8152600490fd5b6001600160481b0319166001600160401b0117875589611077565b60405163f92ee8a960e01b8152600490fd5b9050158b61105d565b303b159150611055565b5086611049565b3461023c57600036600319011261023c57604051600c546000826112a98361264a565b918282526020936001908560018216918260001461132c5750506001146112ec575b506112d892500383612401565b61055e604051928284938452830190612078565b849150600c60005281600020906000915b8583106113145750506112d89350820101856112cb565b805483890185015287945086939092019181016112fd565b60ff1916858201526112d895151560051b85010192508791506112cb9050565b3461023c57600036600319011261023c577f00000000000000000000000000000000000000000000000000000000000000006001600160a01b031630036113a557602060405160008051602061539d8339815191528152f35b60405163703e46dd60e11b8152600490fd5b3461023c57604036600319011261023c576024356001600160401b03811161023c576113ea61026a913690600401612787565b9060043533613a35565b604036600319011261023c57611408612763565b6024356001600160401b03811161023c573660238201121561023c5761143890369060248160040135910161243f565b906001600160a01b037f000000000000000000000000000000000000000000000000000000000000000081163081149081156115e2575b506113a55761147c61447e565b6040516352d1902d60e01b8152908216916020918281600481875afa600091816115b3575b506114bf57604051634c9c8ce360e01b815260048101859052602490fd5b92849360008051602061539d8339815191529081810361159b5750823b156115825780546001600160a01b03191682179055604051907fbc7cd75a20ee27fd9adebab32041f755214dbc6bffa90cc0225b39da2e5c2d3b600080a28351156115685750600080848461026a96519101845af4903d1561155f573d61154281612424565b906115506040519283612401565b8152600081943d92013e614f61565b60609250614f61565b925050503461157357005b63b398979f60e01b8152600490fd5b604051634c9c8ce360e01b815260048101839052602490fd5b60249060405190632a87526960e21b82526004820152fd5b9091508381813d83116115db575b6115cb8183612401565b8101031261023c575190866114a1565b503d6115c1565b90508160008051602061539d833981519152541614158461146f565b3461023c57604036600319011261023c576004356001600160401b03811161023c5761162e903690600401612476565b60243560ff8116810361023c5761026a913361340f565b3461023c57606036600319011261023c5761165e612763565b600154336001600160a01b039182161415908161168c575b506102e85761026a906044359060243590612f13565b9050600d541633141582611676565b3461023c57604036600319011261023c576116b4612763565b6024356001600160401b03811161023c576116d3903690600401612476565b600154336001600160a01b03918216141590816116f9575b506102e85761026a916130fd565b9050600d5416331415836116eb565b3461023c57602036600319011261023c576004356000526004602052604060002080549060018060a01b036001820154169060405161174e816106e88160028601612684565b60018060401b039160ff83600383015416936004830154611799600685015492600860078701549601541695604051998a99610120918b5260208b01528060408b0152890190612078565b956060880152608087015281811660a087015260081c16151560c085015260e08401526101008301520390f35b3461023c5760208060031936011261023c5760043590816000526003815260018060406000200154156102d65782600052600382528060406000200154156102d65782600052600382526040600020918160ff601485015416611828816121b2565b0361099c576006830154600081815260048352604090208301546001600160a01b039291908316331415806118e5575b61096f5760005260048152338284604060002001541614806118d9575b61094557600490600d85015460005252339160406000200154161480610957576109455760018060401b03600282015460081c16603c810180911161092f5742111561091d576005015460ff16600381101561090757156108f55761026a906144b7565b50600384015415611875565b50600d85015460005233838560406000200154161415611858565b3461023c57600036600319011261023c576000546040516001600160a01b039091168152602090f35b3461023c5761026a61193a366120c5565b9033612f13565b3461023c57600036600319011261023c5760405180600854808352602080930180916008600052846000209060005b868282106119c657868661198682880383612401565b604051928392818401908285525180915260408401929160005b8281106119af57505050500390f35b8351855286955093810193928101926001016119a0565b835485529093019260019283019201611970565b3461023c57600036600319011261023c576001546040516001600160a01b039091168152602090f35b3461023c57600036600319011261023c576020600854604051908152f35b3461023c57602036600319011261023c5760043560085481101561023c57611a4a60209161271a565b90546040519160031b1c8152f35b3461023c57602036600319011261023c5760043560005260036020526040600020805460018201549060028301611a8e9061249d565b92611a9b60068201612503565b91611aa8600d8301612503565b601483015460ff811690611abe601586016125fb565b90602386015492602487015460ff16946040519788806025830190611ae291612684565b03611aed908a612401565b6026015460ff16986040519b8c9b610780998d5260208d015260408c01611b13916120e8565b6101208b01611b2191612140565b6102408a01611b2f91612140565b611b38816121b2565b61036089015261038088019060081c60ff1690611b54916120db565b6103a08701611b62916121fb565b6107008601521515610720850152806107408501528301611b8291612078565b906107608301520390f35b3461023c57608036600319011261023c576004356024356003811015908161023c57604435600281101561023c576064356001600160401b03811161023c57611bda903690600401612476565b600254909390336001600160a01b0391821614159081611cf4575b81611ce5575b50610ebb57611c0982612cb7565b6001821480611cd9575b611c67575b5090611c6260008051602061543d83398151915293611c3d93604051948580956120db565b611c4681612cb7565b6020840152426040840152608060608401526080830190612078565b0390a2005b8460009392935260036020526040600020906109075760008051602061543d83398151915293611c3d93611c629260018503611cb657600501805460ff191660021790555b9293509350611c18565b60028514611cc5575b50611cac565b600501805460ff1916600117905587611cbf565b50506000821515611c13565b9050600d541633141586611bfb565b8091506001541633141590611bf5565b3461023c57602036600319011261023c57600435806000526003602052600160406000200154156102d6576000526003602052602060ff6014604060002001541660405190611d52816121b2565b8152f35b3461023c57611d64366120c5565b908060005260209160048352604060002054156102d657611d8491612a30565b6040519082820192808352815180945260408301938160408260051b8601019301916000955b828710611db75785850386f35b909192938280611dd3600193603f198a82030186528851612251565b9601920196019592919092611daa565b3461023c57602036600319011261023c5760043590611e018161232e565b6000815260006020820152606060408201526000606082015260006080820152606060a0820152600060c0820152600060e08201526000610100820152600061012082015261014060405191611e56836123e5565b813684370152806000526004602052604060002054156102d6576000526004602052604060002060405190611e8a8261232e565b8054825260018101546001600160a01b03166020830152604051611eb5816106e88160028601612684565b604083015260018060401b036003820154166060830152600481015460808301526005810160405190816020825491828152019160005260206000209060005b81811061203f5786611f5460098888611f10818a0382612401565b60a0850152600681015460ff81811660c0870152600891821c16151560e086015260078201546101008601528101546001600160401b0316610120850152016127e4565b6101408201526040805160208082528351818301528301516001600160a01b031681830152908201516102806060830152611f94906102a0830190612078565b60018060401b036060840151166080830152608083015160a083015260a083015190601f198382030160c08401526020808351928381520192019060005b8181106120295750505061055e6101408460ff60c0869701511660e086015260e0810151151561010086015261010081015161012086015260018060401b036101208201511682860152015161016084019061209d565b8251845260209384019390920191600101611fd2565b8254845260209093019260019283019201611ef5565b60005b8381106120685750506000910152565b8181015183820152602001612058565b9060209161209181518092818552858086019101612055565b601f01601f1916010190565b6000915b600a83106120ae57505050565b6001908251815260208091019201920191906120a1565b604090600319011261023c576004359060243590565b9060038210156109075752565b60ff60c0809282815116855260018060401b036020820151166020860152604081015160408601526060810151606086015261212c608082015160808701906120db565b8260a08201511660a0860152015116910152565b805182526020808201516001600160401b039081168285015260408084015190911690840152606082015190939260019290918381101561090757606083015260809081015160009590929091015b6005861061219f57505050509050565b825181529483019491810191810161218f565b6004111561090757565b906000905b600682106121ce57505050565b60206040826121ef600194875160ff60208092828151168552015116910152565b019301910190916121c1565b90610340606061224f936122108482516121bc565b61222360208201516101808601906121bc565b612245604082015161030086019060ff60208092828151168552015116910152565b01519101906120db565b565b9061232b906107806101806123116108c08651855260208701516020860152612282604088015160408701906120e8565b60608701516122976101209182880190612140565b6122aa6080890151610240880190612140565b60a08801516122b8816121b2565b6103608701526122d160c08901516103808801906120db565b6122e460e08901516103a08801906121fb565b61010088015161070087015287015115156107208601526101408701519080610740870152850190612078565b9460ff61016082015116610760850152015191019061209d565b90565b61016081019081106001600160401b0382111761121757604052565b60e081019081106001600160401b0382111761121757604052565b6101a081019081106001600160401b0382111761121757604052565b608081019081106001600160401b0382111761121757604052565b60a081019081106001600160401b0382111761121757604052565b604081019081106001600160401b0382111761121757604052565b6001600160401b03811161121757604052565b61014081019081106001600160401b0382111761121757604052565b601f909101601f19168101906001600160401b0382119082101761121757604052565b6001600160401b03811161121757601f01601f191660200190565b92919261244b82612424565b916124596040519384612401565b82948184528183011161023c578281602093846000960137010152565b9080601f8301121561023c5781602061232b9335910161243f565b60038210156109075752565b906040516124aa8161234a565b60c060ff600383958054838116865260018060401b039060081c166020860152600181015460408601526002810154606086015201546124ef82821660808601612491565b818160081c1660a085015260101c16910152565b90604051916125118361239c565b82815481526001808301549260ff60018060401b039460209580821660208701528160401c16604086015260801c16600181101561090757606084015260405193600290910190600090855b6005831061257a5750505050506080906125768361239c565b0152565b835481529284019291840191810161255d565b9060405161259a816123b7565b602060ff829454818116845260081c16910152565b604051919060c083016001600160401b03811184821017611217576040526000835b600682106125de57505050565b6001602081926125ed8661258d565b8152019301910190916125d1565b9061224f60405161260b81612381565b606060ff600d839661261c816125af565b855261262a600682016125af565b602086015261263b600c820161258d565b60408601520154169101612491565b90600182811c9216801561267a575b602083101461266457565b634e487b7160e01b600052602260045260246000fd5b91607f1691612659565b8054600093926126938261264a565b918282526020936001916001811690816000146126fb57506001146126ba575b5050505050565b90939495506000929192528360002092846000945b8386106126e7575050505001019038808080806126b3565b8054858701830152940193859082016126cf565b60ff19168685015250505090151560051b0101915038808080806126b3565b60085481101561273557600860005260206000200190600090565b634e487b7160e01b600052603260045260246000fd5b80548210156127355760005260206000200190600090565b600435906001600160a01b038216820361023c57565b359060ff8216820361023c57565b9181601f8401121561023c578235916001600160401b03831161023c576020838186019501011161023c57565b9181601f8401121561023c578235916001600160401b03831161023c5760208085019460c0850201011161023c57565b60405191906000835b600a82106128015750505061224f826123e5565b60016020819285548152019301910190916127ed565b6001600160401b0381116112175760051b60200190565b6040519061283b8261239c565b81600081526000602082015260006040820152600060608201526080604051916128648361239c565b60a03684370152565b60408051919060c0908184016001600160401b03811185821017611217576040528360009160005b8481106128a3575050505050565b60209082516128b1816123b7565b85815285838201528185015201612895565b6040908151916128d283612365565b6101808360009283825283602083015280516128ed8161234a565b84815284602082015284828201528460608201528460808201528460a08201528460c08201528183015261291f61282e565b606083015261292c61282e565b60808301528360a08301528360c0830152805161294881612381565b61295061286d565b815261295a61286d565b6020820152815161296a816123b7565b8581528560208201528282015284606082015260e083015283610100830152836101208301526101409360608584015261016083015251926129ab846123e5565b3684370152565b906129bc82612817565b6129c96040519182612401565b82815280926129da601f1991612817565b019060005b8281106129eb57505050565b6020906129f66128c3565b828285010152016129df565b80518210156127355760209160051b010190565b9190820391821161092f57565b9190820180921161092f57565b60009081526020600481526040600581842001928354938415612c805784861015612b7f57612a5e866129b2565b95825b818110612a72575050505050505090565b80612a91612a8b600193612a86868c612a16565b612a23565b8561274b565b9054600391821b1c86528752858520612b5d6027885192612ab184612365565b80548452858101548b850152612ac96002820161249d565b8a850152612ad960068201612503565b6060850152612aea600d8201612503565b60808501526014810154612b0760ff8281809416610696816121b2565b612b13601583016125fb565b60e086015260238201546101008601528060248301541615156101208601528a51612b45816106e88160258701612684565b610140860152602682015416610160850152016127e4565b610180820152612b6d828b612a02565b52612b78818a612a02565b5001612a61565b9450612b8a846129b2565b94815b858110612b9d5750505050505090565b80612baa6001928461274b565b9054600391821b1c85528652848420612c5e6027875192612bca84612365565b80548452858101548a850152612be26002820161249d565b89850152612bf260068201612503565b6060850152612c03600d8201612503565b60808501526014810154612c2060ff8281809416610696816121b2565b612c2c601583016125fb565b60e086015260238201546101008601528060248301541615156101208601528951612b45816106e88160258701612684565b610180820152612c6e828a612a02565b52612c798189612a02565b5001612b8d565b50815194509250908301906001600160401b03821184831017612ca35752815290565b634e487b7160e01b83526041600452602483fd5b6002111561090757565b9060038110156109075760ff80198354169116179055565b818110612ce4575050565b60008155600101612cd9565b9190601f8111612cff57505050565b61224f926000526020600020906020601f840160051c8301931061120d57601f0160051c0190612cd9565b8160011b916000199060031b1c19161790565b3560ff8116810361023c5790565b9061ff0082549160081b169061ff001916179055565b60ff60019116019060ff821161092f57565b9062ff000082549160101b169062ff00001916179055565b60ff612da76020809383612d9e82612779565b16865201612779565b16910152565b91818152602080910192916000916000905b828210612dce57505050505090565b909192939485358152818601356004811015612e26579081612df16001936121b2565b83820152612e056040808301908901612d8b565b612e156080808301908901612d8b565b60c090810196019493920190612dbf565b8580fd5b906000905b60068210612e3c57505050565b6001604082612e5b83948760ff60209154818116845260081c16910152565b01930191019091612e2f565b60405190612e7482612381565b60006060838281528260208201528260408201520152565b6001600160a01b03908116908115612ed55760008051602061537d83398151915280546001600160a01b031981168417909155166000805160206153bd833981519152600080a3565b604051631e4fbdf760e01b815260006004820152602490fd5b600019811461092f5760010190565b6040919493926060820195825260208201520152565b92919260009382855260049460209086825260409384822054156130865783825287835284822054156130865785825287835284822054848352858320541461307657858252878352848220600101546001600160a01b03908116908216036130665783825287835260ff6006868420015460081c166130565796600785837f1cce6a28f1564d6cb3044145a4ccc8873cf34f87429af3289490527d7c0437e6999a896130419897965284865283838320015480613046575b5050612fd9600a54612eee565b9384600a55612fe6612e67565b50825195612ff387612381565b858752808701958b87526003858901918a835260608a0190428252865260098452868620928a51998a8555516001850155516002840155519101558a83525220015551925193849384612efd565b0390a1565b61304f91614b66565b3880612fcc565b8451635e003ea960e01b81528890fd5b8451633093624d60e21b81528890fd5b8451634de6470960e01b81528890fd5b845163b0ce759160e01b81528890fd5b81601f8201121561023c5780516130ac81612424565b926130ba6040519485612401565b8184526020828401011161023c5761232b9160208085019101612055565b9060208282031261023c5781516001600160401b03811161023c5761232b9201613096565b6001600160a01b0390811660008181526005602090815260408083205495909391929186156133dd578151156133cc5786835260049182855285842091600197600184015416036133bc57908361316f949392875180968192630fb93a7160e21b835289878401526024830190612078565b038173__$18826597157b5485acfb86513cd242e4d3$__5af49384156133b257839461338b575b5060020185516131aa816106e88185612684565b858151910120918451928686019384201461337d5760ff8751878188516131d281838a612055565b8101600b815203019020541661336f578651976131fa896131f38186612684565b038a612401565b875187818161320f8d83815193849201612055565b8101600b8152030190209460ff199586815416905586519260018060401b03841161335c575061324983613243865461264a565b86612cf0565b8791601f84116001146132dd5750966132cd96948196946132898560019661329c966000805160206153fd8339815191529f9e9d916132d2575b50612d2a565b90555b8851809381928851928391612055565b8101600b815203019020918254161790556132c08451958587968752860190612078565b9184830390850152612078565b0390a2565b905089015138613283565b8482528882209291601f198516915b8282106133455750509488969460018561329c956000805160206153fd8339815191529e9d9c9583986132cd9d9b1061332c575b5050811b01905561328c565b8a015160001960f88460031b161c191690553880613320565b89840151855593840193928a0192908a01906132ec565b634e487b7160e01b825260419052602490fd5b8651634749bdef60e11b8152fd5b865163095d531d60e21b8152fd5b60029194506133ab903d8086833e6133a38183612401565b8101906130d8565b9390613196565b86513d85823e3d90fd5b855163158d215560e01b81528390fd5b845163d9f415a960e01b8152600490fd5b845163b0ce759160e01b8152600490fd5b51906001600160401b038216820361023c57565b5190811515820361023c57565b9060018060a01b03808316600052600560205260406000205461399f5781511561398d5761347191600073__$18826597157b5485acfb86513cd242e4d3$__9160405180958192630fb93a7160e21b8352602060048401526024830190612078565b0381845af492831561395257600093613970575b5060ff604051602081865161349d8183858b01612055565b8101600b815203019020541661395e5760006134ba600754612eee565b80600755604051928391631d029a8d60e01b83526004830152848716602483015260a0604483015281806134f160a4820189612078565b60ff8b16606483015242608483015203915af4908115613952576000916137b8575b5080516000526004602052604060002081518155600181018360208401511660018060a01b031982541617905560028101604083015180519060018060401b0382116112175761356d82613567855461264a565b85612cf0565b602090601f83116001146137505761358f929160009183613745575050612d2a565b90555b60608201516003820180546001600160401b0319166001600160401b039283161790556080830151600483015560a0830151805191821161121757600160401b8211611217576020906005840154836005860155808410613725575b500160058301600052602060002060005b83811061371157505050506006810160ff60c08401511681549061ff0060e0860151151560081b169161ffff19161717905561010082015160078201556008810160018060401b036101208401511660018060401b031982541617905561014082015160005b600a81106136fa57505050916136ec917f1599aa311a61861ca44d28454c9e07d6e99428d1fcd90906d4eb6c322d7c52a29360405160208185516136ac8183858a01612055565b8101600b815203019020600160ff1982541617905580518287166000526005602052604060002055519460ff604051948594604086526040860190612078565b9716602084015216940390a3565b600190602083519301926009828601015501613665565b6001906020845194019381840155016135ff565b61373f906005860160005284846000209182019101612cd9565b386135ee565b0151905038806110ea565b90601f198316918460005260206000209260005b8181106137a05750908460019594939210613787575b505050811b019055613592565b015160001960f88460031b161c1916905538808061377a565b92936020600181928786015181550195019301613764565b90503d806000833e6137ca8183612401565b810160208282031261023c5781516001600160401b039283821161023c57019061028090818382031261023c57604051936138048561232e565b835185526020840151868116810361023c576020860152604084015181811161023c5782613833918601613096565b6040860152613844606085016133ee565b60608601526080840151608086015260a084015190811161023c57830181601f8201121561023c5780519061387882612817565b916138866040519384612401565b80835260208084019160051b8301019184831161023c57602001905b8282106139425750505060a085015260c083015160ff8116810361023c5760c08501526138d160e08401613402565b60e085015261010080840151908501526101206138ef8185016133ee565b90850152610140918161015f8501121561023c5760405193613910856123e5565b8491810192831161023c578301905b8282106139325750505082015238613513565b815181526020918201910161391f565b81518152602091820191016138a2565b6040513d6000823e3d90fd5b604051634749bdef60e11b8152600490fd5b6139869193503d806000833e6133a38183612401565b9138613485565b60405163d9f415a960e01b8152600490fd5b60405163f2d8e7a360e01b8152600490fd5b8054600160401b600160801b03191660409290921b600160401b600160801b0316919091179055565b9060038110156109075761ff0082549160081b169061ff001916179055565b80549190600160401b8310156112175782613a1c91600161224f9501815561274b565b90919082549060031b91821b91600019901b1916179055565b9290919260009083825260096020526003604083200154156102d657838252600960205260026040832001548252600460205260018060a01b038060016040852001541691160361096f57828152600960205260016040822001548152600460205260ff600660408320015460081c1661446c57828152600960205260026040822001548152600460205260ff600660408320015460081c1661446c57828152600960205260026040822001548152600460205260076040822001546143e7575b828152600960205260408120926002600185015494015494613b19600654612eee565b90816006558584526004602052613b5560018060401b036003604087200154169188865260018060401b0360036040882001541696369161243f565b613b5d6128c3565b50604051613b6a8161239c565b85815285602082015285604082015285606082015285608082015260405192613b928461239c565b88845260208401528560408401528560608401526080830152604051613bb78161239c565b85815285602082015285604082015285606082015285608082015260405196613bdf8861239c565b89885260208801528560408801528560608801526080870152613c0061286d565b50613c0961286d565b604051613c15816123b7565b60018152600560208201528152604051613c2e816123b7565b60048152600260208201526020820152604051613c4a816123b7565b60048152600860208201526040820152604051613c66816123b7565b60068152600360208201526060820152604051613c82816123b7565b60068152600760208201526080820152604051613c9e816123b7565b600881526005602082015260a0820152613cb661286d565b50613cbf61286d565b96604051613ccc816123b7565b600f8152600560208201528852604051613ce5816123b7565b600c8152600260208201526020890152604051613d01816123b7565b600c8152600860208201526040890152604051613d1d816123b7565b600a8152600260208201526060890152604051613d39816123b7565b600a8152600860208201526080890152604051613d55816123b7565b600a81526005602082015260a089015260405197613d728961234a565b8789528760208a01528760408a01528760608a01528760808a01528760a08a01528760c08a015260405190613da6826123b7565b600882526005602083015260405193613dbe85612381565b84526020840152604083015260016060830152604051938461014081011060018060401b03610140870111176112175761014085016040528785528760208601528760408601528760608601528760808601528760a08601528760c08601528760e0860152876101008601528761012086015260405198613e3e8a612365565b868a524260208b015260408a015260608901526080880152600160a08801528560c088015260e087015284610100870152846101208701526101408601526001610160860152610180850152825260036020526040822083518155602084015160018201556002810160408501519060ff825116815490610100600160481b03602085015160081b169160018060481b031916171790556040810151600383015560608101516004830155608081015160038110156143bc5760c0613f2b92613f0c60ff9360058701612cc1565b613f1f8360a08301511660058701612d4b565b01511660058301612d73565b60608401518051600683015560208101516007830180546001600160401b0319166001600160401b039283161781556040830151613f6a9216906139b1565b606081015160018110156143bc5760078301805460ff60801b1916608092831b60ff60801b161790550151835b600581106143d057505060808401518051600d8301556020810151600e830180546001600160401b0319166001600160401b039283161781556040830151613fe09216906139b1565b606081015160018110156143bc57600e8301805460ff60801b1916608092831b60ff60801b161790550151835b600581106143a557505060a0840151614025816121b2565b61402e816121b2565b60ff8019601484015416911617601482015560c084015160038110156143335761405b90601483016139da565b60e08401518051601583019085905b60068210614376575050506020810151601b83019085905b60068210614347575050506060906140b56021840160ff6020604085015182815116831985541617845501511690612d4b565b01516003811015614333576140cd9060228301612cc1565b610100840151602382015560248101610120850151151560ff8019835416911617905561014084015180519060018060401b03821161431f5761412082614117602586015461264a565b60258601612cf0565b602090601f83116001146142b0576141419291869183613745575050612d2a565b60258201555b6026810160ff6101608601511660ff19825416179055610180840151835b600a81106142995750505073__$18826597157b5485acfb86513cd242e4d3$__90813b15614295578290606460405180948193636c2a23bf60e01b8352600960048401526004602484015260448301525af4801561428a57614273575b506005604082856142209452600460205260068282200161ff001990610100828254161790558782526101006006848420019182541617905585815261420e83838320018651906139f9565b868152600460205220018251906139f9565b805160085490600160401b82101561121757613a1c826001614245940160085561271a565b517f94b80033a8327ab5e699285e343e5f1027e2299b685ec5836a08f3a8faacbd59602060405160018152a4565b61427d82916123d2565b61428757386141c2565b80fd5b6040513d84823e3d90fd5b8280fd5b600190602083519301926027828601015501614165565b9190602584018652602086209086935b601f1984168510614304576001945083601f198116106142eb575b505050811b016025820155614147565b015160001960f88460031b161c191690553880806142db565b818101518355602094850194600190930192909101906142c0565b634e487b7160e01b85526041600452602485fd5b634e487b7160e01b84526021600452602484fd5b600160208261436a60ff838596518281511683198b5416178a5501511687612d4b565b01930191019091614082565b600160208261439960ff838596518281511683198b5416178a5501511687612d4b565b0193019101909161406a565b60019060208351930192600f82860101550161400d565b634e487b7160e01b85526021600452602485fd5b600190602083519301926008828601015501613f97565b73__$18826597157b5485acfb86513cd242e4d3$__83825260096020526002604083200154825260046020526007604083200154813b15614295578290606460405180948193636c2a23bf60e01b8352600960048401526004602484015260448301525af4801561428a5761445d575b50613af6565b614466906123d2565b38614457565b604051635e003ea960e01b8152600490fd5b60008051602061537d833981519152546001600160a01b0316330361449f57565b60405163118cdaa760e01b8152336004820152602490fd5b60008181526003806020526040918281209060068201548152600492600460205284822093600d840154835285832092601485019460ff865416946144fb866121b2565b60018096036146bd579060059160068060089a8b810180549060018060401b039081614528818516614f30565b166001600160401b03199384161790558d860180549092909161454c818416614f30565b169116179055019161ff0019928381541690550190815416905501805460ff8116600360ff19895416178855600381101561433357869594939291906001036146ab5750805462ffff0019166103001790555b80945b6145da575b505050505060008051602061541d833981519152929160ff9154901c166145d0825180926120db565b60016020820152a2565b8654808610156146a557896145ee8761271a565b905490861b1c14614604575083809501946145a2565b949193509160001994858101908111614692576146339291614628613a1c9261271a565b9054911b1c9161271a565b845491821561467f5750509160008051602061541d83398151915294939160ff93016146726146618261271a565b8154906000199060031b1b19169055565b82559181939438806145a7565b634e487b7160e01b825260319052602490fd5b634e487b7160e01b845260118552602484fd5b506145a7565b62ffff0019166203000017905561459f565b885162461bcd60e51b815260206004820152601260248201527147616d65206973206e6f742061637469766560701b6044820152606490fd5b90600091808352600392602084815260409182812060ff90602d8260028301541610614b5557600681015483526004906004855285842091600d82015485528685206014830193858554169361474b856121b2565b6001809503614b1c5791898594928a8f8e8a8d8d9c9b9960089d8e80890194855493600160401b600190039c8d9b8c988980891661478890614f30565b166001600160401b03199889161790558482018054888b6147aa818416614f30565b1691161790556006019061ff0019918281541690556006019081541690556005015490838083851c169260101c16808311600014926147fd93614b075750506001905b805460ff191660021781556139da565b85845286885260048a85209860068a0154865252848a852094600d8a01548152818c82209a60058801541580614af8575b614ac0575b60058c015415828c8e83614ab0575b505050614a78575b60078101948280875416600e840198806005848c541696015480951c169360101c16955061488761487d87858785614fc4565b9490978387614fc4565b96909315614a685761489891612a16565b16935b15614a59576148a991612a16565b165b858a88019a8c019e8f9216915416178d5516908388541691808317895561138894858092109561490a9461491497614a4f575b50508d548289821610614a43575b5050509295509295809a9b9c508499509796979390935416906139b1565b83885416906139b1565b54935416928d8d518061494a7fcbbcee95272cfb3753df326bdc92854d09463c4834c094a042f4066cc803b9b597889483614f48565b0390a2549254168b6149608c5192839283614f48565b0390a285825b614998575b50505060008051602061541d8339815191529697985054901c1691614992845180946120db565b820152a2565b845480821015614a3d578a8d6149ad8461271a565b9054911b1c146149c05750820182614966565b9250909a60001992838101908111614a2a576149e39291614628613a1c9261271a565b82548015614a175760008051602061541d83398151915298999a5001614a0b6146618261271a565b8255889796388061496b565b634e487b7160e01b865260318b52602486fd5b634e487b7160e01b885260118d52602488fd5b5061496b565b16178c553880806148ec565b178a5581386148de565b614a6291612a23565b166148ab565b614a7191612a23565b169361489b565b8a8c01612710908189825416179055600e820190888254606486821614614aa3575b5050505061484a565b1617905538808881614a9a565b6064935001541614828c8e614842565b8a88016127109081898254161790556007820190888254606486821614614aeb575b50505050614833565b1617905538808881614ae2565b506064828c8a0154161461482e565b1015614b15576002906147ed565b85906147ed565b895162461bcd60e51b8152600481018a9052601260248201527147616d65206973206e6f742061637469766560701b6044820152606490fd5b8451636ff6cfe560e01b8152600490fd5b91909182156102d657600092808452600960205260406003818620015415614cc35781855260096020526001818620015485526004928360205260018060a01b03806001848920015416911603614cb457818552600960205260038186200154603c8101809111614ca157421115614c9257818552600960205280852092600260018501549401549573__$18826597157b5485acfb86513cd242e4d3$__91823b15614c8e5781906064855180958193636c2a23bf60e01b835260098184015260248301528860448301525af4908115614c835750917f773e15a265d8549eebc3e80bafb0e2cbeba28c5d2b2a081e31c34554c7d0507d95969161304193614c74575b505193849384612efd565b614c7d906123d2565b38614c69565b8351903d90823e3d90fd5b5080fd5b516343dcbe9f60e01b81529050fd5b634e487b7160e01b865260118452602486fd5b51633093624d60e21b81529050fd5b5163b0ce759160e01b8152600490fd5b919290926000908482526020926003845260409485842090600160ff601484015416614cfe816121b2565b03614ef05760038410156143bc578315614edf578215614ece57600184148080614ec1575b614eb05760028514908180614ea3575b614e925715614e5a57506006820154855260048652868520600101546001600160a01b03908116911603614e49576002905b0191602d60ff8454161015614e3a57614d94908651936378e02d7160e11b8552600485015260248401906120db565b6044820152828160648173__$18826597157b5485acfb86513cd242e4d3$__5af4918215614e2f578092614df7575b5050614dce57505050565b7fd6ad8b09cb4bf385f0569c05c242d45e491f752df651aae6a2db9ff589bd9fae9151428152a2565b9091508282813d8311614e28575b614e0f8183612401565b810103126142875750614e2190613402565b3880614dc3565b503d614e05565b8451903d90823e3d90fd5b50505050505061224f906146f6565b8551633093624d60e21b8152600490fd5b614e68575b50600290614d65565b600d820154855260048652868520600101546001600160a01b03908116911603614e495738614e5f565b8851635ce6d95760e11b8152600490fd5b5060048401541515614d33565b8751635ce6d95760e11b8152600490fd5b5060038301541515614d23565b8651635101966360e01b8152600490fd5b8651636f6fc75f60e11b8152600490fd5b86516314bc0c2f60e31b8152600490fd5b60ff6000805160206153dd8339815191525460401c1615614f1e57565b604051631afcd79f60e31b8152600490fd5b6001600160401b0390811690811461092f5760010190565b9081526001600160401b03909116602082015260400190565b90614f885750805115614f7657602081519101fd5b60405163d6bda27560e01b8152600490fd5b81511580614fbb575b614f99575090565b604051639996b31560e01b81526001600160a01b039091166004820152602490fd5b50803b15614f91565b90939160ff811691601483118015615220575b6151ee57600060ff861680851494856000146151d9575050506032905b600090606483116151c05781978360051b9360018060fb1b038116036151ac57818103615088575050506106405b808210965086156150805703935b8492612710809611615078575b6150705761504a91615241565b9081810291818304149015171561092f5760649004925b9180841161506c5750565b9250565b505092615061565b85935061503d565b900393615030565b806019918311928360001461519e57906150a191612a16565b610465808211615196575b50600192919004600a8382161561518c57600a91908b915b851c90815b61513d575050506150e26150e26150e26150e7936152ab565b6152ab565b918215615135575b5015615121576064810191821561510d575060051b60640204615022565b634e487b7160e01b81526012600452602490fd5b60640190811561510d5750610c8004615022565b9150386150ef565b8060801c614295578002916151885781858216615160575b50841c8b91816150c9565b8084029c509092818d040361517a575b50849a9138615155565b6151845738615170565b8480fd5b8b80fd5b8391908b916150c4565b9050386150ac565b6151a791612a16565b6150a1565b634e487b7160e01b83526011600452602483fd5b604051632c870e6b60e11b815260048101849052602490fd5b11156151e85750606490614ff4565b90614ff4565b508360249260ff82161060001461521957505b60ff6040519163fc8c9a9b60e01b8352166004820152fd5b9050615201565b50601460ff861611614fd7565b9060ff8091169116039060ff821161092f57565b9060ff81169160ff8116928084146152a25760ff93111561529457906152669161522d565b166001811461528e5760028114615288576003146152835760c890565b60af90565b50609690565b50606490565b61529d9161522d565b615266565b50505050606490565b60b581600160881b81101561534a575b6201000090600160481b81101561533d575b600160281b811015615330575b6301000000811015615323575b010260121c60019080830401811c80830401811c80830401811c80830401811c80830401811c80830401811c80830401901c8080920410900390565b60101c9160081b916152e7565b60201c9160101b916152da565b60401c9160201b916152cd565b5060b560401b9050608082901c6152bb56fe579c31d7f947df31adb29f8688c651ffa98030b83bb0d87632c86357f13afafd9016d09d72d40fdae2fd8ceac6b6234c7706214fd39c1cd1e609a0528c199300360894a13ba1a3210667c828492db98dca3e2076cc3735a920a3ca505d382bbc8be0079c531659141344cd1fd0a4f28419497f9722a3daafe3b4186f6b6457e0f0c57e16840df040f15088dc2f81fe391c3923bec73e23a9662efc9c229c6a008332b62e8472ab6f7caff6a892ce0f302647a56072c13a6ba973c7265c5c93294019f194fe4a757f9f1441d256eeb40c3f12e80f9da6188b5ad1a5fcda7217d740f6909351d16bebd2bb97c72ea15dc2508f321a25ba4ff1df4c330cced53820a26469706673582212204749619f7d1c74ea8ea3201b97ef037d263a6b63be6006189d9dc86ce13900ff64736f6c63430008180033",
  "linkReferences": {
    "contracts/GameLib.sol": {
      "GameLib": [
        {
          "length": 20,
          "start": 12874
        },
        {
          "length": 20,
          "start": 13586
        },
        {
          "length": 20,
          "start": 16969
        },
        {
          "length": 20,
          "start": 17600
        },
        {
          "length": 20,
          "start": 19656
        },
        {
          "length": 20,
          "start": 20087
        }
      ]
    }
  },
  "deployedLinkReferences": {
    "contracts/GameLib.sol": {
      "GameLib": [
        {
          "length": 20,
          "start": 12659
        },
        {
          "length": 20,
          "start": 13371
        },
        {
          "length": 20,
          "start": 16754
        },
        {
          "length": 20,
          "start": 17385
        },
        {
          "length": 20,
          "start": 19441
        },
        {
          "length": 20,
          "start": 19872
        }
      ]
    }
  }
}