{
  "_format": "hh-sol-artifact-1",
  "contractName": "ChessBallGame",
  "sourceName": "contracts/Game.sol",
  "abi": [
    {
      "inputs": [],
      "stateMutability": "nonpayable",
      "type": "constructor"
    },
    {
      "inputs": [],
      "name": "ActionsNotCommitted",
      "type": "error"
    },
    {
      "inputs": [
        {
          "internalType": "address",
          "name": "target",
          "type": "address"
        }
      ],
      "name": "AddressEmptyCode",
      "type": "error"
    },
    {
      "inputs": [],
      "name": "CreateTeam_NameIsRequired",
      "type": "error"
    },
    {
      "inputs": [],
      "name": "CreateTeam_TeamAlreadyExists",
      "type": "error"
    },
    {
      "inputs": [],
      "name": "CreateTeam_TeamNameAlreadyExists",
      "type": "error"
    },
    {
      "inputs": [],
      "name": "DoesNotExist",
      "type": "error"
    },
    {
      "inputs": [
        {
          "internalType": "address",
          "name": "implementation",
          "type": "address"
        }
      ],
      "name": "ERC1967InvalidImplementation",
      "type": "error"
    },
    {
      "inputs": [],
      "name": "ERC1967NonPayable",
      "type": "error"
    },
    {
      "inputs": [],
      "name": "FailedCall",
      "type": "error"
    },
    {
      "inputs": [],
      "name": "FinishGameByTimeout_NoLastMove",
      "type": "error"
    },
    {
      "inputs": [],
      "name": "GameHasNotReachedMaxMoves",
      "type": "error"
    },
    {
      "inputs": [],
      "name": "GameIsNotActive",
      "type": "error"
    },
    {
      "inputs": [],
      "name": "GameOwnerShouldCall",
      "type": "error"
    },
    {
      "inputs": [],
      "name": "GameRequestNotExpired",
      "type": "error"
    },
    {
      "inputs": [],
      "name": "GameRequestTimeoutNotReached",
      "type": "error"
    },
    {
      "inputs": [],
      "name": "InitAddressCannotBeZero",
      "type": "error"
    },
    {
      "inputs": [
        {
          "internalType": "uint8",
          "name": "goals",
          "type": "uint8"
        }
      ],
      "name": "InvalidGoals",
      "type": "error"
    },
    {
      "inputs": [],
      "name": "InvalidInitialization",
      "type": "error"
    },
    {
      "inputs": [
        {
          "internalType": "uint256",
          "name": "score",
          "type": "uint256"
        }
      ],
      "name": "InvalidScore",
      "type": "error"
    },
    {
      "inputs": [],
      "name": "InvalidTeam",
      "type": "error"
    },
    {
      "inputs": [],
      "name": "MovesAlreadyCommitted",
      "type": "error"
    },
    {
      "inputs": [],
      "name": "MovesEncryptedCannotBeZero",
      "type": "error"
    },
    {
      "inputs": [],
      "name": "NotInitializing",
      "type": "error"
    },
    {
      "inputs": [],
      "name": "OnlyGameEngineServerCanCall",
      "type": "error"
    },
    {
      "inputs": [],
      "name": "OnlyRelayerCanCall",
      "type": "error"
    },
    {
      "inputs": [
        {
          "internalType": "address",
          "name": "owner",
          "type": "address"
        }
      ],
      "name": "OwnableInvalidOwner",
      "type": "error"
    },
    {
      "inputs": [
        {
          "internalType": "address",
          "name": "account",
          "type": "address"
        }
      ],
      "name": "OwnableUnauthorizedAccount",
      "type": "error"
    },
    {
      "inputs": [],
      "name": "TeamAlreadyHasActiveGame",
      "type": "error"
    },
    {
      "inputs": [],
      "name": "TeamsCannotBeSame",
      "type": "error"
    },
    {
      "inputs": [],
      "name": "UUPSUnauthorizedCallContext",
      "type": "error"
    },
    {
      "inputs": [
        {
          "internalType": "bytes32",
          "name": "slot",
          "type": "bytes32"
        }
      ],
      "name": "UUPSUnsupportedProxiableUUID",
      "type": "error"
    },
    {
      "anonymous": false,
      "inputs": [
        {
          "indexed": true,
          "internalType": "uint256",
          "name": "teamId",
          "type": "uint256"
        },
        {
          "indexed": false,
          "internalType": "uint256",
          "name": "gameId",
          "type": "uint256"
        },
        {
          "indexed": false,
          "internalType": "uint64",
          "name": "eloRating",
          "type": "uint64"
        }
      ],
      "name": "EloUpdated",
      "type": "event"
    },
    {
      "anonymous": false,
      "inputs": [
        {
          "indexed": true,
          "internalType": "uint256",
          "name": "gameId",
          "type": "uint256"
        },
        {
          "indexed": false,
          "internalType": "enum GameLib.TeamEnum",
          "name": "winner",
          "type": "uint8"
        },
        {
          "indexed": false,
          "internalType": "enum GameLib.FinishReason",
          "name": "finishReason",
          "type": "uint8"
        }
      ],
      "name": "GameFinished",
      "type": "event"
    },
    {
      "anonymous": false,
      "inputs": [
        {
          "indexed": false,
          "internalType": "uint256",
          "name": "gameRequestId",
          "type": "uint256"
        },
        {
          "indexed": false,
          "internalType": "uint256",
          "name": "team1id",
          "type": "uint256"
        },
        {
          "indexed": false,
          "internalType": "uint256",
          "name": "team2id",
          "type": "uint256"
        }
      ],
      "name": "GameRequestCancelled",
      "type": "event"
    },
    {
      "anonymous": false,
      "inputs": [
        {
          "indexed": false,
          "internalType": "uint256",
          "name": "gameRequestId",
          "type": "uint256"
        },
        {
          "indexed": false,
          "internalType": "uint256",
          "name": "team1id",
          "type": "uint256"
        },
        {
          "indexed": false,
          "internalType": "uint256",
          "name": "team2id",
          "type": "uint256"
        }
      ],
      "name": "GameRequestCreated",
      "type": "event"
    },
    {
      "anonymous": false,
      "inputs": [
        {
          "indexed": true,
          "internalType": "uint256",
          "name": "gameId",
          "type": "uint256"
        },
        {
          "indexed": true,
          "internalType": "uint256",
          "name": "team1id",
          "type": "uint256"
        },
        {
          "indexed": true,
          "internalType": "uint256",
          "name": "team2id",
          "type": "uint256"
        },
        {
          "indexed": false,
          "internalType": "enum GameLib.TeamEnum",
          "name": "teamWithBall",
          "type": "uint8"
        }
      ],
      "name": "GameStarted",
      "type": "event"
    },
    {
      "anonymous": false,
      "inputs": [
        {
          "indexed": true,
          "internalType": "uint256",
          "name": "gameId",
          "type": "uint256"
        },
        {
          "indexed": false,
          "internalType": "enum GameLib.TeamEnum",
          "name": "cauzedByTeam",
          "type": "uint8"
        },
        {
          "indexed": false,
          "internalType": "enum ChessBallGame.ErrorType",
          "name": "errorType",
          "type": "uint8"
        },
        {
          "indexed": false,
          "internalType": "uint256",
          "name": "time",
          "type": "uint256"
        },
        {
          "indexed": false,
          "internalType": "string",
          "name": "errorMsg",
          "type": "string"
        }
      ],
      "name": "GameStateError",
      "type": "event"
    },
    {
      "anonymous": false,
      "inputs": [
        {
          "indexed": true,
          "internalType": "uint256",
          "name": "gameId",
          "type": "uint256"
        },
        {
          "indexed": false,
          "internalType": "enum GameLib.TeamEnum",
          "name": "scoringTeam",
          "type": "uint8"
        }
      ],
      "name": "GoalScored",
      "type": "event"
    },
    {
      "anonymous": false,
      "inputs": [
        {
          "indexed": false,
          "internalType": "uint64",
          "name": "version",
          "type": "uint64"
        }
      ],
      "name": "Initialized",
      "type": "event"
    },
    {
      "anonymous": false,
      "inputs": [
        {
          "indexed": true,
          "internalType": "uint256",
          "name": "gameId",
          "type": "uint256"
        },
        {
          "indexed": false,
          "internalType": "enum GameLib.StateType",
          "name": "stateType",
          "type": "uint8"
        },
        {
          "indexed": false,
          "internalType": "uint256",
          "name": "time",
          "type": "uint256"
        },
        {
          "indexed": false,
          "internalType": "uint8[]",
          "name": "clashRandomNumbers",
          "type": "uint8[]"
        },
        {
          "components": [
            {
              "internalType": "uint256",
              "name": "playerId",
              "type": "uint256"
            },
            {
              "internalType": "enum GameLib.MoveType",
              "name": "moveType",
              "type": "uint8"
            },
            {
              "components": [
                {
                  "internalType": "uint8",
                  "name": "x",
                  "type": "uint8"
                },
                {
                  "internalType": "uint8",
                  "name": "y",
                  "type": "uint8"
                }
              ],
              "internalType": "struct GameLib.Position",
              "name": "oldPosition",
              "type": "tuple"
            },
            {
              "components": [
                {
                  "internalType": "uint8",
                  "name": "x",
                  "type": "uint8"
                },
                {
                  "internalType": "uint8",
                  "name": "y",
                  "type": "uint8"
                }
              ],
              "internalType": "struct GameLib.Position",
              "name": "newPosition",
              "type": "tuple"
            }
          ],
          "indexed": false,
          "internalType": "struct GameLib.GameAction[]",
          "name": "team1Actions",
          "type": "tuple[]"
        },
        {
          "components": [
            {
              "internalType": "uint256",
              "name": "playerId",
              "type": "uint256"
            },
            {
              "internalType": "enum GameLib.MoveType",
              "name": "moveType",
              "type": "uint8"
            },
            {
              "components": [
                {
                  "internalType": "uint8",
                  "name": "x",
                  "type": "uint8"
                },
                {
                  "internalType": "uint8",
                  "name": "y",
                  "type": "uint8"
                }
              ],
              "internalType": "struct GameLib.Position",
              "name": "oldPosition",
              "type": "tuple"
            },
            {
              "components": [
                {
                  "internalType": "uint8",
                  "name": "x",
                  "type": "uint8"
                },
                {
                  "internalType": "uint8",
                  "name": "y",
                  "type": "uint8"
                }
              ],
              "internalType": "struct GameLib.Position",
              "name": "newPosition",
              "type": "tuple"
            }
          ],
          "indexed": false,
          "internalType": "struct GameLib.GameAction[]",
          "name": "team2Actions",
          "type": "tuple[]"
        },
        {
          "components": [
            {
              "components": [
                {
                  "internalType": "uint8",
                  "name": "x",
                  "type": "uint8"
                },
                {
                  "internalType": "uint8",
                  "name": "y",
                  "type": "uint8"
                }
              ],
              "internalType": "struct GameLib.Position[6]",
              "name": "team1PlayerPositions",
              "type": "tuple[6]"
            },
            {
              "components": [
                {
                  "internalType": "uint8",
                  "name": "x",
                  "type": "uint8"
                },
                {
                  "internalType": "uint8",
                  "name": "y",
                  "type": "uint8"
                }
              ],
              "internalType": "struct GameLib.Position[6]",
              "name": "team2PlayerPositions",
              "type": "tuple[6]"
            },
            {
              "components": [
                {
                  "internalType": "uint8",
                  "name": "x",
                  "type": "uint8"
                },
                {
                  "internalType": "uint8",
                  "name": "y",
                  "type": "uint8"
                }
              ],
              "internalType": "struct GameLib.Position",
              "name": "ballPosition",
              "type": "tuple"
            },
            {
              "internalType": "enum GameLib.TeamEnum",
              "name": "ballOwner",
              "type": "uint8"
            }
          ],
          "indexed": false,
          "internalType": "struct GameLib.BoardState",
          "name": "boardState",
          "type": "tuple"
        }
      ],
      "name": "NewGameState",
      "type": "event"
    },
    {
      "anonymous": false,
      "inputs": [
        {
          "indexed": true,
          "internalType": "address",
          "name": "previousOwner",
          "type": "address"
        },
        {
          "indexed": true,
          "internalType": "address",
          "name": "newOwner",
          "type": "address"
        }
      ],
      "name": "OwnershipTransferred",
      "type": "event"
    },
    {
      "anonymous": false,
      "inputs": [
        {
          "indexed": true,
          "internalType": "uint256",
          "name": "teamId",
          "type": "uint256"
        },
        {
          "indexed": true,
          "internalType": "address",
          "name": "owner",
          "type": "address"
        },
        {
          "indexed": false,
          "internalType": "string",
          "name": "name",
          "type": "string"
        },
        {
          "indexed": false,
          "internalType": "uint8",
          "name": "country",
          "type": "uint8"
        }
      ],
      "name": "TeamCreated",
      "type": "event"
    },
    {
      "anonymous": false,
      "inputs": [
        {
          "indexed": true,
          "internalType": "address",
          "name": "implementation",
          "type": "address"
        }
      ],
      "name": "Upgraded",
      "type": "event"
    },
    {
      "anonymous": false,
      "inputs": [
        {
          "indexed": true,
          "internalType": "uint256",
          "name": "gameId",
          "type": "uint256"
        },
        {
          "indexed": false,
          "internalType": "uint256",
          "name": "timestamp",
          "type": "uint256"
        }
      ],
      "name": "gameActionCommitted",
      "type": "event"
    },
    {
      "inputs": [],
      "name": "UPGRADE_INTERFACE_VERSION",
      "outputs": [
        {
          "internalType": "string",
          "name": "",
          "type": "string"
        }
      ],
      "stateMutability": "view",
      "type": "function"
    },
    {
      "inputs": [
        {
          "internalType": "uint256",
          "name": "",
          "type": "uint256"
        }
      ],
      "name": "activeGames",
      "outputs": [
        {
          "internalType": "uint256",
          "name": "",
          "type": "uint256"
        }
      ],
      "stateMutability": "view",
      "type": "function"
    },
    {
      "inputs": [
        {
          "internalType": "uint256",
          "name": "gameRequestId",
          "type": "uint256"
        }
      ],
      "name": "cancelGameRequest",
      "outputs": [],
      "stateMutability": "nonpayable",
      "type": "function"
    },
    {
      "inputs": [
        {
          "internalType": "address",
          "name": "sender",
          "type": "address"
        },
        {
          "internalType": "uint256",
          "name": "gameRequestId",
          "type": "uint256"
        }
      ],
      "name": "cancelGameRequestRelayer",
      "outputs": [],
      "stateMutability": "nonpayable",
      "type": "function"
    },
    {
      "inputs": [
        {
          "internalType": "address",
          "name": "sender",
          "type": "address"
        },
        {
          "internalType": "uint256",
          "name": "gameId",
          "type": "uint256"
        },
        {
          "internalType": "enum GameLib.TeamEnum",
          "name": "team",
          "type": "uint8"
        },
        {
          "internalType": "bytes32",
          "name": "movesEncrypted",
          "type": "bytes32"
        }
      ],
      "name": "commitGameActionsRelayer",
      "outputs": [],
      "stateMutability": "nonpayable",
      "type": "function"
    },
    {
      "inputs": [
        {
          "internalType": "uint256",
          "name": "team1id",
          "type": "uint256"
        },
        {
          "internalType": "uint256",
          "name": "team2id",
          "type": "uint256"
        }
      ],
      "name": "createGameRequest",
      "outputs": [],
      "stateMutability": "nonpayable",
      "type": "function"
    },
    {
      "inputs": [
        {
          "internalType": "address",
          "name": "sender",
          "type": "address"
        },
        {
          "internalType": "uint256",
          "name": "team1id",
          "type": "uint256"
        },
        {
          "internalType": "uint256",
          "name": "team2id",
          "type": "uint256"
        }
      ],
      "name": "createGameRequestRelayer",
      "outputs": [],
      "stateMutability": "nonpayable",
      "type": "function"
    },
    {
      "inputs": [
        {
          "internalType": "string",
          "name": "name",
          "type": "string"
        },
        {
          "internalType": "uint8",
          "name": "country",
          "type": "uint8"
        }
      ],
      "name": "createTeam",
      "outputs": [],
      "stateMutability": "nonpayable",
      "type": "function"
    },
    {
      "inputs": [
        {
          "internalType": "address",
          "name": "sender",
          "type": "address"
        },
        {
          "internalType": "string",
          "name": "name",
          "type": "string"
        },
        {
          "internalType": "uint8",
          "name": "country",
          "type": "uint8"
        }
      ],
      "name": "createTeamRelayer",
      "outputs": [],
      "stateMutability": "nonpayable",
      "type": "function"
    },
    {
      "inputs": [
        {
          "internalType": "uint256",
          "name": "gameId",
          "type": "uint256"
        }
      ],
      "name": "finishGameByTimeout",
      "outputs": [],
      "stateMutability": "nonpayable",
      "type": "function"
    },
    {
      "inputs": [
        {
          "internalType": "address",
          "name": "sender",
          "type": "address"
        },
        {
          "internalType": "uint256",
          "name": "gameId",
          "type": "uint256"
        }
      ],
      "name": "finishGameByTimeoutRelayer",
      "outputs": [],
      "stateMutability": "nonpayable",
      "type": "function"
    },
    {
      "inputs": [],
      "name": "gameEngineServerAddress",
      "outputs": [
        {
          "internalType": "address",
          "name": "",
          "type": "address"
        }
      ],
      "stateMutability": "view",
      "type": "function"
    },
    {
      "inputs": [],
      "name": "gamePublicKey",
      "outputs": [
        {
          "internalType": "string",
          "name": "",
          "type": "string"
        }
      ],
      "stateMutability": "view",
      "type": "function"
    },
    {
      "inputs": [],
      "name": "gameRequestIndex",
      "outputs": [
        {
          "internalType": "uint256",
          "name": "",
          "type": "uint256"
        }
      ],
      "stateMutability": "view",
      "type": "function"
    },
    {
      "inputs": [
        {
          "internalType": "uint256",
          "name": "",
          "type": "uint256"
        }
      ],
      "name": "gameRequests",
      "outputs": [
        {
          "internalType": "uint256",
          "name": "gameRequestId",
          "type": "uint256"
        },
        {
          "internalType": "uint256",
          "name": "team1id",
          "type": "uint256"
        },
        {
          "internalType": "uint256",
          "name": "team2id",
          "type": "uint256"
        },
        {
          "internalType": "uint256",
          "name": "createdAt",
          "type": "uint256"
        }
      ],
      "stateMutability": "view",
      "type": "function"
    },
    {
      "inputs": [
        {
          "internalType": "uint256",
          "name": "",
          "type": "uint256"
        }
      ],
      "name": "games",
      "outputs": [
        {
          "internalType": "uint256",
          "name": "gameId",
          "type": "uint256"
        },
        {
          "internalType": "uint256",
          "name": "createdAt",
          "type": "uint256"
        },
        {
          "components": [
            {
              "internalType": "uint8",
              "name": "movesMade",
              "type": "uint8"
            },
            {
              "internalType": "uint64",
              "name": "lastMoveAt",
              "type": "uint64"
            },
            {
              "internalType": "bytes32",
              "name": "team1MovesEncrypted",
              "type": "bytes32"
            },
            {
              "internalType": "bytes32",
              "name": "team2MovesEncrypted",
              "type": "bytes32"
            },
            {
              "internalType": "enum GameLib.TeamEnum",
              "name": "lastMoveTeam",
              "type": "uint8"
            },
            {
              "internalType": "uint8",
              "name": "team1score",
              "type": "uint8"
            },
            {
              "internalType": "uint8",
              "name": "team2score",
              "type": "uint8"
            }
          ],
          "internalType": "struct GameLib.GameState",
          "name": "gameState",
          "type": "tuple"
        },
        {
          "components": [
            {
              "internalType": "uint256",
              "name": "teamId",
              "type": "uint256"
            },
            {
              "internalType": "uint64",
              "name": "eloRating",
              "type": "uint64"
            },
            {
              "internalType": "uint64",
              "name": "eloRatingNew",
              "type": "uint64"
            },
            {
              "internalType": "enum GameLib.TeamFormation",
              "name": "formation",
              "type": "uint8"
            },
            {
              "internalType": "uint256[5]",
              "name": "__gap",
              "type": "uint256[5]"
            }
          ],
          "internalType": "struct GameLib.TeamInfo",
          "name": "team1",
          "type": "tuple"
        },
        {
          "components": [
            {
              "internalType": "uint256",
              "name": "teamId",
              "type": "uint256"
            },
            {
              "internalType": "uint64",
              "name": "eloRating",
              "type": "uint64"
            },
            {
              "internalType": "uint64",
              "name": "eloRatingNew",
              "type": "uint64"
            },
            {
              "internalType": "enum GameLib.TeamFormation",
              "name": "formation",
              "type": "uint8"
            },
            {
              "internalType": "uint256[5]",
              "name": "__gap",
              "type": "uint256[5]"
            }
          ],
          "internalType": "struct GameLib.TeamInfo",
          "name": "team2",
          "type": "tuple"
        },
        {
          "internalType": "enum GameLib.GameStatus",
          "name": "status",
          "type": "uint8"
        },
        {
          "internalType": "enum GameLib.TeamEnum",
          "name": "winner",
          "type": "uint8"
        },
        {
          "components": [
            {
              "components": [
                {
                  "internalType": "uint8",
                  "name": "x",
                  "type": "uint8"
                },
                {
                  "internalType": "uint8",
                  "name": "y",
                  "type": "uint8"
                }
              ],
              "internalType": "struct GameLib.Position[6]",
              "name": "team1PlayerPositions",
              "type": "tuple[6]"
            },
            {
              "components": [
                {
                  "internalType": "uint8",
                  "name": "x",
                  "type": "uint8"
                },
                {
                  "internalType": "uint8",
                  "name": "y",
                  "type": "uint8"
                }
              ],
              "internalType": "struct GameLib.Position[6]",
              "name": "team2PlayerPositions",
              "type": "tuple[6]"
            },
            {
              "components": [
                {
                  "internalType": "uint8",
                  "name": "x",
                  "type": "uint8"
                },
                {
                  "internalType": "uint8",
                  "name": "y",
                  "type": "uint8"
                }
              ],
              "internalType": "struct GameLib.Position",
              "name": "ballPosition",
              "type": "tuple"
            },
            {
              "internalType": "enum GameLib.TeamEnum",
              "name": "ballOwner",
              "type": "uint8"
            }
          ],
          "internalType": "struct GameLib.BoardState",
          "name": "lastBoardState",
          "type": "tuple"
        },
        {
          "internalType": "bytes32",
          "name": "historyIPFS",
          "type": "bytes32"
        },
        {
          "internalType": "bool",
          "name": "isVerified",
          "type": "bool"
        },
        {
          "internalType": "bytes",
          "name": "encryptedKey",
          "type": "bytes"
        },
        {
          "internalType": "uint8",
          "name": "gameEngineVersion",
          "type": "uint8"
        }
      ],
      "stateMutability": "view",
      "type": "function"
    },
    {
      "inputs": [],
      "name": "gelatoAddress",
      "outputs": [
        {
          "internalType": "address",
          "name": "",
          "type": "address"
        }
      ],
      "stateMutability": "view",
      "type": "function"
    },
    {
      "inputs": [],
      "name": "getActiveGameCount",
      "outputs": [
        {
          "internalType": "uint256",
          "name": "",
          "type": "uint256"
        }
      ],
      "stateMutability": "view",
      "type": "function"
    },
    {
      "inputs": [],
      "name": "getActiveGames",
      "outputs": [
        {
          "internalType": "uint256[]",
          "name": "",
          "type": "uint256[]"
        }
      ],
      "stateMutability": "view",
      "type": "function"
    },
    {
      "inputs": [
        {
          "internalType": "uint256",
          "name": "gameId",
          "type": "uint256"
        }
      ],
      "name": "getGame",
      "outputs": [
        {
          "components": [
            {
              "internalType": "uint256",
              "name": "gameId",
              "type": "uint256"
            },
            {
              "internalType": "uint256",
              "name": "createdAt",
              "type": "uint256"
            },
            {
              "components": [
                {
                  "internalType": "uint8",
                  "name": "movesMade",
                  "type": "uint8"
                },
                {
                  "internalType": "uint64",
                  "name": "lastMoveAt",
                  "type": "uint64"
                },
                {
                  "internalType": "bytes32",
                  "name": "team1MovesEncrypted",
                  "type": "bytes32"
                },
                {
                  "internalType": "bytes32",
                  "name": "team2MovesEncrypted",
                  "type": "bytes32"
                },
                {
                  "internalType": "enum GameLib.TeamEnum",
                  "name": "lastMoveTeam",
                  "type": "uint8"
                },
                {
                  "internalType": "uint8",
                  "name": "team1score",
                  "type": "uint8"
                },
                {
                  "internalType": "uint8",
                  "name": "team2score",
                  "type": "uint8"
                }
              ],
              "internalType": "struct GameLib.GameState",
              "name": "gameState",
              "type": "tuple"
            },
            {
              "components": [
                {
                  "internalType": "uint256",
                  "name": "teamId",
                  "type": "uint256"
                },
                {
                  "internalType": "uint64",
                  "name": "eloRating",
                  "type": "uint64"
                },
                {
                  "internalType": "uint64",
                  "name": "eloRatingNew",
                  "type": "uint64"
                },
                {
                  "internalType": "enum GameLib.TeamFormation",
                  "name": "formation",
                  "type": "uint8"
                },
                {
                  "internalType": "uint256[5]",
                  "name": "__gap",
                  "type": "uint256[5]"
                }
              ],
              "internalType": "struct GameLib.TeamInfo",
              "name": "team1",
              "type": "tuple"
            },
            {
              "components": [
                {
                  "internalType": "uint256",
                  "name": "teamId",
                  "type": "uint256"
                },
                {
                  "internalType": "uint64",
                  "name": "eloRating",
                  "type": "uint64"
                },
                {
                  "internalType": "uint64",
                  "name": "eloRatingNew",
                  "type": "uint64"
                },
                {
                  "internalType": "enum GameLib.TeamFormation",
                  "name": "formation",
                  "type": "uint8"
                },
                {
                  "internalType": "uint256[5]",
                  "name": "__gap",
                  "type": "uint256[5]"
                }
              ],
              "internalType": "struct GameLib.TeamInfo",
              "name": "team2",
              "type": "tuple"
            },
            {
              "internalType": "enum GameLib.GameStatus",
              "name": "status",
              "type": "uint8"
            },
            {
              "internalType": "enum GameLib.TeamEnum",
              "name": "winner",
              "type": "uint8"
            },
            {
              "components": [
                {
                  "components": [
                    {
                      "internalType": "uint8",
                      "name": "x",
                      "type": "uint8"
                    },
                    {
                      "internalType": "uint8",
                      "name": "y",
                      "type": "uint8"
                    }
                  ],
                  "internalType": "struct GameLib.Position[6]",
                  "name": "team1PlayerPositions",
                  "type": "tuple[6]"
                },
                {
                  "components": [
                    {
                      "internalType": "uint8",
                      "name": "x",
                      "type": "uint8"
                    },
                    {
                      "internalType": "uint8",
                      "name": "y",
                      "type": "uint8"
                    }
                  ],
                  "internalType": "struct GameLib.Position[6]",
                  "name": "team2PlayerPositions",
                  "type": "tuple[6]"
                },
                {
                  "components": [
                    {
                      "internalType": "uint8",
                      "name": "x",
                      "type": "uint8"
                    },
                    {
                      "internalType": "uint8",
                      "name": "y",
                      "type": "uint8"
                    }
                  ],
                  "internalType": "struct GameLib.Position",
                  "name": "ballPosition",
                  "type": "tuple"
                },
                {
                  "internalType": "enum GameLib.TeamEnum",
                  "name": "ballOwner",
                  "type": "uint8"
                }
              ],
              "internalType": "struct GameLib.BoardState",
              "name": "lastBoardState",
              "type": "tuple"
            },
            {
              "internalType": "bytes32",
              "name": "historyIPFS",
              "type": "bytes32"
            },
            {
              "internalType": "bool",
              "name": "isVerified",
              "type": "bool"
            },
            {
              "internalType": "bytes",
              "name": "encryptedKey",
              "type": "bytes"
            },
            {
              "internalType": "uint8",
              "name": "gameEngineVersion",
              "type": "uint8"
            },
            {
              "internalType": "uint256[10]",
              "name": "__gap",
              "type": "uint256[10]"
            }
          ],
          "internalType": "struct GameLib.Game",
          "name": "",
          "type": "tuple"
        }
      ],
      "stateMutability": "view",
      "type": "function"
    },
    {
      "inputs": [
        {
          "internalType": "uint256",
          "name": "requestId",
          "type": "uint256"
        }
      ],
      "name": "getGameRequest",
      "outputs": [
        {
          "components": [
            {
              "internalType": "uint256",
              "name": "gameRequestId",
              "type": "uint256"
            },
            {
              "internalType": "uint256",
              "name": "team1id",
              "type": "uint256"
            },
            {
              "internalType": "uint256",
              "name": "team2id",
              "type": "uint256"
            },
            {
              "internalType": "uint256",
              "name": "createdAt",
              "type": "uint256"
            }
          ],
          "internalType": "struct GameLib.GameRequest",
          "name": "",
          "type": "tuple"
        }
      ],
      "stateMutability": "view",
      "type": "function"
    },
    {
      "inputs": [
        {
          "internalType": "uint256",
          "name": "gameId",
          "type": "uint256"
        }
      ],
      "name": "getGameStatus",
      "outputs": [
        {
          "internalType": "enum GameLib.GameStatus",
          "name": "",
          "type": "uint8"
        }
      ],
      "stateMutability": "view",
      "type": "function"
    },
    {
      "inputs": [
        {
          "internalType": "uint256",
          "name": "teamId",
          "type": "uint256"
        },
        {
          "internalType": "uint256",
          "name": "n",
          "type": "uint256"
        }
      ],
      "name": "getLastNGames",
      "outputs": [
        {
          "components": [
            {
              "internalType": "uint256",
              "name": "gameId",
              "type": "uint256"
            },
            {
              "internalType": "uint256",
              "name": "createdAt",
              "type": "uint256"
            },
            {
              "components": [
                {
                  "internalType": "uint8",
                  "name": "movesMade",
                  "type": "uint8"
                },
                {
                  "internalType": "uint64",
                  "name": "lastMoveAt",
                  "type": "uint64"
                },
                {
                  "internalType": "bytes32",
                  "name": "team1MovesEncrypted",
                  "type": "bytes32"
                },
                {
                  "internalType": "bytes32",
                  "name": "team2MovesEncrypted",
                  "type": "bytes32"
                },
                {
                  "internalType": "enum GameLib.TeamEnum",
                  "name": "lastMoveTeam",
                  "type": "uint8"
                },
                {
                  "internalType": "uint8",
                  "name": "team1score",
                  "type": "uint8"
                },
                {
                  "internalType": "uint8",
                  "name": "team2score",
                  "type": "uint8"
                }
              ],
              "internalType": "struct GameLib.GameState",
              "name": "gameState",
              "type": "tuple"
            },
            {
              "components": [
                {
                  "internalType": "uint256",
                  "name": "teamId",
                  "type": "uint256"
                },
                {
                  "internalType": "uint64",
                  "name": "eloRating",
                  "type": "uint64"
                },
                {
                  "internalType": "uint64",
                  "name": "eloRatingNew",
                  "type": "uint64"
                },
                {
                  "internalType": "enum GameLib.TeamFormation",
                  "name": "formation",
                  "type": "uint8"
                },
                {
                  "internalType": "uint256[5]",
                  "name": "__gap",
                  "type": "uint256[5]"
                }
              ],
              "internalType": "struct GameLib.TeamInfo",
              "name": "team1",
              "type": "tuple"
            },
            {
              "components": [
                {
                  "internalType": "uint256",
                  "name": "teamId",
                  "type": "uint256"
                },
                {
                  "internalType": "uint64",
                  "name": "eloRating",
                  "type": "uint64"
                },
                {
                  "internalType": "uint64",
                  "name": "eloRatingNew",
                  "type": "uint64"
                },
                {
                  "internalType": "enum GameLib.TeamFormation",
                  "name": "formation",
                  "type": "uint8"
                },
                {
                  "internalType": "uint256[5]",
                  "name": "__gap",
                  "type": "uint256[5]"
                }
              ],
              "internalType": "struct GameLib.TeamInfo",
              "name": "team2",
              "type": "tuple"
            },
            {
              "internalType": "enum GameLib.GameStatus",
              "name": "status",
              "type": "uint8"
            },
            {
              "internalType": "enum GameLib.TeamEnum",
              "name": "winner",
              "type": "uint8"
            },
            {
              "components": [
                {
                  "components": [
                    {
                      "internalType": "uint8",
                      "name": "x",
                      "type": "uint8"
                    },
                    {
                      "internalType": "uint8",
                      "name": "y",
                      "type": "uint8"
                    }
                  ],
                  "internalType": "struct GameLib.Position[6]",
                  "name": "team1PlayerPositions",
                  "type": "tuple[6]"
                },
                {
                  "components": [
                    {
                      "internalType": "uint8",
                      "name": "x",
                      "type": "uint8"
                    },
                    {
                      "internalType": "uint8",
                      "name": "y",
                      "type": "uint8"
                    }
                  ],
                  "internalType": "struct GameLib.Position[6]",
                  "name": "team2PlayerPositions",
                  "type": "tuple[6]"
                },
                {
                  "components": [
                    {
                      "internalType": "uint8",
                      "name": "x",
                      "type": "uint8"
                    },
                    {
                      "internalType": "uint8",
                      "name": "y",
                      "type": "uint8"
                    }
                  ],
                  "internalType": "struct GameLib.Position",
                  "name": "ballPosition",
                  "type": "tuple"
                },
                {
                  "internalType": "enum GameLib.TeamEnum",
                  "name": "ballOwner",
                  "type": "uint8"
                }
              ],
              "internalType": "struct GameLib.BoardState",
              "name": "lastBoardState",
              "type": "tuple"
            },
            {
              "internalType": "bytes32",
              "name": "historyIPFS",
              "type": "bytes32"
            },
            {
              "internalType": "bool",
              "name": "isVerified",
              "type": "bool"
            },
            {
              "internalType": "bytes",
              "name": "encryptedKey",
              "type": "bytes"
            },
            {
              "internalType": "uint8",
              "name": "gameEngineVersion",
              "type": "uint8"
            },
            {
              "internalType": "uint256[10]",
              "name": "__gap",
              "type": "uint256[10]"
            }
          ],
          "internalType": "struct GameLib.Game[]",
          "name": "",
          "type": "tuple[]"
        }
      ],
      "stateMutability": "view",
      "type": "function"
    },
    {
      "inputs": [
        {
          "internalType": "uint256",
          "name": "teamId",
          "type": "uint256"
        }
      ],
      "name": "getTeam",
      "outputs": [
        {
          "components": [
            {
              "internalType": "uint256",
              "name": "id",
              "type": "uint256"
            },
            {
              "internalType": "address",
              "name": "wallet",
              "type": "address"
            },
            {
              "internalType": "string",
              "name": "name",
              "type": "string"
            },
            {
              "internalType": "uint64",
              "name": "eloRating",
              "type": "uint64"
            },
            {
              "internalType": "uint256",
              "name": "registeredAt",
              "type": "uint256"
            },
            {
              "internalType": "uint256[]",
              "name": "games",
              "type": "uint256[]"
            },
            {
              "internalType": "uint8",
              "name": "country",
              "type": "uint8"
            },
            {
              "internalType": "bool",
              "name": "hasActiveGame",
              "type": "bool"
            },
            {
              "internalType": "uint256",
              "name": "gameRequestId",
              "type": "uint256"
            },
            {
              "internalType": "uint64",
              "name": "totalGames",
              "type": "uint64"
            },
            {
              "internalType": "uint256[10]",
              "name": "__gap",
              "type": "uint256[10]"
            }
          ],
          "internalType": "struct GameLib.Team",
          "name": "",
          "type": "tuple"
        }
      ],
      "stateMutability": "view",
      "type": "function"
    },
    {
      "inputs": [
        {
          "internalType": "address",
          "name": "wallet",
          "type": "address"
        }
      ],
      "name": "getTeamIdByWallet",
      "outputs": [
        {
          "internalType": "uint256",
          "name": "",
          "type": "uint256"
        }
      ],
      "stateMutability": "view",
      "type": "function"
    },
    {
      "inputs": [
        {
          "internalType": "address",
          "name": "_relayerAddress",
          "type": "address"
        },
        {
          "internalType": "address",
          "name": "_relayerSmartAccountAddress",
          "type": "address"
        },
        {
          "internalType": "address",
          "name": "_gameEngineServerAddress",
          "type": "address"
        },
        {
          "internalType": "string",
          "name": "_publicKey",
          "type": "string"
        }
      ],
      "name": "initialize",
      "outputs": [],
      "stateMutability": "nonpayable",
      "type": "function"
    },
    {
      "inputs": [
        {
          "internalType": "uint256",
          "name": "gameId",
          "type": "uint256"
        },
        {
          "internalType": "enum GameLib.StateType",
          "name": "stateType",
          "type": "uint8"
        },
        {
          "internalType": "uint8[]",
          "name": "clashRandomNumbers",
          "type": "uint8[]"
        },
        {
          "components": [
            {
              "internalType": "uint256",
              "name": "playerId",
              "type": "uint256"
            },
            {
              "internalType": "enum GameLib.MoveType",
              "name": "moveType",
              "type": "uint8"
            },
            {
              "components": [
                {
                  "internalType": "uint8",
                  "name": "x",
                  "type": "uint8"
                },
                {
                  "internalType": "uint8",
                  "name": "y",
                  "type": "uint8"
                }
              ],
              "internalType": "struct GameLib.Position",
              "name": "oldPosition",
              "type": "tuple"
            },
            {
              "components": [
                {
                  "internalType": "uint8",
                  "name": "x",
                  "type": "uint8"
                },
                {
                  "internalType": "uint8",
                  "name": "y",
                  "type": "uint8"
                }
              ],
              "internalType": "struct GameLib.Position",
              "name": "newPosition",
              "type": "tuple"
            }
          ],
          "internalType": "struct GameLib.GameAction[]",
          "name": "team1Actions",
          "type": "tuple[]"
        },
        {
          "components": [
            {
              "internalType": "uint256",
              "name": "playerId",
              "type": "uint256"
            },
            {
              "internalType": "enum GameLib.MoveType",
              "name": "moveType",
              "type": "uint8"
            },
            {
              "components": [
                {
                  "internalType": "uint8",
                  "name": "x",
                  "type": "uint8"
                },
                {
                  "internalType": "uint8",
                  "name": "y",
                  "type": "uint8"
                }
              ],
              "internalType": "struct GameLib.Position",
              "name": "oldPosition",
              "type": "tuple"
            },
            {
              "components": [
                {
                  "internalType": "uint8",
                  "name": "x",
                  "type": "uint8"
                },
                {
                  "internalType": "uint8",
                  "name": "y",
                  "type": "uint8"
                }
              ],
              "internalType": "struct GameLib.Position",
              "name": "newPosition",
              "type": "tuple"
            }
          ],
          "internalType": "struct GameLib.GameAction[]",
          "name": "team2Actions",
          "type": "tuple[]"
        },
        {
          "components": [
            {
              "components": [
                {
                  "internalType": "uint8",
                  "name": "x",
                  "type": "uint8"
                },
                {
                  "internalType": "uint8",
                  "name": "y",
                  "type": "uint8"
                }
              ],
              "internalType": "struct GameLib.Position[6]",
              "name": "team1PlayerPositions",
              "type": "tuple[6]"
            },
            {
              "components": [
                {
                  "internalType": "uint8",
                  "name": "x",
                  "type": "uint8"
                },
                {
                  "internalType": "uint8",
                  "name": "y",
                  "type": "uint8"
                }
              ],
              "internalType": "struct GameLib.Position[6]",
              "name": "team2PlayerPositions",
              "type": "tuple[6]"
            },
            {
              "components": [
                {
                  "internalType": "uint8",
                  "name": "x",
                  "type": "uint8"
                },
                {
                  "internalType": "uint8",
                  "name": "y",
                  "type": "uint8"
                }
              ],
              "internalType": "struct GameLib.Position",
              "name": "ballPosition",
              "type": "tuple"
            },
            {
              "internalType": "enum GameLib.TeamEnum",
              "name": "ballOwner",
              "type": "uint8"
            }
          ],
          "internalType": "struct GameLib.BoardState",
          "name": "boardState",
          "type": "tuple"
        }
      ],
      "name": "newGameState",
      "outputs": [],
      "stateMutability": "nonpayable",
      "type": "function"
    },
    {
      "inputs": [],
      "name": "nextGameId",
      "outputs": [
        {
          "internalType": "uint256",
          "name": "",
          "type": "uint256"
        }
      ],
      "stateMutability": "view",
      "type": "function"
    },
    {
      "inputs": [],
      "name": "nextTeamId",
      "outputs": [
        {
          "internalType": "uint256",
          "name": "",
          "type": "uint256"
        }
      ],
      "stateMutability": "view",
      "type": "function"
    },
    {
      "inputs": [],
      "name": "owner",
      "outputs": [
        {
          "internalType": "address",
          "name": "",
          "type": "address"
        }
      ],
      "stateMutability": "view",
      "type": "function"
    },
    {
      "inputs": [],
      "name": "proxiableUUID",
      "outputs": [
        {
          "internalType": "bytes32",
          "name": "",
          "type": "bytes32"
        }
      ],
      "stateMutability": "view",
      "type": "function"
    },
    {
      "inputs": [],
      "name": "relayerAddress",
      "outputs": [
        {
          "internalType": "address",
          "name": "",
          "type": "address"
        }
      ],
      "stateMutability": "view",
      "type": "function"
    },
    {
      "inputs": [],
      "name": "relayerSmartAccountAddress",
      "outputs": [
        {
          "internalType": "address",
          "name": "",
          "type": "address"
        }
      ],
      "stateMutability": "view",
      "type": "function"
    },
    {
      "inputs": [],
      "name": "renounceOwnership",
      "outputs": [],
      "stateMutability": "nonpayable",
      "type": "function"
    },
    {
      "inputs": [
        {
          "internalType": "uint256",
          "name": "gameId",
          "type": "uint256"
        },
        {
          "internalType": "enum GameLib.TeamEnum",
          "name": "cauzedByTeam",
          "type": "uint8"
        },
        {
          "internalType": "enum ChessBallGame.ErrorType",
          "name": "errorType",
          "type": "uint8"
        },
        {
          "internalType": "string",
          "name": "errorMsg",
          "type": "string"
        }
      ],
      "name": "setGameError",
      "outputs": [],
      "stateMutability": "nonpayable",
      "type": "function"
    },
    {
      "inputs": [
        {
          "internalType": "uint256",
          "name": "gameRequestId",
          "type": "uint256"
        },
        {
          "internalType": "bytes",
          "name": "_encryptedKey",
          "type": "bytes"
        }
      ],
      "name": "startGame",
      "outputs": [],
      "stateMutability": "nonpayable",
      "type": "function"
    },
    {
      "inputs": [
        {
          "internalType": "address",
          "name": "sender",
          "type": "address"
        },
        {
          "internalType": "uint256",
          "name": "gameRequestId",
          "type": "uint256"
        },
        {
          "internalType": "bytes",
          "name": "_encryptedKey",
          "type": "bytes"
        }
      ],
      "name": "startGameRelayer",
      "outputs": [],
      "stateMutability": "nonpayable",
      "type": "function"
    },
    {
      "inputs": [
        {
          "internalType": "address",
          "name": "",
          "type": "address"
        }
      ],
      "name": "teamIdByWallet",
      "outputs": [
        {
          "internalType": "uint256",
          "name": "",
          "type": "uint256"
        }
      ],
      "stateMutability": "view",
      "type": "function"
    },
    {
      "inputs": [
        {
          "internalType": "string",
          "name": "",
          "type": "string"
        }
      ],
      "name": "teamNames",
      "outputs": [
        {
          "internalType": "bool",
          "name": "",
          "type": "bool"
        }
      ],
      "stateMutability": "view",
      "type": "function"
    },
    {
      "inputs": [
        {
          "internalType": "uint256",
          "name": "",
          "type": "uint256"
        }
      ],
      "name": "teams",
      "outputs": [
        {
          "internalType": "uint256",
          "name": "id",
          "type": "uint256"
        },
        {
          "internalType": "address",
          "name": "wallet",
          "type": "address"
        },
        {
          "internalType": "string",
          "name": "name",
          "type": "string"
        },
        {
          "internalType": "uint64",
          "name": "eloRating",
          "type": "uint64"
        },
        {
          "internalType": "uint256",
          "name": "registeredAt",
          "type": "uint256"
        },
        {
          "internalType": "uint8",
          "name": "country",
          "type": "uint8"
        },
        {
          "internalType": "bool",
          "name": "hasActiveGame",
          "type": "bool"
        },
        {
          "internalType": "uint256",
          "name": "gameRequestId",
          "type": "uint256"
        },
        {
          "internalType": "uint64",
          "name": "totalGames",
          "type": "uint64"
        }
      ],
      "stateMutability": "view",
      "type": "function"
    },
    {
      "inputs": [
        {
          "internalType": "address",
          "name": "newOwner",
          "type": "address"
        }
      ],
      "name": "transferOwnership",
      "outputs": [],
      "stateMutability": "nonpayable",
      "type": "function"
    },
    {
      "inputs": [
        {
          "internalType": "address",
          "name": "newImplementation",
          "type": "address"
        },
        {
          "internalType": "bytes",
          "name": "data",
          "type": "bytes"
        }
      ],
      "name": "upgradeToAndCall",
      "outputs": [],
      "stateMutability": "payable",
      "type": "function"
    }
  ],
  "bytecode": "0x60a08060405234620000d157306080527ff0c57e16840df040f15088dc2f81fe391c3923bec73e23a9662efc9c229c6a009081549060ff8260401c16620000c257506001600160401b036002600160401b0319828216016200007c575b6040516153d09081620000d7823960805181818161131001526113f40152f35b6001600160401b031990911681179091556040519081527fc7f505b2f371ae2175ee4913f4499e1f2633a7b5936321eed1cdaeb6115181d290602090a13880806200005c565b63f92ee8a960e01b8152600490fd5b600080fdfe608080604052600436101561001357600080fd5b60003560e01c9081628e0f1b14611d275750806302f785fd14611c9a5780630f1bf45414611c485780630fb9f86914611ad1578063117a5b901461199c57806313e4c714146119655780631894c7561461194757806318a7cca81461191e5780631b76929c1461188557806322d60b1a1461186d5780632cc9c964146118445780632df84be51461170a5780633ed2b77a1461164c57806349e3969a146115f65780634cf97fad146115af5780634f1ef286146113a557806351903bd91461136857806352d1902d146112fd57806359bcfbe41461123757806365e8e4f414610f7457806368599d0c14610f565780636e6964d714610ef5578063715018a614610e9d57806371f5001f1461096d57806379b880ac146107765780637bb597fa146107585780638da5cb5b1461072257806392a52e81146106d4578063a2f77bcc1461059e578063a462816c14610575578063a89ae4571461054c578063ad3cb1cc14610502578063afcaa6e31461048e578063b135bbb014610470578063c4b634f3146103f5578063c6480413146101ec578063c9495041146103a3578063e34c2e5814610310578063ec5c504e146102f3578063f2b1ffcf14610256578063f2fde38b1461022b5763ff156d00146101ec57600080fd5b34610226576020366003190112610226576001600160a01b0361020d6126a7565b1660005260056020526020604060002054604051908152f35b600080fd5b34610226576020366003190112610226576102546102476126a7565b61024f6140e2565b612de3565b005b346102265760803660031901126102265761026f6126a7565b60243590604435600381101561022657600154336001600160a01b03918216141590816102e4575b506102d257826000526003602052600160406000200154156102c0576102549260643592614e90565b60405163b0ce759160e01b8152600490fd5b604051639608c6ff60e01b8152600490fd5b9050600d541633141584610297565b346102265760203660031901126102265761025460043533614d23565b346102265760203660031901126102265760043561032c612dbe565b50806000526009602052600360406000200154156102c05760005260096020526080604060002060405161035f816122c5565b815491828252600181015460208301908152606060036002840154936040860194855201549301928352604051938452516020840152516040830152516060820152f35b34610226576040366003190112610226576103bc6126a7565b600154336001600160a01b03918216141590816103e6575b506102d2576102549060243590614d23565b9050600d5416331415826103d4565b346102265760603660031901126102265761040e6126a7565b6024356001600160401b0381116102265761042d9036906004016123ba565b6044359060ff8216820361022657600154336001600160a01b0391821614159081610461575b506102d25761025492613050565b9050600d541633141584610453565b34610226576000366003190112610226576020600654604051908152f35b34610226576060366003190112610226576104a76126a7565b6044356001600160401b038111610226576104c69036906004016126cb565b600154909190336001600160a01b03918216141590816104f3575b506102d2576102549260243590613699565b9050600d5416331415846104e1565b3461022657600036600319011261022657610548604051610522816122fb565b60058152640352e302e360dc1b6020820152604051918291602083526020830190611fbc565b0390f35b3461022657600036600319011261022657600d546040516001600160a01b039091168152602090f35b34610226576000366003190112610226576002546040516001600160a01b039091168152602090f35b3461022657602080600319360112610226576004356105bb612807565b508060005260038252600160406000200154156102c057600052600381526040600020906106ba6027604051936105f1856122a9565b8054855260018101548486015261060a600282016123e1565b604086015261061b60068201612447565b606086015261062c600d8201612447565b608086015261065960ff6014830154818116610647816120f6565b60a089015260081c1660c087016123d5565b6106656015820161253f565b60e0860152602381015461010086015260ff60248201541615156101208601526040516106a08161069981602586016125c8565b0382612345565b61014086015260ff60268201541661016086015201612728565b610180830152610548604051928284938452830190612195565b34610226576020366003190112610226576004356000526009602052608060406000208054906001810154906003600282015491015491604051938452602084015260408301526060820152f35b34610226576000366003190112610226576000805160206152db833981519152546040516001600160a01b039091168152602090f35b34610226576000366003190112610226576020600a54604051908152f35b346102265760403660031901126102265761078f6126a7565b6001805460243592906001600160a01b039081163314158061095f575b6102d25783600052602092600384528060406000200154156102c05784600052600384528060406000200154156102c05784600052600384526040600020938160ff6014870154166107fd816120f6565b0361094d5760068501548060005260048252838084604060002001541695168095141580610932575b610920576000526004815283838360406000200154161480610914575b6108f657600490600d8601546000525260406000200154161480610908575b6108f65760018060401b03600282015460081c16603c81018091116108e0574211156108ce576005015460ff1660038110156108b857156108a6576102549061411b565b6040516356eff76b60e01b8152600490fd5b634e487b7160e01b600052602160045260246000fd5b604051634e7fc88160e11b8152600490fd5b634e487b7160e01b600052601160045260246000fd5b604051631e86addb60e01b8152600490fd5b50600481015415610862565b50600385015415610843565b604051633093624d60e21b8152600490fd5b50600d86015460005284848460406000200154161415610826565b6040516314bc0c2f60e31b8152600490fd5b5080600d54163314156107ac565b34610226576104003660031901126102265760046024351015610226576001600160401b036044351161022657366023604435011215610226576001600160401b036004604435013511610226573660246044356004013560051b604435010111610226576064356001600160401b038111610226576109f19036906004016126f8565b6084356001600160401b03811161022657610a109036906004016126f8565b90916103603660a3190112610226576004356000526003602052600160406000200154156102c057600254336001600160a01b0391821614159081610e8d575b81610e7e575b50610e6c576004356000526003602052604060002092600160ff601486015416610a7f816120f6565b0361094d5760ff600285015416610e3c575b60158401600060a45b60068210610e0657505050601b840160006102245b60068210610dca575050506103a43560ff811681036102265760ff1660ff1960218601541617602185015560ff6103c435166103c4350361022657610afa6103c43560218601612ca2565b60036103e435101561022657610b166103e43560228601612c05565b610c0e60c06002860154610b2c60ff8216612cb8565b90610b386024356120f6565b602435600203610dba57610b5560ff60058a015460081c16612cb8565b610b606024356120f6565b602435600303610da957610b7d60ff60058b015460101c16612cb8565b925b60ff808060405193610b908561228e565b169384845260018060401b034216602085015260006040850152600060608501526000608085015216948560a0840152169485910152610100600160481b034260081b169160018060481b031916171760028801556000600388015560006004880155610c09600588019160ff19835416835582612ca2565b612cca565b610c196024356120f6565b602435600203610d7257604051600181526000805160206152bb833981519152602060043592a25b835492604051926104008401610c586024356120f6565b6024358552426020860152610400604086015260443560040135905261042084019660246044350160005b604435600401358110610d5257505093610ce3600296947f1cc12e86ff5f2b2e761ab2fd8a6e3ee635d92958237b110363a2868ed2b6f8be94610cd58b859660ff9c9a87602d9f036060890152612d04565b918483036080860152612d04565b610cf360a0830160158801612d81565b610d046102208301601b8801612d81565b610d246103a083016021880160ff60209154818116845260081c16910152565b610d39886022880154166103e084019061201f565b0390a20154161015610d4757005b61025460043561433e565b909860208060019260ff610d658e6126bd565b168152019a019101610c83565b610d7d6024356120f6565b600360243503610c4157604051600281526000805160206152bb833981519152602060043592a2610c41565b60ff60058a015460101c1692610b7f565b60ff600589015460081c16610b55565b600160408260ff610ddb8495612c94565b1660ff19875416178655610dfa610df460208301612c94565b87612ca2565b01930191019091610aaf565b600160408260ff610e178495612c94565b1660ff19875416178655610e30610df460208301612c94565b01930191019091610a9a565b6003840154158015610e60575b15610a9157604051631e86addb60e01b8152600490fd5b50600484015415610e49565b604051631c307ff760e31b8152600490fd5b9050600d541633141585610a56565b8091506001541633141590610a50565b3461022657600036600319011261022657610eb66140e2565b6000805160206152db83398151915280546001600160a01b031981169091556000906001600160a01b031660008051602061531b8339815191528280a3005b34610226576020366003190112610226576004356001600160401b0381116102265760ff610f406020610f2d819436906004016123ba565b8160405193828580945193849201611f99565b8101600b81520301902054166040519015158152f35b34610226576000366003190112610226576020600754604051908152f35b3461022657608036600319011261022657610f8d6126a7565b6001600160a01b03602435818116908190036102265760443592828416809403610226576001600160401b0360643581811161022657610fd19036906004016123ba565b9460008051602061533b8339815191529384549560ff8760401c16159484881697881580611230575b6001809a149081611226575b15908161121d575b5061120b576001600160401b0319811689178855866111f0575b50169081156111de5780156111de5782156111de5760018060a01b0319918288541617875581600d541617600d55600254161760025584519081116111c857611072600c5461258e565b601f811161116e575b50602094601f8211600114611109576110a29293949582916000926110fe575b5050612c6e565b600c555b6110ae6150be565b6110b66150be565b6110bf33612de3565b6110c557005b805460ff60401b191690556040519081527fc7f505b2f371ae2175ee4913f4499e1f2633a7b5936321eed1cdaeb6115181d290602090a1005b01519050868061109b565b601f19821695600c600052806000209160005b8881106111585750838798979596971061113f575b505050811b01600c556110a6565b015160001960f88460031b161c19169055858080611131565b818301518455928701926020928301920161111c565b600c6000526111b8907fdf6966c971051c3d54ec59162606531493a51404a002842f56009d7e5cf4a8c7601f840160051c810191602085106111be575b601f0160051c0190612c1d565b8561107b565b90915081906111ab565b634e487b7160e01b600052604160045260246000fd5b6040516301369f3160e61b8152600490fd5b6001600160481b0319166001600160401b0117875589611028565b60405163f92ee8a960e01b8152600490fd5b9050158b61100e565b303b159150611006565b5086610ffa565b3461022657600036600319011261022657604051600c5460008261125a8361258e565b91828252602093600190856001821691826000146112dd57505060011461129d575b5061128992500383612345565b610548604051928284938452830190611fbc565b849150600c60005281600020906000915b8583106112c557505061128993508201018561127c565b805483890185015287945086939092019181016112ae565b60ff19168582015261128995151560051b850101925087915061127c9050565b34610226576000366003190112610226577f00000000000000000000000000000000000000000000000000000000000000006001600160a01b031630036113565760206040516000805160206152fb8339815191528152f35b60405163703e46dd60e11b8152600490fd5b34610226576040366003190112610226576024356001600160401b0381116102265761139b6102549136906004016126cb565b9060043533613699565b6040366003190112610226576113b96126a7565b6024356001600160401b0381116102265736602382011215610226576113e9903690602481600401359101612383565b906001600160a01b037f00000000000000000000000000000000000000000000000000000000000000008116308114908115611593575b506113565761142d6140e2565b6040516352d1902d60e01b8152908216916020918281600481875afa60009181611564575b5061147057604051634c9c8ce360e01b815260048101859052602490fd5b9284936000805160206152fb8339815191529081810361154c5750823b156115335780546001600160a01b03191682179055604051907fbc7cd75a20ee27fd9adebab32041f755214dbc6bffa90cc0225b39da2e5c2d3b600080a28351156115195750600080848461025496519101845af4903d15611510573d6114f381612368565b906115016040519283612345565b8152600081943d92013e61511e565b6060925061511e565b925050503461152457005b63b398979f60e01b8152600490fd5b604051634c9c8ce360e01b815260048101839052602490fd5b60249060405190632a87526960e21b82526004820152fd5b9091508381813d831161158c575b61157c8183612345565b8101031261022657519086611452565b503d611572565b9050816000805160206152fb8339815191525416141584611420565b34610226576040366003190112610226576004356001600160401b038111610226576115df9036906004016123ba565b60243560ff81168103610226576102549133613050565b346102265760603660031901126102265761160f6126a7565b600154336001600160a01b039182161415908161163d575b506102d257610254906044359060243590612e6a565b9050600d541633141582611627565b34610226576020366003190112610226576004356000526004602052604060002080549060018060a01b03600182015416906040516116928161069981600286016125c8565b60018060401b039160ff836003830154169360048301546116dd600685015492600860078701549601541695604051998a99610120918b5260208b01528060408b0152890190611fbc565b956060880152608087015281811660a087015260081c16151560c085015260e08401526101008301520390f35b34610226576020806003193601126102265760043590816000526003815260018060406000200154156102c05782600052600382528060406000200154156102c05782600052600382526040600020918160ff60148501541661176c816120f6565b0361094d576006830154600081815260048352604090208301546001600160a01b03929190831633141580611829575b61092057600052600481523382846040600020015416148061181d575b6108f657600490600d85015460005252339160406000200154161480610908576108f65760018060401b03600282015460081c16603c81018091116108e0574211156108ce576005015460ff1660038110156108b857156108a6576102549061411b565b506003840154156117b9565b50600d8501546000523383856040600020015416141561179c565b34610226576000366003190112610226576000546040516001600160a01b039091168152602090f35b346102265761025461187e36612009565b9033612e6a565b346102265760003660031901126102265760405180600854808352602080930180916008600052846000209060005b8682821061190a5786866118ca82880383612345565b604051928392818401908285525180915260408401929160005b8281106118f357505050500390f35b8351855286955093810193928101926001016118e4565b8354855290930192600192830192016118b4565b34610226576000366003190112610226576001546040516001600160a01b039091168152602090f35b34610226576000366003190112610226576020600854604051908152f35b34610226576020366003190112610226576004356008548110156102265761198e60209161265e565b90546040519160031b1c8152f35b3461022657602036600319011261022657600435600052600360205260406000208054600182015490600283016119d2906123e1565b926119df60068201612447565b916119ec600d8301612447565b601483015460ff811690611a026015860161253f565b90602386015492602487015460ff16946040519788806025830190611a26916125c8565b03611a31908a612345565b6026015460ff16986040519b8c9b610780998d5260208d015260408c01611a579161202c565b6101208b01611a6591612084565b6102408a01611a7391612084565b611a7c816120f6565b61036089015261038088019060081c60ff1690611a989161201f565b6103a08701611aa69161213f565b6107008601521515610720850152806107408501528301611ac691611fbc565b906107608301520390f35b346102265760803660031901126102265760043560243560038110159081610226576044356002811015610226576064356001600160401b03811161022657611b1e9036906004016123ba565b600254909390336001600160a01b0391821614159081611c38575b81611c29575b50610e6c57611b4d82612bfb565b6001821480611c1d575b611bab575b5090611ba660008051602061537b83398151915293611b81936040519485809561201f565b611b8a81612bfb565b6020840152426040840152608060608401526080830190611fbc565b0390a2005b8460009392935260036020526040600020906108b85760008051602061537b83398151915293611b8193611ba69260018503611bfa57600501805460ff191660021790555b9293509350611b5c565b60028514611c09575b50611bf0565b600501805460ff1916600117905587611c03565b50506000821515611b57565b9050600d541633141586611b3f565b8091506001541633141590611b39565b3461022657602036600319011261022657600435806000526003602052600160406000200154156102c0576000526003602052602060ff6014604060002001541660405190611c96816120f6565b8152f35b3461022657611ca836612009565b908060005260209160048352604060002054156102c057611cc891612974565b6040519082820192808352815180945260408301938160408260051b8601019301916000955b828710611cfb5785850386f35b909192938280611d17600193603f198a82030186528851612195565b9601920196019592919092611cee565b346102265760203660031901126102265760043590611d4581612272565b6000815260006020820152606060408201526000606082015260006080820152606060a0820152600060c0820152600060e08201526000610100820152600061012082015261014060405191611d9a83612329565b813684370152806000526004602052604060002054156102c0576000526004602052604060002060405190611dce82612272565b8054825260018101546001600160a01b03166020830152604051611df98161069981600286016125c8565b604083015260018060401b036003820154166060830152600481015460808301526005810160405190816020825491828152019160005260206000209060005b818110611f835786611e9860098888611e54818a0382612345565b60a0850152600681015460ff81811660c0870152600891821c16151560e086015260078201546101008601528101546001600160401b031661012085015201612728565b6101408201526040805160208082528351818301528301516001600160a01b031681830152908201516102806060830152611ed8906102a0830190611fbc565b60018060401b036060840151166080830152608083015160a083015260a083015190601f198382030160c08401526020808351928381520192019060005b818110611f6d575050506105486101408460ff60c0869701511660e086015260e0810151151561010086015261010081015161012086015260018060401b0361012082015116828601520151610160840190611fe1565b8251845260209384019390920191600101611f16565b8254845260209093019260019283019201611e39565b60005b838110611fac5750506000910152565b8181015183820152602001611f9c565b90602091611fd581518092818552858086019101611f99565b601f01601f1916010190565b6000915b600a8310611ff257505050565b600190825181526020809101920192019190611fe5565b6040906003190112610226576004359060243590565b9060038210156108b85752565b60ff60c0809282815116855260018060401b03602082015116602086015260408101516040860152606081015160608601526120706080820151608087019061201f565b8260a08201511660a0860152015116910152565b805182526020808201516001600160401b03908116828501526040808401519091169084015260608201519093926001929091838110156108b857606083015260809081015160009590929091015b600586106120e357505050509050565b82518152948301949181019181016120d3565b600411156108b857565b906000905b6006821061211257505050565b6020604082612133600194875160ff60208092828151168552015116910152565b01930191019091612105565b90610340606061219393612154848251612100565b6121676020820151610180860190612100565b612189604082015161030086019060ff60208092828151168552015116910152565b015191019061201f565b565b9061226f906107806101806122556108c086518552602087015160208601526121c66040880151604087019061202c565b60608701516121db6101209182880190612084565b6121ee6080890151610240880190612084565b60a08801516121fc816120f6565b61036087015261221560c089015161038088019061201f565b61222860e08901516103a088019061213f565b61010088015161070087015287015115156107208601526101408701519080610740870152850190611fbc565b9460ff610160820151166107608501520151910190611fe1565b90565b61016081019081106001600160401b038211176111c857604052565b60e081019081106001600160401b038211176111c857604052565b6101a081019081106001600160401b038211176111c857604052565b608081019081106001600160401b038211176111c857604052565b60a081019081106001600160401b038211176111c857604052565b604081019081106001600160401b038211176111c857604052565b6001600160401b0381116111c857604052565b61014081019081106001600160401b038211176111c857604052565b601f909101601f19168101906001600160401b038211908210176111c857604052565b6001600160401b0381116111c857601f01601f191660200190565b92919261238f82612368565b9161239d6040519384612345565b829481845281830111610226578281602093846000960137010152565b9080601f830112156102265781602061226f93359101612383565b60038210156108b85752565b906040516123ee8161228e565b60c060ff600383958054838116865260018060401b039060081c16602086015260018101546040860152600281015460608601520154612433828216608086016123d5565b818160081c1660a085015260101c16910152565b9060405191612455836122e0565b82815481526001808301549260ff60018060401b039460209580821660208701528160401c16604086015260801c1660018110156108b857606084015260405193600290910190600090855b600583106124be5750505050506080906124ba836122e0565b0152565b83548152928401929184019181016124a1565b906040516124de816122fb565b602060ff829454818116845260081c16910152565b604051919060c083016001600160401b038111848210176111c8576040526000835b6006821061252257505050565b600160208192612531866124d1565b815201930191019091612515565b9061219360405161254f816122c5565b606060ff600d8396612560816124f3565b855261256e600682016124f3565b602086015261257f600c82016124d1565b604086015201541691016123d5565b90600182811c921680156125be575b60208310146125a857565b634e487b7160e01b600052602260045260246000fd5b91607f169161259d565b8054600093926125d78261258e565b9182825260209360019160018116908160001461263f57506001146125fe575b5050505050565b90939495506000929192528360002092846000945b83861061262b575050505001019038808080806125f7565b805485870183015294019385908201612613565b60ff19168685015250505090151560051b0101915038808080806125f7565b60085481101561267957600860005260206000200190600090565b634e487b7160e01b600052603260045260246000fd5b80548210156126795760005260206000200190600090565b600435906001600160a01b038216820361022657565b359060ff8216820361022657565b9181601f84011215610226578235916001600160401b038311610226576020838186019501011161022657565b9181601f84011215610226578235916001600160401b0383116102265760208085019460c0850201011161022657565b60405191906000835b600a82106127455750505061219382612329565b6001602081928554815201930191019091612731565b6001600160401b0381116111c85760051b60200190565b6040519061277f826122e0565b81600081526000602082015260006040820152600060608201526080604051916127a8836122e0565b60a03684370152565b60408051919060c0908184016001600160401b038111858210176111c8576040528360009160005b8481106127e7575050505050565b60209082516127f5816122fb565b858152858382015281850152016127d9565b604090815191612816836122a9565b6101808360009283825283602083015280516128318161228e565b84815284602082015284828201528460608201528460808201528460a08201528460c082015281830152612863612772565b6060830152612870612772565b60808301528360a08301528360c0830152805161288c816122c5565b6128946127b1565b815261289e6127b1565b602082015281516128ae816122fb565b8581528560208201528282015284606082015260e083015283610100830152836101208301526101409360608584015261016083015251926128ef84612329565b3684370152565b906129008261275b565b61290d6040519182612345565b828152809261291e601f199161275b565b019060005b82811061292f57505050565b60209061293a612807565b82828501015201612923565b80518210156126795760209160051b010190565b919082039182116108e057565b919082018092116108e057565b60009081526020600481526040600581842001928354938415612bc45784861015612ac3576129a2866128f6565b95825b8181106129b6575050505050505090565b806129d56129cf6001936129ca868c61295a565b612967565b8561268f565b9054600391821b1c86528752858520612aa160278851926129f5846122a9565b80548452858101548b850152612a0d600282016123e1565b8a850152612a1d60068201612447565b6060850152612a2e600d8201612447565b60808501526014810154612a4b60ff8281809416610647816120f6565b612a576015830161253f565b60e086015260238201546101008601528060248301541615156101208601528a51612a898161069981602587016125c8565b61014086015260268201541661016085015201612728565b610180820152612ab1828b612946565b52612abc818a612946565b50016129a5565b9450612ace846128f6565b94815b858110612ae15750505050505090565b80612aee6001928461268f565b9054600391821b1c85528652848420612ba26027875192612b0e846122a9565b80548452858101548a850152612b26600282016123e1565b89850152612b3660068201612447565b6060850152612b47600d8201612447565b60808501526014810154612b6460ff8281809416610647816120f6565b612b706015830161253f565b60e086015260238201546101008601528060248301541615156101208601528951612a898161069981602587016125c8565b610180820152612bb2828a612946565b52612bbd8189612946565b5001612ad1565b50815194509250908301906001600160401b03821184831017612be75752815290565b634e487b7160e01b83526041600452602483fd5b600211156108b857565b9060038110156108b85760ff80198354169116179055565b818110612c28575050565b60008155600101612c1d565b9190601f8111612c4357505050565b612193926000526020600020906020601f840160051c830193106111be57601f0160051c0190612c1d565b8160011b916000199060031b1c19161790565b818102929181159184041417156108e057565b3560ff811681036102265790565b9061ff0082549160081b169061ff001916179055565b60ff60019116019060ff82116108e057565b9062ff000082549160101b169062ff00001916179055565b60ff612cfe6020809383612cf5826126bd565b168652016126bd565b16910152565b91818152602080910192916000916000905b828210612d2557505050505090565b909192939485358152818601356004811015612d7d579081612d486001936120f6565b83820152612d5c6040808301908901612ce2565b612d6c6080808301908901612ce2565b60c090810196019493920190612d16565b8580fd5b906000905b60068210612d9357505050565b6001604082612db283948760ff60209154818116845260081c16910152565b01930191019091612d86565b60405190612dcb826122c5565b60006060838281528260208201528260408201520152565b6001600160a01b03908116908115612e2c576000805160206152db83398151915280546001600160a01b0319811684179091551660008051602061531b833981519152600080a3565b604051631e4fbdf760e01b815260006004820152602490fd5b60001981146108e05760010190565b6040919493926060820195825260208201520152565b9291926000938285526004946020908682526040938482205415612fdd578382528783528482205415612fdd57858252878352848220548483528583205414612fcd57858252878352848220600101546001600160a01b0390811690821603612fbd5783825287835260ff6006868420015460081c16612fad5796600785837f1cce6a28f1564d6cb3044145a4ccc8873cf34f87429af3289490527d7c0437e6999a89612f989897965284865283838320015480612f9d575b5050612f30600a54612e45565b9384600a55612f3d612dbe565b50825195612f4a876122c5565b858752808701958b87526003858901918a835260608a0190428252865260098452868620928a51998a8555516001850155516002840155519101558a83525220015551925193849384612e54565b0390a1565b612fa691614d23565b3880612f23565b8451635e003ea960e01b81528890fd5b8451633093624d60e21b81528890fd5b8451634de6470960e01b81528890fd5b845163b0ce759160e01b81528890fd5b81601f8201121561022657805161300381612368565b926130116040519485612345565b818452602082840101116102265761226f9160208085019101611f99565b51906001600160401b038216820361022657565b5190811515820361022657565b9060018060a01b038083166000526005602052604060002054613603578151156135f1576130b291600073__$18826597157b5485acfb86513cd242e4d3$__9160405180958192630fb93a7160e21b8352602060048401526024830190611fbc565b0381845af4928315613593576000936135b1575b5060ff60405160208186516130de8183858b01611f99565b8101600b815203019020541661359f5760006130fb600754612e45565b80600755604051928391631d029a8d60e01b83526004830152848716602483015260a06044830152818061313260a4820189611fbc565b60ff8b16606483015242608483015203915af4908115613593576000916133f9575b5080516000526004602052604060002081518155600181018360208401511660018060a01b031982541617905560028101604083015180519060018060401b0382116111c8576131ae826131a8855461258e565b85612c34565b602090601f8311600114613391576131d0929160009183613386575050612c6e565b90555b60608201516003820180546001600160401b0319166001600160401b039283161790556080830151600483015560a083015180519182116111c857600160401b82116111c8576020906005840154836005860155808410613366575b500160058301600052602060002060005b83811061335257505050506006810160ff60c08401511681549061ff0060e0860151151560081b169161ffff19161717905561010082015160078201556008810160018060401b036101208401511660018060401b031982541617905561014082015160005b600a811061333b575050509161332d917f1599aa311a61861ca44d28454c9e07d6e99428d1fcd90906d4eb6c322d7c52a29360405160208185516132ed8183858a01611f99565b8101600b815203019020600160ff1982541617905580518287166000526005602052604060002055519460ff604051948594604086526040860190611fbc565b9716602084015216940390a3565b6001906020835193019260098286010155016132a6565b600190602084519401938184015501613240565b613380906005860160005284846000209182019101612c1d565b3861322f565b01519050388061109b565b90601f198316918460005260206000209260005b8181106133e157509084600195949392106133c8575b505050811b0190556131d3565b015160001960f88460031b161c191690553880806133bb565b929360206001819287860151815501950193016133a5565b90503d806000833e61340b8183612345565b81016020828203126102265781516001600160401b0392838211610226570190610280908183820312610226576040519361344585612272565b835185526020840151868116810361022657602086015260408401518181116102265782613474918601612fed565b60408601526134856060850161302f565b60608601526080840151608086015260a084015190811161022657830181601f82011215610226578051906134b98261275b565b916134c76040519384612345565b80835260208084019160051b8301019184831161022657602001905b8282106135835750505060a085015260c083015160ff811681036102265760c085015261351260e08401613043565b60e0850152610100808401519085015261012061353081850161302f565b90850152610140918161015f85011215610226576040519361355185612329565b84918101928311610226578301905b8282106135735750505082015238613154565b8151815260209182019101613560565b81518152602091820191016134e3565b6040513d6000823e3d90fd5b604051634749bdef60e11b8152600490fd5b9092503d806000833e6135c48183612345565b81016020828203126102265781516001600160401b038111610226576135ea9201612fed565b91386130c6565b60405163d9f415a960e01b8152600490fd5b60405163f2d8e7a360e01b8152600490fd5b8054600160401b600160801b03191660409290921b600160401b600160801b0316919091179055565b9060038110156108b85761ff0082549160081b169061ff001916179055565b80549190600160401b8310156111c857826136809160016121939501815561268f565b90919082549060031b91821b91600019901b1916179055565b9290919260009083825260096020526003604083200154156102c057838252600960205260026040832001548252600460205260018060a01b038060016040852001541691160361092057828152600960205260016040822001548152600460205260ff600660408320015460081c166140d057828152600960205260026040822001548152600460205260ff600660408320015460081c166140d0578281526009602052600260408220015481526004602052600760408220015461404b575b82815260096020526040812092600260018501549401549461377d600654612e45565b908160065585845260046020526137b960018060401b036003604087200154169188865260018060401b03600360408820015416963691612383565b6137c1612807565b506040516137ce816122e0565b858152856020820152856040820152856060820152856080820152604051926137f6846122e0565b8884526020840152856040840152856060840152608083015260405161381b816122e0565b85815285602082015285604082015285606082015285608082015260405196613843886122e0565b898852602088015285604088015285606088015260808701526138646127b1565b5061386d6127b1565b604051613879816122fb565b60018152600560208201528152604051613892816122fb565b600481526002602082015260208201526040516138ae816122fb565b600481526008602082015260408201526040516138ca816122fb565b600681526003602082015260608201526040516138e6816122fb565b60068152600760208201526080820152604051613902816122fb565b600881526005602082015260a082015261391a6127b1565b506139236127b1565b96604051613930816122fb565b600f8152600560208201528852604051613949816122fb565b600c8152600260208201526020890152604051613965816122fb565b600c8152600860208201526040890152604051613981816122fb565b600a815260026020820152606089015260405161399d816122fb565b600a81526008602082015260808901526040516139b9816122fb565b600a81526005602082015260a0890152604051976139d68961228e565b8789528760208a01528760408a01528760608a01528760808a01528760a08a01528760c08a015260405190613a0a826122fb565b600882526005602083015260405193613a22856122c5565b84526020840152604083015260016060830152604051938461014081011060018060401b03610140870111176111c85761014085016040528785528760208601528760408601528760608601528760808601528760a08601528760c08601528760e0860152876101008601528761012086015260405198613aa28a6122a9565b868a524260208b015260408a015260608901526080880152600160a08801528560c088015260e087015284610100870152846101208701526101408601526001610160860152610180850152825260036020526040822083518155602084015160018201556002810160408501519060ff825116815490610100600160481b03602085015160081b169160018060481b031916171790556040810151600383015560608101516004830155608081015160038110156140205760c0613b8f92613b7060ff9360058701612c05565b613b838360a08301511660058701612ca2565b01511660058301612cca565b60608401518051600683015560208101516007830180546001600160401b0319166001600160401b039283161781556040830151613bce921690613615565b606081015160018110156140205760078301805460ff60801b1916608092831b60ff60801b161790550151835b6005811061403457505060808401518051600d8301556020810151600e830180546001600160401b0319166001600160401b039283161781556040830151613c44921690613615565b6060810151600181101561402057600e8301805460ff60801b1916608092831b60ff60801b161790550151835b6005811061400957505060a0840151613c89816120f6565b613c92816120f6565b60ff8019601484015416911617601482015560c08401516003811015613f9757613cbf906014830161363e565b60e08401518051601583019085905b60068210613fda575050506020810151601b83019085905b60068210613fab57505050606090613d196021840160ff6020604085015182815116831985541617845501511690612ca2565b01516003811015613f9757613d319060228301612c05565b610100840151602382015560248101610120850151151560ff8019835416911617905561014084015180519060018060401b038211613f8357613d8482613d7b602586015461258e565b60258601612c34565b602090601f8311600114613f1457613da59291869183613386575050612c6e565b60258201555b6026810160ff6101608601511660ff19825416179055610180840151835b600a8110613efd5750505073__$18826597157b5485acfb86513cd242e4d3$__90813b15613ef9578290606460405180948193636c2a23bf60e01b8352600960048401526004602484015260448301525af48015613eee57613ed7575b50600560408285613e849452600460205260068282200161ff0019906101008282541617905587825261010060068484200191825416179055858152613e72838383200186519061365d565b8681526004602052200182519061365d565b805160085490600160401b8210156111c857613680826001613ea9940160085561265e565b517f94b80033a8327ab5e699285e343e5f1027e2299b685ec5836a08f3a8faacbd59602060405160018152a4565b613ee18291612316565b613eeb5738613e26565b80fd5b6040513d84823e3d90fd5b8280fd5b600190602083519301926027828601015501613dc9565b9190602584018652602086209086935b601f1984168510613f68576001945083601f19811610613f4f575b505050811b016025820155613dab565b015160001960f88460031b161c19169055388080613f3f565b81810151835560209485019460019093019290910190613f24565b634e487b7160e01b85526041600452602485fd5b634e487b7160e01b84526021600452602484fd5b6001602082613fce60ff838596518281511683198b5416178a5501511687612ca2565b01930191019091613ce6565b6001602082613ffd60ff838596518281511683198b5416178a5501511687612ca2565b01930191019091613cce565b60019060208351930192600f828601015501613c71565b634e487b7160e01b85526021600452602485fd5b600190602083519301926008828601015501613bfb565b73__$18826597157b5485acfb86513cd242e4d3$__83825260096020526002604083200154825260046020526007604083200154813b15613ef9578290606460405180948193636c2a23bf60e01b8352600960048401526004602484015260448301525af48015613eee576140c1575b5061375a565b6140ca90612316565b386140bb565b604051635e003ea960e01b8152600490fd5b6000805160206152db833981519152546001600160a01b0316330361410357565b60405163118cdaa760e01b8152336004820152602490fd5b90600091808352600380602052604084206006810154855260049060046020526040862092600d82015487526040872092601483019360ff85541693614160856120f6565b600180950361433a576005916006806008998a810180549060018060401b03908161418c8185166150ed565b166001600160401b03199384161790558c86018054909290916141b08184166150ed565b169116179055019161ff00199283815416905501908154169055019788549860ff8a1699600360ff1988541617875560038b1015614326576001869798999a9b146000146143145750805462ffff0019166103001790555b80945b614244575b505050505060ff60008051602061535b8339815191529260409254901c1661423a8251809261201f565b60016020820152a2565b86548086101561430e57886142588761265e565b905490861b1c1461426e5750838095019461420b565b9491935091600019948581019081116142fb5761429d92916142926136809261265e565b9054911b1c9161265e565b84549182156142e85750509260409260ff9260008051602061535b83398151915295016142dd6142cc8261265e565b8154906000199060031b1b19169055565b825592819438614210565b634e487b7160e01b825260319052602490fd5b634e487b7160e01b845260118552602484fd5b50614210565b62ffff00191662030000179055614208565b634e487b7160e01b83526021600452602483fd5b8980fd5b806000526003602052604060002090602d60ff60028401541610614d1157600682015460005260046020526040600020600d830154600052604060002090600160ff60148601541661438f816120f6565b0361022657600881018054600692839290916001600160401b036143b48183166150ed565b6001600160401b031990921691161790556008840180546001600160401b036143de8282166150ed565b166001600160401b03199190911617905501805461ff0019908116909155910180549091169055600582015460ff601082901c81169160081c1681811115614cf757505061443c60015b60148401805460ff1916600217815561363e565b8060005260036020526040600020600681015460005260046020526040600020600d820154600052604060002060058201541580614ce0575b614c8f575b60058101541580614c78575b614c27575b6007830154600e8401546005850154936014600886901c60ff16119290916001600160401b039081169116838015614c17575b614bd95760ff8660101c1660ff8760081c1614600014614bb3576032905b60648211614b9a576000946001600160fb1b03831683036108e057818403614a9657610640955b50858360051b10600014614a8b578260051b86035b6127108111614a82575b60ff8960101c1660ff8a60081c161415600014614a7c5761455b60649161455560ff8c60101c1660ff8d60081c1661519f565b90612c81565b04905b6127108211614a72575b601460ff8a60101c1611908115614a6a575b50614a2b5760ff8860081c1660ff8960101c1614600014614a05576032955b606487116149ec576000966001600160fb1b03811681036108e0578584036148a5579161474d9897969593916147319a6146f49694610640905b818160051b109a508a60001461489b5760051b9003905b6127108211614891575b60ff8160081c1660ff8260101c16141560001461488a576064916145558260ff806146279560081c169160101c1661519f565b04935b6127108511614880575b60051b1015614866576001600160401b0391614650919061295a565b16945b1561484c576001600160401b039161466b919061295a565b16965b600385810180546001600160401b03199081166001600160401b039b8c161782559185018054909216999095168981178255949890946113889182918211614842575b505088546001600160401b038116821161482e575b505083546146e0906001600160401b031660078301613615565b87546001600160401b031690600e01613615565b5490546040517fcbbcee95272cfb3753df326bdc92854d09463c4834c094a042f4066cc803b9b59586928291906001600160401b03168a83615105565b0390a25492546040519182916001600160401b03168683615105565b0390a260005b6008548082101561481057826147688361265e565b90549060031b1c1461477d5750600101614753565b91926000199290918184019182116108e05761368061479e6147ab9361265e565b90549060031b1c9161265e565b6008549182156147fa57601460409260ff9260008051602061535b83398151915295016147da6142cc8261265e565b6008555b015460081c166147f08251809261201f565b60006020820152a2565b634e487b7160e01b600052603160045260246000fd5b505090604060ff601460008051602061535b833981519152936147de565b6001600160401b03191617885538806146c6565b17855580386146b1565b6001600160401b039161485f9190612967565b169661466e565b6001600160401b03916148799190612967565b1694614653565b6127109450614634565b509361462a565b61271091506145f4565b60051b03906145ea565b838611156149db5760196148b9858861295a565b6104658082116149d3575b5004600a60018216156149cb57600a915b60011c90815b61497c5750506148f36148f36148f36148f893615209565b615209565b8015614974575b8487111561493357916147319a6146f496949261492d8560648061474d9f9e9d9c9a98019160051b02615181565b906145d3565b949290989796959391856064011561495e576147319a61474d9a6146f497606401610c8004906145d3565b634e487b7160e01b600052601260045260246000fd5b5060016148ff565b8060801c6149c7578002908a6149c75781600182166149a1575b5060011c90816148db565b9092809b508180820204036149bc575b60009a029138614996565b80156149b157600080fd5b8a80fd5b6001916148d5565b9050386148c4565b60196149e7878661295a565b6148b9565b604051632c870e6b60e11b815260048101889052602490fd5b60ff8860081c1660ff8960101c1611600014614a2357606495614599565b600095614599565b602460ff89818160081c16828260101c1611600014614a615760101c165b60ff6040519163fc8c9a9b60e01b8352166004820152fd5b60081c16614a49565b90503861457a565b6127109150614568565b9061455e565b50612710614522565b858360051b03614518565b83821115614b89576019614aaa858461295a565b610465808211614b81575b5004600a6001821615614b7957600a915b60011c90815b614b2a5750506148f36148f36148f3614ae493615209565b8015614b22575b84831115614b0c5780606480614b0693019160051b02615181565b95614503565b806064011561495e57606401610c800495614503565b506001614aeb565b8060801c614b755780029088614b75578160018216614b4f575b5060011c9081614acc565b9092809950818082020403614b6a575b600098029138614b44565b8015614b5f57600080fd5b8880fd5b600191614ac6565b905038614ab5565b6019614b95838661295a565b614aaa565b604051632c870e6b60e11b815260048101839052602490fd5b60ff8660101c1660ff8760081c1611600014614bd1576064906144dc565b6000906144dc565b602460ff87818160101c16828260081c1611600014614c0e5760081c1660ff6040519163fc8c9a9b60e01b8352166004820152fd5b60101c16614a49565b50601460ff8760101c16116144be565b6003810180546001600160401b031916612710908117909155600e840180549091906001600160401b038116606414614c63575b50505061448b565b6001600160401b031916179055388080614c5b565b5060038101546001600160401b0316606414614486565b6003820180546001600160401b0319166127109081179091556007840180549091906001600160401b038116606414614ccb575b50505061447a565b6001600160401b031916179055388080614cc3565b5060038201546001600160401b0316606414614475565b1015614d075761443c6002614428565b61443c6000614428565b604051636ff6cfe560e01b8152600490fd5b91909182156102c057600092808452600960205260406003818620015415614e805781855260096020526001818620015485526004928360205260018060a01b03806001848920015416911603614e7157818552600960205260038186200154603c8101809111614e5e57421115614e4f57818552600960205280852092600260018501549401549573__$18826597157b5485acfb86513cd242e4d3$__91823b15614e4b5781906064855180958193636c2a23bf60e01b835260098184015260248301528860448301525af4908115614e405750917f773e15a265d8549eebc3e80bafb0e2cbeba28c5d2b2a081e31c34554c7d0507d959691612f9893614e31575b505193849384612e54565b614e3a90612316565b38614e26565b8351903d90823e3d90fd5b5080fd5b516343dcbe9f60e01b81529050fd5b634e487b7160e01b865260118452602486fd5b51633093624d60e21b81529050fd5b5163b0ce759160e01b8152600490fd5b919290926000908482526020926003845260409485842090600160ff601484015416614ebb816120f6565b036150ad57600384101561402057831561509c57821561508b5760018414808061507e575b61506d5760028514908180615060575b61504f571561501757506006820154855260048652868520600101546001600160a01b03908116911603615006576002905b0191602d60ff8454161015614ff757614f51908651936378e02d7160e11b85526004850152602484019061201f565b6044820152828160648173__$18826597157b5485acfb86513cd242e4d3$__5af4918215614fec578092614fb4575b5050614f8b57505050565b7fd6ad8b09cb4bf385f0569c05c242d45e491f752df651aae6a2db9ff589bd9fae9151428152a2565b9091508282813d8311614fe5575b614fcc8183612345565b81010312613eeb5750614fde90613043565b3880614f80565b503d614fc2565b8451903d90823e3d90fd5b5050505050506121939061433e565b8551633093624d60e21b8152600490fd5b615025575b50600290614f22565b600d820154855260048652868520600101546001600160a01b03908116911603615006573861501c565b8851635ce6d95760e11b8152600490fd5b5060048401541515614ef0565b8751635ce6d95760e11b8152600490fd5b5060038301541515614ee0565b8651635101966360e01b8152600490fd5b8651636f6fc75f60e11b8152600490fd5b86516314bc0c2f60e31b8152600490fd5b60ff60008051602061533b8339815191525460401c16156150db57565b604051631afcd79f60e31b8152600490fd5b6001600160401b039081169081146108e05760010190565b9081526001600160401b03909116602082015260400190565b90615145575080511561513357602081519101fd5b60405163d6bda27560e01b8152600490fd5b81511580615178575b615156575090565b604051639996b31560e01b81526001600160a01b039091166004820152602490fd5b50803b1561514e565b811561495e570490565b9060ff8091169116039060ff82116108e057565b9060ff81169160ff8116928084146152005760ff9311156151f257906151c49161518b565b16600181146151ec57600281146151e6576003146151e15760c890565b60af90565b50609690565b50606490565b6151fb9161518b565b6151c4565b50505050606490565b60b581600160881b8110156152a8575b6201000090600160481b81101561529b575b600160281b81101561528e575b6301000000811015615281575b010260121c60019080830401811c80830401811c80830401811c80830401811c80830401811c80830401811c80830401901c8080920410900390565b60101c9160081b91615245565b60201c9160101b91615238565b60401c9160201b9161522b565b5060b560401b9050608082901c61521956fe579c31d7f947df31adb29f8688c651ffa98030b83bb0d87632c86357f13afafd9016d09d72d40fdae2fd8ceac6b6234c7706214fd39c1cd1e609a0528c199300360894a13ba1a3210667c828492db98dca3e2076cc3735a920a3ca505d382bbc8be0079c531659141344cd1fd0a4f28419497f9722a3daafe3b4186f6b6457e0f0c57e16840df040f15088dc2f81fe391c3923bec73e23a9662efc9c229c6a004019f194fe4a757f9f1441d256eeb40c3f12e80f9da6188b5ad1a5fcda7217d740f6909351d16bebd2bb97c72ea15dc2508f321a25ba4ff1df4c330cced53820a26469706673582212205aa99d44dabb3027ecda4c0dae593f327a214b7cd85ad36b25f6f9d62cc0442064736f6c63430008180033",
  "linkReferences": {
    "contracts/GameLib.sol": {
      "GameLib": [
        {
          "length": 20,
          "start": 12627
        },
        {
          "length": 20,
          "start": 16045
        },
        {
          "length": 20,
          "start": 16676
        },
        {
          "length": 20,
          "start": 20101
        },
        {
          "length": 20,
          "start": 20532
        }
      ]
    }
  },
  "deployedLinkReferences": {
    "contracts/GameLib.sol": {
      "GameLib": [
        {
          "length": 20,
          "start": 12412
        },
        {
          "length": 20,
          "start": 15830
        },
        {
          "length": 20,
          "start": 16461
        },
        {
          "length": 20,
          "start": 19886
        },
        {
          "length": 20,
          "start": 20317
        }
      ]
    }
  }
}