{
  "_format": "hh-sol-artifact-1",
  "contractName": "ChessBallGame",
  "sourceName": "contracts/Game.sol",
  "abi": [
    {
      "inputs": [],
      "stateMutability": "nonpayable",
      "type": "constructor"
    },
    {
      "inputs": [],
      "name": "ActionsNotCommitted",
      "type": "error"
    },
    {
      "inputs": [
        {
          "internalType": "address",
          "name": "target",
          "type": "address"
        }
      ],
      "name": "AddressEmptyCode",
      "type": "error"
    },
    {
      "inputs": [],
      "name": "CreateTeam_NameIsRequired",
      "type": "error"
    },
    {
      "inputs": [],
      "name": "CreateTeam_TeamAlreadyExists",
      "type": "error"
    },
    {
      "inputs": [],
      "name": "CreateTeam_TeamNameAlreadyExists",
      "type": "error"
    },
    {
      "inputs": [],
      "name": "DoesNotExist",
      "type": "error"
    },
    {
      "inputs": [
        {
          "internalType": "address",
          "name": "implementation",
          "type": "address"
        }
      ],
      "name": "ERC1967InvalidImplementation",
      "type": "error"
    },
    {
      "inputs": [],
      "name": "ERC1967NonPayable",
      "type": "error"
    },
    {
      "inputs": [],
      "name": "FailedCall",
      "type": "error"
    },
    {
      "inputs": [],
      "name": "FinishGameByTimeout_NoLastMove",
      "type": "error"
    },
    {
      "inputs": [],
      "name": "GameHasNotReachedMaxMoves",
      "type": "error"
    },
    {
      "inputs": [],
      "name": "GameIsNotActive",
      "type": "error"
    },
    {
      "inputs": [],
      "name": "GameOwnerShouldCall",
      "type": "error"
    },
    {
      "inputs": [],
      "name": "GameRequestNotExpired",
      "type": "error"
    },
    {
      "inputs": [],
      "name": "GameRequestTimeoutNotReached",
      "type": "error"
    },
    {
      "inputs": [],
      "name": "InitAddressCannotBeZero",
      "type": "error"
    },
    {
      "inputs": [],
      "name": "InvalidInitialization",
      "type": "error"
    },
    {
      "inputs": [],
      "name": "InvalidTeam",
      "type": "error"
    },
    {
      "inputs": [],
      "name": "MovesAlreadyCommitted",
      "type": "error"
    },
    {
      "inputs": [],
      "name": "NotInitializing",
      "type": "error"
    },
    {
      "inputs": [],
      "name": "OnlyGameEngineServerCanCall",
      "type": "error"
    },
    {
      "inputs": [],
      "name": "OnlyRelayerCanCall",
      "type": "error"
    },
    {
      "inputs": [
        {
          "internalType": "address",
          "name": "owner",
          "type": "address"
        }
      ],
      "name": "OwnableInvalidOwner",
      "type": "error"
    },
    {
      "inputs": [
        {
          "internalType": "address",
          "name": "account",
          "type": "address"
        }
      ],
      "name": "OwnableUnauthorizedAccount",
      "type": "error"
    },
    {
      "inputs": [],
      "name": "TeamAlreadyHasActiveGame",
      "type": "error"
    },
    {
      "inputs": [],
      "name": "TeamsCannotBeSame",
      "type": "error"
    },
    {
      "inputs": [],
      "name": "UUPSUnauthorizedCallContext",
      "type": "error"
    },
    {
      "inputs": [
        {
          "internalType": "bytes32",
          "name": "slot",
          "type": "bytes32"
        }
      ],
      "name": "UUPSUnsupportedProxiableUUID",
      "type": "error"
    },
    {
      "anonymous": false,
      "inputs": [
        {
          "indexed": true,
          "internalType": "uint256",
          "name": "teamId",
          "type": "uint256"
        },
        {
          "indexed": false,
          "internalType": "uint64",
          "name": "eloRating",
          "type": "uint64"
        }
      ],
      "name": "EloUpdated",
      "type": "event"
    },
    {
      "anonymous": false,
      "inputs": [
        {
          "indexed": true,
          "internalType": "uint256",
          "name": "gameId",
          "type": "uint256"
        },
        {
          "indexed": false,
          "internalType": "enum GameLib.TeamEnum",
          "name": "winner",
          "type": "uint8"
        },
        {
          "indexed": false,
          "internalType": "enum GameLib.FinishReason",
          "name": "finishReason",
          "type": "uint8"
        }
      ],
      "name": "GameFinished",
      "type": "event"
    },
    {
      "anonymous": false,
      "inputs": [
        {
          "indexed": false,
          "internalType": "uint256",
          "name": "gameRequestId",
          "type": "uint256"
        },
        {
          "indexed": false,
          "internalType": "uint256",
          "name": "team1id",
          "type": "uint256"
        },
        {
          "indexed": false,
          "internalType": "uint256",
          "name": "team2id",
          "type": "uint256"
        }
      ],
      "name": "GameRequestCancelled",
      "type": "event"
    },
    {
      "anonymous": false,
      "inputs": [
        {
          "indexed": false,
          "internalType": "uint256",
          "name": "gameRequestId",
          "type": "uint256"
        },
        {
          "indexed": false,
          "internalType": "uint256",
          "name": "team1id",
          "type": "uint256"
        },
        {
          "indexed": false,
          "internalType": "uint256",
          "name": "team2id",
          "type": "uint256"
        }
      ],
      "name": "GameRequestCreated",
      "type": "event"
    },
    {
      "anonymous": false,
      "inputs": [
        {
          "indexed": true,
          "internalType": "uint256",
          "name": "gameId",
          "type": "uint256"
        },
        {
          "indexed": true,
          "internalType": "uint256",
          "name": "team1id",
          "type": "uint256"
        },
        {
          "indexed": true,
          "internalType": "uint256",
          "name": "team2id",
          "type": "uint256"
        },
        {
          "indexed": false,
          "internalType": "enum GameLib.TeamEnum",
          "name": "teamWithBall",
          "type": "uint8"
        }
      ],
      "name": "GameStarted",
      "type": "event"
    },
    {
      "anonymous": false,
      "inputs": [
        {
          "indexed": true,
          "internalType": "uint256",
          "name": "gameId",
          "type": "uint256"
        },
        {
          "indexed": false,
          "internalType": "enum GameLib.TeamEnum",
          "name": "cauzedByTeam",
          "type": "uint8"
        },
        {
          "indexed": false,
          "internalType": "enum ChessBallGame.ErrorType",
          "name": "errorType",
          "type": "uint8"
        },
        {
          "indexed": false,
          "internalType": "uint256",
          "name": "time",
          "type": "uint256"
        },
        {
          "indexed": false,
          "internalType": "string",
          "name": "errorMsg",
          "type": "string"
        }
      ],
      "name": "GameStateError",
      "type": "event"
    },
    {
      "anonymous": false,
      "inputs": [
        {
          "indexed": true,
          "internalType": "uint256",
          "name": "gameId",
          "type": "uint256"
        },
        {
          "indexed": false,
          "internalType": "enum GameLib.TeamEnum",
          "name": "scoringTeam",
          "type": "uint8"
        }
      ],
      "name": "GoalScored",
      "type": "event"
    },
    {
      "anonymous": false,
      "inputs": [
        {
          "indexed": false,
          "internalType": "uint64",
          "name": "version",
          "type": "uint64"
        }
      ],
      "name": "Initialized",
      "type": "event"
    },
    {
      "anonymous": false,
      "inputs": [
        {
          "indexed": true,
          "internalType": "uint256",
          "name": "gameId",
          "type": "uint256"
        },
        {
          "indexed": false,
          "internalType": "enum GameLib.StateType",
          "name": "stateType",
          "type": "uint8"
        },
        {
          "indexed": false,
          "internalType": "uint256",
          "name": "time",
          "type": "uint256"
        },
        {
          "indexed": false,
          "internalType": "uint8[]",
          "name": "clashRandomNumbers",
          "type": "uint8[]"
        },
        {
          "components": [
            {
              "internalType": "uint256",
              "name": "playerId",
              "type": "uint256"
            },
            {
              "internalType": "enum GameLib.MoveType",
              "name": "moveType",
              "type": "uint8"
            },
            {
              "components": [
                {
                  "internalType": "uint8",
                  "name": "x",
                  "type": "uint8"
                },
                {
                  "internalType": "uint8",
                  "name": "y",
                  "type": "uint8"
                }
              ],
              "internalType": "struct GameLib.Position",
              "name": "oldPosition",
              "type": "tuple"
            },
            {
              "components": [
                {
                  "internalType": "uint8",
                  "name": "x",
                  "type": "uint8"
                },
                {
                  "internalType": "uint8",
                  "name": "y",
                  "type": "uint8"
                }
              ],
              "internalType": "struct GameLib.Position",
              "name": "newPosition",
              "type": "tuple"
            }
          ],
          "indexed": false,
          "internalType": "struct GameLib.GameAction[]",
          "name": "team1Actions",
          "type": "tuple[]"
        },
        {
          "components": [
            {
              "internalType": "uint256",
              "name": "playerId",
              "type": "uint256"
            },
            {
              "internalType": "enum GameLib.MoveType",
              "name": "moveType",
              "type": "uint8"
            },
            {
              "components": [
                {
                  "internalType": "uint8",
                  "name": "x",
                  "type": "uint8"
                },
                {
                  "internalType": "uint8",
                  "name": "y",
                  "type": "uint8"
                }
              ],
              "internalType": "struct GameLib.Position",
              "name": "oldPosition",
              "type": "tuple"
            },
            {
              "components": [
                {
                  "internalType": "uint8",
                  "name": "x",
                  "type": "uint8"
                },
                {
                  "internalType": "uint8",
                  "name": "y",
                  "type": "uint8"
                }
              ],
              "internalType": "struct GameLib.Position",
              "name": "newPosition",
              "type": "tuple"
            }
          ],
          "indexed": false,
          "internalType": "struct GameLib.GameAction[]",
          "name": "team2Actions",
          "type": "tuple[]"
        },
        {
          "components": [
            {
              "internalType": "uint8",
              "name": "x",
              "type": "uint8"
            },
            {
              "internalType": "uint8",
              "name": "y",
              "type": "uint8"
            }
          ],
          "indexed": false,
          "internalType": "struct GameLib.Position",
          "name": "ballPosition",
          "type": "tuple"
        },
        {
          "indexed": false,
          "internalType": "enum GameLib.TeamEnum",
          "name": "ballOwner",
          "type": "uint8"
        }
      ],
      "name": "NewGameState",
      "type": "event"
    },
    {
      "anonymous": false,
      "inputs": [
        {
          "indexed": true,
          "internalType": "address",
          "name": "previousOwner",
          "type": "address"
        },
        {
          "indexed": true,
          "internalType": "address",
          "name": "newOwner",
          "type": "address"
        }
      ],
      "name": "OwnershipTransferred",
      "type": "event"
    },
    {
      "anonymous": false,
      "inputs": [
        {
          "indexed": true,
          "internalType": "uint256",
          "name": "teamId",
          "type": "uint256"
        },
        {
          "indexed": true,
          "internalType": "address",
          "name": "owner",
          "type": "address"
        },
        {
          "indexed": false,
          "internalType": "string",
          "name": "name",
          "type": "string"
        },
        {
          "indexed": false,
          "internalType": "uint8",
          "name": "country",
          "type": "uint8"
        }
      ],
      "name": "TeamCreated",
      "type": "event"
    },
    {
      "anonymous": false,
      "inputs": [
        {
          "indexed": true,
          "internalType": "address",
          "name": "implementation",
          "type": "address"
        }
      ],
      "name": "Upgraded",
      "type": "event"
    },
    {
      "anonymous": false,
      "inputs": [
        {
          "indexed": true,
          "internalType": "uint256",
          "name": "gameId",
          "type": "uint256"
        },
        {
          "indexed": false,
          "internalType": "uint256",
          "name": "timestamp",
          "type": "uint256"
        }
      ],
      "name": "gameActionCommitted",
      "type": "event"
    },
    {
      "inputs": [],
      "name": "UPGRADE_INTERFACE_VERSION",
      "outputs": [
        {
          "internalType": "string",
          "name": "",
          "type": "string"
        }
      ],
      "stateMutability": "view",
      "type": "function"
    },
    {
      "inputs": [
        {
          "internalType": "uint256",
          "name": "",
          "type": "uint256"
        }
      ],
      "name": "activeGames",
      "outputs": [
        {
          "internalType": "uint256",
          "name": "",
          "type": "uint256"
        }
      ],
      "stateMutability": "view",
      "type": "function"
    },
    {
      "inputs": [
        {
          "internalType": "uint256",
          "name": "gameRequestId",
          "type": "uint256"
        }
      ],
      "name": "cancelGameRequest",
      "outputs": [],
      "stateMutability": "nonpayable",
      "type": "function"
    },
    {
      "inputs": [
        {
          "internalType": "address",
          "name": "sender",
          "type": "address"
        },
        {
          "internalType": "uint256",
          "name": "gameRequestId",
          "type": "uint256"
        }
      ],
      "name": "cancelGameRequestRelayer",
      "outputs": [],
      "stateMutability": "nonpayable",
      "type": "function"
    },
    {
      "inputs": [
        {
          "internalType": "address",
          "name": "sender",
          "type": "address"
        },
        {
          "internalType": "uint256",
          "name": "gameId",
          "type": "uint256"
        },
        {
          "internalType": "enum GameLib.TeamEnum",
          "name": "team",
          "type": "uint8"
        }
      ],
      "name": "commitGameActionsRelayer",
      "outputs": [],
      "stateMutability": "nonpayable",
      "type": "function"
    },
    {
      "inputs": [
        {
          "internalType": "uint256",
          "name": "team1id",
          "type": "uint256"
        },
        {
          "internalType": "uint256",
          "name": "team2id",
          "type": "uint256"
        }
      ],
      "name": "createGameRequest",
      "outputs": [],
      "stateMutability": "nonpayable",
      "type": "function"
    },
    {
      "inputs": [
        {
          "internalType": "address",
          "name": "sender",
          "type": "address"
        },
        {
          "internalType": "uint256",
          "name": "team1id",
          "type": "uint256"
        },
        {
          "internalType": "uint256",
          "name": "team2id",
          "type": "uint256"
        }
      ],
      "name": "createGameRequestRelayer",
      "outputs": [],
      "stateMutability": "nonpayable",
      "type": "function"
    },
    {
      "inputs": [
        {
          "internalType": "string",
          "name": "name",
          "type": "string"
        },
        {
          "internalType": "uint8",
          "name": "country",
          "type": "uint8"
        }
      ],
      "name": "createTeam",
      "outputs": [],
      "stateMutability": "nonpayable",
      "type": "function"
    },
    {
      "inputs": [
        {
          "internalType": "address",
          "name": "sender",
          "type": "address"
        },
        {
          "internalType": "string",
          "name": "name",
          "type": "string"
        },
        {
          "internalType": "uint8",
          "name": "country",
          "type": "uint8"
        }
      ],
      "name": "createTeamRelayer",
      "outputs": [],
      "stateMutability": "nonpayable",
      "type": "function"
    },
    {
      "inputs": [
        {
          "internalType": "uint256",
          "name": "gameId",
          "type": "uint256"
        }
      ],
      "name": "finishGameByTimeout",
      "outputs": [],
      "stateMutability": "nonpayable",
      "type": "function"
    },
    {
      "inputs": [
        {
          "internalType": "address",
          "name": "sender",
          "type": "address"
        },
        {
          "internalType": "uint256",
          "name": "gameId",
          "type": "uint256"
        }
      ],
      "name": "finishGameByTimeoutRelayer",
      "outputs": [],
      "stateMutability": "nonpayable",
      "type": "function"
    },
    {
      "inputs": [],
      "name": "gameEngineServerAddress",
      "outputs": [
        {
          "internalType": "address",
          "name": "",
          "type": "address"
        }
      ],
      "stateMutability": "view",
      "type": "function"
    },
    {
      "inputs": [],
      "name": "gameRequestIndex",
      "outputs": [
        {
          "internalType": "uint256",
          "name": "",
          "type": "uint256"
        }
      ],
      "stateMutability": "view",
      "type": "function"
    },
    {
      "inputs": [
        {
          "internalType": "uint256",
          "name": "",
          "type": "uint256"
        }
      ],
      "name": "gameRequests",
      "outputs": [
        {
          "internalType": "uint256",
          "name": "gameRequestId",
          "type": "uint256"
        },
        {
          "internalType": "uint256",
          "name": "team1id",
          "type": "uint256"
        },
        {
          "internalType": "uint256",
          "name": "team2id",
          "type": "uint256"
        },
        {
          "internalType": "uint256",
          "name": "createdAt",
          "type": "uint256"
        }
      ],
      "stateMutability": "view",
      "type": "function"
    },
    {
      "inputs": [
        {
          "internalType": "uint256",
          "name": "",
          "type": "uint256"
        }
      ],
      "name": "games",
      "outputs": [
        {
          "internalType": "uint256",
          "name": "gameId",
          "type": "uint256"
        },
        {
          "internalType": "uint256",
          "name": "createdAt",
          "type": "uint256"
        },
        {
          "components": [
            {
              "internalType": "uint8",
              "name": "movesMade",
              "type": "uint8"
            },
            {
              "internalType": "uint64",
              "name": "lastMoveAt",
              "type": "uint64"
            },
            {
              "internalType": "bool",
              "name": "team1MadeMove",
              "type": "bool"
            },
            {
              "internalType": "bool",
              "name": "team2MadeMove",
              "type": "bool"
            },
            {
              "internalType": "enum GameLib.TeamEnum",
              "name": "lastMoveTeam",
              "type": "uint8"
            },
            {
              "internalType": "uint8",
              "name": "team1score",
              "type": "uint8"
            },
            {
              "internalType": "uint8",
              "name": "team2score",
              "type": "uint8"
            }
          ],
          "internalType": "struct GameLib.GameState",
          "name": "gameState",
          "type": "tuple"
        },
        {
          "components": [
            {
              "internalType": "uint256",
              "name": "teamId",
              "type": "uint256"
            },
            {
              "internalType": "uint64",
              "name": "eloRating",
              "type": "uint64"
            },
            {
              "internalType": "uint64",
              "name": "eloRatingNew",
              "type": "uint64"
            },
            {
              "internalType": "enum GameLib.TeamFormation",
              "name": "formation",
              "type": "uint8"
            },
            {
              "internalType": "uint256[5]",
              "name": "__gap",
              "type": "uint256[5]"
            }
          ],
          "internalType": "struct GameLib.TeamInfo",
          "name": "team1",
          "type": "tuple"
        },
        {
          "components": [
            {
              "internalType": "uint256",
              "name": "teamId",
              "type": "uint256"
            },
            {
              "internalType": "uint64",
              "name": "eloRating",
              "type": "uint64"
            },
            {
              "internalType": "uint64",
              "name": "eloRatingNew",
              "type": "uint64"
            },
            {
              "internalType": "enum GameLib.TeamFormation",
              "name": "formation",
              "type": "uint8"
            },
            {
              "internalType": "uint256[5]",
              "name": "__gap",
              "type": "uint256[5]"
            }
          ],
          "internalType": "struct GameLib.TeamInfo",
          "name": "team2",
          "type": "tuple"
        },
        {
          "internalType": "enum GameLib.GameStatus",
          "name": "status",
          "type": "uint8"
        },
        {
          "internalType": "enum GameLib.TeamEnum",
          "name": "winner",
          "type": "uint8"
        },
        {
          "internalType": "bytes32",
          "name": "historyIPFS",
          "type": "bytes32"
        },
        {
          "internalType": "bool",
          "name": "isVerified",
          "type": "bool"
        },
        {
          "internalType": "uint8",
          "name": "gameEngineVersion",
          "type": "uint8"
        }
      ],
      "stateMutability": "view",
      "type": "function"
    },
    {
      "inputs": [],
      "name": "gelatoAddress",
      "outputs": [
        {
          "internalType": "address",
          "name": "",
          "type": "address"
        }
      ],
      "stateMutability": "view",
      "type": "function"
    },
    {
      "inputs": [],
      "name": "getActiveGameCount",
      "outputs": [
        {
          "internalType": "uint256",
          "name": "",
          "type": "uint256"
        }
      ],
      "stateMutability": "view",
      "type": "function"
    },
    {
      "inputs": [],
      "name": "getActiveGames",
      "outputs": [
        {
          "internalType": "uint256[]",
          "name": "",
          "type": "uint256[]"
        }
      ],
      "stateMutability": "view",
      "type": "function"
    },
    {
      "inputs": [
        {
          "internalType": "uint256",
          "name": "gameId",
          "type": "uint256"
        }
      ],
      "name": "getGame",
      "outputs": [
        {
          "components": [
            {
              "internalType": "uint256",
              "name": "gameId",
              "type": "uint256"
            },
            {
              "internalType": "uint256",
              "name": "createdAt",
              "type": "uint256"
            },
            {
              "components": [
                {
                  "internalType": "uint8",
                  "name": "movesMade",
                  "type": "uint8"
                },
                {
                  "internalType": "uint64",
                  "name": "lastMoveAt",
                  "type": "uint64"
                },
                {
                  "internalType": "bool",
                  "name": "team1MadeMove",
                  "type": "bool"
                },
                {
                  "internalType": "bool",
                  "name": "team2MadeMove",
                  "type": "bool"
                },
                {
                  "internalType": "enum GameLib.TeamEnum",
                  "name": "lastMoveTeam",
                  "type": "uint8"
                },
                {
                  "internalType": "uint8",
                  "name": "team1score",
                  "type": "uint8"
                },
                {
                  "internalType": "uint8",
                  "name": "team2score",
                  "type": "uint8"
                }
              ],
              "internalType": "struct GameLib.GameState",
              "name": "gameState",
              "type": "tuple"
            },
            {
              "components": [
                {
                  "internalType": "uint256",
                  "name": "teamId",
                  "type": "uint256"
                },
                {
                  "internalType": "uint64",
                  "name": "eloRating",
                  "type": "uint64"
                },
                {
                  "internalType": "uint64",
                  "name": "eloRatingNew",
                  "type": "uint64"
                },
                {
                  "internalType": "enum GameLib.TeamFormation",
                  "name": "formation",
                  "type": "uint8"
                },
                {
                  "internalType": "uint256[5]",
                  "name": "__gap",
                  "type": "uint256[5]"
                }
              ],
              "internalType": "struct GameLib.TeamInfo",
              "name": "team1",
              "type": "tuple"
            },
            {
              "components": [
                {
                  "internalType": "uint256",
                  "name": "teamId",
                  "type": "uint256"
                },
                {
                  "internalType": "uint64",
                  "name": "eloRating",
                  "type": "uint64"
                },
                {
                  "internalType": "uint64",
                  "name": "eloRatingNew",
                  "type": "uint64"
                },
                {
                  "internalType": "enum GameLib.TeamFormation",
                  "name": "formation",
                  "type": "uint8"
                },
                {
                  "internalType": "uint256[5]",
                  "name": "__gap",
                  "type": "uint256[5]"
                }
              ],
              "internalType": "struct GameLib.TeamInfo",
              "name": "team2",
              "type": "tuple"
            },
            {
              "internalType": "enum GameLib.GameStatus",
              "name": "status",
              "type": "uint8"
            },
            {
              "internalType": "enum GameLib.TeamEnum",
              "name": "winner",
              "type": "uint8"
            },
            {
              "internalType": "bytes32",
              "name": "historyIPFS",
              "type": "bytes32"
            },
            {
              "internalType": "bool",
              "name": "isVerified",
              "type": "bool"
            },
            {
              "internalType": "uint8",
              "name": "gameEngineVersion",
              "type": "uint8"
            },
            {
              "internalType": "uint256[10]",
              "name": "__gap",
              "type": "uint256[10]"
            }
          ],
          "internalType": "struct GameLib.Game",
          "name": "",
          "type": "tuple"
        }
      ],
      "stateMutability": "view",
      "type": "function"
    },
    {
      "inputs": [
        {
          "internalType": "uint256",
          "name": "requestId",
          "type": "uint256"
        }
      ],
      "name": "getGameRequest",
      "outputs": [
        {
          "components": [
            {
              "internalType": "uint256",
              "name": "gameRequestId",
              "type": "uint256"
            },
            {
              "internalType": "uint256",
              "name": "team1id",
              "type": "uint256"
            },
            {
              "internalType": "uint256",
              "name": "team2id",
              "type": "uint256"
            },
            {
              "internalType": "uint256",
              "name": "createdAt",
              "type": "uint256"
            }
          ],
          "internalType": "struct GameLib.GameRequest",
          "name": "",
          "type": "tuple"
        }
      ],
      "stateMutability": "view",
      "type": "function"
    },
    {
      "inputs": [
        {
          "internalType": "uint256",
          "name": "gameId",
          "type": "uint256"
        }
      ],
      "name": "getGameStatus",
      "outputs": [
        {
          "internalType": "enum GameLib.GameStatus",
          "name": "",
          "type": "uint8"
        }
      ],
      "stateMutability": "view",
      "type": "function"
    },
    {
      "inputs": [
        {
          "internalType": "uint256",
          "name": "teamId",
          "type": "uint256"
        },
        {
          "internalType": "uint256",
          "name": "n",
          "type": "uint256"
        }
      ],
      "name": "getLastNGames",
      "outputs": [
        {
          "components": [
            {
              "internalType": "uint256",
              "name": "gameId",
              "type": "uint256"
            },
            {
              "internalType": "uint256",
              "name": "createdAt",
              "type": "uint256"
            },
            {
              "components": [
                {
                  "internalType": "uint8",
                  "name": "movesMade",
                  "type": "uint8"
                },
                {
                  "internalType": "uint64",
                  "name": "lastMoveAt",
                  "type": "uint64"
                },
                {
                  "internalType": "bool",
                  "name": "team1MadeMove",
                  "type": "bool"
                },
                {
                  "internalType": "bool",
                  "name": "team2MadeMove",
                  "type": "bool"
                },
                {
                  "internalType": "enum GameLib.TeamEnum",
                  "name": "lastMoveTeam",
                  "type": "uint8"
                },
                {
                  "internalType": "uint8",
                  "name": "team1score",
                  "type": "uint8"
                },
                {
                  "internalType": "uint8",
                  "name": "team2score",
                  "type": "uint8"
                }
              ],
              "internalType": "struct GameLib.GameState",
              "name": "gameState",
              "type": "tuple"
            },
            {
              "components": [
                {
                  "internalType": "uint256",
                  "name": "teamId",
                  "type": "uint256"
                },
                {
                  "internalType": "uint64",
                  "name": "eloRating",
                  "type": "uint64"
                },
                {
                  "internalType": "uint64",
                  "name": "eloRatingNew",
                  "type": "uint64"
                },
                {
                  "internalType": "enum GameLib.TeamFormation",
                  "name": "formation",
                  "type": "uint8"
                },
                {
                  "internalType": "uint256[5]",
                  "name": "__gap",
                  "type": "uint256[5]"
                }
              ],
              "internalType": "struct GameLib.TeamInfo",
              "name": "team1",
              "type": "tuple"
            },
            {
              "components": [
                {
                  "internalType": "uint256",
                  "name": "teamId",
                  "type": "uint256"
                },
                {
                  "internalType": "uint64",
                  "name": "eloRating",
                  "type": "uint64"
                },
                {
                  "internalType": "uint64",
                  "name": "eloRatingNew",
                  "type": "uint64"
                },
                {
                  "internalType": "enum GameLib.TeamFormation",
                  "name": "formation",
                  "type": "uint8"
                },
                {
                  "internalType": "uint256[5]",
                  "name": "__gap",
                  "type": "uint256[5]"
                }
              ],
              "internalType": "struct GameLib.TeamInfo",
              "name": "team2",
              "type": "tuple"
            },
            {
              "internalType": "enum GameLib.GameStatus",
              "name": "status",
              "type": "uint8"
            },
            {
              "internalType": "enum GameLib.TeamEnum",
              "name": "winner",
              "type": "uint8"
            },
            {
              "internalType": "bytes32",
              "name": "historyIPFS",
              "type": "bytes32"
            },
            {
              "internalType": "bool",
              "name": "isVerified",
              "type": "bool"
            },
            {
              "internalType": "uint8",
              "name": "gameEngineVersion",
              "type": "uint8"
            },
            {
              "internalType": "uint256[10]",
              "name": "__gap",
              "type": "uint256[10]"
            }
          ],
          "internalType": "struct GameLib.Game[]",
          "name": "",
          "type": "tuple[]"
        }
      ],
      "stateMutability": "view",
      "type": "function"
    },
    {
      "inputs": [
        {
          "internalType": "uint256",
          "name": "teamId",
          "type": "uint256"
        }
      ],
      "name": "getTeam",
      "outputs": [
        {
          "components": [
            {
              "internalType": "uint256",
              "name": "id",
              "type": "uint256"
            },
            {
              "internalType": "address",
              "name": "wallet",
              "type": "address"
            },
            {
              "internalType": "string",
              "name": "name",
              "type": "string"
            },
            {
              "internalType": "uint64",
              "name": "eloRating",
              "type": "uint64"
            },
            {
              "internalType": "uint256",
              "name": "registeredAt",
              "type": "uint256"
            },
            {
              "internalType": "uint256[]",
              "name": "games",
              "type": "uint256[]"
            },
            {
              "internalType": "uint8",
              "name": "country",
              "type": "uint8"
            },
            {
              "internalType": "bool",
              "name": "hasActiveGame",
              "type": "bool"
            },
            {
              "internalType": "uint256",
              "name": "gameRequestId",
              "type": "uint256"
            },
            {
              "internalType": "uint64",
              "name": "totalGames",
              "type": "uint64"
            },
            {
              "internalType": "uint256[10]",
              "name": "__gap",
              "type": "uint256[10]"
            }
          ],
          "internalType": "struct GameLib.Team",
          "name": "",
          "type": "tuple"
        }
      ],
      "stateMutability": "view",
      "type": "function"
    },
    {
      "inputs": [
        {
          "internalType": "address",
          "name": "wallet",
          "type": "address"
        }
      ],
      "name": "getTeamIdByWallet",
      "outputs": [
        {
          "internalType": "uint256",
          "name": "",
          "type": "uint256"
        }
      ],
      "stateMutability": "view",
      "type": "function"
    },
    {
      "inputs": [
        {
          "internalType": "address",
          "name": "_gelatoAddress",
          "type": "address"
        },
        {
          "internalType": "address",
          "name": "_relayerAddress",
          "type": "address"
        },
        {
          "internalType": "address",
          "name": "_gameEngineServerAddress",
          "type": "address"
        }
      ],
      "name": "initialize",
      "outputs": [],
      "stateMutability": "nonpayable",
      "type": "function"
    },
    {
      "inputs": [
        {
          "internalType": "uint256",
          "name": "gameId",
          "type": "uint256"
        },
        {
          "internalType": "enum GameLib.StateType",
          "name": "stateType",
          "type": "uint8"
        },
        {
          "internalType": "uint8[]",
          "name": "clashRandomNumbers",
          "type": "uint8[]"
        },
        {
          "components": [
            {
              "internalType": "uint256",
              "name": "playerId",
              "type": "uint256"
            },
            {
              "internalType": "enum GameLib.MoveType",
              "name": "moveType",
              "type": "uint8"
            },
            {
              "components": [
                {
                  "internalType": "uint8",
                  "name": "x",
                  "type": "uint8"
                },
                {
                  "internalType": "uint8",
                  "name": "y",
                  "type": "uint8"
                }
              ],
              "internalType": "struct GameLib.Position",
              "name": "oldPosition",
              "type": "tuple"
            },
            {
              "components": [
                {
                  "internalType": "uint8",
                  "name": "x",
                  "type": "uint8"
                },
                {
                  "internalType": "uint8",
                  "name": "y",
                  "type": "uint8"
                }
              ],
              "internalType": "struct GameLib.Position",
              "name": "newPosition",
              "type": "tuple"
            }
          ],
          "internalType": "struct GameLib.GameAction[]",
          "name": "team1Actions",
          "type": "tuple[]"
        },
        {
          "components": [
            {
              "internalType": "uint256",
              "name": "playerId",
              "type": "uint256"
            },
            {
              "internalType": "enum GameLib.MoveType",
              "name": "moveType",
              "type": "uint8"
            },
            {
              "components": [
                {
                  "internalType": "uint8",
                  "name": "x",
                  "type": "uint8"
                },
                {
                  "internalType": "uint8",
                  "name": "y",
                  "type": "uint8"
                }
              ],
              "internalType": "struct GameLib.Position",
              "name": "oldPosition",
              "type": "tuple"
            },
            {
              "components": [
                {
                  "internalType": "uint8",
                  "name": "x",
                  "type": "uint8"
                },
                {
                  "internalType": "uint8",
                  "name": "y",
                  "type": "uint8"
                }
              ],
              "internalType": "struct GameLib.Position",
              "name": "newPosition",
              "type": "tuple"
            }
          ],
          "internalType": "struct GameLib.GameAction[]",
          "name": "team2Actions",
          "type": "tuple[]"
        },
        {
          "components": [
            {
              "internalType": "uint8",
              "name": "x",
              "type": "uint8"
            },
            {
              "internalType": "uint8",
              "name": "y",
              "type": "uint8"
            }
          ],
          "internalType": "struct GameLib.Position",
          "name": "ballPosition",
          "type": "tuple"
        },
        {
          "internalType": "enum GameLib.TeamEnum",
          "name": "ballOwner",
          "type": "uint8"
        }
      ],
      "name": "newGameState",
      "outputs": [],
      "stateMutability": "nonpayable",
      "type": "function"
    },
    {
      "inputs": [],
      "name": "nextGameId",
      "outputs": [
        {
          "internalType": "uint256",
          "name": "",
          "type": "uint256"
        }
      ],
      "stateMutability": "view",
      "type": "function"
    },
    {
      "inputs": [],
      "name": "nextTeamId",
      "outputs": [
        {
          "internalType": "uint256",
          "name": "",
          "type": "uint256"
        }
      ],
      "stateMutability": "view",
      "type": "function"
    },
    {
      "inputs": [],
      "name": "owner",
      "outputs": [
        {
          "internalType": "address",
          "name": "",
          "type": "address"
        }
      ],
      "stateMutability": "view",
      "type": "function"
    },
    {
      "inputs": [],
      "name": "proxiableUUID",
      "outputs": [
        {
          "internalType": "bytes32",
          "name": "",
          "type": "bytes32"
        }
      ],
      "stateMutability": "view",
      "type": "function"
    },
    {
      "inputs": [],
      "name": "relayerAddress",
      "outputs": [
        {
          "internalType": "address",
          "name": "",
          "type": "address"
        }
      ],
      "stateMutability": "view",
      "type": "function"
    },
    {
      "inputs": [],
      "name": "renounceOwnership",
      "outputs": [],
      "stateMutability": "nonpayable",
      "type": "function"
    },
    {
      "inputs": [
        {
          "internalType": "uint256",
          "name": "gameId",
          "type": "uint256"
        },
        {
          "internalType": "enum GameLib.TeamEnum",
          "name": "cauzedByTeam",
          "type": "uint8"
        },
        {
          "internalType": "enum ChessBallGame.ErrorType",
          "name": "errorType",
          "type": "uint8"
        },
        {
          "internalType": "string",
          "name": "errorMsg",
          "type": "string"
        }
      ],
      "name": "setGameError",
      "outputs": [],
      "stateMutability": "nonpayable",
      "type": "function"
    },
    {
      "inputs": [
        {
          "internalType": "uint256",
          "name": "gameRequestId",
          "type": "uint256"
        }
      ],
      "name": "startGame",
      "outputs": [],
      "stateMutability": "nonpayable",
      "type": "function"
    },
    {
      "inputs": [
        {
          "internalType": "address",
          "name": "sender",
          "type": "address"
        },
        {
          "internalType": "uint256",
          "name": "gameRequestId",
          "type": "uint256"
        }
      ],
      "name": "startGameRelayer",
      "outputs": [],
      "stateMutability": "nonpayable",
      "type": "function"
    },
    {
      "inputs": [
        {
          "internalType": "address",
          "name": "",
          "type": "address"
        }
      ],
      "name": "teamIdByWallet",
      "outputs": [
        {
          "internalType": "uint256",
          "name": "",
          "type": "uint256"
        }
      ],
      "stateMutability": "view",
      "type": "function"
    },
    {
      "inputs": [
        {
          "internalType": "string",
          "name": "",
          "type": "string"
        }
      ],
      "name": "teamNames",
      "outputs": [
        {
          "internalType": "bool",
          "name": "",
          "type": "bool"
        }
      ],
      "stateMutability": "view",
      "type": "function"
    },
    {
      "inputs": [
        {
          "internalType": "uint256",
          "name": "",
          "type": "uint256"
        }
      ],
      "name": "teams",
      "outputs": [
        {
          "internalType": "uint256",
          "name": "id",
          "type": "uint256"
        },
        {
          "internalType": "address",
          "name": "wallet",
          "type": "address"
        },
        {
          "internalType": "string",
          "name": "name",
          "type": "string"
        },
        {
          "internalType": "uint64",
          "name": "eloRating",
          "type": "uint64"
        },
        {
          "internalType": "uint256",
          "name": "registeredAt",
          "type": "uint256"
        },
        {
          "internalType": "uint8",
          "name": "country",
          "type": "uint8"
        },
        {
          "internalType": "bool",
          "name": "hasActiveGame",
          "type": "bool"
        },
        {
          "internalType": "uint256",
          "name": "gameRequestId",
          "type": "uint256"
        },
        {
          "internalType": "uint64",
          "name": "totalGames",
          "type": "uint64"
        }
      ],
      "stateMutability": "view",
      "type": "function"
    },
    {
      "inputs": [
        {
          "internalType": "uint256",
          "name": "gameId",
          "type": "uint256"
        }
      ],
      "name": "testTriggerGameActionCommitted",
      "outputs": [],
      "stateMutability": "nonpayable",
      "type": "function"
    },
    {
      "inputs": [
        {
          "internalType": "address",
          "name": "newOwner",
          "type": "address"
        }
      ],
      "name": "transferOwnership",
      "outputs": [],
      "stateMutability": "nonpayable",
      "type": "function"
    },
    {
      "inputs": [
        {
          "internalType": "address",
          "name": "newImplementation",
          "type": "address"
        },
        {
          "internalType": "bytes",
          "name": "data",
          "type": "bytes"
        }
      ],
      "name": "upgradeToAndCall",
      "outputs": [],
      "stateMutability": "payable",
      "type": "function"
    }
  ],
  "bytecode": "0x60a08060405234620000d157306080527ff0c57e16840df040f15088dc2f81fe391c3923bec73e23a9662efc9c229c6a009081549060ff8260401c16620000c257506001600160401b036002600160401b0319828216016200007c575b60405161490f9081620000d78239608051818181610a590152610b000152f35b6001600160401b031990911681179091556040519081527fc7f505b2f371ae2175ee4913f4499e1f2633a7b5936321eed1cdaeb6115181d290602090a13880806200005c565b63f92ee8a960e01b8152600490fd5b600080fdfe608080604052600436101561001357600080fd5b60003560e01c9081628e0f1b14611d9a5750806302f785fd14611d1d57806304642f3e146113cd5780630f1bf4541461137b5780630fb9f869146111fc578063117a5b901461111f57806313e4c714146110e85780631894c756146110ca57806318a7cca8146110a15780631b76929c14611008578063207e6abb14610fd057806322d60b1a14610fb857806326523a7714610f5e5780632cc9c96414610f355780632df84be514610e2b57806337900ba214610df45780633ed2b77a14610d3e57806349e3969a14610d025780634cf97fad14610cbb5780634f1ef28614610ab157806352d1902d14610a4657806368599d0c14610a285780636e6964d7146109c7578063715018a61461096f57806379b880ac146107b85780637bb597fa1461079a5780638da5cb5b1461076457806392a52e8114610716578063a2f77bcc14610616578063a462816c146105ed578063ad3cb1cc1461057b578063b135bbb01461055d578063c0c53b8b146103d5578063c4b634f314610374578063c6480413146101e1578063c94950411461032a578063e34c2e5814610285578063e5ed1d5914610268578063ec5c504e1461024b578063f2fde38b146102205763ff156d00146101e157600080fd5b3461021b57602036600319011261021b576001600160a01b036102026124c3565b1660005260056020526020604060002054604051908152f35b600080fd5b3461021b57602036600319011261021b5761024961023c6124c3565b610244613d41565b612a8b565b005b3461021b57602036600319011261021b57610249600435336143cc565b3461021b57602036600319011261021b5761024960043533612d99565b3461021b57602036600319011261021b576004356102a1612a66565b5080600052600960205260036040600020015415610318576000526009602052608060406000206040516102d481612281565b815491828252600181015460208301908152606060036002840154936040860194855201549301928352604051938452516020840152516040830152516060820152f35b60405163b0ce759160e01b8152600490fd5b3461021b57604036600319011261021b576103436124c3565b6001546001600160a01b031633036103625761024990602435906143cc565b604051639608c6ff60e01b8152600490fd5b3461021b57606036600319011261021b5761038d6124c3565b6024356001600160401b03811161021b576103ac90369060040161235b565b6044359060ff8216820361021b576001546001600160a01b031633036103625761024992613dd0565b3461021b57606036600319011261021b576103ee6124c3565b6001600160a01b03906024358281169081900361021b576044359083821680920361021b5760008051602061487a83398151915280549094604082901c60ff16159490916001600160401b03811680159081610555575b600114908161054b575b159081610542575b50610530576001600160401b03198116600117875585610515575b50169081156105035780156105035782156105035760018060a01b03199182600054161760005581600154161760015560025416176002556104b2614652565b6104ba614652565b6104c333612a8b565b6104c957005b805460ff60401b19169055604051600181527fc7f505b2f371ae2175ee4913f4499e1f2633a7b5936321eed1cdaeb6115181d290602090a1005b6040516301369f3160e61b8152600490fd5b6001600160481b0319166001600160401b0117865586610472565b60405163f92ee8a960e01b8152600490fd5b90501588610457565b303b15915061044f565b879150610445565b3461021b57600036600319011261021b576020600654604051908152f35b3461021b57600036600319011261021b5760408051908101906001600160401b038211818310176105d7576105d39160405260058152640352e302e360dc1b6020820152604051918291602083526020830190612027565b0390f35b634e487b7160e01b600052604160045260246000fd5b3461021b57600036600319011261021b576002546040516001600160a01b039091168152602090f35b3461021b57602036600319011261021b5760043561063261264d565b5080600052600360205260016040600020015415610318576000526003602052610540604060002061070160146040519261066c8461224a565b805484526001810154602085015261068660028201612385565b6040850152610697600382016123f0565b60608501526106a8600a82016123f0565b60808501526106d560ff60118301548181166106c381612165565b60a088015260081c1660c08601612379565b601281015460e085015260ff6013820154818116151561010087015260081c16610120850152016125c4565b610140820152610714604051809261216f565bf35b3461021b57602036600319011261021b576004356000526009602052608060406000208054906001810154906003600282015491015491604051938452602084015260408301526060820152f35b3461021b57600036600319011261021b576000805160206147da833981519152546040516001600160a01b039091168152602090f35b3461021b57600036600319011261021b576020600a54604051908152f35b3461021b57604036600319011261021b576107d16124c3565b60018054602435926001600160a01b039291831633036103625783600052600360205281604060002001541561031857836000526003602052816040600020015415610318578360005260036020526040600020928260ff60118601541661083881612165565b0361095d57600384015460005260046020528080846040600020015416921680921415928361093f575b50505061092d576002015460ff8160481c1615801561091f575b61090d576001600160401b03600882901c16603c81019081106108f7574211156108e55760581c60ff1660038110156108cf57156108bd5761024990612aed565b6040516356eff76b60e01b8152600490fd5b634e487b7160e01b600052602160045260246000fd5b604051634e7fc88160e11b8152600490fd5b634e487b7160e01b600052601160045260246000fd5b604051631e86addb60e01b8152600490fd5b5060ff8160501c161561087c565b604051633093624d60e21b8152600490fd5b90919250600a84015460005260406000200154161415838080610862565b6040516314bc0c2f60e31b8152600490fd5b3461021b57600036600319011261021b57610988613d41565b6000805160206147da83398151915280546001600160a01b031981169091556000906001600160a01b031660008051602061481a8339815191528280a3005b3461021b57602036600319011261021b576004356001600160401b03811161021b5760ff610a1260206109ff8194369060040161235b565b8160405193828580945193849201612004565b8101600b81520301902054166040519015158152f35b3461021b57600036600319011261021b576020600754604051908152f35b3461021b57600036600319011261021b577f00000000000000000000000000000000000000000000000000000000000000006001600160a01b03163003610a9f5760206040516000805160206147fa8339815191528152f35b60405163703e46dd60e11b8152600490fd5b604036600319011261021b57610ac56124c3565b6024356001600160401b03811161021b573660238201121561021b57610af5903690602481600401359101612324565b906001600160a01b037f00000000000000000000000000000000000000000000000000000000000000008116308114908115610c9f575b50610a9f57610b39613d41565b6040516352d1902d60e01b8152908216916020918281600481875afa60009181610c70575b50610b7c57604051634c9c8ce360e01b815260048101859052602490fd5b9284936000805160206147fa83398151915290818103610c585750823b15610c3f5780546001600160a01b03191682179055604051907fbc7cd75a20ee27fd9adebab32041f755214dbc6bffa90cc0225b39da2e5c2d3b600080a2835115610c255750600080848461024996519101845af4903d15610c1c573d610bff81612309565b90610c0d60405192836122e6565b8152600081943d92013e6146a5565b606092506146a5565b9250505034610c3057005b63b398979f60e01b8152600490fd5b604051634c9c8ce360e01b815260048101839052602490fd5b60249060405190632a87526960e21b82526004820152fd5b9091508381813d8311610c98575b610c8881836122e6565b8101031261021b57519086610b5e565b503d610c7e565b9050816000805160206147fa8339815191525416141584610b2c565b3461021b57604036600319011261021b576004356001600160401b03811161021b57610ceb90369060040161235b565b60243560ff8116810361021b576102499133613dd0565b3461021b57606036600319011261021b57610d1b6124c3565b6001546001600160a01b03163303610362576102499060443590602435906134d6565b3461021b57602036600319011261021b576004356000526004602052604060002080549060018060a01b0360018201541690610d7c60028201612513565b60018060401b039160ff83600383015416936004830154610dc7600685015492600860078701549601541695604051998a99610120918b5260208b01528060408b0152890190612027565b956060880152608087015281811660a087015260081c16151560c085015260e08401526101008301520390f35b3461021b57602036600319011261021b57610e0d613d41565b60405142815260008051602061483a833981519152602060043592a2005b3461021b57602036600319011261021b57600435806000526003602052600160406000200154156103185780600052600360205260016040600020015415610318578060005260036020526040600020600160ff601183015416610e8e81612165565b0361095d5760038101546000908152600460205260409020600101546001600160a01b039081163314159081610f17575b5061092d576002015460ff8160481c1615801561091f5761090d576001600160401b03600882901c16603c81019081106108f7574211156108e55760581c60ff1660038110156108cf57156108bd5761024990612aed565b9050600a820154600052339060016040600020015416141583610ebf565b3461021b57600036600319011261021b576000546040516001600160a01b039091168152602090f35b3461021b57606036600319011261021b57610f776124c3565b604435602435600382101561021b576001546001600160a01b0316330361036257806000526003602052600160406000200154156103185761024992613666565b3461021b57610249610fc936612074565b90336134d6565b3461021b57604036600319011261021b57610fe96124c3565b6001546001600160a01b03163303610362576102499060243590612d99565b3461021b57600036600319011261021b5760405180600854808352602080930180916008600052846000209060005b8682821061108d57868661104d828803836122e6565b604051928392818401908285525180915260408401929160005b82811061107657505050500390f35b835185528695509381019392810192600101611067565b835485529093019260019283019201611037565b3461021b57600036600319011261021b576001546040516001600160a01b039091168152602090f35b3461021b57600036600319011261021b576020600854604051908152f35b3461021b57602036600319011261021b5760043560085481101561021b5761111160209161247a565b90546040519160031b1c8152f35b3461021b57602036600319011261021b576004356000526003602052610400604060002060ff8154916001810154906111df61115d60028301612385565b611169600384016123f0565b906111c0611179600a86016123f0565b6111b56011870154946111aa8a871695601360128b01549a01549a60206040519e8f908152015260408d0190612097565b6101208b01906120f3565b6102408901906120f3565b6111c981612165565b6103608701528461038087019160081c1661208a565b6103a084015281811615156103c084015260081c166103e0820152f35b3461021b57608036600319011261021b576004356024356003811015908161021b57604435600281101561021b576064356001600160401b03811161021b5761124990369060040161235b565b600254909390336001600160a01b039182161415908161136c575b5061135a5761127282612a5c565b600182148061134e575b6112d0575b50906112cb6000805160206148ba833981519152936112a6936040519485809561208a565b6112af81612a5c565b6020840152426040840152608060608401526080830190612027565b0390a2005b8460009392935260036020526040600020906108cf576000805160206148ba833981519152936112a6936112cb926001850361132557600201805460ff60581b1916600160591b1790555b9293509350611281565b60028514611334575b5061131b565b600201805460ff60581b1916600160581b1790558761132e565b5050600082151561127c565b604051631c307ff760e31b8152600490fd5b90506000541633141586611264565b3461021b57602036600319011261021b5760043580600052600360205260016040600020015415610318576000526003602052602060ff60116040600020015416604051906113c981612165565b8152f35b3461021b5761010036600319011261021b576004602435101561021b576001600160401b036044351161021b5736602360443501121561021b576001600160401b03600460443501351161021b573660246044356004013560051b60443501011161021b576064356001600160401b03811161021b5761145190369060040161221a565b6084356001600160401b03811161021b5761147090369060040161221a565b929060403660a319011261021b57600360e435101561021b57600435600052600360205260016040600020015415610318576002546001600160a01b031633141580611d08575b61135a576004356000526003602052604060002093600160ff6011870154166114df81612165565b0361095d57600285015460ff8116611cd4575b60ff816115cb82611507816115d59616612971565b92611513602435612165565b602435600203611cc85761152b828260601c16612971565b905b611538602435612165565b602435600303611cbb5782611551818360681c16612971565b955b60405161155f81612266565b908216808252426001600160401b038116602084015260006040840181905260608401819052608084015285841660a084015292881660c09092019190915260089190911b610100600160481b03166001600160601b0319909216171760028c01908155911690612983565b16600287016129a0565b6115e0602435612165565b602435600203611c8457604051600181526000805160206147ba833981519152602060043592a25b84549260405194610100860161161f602435612165565b6024358752426020880152610100604088015260443560040135905261012086019160246044350160005b604435600401358110611c64575050916116719161167f95949388830360608a01526129df565b9185830360808701526129df565b9260a43560ff811680910361021b5760a084015260c4359160ff831680930361021b577fd5cf60e2827f0d74d283cf833034fca22e78825b9162d20f59c47e545579966f8480602d9760029660c060ff9901526116e160e0830160e43561208a565b0390a201541610156116ef57005b600060043560005260036020526040600020602d60ff60028301541610611c5257600381015460005260046020526117396040600020600a83015460005260406000209083614551565b5060043560005260036020526040600020600381015460005260046020526040600020600a8201546000526040600020916032600282015460ff808260601c169160681c1690818111600014611c445750505060645b60058301541580611c2d575b611be1575b60058401541580611bca575b611b7e575b6004820154600b8301546001600160401b03908116911680821015611b7557818103905b61046682101561021b57808310611b67575b6019921015611b5e57610320035b04600a6001821615611b5357600a919088915b60011c90815b611b0057505050916119159161183f61183761183261183261183260209998614708565b614708565b606401614681565b906014028181109182600014611af85703905b15611a9e57600386018054916001600160401b03908116919061187783858316614620565b166001600160401b0319938416179055600385018054909290916001600160401b03906118a690828516614639565b1691161790555b60038301546113889081906001600160401b0381168211611a87575b505060038601546001600160401b0381168211611a70575b505060038301546118fe906001600160401b031660048301612d17565b60038501546001600160401b031690600b01612d17565b80546003909101546040516001600160401b03909116815260008051602061485a833981519152928391a281546003909201546040516001600160401b039091168152602090a2815b6008549081811015611a64576119738161247a565b60043591549060031b1c1461198c57600191500161195e565b60001991808301908111611a5057906119b76119aa6119d09361247a565b90549060031b1c9161247a565b90919082549060031b91821b91600019901b1916179055565b6008548015611a3c579160119160ff93016119fe6119ed8261247a565b8154906000199060031b1b19169055565b6008555b015460081c1690611a16604051809361208a565b611a1f81612a5c565b602082015260008051602061489a833981519152604060043592a2005b634e487b7160e01b84526031600452602484fd5b634e487b7160e01b85526011600452602485fd5b5050601160ff91611a02565b6001600160401b03191617600386015587806118e1565b6001600160401b03191617600385015580896118c9565b600384018054916001600160401b039081169190611abe83858316614620565b166001600160401b0319938416179055600387018054909290916001600160401b0390611aed90828516614639565b1691161790556118ad565b900390611852565b8060801c611b4f57800291611b4b578160018216611b25575b5060011c88918161180e565b9092809950818082020403611b40575b600098029189611b19565b8015611b3557600080fd5b8880fd5b8280fd5b600191908891611808565b610320016117f5565b61032082106117e757600080fd5b808203906117d5565b6003840180546127106001600160401b03199182168117909255600b840180549092919060646001600160401b03821614611bbd575b505050506117b1565b1617905586808080611bb4565b5060038401546001600160401b03166064146117ac565b6003830180546127106001600160401b031991821681179092556004840180549092919060646001600160401b03821614611c20575b505050506117a0565b1617905586808080611c17565b5060038301546001600160401b031660641461179b565b101561178f5750600061178f565b604051636ff6cfe560e01b8152600490fd5b909360208060019260ff611c77896125b6565b168152019501910161164a565b611c8f602435612165565b60036024350361160857604051600281526000805160206147ba833981519152602060043592a2611608565b82808260681c1695611553565b818160601c169061152d565b60ff8160481c16158015611cfa575b156114f257604051631e86addb60e01b8152600490fd5b5060ff8160501c1615611ce3565b506000546001600160a01b03163314156114b7565b3461021b57611d2b36612074565b908060005260209160046020526040600020541561031857611d4c91612753565b604051906020820160208352815180915260206040840192019360005b828110611d765784840385f35b9091928261054082611d8b6001948a5161216f565b01960191019492919094611d69565b3461021b57602036600319011261021b5760043590611db88161224a565b6000815260006020820152606060408201526000606082015260006080820152606060a0820152600060c0820152600060e08201526000610100820152600061012082015261014060405191611e0d836122ca565b81368437015280600052600460205260406000205415610318576000526004602052604060002060405190611e418261224a565b8054825260018101546001600160a01b03166020830152611e6460028201612513565b604083015260018060401b036003820154166060830152600481015460808301526005810160405190816020825491828152019160005260206000209060005b818110611fee5786611f0360098888611ebf818a03826122e6565b60a0850152600681015460ff81811660c0870152600891821c16151560e086015260078201546101008601528101546001600160401b0316610120850152016125c4565b6101408201526040805160208082528351818301528301516001600160a01b031681830152908201516102806060830152611f43906102a0830190612027565b60018060401b036060840151166080830152608083015160a083015260a083015190601f198382030160c08401526020808351928381520192019060005b818110611fd8575050506105d36101408460ff60c0869701511660e086015260e0810151151561010086015261010081015161012086015260018060401b036101208201511682860152015161016084019061204c565b8251845260209384019390920191600101611f81565b8254845260209093019260019283019201611ea4565b60005b8381106120175750506000910152565b8181015183820152602001612007565b9060209161204081518092818552858086019101612004565b601f01601f1916010190565b6000915b600a831061205d57505050565b600190825181526020809101920192019190612050565b604090600319011261021b576004359060243590565b9060038210156108cf5752565b60ff60c0809282815116855260018060401b0360208201511660208601526040810151151560408601526060810151151560608601526120df6080820151608087019061208a565b8260a08201511660a0860152015116910152565b805182526020808201516001600160401b03908116828501526040808401519091169084015260608201519093926001929091838110156108cf57606083015260809081015160009590929091015b6005861061215257505050509050565b8251815294830194918101918101612142565b600411156108cf57565b9061040061014061221893805184526020810151602085015261219a60408201516040860190612097565b60ff60608201516121b161012091828801906120f3565b6121c460808401516102408801906120f3565b60a08301516121d281612165565b6103608701526121eb60c084015161038088019061208a565b60e08301516103a087015261010083015115156103c0870152820151166103e0850152015191019061204c565b565b9181601f8401121561021b578235916001600160401b03831161021b5760208085019460c0850201011161021b57565b61016081019081106001600160401b038211176105d757604052565b60e081019081106001600160401b038211176105d757604052565b608081019081106001600160401b038211176105d757604052565b60a081019081106001600160401b038211176105d757604052565b6001600160401b0381116105d757604052565b61014081019081106001600160401b038211176105d757604052565b601f909101601f19168101906001600160401b038211908210176105d757604052565b6001600160401b0381116105d757601f01601f191660200190565b92919261233082612309565b9161233e60405193846122e6565b82948184528183011161021b578281602093846000960137010152565b9080601f8301121561021b5781602061237693359101612324565b90565b60038210156108cf5752565b9060405161239281612266565b60c081935460ff90818116845260018060401b038160081c166020850152818160481c1615156040850152818160501c16151560608501526123dc828260581c1660808601612379565b818160601c1660a085015260681c16910152565b90604051916123fe8361229c565b82815481526001808301549260ff60018060401b039460209580821660208701528160401c16604086015260801c1660018110156108cf57606084015260405193600290910190600090855b600583106124675750505050506080906124638361229c565b0152565b835481529284019291840191810161244a565b60085481101561249557600860005260206000200190600090565b634e487b7160e01b600052603260045260246000fd5b80548210156124955760005260206000200190600090565b600435906001600160a01b038216820361021b57565b90600182811c92168015612509575b60208310146124f357565b634e487b7160e01b600052602260045260246000fd5b91607f16916124e8565b90604051918260008254612526816124d9565b908184526020946001916001811690816000146125945750600114612555575b505050612218925003836122e6565b600090815285812095935091905b81831061257c5750506122189350820101388080612546565b85548884018501529485019487945091830191612563565b9250505061221894925060ff191682840152151560051b820101388080612546565b359060ff8216820361021b57565b60405191906000835b600a82106125e157505050612218826122ca565b60016020819285548152019301910190916125cd565b6001600160401b0381116105d75760051b60200190565b6040519061261b8261229c565b81600081526000602082015260006040820152600060608201526080604051916126448361229c565b60a03684370152565b6040519061265a8261224a565b81600080825280602083015260405161267281612266565b8181528160208201528160408201528160608201528160808201528160a08201528160c082015260408301526126a661260e565b60608301526126b361260e565b60808301528060a08301528060c08301528060e083015280610100830152610120820152610140604051916126e7836122ca565b813684370152565b906126f9826125f7565b61270660405191826122e6565b8281528092612717601f19916125f7565b019060005b82811061272857505050565b60209061273361264d565b8282850101520161271c565b80518210156124955760209160051b010190565b9060009182526004906020600481526040600581862001948554801561293957808510156128a157612784856126ef565b96825b86811061279957505050505050505090565b86830383811161288e5781810180911161288e57906127ba600192846124ab565b9054600391821b1c865280885261286c60148888206128018a51946127de8661224a565b82548652878301548d8701526127f660028401612385565b8c87015282016123f0565b6060850152612812600a82016123f0565b6080850152601181015460ff9081811661282b81612165565b60a087015261284382600892831c1660c08801612379565b601283015460e087015260138301549082821615156101008801521c16610120850152016125c4565b61014082015261287c828c61273f565b52612887818b61273f565b5001612787565b634e487b7160e01b855260118952602485fd5b9450919250906128b0846126ef565b94815b8581106128c35750505050505090565b806128d0600192846124ab565b9054600391821b1c855280875261291760148787206128018951946128f48661224a565b82548652878301548c87015261290c60028401612385565b8b87015282016123f0565b610140820152612927828a61273f565b52612932818961273f565b50016128b3565b5081519550935090840191506001600160401b0382118483101761295d5752815290565b634e487b7160e01b83526041600452602483fd5b60ff60019116019060ff82116108f757565b805460ff60601b191660609290921b60ff60601b16919091179055565b805460ff60681b191660689290921b60ff60681b16919091179055565b60ff6129d960208093836129d0826125b6565b168652016125b6565b16910152565b91818152602080910192916000916000905b828210612a0057505050505090565b909192939485358152818601356004811015612a58579081612a23600193612165565b83820152612a3760408083019089016129bd565b612a4760808083019089016129bd565b60c0908101960194939201906129f1565b8580fd5b600211156108cf57565b60405190612a7382612281565b60006060838281528260208201528260408201520152565b6001600160a01b03908116908115612ad4576000805160206147da83398151915280546001600160a01b0319811684179091551660008051602061481a833981519152600080a3565b604051631e4fbdf760e01b815260006004820152602490fd5b9060009180835260039283602052604081208481015482526004806020526040832092600a83015481526040812091601191601185019460ff86541694612b3386612165565b6001809603611b4f579060029160068060089a8b810180549060018060401b039081612b60818516614539565b166001600160401b03199384161790558d8601805490929091612b84818416614539565b169116179055019161ff00199283815416905501908154169055019889549960ff8b60581c169a8260ff19895416178855828c1015612cf45760018798999a9b9c14600014612cdf5750805461ffff60601b1916600360601b1790555b81955b612c1e575b50505050505060ff60008051602061489a8339815191529260409254901c16612c148251809261208a565b60016020820152a2565b875480871015612cd95789612c328861247a565b905490841b1c14612c4857508480960195612be4565b9091939592945060001995868201918211612cc85750612c7a9291612c6f6119b79261247a565b9054911b1c9161247a565b8454918215612cb55750509260409260ff9260008051602061489a8339815191529501612ca96119ed8261247a565b82559281943880612be9565b634e487b7160e01b825260319052602490fd5b634e487b7160e01b85528552602484fd5b50612be9565b61ffff60601b1916600360681b179055612be1565b634e487b7160e01b84526021600452602484fd5b60001981146108f75760010190565b8054600160401b600160801b03191660409290921b600160401b600160801b0316919091179055565b818110612d4b575050565b60008155600101612d40565b9060038110156108cf5761ff0082549160081b169061ff001916179055565b80549190600160401b8310156105d757826119b7916001612218950181556124ab565b600090828252600960205260036040832001541561031857828252600960205260026040832001548252600460205260018060a01b038060016040852001541691160361092d57818152600960205260016040822001548152600460205260ff600660408320015460081c166134ae57818152600960205260026040822001548152600460205260ff600660408320015460081c166134ae5781815260096020526002604082200154815260046020526007604082200154613429575b8181526009602052604081209260026001850154940154612e78600654612d08565b60068190558584526004602052604080852060039081015484875291862001546001600160401b0390811693929116612eaf61264d565b50604051612ebc8161229c565b86815286602082015286604082015286606082015286608082015260405191612ee48361229c565b89835260208301528660408301528660608301526080820152604051612f098161229c565b86815286602082015286604082015286606082015286608082015260405194612f318661229c565b8486526020860152866040860152866060860152608085015260405193612f5785612266565b8685528660208601528660408601528660608601528660808601528660a08601528660c0860152604051918261014081011060018060401b03610140850111176105d75761014083016040528783528760208401528760408401528760608401528760808401528760a08401528760c08401528760e0840152876101008401528761012084015260405195612feb8761224a565b848752426020880152604087015260608601526080850152600160a08501528560c08501528560e08501528561010085015260016101208501526101408401528452600360205260408420958251875560208301516001880155604083015160ff815116600289015490610100600160481b03602084015160081b1660ff60481b6040850151151560481b169060ff60501b6060860151151560501b169260808601516003811015613415576001600160601b03199095161717171760589190911b60ff60581b16176002890190815560a08201516130e39260ff9260c0926130d79190851690612983565b015116600289016129a0565b60608301518051600389015560208101516004890180546001600160401b0319166001600160401b039283161781556040830151613122921690612d17565b606081015160018110156134015760048901805460ff60801b1916608092831b60ff60801b16179055015194805b600581101561317057600190602088519801976005828c01015501613150565b5060808401518051600a8a01556020810151600b8a0180546001600160401b0319166001600160401b039283161781556040830151979a9699959850939692959391926131bf92911690612d17565b606081015160018110156133ed57600b8301805460ff60801b1916608092831b60ff60801b161790550151835b600581106133d657505060a086015161320481612165565b61320d81612165565b60ff8019601184015416911617601182015560c08601516003811015612cf45761323a9060118301612d57565b60e08601516012820155601381016101008701511515815460ff61ff006101208b015160081b1692169061ffff191617179055610140860151835b600a81106133bf5750505073__$18826597157b5485acfb86513cd242e4d3$__90813b15611b4f578290606460405180948193636c2a23bf60e01b8352600960048401526004602484015260448301525af480156133b45761339d575b506005604082846133309452600460205260068282200161ff001990610100828254161790558682526101006006848420019182541617905584815261331e8383832001885190612d76565b85815260046020522001845190612d76565b825160085490600160401b8210156105d7576119b7826001613355940160085561247a565b82517f94b80033a8327ab5e699285e343e5f1027e2299b685ec5836a08f3a8faacbd59602060405160018152a45160008051602061483a8339815191526020604051428152a2565b6133a782916122b7565b6133b157386132d2565b80fd5b6040513d84823e3d90fd5b600190602083519301926014828601015501613275565b60019060208351930192600c8286010155016131ec565b634e487b7160e01b85526021600452602485fd5b634e487b7160e01b87526021600452602487fd5b634e487b7160e01b8c52602160045260248cfd5b73__$18826597157b5485acfb86513cd242e4d3$__82825260096020526002604083200154825260046020526007604083200154813b15611b4f578290606460405180948193636c2a23bf60e01b8352600960048401526004602484015260448301525af480156133b45761349f575b50612e56565b6134a8906122b7565b38613499565b604051635e003ea960e01b8152600490fd5b6040919493926060820195825260208201520152565b92919260009382855260049460209086825260409384822054156136495783825287835284822054156136495785825287835284822054848352858320541461363957858252878352848220600101546001600160a01b03908116908216036136295783825287835260ff6006868420015460081c166136195796600785837f1cce6a28f1564d6cb3044145a4ccc8873cf34f87429af3289490527d7c0437e6999a896136049897965284865283838320015480613609575b505061359c600a54612d08565b9384600a556135a9612a66565b508251956135b687612281565b858752808701958b87526003858901918a835260608a0190428252865260098452868620928a51998a8555516001850155516002840155519101558a835252200155519251938493846134c0565b0390a1565b613612916143cc565b388061358f565b8451635e003ea960e01b81528890fd5b8451633093624d60e21b81528890fd5b8451634de6470960e01b81528890fd5b845163b0ce759160e01b81528890fd5b5190811515820361021b57565b919091826000526003602052604060002090600160ff60118401541661368b81612165565b0361095d5760038310156108cf578215613d2f57600183148080613d1e575b613cfb5760028414908180613d0d575b613cfb5715613cbe575060038201546000908152600460205260409020600101546001600160a01b0390811691160361092d576002905b0190602d60ff83541610156137b5576137219060405192631925cf4b60e21b84526004840152602483019061208a565b60208160448173__$18826597157b5485acfb86513cd242e4d3$__5af49081156137a95760009161376f575b506137555750565b60008051602061483a8339815191526020604051428152a2565b90506020813d6020116137a1575b8161378a602093836122e6565b8101031261021b5761379b90613659565b3861374d565b3d915061377d565b6040513d6000823e3d90fd5b5050600090806000526003602052604060002091602d60ff60028501541610611c5257600383015460005260046020526138016040600020600a85015460005260406000209085614551565b508160005260036020526040600020600381015460005260046020526040600020600a8201546000526040600020916032600282015460ff808260601c169160681c1690818111600014613cb05750505060645b60058301541580613c99575b613c4d575b60058401541580613c36575b613bea575b6004820154600b8301546001600160401b039182169116818110918215613be357035b61046681101561021b5781613bd5575b60199115613bcc57610320035b04600a6001821615613bc457600a915b60011c90815b613b75575050916139ae916138f061183761183261183261183260209998614708565b906014028181109182600014613b6d5703905b15613b1357600386018054916001600160401b03908116919061392883858316614620565b166001600160401b0319938416179055600385018054909290916001600160401b039061395790828516614639565b1691161790555b60038301546113889081906001600160401b0381168211613afc575b505060038601546001600160401b0381168211613ae557505060038301546118fe906001600160401b031660048301612d17565b80546003909101546040516001600160401b03909116815260008051602061485a833981519152928391a281546003909201546040516001600160401b039091168152602090a2805b6008805480831015613ac55784613a0d8461247a565b90549060031b1c14613a235750506001016139f7565b93949293909160001991828101908111613ab157906119b76119aa613a479361247a565b81548015613a9d5760409360008051602061489a833981519152959360ff936011930190613a776119ed8361247a565b555b015460081c1690613a8c8351809361208a565b613a9581612a5c565b6020820152a2565b634e487b7160e01b85526031600452602485fd5b634e487b7160e01b86526011600452602486fd5b50505060409060ff601160008051602061489a8339815191529495613a79565b6001600160401b03191617600386015538806118e1565b6001600160401b031916176003850155803861397a565b600384018054916001600160401b039081169190613b3383858316614620565b166001600160401b0319938416179055600387018054909290916001600160401b0390613b6290828516614639565b16911617905561395e565b900390613903565b8060801c613bc05780029087613bc0578160018216613b9a575b5060011c90816138cd565b9092809850818082020403613bb5575b600097029138613b8f565b8015613baa57600080fd5b8780fd5b6001916138c7565b610320016138b7565b61032081106138aa57600080fd5b900361389a565b6003840180546127106001600160401b03199182168117909255600b840180549092919060646001600160401b03821614613c29575b50505050613877565b1617905538808080613c20565b5060038401546001600160401b0316606414613872565b6003830180546127106001600160401b031991821681179092556004840180549092919060646001600160401b03821614613c8c575b50505050613866565b1617905538808080613c83565b5060038301546001600160401b0316606414613861565b101561385557506000613855565b613ccc575b506002906136f1565b600a8201546000908152600460205260409020600101546001600160a01b0390811691160361092d5738613cc3565b604051635ce6d95760e11b8152600490fd5b5060ff600285015460501c166136ba565b5060ff600284015460481c166136aa565b604051636f6fc75f60e11b8152600490fd5b6000805160206147da833981519152546001600160a01b03163303613d6257565b60405163118cdaa760e01b8152336004820152602490fd5b81601f8201121561021b578051613d9081612309565b92613d9e60405194856122e6565b8184526020828401011161021b576123769160208085019101612004565b51906001600160401b038216820361021b57565b9060018060a01b0380831660005260056020526040600020546143ba578151156143a857613e3291600073__$18826597157b5485acfb86513cd242e4d3$__9160405180958192630fb93a7160e21b8352602060048401526024830190612027565b0381845af49283156137a957600093614368575b5060ff6040516020818651613e5e8183858b01612004565b8101600b8152030190205416614356576000613e7b600754612d08565b80600755604051928391631d029a8d60e01b83526004830152848716602483015260a060448301528180613eb260a4820189612027565b60ff8b16606483015242608483015203915af49081156137a9576000916141bc575b5080516000526004602052604060002081518155600181018360208401511660018060a01b031982541617905560028101604083015180519060018060401b0382116105d7578190613f2684546124d9565b601f811161417f575b50602090601f83116001146141195760009261410e575b50508160011b916000199060031b1c19161790555b60608201516003820180546001600160401b0319166001600160401b039283161790556080830151600483015560a083015180519182116105d757600160401b82116105d75760209060058401548360058601558084106140ee575b500160058301600052602060002060005b8381106140da57505050506006810160ff60c08401511681549061ff0060e0860151151560081b169161ffff19161717905561010082015160078201556008810160018060401b036101208401511660018060401b031982541617905561014082015160005b600a81106140c357505050916140b5917f1599aa311a61861ca44d28454c9e07d6e99428d1fcd90906d4eb6c322d7c52a29360405160208185516140758183858a01612004565b8101600b815203019020600160ff1982541617905580518287166000526005602052604060002055519460ff604051948594604086526040860190612027565b9716602084015216940390a3565b60019060208351930192600982860101550161402e565b600190602084519401938184015501613fc8565b614108906005860160005284846000209182019101612d40565b38613fb7565b015190503880613f46565b6000858152602081209350601f198516905b818110614167575090846001959493921061414e575b505050811b019055613f5b565b015160001960f88460031b161c19169055388080614141565b9293602060018192878601518155019501930161412b565b6141ac90856000526020600020601f850160051c810191602086106141b2575b601f0160051c0190612d40565b38613f2f565b909150819061419f565b90503d806000833e6141ce81836122e6565b810160208282031261021b5781516001600160401b039283821161021b57019061028090818382031261021b57604051936142088561224a565b835185526020840151868116810361021b576020860152604084015181811161021b5782614237918601613d7a565b604086015261424860608501613dbc565b60608601526080840151608086015260a084015190811161021b57830181601f8201121561021b5780519061427c826125f7565b9161428a60405193846122e6565b80835260208084019160051b8301019184831161021b57602001905b8282106143465750505060a085015260c083015160ff8116810361021b5760c08501526142d560e08401613659565b60e085015261010080840151908501526101206142f3818501613dbc565b90850152610140918161015f8501121561021b5760405193614314856122ca565b8491810192831161021b578301905b8282106143365750505082015238613ed4565b8151815260209182019101614323565b81518152602091820191016142a6565b604051634749bdef60e11b8152600490fd5b9092503d806000833e61437b81836122e6565b810160208282031261021b5781516001600160401b03811161021b576143a19201613d7a565b9138613e46565b60405163d9f415a960e01b8152600490fd5b60405163f2d8e7a360e01b8152600490fd5b9190918215610318576000928084526009602052604060038186200154156145295781855260096020526001818620015485526004928360205260018060a01b0380600184892001541691160361451a57818552600960205260038186200154603c8101809111614507574211156144f857818552600960205280852092600260018501549401549573__$18826597157b5485acfb86513cd242e4d3$__91823b156144f45781906064855180958193636c2a23bf60e01b835260098184015260248301528860448301525af49081156144e95750917f773e15a265d8549eebc3e80bafb0e2cbeba28c5d2b2a081e31c34554c7d0507d959691613604936144da575b5051938493846134c0565b6144e3906122b7565b386144cf565b8351903d90823e3d90fd5b5080fd5b516343dcbe9f60e01b81529050fd5b634e487b7160e01b865260118452602486fd5b51633093624d60e21b81529050fd5b5163b0ce759160e01b8152600490fd5b6001600160401b039081169081146108f75760010190565b6011810192600160ff85541661456681612165565b0361021b576008830180546002946006928392906001600160401b03908161458f818516614539565b166001600160401b0319938416179055600886018054909290916145b4818416614539565b169116179055019161ff00199283815416905501908154169055015460ff808260601c169160681c1690818111600014614602575050612376600180925b805460ff19166002178155612d57565b101561461457612376600280926145f2565b612376600080926145f2565b6001600160401b0391821690821601919082116108f757565b6001600160401b0391821690821603919082116108f757565b60ff60008051602061487a8339815191525460401c161561466f57565b604051631afcd79f60e31b8152600490fd5b801561468f5762030d400490565b634e487b7160e01b600052601260045260246000fd5b906146cc57508051156146ba57602081519101fd5b60405163d6bda27560e01b8152600490fd5b815115806146ff575b6146dd575090565b604051639996b31560e01b81526001600160a01b039091166004820152602490fd5b50803b156146d5565b60b581600160881b8110156147a7575b6201000090600160481b81101561479a575b600160281b81101561478d575b6301000000811015614780575b010260121c60019080830401811c80830401811c80830401811c80830401811c80830401811c80830401811c80830401901c8080920410900390565b60101c9160081b91614744565b60201c9160101b91614737565b60401c9160201b9161472a565b5060b560401b9050608082901c61471856fe579c31d7f947df31adb29f8688c651ffa98030b83bb0d87632c86357f13afafd9016d09d72d40fdae2fd8ceac6b6234c7706214fd39c1cd1e609a0528c199300360894a13ba1a3210667c828492db98dca3e2076cc3735a920a3ca505d382bbc8be0079c531659141344cd1fd0a4f28419497f9722a3daafe3b4186f6b6457e0d6ad8b09cb4bf385f0569c05c242d45e491f752df651aae6a2db9ff589bd9fae45f86bffb6b3e2b2928d4ebc3190e6bca236b43076a1adbf5d2366c8ee1ca5e3f0c57e16840df040f15088dc2f81fe391c3923bec73e23a9662efc9c229c6a004019f194fe4a757f9f1441d256eeb40c3f12e80f9da6188b5ad1a5fcda7217d740f6909351d16bebd2bb97c72ea15dc2508f321a25ba4ff1df4c330cced53820a2646970667358221220cbdc71faace798c621a57ec8b2fadbeb6b4bc859895b165d063f955485084fc364736f6c63430008180033",
  "linkReferences": {
    "contracts/GameLib.sol": {
      "GameLib": [
        {
          "length": 20,
          "start": 13145
        },
        {
          "length": 20,
          "start": 13570
        },
        {
          "length": 20,
          "start": 14336
        },
        {
          "length": 20,
          "start": 16083
        },
        {
          "length": 20,
          "start": 17710
        }
      ]
    }
  },
  "deployedLinkReferences": {
    "contracts/GameLib.sol": {
      "GameLib": [
        {
          "length": 20,
          "start": 12930
        },
        {
          "length": 20,
          "start": 13355
        },
        {
          "length": 20,
          "start": 14121
        },
        {
          "length": 20,
          "start": 15868
        },
        {
          "length": 20,
          "start": 17495
        }
      ]
    }
  }
}