{
  "_format": "hh-sol-artifact-1",
  "contractName": "ChessBallGame",
  "sourceName": "contracts/Game.sol",
  "abi": [
    {
      "inputs": [],
      "stateMutability": "nonpayable",
      "type": "constructor"
    },
    {
      "inputs": [],
      "name": "ActionsNotCommitted",
      "type": "error"
    },
    {
      "inputs": [
        {
          "internalType": "address",
          "name": "target",
          "type": "address"
        }
      ],
      "name": "AddressEmptyCode",
      "type": "error"
    },
    {
      "inputs": [],
      "name": "ChangeTeamName_NotTeamOwner",
      "type": "error"
    },
    {
      "inputs": [],
      "name": "ChangeTeamName_SameNameProvided",
      "type": "error"
    },
    {
      "inputs": [],
      "name": "CreateTeam_NameIsRequired",
      "type": "error"
    },
    {
      "inputs": [],
      "name": "CreateTeam_TeamAlreadyExists",
      "type": "error"
    },
    {
      "inputs": [],
      "name": "CreateTeam_TeamNameAlreadyExists",
      "type": "error"
    },
    {
      "inputs": [],
      "name": "DoesNotExist",
      "type": "error"
    },
    {
      "inputs": [
        {
          "internalType": "address",
          "name": "implementation",
          "type": "address"
        }
      ],
      "name": "ERC1967InvalidImplementation",
      "type": "error"
    },
    {
      "inputs": [],
      "name": "ERC1967NonPayable",
      "type": "error"
    },
    {
      "inputs": [],
      "name": "FailedCall",
      "type": "error"
    },
    {
      "inputs": [],
      "name": "FinishGameByTimeout_NoLastMove",
      "type": "error"
    },
    {
      "inputs": [],
      "name": "GameHasNotReachedMaxMoves",
      "type": "error"
    },
    {
      "inputs": [],
      "name": "GameIsNotActive",
      "type": "error"
    },
    {
      "inputs": [],
      "name": "GameOwnerShouldCall",
      "type": "error"
    },
    {
      "inputs": [],
      "name": "GameRequestNotExpired",
      "type": "error"
    },
    {
      "inputs": [],
      "name": "GameRequestTimeoutNotReached",
      "type": "error"
    },
    {
      "inputs": [],
      "name": "InitAddressCannotBeZero",
      "type": "error"
    },
    {
      "inputs": [
        {
          "internalType": "uint8",
          "name": "goals",
          "type": "uint8"
        }
      ],
      "name": "InvalidGoals",
      "type": "error"
    },
    {
      "inputs": [],
      "name": "InvalidInitialization",
      "type": "error"
    },
    {
      "inputs": [
        {
          "internalType": "uint256",
          "name": "score",
          "type": "uint256"
        }
      ],
      "name": "InvalidScore",
      "type": "error"
    },
    {
      "inputs": [],
      "name": "InvalidTeam",
      "type": "error"
    },
    {
      "inputs": [],
      "name": "MovesAlreadyCommitted",
      "type": "error"
    },
    {
      "inputs": [],
      "name": "MovesEncryptedCannotBeZero",
      "type": "error"
    },
    {
      "inputs": [],
      "name": "NotInitializing",
      "type": "error"
    },
    {
      "inputs": [],
      "name": "OnlyGameEngineServerCanCall",
      "type": "error"
    },
    {
      "inputs": [],
      "name": "OnlyRelayerCanCall",
      "type": "error"
    },
    {
      "inputs": [
        {
          "internalType": "address",
          "name": "owner",
          "type": "address"
        }
      ],
      "name": "OwnableInvalidOwner",
      "type": "error"
    },
    {
      "inputs": [
        {
          "internalType": "address",
          "name": "account",
          "type": "address"
        }
      ],
      "name": "OwnableUnauthorizedAccount",
      "type": "error"
    },
    {
      "inputs": [],
      "name": "TeamAlreadyHasActiveGame",
      "type": "error"
    },
    {
      "inputs": [],
      "name": "TeamsCannotBeSame",
      "type": "error"
    },
    {
      "inputs": [],
      "name": "UUPSUnauthorizedCallContext",
      "type": "error"
    },
    {
      "inputs": [
        {
          "internalType": "bytes32",
          "name": "slot",
          "type": "bytes32"
        }
      ],
      "name": "UUPSUnsupportedProxiableUUID",
      "type": "error"
    },
    {
      "inputs": [],
      "name": "WrongMoveNumber",
      "type": "error"
    },
    {
      "anonymous": false,
      "inputs": [
        {
          "indexed": true,
          "internalType": "uint256",
          "name": "teamId",
          "type": "uint256"
        },
        {
          "indexed": false,
          "internalType": "uint256",
          "name": "gameId",
          "type": "uint256"
        },
        {
          "indexed": false,
          "internalType": "uint64",
          "name": "eloRating",
          "type": "uint64"
        }
      ],
      "name": "EloUpdated",
      "type": "event"
    },
    {
      "anonymous": false,
      "inputs": [
        {
          "indexed": true,
          "internalType": "uint256",
          "name": "gameId",
          "type": "uint256"
        },
        {
          "indexed": false,
          "internalType": "enum GameLib.TeamEnum",
          "name": "winner",
          "type": "uint8"
        },
        {
          "indexed": false,
          "internalType": "enum GameLib.FinishReason",
          "name": "finishReason",
          "type": "uint8"
        }
      ],
      "name": "GameFinished",
      "type": "event"
    },
    {
      "anonymous": false,
      "inputs": [
        {
          "indexed": false,
          "internalType": "uint256",
          "name": "gameRequestId",
          "type": "uint256"
        },
        {
          "indexed": false,
          "internalType": "uint256",
          "name": "team1id",
          "type": "uint256"
        },
        {
          "indexed": false,
          "internalType": "uint256",
          "name": "team2id",
          "type": "uint256"
        }
      ],
      "name": "GameRequestCancelled",
      "type": "event"
    },
    {
      "anonymous": false,
      "inputs": [
        {
          "indexed": false,
          "internalType": "uint256",
          "name": "gameRequestId",
          "type": "uint256"
        },
        {
          "indexed": false,
          "internalType": "uint256",
          "name": "team1id",
          "type": "uint256"
        },
        {
          "indexed": false,
          "internalType": "uint256",
          "name": "team2id",
          "type": "uint256"
        }
      ],
      "name": "GameRequestCreated",
      "type": "event"
    },
    {
      "anonymous": false,
      "inputs": [
        {
          "indexed": true,
          "internalType": "uint256",
          "name": "gameId",
          "type": "uint256"
        },
        {
          "indexed": true,
          "internalType": "uint256",
          "name": "team1id",
          "type": "uint256"
        },
        {
          "indexed": true,
          "internalType": "uint256",
          "name": "team2id",
          "type": "uint256"
        },
        {
          "indexed": false,
          "internalType": "enum GameLib.TeamEnum",
          "name": "teamWithBall",
          "type": "uint8"
        }
      ],
      "name": "GameStarted",
      "type": "event"
    },
    {
      "anonymous": false,
      "inputs": [
        {
          "indexed": true,
          "internalType": "uint256",
          "name": "gameId",
          "type": "uint256"
        },
        {
          "indexed": false,
          "internalType": "enum GameLib.TeamEnum",
          "name": "cauzedByTeam",
          "type": "uint8"
        },
        {
          "indexed": false,
          "internalType": "enum ChessBallGame.ErrorType",
          "name": "errorType",
          "type": "uint8"
        },
        {
          "indexed": false,
          "internalType": "uint256",
          "name": "time",
          "type": "uint256"
        },
        {
          "indexed": false,
          "internalType": "string",
          "name": "errorMsg",
          "type": "string"
        }
      ],
      "name": "GameStateError",
      "type": "event"
    },
    {
      "anonymous": false,
      "inputs": [
        {
          "indexed": true,
          "internalType": "uint256",
          "name": "gameId",
          "type": "uint256"
        },
        {
          "indexed": false,
          "internalType": "enum GameLib.TeamEnum",
          "name": "scoringTeam",
          "type": "uint8"
        }
      ],
      "name": "GoalScored",
      "type": "event"
    },
    {
      "anonymous": false,
      "inputs": [
        {
          "indexed": false,
          "internalType": "uint64",
          "name": "version",
          "type": "uint64"
        }
      ],
      "name": "Initialized",
      "type": "event"
    },
    {
      "anonymous": false,
      "inputs": [
        {
          "indexed": true,
          "internalType": "uint256",
          "name": "gameId",
          "type": "uint256"
        },
        {
          "indexed": false,
          "internalType": "enum GameLib.StateType",
          "name": "stateType",
          "type": "uint8"
        },
        {
          "indexed": false,
          "internalType": "uint256",
          "name": "time",
          "type": "uint256"
        },
        {
          "indexed": false,
          "internalType": "uint8[]",
          "name": "clashRandomNumbers",
          "type": "uint8[]"
        },
        {
          "components": [
            {
              "internalType": "uint256",
              "name": "playerId",
              "type": "uint256"
            },
            {
              "internalType": "enum GameLib.MoveType",
              "name": "moveType",
              "type": "uint8"
            },
            {
              "components": [
                {
                  "internalType": "uint8",
                  "name": "x",
                  "type": "uint8"
                },
                {
                  "internalType": "uint8",
                  "name": "y",
                  "type": "uint8"
                }
              ],
              "internalType": "struct GameLib.Position",
              "name": "oldPosition",
              "type": "tuple"
            },
            {
              "components": [
                {
                  "internalType": "uint8",
                  "name": "x",
                  "type": "uint8"
                },
                {
                  "internalType": "uint8",
                  "name": "y",
                  "type": "uint8"
                }
              ],
              "internalType": "struct GameLib.Position",
              "name": "newPosition",
              "type": "tuple"
            }
          ],
          "indexed": false,
          "internalType": "struct GameLib.GameAction[]",
          "name": "team1Actions",
          "type": "tuple[]"
        },
        {
          "components": [
            {
              "internalType": "uint256",
              "name": "playerId",
              "type": "uint256"
            },
            {
              "internalType": "enum GameLib.MoveType",
              "name": "moveType",
              "type": "uint8"
            },
            {
              "components": [
                {
                  "internalType": "uint8",
                  "name": "x",
                  "type": "uint8"
                },
                {
                  "internalType": "uint8",
                  "name": "y",
                  "type": "uint8"
                }
              ],
              "internalType": "struct GameLib.Position",
              "name": "oldPosition",
              "type": "tuple"
            },
            {
              "components": [
                {
                  "internalType": "uint8",
                  "name": "x",
                  "type": "uint8"
                },
                {
                  "internalType": "uint8",
                  "name": "y",
                  "type": "uint8"
                }
              ],
              "internalType": "struct GameLib.Position",
              "name": "newPosition",
              "type": "tuple"
            }
          ],
          "indexed": false,
          "internalType": "struct GameLib.GameAction[]",
          "name": "team2Actions",
          "type": "tuple[]"
        },
        {
          "components": [
            {
              "components": [
                {
                  "internalType": "uint8",
                  "name": "x",
                  "type": "uint8"
                },
                {
                  "internalType": "uint8",
                  "name": "y",
                  "type": "uint8"
                }
              ],
              "internalType": "struct GameLib.Position[6]",
              "name": "team1PlayerPositions",
              "type": "tuple[6]"
            },
            {
              "components": [
                {
                  "internalType": "uint8",
                  "name": "x",
                  "type": "uint8"
                },
                {
                  "internalType": "uint8",
                  "name": "y",
                  "type": "uint8"
                }
              ],
              "internalType": "struct GameLib.Position[6]",
              "name": "team2PlayerPositions",
              "type": "tuple[6]"
            },
            {
              "components": [
                {
                  "internalType": "uint8",
                  "name": "x",
                  "type": "uint8"
                },
                {
                  "internalType": "uint8",
                  "name": "y",
                  "type": "uint8"
                }
              ],
              "internalType": "struct GameLib.Position",
              "name": "ballPosition",
              "type": "tuple"
            },
            {
              "internalType": "enum GameLib.TeamEnum",
              "name": "ballOwner",
              "type": "uint8"
            }
          ],
          "indexed": false,
          "internalType": "struct GameLib.BoardState",
          "name": "boardState",
          "type": "tuple"
        }
      ],
      "name": "NewGameState",
      "type": "event"
    },
    {
      "anonymous": false,
      "inputs": [
        {
          "indexed": true,
          "internalType": "address",
          "name": "previousOwner",
          "type": "address"
        },
        {
          "indexed": true,
          "internalType": "address",
          "name": "newOwner",
          "type": "address"
        }
      ],
      "name": "OwnershipTransferred",
      "type": "event"
    },
    {
      "anonymous": false,
      "inputs": [
        {
          "indexed": true,
          "internalType": "uint256",
          "name": "teamId",
          "type": "uint256"
        },
        {
          "indexed": true,
          "internalType": "address",
          "name": "owner",
          "type": "address"
        },
        {
          "indexed": false,
          "internalType": "string",
          "name": "name",
          "type": "string"
        },
        {
          "indexed": false,
          "internalType": "uint8",
          "name": "country",
          "type": "uint8"
        }
      ],
      "name": "TeamCreated",
      "type": "event"
    },
    {
      "anonymous": false,
      "inputs": [
        {
          "indexed": true,
          "internalType": "uint256",
          "name": "teamId",
          "type": "uint256"
        },
        {
          "indexed": false,
          "internalType": "string",
          "name": "oldName",
          "type": "string"
        },
        {
          "indexed": false,
          "internalType": "string",
          "name": "newName",
          "type": "string"
        }
      ],
      "name": "TeamNameChanged",
      "type": "event"
    },
    {
      "anonymous": false,
      "inputs": [
        {
          "indexed": true,
          "internalType": "address",
          "name": "implementation",
          "type": "address"
        }
      ],
      "name": "Upgraded",
      "type": "event"
    },
    {
      "anonymous": false,
      "inputs": [
        {
          "indexed": true,
          "internalType": "uint256",
          "name": "gameId",
          "type": "uint256"
        },
        {
          "indexed": false,
          "internalType": "uint256",
          "name": "timestamp",
          "type": "uint256"
        }
      ],
      "name": "gameActionCommitted",
      "type": "event"
    },
    {
      "inputs": [],
      "name": "UPGRADE_INTERFACE_VERSION",
      "outputs": [
        {
          "internalType": "string",
          "name": "",
          "type": "string"
        }
      ],
      "stateMutability": "view",
      "type": "function"
    },
    {
      "inputs": [
        {
          "internalType": "uint256",
          "name": "",
          "type": "uint256"
        }
      ],
      "name": "activeGames",
      "outputs": [
        {
          "internalType": "uint256",
          "name": "",
          "type": "uint256"
        }
      ],
      "stateMutability": "view",
      "type": "function"
    },
    {
      "inputs": [
        {
          "internalType": "uint256",
          "name": "gameRequestId",
          "type": "uint256"
        }
      ],
      "name": "cancelGameRequest",
      "outputs": [],
      "stateMutability": "nonpayable",
      "type": "function"
    },
    {
      "inputs": [
        {
          "internalType": "address",
          "name": "sender",
          "type": "address"
        },
        {
          "internalType": "uint256",
          "name": "gameRequestId",
          "type": "uint256"
        }
      ],
      "name": "cancelGameRequestRelayer",
      "outputs": [],
      "stateMutability": "nonpayable",
      "type": "function"
    },
    {
      "inputs": [
        {
          "internalType": "string",
          "name": "newName",
          "type": "string"
        }
      ],
      "name": "changeTeamName",
      "outputs": [],
      "stateMutability": "nonpayable",
      "type": "function"
    },
    {
      "inputs": [
        {
          "internalType": "address",
          "name": "sender",
          "type": "address"
        },
        {
          "internalType": "string",
          "name": "newName",
          "type": "string"
        }
      ],
      "name": "changeTeamNameRelayer",
      "outputs": [],
      "stateMutability": "nonpayable",
      "type": "function"
    },
    {
      "inputs": [
        {
          "internalType": "address",
          "name": "sender",
          "type": "address"
        },
        {
          "internalType": "uint256",
          "name": "gameId",
          "type": "uint256"
        },
        {
          "internalType": "enum GameLib.TeamEnum",
          "name": "team",
          "type": "uint8"
        },
        {
          "internalType": "bytes32",
          "name": "movesEncrypted",
          "type": "bytes32"
        },
        {
          "internalType": "uint8",
          "name": "movesMade",
          "type": "uint8"
        }
      ],
      "name": "commitGameActionsRelayer",
      "outputs": [],
      "stateMutability": "nonpayable",
      "type": "function"
    },
    {
      "inputs": [
        {
          "internalType": "uint256",
          "name": "team1id",
          "type": "uint256"
        },
        {
          "internalType": "uint256",
          "name": "team2id",
          "type": "uint256"
        }
      ],
      "name": "createGameRequest",
      "outputs": [],
      "stateMutability": "nonpayable",
      "type": "function"
    },
    {
      "inputs": [
        {
          "internalType": "address",
          "name": "sender",
          "type": "address"
        },
        {
          "internalType": "uint256",
          "name": "team1id",
          "type": "uint256"
        },
        {
          "internalType": "uint256",
          "name": "team2id",
          "type": "uint256"
        }
      ],
      "name": "createGameRequestRelayer",
      "outputs": [],
      "stateMutability": "nonpayable",
      "type": "function"
    },
    {
      "inputs": [
        {
          "internalType": "string",
          "name": "name",
          "type": "string"
        },
        {
          "internalType": "uint8",
          "name": "country",
          "type": "uint8"
        }
      ],
      "name": "createTeam",
      "outputs": [],
      "stateMutability": "nonpayable",
      "type": "function"
    },
    {
      "inputs": [
        {
          "internalType": "address",
          "name": "sender",
          "type": "address"
        },
        {
          "internalType": "string",
          "name": "name",
          "type": "string"
        },
        {
          "internalType": "uint8",
          "name": "country",
          "type": "uint8"
        }
      ],
      "name": "createTeamRelayer",
      "outputs": [],
      "stateMutability": "nonpayable",
      "type": "function"
    },
    {
      "inputs": [
        {
          "internalType": "uint256",
          "name": "gameId",
          "type": "uint256"
        }
      ],
      "name": "finishGameByTimeout",
      "outputs": [],
      "stateMutability": "nonpayable",
      "type": "function"
    },
    {
      "inputs": [
        {
          "internalType": "address",
          "name": "sender",
          "type": "address"
        },
        {
          "internalType": "uint256",
          "name": "gameId",
          "type": "uint256"
        }
      ],
      "name": "finishGameByTimeoutRelayer",
      "outputs": [],
      "stateMutability": "nonpayable",
      "type": "function"
    },
    {
      "inputs": [],
      "name": "gameEngineServerAddress",
      "outputs": [
        {
          "internalType": "address",
          "name": "",
          "type": "address"
        }
      ],
      "stateMutability": "view",
      "type": "function"
    },
    {
      "inputs": [],
      "name": "gamePublicKey",
      "outputs": [
        {
          "internalType": "string",
          "name": "",
          "type": "string"
        }
      ],
      "stateMutability": "view",
      "type": "function"
    },
    {
      "inputs": [],
      "name": "gameRequestIndex",
      "outputs": [
        {
          "internalType": "uint256",
          "name": "",
          "type": "uint256"
        }
      ],
      "stateMutability": "view",
      "type": "function"
    },
    {
      "inputs": [
        {
          "internalType": "uint256",
          "name": "",
          "type": "uint256"
        }
      ],
      "name": "gameRequests",
      "outputs": [
        {
          "internalType": "uint256",
          "name": "gameRequestId",
          "type": "uint256"
        },
        {
          "internalType": "uint256",
          "name": "team1id",
          "type": "uint256"
        },
        {
          "internalType": "uint256",
          "name": "team2id",
          "type": "uint256"
        },
        {
          "internalType": "uint256",
          "name": "createdAt",
          "type": "uint256"
        }
      ],
      "stateMutability": "view",
      "type": "function"
    },
    {
      "inputs": [
        {
          "internalType": "uint256",
          "name": "",
          "type": "uint256"
        }
      ],
      "name": "games",
      "outputs": [
        {
          "internalType": "uint256",
          "name": "gameId",
          "type": "uint256"
        },
        {
          "internalType": "uint256",
          "name": "createdAt",
          "type": "uint256"
        },
        {
          "components": [
            {
              "internalType": "uint8",
              "name": "movesMade",
              "type": "uint8"
            },
            {
              "internalType": "uint64",
              "name": "lastMoveAt",
              "type": "uint64"
            },
            {
              "internalType": "bytes32",
              "name": "team1MovesEncrypted",
              "type": "bytes32"
            },
            {
              "internalType": "bytes32",
              "name": "team2MovesEncrypted",
              "type": "bytes32"
            },
            {
              "internalType": "enum GameLib.TeamEnum",
              "name": "lastMoveTeam",
              "type": "uint8"
            },
            {
              "internalType": "uint8",
              "name": "team1score",
              "type": "uint8"
            },
            {
              "internalType": "uint8",
              "name": "team2score",
              "type": "uint8"
            }
          ],
          "internalType": "struct GameLib.GameState",
          "name": "gameState",
          "type": "tuple"
        },
        {
          "components": [
            {
              "internalType": "uint256",
              "name": "teamId",
              "type": "uint256"
            },
            {
              "internalType": "uint64",
              "name": "eloRating",
              "type": "uint64"
            },
            {
              "internalType": "uint64",
              "name": "eloRatingNew",
              "type": "uint64"
            },
            {
              "internalType": "enum GameLib.TeamFormation",
              "name": "formation",
              "type": "uint8"
            },
            {
              "internalType": "uint256[5]",
              "name": "__gap",
              "type": "uint256[5]"
            }
          ],
          "internalType": "struct GameLib.TeamInfo",
          "name": "team1",
          "type": "tuple"
        },
        {
          "components": [
            {
              "internalType": "uint256",
              "name": "teamId",
              "type": "uint256"
            },
            {
              "internalType": "uint64",
              "name": "eloRating",
              "type": "uint64"
            },
            {
              "internalType": "uint64",
              "name": "eloRatingNew",
              "type": "uint64"
            },
            {
              "internalType": "enum GameLib.TeamFormation",
              "name": "formation",
              "type": "uint8"
            },
            {
              "internalType": "uint256[5]",
              "name": "__gap",
              "type": "uint256[5]"
            }
          ],
          "internalType": "struct GameLib.TeamInfo",
          "name": "team2",
          "type": "tuple"
        },
        {
          "internalType": "enum GameLib.GameStatus",
          "name": "status",
          "type": "uint8"
        },
        {
          "internalType": "enum GameLib.TeamEnum",
          "name": "winner",
          "type": "uint8"
        },
        {
          "components": [
            {
              "components": [
                {
                  "internalType": "uint8",
                  "name": "x",
                  "type": "uint8"
                },
                {
                  "internalType": "uint8",
                  "name": "y",
                  "type": "uint8"
                }
              ],
              "internalType": "struct GameLib.Position[6]",
              "name": "team1PlayerPositions",
              "type": "tuple[6]"
            },
            {
              "components": [
                {
                  "internalType": "uint8",
                  "name": "x",
                  "type": "uint8"
                },
                {
                  "internalType": "uint8",
                  "name": "y",
                  "type": "uint8"
                }
              ],
              "internalType": "struct GameLib.Position[6]",
              "name": "team2PlayerPositions",
              "type": "tuple[6]"
            },
            {
              "components": [
                {
                  "internalType": "uint8",
                  "name": "x",
                  "type": "uint8"
                },
                {
                  "internalType": "uint8",
                  "name": "y",
                  "type": "uint8"
                }
              ],
              "internalType": "struct GameLib.Position",
              "name": "ballPosition",
              "type": "tuple"
            },
            {
              "internalType": "enum GameLib.TeamEnum",
              "name": "ballOwner",
              "type": "uint8"
            }
          ],
          "internalType": "struct GameLib.BoardState",
          "name": "lastBoardState",
          "type": "tuple"
        },
        {
          "internalType": "bytes32",
          "name": "historyIPFS",
          "type": "bytes32"
        },
        {
          "internalType": "bool",
          "name": "isVerified",
          "type": "bool"
        },
        {
          "internalType": "bytes",
          "name": "encryptedKey",
          "type": "bytes"
        },
        {
          "internalType": "uint8",
          "name": "gameEngineVersion",
          "type": "uint8"
        }
      ],
      "stateMutability": "view",
      "type": "function"
    },
    {
      "inputs": [],
      "name": "gelatoAddress",
      "outputs": [
        {
          "internalType": "address",
          "name": "",
          "type": "address"
        }
      ],
      "stateMutability": "view",
      "type": "function"
    },
    {
      "inputs": [],
      "name": "getActiveGameCount",
      "outputs": [
        {
          "internalType": "uint256",
          "name": "",
          "type": "uint256"
        }
      ],
      "stateMutability": "view",
      "type": "function"
    },
    {
      "inputs": [],
      "name": "getActiveGames",
      "outputs": [
        {
          "internalType": "uint256[]",
          "name": "",
          "type": "uint256[]"
        }
      ],
      "stateMutability": "view",
      "type": "function"
    },
    {
      "inputs": [
        {
          "internalType": "uint256",
          "name": "gameId",
          "type": "uint256"
        }
      ],
      "name": "getGame",
      "outputs": [
        {
          "components": [
            {
              "internalType": "uint256",
              "name": "gameId",
              "type": "uint256"
            },
            {
              "internalType": "uint256",
              "name": "createdAt",
              "type": "uint256"
            },
            {
              "components": [
                {
                  "internalType": "uint8",
                  "name": "movesMade",
                  "type": "uint8"
                },
                {
                  "internalType": "uint64",
                  "name": "lastMoveAt",
                  "type": "uint64"
                },
                {
                  "internalType": "bytes32",
                  "name": "team1MovesEncrypted",
                  "type": "bytes32"
                },
                {
                  "internalType": "bytes32",
                  "name": "team2MovesEncrypted",
                  "type": "bytes32"
                },
                {
                  "internalType": "enum GameLib.TeamEnum",
                  "name": "lastMoveTeam",
                  "type": "uint8"
                },
                {
                  "internalType": "uint8",
                  "name": "team1score",
                  "type": "uint8"
                },
                {
                  "internalType": "uint8",
                  "name": "team2score",
                  "type": "uint8"
                }
              ],
              "internalType": "struct GameLib.GameState",
              "name": "gameState",
              "type": "tuple"
            },
            {
              "components": [
                {
                  "internalType": "uint256",
                  "name": "teamId",
                  "type": "uint256"
                },
                {
                  "internalType": "uint64",
                  "name": "eloRating",
                  "type": "uint64"
                },
                {
                  "internalType": "uint64",
                  "name": "eloRatingNew",
                  "type": "uint64"
                },
                {
                  "internalType": "enum GameLib.TeamFormation",
                  "name": "formation",
                  "type": "uint8"
                },
                {
                  "internalType": "uint256[5]",
                  "name": "__gap",
                  "type": "uint256[5]"
                }
              ],
              "internalType": "struct GameLib.TeamInfo",
              "name": "team1",
              "type": "tuple"
            },
            {
              "components": [
                {
                  "internalType": "uint256",
                  "name": "teamId",
                  "type": "uint256"
                },
                {
                  "internalType": "uint64",
                  "name": "eloRating",
                  "type": "uint64"
                },
                {
                  "internalType": "uint64",
                  "name": "eloRatingNew",
                  "type": "uint64"
                },
                {
                  "internalType": "enum GameLib.TeamFormation",
                  "name": "formation",
                  "type": "uint8"
                },
                {
                  "internalType": "uint256[5]",
                  "name": "__gap",
                  "type": "uint256[5]"
                }
              ],
              "internalType": "struct GameLib.TeamInfo",
              "name": "team2",
              "type": "tuple"
            },
            {
              "internalType": "enum GameLib.GameStatus",
              "name": "status",
              "type": "uint8"
            },
            {
              "internalType": "enum GameLib.TeamEnum",
              "name": "winner",
              "type": "uint8"
            },
            {
              "components": [
                {
                  "components": [
                    {
                      "internalType": "uint8",
                      "name": "x",
                      "type": "uint8"
                    },
                    {
                      "internalType": "uint8",
                      "name": "y",
                      "type": "uint8"
                    }
                  ],
                  "internalType": "struct GameLib.Position[6]",
                  "name": "team1PlayerPositions",
                  "type": "tuple[6]"
                },
                {
                  "components": [
                    {
                      "internalType": "uint8",
                      "name": "x",
                      "type": "uint8"
                    },
                    {
                      "internalType": "uint8",
                      "name": "y",
                      "type": "uint8"
                    }
                  ],
                  "internalType": "struct GameLib.Position[6]",
                  "name": "team2PlayerPositions",
                  "type": "tuple[6]"
                },
                {
                  "components": [
                    {
                      "internalType": "uint8",
                      "name": "x",
                      "type": "uint8"
                    },
                    {
                      "internalType": "uint8",
                      "name": "y",
                      "type": "uint8"
                    }
                  ],
                  "internalType": "struct GameLib.Position",
                  "name": "ballPosition",
                  "type": "tuple"
                },
                {
                  "internalType": "enum GameLib.TeamEnum",
                  "name": "ballOwner",
                  "type": "uint8"
                }
              ],
              "internalType": "struct GameLib.BoardState",
              "name": "lastBoardState",
              "type": "tuple"
            },
            {
              "internalType": "bytes32",
              "name": "historyIPFS",
              "type": "bytes32"
            },
            {
              "internalType": "bool",
              "name": "isVerified",
              "type": "bool"
            },
            {
              "internalType": "bytes",
              "name": "encryptedKey",
              "type": "bytes"
            },
            {
              "internalType": "uint8",
              "name": "gameEngineVersion",
              "type": "uint8"
            },
            {
              "internalType": "uint256[10]",
              "name": "__gap",
              "type": "uint256[10]"
            }
          ],
          "internalType": "struct GameLib.Game",
          "name": "",
          "type": "tuple"
        }
      ],
      "stateMutability": "view",
      "type": "function"
    },
    {
      "inputs": [
        {
          "internalType": "uint256",
          "name": "requestId",
          "type": "uint256"
        }
      ],
      "name": "getGameRequest",
      "outputs": [
        {
          "components": [
            {
              "internalType": "uint256",
              "name": "gameRequestId",
              "type": "uint256"
            },
            {
              "internalType": "uint256",
              "name": "team1id",
              "type": "uint256"
            },
            {
              "internalType": "uint256",
              "name": "team2id",
              "type": "uint256"
            },
            {
              "internalType": "uint256",
              "name": "createdAt",
              "type": "uint256"
            }
          ],
          "internalType": "struct GameLib.GameRequest",
          "name": "",
          "type": "tuple"
        }
      ],
      "stateMutability": "view",
      "type": "function"
    },
    {
      "inputs": [
        {
          "internalType": "uint256",
          "name": "gameId",
          "type": "uint256"
        }
      ],
      "name": "getGameStatus",
      "outputs": [
        {
          "internalType": "enum GameLib.GameStatus",
          "name": "",
          "type": "uint8"
        }
      ],
      "stateMutability": "view",
      "type": "function"
    },
    {
      "inputs": [
        {
          "internalType": "uint256",
          "name": "teamId",
          "type": "uint256"
        },
        {
          "internalType": "uint256",
          "name": "n",
          "type": "uint256"
        }
      ],
      "name": "getLastNGames",
      "outputs": [
        {
          "components": [
            {
              "internalType": "uint256",
              "name": "gameId",
              "type": "uint256"
            },
            {
              "internalType": "uint256",
              "name": "createdAt",
              "type": "uint256"
            },
            {
              "components": [
                {
                  "internalType": "uint8",
                  "name": "movesMade",
                  "type": "uint8"
                },
                {
                  "internalType": "uint64",
                  "name": "lastMoveAt",
                  "type": "uint64"
                },
                {
                  "internalType": "bytes32",
                  "name": "team1MovesEncrypted",
                  "type": "bytes32"
                },
                {
                  "internalType": "bytes32",
                  "name": "team2MovesEncrypted",
                  "type": "bytes32"
                },
                {
                  "internalType": "enum GameLib.TeamEnum",
                  "name": "lastMoveTeam",
                  "type": "uint8"
                },
                {
                  "internalType": "uint8",
                  "name": "team1score",
                  "type": "uint8"
                },
                {
                  "internalType": "uint8",
                  "name": "team2score",
                  "type": "uint8"
                }
              ],
              "internalType": "struct GameLib.GameState",
              "name": "gameState",
              "type": "tuple"
            },
            {
              "components": [
                {
                  "internalType": "uint256",
                  "name": "teamId",
                  "type": "uint256"
                },
                {
                  "internalType": "uint64",
                  "name": "eloRating",
                  "type": "uint64"
                },
                {
                  "internalType": "uint64",
                  "name": "eloRatingNew",
                  "type": "uint64"
                },
                {
                  "internalType": "enum GameLib.TeamFormation",
                  "name": "formation",
                  "type": "uint8"
                },
                {
                  "internalType": "uint256[5]",
                  "name": "__gap",
                  "type": "uint256[5]"
                }
              ],
              "internalType": "struct GameLib.TeamInfo",
              "name": "team1",
              "type": "tuple"
            },
            {
              "components": [
                {
                  "internalType": "uint256",
                  "name": "teamId",
                  "type": "uint256"
                },
                {
                  "internalType": "uint64",
                  "name": "eloRating",
                  "type": "uint64"
                },
                {
                  "internalType": "uint64",
                  "name": "eloRatingNew",
                  "type": "uint64"
                },
                {
                  "internalType": "enum GameLib.TeamFormation",
                  "name": "formation",
                  "type": "uint8"
                },
                {
                  "internalType": "uint256[5]",
                  "name": "__gap",
                  "type": "uint256[5]"
                }
              ],
              "internalType": "struct GameLib.TeamInfo",
              "name": "team2",
              "type": "tuple"
            },
            {
              "internalType": "enum GameLib.GameStatus",
              "name": "status",
              "type": "uint8"
            },
            {
              "internalType": "enum GameLib.TeamEnum",
              "name": "winner",
              "type": "uint8"
            },
            {
              "components": [
                {
                  "components": [
                    {
                      "internalType": "uint8",
                      "name": "x",
                      "type": "uint8"
                    },
                    {
                      "internalType": "uint8",
                      "name": "y",
                      "type": "uint8"
                    }
                  ],
                  "internalType": "struct GameLib.Position[6]",
                  "name": "team1PlayerPositions",
                  "type": "tuple[6]"
                },
                {
                  "components": [
                    {
                      "internalType": "uint8",
                      "name": "x",
                      "type": "uint8"
                    },
                    {
                      "internalType": "uint8",
                      "name": "y",
                      "type": "uint8"
                    }
                  ],
                  "internalType": "struct GameLib.Position[6]",
                  "name": "team2PlayerPositions",
                  "type": "tuple[6]"
                },
                {
                  "components": [
                    {
                      "internalType": "uint8",
                      "name": "x",
                      "type": "uint8"
                    },
                    {
                      "internalType": "uint8",
                      "name": "y",
                      "type": "uint8"
                    }
                  ],
                  "internalType": "struct GameLib.Position",
                  "name": "ballPosition",
                  "type": "tuple"
                },
                {
                  "internalType": "enum GameLib.TeamEnum",
                  "name": "ballOwner",
                  "type": "uint8"
                }
              ],
              "internalType": "struct GameLib.BoardState",
              "name": "lastBoardState",
              "type": "tuple"
            },
            {
              "internalType": "bytes32",
              "name": "historyIPFS",
              "type": "bytes32"
            },
            {
              "internalType": "bool",
              "name": "isVerified",
              "type": "bool"
            },
            {
              "internalType": "bytes",
              "name": "encryptedKey",
              "type": "bytes"
            },
            {
              "internalType": "uint8",
              "name": "gameEngineVersion",
              "type": "uint8"
            },
            {
              "internalType": "uint256[10]",
              "name": "__gap",
              "type": "uint256[10]"
            }
          ],
          "internalType": "struct GameLib.Game[]",
          "name": "",
          "type": "tuple[]"
        }
      ],
      "stateMutability": "view",
      "type": "function"
    },
    {
      "inputs": [
        {
          "internalType": "uint256",
          "name": "teamId",
          "type": "uint256"
        }
      ],
      "name": "getTeam",
      "outputs": [
        {
          "components": [
            {
              "internalType": "uint256",
              "name": "id",
              "type": "uint256"
            },
            {
              "internalType": "address",
              "name": "wallet",
              "type": "address"
            },
            {
              "internalType": "string",
              "name": "name",
              "type": "string"
            },
            {
              "internalType": "uint64",
              "name": "eloRating",
              "type": "uint64"
            },
            {
              "internalType": "uint256",
              "name": "registeredAt",
              "type": "uint256"
            },
            {
              "internalType": "uint256[]",
              "name": "games",
              "type": "uint256[]"
            },
            {
              "internalType": "uint8",
              "name": "country",
              "type": "uint8"
            },
            {
              "internalType": "bool",
              "name": "hasActiveGame",
              "type": "bool"
            },
            {
              "internalType": "uint256",
              "name": "gameRequestId",
              "type": "uint256"
            },
            {
              "internalType": "uint64",
              "name": "totalGames",
              "type": "uint64"
            },
            {
              "internalType": "uint256[10]",
              "name": "__gap",
              "type": "uint256[10]"
            }
          ],
          "internalType": "struct GameLib.Team",
          "name": "",
          "type": "tuple"
        }
      ],
      "stateMutability": "view",
      "type": "function"
    },
    {
      "inputs": [
        {
          "internalType": "address",
          "name": "wallet",
          "type": "address"
        }
      ],
      "name": "getTeamIdByWallet",
      "outputs": [
        {
          "internalType": "uint256",
          "name": "",
          "type": "uint256"
        }
      ],
      "stateMutability": "view",
      "type": "function"
    },
    {
      "inputs": [
        {
          "internalType": "address",
          "name": "_relayerAddress",
          "type": "address"
        },
        {
          "internalType": "address",
          "name": "_relayerSmartAccountAddress",
          "type": "address"
        },
        {
          "internalType": "address",
          "name": "_gameEngineServerAddress",
          "type": "address"
        },
        {
          "internalType": "string",
          "name": "_publicKey",
          "type": "string"
        }
      ],
      "name": "initialize",
      "outputs": [],
      "stateMutability": "nonpayable",
      "type": "function"
    },
    {
      "inputs": [
        {
          "internalType": "uint256",
          "name": "gameId",
          "type": "uint256"
        },
        {
          "internalType": "enum GameLib.StateType",
          "name": "stateType",
          "type": "uint8"
        },
        {
          "internalType": "uint8[]",
          "name": "clashRandomNumbers",
          "type": "uint8[]"
        },
        {
          "components": [
            {
              "internalType": "uint256",
              "name": "playerId",
              "type": "uint256"
            },
            {
              "internalType": "enum GameLib.MoveType",
              "name": "moveType",
              "type": "uint8"
            },
            {
              "components": [
                {
                  "internalType": "uint8",
                  "name": "x",
                  "type": "uint8"
                },
                {
                  "internalType": "uint8",
                  "name": "y",
                  "type": "uint8"
                }
              ],
              "internalType": "struct GameLib.Position",
              "name": "oldPosition",
              "type": "tuple"
            },
            {
              "components": [
                {
                  "internalType": "uint8",
                  "name": "x",
                  "type": "uint8"
                },
                {
                  "internalType": "uint8",
                  "name": "y",
                  "type": "uint8"
                }
              ],
              "internalType": "struct GameLib.Position",
              "name": "newPosition",
              "type": "tuple"
            }
          ],
          "internalType": "struct GameLib.GameAction[]",
          "name": "team1Actions",
          "type": "tuple[]"
        },
        {
          "components": [
            {
              "internalType": "uint256",
              "name": "playerId",
              "type": "uint256"
            },
            {
              "internalType": "enum GameLib.MoveType",
              "name": "moveType",
              "type": "uint8"
            },
            {
              "components": [
                {
                  "internalType": "uint8",
                  "name": "x",
                  "type": "uint8"
                },
                {
                  "internalType": "uint8",
                  "name": "y",
                  "type": "uint8"
                }
              ],
              "internalType": "struct GameLib.Position",
              "name": "oldPosition",
              "type": "tuple"
            },
            {
              "components": [
                {
                  "internalType": "uint8",
                  "name": "x",
                  "type": "uint8"
                },
                {
                  "internalType": "uint8",
                  "name": "y",
                  "type": "uint8"
                }
              ],
              "internalType": "struct GameLib.Position",
              "name": "newPosition",
              "type": "tuple"
            }
          ],
          "internalType": "struct GameLib.GameAction[]",
          "name": "team2Actions",
          "type": "tuple[]"
        },
        {
          "components": [
            {
              "components": [
                {
                  "internalType": "uint8",
                  "name": "x",
                  "type": "uint8"
                },
                {
                  "internalType": "uint8",
                  "name": "y",
                  "type": "uint8"
                }
              ],
              "internalType": "struct GameLib.Position[6]",
              "name": "team1PlayerPositions",
              "type": "tuple[6]"
            },
            {
              "components": [
                {
                  "internalType": "uint8",
                  "name": "x",
                  "type": "uint8"
                },
                {
                  "internalType": "uint8",
                  "name": "y",
                  "type": "uint8"
                }
              ],
              "internalType": "struct GameLib.Position[6]",
              "name": "team2PlayerPositions",
              "type": "tuple[6]"
            },
            {
              "components": [
                {
                  "internalType": "uint8",
                  "name": "x",
                  "type": "uint8"
                },
                {
                  "internalType": "uint8",
                  "name": "y",
                  "type": "uint8"
                }
              ],
              "internalType": "struct GameLib.Position",
              "name": "ballPosition",
              "type": "tuple"
            },
            {
              "internalType": "enum GameLib.TeamEnum",
              "name": "ballOwner",
              "type": "uint8"
            }
          ],
          "internalType": "struct GameLib.BoardState",
          "name": "boardState",
          "type": "tuple"
        }
      ],
      "name": "newGameState",
      "outputs": [],
      "stateMutability": "nonpayable",
      "type": "function"
    },
    {
      "inputs": [],
      "name": "nextGameId",
      "outputs": [
        {
          "internalType": "uint256",
          "name": "",
          "type": "uint256"
        }
      ],
      "stateMutability": "view",
      "type": "function"
    },
    {
      "inputs": [],
      "name": "nextTeamId",
      "outputs": [
        {
          "internalType": "uint256",
          "name": "",
          "type": "uint256"
        }
      ],
      "stateMutability": "view",
      "type": "function"
    },
    {
      "inputs": [],
      "name": "owner",
      "outputs": [
        {
          "internalType": "address",
          "name": "",
          "type": "address"
        }
      ],
      "stateMutability": "view",
      "type": "function"
    },
    {
      "inputs": [],
      "name": "proxiableUUID",
      "outputs": [
        {
          "internalType": "bytes32",
          "name": "",
          "type": "bytes32"
        }
      ],
      "stateMutability": "view",
      "type": "function"
    },
    {
      "inputs": [],
      "name": "relayerAddress",
      "outputs": [
        {
          "internalType": "address",
          "name": "",
          "type": "address"
        }
      ],
      "stateMutability": "view",
      "type": "function"
    },
    {
      "inputs": [],
      "name": "relayerSmartAccountAddress",
      "outputs": [
        {
          "internalType": "address",
          "name": "",
          "type": "address"
        }
      ],
      "stateMutability": "view",
      "type": "function"
    },
    {
      "inputs": [],
      "name": "renounceOwnership",
      "outputs": [],
      "stateMutability": "nonpayable",
      "type": "function"
    },
    {
      "inputs": [
        {
          "internalType": "uint256",
          "name": "gameId",
          "type": "uint256"
        },
        {
          "internalType": "enum GameLib.TeamEnum",
          "name": "cauzedByTeam",
          "type": "uint8"
        },
        {
          "internalType": "enum ChessBallGame.ErrorType",
          "name": "errorType",
          "type": "uint8"
        },
        {
          "internalType": "string",
          "name": "errorMsg",
          "type": "string"
        }
      ],
      "name": "setGameError",
      "outputs": [],
      "stateMutability": "nonpayable",
      "type": "function"
    },
    {
      "inputs": [
        {
          "internalType": "uint256",
          "name": "gameRequestId",
          "type": "uint256"
        },
        {
          "internalType": "bytes",
          "name": "_encryptedKey",
          "type": "bytes"
        }
      ],
      "name": "startGame",
      "outputs": [],
      "stateMutability": "nonpayable",
      "type": "function"
    },
    {
      "inputs": [
        {
          "internalType": "address",
          "name": "sender",
          "type": "address"
        },
        {
          "internalType": "uint256",
          "name": "gameRequestId",
          "type": "uint256"
        },
        {
          "internalType": "bytes",
          "name": "_encryptedKey",
          "type": "bytes"
        }
      ],
      "name": "startGameRelayer",
      "outputs": [],
      "stateMutability": "nonpayable",
      "type": "function"
    },
    {
      "inputs": [
        {
          "internalType": "address",
          "name": "",
          "type": "address"
        }
      ],
      "name": "teamIdByWallet",
      "outputs": [
        {
          "internalType": "uint256",
          "name": "",
          "type": "uint256"
        }
      ],
      "stateMutability": "view",
      "type": "function"
    },
    {
      "inputs": [
        {
          "internalType": "string",
          "name": "",
          "type": "string"
        }
      ],
      "name": "teamNames",
      "outputs": [
        {
          "internalType": "bool",
          "name": "",
          "type": "bool"
        }
      ],
      "stateMutability": "view",
      "type": "function"
    },
    {
      "inputs": [
        {
          "internalType": "uint256",
          "name": "",
          "type": "uint256"
        }
      ],
      "name": "teams",
      "outputs": [
        {
          "internalType": "uint256",
          "name": "id",
          "type": "uint256"
        },
        {
          "internalType": "address",
          "name": "wallet",
          "type": "address"
        },
        {
          "internalType": "string",
          "name": "name",
          "type": "string"
        },
        {
          "internalType": "uint64",
          "name": "eloRating",
          "type": "uint64"
        },
        {
          "internalType": "uint256",
          "name": "registeredAt",
          "type": "uint256"
        },
        {
          "internalType": "uint8",
          "name": "country",
          "type": "uint8"
        },
        {
          "internalType": "bool",
          "name": "hasActiveGame",
          "type": "bool"
        },
        {
          "internalType": "uint256",
          "name": "gameRequestId",
          "type": "uint256"
        },
        {
          "internalType": "uint64",
          "name": "totalGames",
          "type": "uint64"
        }
      ],
      "stateMutability": "view",
      "type": "function"
    },
    {
      "inputs": [
        {
          "internalType": "address",
          "name": "newOwner",
          "type": "address"
        }
      ],
      "name": "transferOwnership",
      "outputs": [],
      "stateMutability": "nonpayable",
      "type": "function"
    },
    {
      "inputs": [
        {
          "internalType": "address",
          "name": "newImplementation",
          "type": "address"
        },
        {
          "internalType": "bytes",
          "name": "data",
          "type": "bytes"
        }
      ],
      "name": "upgradeToAndCall",
      "outputs": [],
      "stateMutability": "payable",
      "type": "function"
    }
  ],
  "bytecode": "0x60a08060405234620000d157306080527ff0c57e16840df040f15088dc2f81fe391c3923bec73e23a9662efc9c229c6a009081549060ff8260401c16620000c257506001600160401b036002600160401b0319828216016200007c575b6040516154db9081620000d7823960805181818161136e01526114520152f35b6001600160401b031990911681179091556040519081527fc7f505b2f371ae2175ee4913f4499e1f2633a7b5936321eed1cdaeb6115181d290602090a13880806200005c565b63f92ee8a960e01b8152600490fd5b600080fdfe608080604052600436101561001357600080fd5b60003560e01c9081628e0f1b14611df25750806302f785fd14611d655780630f1bf45414611d135780630fb9f86914611b9c578063117a5b9014611a6757806313e4c71414611a305780631894c75614611a1257806318a7cca8146119e95780631b76929c1461195057806322d60b1a146119385780632cc9c9641461190f5780632df84be5146117d55780633ed2b77a14611717578063414aa4d4146116aa57806349e3969a146116545780634cf97fad1461160d5780634f1ef2861461140357806351903bd9146113c657806352d1902d1461135b57806359bcfbe41461129557806365e8e4f414610fd257806368599d0c14610fb45780636e6964d714610f53578063715018a614610efb57806371f5001f146109cb57806379b880ac146107d45780637bb597fa146107b65780638da5cb5b1461078057806392a52e8114610732578063a2f77bcc146105fc578063a462816c146105d3578063a88c8be91461059a578063a89ae45714610571578063ad3cb1cc14610527578063afcaa6e3146104b3578063b135bbb014610495578063c0d039db1461040d578063c4b634f314610392578063c648041314610202578063c94950411461032e578063e34c2e5814610289578063ec5c504e1461026c578063f2fde38b146102415763ff156d001461020257600080fd5b3461023c57602036600319011261023c576001600160a01b03610223612772565b1660005260056020526020604060002054604051908152f35b600080fd5b3461023c57602036600319011261023c5761026a61025d612772565b61026561448d565b612e9b565b005b3461023c57602036600319011261023c5761026a60043533614ddd565b3461023c57602036600319011261023c576004356102a5612e76565b508060005260096020526003604060002001541561031c576000526009602052608060406000206040516102d881612390565b815491828252600181015460208301908152606060036002840154936040860194855201549301928352604051938452516020840152516040830152516060820152f35b60405163b0ce759160e01b8152600490fd5b3461023c57604036600319011261023c57610347612772565b600154336001600160a01b0391821614159081610383575b506103715761026a9060243590614ddd565b604051639608c6ff60e01b8152600490fd5b9050600d54163314158261035f565b3461023c57606036600319011261023c576103ab612772565b6024356001600160401b03811161023c576103ca903690600401612485565b6044359060ff8216820361023c57600154336001600160a01b03918216141590816103fe575b506103715761026a9261341e565b9050600d5416331415846103f0565b3461023c5760a036600319011261023c57610426612772565b6024359060443590600382101561023c576084359160ff8316830361023c57600154336001600160a01b0391821614159081610486575b50610371578360005260036020526001604060002001541561031c5761026a9360643592614b75565b9050600d54163314158561045d565b3461023c57600036600319011261023c576020600654604051908152f35b3461023c57606036600319011261023c576104cc612772565b6044356001600160401b03811161023c576104eb903690600401612796565b600154909190336001600160a01b0391821614159081610518575b506103715761026a9260243590613a44565b9050600d541633141584610506565b3461023c57600036600319011261023c5761056d604051610547816123c6565b60058152640352e302e360dc1b6020820152604051918291602083526020830190612087565b0390f35b3461023c57600036600319011261023c57600d546040516001600160a01b039091168152602090f35b3461023c57602036600319011261023c576004356001600160401b03811161023c576105cd61026a913690600401612485565b3361310c565b3461023c57600036600319011261023c576002546040516001600160a01b039091168152602090f35b3461023c5760208060031936011261023c576004356106196128d2565b5080600052600382526001604060002001541561031c576000526003815260406000209061071860276040519361064f85612374565b80548552600181015484860152610668600282016124ac565b604086015261067960068201612512565b606086015261068a600d8201612512565b60808601526106b760ff60148301548181166106a5816121c1565b60a089015260081c1660c087016124a0565b6106c36015820161260a565b60e0860152602381015461010086015260ff60248201541615156101208601526040516106fe816106f78160258601612693565b0382612410565b61014086015260ff602682015416610160860152016127f3565b61018083015261056d604051928284938452830190612260565b3461023c57602036600319011261023c576004356000526009602052608060406000208054906001810154906003600282015491015491604051938452602084015260408301526060820152f35b3461023c57600036600319011261023c576000805160206153c6833981519152546040516001600160a01b039091168152602090f35b3461023c57600036600319011261023c576020600a54604051908152f35b3461023c57604036600319011261023c576107ed612772565b6001805460243592906001600160a01b03908116331415806109bd575b61037157836000526020926003845280604060002001541561031c57846000526003845280604060002001541561031c5784600052600384526040600020938160ff60148701541661085b816121c1565b036109ab5760068501548060005260048252838084604060002001541695168095141580610990575b61097e576000526004815283838360406000200154161480610972575b61095457600490600d8601546000525260406000200154161480610966575b6109545760018060401b03600282015460081c16603c810180911161093e5742111561092c576005015460ff16600381101561091657156109045761026a906144c6565b6040516356eff76b60e01b8152600490fd5b634e487b7160e01b600052602160045260246000fd5b604051634e7fc88160e11b8152600490fd5b634e487b7160e01b600052601160045260246000fd5b604051631e86addb60e01b8152600490fd5b506004810154156108c0565b506003850154156108a1565b604051633093624d60e21b8152600490fd5b50600d86015460005284848460406000200154161415610884565b6040516314bc0c2f60e31b8152600490fd5b5080600d541633141561080a565b3461023c5761040036600319011261023c576004602435101561023c576001600160401b036044351161023c5736602360443501121561023c576001600160401b03600460443501351161023c573660246044356004013560051b60443501011161023c576064356001600160401b03811161023c57610a4f9036906004016127c3565b6084356001600160401b03811161023c57610a6e9036906004016127c3565b90916103603660a319011261023c5760043560005260036020526001604060002001541561031c57600254336001600160a01b0391821614159081610eeb575b81610edc575b50610eca576004356000526003602052604060002092600160ff601486015416610add816121c1565b036109ab5760ff600285015416610e9a575b60158401600060a45b60068210610e6457505050601b840160006102245b60068210610e28575050506103a43560ff8116810361023c5760ff1660ff1960218601541617602185015560ff6103c435166103c4350361023c57610b586103c43560218601612d5a565b60036103e435101561023c57610b746103e43560228601612cd0565b610c6c60c06002860154610b8a60ff8216612d70565b90610b966024356121c1565b602435600203610e1857610bb360ff60058a015460081c16612d70565b610bbe6024356121c1565b602435600303610e0757610bdb60ff60058b015460101c16612d70565b925b60ff808060405193610bee85612359565b169384845260018060401b034216602085015260006040850152600060608501526000608085015216948560a0840152169485910152610100600160481b034260081b169160018060481b031916171760028801556000600388015560006004880155610c67600588019160ff19835416835582612d5a565b612d82565b610c776024356121c1565b602435600203610dd057604051600181526000805160206153a6833981519152602060043592a25b835492604051926104008401610cb66024356121c1565b6024358552426020860152610400604086015260443560040135905261042084019660246044350160005b604435600401358110610db057505093610d41600296947f1cc12e86ff5f2b2e761ab2fd8a6e3ee635d92958237b110363a2868ed2b6f8be94610d338b859660ff9c9a87602d9f036060890152612dbc565b918483036080860152612dbc565b610d5160a0830160158801612e39565b610d626102208301601b8801612e39565b610d826103a083016021880160ff60209154818116845260081c16910152565b610d97886022880154166103e08401906120ea565b0390a20154161015610da557005b61026a600435614705565b909860208060019260ff610dc38e612788565b168152019a019101610ce1565b610ddb6024356121c1565b600360243503610c9f57604051600281526000805160206153a6833981519152602060043592a2610c9f565b60ff60058a015460101c1692610bdd565b60ff600589015460081c16610bb3565b600160408260ff610e398495612d4c565b1660ff19875416178655610e58610e5260208301612d4c565b87612d5a565b01930191019091610b0d565b600160408260ff610e758495612d4c565b1660ff19875416178655610e8e610e5260208301612d4c565b01930191019091610af8565b6003840154158015610ebe575b15610aef57604051631e86addb60e01b8152600490fd5b50600484015415610ea7565b604051631c307ff760e31b8152600490fd5b9050600d541633141585610ab4565b8091506001541633141590610aae565b3461023c57600036600319011261023c57610f1461448d565b6000805160206153c683398151915280546001600160a01b031981169091556000906001600160a01b03166000805160206154068339815191528280a3005b3461023c57602036600319011261023c576004356001600160401b03811161023c5760ff610f9e6020610f8b81943690600401612485565b8160405193828580945193849201612064565b8101600b81520301902054166040519015158152f35b3461023c57600036600319011261023c576020600754604051908152f35b3461023c57608036600319011261023c57610feb612772565b6001600160a01b036024358181169081900361023c576044359282841680940361023c576001600160401b0360643581811161023c5761102f903690600401612485565b946000805160206154268339815191529384549560ff8760401c1615948488169788158061128e575b6001809a149081611284575b15908161127b575b50611269576001600160401b03198116891788558661124e575b501690811561123c57801561123c57821561123c5760018060a01b0319918288541617875581600d541617600d5560025416176002558451908111611226576110d0600c54612659565b601f81116111cc575b50602094601f82116001146111675761110092939495829160009261115c575b5050612d39565b600c555b61110c614f4a565b611114614f4a565b61111d33612e9b565b61112357005b805460ff60401b191690556040519081527fc7f505b2f371ae2175ee4913f4499e1f2633a7b5936321eed1cdaeb6115181d290602090a1005b0151905086806110f9565b601f19821695600c600052806000209160005b8881106111b65750838798979596971061119d575b505050811b01600c55611104565b015160001960f88460031b161c1916905585808061118f565b818301518455928701926020928301920161117a565b600c600052611216907fdf6966c971051c3d54ec59162606531493a51404a002842f56009d7e5cf4a8c7601f840160051c8101916020851061121c575b601f0160051c0190612ce8565b856110d9565b9091508190611209565b634e487b7160e01b600052604160045260246000fd5b6040516301369f3160e61b8152600490fd5b6001600160481b0319166001600160401b0117875589611086565b60405163f92ee8a960e01b8152600490fd5b9050158b61106c565b303b159150611064565b5086611058565b3461023c57600036600319011261023c57604051600c546000826112b883612659565b918282526020936001908560018216918260001461133b5750506001146112fb575b506112e792500383612410565b61056d604051928284938452830190612087565b849150600c60005281600020906000915b8583106113235750506112e79350820101856112da565b8054838901850152879450869390920191810161130c565b60ff1916858201526112e795151560051b85010192508791506112da9050565b3461023c57600036600319011261023c577f00000000000000000000000000000000000000000000000000000000000000006001600160a01b031630036113b45760206040516000805160206153e68339815191528152f35b60405163703e46dd60e11b8152600490fd5b3461023c57604036600319011261023c576024356001600160401b03811161023c576113f961026a913690600401612796565b9060043533613a44565b604036600319011261023c57611417612772565b6024356001600160401b03811161023c573660238201121561023c5761144790369060248160040135910161244e565b906001600160a01b037f000000000000000000000000000000000000000000000000000000000000000081163081149081156115f1575b506113b45761148b61448d565b6040516352d1902d60e01b8152908216916020918281600481875afa600091816115c2575b506114ce57604051634c9c8ce360e01b815260048101859052602490fd5b9284936000805160206153e6833981519152908181036115aa5750823b156115915780546001600160a01b03191682179055604051907fbc7cd75a20ee27fd9adebab32041f755214dbc6bffa90cc0225b39da2e5c2d3b600080a28351156115775750600080848461026a96519101845af4903d1561156e573d61155181612433565b9061155f6040519283612410565b8152600081943d92013e614faa565b60609250614faa565b925050503461158257005b63b398979f60e01b8152600490fd5b604051634c9c8ce360e01b815260048101839052602490fd5b60249060405190632a87526960e21b82526004820152fd5b9091508381813d83116115ea575b6115da8183612410565b8101031261023c575190866114b0565b503d6115d0565b9050816000805160206153e6833981519152541614158461147e565b3461023c57604036600319011261023c576004356001600160401b03811161023c5761163d903690600401612485565b60243560ff8116810361023c5761026a913361341e565b3461023c57606036600319011261023c5761166d612772565b600154336001600160a01b039182161415908161169b575b506103715761026a906044359060243590612f22565b9050600d541633141582611685565b3461023c57604036600319011261023c576116c3612772565b6024356001600160401b03811161023c576116e2903690600401612485565b600154336001600160a01b0391821614159081611708575b506103715761026a9161310c565b9050600d5416331415836116fa565b3461023c57602036600319011261023c576004356000526004602052604060002080549060018060a01b036001820154169060405161175d816106f78160028601612693565b60018060401b039160ff836003830154169360048301546117a8600685015492600860078701549601541695604051998a99610120918b5260208b01528060408b0152890190612087565b956060880152608087015281811660a087015260081c16151560c085015260e08401526101008301520390f35b3461023c5760208060031936011261023c57600435908160005260038152600180604060002001541561031c57826000526003825280604060002001541561031c5782600052600382526040600020918160ff601485015416611837816121c1565b036109ab576006830154600081815260048352604090208301546001600160a01b039291908316331415806118f4575b61097e5760005260048152338284604060002001541614806118e8575b61095457600490600d85015460005252339160406000200154161480610966576109545760018060401b03600282015460081c16603c810180911161093e5742111561092c576005015460ff16600381101561091657156109045761026a906144c6565b50600384015415611884565b50600d85015460005233838560406000200154161415611867565b3461023c57600036600319011261023c576000546040516001600160a01b039091168152602090f35b3461023c5761026a611949366120d4565b9033612f22565b3461023c57600036600319011261023c5760405180600854808352602080930180916008600052846000209060005b868282106119d557868661199582880383612410565b604051928392818401908285525180915260408401929160005b8281106119be57505050500390f35b8351855286955093810193928101926001016119af565b83548552909301926001928301920161197f565b3461023c57600036600319011261023c576001546040516001600160a01b039091168152602090f35b3461023c57600036600319011261023c576020600854604051908152f35b3461023c57602036600319011261023c5760043560085481101561023c57611a59602091612729565b90546040519160031b1c8152f35b3461023c57602036600319011261023c5760043560005260036020526040600020805460018201549060028301611a9d906124ac565b92611aaa60068201612512565b91611ab7600d8301612512565b601483015460ff811690611acd6015860161260a565b90602386015492602487015460ff16946040519788806025830190611af191612693565b03611afc908a612410565b6026015460ff16986040519b8c9b610780998d5260208d015260408c01611b22916120f7565b6101208b01611b309161214f565b6102408a01611b3e9161214f565b611b47816121c1565b61036089015261038088019060081c60ff1690611b63916120ea565b6103a08701611b719161220a565b6107008601521515610720850152806107408501528301611b9191612087565b906107608301520390f35b3461023c57608036600319011261023c576004356024356003811015908161023c57604435600281101561023c576064356001600160401b03811161023c57611be9903690600401612485565b600254909390336001600160a01b0391821614159081611d03575b81611cf4575b50610eca57611c1882612cc6565b6001821480611ce8575b611c76575b5090611c7160008051602061548683398151915293611c4c93604051948580956120ea565b611c5581612cc6565b6020840152426040840152608060608401526080830190612087565b0390a2005b8460009392935260036020526040600020906109165760008051602061548683398151915293611c4c93611c719260018503611cc557600501805460ff191660021790555b9293509350611c27565b60028514611cd4575b50611cbb565b600501805460ff1916600117905587611cce565b50506000821515611c22565b9050600d541633141586611c0a565b8091506001541633141590611c04565b3461023c57602036600319011261023c576004358060005260036020526001604060002001541561031c576000526003602052602060ff6014604060002001541660405190611d61816121c1565b8152f35b3461023c57611d73366120d4565b9080600052602091600483526040600020541561031c57611d9391612a3f565b6040519082820192808352815180945260408301938160408260051b8601019301916000955b828710611dc65785850386f35b909192938280611de2600193603f198a82030186528851612260565b9601920196019592919092611db9565b3461023c57602036600319011261023c5760043590611e108161233d565b6000815260006020820152606060408201526000606082015260006080820152606060a0820152600060c0820152600060e08201526000610100820152600061012082015261014060405191611e65836123f4565b8136843701528060005260046020526040600020541561031c576000526004602052604060002060405190611e998261233d565b8054825260018101546001600160a01b03166020830152604051611ec4816106f78160028601612693565b604083015260018060401b036003820154166060830152600481015460808301526005810160405190816020825491828152019160005260206000209060005b81811061204e5786611f6360098888611f1f818a0382612410565b60a0850152600681015460ff81811660c0870152600891821c16151560e086015260078201546101008601528101546001600160401b0316610120850152016127f3565b6101408201526040805160208082528351818301528301516001600160a01b031681830152908201516102806060830152611fa3906102a0830190612087565b60018060401b036060840151166080830152608083015160a083015260a083015190601f198382030160c08401526020808351928381520192019060005b8181106120385750505061056d6101408460ff60c0869701511660e086015260e0810151151561010086015261010081015161012086015260018060401b03610120820151168286015201516101608401906120ac565b8251845260209384019390920191600101611fe1565b8254845260209093019260019283019201611f04565b60005b8381106120775750506000910152565b8181015183820152602001612067565b906020916120a081518092818552858086019101612064565b601f01601f1916010190565b6000915b600a83106120bd57505050565b6001908251815260208091019201920191906120b0565b604090600319011261023c576004359060243590565b9060038210156109165752565b60ff60c0809282815116855260018060401b036020820151166020860152604081015160408601526060810151606086015261213b608082015160808701906120ea565b8260a08201511660a0860152015116910152565b805182526020808201516001600160401b039081168285015260408084015190911690840152606082015190939260019290918381101561091657606083015260809081015160009590929091015b600586106121ae57505050509050565b825181529483019491810191810161219e565b6004111561091657565b906000905b600682106121dd57505050565b60206040826121fe600194875160ff60208092828151168552015116910152565b019301910190916121d0565b90610340606061225e9361221f8482516121cb565b61223260208201516101808601906121cb565b612254604082015161030086019060ff60208092828151168552015116910152565b01519101906120ea565b565b9061233a906107806101806123206108c08651855260208701516020860152612291604088015160408701906120f7565b60608701516122a6610120918288019061214f565b6122b9608089015161024088019061214f565b60a08801516122c7816121c1565b6103608701526122e060c08901516103808801906120ea565b6122f360e08901516103a088019061220a565b61010088015161070087015287015115156107208601526101408701519080610740870152850190612087565b9460ff6101608201511661076085015201519101906120ac565b90565b61016081019081106001600160401b0382111761122657604052565b60e081019081106001600160401b0382111761122657604052565b6101a081019081106001600160401b0382111761122657604052565b608081019081106001600160401b0382111761122657604052565b60a081019081106001600160401b0382111761122657604052565b604081019081106001600160401b0382111761122657604052565b6001600160401b03811161122657604052565b61014081019081106001600160401b0382111761122657604052565b601f909101601f19168101906001600160401b0382119082101761122657604052565b6001600160401b03811161122657601f01601f191660200190565b92919261245a82612433565b916124686040519384612410565b82948184528183011161023c578281602093846000960137010152565b9080601f8301121561023c5781602061233a9335910161244e565b60038210156109165752565b906040516124b981612359565b60c060ff600383958054838116865260018060401b039060081c166020860152600181015460408601526002810154606086015201546124fe828216608086016124a0565b818160081c1660a085015260101c16910152565b9060405191612520836123ab565b82815481526001808301549260ff60018060401b039460209580821660208701528160401c16604086015260801c16600181101561091657606084015260405193600290910190600090855b60058310612589575050505050608090612585836123ab565b0152565b835481529284019291840191810161256c565b906040516125a9816123c6565b602060ff829454818116845260081c16910152565b604051919060c083016001600160401b03811184821017611226576040526000835b600682106125ed57505050565b6001602081926125fc8661259c565b8152019301910190916125e0565b9061225e60405161261a81612390565b606060ff600d839661262b816125be565b8552612639600682016125be565b602086015261264a600c820161259c565b604086015201541691016124a0565b90600182811c92168015612689575b602083101461267357565b634e487b7160e01b600052602260045260246000fd5b91607f1691612668565b8054600093926126a282612659565b9182825260209360019160018116908160001461270a57506001146126c9575b5050505050565b90939495506000929192528360002092846000945b8386106126f6575050505001019038808080806126c2565b8054858701830152940193859082016126de565b60ff19168685015250505090151560051b0101915038808080806126c2565b60085481101561274457600860005260206000200190600090565b634e487b7160e01b600052603260045260246000fd5b80548210156127445760005260206000200190600090565b600435906001600160a01b038216820361023c57565b359060ff8216820361023c57565b9181601f8401121561023c578235916001600160401b03831161023c576020838186019501011161023c57565b9181601f8401121561023c578235916001600160401b03831161023c5760208085019460c0850201011161023c57565b60405191906000835b600a82106128105750505061225e826123f4565b60016020819285548152019301910190916127fc565b6001600160401b0381116112265760051b60200190565b6040519061284a826123ab565b8160008152600060208201526000604082015260006060820152608060405191612873836123ab565b60a03684370152565b60408051919060c0908184016001600160401b03811185821017611226576040528360009160005b8481106128b2575050505050565b60209082516128c0816123c6565b858152858382015281850152016128a4565b6040908151916128e183612374565b6101808360009283825283602083015280516128fc81612359565b84815284602082015284828201528460608201528460808201528460a08201528460c08201528183015261292e61283d565b606083015261293b61283d565b60808301528360a08301528360c0830152805161295781612390565b61295f61287c565b815261296961287c565b60208201528151612979816123c6565b8581528560208201528282015284606082015260e083015283610100830152836101208301526101409360608584015261016083015251926129ba846123f4565b3684370152565b906129cb82612826565b6129d86040519182612410565b82815280926129e9601f1991612826565b019060005b8281106129fa57505050565b602090612a056128d2565b828285010152016129ee565b80518210156127445760209160051b010190565b9190820391821161093e57565b9190820180921161093e57565b60009081526020600481526040600581842001928354938415612c8f5784861015612b8e57612a6d866129c1565b95825b818110612a81575050505050505090565b80612aa0612a9a600193612a95868c612a25565b612a32565b8561275a565b9054600391821b1c86528752858520612b6c6027885192612ac084612374565b80548452858101548b850152612ad8600282016124ac565b8a850152612ae860068201612512565b6060850152612af9600d8201612512565b60808501526014810154612b1660ff82818094166106a5816121c1565b612b226015830161260a565b60e086015260238201546101008601528060248301541615156101208601528a51612b54816106f78160258701612693565b610140860152602682015416610160850152016127f3565b610180820152612b7c828b612a11565b52612b87818a612a11565b5001612a70565b9450612b99846129c1565b94815b858110612bac5750505050505090565b80612bb96001928461275a565b9054600391821b1c85528652848420612c6d6027875192612bd984612374565b80548452858101548a850152612bf1600282016124ac565b89850152612c0160068201612512565b6060850152612c12600d8201612512565b60808501526014810154612c2f60ff82818094166106a5816121c1565b612c3b6015830161260a565b60e086015260238201546101008601528060248301541615156101208601528951612b54816106f78160258701612693565b610180820152612c7d828a612a11565b52612c888189612a11565b5001612b9c565b50815194509250908301906001600160401b03821184831017612cb25752815290565b634e487b7160e01b83526041600452602483fd5b6002111561091657565b9060038110156109165760ff80198354169116179055565b818110612cf3575050565b60008155600101612ce8565b9190601f8111612d0e57505050565b61225e926000526020600020906020601f840160051c8301931061121c57601f0160051c0190612ce8565b8160011b916000199060031b1c19161790565b3560ff8116810361023c5790565b9061ff0082549160081b169061ff001916179055565b60ff60019116019060ff821161093e57565b9062ff000082549160101b169062ff00001916179055565b60ff612db66020809383612dad82612788565b16865201612788565b16910152565b91818152602080910192916000916000905b828210612ddd57505050505090565b909192939485358152818601356004811015612e35579081612e006001936121c1565b83820152612e146040808301908901612d9a565b612e246080808301908901612d9a565b60c090810196019493920190612dce565b8580fd5b906000905b60068210612e4b57505050565b6001604082612e6a83948760ff60209154818116845260081c16910152565b01930191019091612e3e565b60405190612e8382612390565b60006060838281528260208201528260408201520152565b6001600160a01b03908116908115612ee4576000805160206153c683398151915280546001600160a01b03198116841790915516600080516020615406833981519152600080a3565b604051631e4fbdf760e01b815260006004820152602490fd5b600019811461093e5760010190565b6040919493926060820195825260208201520152565b92919260009382855260049460209086825260409384822054156130955783825287835284822054156130955785825287835284822054848352858320541461308557858252878352848220600101546001600160a01b03908116908216036130755783825287835260ff6006868420015460081c166130655796600785837f1cce6a28f1564d6cb3044145a4ccc8873cf34f87429af3289490527d7c0437e6999a896130509897965284865283838320015480613055575b5050612fe8600a54612efd565b9384600a55612ff5612e76565b5082519561300287612390565b858752808701958b87526003858901918a835260608a0190428252865260098452868620928a51998a8555516001850155516002840155519101558a83525220015551925193849384612f0c565b0390a1565b61305e91614ddd565b3880612fdb565b8451635e003ea960e01b81528890fd5b8451633093624d60e21b81528890fd5b8451634de6470960e01b81528890fd5b845163b0ce759160e01b81528890fd5b81601f8201121561023c5780516130bb81612433565b926130c96040519485612410565b8184526020828401011161023c5761233a9160208085019101612064565b9060208282031261023c5781516001600160401b03811161023c5761233a92016130a5565b6001600160a01b0390811660008181526005602090815260408083205495909391929186156133ec578151156133db5786835260049182855285842091600197600184015416036133cb57908361317e949392875180968192630fb93a7160e21b835289878401526024830190612087565b038173__$18826597157b5485acfb86513cd242e4d3$__5af49384156133c157839461339a575b5060020185516131b9816106f78185612693565b858151910120918451928686019384201461338c5760ff8751878188516131e181838a612064565b8101600b815203019020541661337e57865197613209896132028186612693565b038a612410565b875187818161321e8d83815193849201612064565b8101600b8152030190209460ff199586815416905586519260018060401b03841161336b5750613258836132528654612659565b86612cff565b8791601f84116001146132ec5750966132dc9694819694613298856001966132ab966000805160206154468339815191529f9e9d916132e1575b50612d39565b90555b8851809381928851928391612064565b8101600b815203019020918254161790556132cf8451958587968752860190612087565b9184830390850152612087565b0390a2565b905089015138613292565b8482528882209291601f198516915b828210613354575050948896946001856132ab956000805160206154468339815191529e9d9c9583986132dc9d9b1061333b575b5050811b01905561329b565b8a015160001960f88460031b161c19169055388061332f565b89840151855593840193928a0192908a01906132fb565b634e487b7160e01b825260419052602490fd5b8651634749bdef60e11b8152fd5b865163095d531d60e21b8152fd5b60029194506133ba903d8086833e6133b28183612410565b8101906130e7565b93906131a5565b86513d85823e3d90fd5b855163158d215560e01b81528390fd5b845163d9f415a960e01b8152600490fd5b845163b0ce759160e01b8152600490fd5b51906001600160401b038216820361023c57565b5190811515820361023c57565b9060018060a01b0380831660005260056020526040600020546139ae5781511561399c5761348091600073__$18826597157b5485acfb86513cd242e4d3$__9160405180958192630fb93a7160e21b8352602060048401526024830190612087565b0381845af49283156139615760009361397f575b5060ff60405160208186516134ac8183858b01612064565b8101600b815203019020541661396d5760006134c9600754612efd565b80600755604051928391631d029a8d60e01b83526004830152848716602483015260a06044830152818061350060a4820189612087565b60ff8b16606483015242608483015203915af4908115613961576000916137c7575b5080516000526004602052604060002081518155600181018360208401511660018060a01b031982541617905560028101604083015180519060018060401b0382116112265761357c826135768554612659565b85612cff565b602090601f831160011461375f5761359e929160009183613754575050612d39565b90555b60608201516003820180546001600160401b0319166001600160401b039283161790556080830151600483015560a0830151805191821161122657600160401b8211611226576020906005840154836005860155808410613734575b500160058301600052602060002060005b83811061372057505050506006810160ff60c08401511681549061ff0060e0860151151560081b169161ffff19161717905561010082015160078201556008810160018060401b036101208401511660018060401b031982541617905561014082015160005b600a811061370957505050916136fb917f1599aa311a61861ca44d28454c9e07d6e99428d1fcd90906d4eb6c322d7c52a29360405160208185516136bb8183858a01612064565b8101600b815203019020600160ff1982541617905580518287166000526005602052604060002055519460ff604051948594604086526040860190612087565b9716602084015216940390a3565b600190602083519301926009828601015501613674565b60019060208451940193818401550161360e565b61374e906005860160005284846000209182019101612ce8565b386135fd565b0151905038806110f9565b90601f198316918460005260206000209260005b8181106137af5750908460019594939210613796575b505050811b0190556135a1565b015160001960f88460031b161c19169055388080613789565b92936020600181928786015181550195019301613773565b90503d806000833e6137d98183612410565b810160208282031261023c5781516001600160401b039283821161023c57019061028090818382031261023c57604051936138138561233d565b835185526020840151868116810361023c576020860152604084015181811161023c57826138429186016130a5565b6040860152613853606085016133fd565b60608601526080840151608086015260a084015190811161023c57830181601f8201121561023c5780519061388782612826565b916138956040519384612410565b80835260208084019160051b8301019184831161023c57602001905b8282106139515750505060a085015260c083015160ff8116810361023c5760c08501526138e060e08401613411565b60e085015261010080840151908501526101206138fe8185016133fd565b90850152610140918161015f8501121561023c576040519361391f856123f4565b8491810192831161023c578301905b8282106139415750505082015238613522565b815181526020918201910161392e565b81518152602091820191016138b1565b6040513d6000823e3d90fd5b604051634749bdef60e11b8152600490fd5b6139959193503d806000833e6133b28183612410565b9138613494565b60405163d9f415a960e01b8152600490fd5b60405163f2d8e7a360e01b8152600490fd5b8054600160401b600160801b03191660409290921b600160401b600160801b0316919091179055565b9060038110156109165761ff0082549160081b169061ff001916179055565b80549190600160401b8310156112265782613a2b91600161225e9501815561275a565b90919082549060031b91821b91600019901b1916179055565b92909192600090838252600960205260036040832001541561031c57838252600960205260026040832001548252600460205260018060a01b038060016040852001541691160361097e57828152600960205260016040822001548152600460205260ff600660408320015460081c1661447b57828152600960205260026040822001548152600460205260ff600660408320015460081c1661447b57828152600960205260026040822001548152600460205260076040822001546143f6575b828152600960205260408120926002600185015494015494613b28600654612efd565b90816006558584526004602052613b6460018060401b036003604087200154169188865260018060401b0360036040882001541696369161244e565b613b6c6128d2565b50604051613b79816123ab565b85815285602082015285604082015285606082015285608082015260405192613ba1846123ab565b88845260208401528560408401528560608401526080830152604051613bc6816123ab565b85815285602082015285604082015285606082015285608082015260405196613bee886123ab565b89885260208801528560408801528560608801526080870152613c0f61287c565b50613c1861287c565b604051613c24816123c6565b60018152600560208201528152604051613c3d816123c6565b60048152600260208201526020820152604051613c59816123c6565b60048152600860208201526040820152604051613c75816123c6565b60068152600360208201526060820152604051613c91816123c6565b60068152600760208201526080820152604051613cad816123c6565b600881526005602082015260a0820152613cc561287c565b50613cce61287c565b96604051613cdb816123c6565b600f8152600560208201528852604051613cf4816123c6565b600c8152600260208201526020890152604051613d10816123c6565b600c8152600860208201526040890152604051613d2c816123c6565b600a8152600260208201526060890152604051613d48816123c6565b600a8152600860208201526080890152604051613d64816123c6565b600a81526005602082015260a089015260405197613d8189612359565b8789528760208a01528760408a01528760608a01528760808a01528760a08a01528760c08a015260405190613db5826123c6565b600882526005602083015260405193613dcd85612390565b84526020840152604083015260016060830152604051938461014081011060018060401b03610140870111176112265761014085016040528785528760208601528760408601528760608601528760808601528760a08601528760c08601528760e0860152876101008601528761012086015260405198613e4d8a612374565b868a524260208b015260408a015260608901526080880152600160a08801528560c088015260e087015284610100870152846101208701526101408601526001610160860152610180850152825260036020526040822083518155602084015160018201556002810160408501519060ff825116815490610100600160481b03602085015160081b169160018060481b031916171790556040810151600383015560608101516004830155608081015160038110156143cb5760c0613f3a92613f1b60ff9360058701612cd0565b613f2e8360a08301511660058701612d5a565b01511660058301612d82565b60608401518051600683015560208101516007830180546001600160401b0319166001600160401b039283161781556040830151613f799216906139c0565b606081015160018110156143cb5760078301805460ff60801b1916608092831b60ff60801b161790550151835b600581106143df57505060808401518051600d8301556020810151600e830180546001600160401b0319166001600160401b039283161781556040830151613fef9216906139c0565b606081015160018110156143cb57600e8301805460ff60801b1916608092831b60ff60801b161790550151835b600581106143b457505060a0840151614034816121c1565b61403d816121c1565b60ff8019601484015416911617601482015560c084015160038110156143425761406a90601483016139e9565b60e08401518051601583019085905b60068210614385575050506020810151601b83019085905b60068210614356575050506060906140c46021840160ff6020604085015182815116831985541617845501511690612d5a565b01516003811015614342576140dc9060228301612cd0565b610100840151602382015560248101610120850151151560ff8019835416911617905561014084015180519060018060401b03821161432e5761412f826141266025860154612659565b60258601612cff565b602090601f83116001146142bf576141509291869183613754575050612d39565b60258201555b6026810160ff6101608601511660ff19825416179055610180840151835b600a81106142a85750505073__$18826597157b5485acfb86513cd242e4d3$__90813b156142a4578290606460405180948193636c2a23bf60e01b8352600960048401526004602484015260448301525af4801561429957614282575b5060056040828561422f9452600460205260068282200161ff001990610100828254161790558782526101006006848420019182541617905585815261421d8383832001865190613a08565b86815260046020522001825190613a08565b805160085490600160401b82101561122657613a2b8260016142549401600855612729565b517f94b80033a8327ab5e699285e343e5f1027e2299b685ec5836a08f3a8faacbd59602060405160018152a4565b61428c82916123e1565b61429657386141d1565b80fd5b6040513d84823e3d90fd5b8280fd5b600190602083519301926027828601015501614174565b9190602584018652602086209086935b601f1984168510614313576001945083601f198116106142fa575b505050811b016025820155614156565b015160001960f88460031b161c191690553880806142ea565b818101518355602094850194600190930192909101906142cf565b634e487b7160e01b85526041600452602485fd5b634e487b7160e01b84526021600452602484fd5b600160208261437960ff838596518281511683198b5416178a5501511687612d5a565b01930191019091614091565b60016020826143a860ff838596518281511683198b5416178a5501511687612d5a565b01930191019091614079565b60019060208351930192600f82860101550161401c565b634e487b7160e01b85526021600452602485fd5b600190602083519301926008828601015501613fa6565b73__$18826597157b5485acfb86513cd242e4d3$__83825260096020526002604083200154825260046020526007604083200154813b156142a4578290606460405180948193636c2a23bf60e01b8352600960048401526004602484015260448301525af480156142995761446c575b50613b05565b614475906123e1565b38614466565b604051635e003ea960e01b8152600490fd5b6000805160206153c6833981519152546001600160a01b031633036144ae57565b60405163118cdaa760e01b8152336004820152602490fd5b60008181526003806020526040918281209060068201548152600492600460205284822093600d840154835285832092601485019460ff8654169461450a866121c1565b60018096036146cc579060059160068060089a8b810180549060018060401b039081614537818516614f79565b166001600160401b03199384161790558d860180549092909161455b818416614f79565b169116179055019161ff0019928381541690550190815416905501805460ff8116600360ff19895416178855600381101561434257869594939291906001036146ba5750805462ffff0019166103001790555b80945b6145e9575b5050505050600080516020615466833981519152929160ff9154901c166145df825180926120ea565b60016020820152a2565b8654808610156146b457896145fd87612729565b905490861b1c14614613575083809501946145b1565b9491935091600019948581019081116146a1576146429291614637613a2b92612729565b9054911b1c91612729565b845491821561468e5750509160008051602061546683398151915294939160ff930161468161467082612729565b8154906000199060031b1b19169055565b82559181939438806145b6565b634e487b7160e01b825260319052602490fd5b634e487b7160e01b845260118552602484fd5b506145b6565b62ffff001916620300001790556145ae565b885162461bcd60e51b815260206004820152601260248201527147616d65206973206e6f742061637469766560701b6044820152606490fd5b90600091808352600392602084815260409182812060ff90602d8260028301541610614b6457600681015483526004906004855285842091600d82015485528685206014830193858554169361475a856121c1565b6001809503614b2b5791898594928a8f8e8a8d8d9c9b9960089d8e80890194855493600160401b600190039c8d9b8c988980891661479790614f79565b166001600160401b03199889161790558482018054888b6147b9818416614f79565b1691161790556006019061ff0019918281541690556006019081541690556005015490838083851c169260101c168083116000149261480c93614b165750506001905b805460ff191660021781556139e9565b85845286885260048a85209860068a0154865252848a852094600d8a01548152818c82209a60058801541580614b07575b614acf575b60058c015415828c8e83614abf575b505050614a87575b60078101948280875416600e840198806005848c541696015480951c169360101c16955061489661488c8785878561500d565b949097838761500d565b96909315614a77576148a791612a25565b16935b15614a68576148b891612a25565b165b858a88019a8c019e8f9216915416178d551690838854169180831789556113889485809210956149199461492397614a5e575b50508d548289821610614a52575b5050509295509295809a9b9c508499509796979390935416906139c0565b83885416906139c0565b54935416928d8d51806149597fcbbcee95272cfb3753df326bdc92854d09463c4834c094a042f4066cc803b9b597889483614f91565b0390a2549254168b61496f8c5192839283614f91565b0390a285825b6149a7575b5050506000805160206154668339815191529697985054901c16916149a1845180946120ea565b820152a2565b845480821015614a4c578a8d6149bc84612729565b9054911b1c146149cf5750820182614975565b9250909a60001992838101908111614a39576149f29291614637613a2b92612729565b82548015614a265760008051602061546683398151915298999a5001614a1a61467082612729565b8255889796388061497a565b634e487b7160e01b865260318b52602486fd5b634e487b7160e01b885260118d52602488fd5b5061497a565b16178c553880806148fb565b178a5581386148ed565b614a7191612a32565b166148ba565b614a8091612a32565b16936148aa565b8a8c01612710908189825416179055600e820190888254606486821614614ab2575b50505050614859565b1617905538808881614aa9565b6064935001541614828c8e614851565b8a88016127109081898254161790556007820190888254606486821614614afa575b50505050614842565b1617905538808881614af1565b506064828c8a0154161461483d565b1015614b24576002906147fc565b85906147fc565b895162461bcd60e51b8152600481018a9052601260248201527147616d65206973206e6f742061637469766560701b6044820152606490fd5b8451636ff6cfe560e01b8152600490fd5b9290936000918583526020936003855260409586852090600160ff601484015416614b9f816121c1565b03614dcc576003831015614db8578215614da7578315614d9657600183148080614d89575b614d785760028414908180614d6b575b614d5a5715614d2257506006820154865260048752878620600101546001600160a01b03908116911603614d11576002905b019260ff8454169060ff80614c1a84612d70565b9216911603614d0057602d1115614cf157614c4b908651936378e02d7160e11b8552600485015260248401906120ea565b6044820152828160648173__$18826597157b5485acfb86513cd242e4d3$__5af4918215614ce6578092614cae575b5050614c8557505050565b7fd6ad8b09cb4bf385f0569c05c242d45e491f752df651aae6a2db9ff589bd9fae9151428152a2565b9091508282813d8311614cdf575b614cc68183612410565b810103126142965750614cd890613411565b3880614c7a565b503d614cbc565b8451903d90823e3d90fd5b50505050505061225e90614705565b8651638291953560e01b8152600490fd5b8651633093624d60e21b8152600490fd5b614d30575b50600290614c06565b600d820154865260048752878620600101546001600160a01b03908116911603614d115738614d27565b8951635ce6d95760e11b8152600490fd5b5060048401541515614bd4565b8851635ce6d95760e11b8152600490fd5b5060038301541515614bc4565b8751635101966360e01b8152600490fd5b8751636f6fc75f60e11b8152600490fd5b634e487b7160e01b86526021600452602486fd5b87516314bc0c2f60e31b8152600490fd5b919091821561031c57600092808452600960205260406003818620015415614f3a5781855260096020526001818620015485526004928360205260018060a01b03806001848920015416911603614f2b57818552600960205260038186200154603c8101809111614f1857421115614f0957818552600960205280852092600260018501549401549573__$18826597157b5485acfb86513cd242e4d3$__91823b15614f055781906064855180958193636c2a23bf60e01b835260098184015260248301528860448301525af4908115614efa5750917f773e15a265d8549eebc3e80bafb0e2cbeba28c5d2b2a081e31c34554c7d0507d95969161305093614eeb575b505193849384612f0c565b614ef4906123e1565b38614ee0565b8351903d90823e3d90fd5b5080fd5b516343dcbe9f60e01b81529050fd5b634e487b7160e01b865260118452602486fd5b51633093624d60e21b81529050fd5b5163b0ce759160e01b8152600490fd5b60ff6000805160206154268339815191525460401c1615614f6757565b604051631afcd79f60e31b8152600490fd5b6001600160401b0390811690811461093e5760010190565b9081526001600160401b03909116602082015260400190565b90614fd15750805115614fbf57602081519101fd5b60405163d6bda27560e01b8152600490fd5b81511580615004575b614fe2575090565b604051639996b31560e01b81526001600160a01b039091166004820152602490fd5b50803b15614fda565b90939160ff811691601483118015615269575b61523757600060ff86168085149485600014615222575050506032905b600090606483116152095781978360051b9360018060fb1b038116036151f5578181036150d1575050506106405b808210965086156150c95703935b84926127108096116150c1575b6150b9576150939161528a565b9081810291818304149015171561093e5760649004925b918084116150b55750565b9250565b5050926150aa565b859350615086565b900393615079565b80601991831192836000146151e757906150ea91612a25565b6104658082116151df575b50600192919004600a838216156151d557600a91908b915b851c90815b6151865750505061512b61512b61512b615130936152f4565b6152f4565b91821561517e575b501561516a5760648101918215615156575060051b6064020461506b565b634e487b7160e01b81526012600452602490fd5b6064019081156151565750610c800461506b565b915038615138565b8060801c6142a4578002916151d157818582166151a9575b50841c8b9181615112565b8084029c509092818d04036151c3575b50849a913861519e565b6151cd57386151b9565b8480fd5b8b80fd5b8391908b9161510d565b9050386150f5565b6151f091612a25565b6150ea565b634e487b7160e01b83526011600452602483fd5b604051632c870e6b60e11b815260048101849052602490fd5b1115615231575060649061503d565b9061503d565b508360249260ff82161060001461526257505b60ff6040519163fc8c9a9b60e01b8352166004820152fd5b905061524a565b50601460ff861611615020565b9060ff8091169116039060ff821161093e57565b9060ff81169160ff8116928084146152eb5760ff9311156152dd57906152af91615276565b16600181146152d757600281146152d1576003146152cc5760c890565b60af90565b50609690565b50606490565b6152e691615276565b6152af565b50505050606490565b60b581600160881b811015615393575b6201000090600160481b811015615386575b600160281b811015615379575b630100000081101561536c575b010260121c60019080830401811c80830401811c80830401811c80830401811c80830401811c80830401811c80830401901c8080920410900390565b60101c9160081b91615330565b60201c9160101b91615323565b60401c9160201b91615316565b5060b560401b9050608082901c61530456fe579c31d7f947df31adb29f8688c651ffa98030b83bb0d87632c86357f13afafd9016d09d72d40fdae2fd8ceac6b6234c7706214fd39c1cd1e609a0528c199300360894a13ba1a3210667c828492db98dca3e2076cc3735a920a3ca505d382bbc8be0079c531659141344cd1fd0a4f28419497f9722a3daafe3b4186f6b6457e0f0c57e16840df040f15088dc2f81fe391c3923bec73e23a9662efc9c229c6a008332b62e8472ab6f7caff6a892ce0f302647a56072c13a6ba973c7265c5c93294019f194fe4a757f9f1441d256eeb40c3f12e80f9da6188b5ad1a5fcda7217d740f6909351d16bebd2bb97c72ea15dc2508f321a25ba4ff1df4c330cced53820a2646970667358221220cabcbfd774e3293fb901ce0676554e9e951a791dc5db469eee454505d1743e4864736f6c63430008180033",
  "linkReferences": {
    "contracts/GameLib.sol": {
      "GameLib": [
        {
          "length": 20,
          "start": 12889
        },
        {
          "length": 20,
          "start": 13601
        },
        {
          "length": 20,
          "start": 16984
        },
        {
          "length": 20,
          "start": 17615
        },
        {
          "length": 20,
          "start": 19758
        },
        {
          "length": 20,
          "start": 20287
        }
      ]
    }
  },
  "deployedLinkReferences": {
    "contracts/GameLib.sol": {
      "GameLib": [
        {
          "length": 20,
          "start": 12674
        },
        {
          "length": 20,
          "start": 13386
        },
        {
          "length": 20,
          "start": 16769
        },
        {
          "length": 20,
          "start": 17400
        },
        {
          "length": 20,
          "start": 19543
        },
        {
          "length": 20,
          "start": 20072
        }
      ]
    }
  }
}