{
  "_format": "hh-sol-artifact-1",
  "contractName": "ChessBallGame",
  "sourceName": "contracts/Game.sol",
  "abi": [
    {
      "inputs": [],
      "stateMutability": "nonpayable",
      "type": "constructor"
    },
    {
      "inputs": [],
      "name": "ActionsNotCommitted",
      "type": "error"
    },
    {
      "inputs": [
        {
          "internalType": "address",
          "name": "target",
          "type": "address"
        }
      ],
      "name": "AddressEmptyCode",
      "type": "error"
    },
    {
      "inputs": [],
      "name": "CreateTeam_NameIsRequired",
      "type": "error"
    },
    {
      "inputs": [],
      "name": "CreateTeam_TeamAlreadyExists",
      "type": "error"
    },
    {
      "inputs": [],
      "name": "CreateTeam_TeamNameAlreadyExists",
      "type": "error"
    },
    {
      "inputs": [],
      "name": "DoesNotExist",
      "type": "error"
    },
    {
      "inputs": [
        {
          "internalType": "address",
          "name": "implementation",
          "type": "address"
        }
      ],
      "name": "ERC1967InvalidImplementation",
      "type": "error"
    },
    {
      "inputs": [],
      "name": "ERC1967NonPayable",
      "type": "error"
    },
    {
      "inputs": [],
      "name": "FailedCall",
      "type": "error"
    },
    {
      "inputs": [],
      "name": "FinishGameByTimeout_NoLastMove",
      "type": "error"
    },
    {
      "inputs": [],
      "name": "GameHasNotReachedMaxMoves",
      "type": "error"
    },
    {
      "inputs": [],
      "name": "GameIsNotActive",
      "type": "error"
    },
    {
      "inputs": [],
      "name": "GameOwnerShouldCall",
      "type": "error"
    },
    {
      "inputs": [],
      "name": "GameRequestNotExpired",
      "type": "error"
    },
    {
      "inputs": [],
      "name": "GameRequestTimeoutNotReached",
      "type": "error"
    },
    {
      "inputs": [],
      "name": "InitAddressCannotBeZero",
      "type": "error"
    },
    {
      "inputs": [
        {
          "internalType": "uint8",
          "name": "goals",
          "type": "uint8"
        }
      ],
      "name": "InvalidGoals",
      "type": "error"
    },
    {
      "inputs": [],
      "name": "InvalidInitialization",
      "type": "error"
    },
    {
      "inputs": [
        {
          "internalType": "uint256",
          "name": "score",
          "type": "uint256"
        }
      ],
      "name": "InvalidScore",
      "type": "error"
    },
    {
      "inputs": [],
      "name": "InvalidTeam",
      "type": "error"
    },
    {
      "inputs": [],
      "name": "MovesAlreadyCommitted",
      "type": "error"
    },
    {
      "inputs": [],
      "name": "MovesEncryptedCannotBeZero",
      "type": "error"
    },
    {
      "inputs": [],
      "name": "NotInitializing",
      "type": "error"
    },
    {
      "inputs": [],
      "name": "OnlyGameEngineServerCanCall",
      "type": "error"
    },
    {
      "inputs": [],
      "name": "OnlyRelayerCanCall",
      "type": "error"
    },
    {
      "inputs": [
        {
          "internalType": "address",
          "name": "owner",
          "type": "address"
        }
      ],
      "name": "OwnableInvalidOwner",
      "type": "error"
    },
    {
      "inputs": [
        {
          "internalType": "address",
          "name": "account",
          "type": "address"
        }
      ],
      "name": "OwnableUnauthorizedAccount",
      "type": "error"
    },
    {
      "inputs": [],
      "name": "TeamAlreadyHasActiveGame",
      "type": "error"
    },
    {
      "inputs": [],
      "name": "TeamsCannotBeSame",
      "type": "error"
    },
    {
      "inputs": [],
      "name": "UUPSUnauthorizedCallContext",
      "type": "error"
    },
    {
      "inputs": [
        {
          "internalType": "bytes32",
          "name": "slot",
          "type": "bytes32"
        }
      ],
      "name": "UUPSUnsupportedProxiableUUID",
      "type": "error"
    },
    {
      "inputs": [],
      "name": "WrongMoveNumber",
      "type": "error"
    },
    {
      "anonymous": false,
      "inputs": [
        {
          "indexed": true,
          "internalType": "uint256",
          "name": "teamId",
          "type": "uint256"
        },
        {
          "indexed": false,
          "internalType": "uint256",
          "name": "gameId",
          "type": "uint256"
        },
        {
          "indexed": false,
          "internalType": "uint64",
          "name": "eloRating",
          "type": "uint64"
        }
      ],
      "name": "EloUpdated",
      "type": "event"
    },
    {
      "anonymous": false,
      "inputs": [
        {
          "indexed": true,
          "internalType": "uint256",
          "name": "gameId",
          "type": "uint256"
        },
        {
          "indexed": false,
          "internalType": "enum GameLib.TeamEnum",
          "name": "winner",
          "type": "uint8"
        },
        {
          "indexed": false,
          "internalType": "enum GameLib.FinishReason",
          "name": "finishReason",
          "type": "uint8"
        }
      ],
      "name": "GameFinished",
      "type": "event"
    },
    {
      "anonymous": false,
      "inputs": [
        {
          "indexed": false,
          "internalType": "uint256",
          "name": "gameRequestId",
          "type": "uint256"
        },
        {
          "indexed": false,
          "internalType": "uint256",
          "name": "team1id",
          "type": "uint256"
        },
        {
          "indexed": false,
          "internalType": "uint256",
          "name": "team2id",
          "type": "uint256"
        }
      ],
      "name": "GameRequestCancelled",
      "type": "event"
    },
    {
      "anonymous": false,
      "inputs": [
        {
          "indexed": false,
          "internalType": "uint256",
          "name": "gameRequestId",
          "type": "uint256"
        },
        {
          "indexed": false,
          "internalType": "uint256",
          "name": "team1id",
          "type": "uint256"
        },
        {
          "indexed": false,
          "internalType": "uint256",
          "name": "team2id",
          "type": "uint256"
        }
      ],
      "name": "GameRequestCreated",
      "type": "event"
    },
    {
      "anonymous": false,
      "inputs": [
        {
          "indexed": true,
          "internalType": "uint256",
          "name": "gameId",
          "type": "uint256"
        },
        {
          "indexed": true,
          "internalType": "uint256",
          "name": "team1id",
          "type": "uint256"
        },
        {
          "indexed": true,
          "internalType": "uint256",
          "name": "team2id",
          "type": "uint256"
        },
        {
          "indexed": false,
          "internalType": "enum GameLib.TeamEnum",
          "name": "teamWithBall",
          "type": "uint8"
        }
      ],
      "name": "GameStarted",
      "type": "event"
    },
    {
      "anonymous": false,
      "inputs": [
        {
          "indexed": true,
          "internalType": "uint256",
          "name": "gameId",
          "type": "uint256"
        },
        {
          "indexed": false,
          "internalType": "enum GameLib.TeamEnum",
          "name": "cauzedByTeam",
          "type": "uint8"
        },
        {
          "indexed": false,
          "internalType": "enum ChessBallGame.ErrorType",
          "name": "errorType",
          "type": "uint8"
        },
        {
          "indexed": false,
          "internalType": "uint256",
          "name": "time",
          "type": "uint256"
        },
        {
          "indexed": false,
          "internalType": "string",
          "name": "errorMsg",
          "type": "string"
        }
      ],
      "name": "GameStateError",
      "type": "event"
    },
    {
      "anonymous": false,
      "inputs": [
        {
          "indexed": true,
          "internalType": "uint256",
          "name": "gameId",
          "type": "uint256"
        },
        {
          "indexed": false,
          "internalType": "enum GameLib.TeamEnum",
          "name": "scoringTeam",
          "type": "uint8"
        }
      ],
      "name": "GoalScored",
      "type": "event"
    },
    {
      "anonymous": false,
      "inputs": [
        {
          "indexed": false,
          "internalType": "uint64",
          "name": "version",
          "type": "uint64"
        }
      ],
      "name": "Initialized",
      "type": "event"
    },
    {
      "anonymous": false,
      "inputs": [
        {
          "indexed": true,
          "internalType": "uint256",
          "name": "gameId",
          "type": "uint256"
        },
        {
          "indexed": false,
          "internalType": "enum GameLib.StateType",
          "name": "stateType",
          "type": "uint8"
        },
        {
          "indexed": false,
          "internalType": "uint256",
          "name": "time",
          "type": "uint256"
        },
        {
          "indexed": false,
          "internalType": "uint8[]",
          "name": "clashRandomNumbers",
          "type": "uint8[]"
        },
        {
          "components": [
            {
              "internalType": "uint256",
              "name": "playerId",
              "type": "uint256"
            },
            {
              "internalType": "enum GameLib.MoveType",
              "name": "moveType",
              "type": "uint8"
            },
            {
              "components": [
                {
                  "internalType": "uint8",
                  "name": "x",
                  "type": "uint8"
                },
                {
                  "internalType": "uint8",
                  "name": "y",
                  "type": "uint8"
                }
              ],
              "internalType": "struct GameLib.Position",
              "name": "oldPosition",
              "type": "tuple"
            },
            {
              "components": [
                {
                  "internalType": "uint8",
                  "name": "x",
                  "type": "uint8"
                },
                {
                  "internalType": "uint8",
                  "name": "y",
                  "type": "uint8"
                }
              ],
              "internalType": "struct GameLib.Position",
              "name": "newPosition",
              "type": "tuple"
            }
          ],
          "indexed": false,
          "internalType": "struct GameLib.GameAction[]",
          "name": "team1Actions",
          "type": "tuple[]"
        },
        {
          "components": [
            {
              "internalType": "uint256",
              "name": "playerId",
              "type": "uint256"
            },
            {
              "internalType": "enum GameLib.MoveType",
              "name": "moveType",
              "type": "uint8"
            },
            {
              "components": [
                {
                  "internalType": "uint8",
                  "name": "x",
                  "type": "uint8"
                },
                {
                  "internalType": "uint8",
                  "name": "y",
                  "type": "uint8"
                }
              ],
              "internalType": "struct GameLib.Position",
              "name": "oldPosition",
              "type": "tuple"
            },
            {
              "components": [
                {
                  "internalType": "uint8",
                  "name": "x",
                  "type": "uint8"
                },
                {
                  "internalType": "uint8",
                  "name": "y",
                  "type": "uint8"
                }
              ],
              "internalType": "struct GameLib.Position",
              "name": "newPosition",
              "type": "tuple"
            }
          ],
          "indexed": false,
          "internalType": "struct GameLib.GameAction[]",
          "name": "team2Actions",
          "type": "tuple[]"
        },
        {
          "components": [
            {
              "components": [
                {
                  "internalType": "uint8",
                  "name": "x",
                  "type": "uint8"
                },
                {
                  "internalType": "uint8",
                  "name": "y",
                  "type": "uint8"
                }
              ],
              "internalType": "struct GameLib.Position[6]",
              "name": "team1PlayerPositions",
              "type": "tuple[6]"
            },
            {
              "components": [
                {
                  "internalType": "uint8",
                  "name": "x",
                  "type": "uint8"
                },
                {
                  "internalType": "uint8",
                  "name": "y",
                  "type": "uint8"
                }
              ],
              "internalType": "struct GameLib.Position[6]",
              "name": "team2PlayerPositions",
              "type": "tuple[6]"
            },
            {
              "components": [
                {
                  "internalType": "uint8",
                  "name": "x",
                  "type": "uint8"
                },
                {
                  "internalType": "uint8",
                  "name": "y",
                  "type": "uint8"
                }
              ],
              "internalType": "struct GameLib.Position",
              "name": "ballPosition",
              "type": "tuple"
            },
            {
              "internalType": "enum GameLib.TeamEnum",
              "name": "ballOwner",
              "type": "uint8"
            }
          ],
          "indexed": false,
          "internalType": "struct GameLib.BoardState",
          "name": "boardState",
          "type": "tuple"
        }
      ],
      "name": "NewGameState",
      "type": "event"
    },
    {
      "anonymous": false,
      "inputs": [
        {
          "indexed": true,
          "internalType": "address",
          "name": "previousOwner",
          "type": "address"
        },
        {
          "indexed": true,
          "internalType": "address",
          "name": "newOwner",
          "type": "address"
        }
      ],
      "name": "OwnershipTransferred",
      "type": "event"
    },
    {
      "anonymous": false,
      "inputs": [
        {
          "indexed": true,
          "internalType": "uint256",
          "name": "teamId",
          "type": "uint256"
        },
        {
          "indexed": true,
          "internalType": "address",
          "name": "owner",
          "type": "address"
        },
        {
          "indexed": false,
          "internalType": "string",
          "name": "name",
          "type": "string"
        },
        {
          "indexed": false,
          "internalType": "uint8",
          "name": "country",
          "type": "uint8"
        }
      ],
      "name": "TeamCreated",
      "type": "event"
    },
    {
      "anonymous": false,
      "inputs": [
        {
          "indexed": true,
          "internalType": "address",
          "name": "implementation",
          "type": "address"
        }
      ],
      "name": "Upgraded",
      "type": "event"
    },
    {
      "anonymous": false,
      "inputs": [
        {
          "indexed": true,
          "internalType": "uint256",
          "name": "gameId",
          "type": "uint256"
        },
        {
          "indexed": false,
          "internalType": "uint256",
          "name": "timestamp",
          "type": "uint256"
        }
      ],
      "name": "gameActionCommitted",
      "type": "event"
    },
    {
      "inputs": [],
      "name": "UPGRADE_INTERFACE_VERSION",
      "outputs": [
        {
          "internalType": "string",
          "name": "",
          "type": "string"
        }
      ],
      "stateMutability": "view",
      "type": "function"
    },
    {
      "inputs": [
        {
          "internalType": "uint256",
          "name": "",
          "type": "uint256"
        }
      ],
      "name": "activeGames",
      "outputs": [
        {
          "internalType": "uint256",
          "name": "",
          "type": "uint256"
        }
      ],
      "stateMutability": "view",
      "type": "function"
    },
    {
      "inputs": [
        {
          "internalType": "uint256",
          "name": "gameRequestId",
          "type": "uint256"
        }
      ],
      "name": "cancelGameRequest",
      "outputs": [],
      "stateMutability": "nonpayable",
      "type": "function"
    },
    {
      "inputs": [
        {
          "internalType": "address",
          "name": "sender",
          "type": "address"
        },
        {
          "internalType": "uint256",
          "name": "gameRequestId",
          "type": "uint256"
        }
      ],
      "name": "cancelGameRequestRelayer",
      "outputs": [],
      "stateMutability": "nonpayable",
      "type": "function"
    },
    {
      "inputs": [
        {
          "internalType": "address",
          "name": "sender",
          "type": "address"
        },
        {
          "internalType": "uint256",
          "name": "gameId",
          "type": "uint256"
        },
        {
          "internalType": "enum GameLib.TeamEnum",
          "name": "team",
          "type": "uint8"
        },
        {
          "internalType": "bytes32",
          "name": "movesEncrypted",
          "type": "bytes32"
        },
        {
          "internalType": "uint8",
          "name": "movesMade",
          "type": "uint8"
        }
      ],
      "name": "commitGameActionsRelayer",
      "outputs": [],
      "stateMutability": "nonpayable",
      "type": "function"
    },
    {
      "inputs": [
        {
          "internalType": "uint256",
          "name": "team1id",
          "type": "uint256"
        },
        {
          "internalType": "uint256",
          "name": "team2id",
          "type": "uint256"
        }
      ],
      "name": "createGameRequest",
      "outputs": [],
      "stateMutability": "nonpayable",
      "type": "function"
    },
    {
      "inputs": [
        {
          "internalType": "address",
          "name": "sender",
          "type": "address"
        },
        {
          "internalType": "uint256",
          "name": "team1id",
          "type": "uint256"
        },
        {
          "internalType": "uint256",
          "name": "team2id",
          "type": "uint256"
        }
      ],
      "name": "createGameRequestRelayer",
      "outputs": [],
      "stateMutability": "nonpayable",
      "type": "function"
    },
    {
      "inputs": [
        {
          "internalType": "string",
          "name": "name",
          "type": "string"
        },
        {
          "internalType": "uint8",
          "name": "country",
          "type": "uint8"
        }
      ],
      "name": "createTeam",
      "outputs": [],
      "stateMutability": "nonpayable",
      "type": "function"
    },
    {
      "inputs": [
        {
          "internalType": "address",
          "name": "sender",
          "type": "address"
        },
        {
          "internalType": "string",
          "name": "name",
          "type": "string"
        },
        {
          "internalType": "uint8",
          "name": "country",
          "type": "uint8"
        }
      ],
      "name": "createTeamRelayer",
      "outputs": [],
      "stateMutability": "nonpayable",
      "type": "function"
    },
    {
      "inputs": [
        {
          "internalType": "uint256",
          "name": "gameId",
          "type": "uint256"
        }
      ],
      "name": "finishGameByTimeout",
      "outputs": [],
      "stateMutability": "nonpayable",
      "type": "function"
    },
    {
      "inputs": [
        {
          "internalType": "address",
          "name": "sender",
          "type": "address"
        },
        {
          "internalType": "uint256",
          "name": "gameId",
          "type": "uint256"
        }
      ],
      "name": "finishGameByTimeoutRelayer",
      "outputs": [],
      "stateMutability": "nonpayable",
      "type": "function"
    },
    {
      "inputs": [],
      "name": "gameEngineServerAddress",
      "outputs": [
        {
          "internalType": "address",
          "name": "",
          "type": "address"
        }
      ],
      "stateMutability": "view",
      "type": "function"
    },
    {
      "inputs": [],
      "name": "gamePublicKey",
      "outputs": [
        {
          "internalType": "string",
          "name": "",
          "type": "string"
        }
      ],
      "stateMutability": "view",
      "type": "function"
    },
    {
      "inputs": [],
      "name": "gameRequestIndex",
      "outputs": [
        {
          "internalType": "uint256",
          "name": "",
          "type": "uint256"
        }
      ],
      "stateMutability": "view",
      "type": "function"
    },
    {
      "inputs": [
        {
          "internalType": "uint256",
          "name": "",
          "type": "uint256"
        }
      ],
      "name": "gameRequests",
      "outputs": [
        {
          "internalType": "uint256",
          "name": "gameRequestId",
          "type": "uint256"
        },
        {
          "internalType": "uint256",
          "name": "team1id",
          "type": "uint256"
        },
        {
          "internalType": "uint256",
          "name": "team2id",
          "type": "uint256"
        },
        {
          "internalType": "uint256",
          "name": "createdAt",
          "type": "uint256"
        }
      ],
      "stateMutability": "view",
      "type": "function"
    },
    {
      "inputs": [
        {
          "internalType": "uint256",
          "name": "",
          "type": "uint256"
        }
      ],
      "name": "games",
      "outputs": [
        {
          "internalType": "uint256",
          "name": "gameId",
          "type": "uint256"
        },
        {
          "internalType": "uint256",
          "name": "createdAt",
          "type": "uint256"
        },
        {
          "components": [
            {
              "internalType": "uint8",
              "name": "movesMade",
              "type": "uint8"
            },
            {
              "internalType": "uint64",
              "name": "lastMoveAt",
              "type": "uint64"
            },
            {
              "internalType": "bytes32",
              "name": "team1MovesEncrypted",
              "type": "bytes32"
            },
            {
              "internalType": "bytes32",
              "name": "team2MovesEncrypted",
              "type": "bytes32"
            },
            {
              "internalType": "enum GameLib.TeamEnum",
              "name": "lastMoveTeam",
              "type": "uint8"
            },
            {
              "internalType": "uint8",
              "name": "team1score",
              "type": "uint8"
            },
            {
              "internalType": "uint8",
              "name": "team2score",
              "type": "uint8"
            }
          ],
          "internalType": "struct GameLib.GameState",
          "name": "gameState",
          "type": "tuple"
        },
        {
          "components": [
            {
              "internalType": "uint256",
              "name": "teamId",
              "type": "uint256"
            },
            {
              "internalType": "uint64",
              "name": "eloRating",
              "type": "uint64"
            },
            {
              "internalType": "uint64",
              "name": "eloRatingNew",
              "type": "uint64"
            },
            {
              "internalType": "enum GameLib.TeamFormation",
              "name": "formation",
              "type": "uint8"
            },
            {
              "internalType": "uint256[5]",
              "name": "__gap",
              "type": "uint256[5]"
            }
          ],
          "internalType": "struct GameLib.TeamInfo",
          "name": "team1",
          "type": "tuple"
        },
        {
          "components": [
            {
              "internalType": "uint256",
              "name": "teamId",
              "type": "uint256"
            },
            {
              "internalType": "uint64",
              "name": "eloRating",
              "type": "uint64"
            },
            {
              "internalType": "uint64",
              "name": "eloRatingNew",
              "type": "uint64"
            },
            {
              "internalType": "enum GameLib.TeamFormation",
              "name": "formation",
              "type": "uint8"
            },
            {
              "internalType": "uint256[5]",
              "name": "__gap",
              "type": "uint256[5]"
            }
          ],
          "internalType": "struct GameLib.TeamInfo",
          "name": "team2",
          "type": "tuple"
        },
        {
          "internalType": "enum GameLib.GameStatus",
          "name": "status",
          "type": "uint8"
        },
        {
          "internalType": "enum GameLib.TeamEnum",
          "name": "winner",
          "type": "uint8"
        },
        {
          "components": [
            {
              "components": [
                {
                  "internalType": "uint8",
                  "name": "x",
                  "type": "uint8"
                },
                {
                  "internalType": "uint8",
                  "name": "y",
                  "type": "uint8"
                }
              ],
              "internalType": "struct GameLib.Position[6]",
              "name": "team1PlayerPositions",
              "type": "tuple[6]"
            },
            {
              "components": [
                {
                  "internalType": "uint8",
                  "name": "x",
                  "type": "uint8"
                },
                {
                  "internalType": "uint8",
                  "name": "y",
                  "type": "uint8"
                }
              ],
              "internalType": "struct GameLib.Position[6]",
              "name": "team2PlayerPositions",
              "type": "tuple[6]"
            },
            {
              "components": [
                {
                  "internalType": "uint8",
                  "name": "x",
                  "type": "uint8"
                },
                {
                  "internalType": "uint8",
                  "name": "y",
                  "type": "uint8"
                }
              ],
              "internalType": "struct GameLib.Position",
              "name": "ballPosition",
              "type": "tuple"
            },
            {
              "internalType": "enum GameLib.TeamEnum",
              "name": "ballOwner",
              "type": "uint8"
            }
          ],
          "internalType": "struct GameLib.BoardState",
          "name": "lastBoardState",
          "type": "tuple"
        },
        {
          "internalType": "bytes32",
          "name": "historyIPFS",
          "type": "bytes32"
        },
        {
          "internalType": "bool",
          "name": "isVerified",
          "type": "bool"
        },
        {
          "internalType": "bytes",
          "name": "encryptedKey",
          "type": "bytes"
        },
        {
          "internalType": "uint8",
          "name": "gameEngineVersion",
          "type": "uint8"
        }
      ],
      "stateMutability": "view",
      "type": "function"
    },
    {
      "inputs": [],
      "name": "gelatoAddress",
      "outputs": [
        {
          "internalType": "address",
          "name": "",
          "type": "address"
        }
      ],
      "stateMutability": "view",
      "type": "function"
    },
    {
      "inputs": [],
      "name": "getActiveGameCount",
      "outputs": [
        {
          "internalType": "uint256",
          "name": "",
          "type": "uint256"
        }
      ],
      "stateMutability": "view",
      "type": "function"
    },
    {
      "inputs": [],
      "name": "getActiveGames",
      "outputs": [
        {
          "internalType": "uint256[]",
          "name": "",
          "type": "uint256[]"
        }
      ],
      "stateMutability": "view",
      "type": "function"
    },
    {
      "inputs": [
        {
          "internalType": "uint256",
          "name": "gameId",
          "type": "uint256"
        }
      ],
      "name": "getGame",
      "outputs": [
        {
          "components": [
            {
              "internalType": "uint256",
              "name": "gameId",
              "type": "uint256"
            },
            {
              "internalType": "uint256",
              "name": "createdAt",
              "type": "uint256"
            },
            {
              "components": [
                {
                  "internalType": "uint8",
                  "name": "movesMade",
                  "type": "uint8"
                },
                {
                  "internalType": "uint64",
                  "name": "lastMoveAt",
                  "type": "uint64"
                },
                {
                  "internalType": "bytes32",
                  "name": "team1MovesEncrypted",
                  "type": "bytes32"
                },
                {
                  "internalType": "bytes32",
                  "name": "team2MovesEncrypted",
                  "type": "bytes32"
                },
                {
                  "internalType": "enum GameLib.TeamEnum",
                  "name": "lastMoveTeam",
                  "type": "uint8"
                },
                {
                  "internalType": "uint8",
                  "name": "team1score",
                  "type": "uint8"
                },
                {
                  "internalType": "uint8",
                  "name": "team2score",
                  "type": "uint8"
                }
              ],
              "internalType": "struct GameLib.GameState",
              "name": "gameState",
              "type": "tuple"
            },
            {
              "components": [
                {
                  "internalType": "uint256",
                  "name": "teamId",
                  "type": "uint256"
                },
                {
                  "internalType": "uint64",
                  "name": "eloRating",
                  "type": "uint64"
                },
                {
                  "internalType": "uint64",
                  "name": "eloRatingNew",
                  "type": "uint64"
                },
                {
                  "internalType": "enum GameLib.TeamFormation",
                  "name": "formation",
                  "type": "uint8"
                },
                {
                  "internalType": "uint256[5]",
                  "name": "__gap",
                  "type": "uint256[5]"
                }
              ],
              "internalType": "struct GameLib.TeamInfo",
              "name": "team1",
              "type": "tuple"
            },
            {
              "components": [
                {
                  "internalType": "uint256",
                  "name": "teamId",
                  "type": "uint256"
                },
                {
                  "internalType": "uint64",
                  "name": "eloRating",
                  "type": "uint64"
                },
                {
                  "internalType": "uint64",
                  "name": "eloRatingNew",
                  "type": "uint64"
                },
                {
                  "internalType": "enum GameLib.TeamFormation",
                  "name": "formation",
                  "type": "uint8"
                },
                {
                  "internalType": "uint256[5]",
                  "name": "__gap",
                  "type": "uint256[5]"
                }
              ],
              "internalType": "struct GameLib.TeamInfo",
              "name": "team2",
              "type": "tuple"
            },
            {
              "internalType": "enum GameLib.GameStatus",
              "name": "status",
              "type": "uint8"
            },
            {
              "internalType": "enum GameLib.TeamEnum",
              "name": "winner",
              "type": "uint8"
            },
            {
              "components": [
                {
                  "components": [
                    {
                      "internalType": "uint8",
                      "name": "x",
                      "type": "uint8"
                    },
                    {
                      "internalType": "uint8",
                      "name": "y",
                      "type": "uint8"
                    }
                  ],
                  "internalType": "struct GameLib.Position[6]",
                  "name": "team1PlayerPositions",
                  "type": "tuple[6]"
                },
                {
                  "components": [
                    {
                      "internalType": "uint8",
                      "name": "x",
                      "type": "uint8"
                    },
                    {
                      "internalType": "uint8",
                      "name": "y",
                      "type": "uint8"
                    }
                  ],
                  "internalType": "struct GameLib.Position[6]",
                  "name": "team2PlayerPositions",
                  "type": "tuple[6]"
                },
                {
                  "components": [
                    {
                      "internalType": "uint8",
                      "name": "x",
                      "type": "uint8"
                    },
                    {
                      "internalType": "uint8",
                      "name": "y",
                      "type": "uint8"
                    }
                  ],
                  "internalType": "struct GameLib.Position",
                  "name": "ballPosition",
                  "type": "tuple"
                },
                {
                  "internalType": "enum GameLib.TeamEnum",
                  "name": "ballOwner",
                  "type": "uint8"
                }
              ],
              "internalType": "struct GameLib.BoardState",
              "name": "lastBoardState",
              "type": "tuple"
            },
            {
              "internalType": "bytes32",
              "name": "historyIPFS",
              "type": "bytes32"
            },
            {
              "internalType": "bool",
              "name": "isVerified",
              "type": "bool"
            },
            {
              "internalType": "bytes",
              "name": "encryptedKey",
              "type": "bytes"
            },
            {
              "internalType": "uint8",
              "name": "gameEngineVersion",
              "type": "uint8"
            },
            {
              "internalType": "uint256[10]",
              "name": "__gap",
              "type": "uint256[10]"
            }
          ],
          "internalType": "struct GameLib.Game",
          "name": "",
          "type": "tuple"
        }
      ],
      "stateMutability": "view",
      "type": "function"
    },
    {
      "inputs": [
        {
          "internalType": "uint256",
          "name": "requestId",
          "type": "uint256"
        }
      ],
      "name": "getGameRequest",
      "outputs": [
        {
          "components": [
            {
              "internalType": "uint256",
              "name": "gameRequestId",
              "type": "uint256"
            },
            {
              "internalType": "uint256",
              "name": "team1id",
              "type": "uint256"
            },
            {
              "internalType": "uint256",
              "name": "team2id",
              "type": "uint256"
            },
            {
              "internalType": "uint256",
              "name": "createdAt",
              "type": "uint256"
            }
          ],
          "internalType": "struct GameLib.GameRequest",
          "name": "",
          "type": "tuple"
        }
      ],
      "stateMutability": "view",
      "type": "function"
    },
    {
      "inputs": [
        {
          "internalType": "uint256",
          "name": "gameId",
          "type": "uint256"
        }
      ],
      "name": "getGameStatus",
      "outputs": [
        {
          "internalType": "enum GameLib.GameStatus",
          "name": "",
          "type": "uint8"
        }
      ],
      "stateMutability": "view",
      "type": "function"
    },
    {
      "inputs": [
        {
          "internalType": "uint256",
          "name": "teamId",
          "type": "uint256"
        },
        {
          "internalType": "uint256",
          "name": "n",
          "type": "uint256"
        }
      ],
      "name": "getLastNGames",
      "outputs": [
        {
          "components": [
            {
              "internalType": "uint256",
              "name": "gameId",
              "type": "uint256"
            },
            {
              "internalType": "uint256",
              "name": "createdAt",
              "type": "uint256"
            },
            {
              "components": [
                {
                  "internalType": "uint8",
                  "name": "movesMade",
                  "type": "uint8"
                },
                {
                  "internalType": "uint64",
                  "name": "lastMoveAt",
                  "type": "uint64"
                },
                {
                  "internalType": "bytes32",
                  "name": "team1MovesEncrypted",
                  "type": "bytes32"
                },
                {
                  "internalType": "bytes32",
                  "name": "team2MovesEncrypted",
                  "type": "bytes32"
                },
                {
                  "internalType": "enum GameLib.TeamEnum",
                  "name": "lastMoveTeam",
                  "type": "uint8"
                },
                {
                  "internalType": "uint8",
                  "name": "team1score",
                  "type": "uint8"
                },
                {
                  "internalType": "uint8",
                  "name": "team2score",
                  "type": "uint8"
                }
              ],
              "internalType": "struct GameLib.GameState",
              "name": "gameState",
              "type": "tuple"
            },
            {
              "components": [
                {
                  "internalType": "uint256",
                  "name": "teamId",
                  "type": "uint256"
                },
                {
                  "internalType": "uint64",
                  "name": "eloRating",
                  "type": "uint64"
                },
                {
                  "internalType": "uint64",
                  "name": "eloRatingNew",
                  "type": "uint64"
                },
                {
                  "internalType": "enum GameLib.TeamFormation",
                  "name": "formation",
                  "type": "uint8"
                },
                {
                  "internalType": "uint256[5]",
                  "name": "__gap",
                  "type": "uint256[5]"
                }
              ],
              "internalType": "struct GameLib.TeamInfo",
              "name": "team1",
              "type": "tuple"
            },
            {
              "components": [
                {
                  "internalType": "uint256",
                  "name": "teamId",
                  "type": "uint256"
                },
                {
                  "internalType": "uint64",
                  "name": "eloRating",
                  "type": "uint64"
                },
                {
                  "internalType": "uint64",
                  "name": "eloRatingNew",
                  "type": "uint64"
                },
                {
                  "internalType": "enum GameLib.TeamFormation",
                  "name": "formation",
                  "type": "uint8"
                },
                {
                  "internalType": "uint256[5]",
                  "name": "__gap",
                  "type": "uint256[5]"
                }
              ],
              "internalType": "struct GameLib.TeamInfo",
              "name": "team2",
              "type": "tuple"
            },
            {
              "internalType": "enum GameLib.GameStatus",
              "name": "status",
              "type": "uint8"
            },
            {
              "internalType": "enum GameLib.TeamEnum",
              "name": "winner",
              "type": "uint8"
            },
            {
              "components": [
                {
                  "components": [
                    {
                      "internalType": "uint8",
                      "name": "x",
                      "type": "uint8"
                    },
                    {
                      "internalType": "uint8",
                      "name": "y",
                      "type": "uint8"
                    }
                  ],
                  "internalType": "struct GameLib.Position[6]",
                  "name": "team1PlayerPositions",
                  "type": "tuple[6]"
                },
                {
                  "components": [
                    {
                      "internalType": "uint8",
                      "name": "x",
                      "type": "uint8"
                    },
                    {
                      "internalType": "uint8",
                      "name": "y",
                      "type": "uint8"
                    }
                  ],
                  "internalType": "struct GameLib.Position[6]",
                  "name": "team2PlayerPositions",
                  "type": "tuple[6]"
                },
                {
                  "components": [
                    {
                      "internalType": "uint8",
                      "name": "x",
                      "type": "uint8"
                    },
                    {
                      "internalType": "uint8",
                      "name": "y",
                      "type": "uint8"
                    }
                  ],
                  "internalType": "struct GameLib.Position",
                  "name": "ballPosition",
                  "type": "tuple"
                },
                {
                  "internalType": "enum GameLib.TeamEnum",
                  "name": "ballOwner",
                  "type": "uint8"
                }
              ],
              "internalType": "struct GameLib.BoardState",
              "name": "lastBoardState",
              "type": "tuple"
            },
            {
              "internalType": "bytes32",
              "name": "historyIPFS",
              "type": "bytes32"
            },
            {
              "internalType": "bool",
              "name": "isVerified",
              "type": "bool"
            },
            {
              "internalType": "bytes",
              "name": "encryptedKey",
              "type": "bytes"
            },
            {
              "internalType": "uint8",
              "name": "gameEngineVersion",
              "type": "uint8"
            },
            {
              "internalType": "uint256[10]",
              "name": "__gap",
              "type": "uint256[10]"
            }
          ],
          "internalType": "struct GameLib.Game[]",
          "name": "",
          "type": "tuple[]"
        }
      ],
      "stateMutability": "view",
      "type": "function"
    },
    {
      "inputs": [
        {
          "internalType": "uint256",
          "name": "teamId",
          "type": "uint256"
        }
      ],
      "name": "getTeam",
      "outputs": [
        {
          "components": [
            {
              "internalType": "uint256",
              "name": "id",
              "type": "uint256"
            },
            {
              "internalType": "address",
              "name": "wallet",
              "type": "address"
            },
            {
              "internalType": "string",
              "name": "name",
              "type": "string"
            },
            {
              "internalType": "uint64",
              "name": "eloRating",
              "type": "uint64"
            },
            {
              "internalType": "uint256",
              "name": "registeredAt",
              "type": "uint256"
            },
            {
              "internalType": "uint256[]",
              "name": "games",
              "type": "uint256[]"
            },
            {
              "internalType": "uint8",
              "name": "country",
              "type": "uint8"
            },
            {
              "internalType": "bool",
              "name": "hasActiveGame",
              "type": "bool"
            },
            {
              "internalType": "uint256",
              "name": "gameRequestId",
              "type": "uint256"
            },
            {
              "internalType": "uint64",
              "name": "totalGames",
              "type": "uint64"
            },
            {
              "internalType": "uint256[10]",
              "name": "__gap",
              "type": "uint256[10]"
            }
          ],
          "internalType": "struct GameLib.Team",
          "name": "",
          "type": "tuple"
        }
      ],
      "stateMutability": "view",
      "type": "function"
    },
    {
      "inputs": [
        {
          "internalType": "address",
          "name": "wallet",
          "type": "address"
        }
      ],
      "name": "getTeamIdByWallet",
      "outputs": [
        {
          "internalType": "uint256",
          "name": "",
          "type": "uint256"
        }
      ],
      "stateMutability": "view",
      "type": "function"
    },
    {
      "inputs": [
        {
          "internalType": "address",
          "name": "_relayerAddress",
          "type": "address"
        },
        {
          "internalType": "address",
          "name": "_relayerSmartAccountAddress",
          "type": "address"
        },
        {
          "internalType": "address",
          "name": "_gameEngineServerAddress",
          "type": "address"
        },
        {
          "internalType": "string",
          "name": "_publicKey",
          "type": "string"
        }
      ],
      "name": "initialize",
      "outputs": [],
      "stateMutability": "nonpayable",
      "type": "function"
    },
    {
      "inputs": [
        {
          "internalType": "uint256",
          "name": "gameId",
          "type": "uint256"
        },
        {
          "internalType": "enum GameLib.StateType",
          "name": "stateType",
          "type": "uint8"
        },
        {
          "internalType": "uint8[]",
          "name": "clashRandomNumbers",
          "type": "uint8[]"
        },
        {
          "components": [
            {
              "internalType": "uint256",
              "name": "playerId",
              "type": "uint256"
            },
            {
              "internalType": "enum GameLib.MoveType",
              "name": "moveType",
              "type": "uint8"
            },
            {
              "components": [
                {
                  "internalType": "uint8",
                  "name": "x",
                  "type": "uint8"
                },
                {
                  "internalType": "uint8",
                  "name": "y",
                  "type": "uint8"
                }
              ],
              "internalType": "struct GameLib.Position",
              "name": "oldPosition",
              "type": "tuple"
            },
            {
              "components": [
                {
                  "internalType": "uint8",
                  "name": "x",
                  "type": "uint8"
                },
                {
                  "internalType": "uint8",
                  "name": "y",
                  "type": "uint8"
                }
              ],
              "internalType": "struct GameLib.Position",
              "name": "newPosition",
              "type": "tuple"
            }
          ],
          "internalType": "struct GameLib.GameAction[]",
          "name": "team1Actions",
          "type": "tuple[]"
        },
        {
          "components": [
            {
              "internalType": "uint256",
              "name": "playerId",
              "type": "uint256"
            },
            {
              "internalType": "enum GameLib.MoveType",
              "name": "moveType",
              "type": "uint8"
            },
            {
              "components": [
                {
                  "internalType": "uint8",
                  "name": "x",
                  "type": "uint8"
                },
                {
                  "internalType": "uint8",
                  "name": "y",
                  "type": "uint8"
                }
              ],
              "internalType": "struct GameLib.Position",
              "name": "oldPosition",
              "type": "tuple"
            },
            {
              "components": [
                {
                  "internalType": "uint8",
                  "name": "x",
                  "type": "uint8"
                },
                {
                  "internalType": "uint8",
                  "name": "y",
                  "type": "uint8"
                }
              ],
              "internalType": "struct GameLib.Position",
              "name": "newPosition",
              "type": "tuple"
            }
          ],
          "internalType": "struct GameLib.GameAction[]",
          "name": "team2Actions",
          "type": "tuple[]"
        },
        {
          "components": [
            {
              "components": [
                {
                  "internalType": "uint8",
                  "name": "x",
                  "type": "uint8"
                },
                {
                  "internalType": "uint8",
                  "name": "y",
                  "type": "uint8"
                }
              ],
              "internalType": "struct GameLib.Position[6]",
              "name": "team1PlayerPositions",
              "type": "tuple[6]"
            },
            {
              "components": [
                {
                  "internalType": "uint8",
                  "name": "x",
                  "type": "uint8"
                },
                {
                  "internalType": "uint8",
                  "name": "y",
                  "type": "uint8"
                }
              ],
              "internalType": "struct GameLib.Position[6]",
              "name": "team2PlayerPositions",
              "type": "tuple[6]"
            },
            {
              "components": [
                {
                  "internalType": "uint8",
                  "name": "x",
                  "type": "uint8"
                },
                {
                  "internalType": "uint8",
                  "name": "y",
                  "type": "uint8"
                }
              ],
              "internalType": "struct GameLib.Position",
              "name": "ballPosition",
              "type": "tuple"
            },
            {
              "internalType": "enum GameLib.TeamEnum",
              "name": "ballOwner",
              "type": "uint8"
            }
          ],
          "internalType": "struct GameLib.BoardState",
          "name": "boardState",
          "type": "tuple"
        }
      ],
      "name": "newGameState",
      "outputs": [],
      "stateMutability": "nonpayable",
      "type": "function"
    },
    {
      "inputs": [],
      "name": "nextGameId",
      "outputs": [
        {
          "internalType": "uint256",
          "name": "",
          "type": "uint256"
        }
      ],
      "stateMutability": "view",
      "type": "function"
    },
    {
      "inputs": [],
      "name": "nextTeamId",
      "outputs": [
        {
          "internalType": "uint256",
          "name": "",
          "type": "uint256"
        }
      ],
      "stateMutability": "view",
      "type": "function"
    },
    {
      "inputs": [],
      "name": "owner",
      "outputs": [
        {
          "internalType": "address",
          "name": "",
          "type": "address"
        }
      ],
      "stateMutability": "view",
      "type": "function"
    },
    {
      "inputs": [],
      "name": "proxiableUUID",
      "outputs": [
        {
          "internalType": "bytes32",
          "name": "",
          "type": "bytes32"
        }
      ],
      "stateMutability": "view",
      "type": "function"
    },
    {
      "inputs": [],
      "name": "relayerAddress",
      "outputs": [
        {
          "internalType": "address",
          "name": "",
          "type": "address"
        }
      ],
      "stateMutability": "view",
      "type": "function"
    },
    {
      "inputs": [],
      "name": "relayerSmartAccountAddress",
      "outputs": [
        {
          "internalType": "address",
          "name": "",
          "type": "address"
        }
      ],
      "stateMutability": "view",
      "type": "function"
    },
    {
      "inputs": [],
      "name": "renounceOwnership",
      "outputs": [],
      "stateMutability": "nonpayable",
      "type": "function"
    },
    {
      "inputs": [
        {
          "internalType": "uint256",
          "name": "gameId",
          "type": "uint256"
        },
        {
          "internalType": "enum GameLib.TeamEnum",
          "name": "cauzedByTeam",
          "type": "uint8"
        },
        {
          "internalType": "enum ChessBallGame.ErrorType",
          "name": "errorType",
          "type": "uint8"
        },
        {
          "internalType": "string",
          "name": "errorMsg",
          "type": "string"
        }
      ],
      "name": "setGameError",
      "outputs": [],
      "stateMutability": "nonpayable",
      "type": "function"
    },
    {
      "inputs": [
        {
          "internalType": "uint256",
          "name": "gameRequestId",
          "type": "uint256"
        },
        {
          "internalType": "bytes",
          "name": "_encryptedKey",
          "type": "bytes"
        }
      ],
      "name": "startGame",
      "outputs": [],
      "stateMutability": "nonpayable",
      "type": "function"
    },
    {
      "inputs": [
        {
          "internalType": "address",
          "name": "sender",
          "type": "address"
        },
        {
          "internalType": "uint256",
          "name": "gameRequestId",
          "type": "uint256"
        },
        {
          "internalType": "bytes",
          "name": "_encryptedKey",
          "type": "bytes"
        }
      ],
      "name": "startGameRelayer",
      "outputs": [],
      "stateMutability": "nonpayable",
      "type": "function"
    },
    {
      "inputs": [
        {
          "internalType": "address",
          "name": "",
          "type": "address"
        }
      ],
      "name": "teamIdByWallet",
      "outputs": [
        {
          "internalType": "uint256",
          "name": "",
          "type": "uint256"
        }
      ],
      "stateMutability": "view",
      "type": "function"
    },
    {
      "inputs": [
        {
          "internalType": "string",
          "name": "",
          "type": "string"
        }
      ],
      "name": "teamNames",
      "outputs": [
        {
          "internalType": "bool",
          "name": "",
          "type": "bool"
        }
      ],
      "stateMutability": "view",
      "type": "function"
    },
    {
      "inputs": [
        {
          "internalType": "uint256",
          "name": "",
          "type": "uint256"
        }
      ],
      "name": "teams",
      "outputs": [
        {
          "internalType": "uint256",
          "name": "id",
          "type": "uint256"
        },
        {
          "internalType": "address",
          "name": "wallet",
          "type": "address"
        },
        {
          "internalType": "string",
          "name": "name",
          "type": "string"
        },
        {
          "internalType": "uint64",
          "name": "eloRating",
          "type": "uint64"
        },
        {
          "internalType": "uint256",
          "name": "registeredAt",
          "type": "uint256"
        },
        {
          "internalType": "uint8",
          "name": "country",
          "type": "uint8"
        },
        {
          "internalType": "bool",
          "name": "hasActiveGame",
          "type": "bool"
        },
        {
          "internalType": "uint256",
          "name": "gameRequestId",
          "type": "uint256"
        },
        {
          "internalType": "uint64",
          "name": "totalGames",
          "type": "uint64"
        }
      ],
      "stateMutability": "view",
      "type": "function"
    },
    {
      "inputs": [
        {
          "internalType": "address",
          "name": "newOwner",
          "type": "address"
        }
      ],
      "name": "transferOwnership",
      "outputs": [],
      "stateMutability": "nonpayable",
      "type": "function"
    },
    {
      "inputs": [
        {
          "internalType": "address",
          "name": "newImplementation",
          "type": "address"
        },
        {
          "internalType": "bytes",
          "name": "data",
          "type": "bytes"
        }
      ],
      "name": "upgradeToAndCall",
      "outputs": [],
      "stateMutability": "payable",
      "type": "function"
    }
  ],
  "bytecode": "0x60a08060405234620000d157306080527ff0c57e16840df040f15088dc2f81fe391c3923bec73e23a9662efc9c229c6a009081549060ff8260401c16620000c257506001600160401b036002600160401b0319828216016200007c575b60405161546f9081620000d7823960805181818161131f01526114030152f35b6001600160401b031990911681179091556040519081527fc7f505b2f371ae2175ee4913f4499e1f2633a7b5936321eed1cdaeb6115181d290602090a13880806200005c565b63f92ee8a960e01b8152600490fd5b600080fdfe608080604052600436101561001357600080fd5b60003560e01c9081628e0f1b14611d365750806302f785fd14611ca95780630f1bf45414611c575780630fb9f86914611ae0578063117a5b90146119ab57806313e4c714146119745780631894c7561461195657806318a7cca81461192d5780631b76929c1461189457806322d60b1a1461187c5780632cc9c964146118535780632df84be5146117195780633ed2b77a1461165b57806349e3969a146116055780634cf97fad146115be5780634f1ef286146113b457806351903bd91461137757806352d1902d1461130c57806359bcfbe41461124657806365e8e4f414610f8357806368599d0c14610f655780636e6964d714610f04578063715018a614610eac57806371f5001f1461097c57806379b880ac146107855780637bb597fa146107675780638da5cb5b1461073157806392a52e81146106e3578063a2f77bcc146105ad578063a462816c14610584578063a89ae4571461055b578063ad3cb1cc14610511578063afcaa6e31461049d578063b135bbb01461047f578063c0d039db146103f7578063c4b634f31461037c578063c6480413146101ec578063c949504114610318578063e34c2e5814610273578063ec5c504e14610256578063f2fde38b1461022b5763ff156d00146101ec57600080fd5b34610226576020366003190112610226576001600160a01b0361020d6126b6565b1660005260056020526020604060002054604051908152f35b600080fd5b34610226576020366003190112610226576102546102476126b6565b61024f6140f1565b612df2565b005b346102265760203660031901126102265761025460043533614ff0565b346102265760203660031901126102265760043561028f612dcd565b5080600052600960205260036040600020015415610306576000526009602052608060406000206040516102c2816122d4565b815491828252600181015460208301908152606060036002840154936040860194855201549301928352604051938452516020840152516040830152516060820152f35b60405163b0ce759160e01b8152600490fd5b34610226576040366003190112610226576103316126b6565b600154336001600160a01b039182161415908161036d575b5061035b576102549060243590614ff0565b604051639608c6ff60e01b8152600490fd5b9050600d541633141582610349565b34610226576060366003190112610226576103956126b6565b6024356001600160401b038111610226576103b49036906004016123c9565b6044359060ff8216820361022657600154336001600160a01b03918216141590816103e8575b5061035b576102549261305f565b9050600d5416331415846103da565b346102265760a0366003190112610226576104106126b6565b60243590604435906003821015610226576084359160ff8316830361022657600154336001600160a01b0391821614159081610470575b5061035b5783600052600360205260016040600020015415610306576102549360643592614d88565b9050600d541633141585610447565b34610226576000366003190112610226576020600654604051908152f35b34610226576060366003190112610226576104b66126b6565b6044356001600160401b038111610226576104d59036906004016126da565b600154909190336001600160a01b0391821614159081610502575b5061035b5761025492602435906136a8565b9050600d5416331415846104f0565b34610226576000366003190112610226576105576040516105318161230a565b60058152640352e302e360dc1b6020820152604051918291602083526020830190611fcb565b0390f35b3461022657600036600319011261022657600d546040516001600160a01b039091168152602090f35b34610226576000366003190112610226576002546040516001600160a01b039091168152602090f35b3461022657602080600319360112610226576004356105ca612816565b5080600052600382526001604060002001541561030657600052600381526040600020906106c9602760405193610600856122b8565b80548552600181015484860152610619600282016123f0565b604086015261062a60068201612456565b606086015261063b600d8201612456565b608086015261066860ff601483015481811661065681612105565b60a089015260081c1660c087016123e4565b6106746015820161254e565b60e0860152602381015461010086015260ff60248201541615156101208601526040516106af816106a881602586016125d7565b0382612354565b61014086015260ff60268201541661016086015201612737565b6101808301526105576040519282849384528301906121a4565b34610226576020366003190112610226576004356000526009602052608060406000208054906001810154906003600282015491015491604051938452602084015260408301526060820152f35b346102265760003660031901126102265760008051602061537a833981519152546040516001600160a01b039091168152602090f35b34610226576000366003190112610226576020600a54604051908152f35b346102265760403660031901126102265761079e6126b6565b6001805460243592906001600160a01b039081163314158061096e575b61035b5783600052602092600384528060406000200154156103065784600052600384528060406000200154156103065784600052600384526040600020938160ff60148701541661080c81612105565b0361095c5760068501548060005260048252838084604060002001541695168095141580610941575b61092f576000526004815283838360406000200154161480610923575b61090557600490600d8601546000525260406000200154161480610917575b6109055760018060401b03600282015460081c16603c81018091116108ef574211156108dd576005015460ff1660038110156108c757156108b5576102549061412a565b6040516356eff76b60e01b8152600490fd5b634e487b7160e01b600052602160045260246000fd5b604051634e7fc88160e11b8152600490fd5b634e487b7160e01b600052601160045260246000fd5b604051631e86addb60e01b8152600490fd5b50600481015415610871565b50600385015415610852565b604051633093624d60e21b8152600490fd5b50600d86015460005284848460406000200154161415610835565b6040516314bc0c2f60e31b8152600490fd5b5080600d54163314156107bb565b34610226576104003660031901126102265760046024351015610226576001600160401b036044351161022657366023604435011215610226576001600160401b036004604435013511610226573660246044356004013560051b604435010111610226576064356001600160401b03811161022657610a00903690600401612707565b6084356001600160401b03811161022657610a1f903690600401612707565b90916103603660a31901126102265760043560005260036020526001604060002001541561030657600254336001600160a01b0391821614159081610e9c575b81610e8d575b50610e7b576004356000526003602052604060002092600160ff601486015416610a8e81612105565b0361095c5760ff600285015416610e4b575b60158401600060a45b60068210610e1557505050601b840160006102245b60068210610dd9575050506103a43560ff811681036102265760ff1660ff1960218601541617602185015560ff6103c435166103c4350361022657610b096103c43560218601612cb1565b60036103e435101561022657610b256103e43560228601612c14565b610c1d60c06002860154610b3b60ff8216612cc7565b90610b47602435612105565b602435600203610dc957610b6460ff60058a015460081c16612cc7565b610b6f602435612105565b602435600303610db857610b8c60ff60058b015460101c16612cc7565b925b60ff808060405193610b9f8561229d565b169384845260018060401b034216602085015260006040850152600060608501526000608085015216948560a0840152169485910152610100600160481b034260081b169160018060481b031916171760028801556000600388015560006004880155610c18600588019160ff19835416835582612cb1565b612cd9565b610c28602435612105565b602435600203610d81576040516001815260008051602061535a833981519152602060043592a25b835492604051926104008401610c67602435612105565b6024358552426020860152610400604086015260443560040135905261042084019660246044350160005b604435600401358110610d6157505093610cf2600296947f1cc12e86ff5f2b2e761ab2fd8a6e3ee635d92958237b110363a2868ed2b6f8be94610ce48b859660ff9c9a87602d9f036060890152612d13565b918483036080860152612d13565b610d0260a0830160158801612d90565b610d136102208301601b8801612d90565b610d336103a083016021880160ff60209154818116845260081c16910152565b610d48886022880154166103e084019061202e565b0390a20154161015610d5657005b610254600435614369565b909860208060019260ff610d748e6126cc565b168152019a019101610c92565b610d8c602435612105565b600360243503610c50576040516002815260008051602061535a833981519152602060043592a2610c50565b60ff60058a015460101c1692610b8e565b60ff600589015460081c16610b64565b600160408260ff610dea8495612ca3565b1660ff19875416178655610e09610e0360208301612ca3565b87612cb1565b01930191019091610abe565b600160408260ff610e268495612ca3565b1660ff19875416178655610e3f610e0360208301612ca3565b01930191019091610aa9565b6003840154158015610e6f575b15610aa057604051631e86addb60e01b8152600490fd5b50600484015415610e58565b604051631c307ff760e31b8152600490fd5b9050600d541633141585610a65565b8091506001541633141590610a5f565b3461022657600036600319011261022657610ec56140f1565b60008051602061537a83398151915280546001600160a01b031981169091556000906001600160a01b03166000805160206153ba8339815191528280a3005b34610226576020366003190112610226576004356001600160401b0381116102265760ff610f4f6020610f3c819436906004016123c9565b8160405193828580945193849201611fa8565b8101600b81520301902054166040519015158152f35b34610226576000366003190112610226576020600754604051908152f35b3461022657608036600319011261022657610f9c6126b6565b6001600160a01b03602435818116908190036102265760443592828416809403610226576001600160401b0360643581811161022657610fe09036906004016123c9565b946000805160206153da8339815191529384549560ff8760401c1615948488169788158061123f575b6001809a149081611235575b15908161122c575b5061121a576001600160401b0319811689178855866111ff575b50169081156111ed5780156111ed5782156111ed5760018060a01b0319918288541617875581600d541617600d55600254161760025584519081116111d757611081600c5461259d565b601f811161117d575b50602094601f8211600114611118576110b192939495829160009261110d575b5050612c7d565b600c555b6110bd61515d565b6110c561515d565b6110ce33612df2565b6110d457005b805460ff60401b191690556040519081527fc7f505b2f371ae2175ee4913f4499e1f2633a7b5936321eed1cdaeb6115181d290602090a1005b0151905086806110aa565b601f19821695600c600052806000209160005b8881106111675750838798979596971061114e575b505050811b01600c556110b5565b015160001960f88460031b161c19169055858080611140565b818301518455928701926020928301920161112b565b600c6000526111c7907fdf6966c971051c3d54ec59162606531493a51404a002842f56009d7e5cf4a8c7601f840160051c810191602085106111cd575b601f0160051c0190612c2c565b8561108a565b90915081906111ba565b634e487b7160e01b600052604160045260246000fd5b6040516301369f3160e61b8152600490fd5b6001600160481b0319166001600160401b0117875589611037565b60405163f92ee8a960e01b8152600490fd5b9050158b61101d565b303b159150611015565b5086611009565b3461022657600036600319011261022657604051600c546000826112698361259d565b91828252602093600190856001821691826000146112ec5750506001146112ac575b5061129892500383612354565b610557604051928284938452830190611fcb565b849150600c60005281600020906000915b8583106112d457505061129893508201018561128b565b805483890185015287945086939092019181016112bd565b60ff19168582015261129895151560051b850101925087915061128b9050565b34610226576000366003190112610226577f00000000000000000000000000000000000000000000000000000000000000006001600160a01b0316300361136557602060405160008051602061539a8339815191528152f35b60405163703e46dd60e11b8152600490fd5b34610226576040366003190112610226576024356001600160401b038111610226576113aa6102549136906004016126da565b90600435336136a8565b6040366003190112610226576113c86126b6565b6024356001600160401b0381116102265736602382011215610226576113f8903690602481600401359101612392565b906001600160a01b037f000000000000000000000000000000000000000000000000000000000000000081163081149081156115a2575b506113655761143c6140f1565b6040516352d1902d60e01b8152908216916020918281600481875afa60009181611573575b5061147f57604051634c9c8ce360e01b815260048101859052602490fd5b92849360008051602061539a8339815191529081810361155b5750823b156115425780546001600160a01b03191682179055604051907fbc7cd75a20ee27fd9adebab32041f755214dbc6bffa90cc0225b39da2e5c2d3b600080a28351156115285750600080848461025496519101845af4903d1561151f573d61150281612377565b906115106040519283612354565b8152600081943d92013e6151bd565b606092506151bd565b925050503461153357005b63b398979f60e01b8152600490fd5b604051634c9c8ce360e01b815260048101839052602490fd5b60249060405190632a87526960e21b82526004820152fd5b9091508381813d831161159b575b61158b8183612354565b8101031261022657519086611461565b503d611581565b90508160008051602061539a833981519152541614158461142f565b34610226576040366003190112610226576004356001600160401b038111610226576115ee9036906004016123c9565b60243560ff8116810361022657610254913361305f565b346102265760603660031901126102265761161e6126b6565b600154336001600160a01b039182161415908161164c575b5061035b57610254906044359060243590612e79565b9050600d541633141582611636565b34610226576020366003190112610226576004356000526004602052604060002080549060018060a01b03600182015416906040516116a1816106a881600286016125d7565b60018060401b039160ff836003830154169360048301546116ec600685015492600860078701549601541695604051998a99610120918b5260208b01528060408b0152890190611fcb565b956060880152608087015281811660a087015260081c16151560c085015260e08401526101008301520390f35b34610226576020806003193601126102265760043590816000526003815260018060406000200154156103065782600052600382528060406000200154156103065782600052600382526040600020918160ff60148501541661177b81612105565b0361095c576006830154600081815260048352604090208301546001600160a01b03929190831633141580611838575b61092f57600052600481523382846040600020015416148061182c575b61090557600490600d85015460005252339160406000200154161480610917576109055760018060401b03600282015460081c16603c81018091116108ef574211156108dd576005015460ff1660038110156108c757156108b5576102549061412a565b506003840154156117c8565b50600d850154600052338385604060002001541614156117ab565b34610226576000366003190112610226576000546040516001600160a01b039091168152602090f35b346102265761025461188d36612018565b9033612e79565b346102265760003660031901126102265760405180600854808352602080930180916008600052846000209060005b868282106119195786866118d982880383612354565b604051928392818401908285525180915260408401929160005b82811061190257505050500390f35b8351855286955093810193928101926001016118f3565b8354855290930192600192830192016118c3565b34610226576000366003190112610226576001546040516001600160a01b039091168152602090f35b34610226576000366003190112610226576020600854604051908152f35b34610226576020366003190112610226576004356008548110156102265761199d60209161266d565b90546040519160031b1c8152f35b3461022657602036600319011261022657600435600052600360205260406000208054600182015490600283016119e1906123f0565b926119ee60068201612456565b916119fb600d8301612456565b601483015460ff811690611a116015860161254e565b90602386015492602487015460ff16946040519788806025830190611a35916125d7565b03611a40908a612354565b6026015460ff16986040519b8c9b610780998d5260208d015260408c01611a669161203b565b6101208b01611a7491612093565b6102408a01611a8291612093565b611a8b81612105565b61036089015261038088019060081c60ff1690611aa79161202e565b6103a08701611ab59161214e565b6107008601521515610720850152806107408501528301611ad591611fcb565b906107608301520390f35b346102265760803660031901126102265760043560243560038110159081610226576044356002811015610226576064356001600160401b03811161022657611b2d9036906004016123c9565b600254909390336001600160a01b0391821614159081611c47575b81611c38575b50610e7b57611b5c82612c0a565b6001821480611c2c575b611bba575b5090611bb560008051602061541a83398151915293611b90936040519485809561202e565b611b9981612c0a565b6020840152426040840152608060608401526080830190611fcb565b0390a2005b8460009392935260036020526040600020906108c75760008051602061541a83398151915293611b9093611bb59260018503611c0957600501805460ff191660021790555b9293509350611b6b565b60028514611c18575b50611bff565b600501805460ff1916600117905587611c12565b50506000821515611b66565b9050600d541633141586611b4e565b8091506001541633141590611b48565b346102265760203660031901126102265760043580600052600360205260016040600020015415610306576000526003602052602060ff6014604060002001541660405190611ca581612105565b8152f35b3461022657611cb736612018565b9080600052602091600483526040600020541561030657611cd791612983565b6040519082820192808352815180945260408301938160408260051b8601019301916000955b828710611d0a5785850386f35b909192938280611d26600193603f198a820301865288516121a4565b9601920196019592919092611cfd565b346102265760203660031901126102265760043590611d5481612281565b6000815260006020820152606060408201526000606082015260006080820152606060a0820152600060c0820152600060e08201526000610100820152600061012082015261014060405191611da983612338565b81368437015280600052600460205260406000205415610306576000526004602052604060002060405190611ddd82612281565b8054825260018101546001600160a01b03166020830152604051611e08816106a881600286016125d7565b604083015260018060401b036003820154166060830152600481015460808301526005810160405190816020825491828152019160005260206000209060005b818110611f925786611ea760098888611e63818a0382612354565b60a0850152600681015460ff81811660c0870152600891821c16151560e086015260078201546101008601528101546001600160401b031661012085015201612737565b6101408201526040805160208082528351818301528301516001600160a01b031681830152908201516102806060830152611ee7906102a0830190611fcb565b60018060401b036060840151166080830152608083015160a083015260a083015190601f198382030160c08401526020808351928381520192019060005b818110611f7c575050506105576101408460ff60c0869701511660e086015260e0810151151561010086015261010081015161012086015260018060401b0361012082015116828601520151610160840190611ff0565b8251845260209384019390920191600101611f25565b8254845260209093019260019283019201611e48565b60005b838110611fbb5750506000910152565b8181015183820152602001611fab565b90602091611fe481518092818552858086019101611fa8565b601f01601f1916010190565b6000915b600a831061200157505050565b600190825181526020809101920192019190611ff4565b6040906003190112610226576004359060243590565b9060038210156108c75752565b60ff60c0809282815116855260018060401b036020820151166020860152604081015160408601526060810151606086015261207f6080820151608087019061202e565b8260a08201511660a0860152015116910152565b805182526020808201516001600160401b03908116828501526040808401519091169084015260608201519093926001929091838110156108c757606083015260809081015160009590929091015b600586106120f257505050509050565b82518152948301949181019181016120e2565b600411156108c757565b906000905b6006821061212157505050565b6020604082612142600194875160ff60208092828151168552015116910152565b01930191019091612114565b9061034060606121a29361216384825161210f565b612176602082015161018086019061210f565b612198604082015161030086019060ff60208092828151168552015116910152565b015191019061202e565b565b9061227e906107806101806122646108c086518552602087015160208601526121d56040880151604087019061203b565b60608701516121ea6101209182880190612093565b6121fd6080890151610240880190612093565b60a088015161220b81612105565b61036087015261222460c089015161038088019061202e565b61223760e08901516103a088019061214e565b61010088015161070087015287015115156107208601526101408701519080610740870152850190611fcb565b9460ff610160820151166107608501520151910190611ff0565b90565b61016081019081106001600160401b038211176111d757604052565b60e081019081106001600160401b038211176111d757604052565b6101a081019081106001600160401b038211176111d757604052565b608081019081106001600160401b038211176111d757604052565b60a081019081106001600160401b038211176111d757604052565b604081019081106001600160401b038211176111d757604052565b6001600160401b0381116111d757604052565b61014081019081106001600160401b038211176111d757604052565b601f909101601f19168101906001600160401b038211908210176111d757604052565b6001600160401b0381116111d757601f01601f191660200190565b92919261239e82612377565b916123ac6040519384612354565b829481845281830111610226578281602093846000960137010152565b9080601f830112156102265781602061227e93359101612392565b60038210156108c75752565b906040516123fd8161229d565b60c060ff600383958054838116865260018060401b039060081c16602086015260018101546040860152600281015460608601520154612442828216608086016123e4565b818160081c1660a085015260101c16910152565b9060405191612464836122ef565b82815481526001808301549260ff60018060401b039460209580821660208701528160401c16604086015260801c1660018110156108c757606084015260405193600290910190600090855b600583106124cd5750505050506080906124c9836122ef565b0152565b83548152928401929184019181016124b0565b906040516124ed8161230a565b602060ff829454818116845260081c16910152565b604051919060c083016001600160401b038111848210176111d7576040526000835b6006821061253157505050565b600160208192612540866124e0565b815201930191019091612524565b906121a260405161255e816122d4565b606060ff600d839661256f81612502565b855261257d60068201612502565b602086015261258e600c82016124e0565b604086015201541691016123e4565b90600182811c921680156125cd575b60208310146125b757565b634e487b7160e01b600052602260045260246000fd5b91607f16916125ac565b8054600093926125e68261259d565b9182825260209360019160018116908160001461264e575060011461260d575b5050505050565b90939495506000929192528360002092846000945b83861061263a57505050500101903880808080612606565b805485870183015294019385908201612622565b60ff19168685015250505090151560051b010191503880808080612606565b60085481101561268857600860005260206000200190600090565b634e487b7160e01b600052603260045260246000fd5b80548210156126885760005260206000200190600090565b600435906001600160a01b038216820361022657565b359060ff8216820361022657565b9181601f84011215610226578235916001600160401b038311610226576020838186019501011161022657565b9181601f84011215610226578235916001600160401b0383116102265760208085019460c0850201011161022657565b60405191906000835b600a8210612754575050506121a282612338565b6001602081928554815201930191019091612740565b6001600160401b0381116111d75760051b60200190565b6040519061278e826122ef565b81600081526000602082015260006040820152600060608201526080604051916127b7836122ef565b60a03684370152565b60408051919060c0908184016001600160401b038111858210176111d7576040528360009160005b8481106127f6575050505050565b60209082516128048161230a565b858152858382015281850152016127e8565b604090815191612825836122b8565b6101808360009283825283602083015280516128408161229d565b84815284602082015284828201528460608201528460808201528460a08201528460c082015281830152612872612781565b606083015261287f612781565b60808301528360a08301528360c0830152805161289b816122d4565b6128a36127c0565b81526128ad6127c0565b602082015281516128bd8161230a565b8581528560208201528282015284606082015260e083015283610100830152836101208301526101409360608584015261016083015251926128fe84612338565b3684370152565b9061290f8261276a565b61291c6040519182612354565b828152809261292d601f199161276a565b019060005b82811061293e57505050565b602090612949612816565b82828501015201612932565b80518210156126885760209160051b010190565b919082039182116108ef57565b919082018092116108ef57565b60009081526020600481526040600581842001928354938415612bd35784861015612ad2576129b186612905565b95825b8181106129c5575050505050505090565b806129e46129de6001936129d9868c612969565b612976565b8561269e565b9054600391821b1c86528752858520612ab06027885192612a04846122b8565b80548452858101548b850152612a1c600282016123f0565b8a850152612a2c60068201612456565b6060850152612a3d600d8201612456565b60808501526014810154612a5a60ff828180941661065681612105565b612a666015830161254e565b60e086015260238201546101008601528060248301541615156101208601528a51612a98816106a881602587016125d7565b61014086015260268201541661016085015201612737565b610180820152612ac0828b612955565b52612acb818a612955565b50016129b4565b9450612add84612905565b94815b858110612af05750505050505090565b80612afd6001928461269e565b9054600391821b1c85528652848420612bb16027875192612b1d846122b8565b80548452858101548a850152612b35600282016123f0565b89850152612b4560068201612456565b6060850152612b56600d8201612456565b60808501526014810154612b7360ff828180941661065681612105565b612b7f6015830161254e565b60e086015260238201546101008601528060248301541615156101208601528951612a98816106a881602587016125d7565b610180820152612bc1828a612955565b52612bcc8189612955565b5001612ae0565b50815194509250908301906001600160401b03821184831017612bf65752815290565b634e487b7160e01b83526041600452602483fd5b600211156108c757565b9060038110156108c75760ff80198354169116179055565b818110612c37575050565b60008155600101612c2c565b9190601f8111612c5257505050565b6121a2926000526020600020906020601f840160051c830193106111cd57601f0160051c0190612c2c565b8160011b916000199060031b1c19161790565b818102929181159184041417156108ef57565b3560ff811681036102265790565b9061ff0082549160081b169061ff001916179055565b60ff60019116019060ff82116108ef57565b9062ff000082549160101b169062ff00001916179055565b60ff612d0d6020809383612d04826126cc565b168652016126cc565b16910152565b91818152602080910192916000916000905b828210612d3457505050505090565b909192939485358152818601356004811015612d8c579081612d57600193612105565b83820152612d6b6040808301908901612cf1565b612d7b6080808301908901612cf1565b60c090810196019493920190612d25565b8580fd5b906000905b60068210612da257505050565b6001604082612dc183948760ff60209154818116845260081c16910152565b01930191019091612d95565b60405190612dda826122d4565b60006060838281528260208201528260408201520152565b6001600160a01b03908116908115612e3b5760008051602061537a83398151915280546001600160a01b031981168417909155166000805160206153ba833981519152600080a3565b604051631e4fbdf760e01b815260006004820152602490fd5b60001981146108ef5760010190565b6040919493926060820195825260208201520152565b9291926000938285526004946020908682526040938482205415612fec578382528783528482205415612fec57858252878352848220548483528583205414612fdc57858252878352848220600101546001600160a01b0390811690821603612fcc5783825287835260ff6006868420015460081c16612fbc5796600785837f1cce6a28f1564d6cb3044145a4ccc8873cf34f87429af3289490527d7c0437e6999a89612fa79897965284865283838320015480612fac575b5050612f3f600a54612e54565b9384600a55612f4c612dcd565b50825195612f59876122d4565b858752808701958b87526003858901918a835260608a0190428252865260098452868620928a51998a8555516001850155516002840155519101558a83525220015551925193849384612e63565b0390a1565b612fb591614ff0565b3880612f32565b8451635e003ea960e01b81528890fd5b8451633093624d60e21b81528890fd5b8451634de6470960e01b81528890fd5b845163b0ce759160e01b81528890fd5b81601f8201121561022657805161301281612377565b926130206040519485612354565b818452602082840101116102265761227e9160208085019101611fa8565b51906001600160401b038216820361022657565b5190811515820361022657565b9060018060a01b03808316600052600560205260406000205461361257815115613600576130c191600073__$18826597157b5485acfb86513cd242e4d3$__9160405180958192630fb93a7160e21b8352602060048401526024830190611fcb565b0381845af49283156135a2576000936135c0575b5060ff60405160208186516130ed8183858b01611fa8565b8101600b81520301902054166135ae57600061310a600754612e54565b80600755604051928391631d029a8d60e01b83526004830152848716602483015260a06044830152818061314160a4820189611fcb565b60ff8b16606483015242608483015203915af49081156135a257600091613408575b5080516000526004602052604060002081518155600181018360208401511660018060a01b031982541617905560028101604083015180519060018060401b0382116111d7576131bd826131b7855461259d565b85612c43565b602090601f83116001146133a0576131df929160009183613395575050612c7d565b90555b60608201516003820180546001600160401b0319166001600160401b039283161790556080830151600483015560a083015180519182116111d757600160401b82116111d7576020906005840154836005860155808410613375575b500160058301600052602060002060005b83811061336157505050506006810160ff60c08401511681549061ff0060e0860151151560081b169161ffff19161717905561010082015160078201556008810160018060401b036101208401511660018060401b031982541617905561014082015160005b600a811061334a575050509161333c917f1599aa311a61861ca44d28454c9e07d6e99428d1fcd90906d4eb6c322d7c52a29360405160208185516132fc8183858a01611fa8565b8101600b815203019020600160ff1982541617905580518287166000526005602052604060002055519460ff604051948594604086526040860190611fcb565b9716602084015216940390a3565b6001906020835193019260098286010155016132b5565b60019060208451940193818401550161324f565b61338f906005860160005284846000209182019101612c2c565b3861323e565b0151905038806110aa565b90601f198316918460005260206000209260005b8181106133f057509084600195949392106133d7575b505050811b0190556131e2565b015160001960f88460031b161c191690553880806133ca565b929360206001819287860151815501950193016133b4565b90503d806000833e61341a8183612354565b81016020828203126102265781516001600160401b0392838211610226570190610280908183820312610226576040519361345485612281565b835185526020840151868116810361022657602086015260408401518181116102265782613483918601612ffc565b60408601526134946060850161303e565b60608601526080840151608086015260a084015190811161022657830181601f82011215610226578051906134c88261276a565b916134d66040519384612354565b80835260208084019160051b8301019184831161022657602001905b8282106135925750505060a085015260c083015160ff811681036102265760c085015261352160e08401613052565b60e0850152610100808401519085015261012061353f81850161303e565b90850152610140918161015f85011215610226576040519361356085612338565b84918101928311610226578301905b8282106135825750505082015238613163565b815181526020918201910161356f565b81518152602091820191016134f2565b6040513d6000823e3d90fd5b604051634749bdef60e11b8152600490fd5b9092503d806000833e6135d38183612354565b81016020828203126102265781516001600160401b038111610226576135f99201612ffc565b91386130d5565b60405163d9f415a960e01b8152600490fd5b60405163f2d8e7a360e01b8152600490fd5b8054600160401b600160801b03191660409290921b600160401b600160801b0316919091179055565b9060038110156108c75761ff0082549160081b169061ff001916179055565b80549190600160401b8310156111d7578261368f9160016121a29501815561269e565b90919082549060031b91821b91600019901b1916179055565b92909192600090838252600960205260036040832001541561030657838252600960205260026040832001548252600460205260018060a01b038060016040852001541691160361092f57828152600960205260016040822001548152600460205260ff600660408320015460081c166140df57828152600960205260026040822001548152600460205260ff600660408320015460081c166140df578281526009602052600260408220015481526004602052600760408220015461405a575b82815260096020526040812092600260018501549401549461378c600654612e54565b908160065585845260046020526137c860018060401b036003604087200154169188865260018060401b03600360408820015416963691612392565b6137d0612816565b506040516137dd816122ef565b85815285602082015285604082015285606082015285608082015260405192613805846122ef565b8884526020840152856040840152856060840152608083015260405161382a816122ef565b85815285602082015285604082015285606082015285608082015260405196613852886122ef565b898852602088015285604088015285606088015260808701526138736127c0565b5061387c6127c0565b6040516138888161230a565b600181526005602082015281526040516138a18161230a565b600481526002602082015260208201526040516138bd8161230a565b600481526008602082015260408201526040516138d98161230a565b600681526003602082015260608201526040516138f58161230a565b600681526007602082015260808201526040516139118161230a565b600881526005602082015260a08201526139296127c0565b506139326127c0565b9660405161393f8161230a565b600f81526005602082015288526040516139588161230a565b600c81526002602082015260208901526040516139748161230a565b600c81526008602082015260408901526040516139908161230a565b600a81526002602082015260608901526040516139ac8161230a565b600a81526008602082015260808901526040516139c88161230a565b600a81526005602082015260a0890152604051976139e58961229d565b8789528760208a01528760408a01528760608a01528760808a01528760a08a01528760c08a015260405190613a198261230a565b600882526005602083015260405193613a31856122d4565b84526020840152604083015260016060830152604051938461014081011060018060401b03610140870111176111d75761014085016040528785528760208601528760408601528760608601528760808601528760a08601528760c08601528760e0860152876101008601528761012086015260405198613ab18a6122b8565b868a524260208b015260408a015260608901526080880152600160a08801528560c088015260e087015284610100870152846101208701526101408601526001610160860152610180850152825260036020526040822083518155602084015160018201556002810160408501519060ff825116815490610100600160481b03602085015160081b169160018060481b0319161717905560408101516003830155606081015160048301556080810151600381101561402f5760c0613b9e92613b7f60ff9360058701612c14565b613b928360a08301511660058701612cb1565b01511660058301612cd9565b60608401518051600683015560208101516007830180546001600160401b0319166001600160401b039283161781556040830151613bdd921690613624565b6060810151600181101561402f5760078301805460ff60801b1916608092831b60ff60801b161790550151835b6005811061404357505060808401518051600d8301556020810151600e830180546001600160401b0319166001600160401b039283161781556040830151613c53921690613624565b6060810151600181101561402f57600e8301805460ff60801b1916608092831b60ff60801b161790550151835b6005811061401857505060a0840151613c9881612105565b613ca181612105565b60ff8019601484015416911617601482015560c08401516003811015613fa657613cce906014830161364d565b60e08401518051601583019085905b60068210613fe9575050506020810151601b83019085905b60068210613fba57505050606090613d286021840160ff6020604085015182815116831985541617845501511690612cb1565b01516003811015613fa657613d409060228301612c14565b610100840151602382015560248101610120850151151560ff8019835416911617905561014084015180519060018060401b038211613f9257613d9382613d8a602586015461259d565b60258601612c43565b602090601f8311600114613f2357613db49291869183613395575050612c7d565b60258201555b6026810160ff6101608601511660ff19825416179055610180840151835b600a8110613f0c5750505073__$18826597157b5485acfb86513cd242e4d3$__90813b15613f08578290606460405180948193636c2a23bf60e01b8352600960048401526004602484015260448301525af48015613efd57613ee6575b50600560408285613e939452600460205260068282200161ff0019906101008282541617905587825261010060068484200191825416179055858152613e81838383200186519061366c565b8681526004602052200182519061366c565b805160085490600160401b8210156111d75761368f826001613eb8940160085561266d565b517f94b80033a8327ab5e699285e343e5f1027e2299b685ec5836a08f3a8faacbd59602060405160018152a4565b613ef08291612325565b613efa5738613e35565b80fd5b6040513d84823e3d90fd5b8280fd5b600190602083519301926027828601015501613dd8565b9190602584018652602086209086935b601f1984168510613f77576001945083601f19811610613f5e575b505050811b016025820155613dba565b015160001960f88460031b161c19169055388080613f4e565b81810151835560209485019460019093019290910190613f33565b634e487b7160e01b85526041600452602485fd5b634e487b7160e01b84526021600452602484fd5b6001602082613fdd60ff838596518281511683198b5416178a5501511687612cb1565b01930191019091613cf5565b600160208261400c60ff838596518281511683198b5416178a5501511687612cb1565b01930191019091613cdd565b60019060208351930192600f828601015501613c80565b634e487b7160e01b85526021600452602485fd5b600190602083519301926008828601015501613c0a565b73__$18826597157b5485acfb86513cd242e4d3$__83825260096020526002604083200154825260046020526007604083200154813b15613f08578290606460405180948193636c2a23bf60e01b8352600960048401526004602484015260448301525af48015613efd576140d0575b50613769565b6140d990612325565b386140ca565b604051635e003ea960e01b8152600490fd5b60008051602061537a833981519152546001600160a01b0316330361411257565b60405163118cdaa760e01b8152336004820152602490fd5b60008181526003806020526040918281209060068201548152600492600460205284822093600d840154835285832092601485019460ff8654169461416e86612105565b6001809603614330579060059160068060089a8b810180549060018060401b03908161419b81851661518c565b166001600160401b03199384161790558d86018054909290916141bf81841661518c565b169116179055019161ff0019928381541690550190815416905501805460ff8116600360ff198954161788556003811015613fa6578695949392919060010361431e5750805462ffff0019166103001790555b80945b61424d575b50505050506000805160206153fa833981519152929160ff9154901c166142438251809261202e565b60016020820152a2565b86548086101561431857896142618761266d565b905490861b1c1461427757508380950194614215565b949193509160001994858101908111614305576142a6929161429b61368f9261266d565b9054911b1c9161266d565b84549182156142f2575050916000805160206153fa83398151915294939160ff93016142e56142d48261266d565b8154906000199060031b1b19169055565b825591819394388061421a565b634e487b7160e01b825260319052602490fd5b634e487b7160e01b845260118552602484fd5b5061421a565b62ffff00191662030000179055614212565b885162461bcd60e51b815260206004820152601260248201527147616d65206973206e6f742061637469766560701b6044820152606490fd5b806000526003602052604060002090602d60ff60028401541610614d7657600682015460005260046020526040600020600d830154600052604060002090600160ff6014860154166143ba81612105565b03614d3c57600881018054600692839290916001600160401b036143df81831661518c565b6001600160401b031990921691161790556008840180546001600160401b0361440982821661518c565b166001600160401b03199190911617905501805461ff0019908116909155910180549091169055600582015460ff601082901c81169160081c1681811115614d2257505061446760015b60148401805460ff1916600217815561364d565b8060005260036020526040600020600681015460005260046020526040600020600d820154600052604060002060058201541580614d0b575b614cba575b60058101541580614ca3575b614c52575b6007830154600e8401546005850154936014600886901c60ff16119290916001600160401b039081169116838015614c42575b614c045760ff8660101c1660ff8760081c1614600014614bde576032905b60648211614bc5576000946001600160fb1b03831683036108ef57818403614ac157610640955b50858360051b10600014614ab6578260051b86035b6127108111614aad575b60ff8960101c1660ff8a60081c161415600014614aa75761458660649161458060ff8c60101c1660ff8d60081c1661523e565b90612c90565b04905b6127108211614a9d575b601460ff8a60101c1611908115614a95575b50614a565760ff8860081c1660ff8960101c1614600014614a30576032955b60648711614a17576000966001600160fb1b03811681036108ef578584036148d0579161477898979695939161475c9a61471f9694610640905b818160051b109a508a6000146148c65760051b9003905b61271082116148bc575b60ff8160081c1660ff8260101c1614156000146148b5576064916145808260ff806146529560081c169160101c1661523e565b04935b61271085116148ab575b60051b1015614891576001600160401b039161467b9190612969565b16945b15614877576001600160401b03916146969190612969565b16965b600385810180546001600160401b03199081166001600160401b039b8c16178255918501805490921699909516898117825594989094611388918291821161486d575b505088546001600160401b0381168211614859575b5050835461470b906001600160401b031660078301613624565b87546001600160401b031690600e01613624565b5490546040517fcbbcee95272cfb3753df326bdc92854d09463c4834c094a042f4066cc803b9b59586928291906001600160401b03168a836151a4565b0390a25492546040519182916001600160401b031686836151a4565b0390a260005b6008548082101561483b57826147938361266d565b90549060031b1c146147a8575060010161477e565b91926000199290918184019182116108ef5761368f6147c96147d69361266d565b90549060031b1c9161266d565b60085491821561482557601460409260ff926000805160206153fa83398151915295016148056142d48261266d565b6008555b015460081c1661481b8251809261202e565b60006020820152a2565b634e487b7160e01b600052603160045260246000fd5b505090604060ff60146000805160206153fa83398151915293614809565b6001600160401b03191617885538806146f1565b17855580386146dc565b6001600160401b039161488a9190612976565b1696614699565b6001600160401b03916148a49190612976565b169461467e565b612710945061465f565b5093614655565b612710915061461f565b60051b0390614615565b83861115614a065760196148e48588612969565b6104658082116149fe575b5004600a60018216156149f657600a915b60011c90815b6149a757505061491e61491e61491e614923936152a8565b6152a8565b801561499f575b8487111561495e579161475c9a61471f969492614958856064806147789f9e9d9c9a98019160051b02615220565b906145fe565b94929098979695939185606401156149895761475c9a6147789a61471f97606401610c8004906145fe565b634e487b7160e01b600052601260045260246000fd5b50600161492a565b8060801c6149f2578002908a6149f25781600182166149cc575b5060011c9081614906565b9092809b508180820204036149e7575b60009a0291386149c1565b80156149dc57600080fd5b8a80fd5b600191614900565b9050386148ef565b6019614a128786612969565b6148e4565b604051632c870e6b60e11b815260048101889052602490fd5b60ff8860081c1660ff8960101c1611600014614a4e576064956145c4565b6000956145c4565b602460ff89818160081c16828260101c1611600014614a8c5760101c165b60ff6040519163fc8c9a9b60e01b8352166004820152fd5b60081c16614a74565b9050386145a5565b6127109150614593565b90614589565b5061271061454d565b858360051b03614543565b83821115614bb4576019614ad58584612969565b610465808211614bac575b5004600a6001821615614ba457600a915b60011c90815b614b5557505061491e61491e61491e614b0f936152a8565b8015614b4d575b84831115614b375780606480614b3193019160051b02615220565b9561452e565b806064011561498957606401610c80049561452e565b506001614b16565b8060801c614ba05780029088614ba0578160018216614b7a575b5060011c9081614af7565b9092809950818082020403614b95575b600098029138614b6f565b8015614b8a57600080fd5b8880fd5b600191614af1565b905038614ae0565b6019614bc08386612969565b614ad5565b604051632c870e6b60e11b815260048101839052602490fd5b60ff8660101c1660ff8760081c1611600014614bfc57606490614507565b600090614507565b602460ff87818160101c16828260081c1611600014614c395760081c1660ff6040519163fc8c9a9b60e01b8352166004820152fd5b60101c16614a74565b50601460ff8760101c16116144e9565b6003810180546001600160401b031916612710908117909155600e840180549091906001600160401b038116606414614c8e575b5050506144b6565b6001600160401b031916179055388080614c86565b5060038101546001600160401b03166064146144b1565b6003820180546001600160401b0319166127109081179091556007840180549091906001600160401b038116606414614cf6575b5050506144a5565b6001600160401b031916179055388080614cee565b5060038201546001600160401b03166064146144a0565b1015614d32576144676002614453565b6144676000614453565b60405162461bcd60e51b815260206004820152601260248201527147616d65206973206e6f742061637469766560701b6044820152606490fd5b604051636ff6cfe560e01b8152600490fd5b9290936000918583526020936003855260409586852090600160ff601484015416614db281612105565b03614fdf576003831015614fcb578215614fba578315614fa957600183148080614f9c575b614f8b5760028414908180614f7e575b614f6d5715614f3557506006820154865260048752878620600101546001600160a01b03908116911603614f24576002905b019260ff8454169060ff80614e2d84612cc7565b9216911603614f1357602d1115614f0457614e5e908651936378e02d7160e11b85526004850152602484019061202e565b6044820152828160648173__$18826597157b5485acfb86513cd242e4d3$__5af4918215614ef9578092614ec1575b5050614e9857505050565b7fd6ad8b09cb4bf385f0569c05c242d45e491f752df651aae6a2db9ff589bd9fae9151428152a2565b9091508282813d8311614ef2575b614ed98183612354565b81010312613efa5750614eeb90613052565b3880614e8d565b503d614ecf565b8451903d90823e3d90fd5b5050505050506121a290614369565b8651638291953560e01b8152600490fd5b8651633093624d60e21b8152600490fd5b614f43575b50600290614e19565b600d820154865260048752878620600101546001600160a01b03908116911603614f245738614f3a565b8951635ce6d95760e11b8152600490fd5b5060048401541515614de7565b8851635ce6d95760e11b8152600490fd5b5060038301541515614dd7565b8751635101966360e01b8152600490fd5b8751636f6fc75f60e11b8152600490fd5b634e487b7160e01b86526021600452602486fd5b87516314bc0c2f60e31b8152600490fd5b91909182156103065760009280845260096020526040600381862001541561514d5781855260096020526001818620015485526004928360205260018060a01b0380600184892001541691160361513e57818552600960205260038186200154603c810180911161512b5742111561511c57818552600960205280852092600260018501549401549573__$18826597157b5485acfb86513cd242e4d3$__91823b156151185781906064855180958193636c2a23bf60e01b835260098184015260248301528860448301525af490811561510d5750917f773e15a265d8549eebc3e80bafb0e2cbeba28c5d2b2a081e31c34554c7d0507d959691612fa7936150fe575b505193849384612e63565b61510790612325565b386150f3565b8351903d90823e3d90fd5b5080fd5b516343dcbe9f60e01b81529050fd5b634e487b7160e01b865260118452602486fd5b51633093624d60e21b81529050fd5b5163b0ce759160e01b8152600490fd5b60ff6000805160206153da8339815191525460401c161561517a57565b604051631afcd79f60e31b8152600490fd5b6001600160401b039081169081146108ef5760010190565b9081526001600160401b03909116602082015260400190565b906151e457508051156151d257602081519101fd5b60405163d6bda27560e01b8152600490fd5b81511580615217575b6151f5575090565b604051639996b31560e01b81526001600160a01b039091166004820152602490fd5b50803b156151ed565b8115614989570490565b9060ff8091169116039060ff82116108ef57565b9060ff81169160ff81169280841461529f5760ff93111561529157906152639161522a565b166001811461528b5760028114615285576003146152805760c890565b60af90565b50609690565b50606490565b61529a9161522a565b615263565b50505050606490565b60b581600160881b811015615347575b6201000090600160481b81101561533a575b600160281b81101561532d575b6301000000811015615320575b010260121c60019080830401811c80830401811c80830401811c80830401811c80830401811c80830401811c80830401901c8080920410900390565b60101c9160081b916152e4565b60201c9160101b916152d7565b60401c9160201b916152ca565b5060b560401b9050608082901c6152b856fe579c31d7f947df31adb29f8688c651ffa98030b83bb0d87632c86357f13afafd9016d09d72d40fdae2fd8ceac6b6234c7706214fd39c1cd1e609a0528c199300360894a13ba1a3210667c828492db98dca3e2076cc3735a920a3ca505d382bbc8be0079c531659141344cd1fd0a4f28419497f9722a3daafe3b4186f6b6457e0f0c57e16840df040f15088dc2f81fe391c3923bec73e23a9662efc9c229c6a004019f194fe4a757f9f1441d256eeb40c3f12e80f9da6188b5ad1a5fcda7217d740f6909351d16bebd2bb97c72ea15dc2508f321a25ba4ff1df4c330cced53820a26469706673582212202d159fac3b0cf228466b48cd86f20a019ba97e7c87b497e140dec4d3c8fe4f6564736f6c63430008180033",
  "linkReferences": {
    "contracts/GameLib.sol": {
      "GameLib": [
        {
          "length": 20,
          "start": 12642
        },
        {
          "length": 20,
          "start": 16060
        },
        {
          "length": 20,
          "start": 16691
        },
        {
          "length": 20,
          "start": 20289
        },
        {
          "length": 20,
          "start": 20818
        }
      ]
    }
  },
  "deployedLinkReferences": {
    "contracts/GameLib.sol": {
      "GameLib": [
        {
          "length": 20,
          "start": 12427
        },
        {
          "length": 20,
          "start": 15845
        },
        {
          "length": 20,
          "start": 16476
        },
        {
          "length": 20,
          "start": 20074
        },
        {
          "length": 20,
          "start": 20603
        }
      ]
    }
  }
}