{
  "_format": "hh-sol-artifact-1",
  "contractName": "ChessBallGame",
  "sourceName": "contracts/Game.sol",
  "abi": [
    {
      "inputs": [],
      "stateMutability": "nonpayable",
      "type": "constructor"
    },
    {
      "inputs": [],
      "name": "ActionsNotCommitted",
      "type": "error"
    },
    {
      "inputs": [
        {
          "internalType": "address",
          "name": "target",
          "type": "address"
        }
      ],
      "name": "AddressEmptyCode",
      "type": "error"
    },
    {
      "inputs": [],
      "name": "CreateTeam_NameIsRequired",
      "type": "error"
    },
    {
      "inputs": [],
      "name": "CreateTeam_TeamAlreadyExists",
      "type": "error"
    },
    {
      "inputs": [],
      "name": "CreateTeam_TeamNameAlreadyExists",
      "type": "error"
    },
    {
      "inputs": [],
      "name": "DoesNotExist",
      "type": "error"
    },
    {
      "inputs": [
        {
          "internalType": "address",
          "name": "implementation",
          "type": "address"
        }
      ],
      "name": "ERC1967InvalidImplementation",
      "type": "error"
    },
    {
      "inputs": [],
      "name": "ERC1967NonPayable",
      "type": "error"
    },
    {
      "inputs": [],
      "name": "FailedCall",
      "type": "error"
    },
    {
      "inputs": [],
      "name": "FinishGameByTimeout_NoLastMove",
      "type": "error"
    },
    {
      "inputs": [],
      "name": "GameHasNotReachedMaxMoves",
      "type": "error"
    },
    {
      "inputs": [],
      "name": "GameIsNotActive",
      "type": "error"
    },
    {
      "inputs": [],
      "name": "GameOwnerShouldCall",
      "type": "error"
    },
    {
      "inputs": [],
      "name": "GameRequestNotExpired",
      "type": "error"
    },
    {
      "inputs": [],
      "name": "GameRequestTimeoutNotReached",
      "type": "error"
    },
    {
      "inputs": [],
      "name": "InitAddressCannotBeZero",
      "type": "error"
    },
    {
      "inputs": [],
      "name": "InvalidInitialization",
      "type": "error"
    },
    {
      "inputs": [],
      "name": "InvalidTeam",
      "type": "error"
    },
    {
      "inputs": [],
      "name": "MovesAlreadyCommitted",
      "type": "error"
    },
    {
      "inputs": [],
      "name": "NotInitializing",
      "type": "error"
    },
    {
      "inputs": [],
      "name": "OnlyGameEngineServerCanCall",
      "type": "error"
    },
    {
      "inputs": [],
      "name": "OnlyRelayerCanCall",
      "type": "error"
    },
    {
      "inputs": [
        {
          "internalType": "address",
          "name": "owner",
          "type": "address"
        }
      ],
      "name": "OwnableInvalidOwner",
      "type": "error"
    },
    {
      "inputs": [
        {
          "internalType": "address",
          "name": "account",
          "type": "address"
        }
      ],
      "name": "OwnableUnauthorizedAccount",
      "type": "error"
    },
    {
      "inputs": [],
      "name": "TeamAlreadyHasActiveGame",
      "type": "error"
    },
    {
      "inputs": [],
      "name": "TeamsCannotBeSame",
      "type": "error"
    },
    {
      "inputs": [],
      "name": "UUPSUnauthorizedCallContext",
      "type": "error"
    },
    {
      "inputs": [
        {
          "internalType": "bytes32",
          "name": "slot",
          "type": "bytes32"
        }
      ],
      "name": "UUPSUnsupportedProxiableUUID",
      "type": "error"
    },
    {
      "anonymous": false,
      "inputs": [
        {
          "indexed": true,
          "internalType": "uint256",
          "name": "gameId",
          "type": "uint256"
        },
        {
          "indexed": false,
          "internalType": "enum GameLib.TeamEnum",
          "name": "winner",
          "type": "uint8"
        },
        {
          "indexed": false,
          "internalType": "enum GameLib.FinishReason",
          "name": "finishReason",
          "type": "uint8"
        }
      ],
      "name": "GameFinished",
      "type": "event"
    },
    {
      "anonymous": false,
      "inputs": [
        {
          "indexed": false,
          "internalType": "uint256",
          "name": "gameRequestId",
          "type": "uint256"
        },
        {
          "indexed": false,
          "internalType": "uint256",
          "name": "team1id",
          "type": "uint256"
        },
        {
          "indexed": false,
          "internalType": "uint256",
          "name": "team2id",
          "type": "uint256"
        }
      ],
      "name": "GameRequestCancelled",
      "type": "event"
    },
    {
      "anonymous": false,
      "inputs": [
        {
          "indexed": false,
          "internalType": "uint256",
          "name": "gameRequestId",
          "type": "uint256"
        },
        {
          "indexed": false,
          "internalType": "uint256",
          "name": "team1id",
          "type": "uint256"
        },
        {
          "indexed": false,
          "internalType": "uint256",
          "name": "team2id",
          "type": "uint256"
        }
      ],
      "name": "GameRequestCreated",
      "type": "event"
    },
    {
      "anonymous": false,
      "inputs": [
        {
          "indexed": true,
          "internalType": "uint256",
          "name": "gameId",
          "type": "uint256"
        },
        {
          "indexed": true,
          "internalType": "uint256",
          "name": "team1id",
          "type": "uint256"
        },
        {
          "indexed": true,
          "internalType": "uint256",
          "name": "team2id",
          "type": "uint256"
        },
        {
          "indexed": false,
          "internalType": "enum GameLib.TeamEnum",
          "name": "teamWithBall",
          "type": "uint8"
        }
      ],
      "name": "GameStarted",
      "type": "event"
    },
    {
      "anonymous": false,
      "inputs": [
        {
          "indexed": true,
          "internalType": "uint256",
          "name": "gameId",
          "type": "uint256"
        },
        {
          "indexed": false,
          "internalType": "enum GameLib.TeamEnum",
          "name": "cauzedByTeam",
          "type": "uint8"
        },
        {
          "indexed": false,
          "internalType": "enum ChessBallGame.ErrorType",
          "name": "errorType",
          "type": "uint8"
        },
        {
          "indexed": false,
          "internalType": "uint256",
          "name": "time",
          "type": "uint256"
        },
        {
          "indexed": false,
          "internalType": "string",
          "name": "errorMsg",
          "type": "string"
        }
      ],
      "name": "GameStateError",
      "type": "event"
    },
    {
      "anonymous": false,
      "inputs": [
        {
          "indexed": true,
          "internalType": "uint256",
          "name": "gameId",
          "type": "uint256"
        },
        {
          "indexed": false,
          "internalType": "enum GameLib.TeamEnum",
          "name": "scoringTeam",
          "type": "uint8"
        }
      ],
      "name": "GoalScored",
      "type": "event"
    },
    {
      "anonymous": false,
      "inputs": [
        {
          "indexed": false,
          "internalType": "uint64",
          "name": "version",
          "type": "uint64"
        }
      ],
      "name": "Initialized",
      "type": "event"
    },
    {
      "anonymous": false,
      "inputs": [
        {
          "indexed": true,
          "internalType": "uint256",
          "name": "gameId",
          "type": "uint256"
        },
        {
          "indexed": false,
          "internalType": "enum GameLib.StateType",
          "name": "stateType",
          "type": "uint8"
        },
        {
          "indexed": false,
          "internalType": "uint256",
          "name": "time",
          "type": "uint256"
        },
        {
          "indexed": false,
          "internalType": "uint8[]",
          "name": "clashRandomNumbers",
          "type": "uint8[]"
        },
        {
          "components": [
            {
              "internalType": "uint256",
              "name": "playerId",
              "type": "uint256"
            },
            {
              "internalType": "enum GameLib.MoveType",
              "name": "moveType",
              "type": "uint8"
            },
            {
              "components": [
                {
                  "internalType": "uint8",
                  "name": "x",
                  "type": "uint8"
                },
                {
                  "internalType": "uint8",
                  "name": "y",
                  "type": "uint8"
                }
              ],
              "internalType": "struct GameLib.Position",
              "name": "oldPosition",
              "type": "tuple"
            },
            {
              "components": [
                {
                  "internalType": "uint8",
                  "name": "x",
                  "type": "uint8"
                },
                {
                  "internalType": "uint8",
                  "name": "y",
                  "type": "uint8"
                }
              ],
              "internalType": "struct GameLib.Position",
              "name": "newPosition",
              "type": "tuple"
            }
          ],
          "indexed": false,
          "internalType": "struct GameLib.GameAction[]",
          "name": "team1Actions",
          "type": "tuple[]"
        },
        {
          "components": [
            {
              "internalType": "uint256",
              "name": "playerId",
              "type": "uint256"
            },
            {
              "internalType": "enum GameLib.MoveType",
              "name": "moveType",
              "type": "uint8"
            },
            {
              "components": [
                {
                  "internalType": "uint8",
                  "name": "x",
                  "type": "uint8"
                },
                {
                  "internalType": "uint8",
                  "name": "y",
                  "type": "uint8"
                }
              ],
              "internalType": "struct GameLib.Position",
              "name": "oldPosition",
              "type": "tuple"
            },
            {
              "components": [
                {
                  "internalType": "uint8",
                  "name": "x",
                  "type": "uint8"
                },
                {
                  "internalType": "uint8",
                  "name": "y",
                  "type": "uint8"
                }
              ],
              "internalType": "struct GameLib.Position",
              "name": "newPosition",
              "type": "tuple"
            }
          ],
          "indexed": false,
          "internalType": "struct GameLib.GameAction[]",
          "name": "team2Actions",
          "type": "tuple[]"
        },
        {
          "components": [
            {
              "internalType": "uint8",
              "name": "x",
              "type": "uint8"
            },
            {
              "internalType": "uint8",
              "name": "y",
              "type": "uint8"
            }
          ],
          "indexed": false,
          "internalType": "struct GameLib.Position",
          "name": "ballPosition",
          "type": "tuple"
        },
        {
          "indexed": false,
          "internalType": "enum GameLib.TeamEnum",
          "name": "ballOwner",
          "type": "uint8"
        }
      ],
      "name": "NewGameState",
      "type": "event"
    },
    {
      "anonymous": false,
      "inputs": [
        {
          "indexed": true,
          "internalType": "address",
          "name": "previousOwner",
          "type": "address"
        },
        {
          "indexed": true,
          "internalType": "address",
          "name": "newOwner",
          "type": "address"
        }
      ],
      "name": "OwnershipTransferred",
      "type": "event"
    },
    {
      "anonymous": false,
      "inputs": [
        {
          "indexed": true,
          "internalType": "uint256",
          "name": "teamId",
          "type": "uint256"
        },
        {
          "indexed": true,
          "internalType": "address",
          "name": "owner",
          "type": "address"
        },
        {
          "indexed": false,
          "internalType": "string",
          "name": "name",
          "type": "string"
        },
        {
          "indexed": false,
          "internalType": "uint8",
          "name": "country",
          "type": "uint8"
        }
      ],
      "name": "TeamCreated",
      "type": "event"
    },
    {
      "anonymous": false,
      "inputs": [
        {
          "indexed": true,
          "internalType": "address",
          "name": "implementation",
          "type": "address"
        }
      ],
      "name": "Upgraded",
      "type": "event"
    },
    {
      "anonymous": false,
      "inputs": [
        {
          "indexed": true,
          "internalType": "uint256",
          "name": "gameId",
          "type": "uint256"
        },
        {
          "indexed": false,
          "internalType": "uint256",
          "name": "timestamp",
          "type": "uint256"
        }
      ],
      "name": "gameActionCommitted",
      "type": "event"
    },
    {
      "inputs": [],
      "name": "UPGRADE_INTERFACE_VERSION",
      "outputs": [
        {
          "internalType": "string",
          "name": "",
          "type": "string"
        }
      ],
      "stateMutability": "view",
      "type": "function"
    },
    {
      "inputs": [
        {
          "internalType": "uint256",
          "name": "",
          "type": "uint256"
        }
      ],
      "name": "activeGames",
      "outputs": [
        {
          "internalType": "uint256",
          "name": "",
          "type": "uint256"
        }
      ],
      "stateMutability": "view",
      "type": "function"
    },
    {
      "inputs": [
        {
          "internalType": "uint256",
          "name": "gameRequestId",
          "type": "uint256"
        }
      ],
      "name": "cancelGameRequest",
      "outputs": [],
      "stateMutability": "nonpayable",
      "type": "function"
    },
    {
      "inputs": [
        {
          "internalType": "address",
          "name": "sender",
          "type": "address"
        },
        {
          "internalType": "uint256",
          "name": "gameRequestId",
          "type": "uint256"
        }
      ],
      "name": "cancelGameRequestRelayer",
      "outputs": [],
      "stateMutability": "nonpayable",
      "type": "function"
    },
    {
      "inputs": [
        {
          "internalType": "address",
          "name": "sender",
          "type": "address"
        },
        {
          "internalType": "uint256",
          "name": "gameId",
          "type": "uint256"
        },
        {
          "internalType": "enum GameLib.TeamEnum",
          "name": "team",
          "type": "uint8"
        }
      ],
      "name": "commitGameActionsRelayer",
      "outputs": [],
      "stateMutability": "nonpayable",
      "type": "function"
    },
    {
      "inputs": [
        {
          "internalType": "uint256",
          "name": "team1id",
          "type": "uint256"
        },
        {
          "internalType": "uint256",
          "name": "team2id",
          "type": "uint256"
        }
      ],
      "name": "createGameRequest",
      "outputs": [],
      "stateMutability": "nonpayable",
      "type": "function"
    },
    {
      "inputs": [
        {
          "internalType": "address",
          "name": "sender",
          "type": "address"
        },
        {
          "internalType": "uint256",
          "name": "team1id",
          "type": "uint256"
        },
        {
          "internalType": "uint256",
          "name": "team2id",
          "type": "uint256"
        }
      ],
      "name": "createGameRequestRelayer",
      "outputs": [],
      "stateMutability": "nonpayable",
      "type": "function"
    },
    {
      "inputs": [
        {
          "internalType": "string",
          "name": "name",
          "type": "string"
        },
        {
          "internalType": "uint8",
          "name": "country",
          "type": "uint8"
        }
      ],
      "name": "createTeam",
      "outputs": [],
      "stateMutability": "nonpayable",
      "type": "function"
    },
    {
      "inputs": [
        {
          "internalType": "address",
          "name": "sender",
          "type": "address"
        },
        {
          "internalType": "string",
          "name": "name",
          "type": "string"
        },
        {
          "internalType": "uint8",
          "name": "country",
          "type": "uint8"
        }
      ],
      "name": "createTeamRelayer",
      "outputs": [],
      "stateMutability": "nonpayable",
      "type": "function"
    },
    {
      "inputs": [
        {
          "internalType": "uint256",
          "name": "gameId",
          "type": "uint256"
        }
      ],
      "name": "finishGameByTimeout",
      "outputs": [],
      "stateMutability": "nonpayable",
      "type": "function"
    },
    {
      "inputs": [
        {
          "internalType": "address",
          "name": "sender",
          "type": "address"
        },
        {
          "internalType": "uint256",
          "name": "gameId",
          "type": "uint256"
        }
      ],
      "name": "finishGameByTimeoutRelayer",
      "outputs": [],
      "stateMutability": "nonpayable",
      "type": "function"
    },
    {
      "inputs": [],
      "name": "gameEngineServerAddress",
      "outputs": [
        {
          "internalType": "address",
          "name": "",
          "type": "address"
        }
      ],
      "stateMutability": "view",
      "type": "function"
    },
    {
      "inputs": [],
      "name": "gameRequestIndex",
      "outputs": [
        {
          "internalType": "uint256",
          "name": "",
          "type": "uint256"
        }
      ],
      "stateMutability": "view",
      "type": "function"
    },
    {
      "inputs": [
        {
          "internalType": "uint256",
          "name": "",
          "type": "uint256"
        }
      ],
      "name": "gameRequests",
      "outputs": [
        {
          "internalType": "uint256",
          "name": "gameRequestId",
          "type": "uint256"
        },
        {
          "internalType": "uint256",
          "name": "team1id",
          "type": "uint256"
        },
        {
          "internalType": "uint256",
          "name": "team2id",
          "type": "uint256"
        },
        {
          "internalType": "uint256",
          "name": "createdAt",
          "type": "uint256"
        }
      ],
      "stateMutability": "view",
      "type": "function"
    },
    {
      "inputs": [
        {
          "internalType": "uint256",
          "name": "",
          "type": "uint256"
        }
      ],
      "name": "games",
      "outputs": [
        {
          "internalType": "uint256",
          "name": "gameId",
          "type": "uint256"
        },
        {
          "internalType": "uint256",
          "name": "createdAt",
          "type": "uint256"
        },
        {
          "components": [
            {
              "internalType": "uint8",
              "name": "movesMade",
              "type": "uint8"
            },
            {
              "internalType": "uint64",
              "name": "lastMoveAt",
              "type": "uint64"
            },
            {
              "internalType": "bool",
              "name": "team1MadeMove",
              "type": "bool"
            },
            {
              "internalType": "bool",
              "name": "team2MadeMove",
              "type": "bool"
            },
            {
              "internalType": "enum GameLib.TeamEnum",
              "name": "lastMoveTeam",
              "type": "uint8"
            },
            {
              "internalType": "uint8",
              "name": "team1score",
              "type": "uint8"
            },
            {
              "internalType": "uint8",
              "name": "team2score",
              "type": "uint8"
            }
          ],
          "internalType": "struct GameLib.GameState",
          "name": "gameState",
          "type": "tuple"
        },
        {
          "components": [
            {
              "internalType": "uint256",
              "name": "teamId",
              "type": "uint256"
            },
            {
              "internalType": "uint64",
              "name": "eloRating",
              "type": "uint64"
            },
            {
              "internalType": "uint64",
              "name": "eloRatingNew",
              "type": "uint64"
            },
            {
              "internalType": "enum GameLib.TeamFormation",
              "name": "formation",
              "type": "uint8"
            },
            {
              "internalType": "uint256[5]",
              "name": "__gap",
              "type": "uint256[5]"
            }
          ],
          "internalType": "struct GameLib.TeamInfo",
          "name": "team1",
          "type": "tuple"
        },
        {
          "components": [
            {
              "internalType": "uint256",
              "name": "teamId",
              "type": "uint256"
            },
            {
              "internalType": "uint64",
              "name": "eloRating",
              "type": "uint64"
            },
            {
              "internalType": "uint64",
              "name": "eloRatingNew",
              "type": "uint64"
            },
            {
              "internalType": "enum GameLib.TeamFormation",
              "name": "formation",
              "type": "uint8"
            },
            {
              "internalType": "uint256[5]",
              "name": "__gap",
              "type": "uint256[5]"
            }
          ],
          "internalType": "struct GameLib.TeamInfo",
          "name": "team2",
          "type": "tuple"
        },
        {
          "internalType": "enum GameLib.GameStatus",
          "name": "status",
          "type": "uint8"
        },
        {
          "internalType": "enum GameLib.TeamEnum",
          "name": "winner",
          "type": "uint8"
        },
        {
          "internalType": "bytes32",
          "name": "historyIPFS",
          "type": "bytes32"
        },
        {
          "internalType": "bool",
          "name": "isVerified",
          "type": "bool"
        },
        {
          "internalType": "uint8",
          "name": "gameEngineVersion",
          "type": "uint8"
        }
      ],
      "stateMutability": "view",
      "type": "function"
    },
    {
      "inputs": [],
      "name": "gelatoAddress",
      "outputs": [
        {
          "internalType": "address",
          "name": "",
          "type": "address"
        }
      ],
      "stateMutability": "view",
      "type": "function"
    },
    {
      "inputs": [],
      "name": "getActiveGameCount",
      "outputs": [
        {
          "internalType": "uint256",
          "name": "",
          "type": "uint256"
        }
      ],
      "stateMutability": "view",
      "type": "function"
    },
    {
      "inputs": [],
      "name": "getActiveGames",
      "outputs": [
        {
          "internalType": "uint256[]",
          "name": "",
          "type": "uint256[]"
        }
      ],
      "stateMutability": "view",
      "type": "function"
    },
    {
      "inputs": [
        {
          "internalType": "uint256",
          "name": "gameId",
          "type": "uint256"
        }
      ],
      "name": "getGame",
      "outputs": [
        {
          "components": [
            {
              "internalType": "uint256",
              "name": "gameId",
              "type": "uint256"
            },
            {
              "internalType": "uint256",
              "name": "createdAt",
              "type": "uint256"
            },
            {
              "components": [
                {
                  "internalType": "uint8",
                  "name": "movesMade",
                  "type": "uint8"
                },
                {
                  "internalType": "uint64",
                  "name": "lastMoveAt",
                  "type": "uint64"
                },
                {
                  "internalType": "bool",
                  "name": "team1MadeMove",
                  "type": "bool"
                },
                {
                  "internalType": "bool",
                  "name": "team2MadeMove",
                  "type": "bool"
                },
                {
                  "internalType": "enum GameLib.TeamEnum",
                  "name": "lastMoveTeam",
                  "type": "uint8"
                },
                {
                  "internalType": "uint8",
                  "name": "team1score",
                  "type": "uint8"
                },
                {
                  "internalType": "uint8",
                  "name": "team2score",
                  "type": "uint8"
                }
              ],
              "internalType": "struct GameLib.GameState",
              "name": "gameState",
              "type": "tuple"
            },
            {
              "components": [
                {
                  "internalType": "uint256",
                  "name": "teamId",
                  "type": "uint256"
                },
                {
                  "internalType": "uint64",
                  "name": "eloRating",
                  "type": "uint64"
                },
                {
                  "internalType": "uint64",
                  "name": "eloRatingNew",
                  "type": "uint64"
                },
                {
                  "internalType": "enum GameLib.TeamFormation",
                  "name": "formation",
                  "type": "uint8"
                },
                {
                  "internalType": "uint256[5]",
                  "name": "__gap",
                  "type": "uint256[5]"
                }
              ],
              "internalType": "struct GameLib.TeamInfo",
              "name": "team1",
              "type": "tuple"
            },
            {
              "components": [
                {
                  "internalType": "uint256",
                  "name": "teamId",
                  "type": "uint256"
                },
                {
                  "internalType": "uint64",
                  "name": "eloRating",
                  "type": "uint64"
                },
                {
                  "internalType": "uint64",
                  "name": "eloRatingNew",
                  "type": "uint64"
                },
                {
                  "internalType": "enum GameLib.TeamFormation",
                  "name": "formation",
                  "type": "uint8"
                },
                {
                  "internalType": "uint256[5]",
                  "name": "__gap",
                  "type": "uint256[5]"
                }
              ],
              "internalType": "struct GameLib.TeamInfo",
              "name": "team2",
              "type": "tuple"
            },
            {
              "internalType": "enum GameLib.GameStatus",
              "name": "status",
              "type": "uint8"
            },
            {
              "internalType": "enum GameLib.TeamEnum",
              "name": "winner",
              "type": "uint8"
            },
            {
              "internalType": "bytes32",
              "name": "historyIPFS",
              "type": "bytes32"
            },
            {
              "internalType": "bool",
              "name": "isVerified",
              "type": "bool"
            },
            {
              "internalType": "uint8",
              "name": "gameEngineVersion",
              "type": "uint8"
            },
            {
              "internalType": "uint256[10]",
              "name": "__gap",
              "type": "uint256[10]"
            }
          ],
          "internalType": "struct GameLib.Game",
          "name": "",
          "type": "tuple"
        }
      ],
      "stateMutability": "view",
      "type": "function"
    },
    {
      "inputs": [
        {
          "internalType": "uint256",
          "name": "requestId",
          "type": "uint256"
        }
      ],
      "name": "getGameRequest",
      "outputs": [
        {
          "components": [
            {
              "internalType": "uint256",
              "name": "gameRequestId",
              "type": "uint256"
            },
            {
              "internalType": "uint256",
              "name": "team1id",
              "type": "uint256"
            },
            {
              "internalType": "uint256",
              "name": "team2id",
              "type": "uint256"
            },
            {
              "internalType": "uint256",
              "name": "createdAt",
              "type": "uint256"
            }
          ],
          "internalType": "struct GameLib.GameRequest",
          "name": "",
          "type": "tuple"
        }
      ],
      "stateMutability": "view",
      "type": "function"
    },
    {
      "inputs": [
        {
          "internalType": "uint256",
          "name": "gameId",
          "type": "uint256"
        }
      ],
      "name": "getGameStatus",
      "outputs": [
        {
          "internalType": "enum GameLib.GameStatus",
          "name": "",
          "type": "uint8"
        }
      ],
      "stateMutability": "view",
      "type": "function"
    },
    {
      "inputs": [
        {
          "internalType": "uint256",
          "name": "teamId",
          "type": "uint256"
        },
        {
          "internalType": "uint256",
          "name": "n",
          "type": "uint256"
        }
      ],
      "name": "getLastNGames",
      "outputs": [
        {
          "components": [
            {
              "internalType": "uint256",
              "name": "gameId",
              "type": "uint256"
            },
            {
              "internalType": "uint256",
              "name": "createdAt",
              "type": "uint256"
            },
            {
              "components": [
                {
                  "internalType": "uint8",
                  "name": "movesMade",
                  "type": "uint8"
                },
                {
                  "internalType": "uint64",
                  "name": "lastMoveAt",
                  "type": "uint64"
                },
                {
                  "internalType": "bool",
                  "name": "team1MadeMove",
                  "type": "bool"
                },
                {
                  "internalType": "bool",
                  "name": "team2MadeMove",
                  "type": "bool"
                },
                {
                  "internalType": "enum GameLib.TeamEnum",
                  "name": "lastMoveTeam",
                  "type": "uint8"
                },
                {
                  "internalType": "uint8",
                  "name": "team1score",
                  "type": "uint8"
                },
                {
                  "internalType": "uint8",
                  "name": "team2score",
                  "type": "uint8"
                }
              ],
              "internalType": "struct GameLib.GameState",
              "name": "gameState",
              "type": "tuple"
            },
            {
              "components": [
                {
                  "internalType": "uint256",
                  "name": "teamId",
                  "type": "uint256"
                },
                {
                  "internalType": "uint64",
                  "name": "eloRating",
                  "type": "uint64"
                },
                {
                  "internalType": "uint64",
                  "name": "eloRatingNew",
                  "type": "uint64"
                },
                {
                  "internalType": "enum GameLib.TeamFormation",
                  "name": "formation",
                  "type": "uint8"
                },
                {
                  "internalType": "uint256[5]",
                  "name": "__gap",
                  "type": "uint256[5]"
                }
              ],
              "internalType": "struct GameLib.TeamInfo",
              "name": "team1",
              "type": "tuple"
            },
            {
              "components": [
                {
                  "internalType": "uint256",
                  "name": "teamId",
                  "type": "uint256"
                },
                {
                  "internalType": "uint64",
                  "name": "eloRating",
                  "type": "uint64"
                },
                {
                  "internalType": "uint64",
                  "name": "eloRatingNew",
                  "type": "uint64"
                },
                {
                  "internalType": "enum GameLib.TeamFormation",
                  "name": "formation",
                  "type": "uint8"
                },
                {
                  "internalType": "uint256[5]",
                  "name": "__gap",
                  "type": "uint256[5]"
                }
              ],
              "internalType": "struct GameLib.TeamInfo",
              "name": "team2",
              "type": "tuple"
            },
            {
              "internalType": "enum GameLib.GameStatus",
              "name": "status",
              "type": "uint8"
            },
            {
              "internalType": "enum GameLib.TeamEnum",
              "name": "winner",
              "type": "uint8"
            },
            {
              "internalType": "bytes32",
              "name": "historyIPFS",
              "type": "bytes32"
            },
            {
              "internalType": "bool",
              "name": "isVerified",
              "type": "bool"
            },
            {
              "internalType": "uint8",
              "name": "gameEngineVersion",
              "type": "uint8"
            },
            {
              "internalType": "uint256[10]",
              "name": "__gap",
              "type": "uint256[10]"
            }
          ],
          "internalType": "struct GameLib.Game[]",
          "name": "",
          "type": "tuple[]"
        }
      ],
      "stateMutability": "view",
      "type": "function"
    },
    {
      "inputs": [
        {
          "internalType": "uint256",
          "name": "teamId",
          "type": "uint256"
        }
      ],
      "name": "getTeam",
      "outputs": [
        {
          "components": [
            {
              "internalType": "uint256",
              "name": "id",
              "type": "uint256"
            },
            {
              "internalType": "address",
              "name": "wallet",
              "type": "address"
            },
            {
              "internalType": "string",
              "name": "name",
              "type": "string"
            },
            {
              "internalType": "uint64",
              "name": "eloRating",
              "type": "uint64"
            },
            {
              "internalType": "uint256",
              "name": "registeredAt",
              "type": "uint256"
            },
            {
              "internalType": "uint256[]",
              "name": "games",
              "type": "uint256[]"
            },
            {
              "internalType": "uint8",
              "name": "country",
              "type": "uint8"
            },
            {
              "internalType": "bool",
              "name": "hasActiveGame",
              "type": "bool"
            },
            {
              "internalType": "uint256",
              "name": "gameRequestId",
              "type": "uint256"
            },
            {
              "internalType": "uint64",
              "name": "totalGames",
              "type": "uint64"
            },
            {
              "internalType": "uint256[10]",
              "name": "__gap",
              "type": "uint256[10]"
            }
          ],
          "internalType": "struct GameLib.Team",
          "name": "",
          "type": "tuple"
        }
      ],
      "stateMutability": "view",
      "type": "function"
    },
    {
      "inputs": [
        {
          "internalType": "address",
          "name": "wallet",
          "type": "address"
        }
      ],
      "name": "getTeamIdByWallet",
      "outputs": [
        {
          "internalType": "uint256",
          "name": "",
          "type": "uint256"
        }
      ],
      "stateMutability": "view",
      "type": "function"
    },
    {
      "inputs": [
        {
          "internalType": "address",
          "name": "_gelatoAddress",
          "type": "address"
        },
        {
          "internalType": "address",
          "name": "_relayerAddress",
          "type": "address"
        },
        {
          "internalType": "address",
          "name": "_gameEngineServerAddress",
          "type": "address"
        }
      ],
      "name": "initialize",
      "outputs": [],
      "stateMutability": "nonpayable",
      "type": "function"
    },
    {
      "inputs": [
        {
          "internalType": "uint256",
          "name": "gameId",
          "type": "uint256"
        },
        {
          "internalType": "enum GameLib.StateType",
          "name": "stateType",
          "type": "uint8"
        },
        {
          "internalType": "uint8[]",
          "name": "clashRandomNumbers",
          "type": "uint8[]"
        },
        {
          "components": [
            {
              "internalType": "uint256",
              "name": "playerId",
              "type": "uint256"
            },
            {
              "internalType": "enum GameLib.MoveType",
              "name": "moveType",
              "type": "uint8"
            },
            {
              "components": [
                {
                  "internalType": "uint8",
                  "name": "x",
                  "type": "uint8"
                },
                {
                  "internalType": "uint8",
                  "name": "y",
                  "type": "uint8"
                }
              ],
              "internalType": "struct GameLib.Position",
              "name": "oldPosition",
              "type": "tuple"
            },
            {
              "components": [
                {
                  "internalType": "uint8",
                  "name": "x",
                  "type": "uint8"
                },
                {
                  "internalType": "uint8",
                  "name": "y",
                  "type": "uint8"
                }
              ],
              "internalType": "struct GameLib.Position",
              "name": "newPosition",
              "type": "tuple"
            }
          ],
          "internalType": "struct GameLib.GameAction[]",
          "name": "team1Actions",
          "type": "tuple[]"
        },
        {
          "components": [
            {
              "internalType": "uint256",
              "name": "playerId",
              "type": "uint256"
            },
            {
              "internalType": "enum GameLib.MoveType",
              "name": "moveType",
              "type": "uint8"
            },
            {
              "components": [
                {
                  "internalType": "uint8",
                  "name": "x",
                  "type": "uint8"
                },
                {
                  "internalType": "uint8",
                  "name": "y",
                  "type": "uint8"
                }
              ],
              "internalType": "struct GameLib.Position",
              "name": "oldPosition",
              "type": "tuple"
            },
            {
              "components": [
                {
                  "internalType": "uint8",
                  "name": "x",
                  "type": "uint8"
                },
                {
                  "internalType": "uint8",
                  "name": "y",
                  "type": "uint8"
                }
              ],
              "internalType": "struct GameLib.Position",
              "name": "newPosition",
              "type": "tuple"
            }
          ],
          "internalType": "struct GameLib.GameAction[]",
          "name": "team2Actions",
          "type": "tuple[]"
        },
        {
          "components": [
            {
              "internalType": "uint8",
              "name": "x",
              "type": "uint8"
            },
            {
              "internalType": "uint8",
              "name": "y",
              "type": "uint8"
            }
          ],
          "internalType": "struct GameLib.Position",
          "name": "ballPosition",
          "type": "tuple"
        },
        {
          "internalType": "enum GameLib.TeamEnum",
          "name": "ballOwner",
          "type": "uint8"
        }
      ],
      "name": "newGameState",
      "outputs": [],
      "stateMutability": "nonpayable",
      "type": "function"
    },
    {
      "inputs": [],
      "name": "nextGameId",
      "outputs": [
        {
          "internalType": "uint256",
          "name": "",
          "type": "uint256"
        }
      ],
      "stateMutability": "view",
      "type": "function"
    },
    {
      "inputs": [],
      "name": "nextTeamId",
      "outputs": [
        {
          "internalType": "uint256",
          "name": "",
          "type": "uint256"
        }
      ],
      "stateMutability": "view",
      "type": "function"
    },
    {
      "inputs": [],
      "name": "owner",
      "outputs": [
        {
          "internalType": "address",
          "name": "",
          "type": "address"
        }
      ],
      "stateMutability": "view",
      "type": "function"
    },
    {
      "inputs": [],
      "name": "proxiableUUID",
      "outputs": [
        {
          "internalType": "bytes32",
          "name": "",
          "type": "bytes32"
        }
      ],
      "stateMutability": "view",
      "type": "function"
    },
    {
      "inputs": [],
      "name": "relayerAddress",
      "outputs": [
        {
          "internalType": "address",
          "name": "",
          "type": "address"
        }
      ],
      "stateMutability": "view",
      "type": "function"
    },
    {
      "inputs": [],
      "name": "renounceOwnership",
      "outputs": [],
      "stateMutability": "nonpayable",
      "type": "function"
    },
    {
      "inputs": [
        {
          "internalType": "uint256",
          "name": "gameId",
          "type": "uint256"
        },
        {
          "internalType": "enum GameLib.TeamEnum",
          "name": "cauzedByTeam",
          "type": "uint8"
        },
        {
          "internalType": "enum ChessBallGame.ErrorType",
          "name": "errorType",
          "type": "uint8"
        },
        {
          "internalType": "string",
          "name": "errorMsg",
          "type": "string"
        }
      ],
      "name": "setGameError",
      "outputs": [],
      "stateMutability": "nonpayable",
      "type": "function"
    },
    {
      "inputs": [
        {
          "internalType": "uint256",
          "name": "gameRequestId",
          "type": "uint256"
        }
      ],
      "name": "startGame",
      "outputs": [],
      "stateMutability": "nonpayable",
      "type": "function"
    },
    {
      "inputs": [
        {
          "internalType": "address",
          "name": "sender",
          "type": "address"
        },
        {
          "internalType": "uint256",
          "name": "gameRequestId",
          "type": "uint256"
        }
      ],
      "name": "startGameRelayer",
      "outputs": [],
      "stateMutability": "nonpayable",
      "type": "function"
    },
    {
      "inputs": [
        {
          "internalType": "address",
          "name": "",
          "type": "address"
        }
      ],
      "name": "teamIdByWallet",
      "outputs": [
        {
          "internalType": "uint256",
          "name": "",
          "type": "uint256"
        }
      ],
      "stateMutability": "view",
      "type": "function"
    },
    {
      "inputs": [
        {
          "internalType": "string",
          "name": "",
          "type": "string"
        }
      ],
      "name": "teamNames",
      "outputs": [
        {
          "internalType": "bool",
          "name": "",
          "type": "bool"
        }
      ],
      "stateMutability": "view",
      "type": "function"
    },
    {
      "inputs": [
        {
          "internalType": "uint256",
          "name": "",
          "type": "uint256"
        }
      ],
      "name": "teams",
      "outputs": [
        {
          "internalType": "uint256",
          "name": "id",
          "type": "uint256"
        },
        {
          "internalType": "address",
          "name": "wallet",
          "type": "address"
        },
        {
          "internalType": "string",
          "name": "name",
          "type": "string"
        },
        {
          "internalType": "uint64",
          "name": "eloRating",
          "type": "uint64"
        },
        {
          "internalType": "uint256",
          "name": "registeredAt",
          "type": "uint256"
        },
        {
          "internalType": "uint8",
          "name": "country",
          "type": "uint8"
        },
        {
          "internalType": "bool",
          "name": "hasActiveGame",
          "type": "bool"
        },
        {
          "internalType": "uint256",
          "name": "gameRequestId",
          "type": "uint256"
        },
        {
          "internalType": "uint64",
          "name": "totalGames",
          "type": "uint64"
        }
      ],
      "stateMutability": "view",
      "type": "function"
    },
    {
      "inputs": [
        {
          "internalType": "uint256",
          "name": "gameId",
          "type": "uint256"
        }
      ],
      "name": "testTriggerGameActionCommitted",
      "outputs": [],
      "stateMutability": "nonpayable",
      "type": "function"
    },
    {
      "inputs": [
        {
          "internalType": "address",
          "name": "newOwner",
          "type": "address"
        }
      ],
      "name": "transferOwnership",
      "outputs": [],
      "stateMutability": "nonpayable",
      "type": "function"
    },
    {
      "inputs": [
        {
          "internalType": "address",
          "name": "newImplementation",
          "type": "address"
        },
        {
          "internalType": "bytes",
          "name": "data",
          "type": "bytes"
        }
      ],
      "name": "upgradeToAndCall",
      "outputs": [],
      "stateMutability": "payable",
      "type": "function"
    }
  ],
  "bytecode": "0x60a08060405234620000d157306080527ff0c57e16840df040f15088dc2f81fe391c3923bec73e23a9662efc9c229c6a009081549060ff8260401c16620000c257506001600160401b036002600160401b0319828216016200007c575b6040516148799081620000d78239608051818181610a590152610b000152f35b6001600160401b031990911681179091556040519081527fc7f505b2f371ae2175ee4913f4499e1f2633a7b5936321eed1cdaeb6115181d290602090a13880806200005c565b63f92ee8a960e01b8152600490fd5b600080fdfe608080604052600436101561001357600080fd5b60003560e01c9081628e0f1b14611d435750806302f785fd14611cc657806304642f3e146113cd5780630f1bf4541461137b5780630fb9f869146111fc578063117a5b901461111f57806313e4c714146110e85780631894c756146110ca57806318a7cca8146110a15780631b76929c14611008578063207e6abb14610fd057806322d60b1a14610fb857806326523a7714610f5e5780632cc9c96414610f355780632df84be514610e2b57806337900ba214610df45780633ed2b77a14610d3e57806349e3969a14610d025780634cf97fad14610cbb5780634f1ef28614610ab157806352d1902d14610a4657806368599d0c14610a285780636e6964d7146109c7578063715018a61461096f57806379b880ac146107b85780637bb597fa1461079a5780638da5cb5b1461076457806392a52e8114610716578063a2f77bcc14610616578063a462816c146105ed578063ad3cb1cc1461057b578063b135bbb01461055d578063c0c53b8b146103d5578063c4b634f314610374578063c6480413146101e1578063c94950411461032a578063e34c2e5814610285578063e5ed1d5914610268578063ec5c504e1461024b578063f2fde38b146102205763ff156d00146101e157600080fd5b3461021b57602036600319011261021b576001600160a01b0361020261246c565b1660005260056020526020604060002054604051908152f35b600080fd5b3461021b57602036600319011261021b5761024961023c61246c565b610244613cbf565b612a34565b005b3461021b57602036600319011261021b5761024960043533614356565b3461021b57602036600319011261021b5761024960043533612d42565b3461021b57602036600319011261021b576004356102a1612a0f565b5080600052600960205260036040600020015415610318576000526009602052608060406000206040516102d48161222a565b815491828252600181015460208301908152606060036002840154936040860194855201549301928352604051938452516020840152516040830152516060820152f35b60405163b0ce759160e01b8152600490fd5b3461021b57604036600319011261021b5761034361246c565b6001546001600160a01b03163303610362576102499060243590614356565b604051639608c6ff60e01b8152600490fd5b3461021b57606036600319011261021b5761038d61246c565b6024356001600160401b03811161021b576103ac903690600401612304565b6044359060ff8216820361021b576001546001600160a01b031633036103625761024992613d4e565b3461021b57606036600319011261021b576103ee61246c565b6001600160a01b03906024358281169081900361021b576044359083821680920361021b576000805160206147e483398151915280549094604082901c60ff16159490916001600160401b03811680159081610555575b600114908161054b575b159081610542575b50610530576001600160401b03198116600117875585610515575b50169081156105035780156105035782156105035760018060a01b03199182600054161760005581600154161760015560025416176002556104b26145dc565b6104ba6145dc565b6104c333612a34565b6104c957005b805460ff60401b19169055604051600181527fc7f505b2f371ae2175ee4913f4499e1f2633a7b5936321eed1cdaeb6115181d290602090a1005b6040516301369f3160e61b8152600490fd5b6001600160481b0319166001600160401b0117865586610472565b60405163f92ee8a960e01b8152600490fd5b90501588610457565b303b15915061044f565b879150610445565b3461021b57600036600319011261021b576020600654604051908152f35b3461021b57600036600319011261021b5760408051908101906001600160401b038211818310176105d7576105d39160405260058152640352e302e360dc1b6020820152604051918291602083526020830190611fd0565b0390f35b634e487b7160e01b600052604160045260246000fd5b3461021b57600036600319011261021b576002546040516001600160a01b039091168152602090f35b3461021b57602036600319011261021b576004356106326125f6565b5080600052600360205260016040600020015415610318576000526003602052610540604060002061070160146040519261066c846121f3565b80548452600181015460208501526106866002820161232e565b604085015261069760038201612399565b60608501526106a8600a8201612399565b60808501526106d560ff60118301548181166106c38161210e565b60a088015260081c1660c08601612322565b601281015460e085015260ff6013820154818116151561010087015260081c166101208501520161256d565b6101408201526107146040518092612118565bf35b3461021b57602036600319011261021b576004356000526009602052608060406000208054906001810154906003600282015491015491604051938452602084015260408301526060820152f35b3461021b57600036600319011261021b57600080516020614764833981519152546040516001600160a01b039091168152602090f35b3461021b57600036600319011261021b576020600a54604051908152f35b3461021b57604036600319011261021b576107d161246c565b60018054602435926001600160a01b039291831633036103625783600052600360205281604060002001541561031857836000526003602052816040600020015415610318578360005260036020526040600020928260ff6011860154166108388161210e565b0361095d57600384015460005260046020528080846040600020015416921680921415928361093f575b50505061092d576002015460ff8160481c1615801561091f575b61090d576001600160401b03600882901c16603c81019081106108f7574211156108e55760581c60ff1660038110156108cf57156108bd5761024990612a96565b6040516356eff76b60e01b8152600490fd5b634e487b7160e01b600052602160045260246000fd5b604051634e7fc88160e11b8152600490fd5b634e487b7160e01b600052601160045260246000fd5b604051631e86addb60e01b8152600490fd5b5060ff8160501c161561087c565b604051633093624d60e21b8152600490fd5b90919250600a84015460005260406000200154161415838080610862565b6040516314bc0c2f60e31b8152600490fd5b3461021b57600036600319011261021b57610988613cbf565b60008051602061476483398151915280546001600160a01b031981169091556000906001600160a01b03166000805160206147a48339815191528280a3005b3461021b57602036600319011261021b576004356001600160401b03811161021b5760ff610a1260206109ff81943690600401612304565b8160405193828580945193849201611fad565b8101600b81520301902054166040519015158152f35b3461021b57600036600319011261021b576020600754604051908152f35b3461021b57600036600319011261021b577f00000000000000000000000000000000000000000000000000000000000000006001600160a01b03163003610a9f5760206040516000805160206147848339815191528152f35b60405163703e46dd60e11b8152600490fd5b604036600319011261021b57610ac561246c565b6024356001600160401b03811161021b573660238201121561021b57610af59036906024816004013591016122cd565b906001600160a01b037f00000000000000000000000000000000000000000000000000000000000000008116308114908115610c9f575b50610a9f57610b39613cbf565b6040516352d1902d60e01b8152908216916020918281600481875afa60009181610c70575b50610b7c57604051634c9c8ce360e01b815260048101859052602490fd5b92849360008051602061478483398151915290818103610c585750823b15610c3f5780546001600160a01b03191682179055604051907fbc7cd75a20ee27fd9adebab32041f755214dbc6bffa90cc0225b39da2e5c2d3b600080a2835115610c255750600080848461024996519101845af4903d15610c1c573d610bff816122b2565b90610c0d604051928361228f565b8152600081943d92013e61462f565b6060925061462f565b9250505034610c3057005b63b398979f60e01b8152600490fd5b604051634c9c8ce360e01b815260048101839052602490fd5b60249060405190632a87526960e21b82526004820152fd5b9091508381813d8311610c98575b610c88818361228f565b8101031261021b57519086610b5e565b503d610c7e565b9050816000805160206147848339815191525416141584610b2c565b3461021b57604036600319011261021b576004356001600160401b03811161021b57610ceb903690600401612304565b60243560ff8116810361021b576102499133613d4e565b3461021b57606036600319011261021b57610d1b61246c565b6001546001600160a01b031633036103625761024990604435906024359061347f565b3461021b57602036600319011261021b576004356000526004602052604060002080549060018060a01b0360018201541690610d7c600282016124bc565b60018060401b039160ff83600383015416936004830154610dc7600685015492600860078701549601541695604051998a99610120918b5260208b01528060408b0152890190611fd0565b956060880152608087015281811660a087015260081c16151560c085015260e08401526101008301520390f35b3461021b57602036600319011261021b57610e0d613cbf565b6040514281526000805160206147c4833981519152602060043592a2005b3461021b57602036600319011261021b57600435806000526003602052600160406000200154156103185780600052600360205260016040600020015415610318578060005260036020526040600020600160ff601183015416610e8e8161210e565b0361095d5760038101546000908152600460205260409020600101546001600160a01b039081163314159081610f17575b5061092d576002015460ff8160481c1615801561091f5761090d576001600160401b03600882901c16603c81019081106108f7574211156108e55760581c60ff1660038110156108cf57156108bd5761024990612a96565b9050600a820154600052339060016040600020015416141583610ebf565b3461021b57600036600319011261021b576000546040516001600160a01b039091168152602090f35b3461021b57606036600319011261021b57610f7761246c565b604435602435600382101561021b576001546001600160a01b031633036103625780600052600360205260016040600020015415610318576102499261360f565b3461021b57610249610fc93661201d565b903361347f565b3461021b57604036600319011261021b57610fe961246c565b6001546001600160a01b03163303610362576102499060243590612d42565b3461021b57600036600319011261021b5760405180600854808352602080930180916008600052846000209060005b8682821061108d57868661104d8288038361228f565b604051928392818401908285525180915260408401929160005b82811061107657505050500390f35b835185528695509381019392810192600101611067565b835485529093019260019283019201611037565b3461021b57600036600319011261021b576001546040516001600160a01b039091168152602090f35b3461021b57600036600319011261021b576020600854604051908152f35b3461021b57602036600319011261021b5760043560085481101561021b57611111602091612423565b90546040519160031b1c8152f35b3461021b57602036600319011261021b576004356000526003602052610400604060002060ff8154916001810154906111df61115d6002830161232e565b61116960038401612399565b906111c0611179600a8601612399565b6111b56011870154946111aa8a871695601360128b01549a01549a60206040519e8f908152015260408d0190612040565b6101208b019061209c565b61024089019061209c565b6111c98161210e565b6103608701528461038087019160081c16612033565b6103a084015281811615156103c084015260081c166103e0820152f35b3461021b57608036600319011261021b576004356024356003811015908161021b57604435600281101561021b576064356001600160401b03811161021b57611249903690600401612304565b600254909390336001600160a01b039182161415908161136c575b5061135a5761127282612a05565b600182148061134e575b6112d0575b50906112cb600080516020614824833981519152936112a69360405194858095612033565b6112af81612a05565b6020840152426040840152608060608401526080830190611fd0565b0390a2005b8460009392935260036020526040600020906108cf57600080516020614824833981519152936112a6936112cb926001850361132557600201805460ff60581b1916600160591b1790555b9293509350611281565b60028514611334575b5061131b565b600201805460ff60581b1916600160581b1790558761132e565b5050600082151561127c565b604051631c307ff760e31b8152600490fd5b90506000541633141586611264565b3461021b57602036600319011261021b5760043580600052600360205260016040600020015415610318576000526003602052602060ff60116040600020015416604051906113c98161210e565b8152f35b3461021b5761010036600319011261021b576004602435101561021b576001600160401b036044351161021b5736602360443501121561021b576001600160401b03600460443501351161021b573660246044356004013560051b60443501011161021b576064356001600160401b03811161021b576114519036906004016121c3565b6084356001600160401b03811161021b576114709036906004016121c3565b929060403660a319011261021b57600360e435101561021b57600435600052600360205260016040600020015415610318576002546001600160a01b031633141580611cb1575b61135a576004356000526003602052604060002093600160ff6011870154166114df8161210e565b0361095d57600285015460ff8116611c7d575b60ff816115cb82611507816115d5961661291a565b9261151360243561210e565b602435600203611c715761152b828260601c1661291a565b905b61153860243561210e565b602435600303611c645782611551818360681c1661291a565b955b60405161155f8161220f565b908216808252426001600160401b038116602084015260006040840181905260608401819052608084015285841660a084015292881660c09092019190915260089190911b610100600160481b03166001600160601b0319909216171760028c0190815591169061292c565b1660028701612949565b6115e060243561210e565b602435600203611c2d5760405160018152600080516020614744833981519152602060043592a25b84549260405194610100860161161f60243561210e565b6024358752426020880152610100604088015260443560040135905261012086019160246044350160005b604435600401358110611c0d575050916116719161167f95949388830360608a0152612988565b918583036080870152612988565b9260a43560ff811680910361021b5760a084015260c4359160ff831680930361021b577fd5cf60e2827f0d74d283cf833034fca22e78825b9162d20f59c47e545579966f8480602d9760029660c060ff9901526116e160e0830160e435612033565b0390a201541610156116ef57005b600060043560005260036020526040600020602d60ff60028301541610611bfb57600381015460005260046020526117396040600020600a830154600052604060002090836144db565b5060043560005260036020526040600020600381015460005260046020526040600020600a8201546000526040600020906032600284015460ff808260601c169160681c1690818111600014611bed5750505060645b60058201541580611bd6575b611b8a575b60058301541580611b73575b611b27575b6004840154600b8501546001600160401b03908116911680821015611b1e57818103905b61046682101561021b57808310611b10575b6019921015611b0757610320035b04600a6001821615611afc57600a919088915b60011c90815b611aa9575050506003600b9361190d96959361184561183d6118386118386118386118fc98614692565b614692565b60640161460b565b906014028181109182600014611aa15703905b15611a49578483018054916001600160401b03908116919061187c838583166145aa565b166001600160401b03199384161790558383018054909290916001600160401b03906118aa908285166145c3565b1691161790555b0180546113889360039185906001600160401b0381168211611a35575b50500180549093906001600160401b0381168211611a21575b5050546001600160401b031660048501612cc0565b546001600160401b03169101612cc0565b815b6008549081811015611a155761192481612423565b60043591549060031b1c1461193d57600191500161190f565b60001991808301908111611a01579061196861195b61198193612423565b90549060031b1c91612423565b90919082549060031b91821b91600019901b1916179055565b60085480156119ed579160119160ff93016119af61199e82612423565b8154906000199060031b1b19169055565b6008555b015460081c16906119c76040518093612033565b6119d081612a05565b6020820152600080516020614804833981519152604060043592a2005b634e487b7160e01b84526031600452602484fd5b634e487b7160e01b85526011600452602485fd5b5050601160ff916119b3565b6001600160401b03191617835588806118e7565b6001600160401b031916178355848b6118ce565b8183018054916001600160401b039081169190611a68838583166145aa565b166001600160401b03199384161790558386018054909290916001600160401b0390611a96908285166145c3565b1691161790556118b1565b900390611858565b8060801c611af857800291611af4578160018216611ace575b5060011c88918161180e565b9092809950818082020403611ae9575b600098029189611ac2565b8015611ade57600080fd5b8880fd5b8280fd5b600191908891611808565b610320016117f5565b61032082106117e757600080fd5b808203906117d5565b6003830180546127106001600160401b03199182168117909255600b860180549092919060646001600160401b03821614611b66575b505050506117b1565b1617905586808080611b5d565b5060038301546001600160401b03166064146117ac565b6003820180546127106001600160401b031991821681179092556004860180549092919060646001600160401b03821614611bc9575b505050506117a0565b1617905586808080611bc0565b5060038201546001600160401b031660641461179b565b101561178f5750600061178f565b604051636ff6cfe560e01b8152600490fd5b909360208060019260ff611c208961255f565b168152019501910161164a565b611c3860243561210e565b6003602435036116085760405160028152600080516020614744833981519152602060043592a2611608565b82808260681c1695611553565b818160601c169061152d565b60ff8160481c16158015611ca3575b156114f257604051631e86addb60e01b8152600490fd5b5060ff8160501c1615611c8c565b506000546001600160a01b03163314156114b7565b3461021b57611cd43661201d565b908060005260209160046020526040600020541561031857611cf5916126fc565b604051906020820160208352815180915260206040840192019360005b828110611d1f5784840385f35b9091928261054082611d346001948a51612118565b01960191019492919094611d12565b3461021b57602036600319011261021b5760043590611d61816121f3565b6000815260006020820152606060408201526000606082015260006080820152606060a0820152600060c0820152600060e08201526000610100820152600061012082015261014060405191611db683612273565b81368437015280600052600460205260406000205415610318576000526004602052604060002060405190611dea826121f3565b8054825260018101546001600160a01b03166020830152611e0d600282016124bc565b604083015260018060401b036003820154166060830152600481015460808301526005810160405190816020825491828152019160005260206000209060005b818110611f975786611eac60098888611e68818a038261228f565b60a0850152600681015460ff81811660c0870152600891821c16151560e086015260078201546101008601528101546001600160401b03166101208501520161256d565b6101408201526040805160208082528351818301528301516001600160a01b031681830152908201516102806060830152611eec906102a0830190611fd0565b60018060401b036060840151166080830152608083015160a083015260a083015190601f198382030160c08401526020808351928381520192019060005b818110611f81575050506105d36101408460ff60c0869701511660e086015260e0810151151561010086015261010081015161012086015260018060401b0361012082015116828601520151610160840190611ff5565b8251845260209384019390920191600101611f2a565b8254845260209093019260019283019201611e4d565b60005b838110611fc05750506000910152565b8181015183820152602001611fb0565b90602091611fe981518092818552858086019101611fad565b601f01601f1916010190565b6000915b600a831061200657505050565b600190825181526020809101920192019190611ff9565b604090600319011261021b576004359060243590565b9060038210156108cf5752565b60ff60c0809282815116855260018060401b03602082015116602086015260408101511515604086015260608101511515606086015261208860808201516080870190612033565b8260a08201511660a0860152015116910152565b805182526020808201516001600160401b03908116828501526040808401519091169084015260608201519093926001929091838110156108cf57606083015260809081015160009590929091015b600586106120fb57505050509050565b82518152948301949181019181016120eb565b600411156108cf57565b906104006101406121c193805184526020810151602085015261214360408201516040860190612040565b60ff606082015161215a610120918288019061209c565b61216d608084015161024088019061209c565b60a083015161217b8161210e565b61036087015261219460c0840151610380880190612033565b60e08301516103a087015261010083015115156103c0870152820151166103e08501520151910190611ff5565b565b9181601f8401121561021b578235916001600160401b03831161021b5760208085019460c0850201011161021b57565b61016081019081106001600160401b038211176105d757604052565b60e081019081106001600160401b038211176105d757604052565b608081019081106001600160401b038211176105d757604052565b60a081019081106001600160401b038211176105d757604052565b6001600160401b0381116105d757604052565b61014081019081106001600160401b038211176105d757604052565b601f909101601f19168101906001600160401b038211908210176105d757604052565b6001600160401b0381116105d757601f01601f191660200190565b9291926122d9826122b2565b916122e7604051938461228f565b82948184528183011161021b578281602093846000960137010152565b9080601f8301121561021b5781602061231f933591016122cd565b90565b60038210156108cf5752565b9060405161233b8161220f565b60c081935460ff90818116845260018060401b038160081c166020850152818160481c1615156040850152818160501c1615156060850152612385828260581c1660808601612322565b818160601c1660a085015260681c16910152565b90604051916123a783612245565b82815481526001808301549260ff60018060401b039460209580821660208701528160401c16604086015260801c1660018110156108cf57606084015260405193600290910190600090855b6005831061241057505050505060809061240c83612245565b0152565b83548152928401929184019181016123f3565b60085481101561243e57600860005260206000200190600090565b634e487b7160e01b600052603260045260246000fd5b805482101561243e5760005260206000200190600090565b600435906001600160a01b038216820361021b57565b90600182811c921680156124b2575b602083101461249c57565b634e487b7160e01b600052602260045260246000fd5b91607f1691612491565b906040519182600082546124cf81612482565b9081845260209460019160018116908160001461253d57506001146124fe575b5050506121c19250038361228f565b600090815285812095935091905b8183106125255750506121c193508201013880806124ef565b8554888401850152948501948794509183019161250c565b925050506121c194925060ff191682840152151560051b8201013880806124ef565b359060ff8216820361021b57565b60405191906000835b600a821061258a575050506121c182612273565b6001602081928554815201930191019091612576565b6001600160401b0381116105d75760051b60200190565b604051906125c482612245565b81600081526000602082015260006040820152600060608201526080604051916125ed83612245565b60a03684370152565b60405190612603826121f3565b81600080825280602083015260405161261b8161220f565b8181528160208201528160408201528160608201528160808201528160a08201528160c0820152604083015261264f6125b7565b606083015261265c6125b7565b60808301528060a08301528060c08301528060e0830152806101008301526101208201526101406040519161269083612273565b813684370152565b906126a2826125a0565b6126af604051918261228f565b82815280926126c0601f19916125a0565b019060005b8281106126d157505050565b6020906126dc6125f6565b828285010152016126c5565b805182101561243e5760209160051b010190565b906000918252600490602060048152604060058186200194855480156128e2578085101561284a5761272d85612698565b96825b86811061274257505050505050505090565b86830383811161283757818101809111612837579061276360019284612454565b9054600391821b1c865280885261281560148888206127aa8a5194612787866121f3565b82548652878301548d87015261279f6002840161232e565b8c8701528201612399565b60608501526127bb600a8201612399565b6080850152601181015460ff908181166127d48161210e565b60a08701526127ec82600892831c1660c08801612322565b601283015460e087015260138301549082821615156101008801521c166101208501520161256d565b610140820152612825828c6126e8565b52612830818b6126e8565b5001612730565b634e487b7160e01b855260118952602485fd5b94509192509061285984612698565b94815b85811061286c5750505050505090565b8061287960019284612454565b9054600391821b1c85528087526128c060148787206127aa89519461289d866121f3565b82548652878301548c8701526128b56002840161232e565b8b8701528201612399565b6101408201526128d0828a6126e8565b526128db81896126e8565b500161285c565b5081519550935090840191506001600160401b038211848310176129065752815290565b634e487b7160e01b83526041600452602483fd5b60ff60019116019060ff82116108f757565b805460ff60601b191660609290921b60ff60601b16919091179055565b805460ff60681b191660689290921b60ff60681b16919091179055565b60ff61298260208093836129798261255f565b1686520161255f565b16910152565b91818152602080910192916000916000905b8282106129a957505050505090565b909192939485358152818601356004811015612a015790816129cc60019361210e565b838201526129e06040808301908901612966565b6129f06080808301908901612966565b60c09081019601949392019061299a565b8580fd5b600211156108cf57565b60405190612a1c8261222a565b60006060838281528260208201528260408201520152565b6001600160a01b03908116908115612a7d5760008051602061476483398151915280546001600160a01b031981168417909155166000805160206147a4833981519152600080a3565b604051631e4fbdf760e01b815260006004820152602490fd5b9060009180835260039283602052604081208481015482526004806020526040832092600a83015481526040812091601191601185019460ff86541694612adc8661210e565b6001809603611af8579060029160068060089a8b810180549060018060401b039081612b098185166144c3565b166001600160401b03199384161790558d8601805490929091612b2d8184166144c3565b169116179055019161ff00199283815416905501908154169055019889549960ff8b60581c169a8260ff19895416178855828c1015612c9d5760018798999a9b9c14600014612c885750805461ffff60601b1916600360601b1790555b81955b612bc7575b50505050505060ff6000805160206148048339815191529260409254901c16612bbd82518092612033565b60016020820152a2565b875480871015612c825789612bdb88612423565b905490841b1c14612bf157508480960195612b8d565b9091939592945060001995868201918211612c715750612c239291612c1861196892612423565b9054911b1c91612423565b8454918215612c5e5750509260409260ff926000805160206148048339815191529501612c5261199e82612423565b82559281943880612b92565b634e487b7160e01b825260319052602490fd5b634e487b7160e01b85528552602484fd5b50612b92565b61ffff60601b1916600360681b179055612b8a565b634e487b7160e01b84526021600452602484fd5b60001981146108f75760010190565b8054600160401b600160801b03191660409290921b600160401b600160801b0316919091179055565b818110612cf4575050565b60008155600101612ce9565b9060038110156108cf5761ff0082549160081b169061ff001916179055565b80549190600160401b8310156105d757826119689160016121c195018155612454565b600090828252600960205260036040832001541561031857828252600960205260026040832001548252600460205260018060a01b038060016040852001541691160361092d57818152600960205260016040822001548152600460205260ff600660408320015460081c1661345757818152600960205260026040822001548152600460205260ff600660408320015460081c1661345757818152600960205260026040822001548152600460205260076040822001546133d2575b8181526009602052604081209260026001850154940154612e21600654612cb1565b60068190558584526004602052604080852060039081015484875291862001546001600160401b0390811693929116612e586125f6565b50604051612e6581612245565b86815286602082015286604082015286606082015286608082015260405191612e8d83612245565b89835260208301528660408301528660608301526080820152604051612eb281612245565b86815286602082015286604082015286606082015286608082015260405194612eda86612245565b8486526020860152866040860152866060860152608085015260405193612f008561220f565b8685528660208601528660408601528660608601528660808601528660a08601528660c0860152604051918261014081011060018060401b03610140850111176105d75761014083016040528783528760208401528760408401528760608401528760808401528760a08401528760c08401528760e0840152876101008401528761012084015260405195612f94876121f3565b848752426020880152604087015260608601526080850152600160a08501528560c08501528560e08501528561010085015260016101208501526101408401528452600360205260408420958251875560208301516001880155604083015160ff815116600289015490610100600160481b03602084015160081b1660ff60481b6040850151151560481b169060ff60501b6060860151151560501b1692608086015160038110156133be576001600160601b03199095161717171760589190911b60ff60581b16176002890190815560a082015161308c9260ff9260c092613080919085169061292c565b01511660028901612949565b60608301518051600389015560208101516004890180546001600160401b0319166001600160401b0392831617815560408301516130cb921690612cc0565b606081015160018110156133aa5760048901805460ff60801b1916608092831b60ff60801b16179055015194805b600581101561311957600190602088519801976005828c010155016130f9565b5060808401518051600a8a01556020810151600b8a0180546001600160401b0319166001600160401b039283161781556040830151979a96999598509396929593919261316892911690612cc0565b6060810151600181101561339657600b8301805460ff60801b1916608092831b60ff60801b161790550151835b6005811061337f57505060a08601516131ad8161210e565b6131b68161210e565b60ff8019601184015416911617601182015560c08601516003811015612c9d576131e39060118301612d00565b60e08601516012820155601381016101008701511515815460ff61ff006101208b015160081b1692169061ffff191617179055610140860151835b600a81106133685750505073__$18826597157b5485acfb86513cd242e4d3$__90813b15611af8578290606460405180948193636c2a23bf60e01b8352600960048401526004602484015260448301525af4801561335d57613346575b506005604082846132d99452600460205260068282200161ff00199061010082825416179055868252610100600684842001918254161790558481526132c78383832001885190612d1f565b85815260046020522001845190612d1f565b825160085490600160401b8210156105d7576119688260016132fe9401600855612423565b82517f94b80033a8327ab5e699285e343e5f1027e2299b685ec5836a08f3a8faacbd59602060405160018152a4516000805160206147c48339815191526020604051428152a2565b6133508291612260565b61335a573861327b565b80fd5b6040513d84823e3d90fd5b60019060208351930192601482860101550161321e565b60019060208351930192600c828601015501613195565b634e487b7160e01b85526021600452602485fd5b634e487b7160e01b87526021600452602487fd5b634e487b7160e01b8c52602160045260248cfd5b73__$18826597157b5485acfb86513cd242e4d3$__82825260096020526002604083200154825260046020526007604083200154813b15611af8578290606460405180948193636c2a23bf60e01b8352600960048401526004602484015260448301525af4801561335d57613448575b50612dff565b61345190612260565b38613442565b604051635e003ea960e01b8152600490fd5b6040919493926060820195825260208201520152565b92919260009382855260049460209086825260409384822054156135f25783825287835284822054156135f2578582528783528482205484835285832054146135e257858252878352848220600101546001600160a01b03908116908216036135d25783825287835260ff6006868420015460081c166135c25796600785837f1cce6a28f1564d6cb3044145a4ccc8873cf34f87429af3289490527d7c0437e6999a896135ad98979652848652838383200154806135b2575b5050613545600a54612cb1565b9384600a55613552612a0f565b5082519561355f8761222a565b858752808701958b87526003858901918a835260608a0190428252865260098452868620928a51998a8555516001850155516002840155519101558a83525220015551925193849384613469565b0390a1565b6135bb91614356565b3880613538565b8451635e003ea960e01b81528890fd5b8451633093624d60e21b81528890fd5b8451634de6470960e01b81528890fd5b845163b0ce759160e01b81528890fd5b5190811515820361021b57565b9091600083815260039260209284845260409485842060ff9081601182015416946136398661210e565b6001809603613cae57838510156133aa578415613c9d578486148080613c8d575b613c7c5760028614908180613c6c575b613c5b5715613c245750818401548752600488528887208601546001600160a01b03908116911603613c13576002905b0193602d82865416101561375a575050506136cb90855192631925cf4b60e21b845260048401526024830190612033565b828160448173__$18826597157b5485acfb86513cd242e4d3$__5af491821561374f578092613717575b505061370057505050565b6000805160206147c48339815191529151428152a2565b9091508282813d8311613748575b61372f818361228f565b8101031261335a575061374190613602565b38806136f5565b503d613725565b8451903d90823e3d90fd5b91935091508397969594939286895280855285892098602d8460028c01541610613c0257818a015481526004865261379f878220600a8c01548352888320908c6144db565b508781528186528681209082820154815260048752878120600a830154825288822090603290600285015488808260601c169160681c1690818111600014613bf4575060649250505b60058101541580613bde575b613b93575b60058301541580613b7d575b613b32575b600485019160018060401b0394600b86855416970196868854168181109182600014613b2a5703905b610466821015611af85780613b1d575b6019919015613b1457610320035b0490600a908a831615613b0257600a908b9997959a989694928e945b8b1c90815b613a9d57505050968098998661392f9594819461389e61183d6118386118386139379f61183890614692565b9060140290808210925082600014613a955703905b15613a53571682870190815491856138cd838286166145aa565b1660018060401b031980941617905583830191856138ef8454938285166145c3565b1691161790555b0188815495611388878186819a1610613a3f575b5050019485548184821610613a2b575b50509095969799509390919293541690612cc0565b541690612cc0565b83815b613978575b5050506011600080516020614804833981519152959697015460081c169161396984518094612033565b61397282612a05565b820152a2565b6008805480831015613a24578961398e84612423565b905490871b1c146139a357505081018161393a565b92509260001992838101908111613a10576139c59291612c1861196892612423565b815480156139fc57916000805160206148048339815191529798999160119301906139f261199e83612423565b559796953861393f565b634e487b7160e01b85526031600452602485fd5b634e487b7160e01b87526011600452602487fd5b505061393f565b6001600160401b031916178555388061391a565b6001600160401b031916178355863861390a565b168282019081549185613a68838286166145aa565b1660018060401b03198094161790558388019185613a8a8454938285166145c3565b1691161790556138f6565b9003906138b3565b91939597999b96989a509193508060801c613afe57800291908d613afe57828c8216613ada575b508b1c90818c9a98969b999795938f9593613872565b8481029e509093818f0403613af4575b50809c9238613ac4565b61335a5738613aea565b8d80fd5b8a908b9997959a989694928e9461386d565b61032001613851565b6103208210613843578280fd5b900390613833565b85830180546127106001600160401b03199182168117909255600b870180549092919060646001600160401b03821614613b70575b5050505061380a565b1617905538808080613b67565b50828601546001600160401b0316606414613805565b85810180546127106001600160401b031991821681179092556004870180549092919060646001600160401b03821614613bd1575b505050506137f9565b1617905538808080613bc8565b50808601546001600160401b03166064146137f4565b10156137e8578391506137e8565b8651636ff6cfe560e01b8152600490fd5b8751633093624d60e21b8152600490fd5b613c32575b5060029061369a565b600a8201548752600488528887208601546001600160a01b03908116911603613c135738613c29565b8a51635ce6d95760e11b8152600490fd5b5084600285015460501c1661366a565b8951635ce6d95760e11b8152600490fd5b5083600284015460481c1661365a565b8851636f6fc75f60e11b8152600490fd5b88516314bc0c2f60e31b8152600490fd5b600080516020614764833981519152546001600160a01b03163303613ce057565b60405163118cdaa760e01b8152336004820152602490fd5b81601f8201121561021b578051613d0e816122b2565b92613d1c604051948561228f565b8184526020828401011161021b5761231f9160208085019101611fad565b51906001600160401b038216820361021b57565b9060018060a01b0380831660005260056020526040600020546143445781511561433257613db091600073__$18826597157b5485acfb86513cd242e4d3$__9160405180958192630fb93a7160e21b8352602060048401526024830190611fd0565b0381845af49283156142d4576000936142f2575b5060ff6040516020818651613ddc8183858b01611fad565b8101600b81520301902054166142e0576000613df9600754612cb1565b80600755604051928391631d029a8d60e01b83526004830152848716602483015260a060448301528180613e3060a4820189611fd0565b60ff8b16606483015242608483015203915af49081156142d45760009161413a575b5080516000526004602052604060002081518155600181018360208401511660018060a01b031982541617905560028101604083015180519060018060401b0382116105d7578190613ea48454612482565b601f81116140fd575b50602090601f83116001146140975760009261408c575b50508160011b916000199060031b1c19161790555b60608201516003820180546001600160401b0319166001600160401b039283161790556080830151600483015560a083015180519182116105d757600160401b82116105d757602090600584015483600586015580841061406c575b500160058301600052602060002060005b83811061405857505050506006810160ff60c08401511681549061ff0060e0860151151560081b169161ffff19161717905561010082015160078201556008810160018060401b036101208401511660018060401b031982541617905561014082015160005b600a81106140415750505091614033917f1599aa311a61861ca44d28454c9e07d6e99428d1fcd90906d4eb6c322d7c52a2936040516020818551613ff38183858a01611fad565b8101600b815203019020600160ff1982541617905580518287166000526005602052604060002055519460ff604051948594604086526040860190611fd0565b9716602084015216940390a3565b600190602083519301926009828601015501613fac565b600190602084519401938184015501613f46565b614086906005860160005284846000209182019101612ce9565b38613f35565b015190503880613ec4565b6000858152602081209350601f198516905b8181106140e557509084600195949392106140cc575b505050811b019055613ed9565b015160001960f88460031b161c191690553880806140bf565b929360206001819287860151815501950193016140a9565b61412a90856000526020600020601f850160051c81019160208610614130575b601f0160051c0190612ce9565b38613ead565b909150819061411d565b90503d806000833e61414c818361228f565b810160208282031261021b5781516001600160401b039283821161021b57019061028090818382031261021b5760405193614186856121f3565b835185526020840151868116810361021b576020860152604084015181811161021b57826141b5918601613cf8565b60408601526141c660608501613d3a565b60608601526080840151608086015260a084015190811161021b57830181601f8201121561021b578051906141fa826125a0565b91614208604051938461228f565b80835260208084019160051b8301019184831161021b57602001905b8282106142c45750505060a085015260c083015160ff8116810361021b5760c085015261425360e08401613602565b60e08501526101008084015190850152610120614271818501613d3a565b90850152610140918161015f8501121561021b576040519361429285612273565b8491810192831161021b578301905b8282106142b45750505082015238613e52565b81518152602091820191016142a1565b8151815260209182019101614224565b6040513d6000823e3d90fd5b604051634749bdef60e11b8152600490fd5b9092503d806000833e614305818361228f565b810160208282031261021b5781516001600160401b03811161021b5761432b9201613cf8565b9138613dc4565b60405163d9f415a960e01b8152600490fd5b60405163f2d8e7a360e01b8152600490fd5b9190918215610318576000928084526009602052604060038186200154156144b35781855260096020526001818620015485526004928360205260018060a01b038060018489200154169116036144a457818552600960205260038186200154603c81018091116144915742111561448257818552600960205280852092600260018501549401549573__$18826597157b5485acfb86513cd242e4d3$__91823b1561447e5781906064855180958193636c2a23bf60e01b835260098184015260248301528860448301525af49081156144735750917f773e15a265d8549eebc3e80bafb0e2cbeba28c5d2b2a081e31c34554c7d0507d9596916135ad93614464575b505193849384613469565b61446d90612260565b38614459565b8351903d90823e3d90fd5b5080fd5b516343dcbe9f60e01b81529050fd5b634e487b7160e01b865260118452602486fd5b51633093624d60e21b81529050fd5b5163b0ce759160e01b8152600490fd5b6001600160401b039081169081146108f75760010190565b6011810192600160ff8554166144f08161210e565b0361021b576008830180546002946006928392906001600160401b0390816145198185166144c3565b166001600160401b03199384161790556008860180549092909161453e8184166144c3565b169116179055019161ff00199283815416905501908154169055015460ff808260601c169160681c169081811160001461458c57505061231f600180925b805460ff19166002178155612d00565b101561459e5761231f6002809261457c565b61231f6000809261457c565b6001600160401b0391821690821601919082116108f757565b6001600160401b0391821690821603919082116108f757565b60ff6000805160206147e48339815191525460401c16156145f957565b604051631afcd79f60e31b8152600490fd5b80156146195762030d400490565b634e487b7160e01b600052601260045260246000fd5b90614656575080511561464457602081519101fd5b60405163d6bda27560e01b8152600490fd5b81511580614689575b614667575090565b604051639996b31560e01b81526001600160a01b039091166004820152602490fd5b50803b1561465f565b60b581600160881b811015614731575b6201000090600160481b811015614724575b600160281b811015614717575b630100000081101561470a575b010260121c60019080830401811c80830401811c80830401811c80830401811c80830401811c80830401811c80830401901c8080920410900390565b60101c9160081b916146ce565b60201c9160101b916146c1565b60401c9160201b916146b4565b5060b560401b9050608082901c6146a256fe579c31d7f947df31adb29f8688c651ffa98030b83bb0d87632c86357f13afafd9016d09d72d40fdae2fd8ceac6b6234c7706214fd39c1cd1e609a0528c199300360894a13ba1a3210667c828492db98dca3e2076cc3735a920a3ca505d382bbc8be0079c531659141344cd1fd0a4f28419497f9722a3daafe3b4186f6b6457e0d6ad8b09cb4bf385f0569c05c242d45e491f752df651aae6a2db9ff589bd9faef0c57e16840df040f15088dc2f81fe391c3923bec73e23a9662efc9c229c6a004019f194fe4a757f9f1441d256eeb40c3f12e80f9da6188b5ad1a5fcda7217d740f6909351d16bebd2bb97c72ea15dc2508f321a25ba4ff1df4c330cced53820a2646970667358221220aa4233a35e6cdbd48e43fa749feaa6f26d5eafbe7177ce6b1b21e6a4abd8bf0364736f6c63430008180033",
  "linkReferences": {
    "contracts/GameLib.sol": {
      "GameLib": [
        {
          "length": 20,
          "start": 13058
        },
        {
          "length": 20,
          "start": 13483
        },
        {
          "length": 20,
          "start": 14249
        },
        {
          "length": 20,
          "start": 15953
        },
        {
          "length": 20,
          "start": 17592
        }
      ]
    }
  },
  "deployedLinkReferences": {
    "contracts/GameLib.sol": {
      "GameLib": [
        {
          "length": 20,
          "start": 12843
        },
        {
          "length": 20,
          "start": 13268
        },
        {
          "length": 20,
          "start": 14034
        },
        {
          "length": 20,
          "start": 15738
        },
        {
          "length": 20,
          "start": 17377
        }
      ]
    }
  }
}