{
  "_format": "hh-sol-artifact-1",
  "contractName": "ChessBallGame",
  "sourceName": "contracts/Game.sol",
  "abi": [
    {
      "inputs": [],
      "stateMutability": "nonpayable",
      "type": "constructor"
    },
    {
      "inputs": [],
      "name": "ActionsNotCommitted",
      "type": "error"
    },
    {
      "inputs": [
        {
          "internalType": "address",
          "name": "target",
          "type": "address"
        }
      ],
      "name": "AddressEmptyCode",
      "type": "error"
    },
    {
      "inputs": [],
      "name": "CreateTeam_NameIsRequired",
      "type": "error"
    },
    {
      "inputs": [],
      "name": "CreateTeam_TeamAlreadyExists",
      "type": "error"
    },
    {
      "inputs": [],
      "name": "CreateTeam_TeamNameAlreadyExists",
      "type": "error"
    },
    {
      "inputs": [],
      "name": "DoesNotExist",
      "type": "error"
    },
    {
      "inputs": [
        {
          "internalType": "address",
          "name": "implementation",
          "type": "address"
        }
      ],
      "name": "ERC1967InvalidImplementation",
      "type": "error"
    },
    {
      "inputs": [],
      "name": "ERC1967NonPayable",
      "type": "error"
    },
    {
      "inputs": [],
      "name": "FailedCall",
      "type": "error"
    },
    {
      "inputs": [],
      "name": "FinishGameByTimeout_NoLastMove",
      "type": "error"
    },
    {
      "inputs": [],
      "name": "GameHasNotReachedMaxMoves",
      "type": "error"
    },
    {
      "inputs": [],
      "name": "GameIsNotActive",
      "type": "error"
    },
    {
      "inputs": [],
      "name": "GameOwnerShouldCall",
      "type": "error"
    },
    {
      "inputs": [],
      "name": "GameRequestNotExpired",
      "type": "error"
    },
    {
      "inputs": [],
      "name": "GameRequestTimeoutNotReached",
      "type": "error"
    },
    {
      "inputs": [],
      "name": "InitAddressCannotBeZero",
      "type": "error"
    },
    {
      "inputs": [],
      "name": "InvalidInitialization",
      "type": "error"
    },
    {
      "inputs": [],
      "name": "InvalidTeam",
      "type": "error"
    },
    {
      "inputs": [],
      "name": "MovesAlreadyCommitted",
      "type": "error"
    },
    {
      "inputs": [],
      "name": "MovesEncryptedCannotBeZero",
      "type": "error"
    },
    {
      "inputs": [],
      "name": "NotInitializing",
      "type": "error"
    },
    {
      "inputs": [],
      "name": "OnlyGameEngineServerCanCall",
      "type": "error"
    },
    {
      "inputs": [],
      "name": "OnlyRelayerCanCall",
      "type": "error"
    },
    {
      "inputs": [
        {
          "internalType": "address",
          "name": "owner",
          "type": "address"
        }
      ],
      "name": "OwnableInvalidOwner",
      "type": "error"
    },
    {
      "inputs": [
        {
          "internalType": "address",
          "name": "account",
          "type": "address"
        }
      ],
      "name": "OwnableUnauthorizedAccount",
      "type": "error"
    },
    {
      "inputs": [],
      "name": "TeamAlreadyHasActiveGame",
      "type": "error"
    },
    {
      "inputs": [],
      "name": "TeamsCannotBeSame",
      "type": "error"
    },
    {
      "inputs": [],
      "name": "UUPSUnauthorizedCallContext",
      "type": "error"
    },
    {
      "inputs": [
        {
          "internalType": "bytes32",
          "name": "slot",
          "type": "bytes32"
        }
      ],
      "name": "UUPSUnsupportedProxiableUUID",
      "type": "error"
    },
    {
      "anonymous": false,
      "inputs": [
        {
          "indexed": true,
          "internalType": "uint256",
          "name": "teamId",
          "type": "uint256"
        },
        {
          "indexed": false,
          "internalType": "uint256",
          "name": "gameId",
          "type": "uint256"
        },
        {
          "indexed": false,
          "internalType": "uint64",
          "name": "eloRating",
          "type": "uint64"
        }
      ],
      "name": "EloUpdated",
      "type": "event"
    },
    {
      "anonymous": false,
      "inputs": [
        {
          "indexed": true,
          "internalType": "uint256",
          "name": "gameId",
          "type": "uint256"
        },
        {
          "indexed": false,
          "internalType": "enum GameLib.TeamEnum",
          "name": "winner",
          "type": "uint8"
        },
        {
          "indexed": false,
          "internalType": "enum GameLib.FinishReason",
          "name": "finishReason",
          "type": "uint8"
        }
      ],
      "name": "GameFinished",
      "type": "event"
    },
    {
      "anonymous": false,
      "inputs": [
        {
          "indexed": false,
          "internalType": "uint256",
          "name": "gameRequestId",
          "type": "uint256"
        },
        {
          "indexed": false,
          "internalType": "uint256",
          "name": "team1id",
          "type": "uint256"
        },
        {
          "indexed": false,
          "internalType": "uint256",
          "name": "team2id",
          "type": "uint256"
        }
      ],
      "name": "GameRequestCancelled",
      "type": "event"
    },
    {
      "anonymous": false,
      "inputs": [
        {
          "indexed": false,
          "internalType": "uint256",
          "name": "gameRequestId",
          "type": "uint256"
        },
        {
          "indexed": false,
          "internalType": "uint256",
          "name": "team1id",
          "type": "uint256"
        },
        {
          "indexed": false,
          "internalType": "uint256",
          "name": "team2id",
          "type": "uint256"
        }
      ],
      "name": "GameRequestCreated",
      "type": "event"
    },
    {
      "anonymous": false,
      "inputs": [
        {
          "indexed": true,
          "internalType": "uint256",
          "name": "gameId",
          "type": "uint256"
        },
        {
          "indexed": true,
          "internalType": "uint256",
          "name": "team1id",
          "type": "uint256"
        },
        {
          "indexed": true,
          "internalType": "uint256",
          "name": "team2id",
          "type": "uint256"
        },
        {
          "indexed": false,
          "internalType": "enum GameLib.TeamEnum",
          "name": "teamWithBall",
          "type": "uint8"
        }
      ],
      "name": "GameStarted",
      "type": "event"
    },
    {
      "anonymous": false,
      "inputs": [
        {
          "indexed": true,
          "internalType": "uint256",
          "name": "gameId",
          "type": "uint256"
        },
        {
          "indexed": false,
          "internalType": "enum GameLib.TeamEnum",
          "name": "cauzedByTeam",
          "type": "uint8"
        },
        {
          "indexed": false,
          "internalType": "enum ChessBallGame.ErrorType",
          "name": "errorType",
          "type": "uint8"
        },
        {
          "indexed": false,
          "internalType": "uint256",
          "name": "time",
          "type": "uint256"
        },
        {
          "indexed": false,
          "internalType": "string",
          "name": "errorMsg",
          "type": "string"
        }
      ],
      "name": "GameStateError",
      "type": "event"
    },
    {
      "anonymous": false,
      "inputs": [
        {
          "indexed": true,
          "internalType": "uint256",
          "name": "gameId",
          "type": "uint256"
        },
        {
          "indexed": false,
          "internalType": "enum GameLib.TeamEnum",
          "name": "scoringTeam",
          "type": "uint8"
        }
      ],
      "name": "GoalScored",
      "type": "event"
    },
    {
      "anonymous": false,
      "inputs": [
        {
          "indexed": false,
          "internalType": "uint64",
          "name": "version",
          "type": "uint64"
        }
      ],
      "name": "Initialized",
      "type": "event"
    },
    {
      "anonymous": false,
      "inputs": [
        {
          "indexed": true,
          "internalType": "uint256",
          "name": "gameId",
          "type": "uint256"
        },
        {
          "indexed": false,
          "internalType": "enum GameLib.StateType",
          "name": "stateType",
          "type": "uint8"
        },
        {
          "indexed": false,
          "internalType": "uint256",
          "name": "time",
          "type": "uint256"
        },
        {
          "indexed": false,
          "internalType": "uint8[]",
          "name": "clashRandomNumbers",
          "type": "uint8[]"
        },
        {
          "components": [
            {
              "internalType": "uint256",
              "name": "playerId",
              "type": "uint256"
            },
            {
              "internalType": "enum GameLib.MoveType",
              "name": "moveType",
              "type": "uint8"
            },
            {
              "components": [
                {
                  "internalType": "uint8",
                  "name": "x",
                  "type": "uint8"
                },
                {
                  "internalType": "uint8",
                  "name": "y",
                  "type": "uint8"
                }
              ],
              "internalType": "struct GameLib.Position",
              "name": "oldPosition",
              "type": "tuple"
            },
            {
              "components": [
                {
                  "internalType": "uint8",
                  "name": "x",
                  "type": "uint8"
                },
                {
                  "internalType": "uint8",
                  "name": "y",
                  "type": "uint8"
                }
              ],
              "internalType": "struct GameLib.Position",
              "name": "newPosition",
              "type": "tuple"
            }
          ],
          "indexed": false,
          "internalType": "struct GameLib.GameAction[]",
          "name": "team1Actions",
          "type": "tuple[]"
        },
        {
          "components": [
            {
              "internalType": "uint256",
              "name": "playerId",
              "type": "uint256"
            },
            {
              "internalType": "enum GameLib.MoveType",
              "name": "moveType",
              "type": "uint8"
            },
            {
              "components": [
                {
                  "internalType": "uint8",
                  "name": "x",
                  "type": "uint8"
                },
                {
                  "internalType": "uint8",
                  "name": "y",
                  "type": "uint8"
                }
              ],
              "internalType": "struct GameLib.Position",
              "name": "oldPosition",
              "type": "tuple"
            },
            {
              "components": [
                {
                  "internalType": "uint8",
                  "name": "x",
                  "type": "uint8"
                },
                {
                  "internalType": "uint8",
                  "name": "y",
                  "type": "uint8"
                }
              ],
              "internalType": "struct GameLib.Position",
              "name": "newPosition",
              "type": "tuple"
            }
          ],
          "indexed": false,
          "internalType": "struct GameLib.GameAction[]",
          "name": "team2Actions",
          "type": "tuple[]"
        },
        {
          "components": [
            {
              "components": [
                {
                  "internalType": "uint8",
                  "name": "x",
                  "type": "uint8"
                },
                {
                  "internalType": "uint8",
                  "name": "y",
                  "type": "uint8"
                }
              ],
              "internalType": "struct GameLib.Position[6]",
              "name": "team1PlayerPositions",
              "type": "tuple[6]"
            },
            {
              "components": [
                {
                  "internalType": "uint8",
                  "name": "x",
                  "type": "uint8"
                },
                {
                  "internalType": "uint8",
                  "name": "y",
                  "type": "uint8"
                }
              ],
              "internalType": "struct GameLib.Position[6]",
              "name": "team2PlayerPositions",
              "type": "tuple[6]"
            },
            {
              "components": [
                {
                  "internalType": "uint8",
                  "name": "x",
                  "type": "uint8"
                },
                {
                  "internalType": "uint8",
                  "name": "y",
                  "type": "uint8"
                }
              ],
              "internalType": "struct GameLib.Position",
              "name": "ballPosition",
              "type": "tuple"
            },
            {
              "internalType": "enum GameLib.TeamEnum",
              "name": "ballOwner",
              "type": "uint8"
            }
          ],
          "indexed": false,
          "internalType": "struct GameLib.BoardState",
          "name": "boardState",
          "type": "tuple"
        }
      ],
      "name": "NewGameState",
      "type": "event"
    },
    {
      "anonymous": false,
      "inputs": [
        {
          "indexed": true,
          "internalType": "address",
          "name": "previousOwner",
          "type": "address"
        },
        {
          "indexed": true,
          "internalType": "address",
          "name": "newOwner",
          "type": "address"
        }
      ],
      "name": "OwnershipTransferred",
      "type": "event"
    },
    {
      "anonymous": false,
      "inputs": [
        {
          "indexed": true,
          "internalType": "uint256",
          "name": "teamId",
          "type": "uint256"
        },
        {
          "indexed": true,
          "internalType": "address",
          "name": "owner",
          "type": "address"
        },
        {
          "indexed": false,
          "internalType": "string",
          "name": "name",
          "type": "string"
        },
        {
          "indexed": false,
          "internalType": "uint8",
          "name": "country",
          "type": "uint8"
        }
      ],
      "name": "TeamCreated",
      "type": "event"
    },
    {
      "anonymous": false,
      "inputs": [
        {
          "indexed": true,
          "internalType": "address",
          "name": "implementation",
          "type": "address"
        }
      ],
      "name": "Upgraded",
      "type": "event"
    },
    {
      "anonymous": false,
      "inputs": [
        {
          "indexed": true,
          "internalType": "uint256",
          "name": "gameId",
          "type": "uint256"
        },
        {
          "indexed": false,
          "internalType": "uint256",
          "name": "timestamp",
          "type": "uint256"
        }
      ],
      "name": "gameActionCommitted",
      "type": "event"
    },
    {
      "inputs": [],
      "name": "UPGRADE_INTERFACE_VERSION",
      "outputs": [
        {
          "internalType": "string",
          "name": "",
          "type": "string"
        }
      ],
      "stateMutability": "view",
      "type": "function"
    },
    {
      "inputs": [
        {
          "internalType": "uint256",
          "name": "",
          "type": "uint256"
        }
      ],
      "name": "activeGames",
      "outputs": [
        {
          "internalType": "uint256",
          "name": "",
          "type": "uint256"
        }
      ],
      "stateMutability": "view",
      "type": "function"
    },
    {
      "inputs": [
        {
          "internalType": "uint256",
          "name": "gameRequestId",
          "type": "uint256"
        }
      ],
      "name": "cancelGameRequest",
      "outputs": [],
      "stateMutability": "nonpayable",
      "type": "function"
    },
    {
      "inputs": [
        {
          "internalType": "address",
          "name": "sender",
          "type": "address"
        },
        {
          "internalType": "uint256",
          "name": "gameRequestId",
          "type": "uint256"
        }
      ],
      "name": "cancelGameRequestRelayer",
      "outputs": [],
      "stateMutability": "nonpayable",
      "type": "function"
    },
    {
      "inputs": [
        {
          "internalType": "address",
          "name": "sender",
          "type": "address"
        },
        {
          "internalType": "uint256",
          "name": "gameId",
          "type": "uint256"
        },
        {
          "internalType": "enum GameLib.TeamEnum",
          "name": "team",
          "type": "uint8"
        },
        {
          "internalType": "bytes32",
          "name": "movesEncrypted",
          "type": "bytes32"
        }
      ],
      "name": "commitGameActionsRelayer",
      "outputs": [],
      "stateMutability": "nonpayable",
      "type": "function"
    },
    {
      "inputs": [
        {
          "internalType": "uint256",
          "name": "team1id",
          "type": "uint256"
        },
        {
          "internalType": "uint256",
          "name": "team2id",
          "type": "uint256"
        }
      ],
      "name": "createGameRequest",
      "outputs": [],
      "stateMutability": "nonpayable",
      "type": "function"
    },
    {
      "inputs": [
        {
          "internalType": "address",
          "name": "sender",
          "type": "address"
        },
        {
          "internalType": "uint256",
          "name": "team1id",
          "type": "uint256"
        },
        {
          "internalType": "uint256",
          "name": "team2id",
          "type": "uint256"
        }
      ],
      "name": "createGameRequestRelayer",
      "outputs": [],
      "stateMutability": "nonpayable",
      "type": "function"
    },
    {
      "inputs": [
        {
          "internalType": "string",
          "name": "name",
          "type": "string"
        },
        {
          "internalType": "uint8",
          "name": "country",
          "type": "uint8"
        }
      ],
      "name": "createTeam",
      "outputs": [],
      "stateMutability": "nonpayable",
      "type": "function"
    },
    {
      "inputs": [
        {
          "internalType": "address",
          "name": "sender",
          "type": "address"
        },
        {
          "internalType": "string",
          "name": "name",
          "type": "string"
        },
        {
          "internalType": "uint8",
          "name": "country",
          "type": "uint8"
        }
      ],
      "name": "createTeamRelayer",
      "outputs": [],
      "stateMutability": "nonpayable",
      "type": "function"
    },
    {
      "inputs": [
        {
          "internalType": "uint256",
          "name": "gameId",
          "type": "uint256"
        }
      ],
      "name": "finishGameByTimeout",
      "outputs": [],
      "stateMutability": "nonpayable",
      "type": "function"
    },
    {
      "inputs": [
        {
          "internalType": "address",
          "name": "sender",
          "type": "address"
        },
        {
          "internalType": "uint256",
          "name": "gameId",
          "type": "uint256"
        }
      ],
      "name": "finishGameByTimeoutRelayer",
      "outputs": [],
      "stateMutability": "nonpayable",
      "type": "function"
    },
    {
      "inputs": [],
      "name": "gameEngineServerAddress",
      "outputs": [
        {
          "internalType": "address",
          "name": "",
          "type": "address"
        }
      ],
      "stateMutability": "view",
      "type": "function"
    },
    {
      "inputs": [],
      "name": "gamePublicKey",
      "outputs": [
        {
          "internalType": "string",
          "name": "",
          "type": "string"
        }
      ],
      "stateMutability": "view",
      "type": "function"
    },
    {
      "inputs": [],
      "name": "gameRequestIndex",
      "outputs": [
        {
          "internalType": "uint256",
          "name": "",
          "type": "uint256"
        }
      ],
      "stateMutability": "view",
      "type": "function"
    },
    {
      "inputs": [
        {
          "internalType": "uint256",
          "name": "",
          "type": "uint256"
        }
      ],
      "name": "gameRequests",
      "outputs": [
        {
          "internalType": "uint256",
          "name": "gameRequestId",
          "type": "uint256"
        },
        {
          "internalType": "uint256",
          "name": "team1id",
          "type": "uint256"
        },
        {
          "internalType": "uint256",
          "name": "team2id",
          "type": "uint256"
        },
        {
          "internalType": "uint256",
          "name": "createdAt",
          "type": "uint256"
        }
      ],
      "stateMutability": "view",
      "type": "function"
    },
    {
      "inputs": [
        {
          "internalType": "uint256",
          "name": "",
          "type": "uint256"
        }
      ],
      "name": "games",
      "outputs": [
        {
          "internalType": "uint256",
          "name": "gameId",
          "type": "uint256"
        },
        {
          "internalType": "uint256",
          "name": "createdAt",
          "type": "uint256"
        },
        {
          "components": [
            {
              "internalType": "uint8",
              "name": "movesMade",
              "type": "uint8"
            },
            {
              "internalType": "uint64",
              "name": "lastMoveAt",
              "type": "uint64"
            },
            {
              "internalType": "bytes32",
              "name": "team1MovesEncrypted",
              "type": "bytes32"
            },
            {
              "internalType": "bytes32",
              "name": "team2MovesEncrypted",
              "type": "bytes32"
            },
            {
              "internalType": "enum GameLib.TeamEnum",
              "name": "lastMoveTeam",
              "type": "uint8"
            },
            {
              "internalType": "uint8",
              "name": "team1score",
              "type": "uint8"
            },
            {
              "internalType": "uint8",
              "name": "team2score",
              "type": "uint8"
            }
          ],
          "internalType": "struct GameLib.GameState",
          "name": "gameState",
          "type": "tuple"
        },
        {
          "components": [
            {
              "internalType": "uint256",
              "name": "teamId",
              "type": "uint256"
            },
            {
              "internalType": "uint64",
              "name": "eloRating",
              "type": "uint64"
            },
            {
              "internalType": "uint64",
              "name": "eloRatingNew",
              "type": "uint64"
            },
            {
              "internalType": "enum GameLib.TeamFormation",
              "name": "formation",
              "type": "uint8"
            },
            {
              "internalType": "uint256[5]",
              "name": "__gap",
              "type": "uint256[5]"
            }
          ],
          "internalType": "struct GameLib.TeamInfo",
          "name": "team1",
          "type": "tuple"
        },
        {
          "components": [
            {
              "internalType": "uint256",
              "name": "teamId",
              "type": "uint256"
            },
            {
              "internalType": "uint64",
              "name": "eloRating",
              "type": "uint64"
            },
            {
              "internalType": "uint64",
              "name": "eloRatingNew",
              "type": "uint64"
            },
            {
              "internalType": "enum GameLib.TeamFormation",
              "name": "formation",
              "type": "uint8"
            },
            {
              "internalType": "uint256[5]",
              "name": "__gap",
              "type": "uint256[5]"
            }
          ],
          "internalType": "struct GameLib.TeamInfo",
          "name": "team2",
          "type": "tuple"
        },
        {
          "internalType": "enum GameLib.GameStatus",
          "name": "status",
          "type": "uint8"
        },
        {
          "internalType": "enum GameLib.TeamEnum",
          "name": "winner",
          "type": "uint8"
        },
        {
          "components": [
            {
              "components": [
                {
                  "internalType": "uint8",
                  "name": "x",
                  "type": "uint8"
                },
                {
                  "internalType": "uint8",
                  "name": "y",
                  "type": "uint8"
                }
              ],
              "internalType": "struct GameLib.Position[6]",
              "name": "team1PlayerPositions",
              "type": "tuple[6]"
            },
            {
              "components": [
                {
                  "internalType": "uint8",
                  "name": "x",
                  "type": "uint8"
                },
                {
                  "internalType": "uint8",
                  "name": "y",
                  "type": "uint8"
                }
              ],
              "internalType": "struct GameLib.Position[6]",
              "name": "team2PlayerPositions",
              "type": "tuple[6]"
            },
            {
              "components": [
                {
                  "internalType": "uint8",
                  "name": "x",
                  "type": "uint8"
                },
                {
                  "internalType": "uint8",
                  "name": "y",
                  "type": "uint8"
                }
              ],
              "internalType": "struct GameLib.Position",
              "name": "ballPosition",
              "type": "tuple"
            },
            {
              "internalType": "enum GameLib.TeamEnum",
              "name": "ballOwner",
              "type": "uint8"
            }
          ],
          "internalType": "struct GameLib.BoardState",
          "name": "lastBoardState",
          "type": "tuple"
        },
        {
          "internalType": "bytes32",
          "name": "historyIPFS",
          "type": "bytes32"
        },
        {
          "internalType": "bool",
          "name": "isVerified",
          "type": "bool"
        },
        {
          "internalType": "bytes",
          "name": "encryptedKey",
          "type": "bytes"
        },
        {
          "internalType": "uint8",
          "name": "gameEngineVersion",
          "type": "uint8"
        }
      ],
      "stateMutability": "view",
      "type": "function"
    },
    {
      "inputs": [],
      "name": "gelatoAddress",
      "outputs": [
        {
          "internalType": "address",
          "name": "",
          "type": "address"
        }
      ],
      "stateMutability": "view",
      "type": "function"
    },
    {
      "inputs": [],
      "name": "getActiveGameCount",
      "outputs": [
        {
          "internalType": "uint256",
          "name": "",
          "type": "uint256"
        }
      ],
      "stateMutability": "view",
      "type": "function"
    },
    {
      "inputs": [],
      "name": "getActiveGames",
      "outputs": [
        {
          "internalType": "uint256[]",
          "name": "",
          "type": "uint256[]"
        }
      ],
      "stateMutability": "view",
      "type": "function"
    },
    {
      "inputs": [
        {
          "internalType": "uint256",
          "name": "gameId",
          "type": "uint256"
        }
      ],
      "name": "getGame",
      "outputs": [
        {
          "components": [
            {
              "internalType": "uint256",
              "name": "gameId",
              "type": "uint256"
            },
            {
              "internalType": "uint256",
              "name": "createdAt",
              "type": "uint256"
            },
            {
              "components": [
                {
                  "internalType": "uint8",
                  "name": "movesMade",
                  "type": "uint8"
                },
                {
                  "internalType": "uint64",
                  "name": "lastMoveAt",
                  "type": "uint64"
                },
                {
                  "internalType": "bytes32",
                  "name": "team1MovesEncrypted",
                  "type": "bytes32"
                },
                {
                  "internalType": "bytes32",
                  "name": "team2MovesEncrypted",
                  "type": "bytes32"
                },
                {
                  "internalType": "enum GameLib.TeamEnum",
                  "name": "lastMoveTeam",
                  "type": "uint8"
                },
                {
                  "internalType": "uint8",
                  "name": "team1score",
                  "type": "uint8"
                },
                {
                  "internalType": "uint8",
                  "name": "team2score",
                  "type": "uint8"
                }
              ],
              "internalType": "struct GameLib.GameState",
              "name": "gameState",
              "type": "tuple"
            },
            {
              "components": [
                {
                  "internalType": "uint256",
                  "name": "teamId",
                  "type": "uint256"
                },
                {
                  "internalType": "uint64",
                  "name": "eloRating",
                  "type": "uint64"
                },
                {
                  "internalType": "uint64",
                  "name": "eloRatingNew",
                  "type": "uint64"
                },
                {
                  "internalType": "enum GameLib.TeamFormation",
                  "name": "formation",
                  "type": "uint8"
                },
                {
                  "internalType": "uint256[5]",
                  "name": "__gap",
                  "type": "uint256[5]"
                }
              ],
              "internalType": "struct GameLib.TeamInfo",
              "name": "team1",
              "type": "tuple"
            },
            {
              "components": [
                {
                  "internalType": "uint256",
                  "name": "teamId",
                  "type": "uint256"
                },
                {
                  "internalType": "uint64",
                  "name": "eloRating",
                  "type": "uint64"
                },
                {
                  "internalType": "uint64",
                  "name": "eloRatingNew",
                  "type": "uint64"
                },
                {
                  "internalType": "enum GameLib.TeamFormation",
                  "name": "formation",
                  "type": "uint8"
                },
                {
                  "internalType": "uint256[5]",
                  "name": "__gap",
                  "type": "uint256[5]"
                }
              ],
              "internalType": "struct GameLib.TeamInfo",
              "name": "team2",
              "type": "tuple"
            },
            {
              "internalType": "enum GameLib.GameStatus",
              "name": "status",
              "type": "uint8"
            },
            {
              "internalType": "enum GameLib.TeamEnum",
              "name": "winner",
              "type": "uint8"
            },
            {
              "components": [
                {
                  "components": [
                    {
                      "internalType": "uint8",
                      "name": "x",
                      "type": "uint8"
                    },
                    {
                      "internalType": "uint8",
                      "name": "y",
                      "type": "uint8"
                    }
                  ],
                  "internalType": "struct GameLib.Position[6]",
                  "name": "team1PlayerPositions",
                  "type": "tuple[6]"
                },
                {
                  "components": [
                    {
                      "internalType": "uint8",
                      "name": "x",
                      "type": "uint8"
                    },
                    {
                      "internalType": "uint8",
                      "name": "y",
                      "type": "uint8"
                    }
                  ],
                  "internalType": "struct GameLib.Position[6]",
                  "name": "team2PlayerPositions",
                  "type": "tuple[6]"
                },
                {
                  "components": [
                    {
                      "internalType": "uint8",
                      "name": "x",
                      "type": "uint8"
                    },
                    {
                      "internalType": "uint8",
                      "name": "y",
                      "type": "uint8"
                    }
                  ],
                  "internalType": "struct GameLib.Position",
                  "name": "ballPosition",
                  "type": "tuple"
                },
                {
                  "internalType": "enum GameLib.TeamEnum",
                  "name": "ballOwner",
                  "type": "uint8"
                }
              ],
              "internalType": "struct GameLib.BoardState",
              "name": "lastBoardState",
              "type": "tuple"
            },
            {
              "internalType": "bytes32",
              "name": "historyIPFS",
              "type": "bytes32"
            },
            {
              "internalType": "bool",
              "name": "isVerified",
              "type": "bool"
            },
            {
              "internalType": "bytes",
              "name": "encryptedKey",
              "type": "bytes"
            },
            {
              "internalType": "uint8",
              "name": "gameEngineVersion",
              "type": "uint8"
            },
            {
              "internalType": "uint256[10]",
              "name": "__gap",
              "type": "uint256[10]"
            }
          ],
          "internalType": "struct GameLib.Game",
          "name": "",
          "type": "tuple"
        }
      ],
      "stateMutability": "view",
      "type": "function"
    },
    {
      "inputs": [
        {
          "internalType": "uint256",
          "name": "requestId",
          "type": "uint256"
        }
      ],
      "name": "getGameRequest",
      "outputs": [
        {
          "components": [
            {
              "internalType": "uint256",
              "name": "gameRequestId",
              "type": "uint256"
            },
            {
              "internalType": "uint256",
              "name": "team1id",
              "type": "uint256"
            },
            {
              "internalType": "uint256",
              "name": "team2id",
              "type": "uint256"
            },
            {
              "internalType": "uint256",
              "name": "createdAt",
              "type": "uint256"
            }
          ],
          "internalType": "struct GameLib.GameRequest",
          "name": "",
          "type": "tuple"
        }
      ],
      "stateMutability": "view",
      "type": "function"
    },
    {
      "inputs": [
        {
          "internalType": "uint256",
          "name": "gameId",
          "type": "uint256"
        }
      ],
      "name": "getGameStatus",
      "outputs": [
        {
          "internalType": "enum GameLib.GameStatus",
          "name": "",
          "type": "uint8"
        }
      ],
      "stateMutability": "view",
      "type": "function"
    },
    {
      "inputs": [
        {
          "internalType": "uint256",
          "name": "teamId",
          "type": "uint256"
        },
        {
          "internalType": "uint256",
          "name": "n",
          "type": "uint256"
        }
      ],
      "name": "getLastNGames",
      "outputs": [
        {
          "components": [
            {
              "internalType": "uint256",
              "name": "gameId",
              "type": "uint256"
            },
            {
              "internalType": "uint256",
              "name": "createdAt",
              "type": "uint256"
            },
            {
              "components": [
                {
                  "internalType": "uint8",
                  "name": "movesMade",
                  "type": "uint8"
                },
                {
                  "internalType": "uint64",
                  "name": "lastMoveAt",
                  "type": "uint64"
                },
                {
                  "internalType": "bytes32",
                  "name": "team1MovesEncrypted",
                  "type": "bytes32"
                },
                {
                  "internalType": "bytes32",
                  "name": "team2MovesEncrypted",
                  "type": "bytes32"
                },
                {
                  "internalType": "enum GameLib.TeamEnum",
                  "name": "lastMoveTeam",
                  "type": "uint8"
                },
                {
                  "internalType": "uint8",
                  "name": "team1score",
                  "type": "uint8"
                },
                {
                  "internalType": "uint8",
                  "name": "team2score",
                  "type": "uint8"
                }
              ],
              "internalType": "struct GameLib.GameState",
              "name": "gameState",
              "type": "tuple"
            },
            {
              "components": [
                {
                  "internalType": "uint256",
                  "name": "teamId",
                  "type": "uint256"
                },
                {
                  "internalType": "uint64",
                  "name": "eloRating",
                  "type": "uint64"
                },
                {
                  "internalType": "uint64",
                  "name": "eloRatingNew",
                  "type": "uint64"
                },
                {
                  "internalType": "enum GameLib.TeamFormation",
                  "name": "formation",
                  "type": "uint8"
                },
                {
                  "internalType": "uint256[5]",
                  "name": "__gap",
                  "type": "uint256[5]"
                }
              ],
              "internalType": "struct GameLib.TeamInfo",
              "name": "team1",
              "type": "tuple"
            },
            {
              "components": [
                {
                  "internalType": "uint256",
                  "name": "teamId",
                  "type": "uint256"
                },
                {
                  "internalType": "uint64",
                  "name": "eloRating",
                  "type": "uint64"
                },
                {
                  "internalType": "uint64",
                  "name": "eloRatingNew",
                  "type": "uint64"
                },
                {
                  "internalType": "enum GameLib.TeamFormation",
                  "name": "formation",
                  "type": "uint8"
                },
                {
                  "internalType": "uint256[5]",
                  "name": "__gap",
                  "type": "uint256[5]"
                }
              ],
              "internalType": "struct GameLib.TeamInfo",
              "name": "team2",
              "type": "tuple"
            },
            {
              "internalType": "enum GameLib.GameStatus",
              "name": "status",
              "type": "uint8"
            },
            {
              "internalType": "enum GameLib.TeamEnum",
              "name": "winner",
              "type": "uint8"
            },
            {
              "components": [
                {
                  "components": [
                    {
                      "internalType": "uint8",
                      "name": "x",
                      "type": "uint8"
                    },
                    {
                      "internalType": "uint8",
                      "name": "y",
                      "type": "uint8"
                    }
                  ],
                  "internalType": "struct GameLib.Position[6]",
                  "name": "team1PlayerPositions",
                  "type": "tuple[6]"
                },
                {
                  "components": [
                    {
                      "internalType": "uint8",
                      "name": "x",
                      "type": "uint8"
                    },
                    {
                      "internalType": "uint8",
                      "name": "y",
                      "type": "uint8"
                    }
                  ],
                  "internalType": "struct GameLib.Position[6]",
                  "name": "team2PlayerPositions",
                  "type": "tuple[6]"
                },
                {
                  "components": [
                    {
                      "internalType": "uint8",
                      "name": "x",
                      "type": "uint8"
                    },
                    {
                      "internalType": "uint8",
                      "name": "y",
                      "type": "uint8"
                    }
                  ],
                  "internalType": "struct GameLib.Position",
                  "name": "ballPosition",
                  "type": "tuple"
                },
                {
                  "internalType": "enum GameLib.TeamEnum",
                  "name": "ballOwner",
                  "type": "uint8"
                }
              ],
              "internalType": "struct GameLib.BoardState",
              "name": "lastBoardState",
              "type": "tuple"
            },
            {
              "internalType": "bytes32",
              "name": "historyIPFS",
              "type": "bytes32"
            },
            {
              "internalType": "bool",
              "name": "isVerified",
              "type": "bool"
            },
            {
              "internalType": "bytes",
              "name": "encryptedKey",
              "type": "bytes"
            },
            {
              "internalType": "uint8",
              "name": "gameEngineVersion",
              "type": "uint8"
            },
            {
              "internalType": "uint256[10]",
              "name": "__gap",
              "type": "uint256[10]"
            }
          ],
          "internalType": "struct GameLib.Game[]",
          "name": "",
          "type": "tuple[]"
        }
      ],
      "stateMutability": "view",
      "type": "function"
    },
    {
      "inputs": [
        {
          "internalType": "uint256",
          "name": "teamId",
          "type": "uint256"
        }
      ],
      "name": "getTeam",
      "outputs": [
        {
          "components": [
            {
              "internalType": "uint256",
              "name": "id",
              "type": "uint256"
            },
            {
              "internalType": "address",
              "name": "wallet",
              "type": "address"
            },
            {
              "internalType": "string",
              "name": "name",
              "type": "string"
            },
            {
              "internalType": "uint64",
              "name": "eloRating",
              "type": "uint64"
            },
            {
              "internalType": "uint256",
              "name": "registeredAt",
              "type": "uint256"
            },
            {
              "internalType": "uint256[]",
              "name": "games",
              "type": "uint256[]"
            },
            {
              "internalType": "uint8",
              "name": "country",
              "type": "uint8"
            },
            {
              "internalType": "bool",
              "name": "hasActiveGame",
              "type": "bool"
            },
            {
              "internalType": "uint256",
              "name": "gameRequestId",
              "type": "uint256"
            },
            {
              "internalType": "uint64",
              "name": "totalGames",
              "type": "uint64"
            },
            {
              "internalType": "uint256[10]",
              "name": "__gap",
              "type": "uint256[10]"
            }
          ],
          "internalType": "struct GameLib.Team",
          "name": "",
          "type": "tuple"
        }
      ],
      "stateMutability": "view",
      "type": "function"
    },
    {
      "inputs": [
        {
          "internalType": "address",
          "name": "wallet",
          "type": "address"
        }
      ],
      "name": "getTeamIdByWallet",
      "outputs": [
        {
          "internalType": "uint256",
          "name": "",
          "type": "uint256"
        }
      ],
      "stateMutability": "view",
      "type": "function"
    },
    {
      "inputs": [
        {
          "internalType": "address",
          "name": "_gelatoAddress",
          "type": "address"
        },
        {
          "internalType": "address",
          "name": "_relayerAddress",
          "type": "address"
        },
        {
          "internalType": "address",
          "name": "_relayerSmartAccountAddress",
          "type": "address"
        },
        {
          "internalType": "address",
          "name": "_gameEngineServerAddress",
          "type": "address"
        },
        {
          "internalType": "string",
          "name": "_publicKey",
          "type": "string"
        }
      ],
      "name": "initialize",
      "outputs": [],
      "stateMutability": "nonpayable",
      "type": "function"
    },
    {
      "inputs": [
        {
          "internalType": "uint256",
          "name": "gameId",
          "type": "uint256"
        },
        {
          "internalType": "enum GameLib.StateType",
          "name": "stateType",
          "type": "uint8"
        },
        {
          "internalType": "uint8[]",
          "name": "clashRandomNumbers",
          "type": "uint8[]"
        },
        {
          "components": [
            {
              "internalType": "uint256",
              "name": "playerId",
              "type": "uint256"
            },
            {
              "internalType": "enum GameLib.MoveType",
              "name": "moveType",
              "type": "uint8"
            },
            {
              "components": [
                {
                  "internalType": "uint8",
                  "name": "x",
                  "type": "uint8"
                },
                {
                  "internalType": "uint8",
                  "name": "y",
                  "type": "uint8"
                }
              ],
              "internalType": "struct GameLib.Position",
              "name": "oldPosition",
              "type": "tuple"
            },
            {
              "components": [
                {
                  "internalType": "uint8",
                  "name": "x",
                  "type": "uint8"
                },
                {
                  "internalType": "uint8",
                  "name": "y",
                  "type": "uint8"
                }
              ],
              "internalType": "struct GameLib.Position",
              "name": "newPosition",
              "type": "tuple"
            }
          ],
          "internalType": "struct GameLib.GameAction[]",
          "name": "team1Actions",
          "type": "tuple[]"
        },
        {
          "components": [
            {
              "internalType": "uint256",
              "name": "playerId",
              "type": "uint256"
            },
            {
              "internalType": "enum GameLib.MoveType",
              "name": "moveType",
              "type": "uint8"
            },
            {
              "components": [
                {
                  "internalType": "uint8",
                  "name": "x",
                  "type": "uint8"
                },
                {
                  "internalType": "uint8",
                  "name": "y",
                  "type": "uint8"
                }
              ],
              "internalType": "struct GameLib.Position",
              "name": "oldPosition",
              "type": "tuple"
            },
            {
              "components": [
                {
                  "internalType": "uint8",
                  "name": "x",
                  "type": "uint8"
                },
                {
                  "internalType": "uint8",
                  "name": "y",
                  "type": "uint8"
                }
              ],
              "internalType": "struct GameLib.Position",
              "name": "newPosition",
              "type": "tuple"
            }
          ],
          "internalType": "struct GameLib.GameAction[]",
          "name": "team2Actions",
          "type": "tuple[]"
        },
        {
          "components": [
            {
              "components": [
                {
                  "internalType": "uint8",
                  "name": "x",
                  "type": "uint8"
                },
                {
                  "internalType": "uint8",
                  "name": "y",
                  "type": "uint8"
                }
              ],
              "internalType": "struct GameLib.Position[6]",
              "name": "team1PlayerPositions",
              "type": "tuple[6]"
            },
            {
              "components": [
                {
                  "internalType": "uint8",
                  "name": "x",
                  "type": "uint8"
                },
                {
                  "internalType": "uint8",
                  "name": "y",
                  "type": "uint8"
                }
              ],
              "internalType": "struct GameLib.Position[6]",
              "name": "team2PlayerPositions",
              "type": "tuple[6]"
            },
            {
              "components": [
                {
                  "internalType": "uint8",
                  "name": "x",
                  "type": "uint8"
                },
                {
                  "internalType": "uint8",
                  "name": "y",
                  "type": "uint8"
                }
              ],
              "internalType": "struct GameLib.Position",
              "name": "ballPosition",
              "type": "tuple"
            },
            {
              "internalType": "enum GameLib.TeamEnum",
              "name": "ballOwner",
              "type": "uint8"
            }
          ],
          "internalType": "struct GameLib.BoardState",
          "name": "boardState",
          "type": "tuple"
        }
      ],
      "name": "newGameState",
      "outputs": [],
      "stateMutability": "nonpayable",
      "type": "function"
    },
    {
      "inputs": [],
      "name": "nextGameId",
      "outputs": [
        {
          "internalType": "uint256",
          "name": "",
          "type": "uint256"
        }
      ],
      "stateMutability": "view",
      "type": "function"
    },
    {
      "inputs": [],
      "name": "nextTeamId",
      "outputs": [
        {
          "internalType": "uint256",
          "name": "",
          "type": "uint256"
        }
      ],
      "stateMutability": "view",
      "type": "function"
    },
    {
      "inputs": [],
      "name": "owner",
      "outputs": [
        {
          "internalType": "address",
          "name": "",
          "type": "address"
        }
      ],
      "stateMutability": "view",
      "type": "function"
    },
    {
      "inputs": [],
      "name": "proxiableUUID",
      "outputs": [
        {
          "internalType": "bytes32",
          "name": "",
          "type": "bytes32"
        }
      ],
      "stateMutability": "view",
      "type": "function"
    },
    {
      "inputs": [],
      "name": "relayerAddress",
      "outputs": [
        {
          "internalType": "address",
          "name": "",
          "type": "address"
        }
      ],
      "stateMutability": "view",
      "type": "function"
    },
    {
      "inputs": [],
      "name": "relayerSmartAccountAddress",
      "outputs": [
        {
          "internalType": "address",
          "name": "",
          "type": "address"
        }
      ],
      "stateMutability": "view",
      "type": "function"
    },
    {
      "inputs": [],
      "name": "renounceOwnership",
      "outputs": [],
      "stateMutability": "nonpayable",
      "type": "function"
    },
    {
      "inputs": [
        {
          "internalType": "uint256",
          "name": "gameId",
          "type": "uint256"
        },
        {
          "internalType": "enum GameLib.TeamEnum",
          "name": "cauzedByTeam",
          "type": "uint8"
        },
        {
          "internalType": "enum ChessBallGame.ErrorType",
          "name": "errorType",
          "type": "uint8"
        },
        {
          "internalType": "string",
          "name": "errorMsg",
          "type": "string"
        }
      ],
      "name": "setGameError",
      "outputs": [],
      "stateMutability": "nonpayable",
      "type": "function"
    },
    {
      "inputs": [
        {
          "internalType": "address",
          "name": "_relayerSmartAccountAddress",
          "type": "address"
        }
      ],
      "name": "setRelayerSmartAccountAddress",
      "outputs": [],
      "stateMutability": "nonpayable",
      "type": "function"
    },
    {
      "inputs": [
        {
          "internalType": "uint256",
          "name": "gameRequestId",
          "type": "uint256"
        },
        {
          "internalType": "bytes",
          "name": "_encryptedKey",
          "type": "bytes"
        }
      ],
      "name": "startGame",
      "outputs": [],
      "stateMutability": "nonpayable",
      "type": "function"
    },
    {
      "inputs": [
        {
          "internalType": "address",
          "name": "sender",
          "type": "address"
        },
        {
          "internalType": "uint256",
          "name": "gameRequestId",
          "type": "uint256"
        },
        {
          "internalType": "bytes",
          "name": "_encryptedKey",
          "type": "bytes"
        }
      ],
      "name": "startGameRelayer",
      "outputs": [],
      "stateMutability": "nonpayable",
      "type": "function"
    },
    {
      "inputs": [
        {
          "internalType": "address",
          "name": "",
          "type": "address"
        }
      ],
      "name": "teamIdByWallet",
      "outputs": [
        {
          "internalType": "uint256",
          "name": "",
          "type": "uint256"
        }
      ],
      "stateMutability": "view",
      "type": "function"
    },
    {
      "inputs": [
        {
          "internalType": "string",
          "name": "",
          "type": "string"
        }
      ],
      "name": "teamNames",
      "outputs": [
        {
          "internalType": "bool",
          "name": "",
          "type": "bool"
        }
      ],
      "stateMutability": "view",
      "type": "function"
    },
    {
      "inputs": [
        {
          "internalType": "uint256",
          "name": "",
          "type": "uint256"
        }
      ],
      "name": "teams",
      "outputs": [
        {
          "internalType": "uint256",
          "name": "id",
          "type": "uint256"
        },
        {
          "internalType": "address",
          "name": "wallet",
          "type": "address"
        },
        {
          "internalType": "string",
          "name": "name",
          "type": "string"
        },
        {
          "internalType": "uint64",
          "name": "eloRating",
          "type": "uint64"
        },
        {
          "internalType": "uint256",
          "name": "registeredAt",
          "type": "uint256"
        },
        {
          "internalType": "uint8",
          "name": "country",
          "type": "uint8"
        },
        {
          "internalType": "bool",
          "name": "hasActiveGame",
          "type": "bool"
        },
        {
          "internalType": "uint256",
          "name": "gameRequestId",
          "type": "uint256"
        },
        {
          "internalType": "uint64",
          "name": "totalGames",
          "type": "uint64"
        }
      ],
      "stateMutability": "view",
      "type": "function"
    },
    {
      "inputs": [
        {
          "internalType": "uint256",
          "name": "gameId",
          "type": "uint256"
        }
      ],
      "name": "testTriggerGameActionCommitted",
      "outputs": [],
      "stateMutability": "nonpayable",
      "type": "function"
    },
    {
      "inputs": [
        {
          "internalType": "address",
          "name": "newOwner",
          "type": "address"
        }
      ],
      "name": "transferOwnership",
      "outputs": [],
      "stateMutability": "nonpayable",
      "type": "function"
    },
    {
      "inputs": [
        {
          "internalType": "address",
          "name": "newImplementation",
          "type": "address"
        },
        {
          "internalType": "bytes",
          "name": "data",
          "type": "bytes"
        }
      ],
      "name": "upgradeToAndCall",
      "outputs": [],
      "stateMutability": "payable",
      "type": "function"
    }
  ],
  "bytecode": "0x60a08060405234620000d157306080527ff0c57e16840df040f15088dc2f81fe391c3923bec73e23a9662efc9c229c6a009081549060ff8260401c16620000c257506001600160401b036002600160401b0319828216016200007c575b6040516154ed9081620000d782396080518181816115a201526116860152f35b6001600160401b031990911681179091556040519081527fc7f505b2f371ae2175ee4913f4499e1f2633a7b5936321eed1cdaeb6115181d290602090a13880806200005c565b63f92ee8a960e01b8152600490fd5b600080fdfe608080604052600436101561001357600080fd5b60003560e01c9081628e0f1b146122e45750806302f785fd146122575780630f1bf454146122055780630fb9f8691461208e578063117a5b9014611f5957806313e4c71414611f225780631894c75614611f0457806318a7cca814611edb5780631b76929c14611e4257806322d60b1a14611e2a5780632681438714611de45780632cc9c96414611dbb5780632df84be514611cb45780632fb3b361146119d357806337900ba21461199c5780633ed2b77a146118de57806349e3969a146118885780634cf97fad146118415780634f1ef2861461163757806351903bd9146115fa57806352d1902d1461158f57806359bcfbe4146114c957806368599d0c146114ab5780636e6964d71461144a578063715018a6146113f257806371f5001f1461095357806379b880ac1461078c5780637bb597fa1461076e5780638da5cb5b1461073857806392a52e81146106ea578063a2f77bcc146105b4578063a462816c1461058b578063a89ae45714610562578063ad3cb1cc14610518578063afcaa6e3146104a4578063b135bbb014610486578063c4b634f31461040b578063c648041314610202578063c9495041146103b9578063e34c2e5814610326578063ec5c504e14610309578063f2b1ffcf1461026c578063f2fde38b146102415763ff156d001461020257600080fd5b3461023c57602036600319011261023c576001600160a01b03610223612c64565b1660005260056020526020604060002054604051908152f35b600080fd5b3461023c57602036600319011261023c5761026a61025d612c64565b61026561359b565b613391565b005b3461023c57608036600319011261023c57610285612c64565b60243590604435600381101561023c57600154336001600160a01b03918216141590816102fa575b506102e857826000526003602052600160406000200154156102d65761026a9260643592614a41565b60405163b0ce759160e01b8152600490fd5b604051639608c6ff60e01b8152600490fd5b9050600d5416331415846102ad565b3461023c57602036600319011261023c5761026a600435336148d4565b3461023c57602036600319011261023c5760043561034261336c565b50806000526009602052600360406000200154156102d65760005260096020526080604060002060405161037581612882565b815491828252600181015460208301908152606060036002840154936040860194855201549301928352604051938452516020840152516040830152516060820152f35b3461023c57604036600319011261023c576103d2612c64565b600154336001600160a01b03918216141590816103fc575b506102e85761026a90602435906148d4565b9050600d5416331415826103ea565b3461023c57606036600319011261023c57610424612c64565b6024356001600160401b03811161023c57610443903690600401612977565b6044359060ff8216820361023c57600154336001600160a01b0391821614159081610477575b506102e85761026a92613637565b9050600d541633141584610469565b3461023c57600036600319011261023c576020600654604051908152f35b3461023c57606036600319011261023c576104bd612c64565b6044356001600160401b03811161023c576104dc903690600401612c88565b600154909190336001600160a01b0391821614159081610509575b506102e85761026a9260243590613c67565b9050600d5416331415846104f7565b3461023c57600036600319011261023c5761055e604051610538816128b8565b60058152640352e302e360dc1b6020820152604051918291602083526020830190612579565b0390f35b3461023c57600036600319011261023c57600d546040516001600160a01b039091168152602090f35b3461023c57600036600319011261023c576002546040516001600160a01b039091168152602090f35b3461023c5760208060031936011261023c576004356105d1612dc4565b508060005260038252600160406000200154156102d657600052600381526040600020906106d060276040519361060785612866565b805485526001810154848601526106206002820161299e565b604086015261063160068201612a04565b6060860152610642600d8201612a04565b608086015261066f60ff601483015481811661065d816126b3565b60a089015260081c1660c08701612992565b61067b60158201612afc565b60e0860152602381015461010086015260ff60248201541615156101208601526040516106b6816106af8160258601612b85565b0382612902565b61014086015260ff60268201541661016086015201612ce5565b61018083015261055e604051928284938452830190612752565b3461023c57602036600319011261023c576004356000526009602052608060406000208054906001810154906003600282015491015491604051938452602084015260408301526060820152f35b3461023c57600036600319011261023c576000805160206153d8833981519152546040516001600160a01b039091168152602090f35b3461023c57600036600319011261023c576020600a54604051908152f35b3461023c57604036600319011261023c576107a5612c64565b60018054602435926001600160a01b039291831633141580610945575b6102e8578360005260036020528160406000200154156102d6578360005260036020528160406000200154156102d6578360005260036020526040600020928260ff601486015416610813816126b3565b03610933576006840154600052600460205280808460406000200154169216809214159283610915575b5050506109035760038101541580156108f7575b6108e55760018060401b03600282015460081c16603c81018091116108cf574211156108bd576005015460ff1660038110156108a757156108955761026a906146c2565b6040516356eff76b60e01b8152600490fd5b634e487b7160e01b600052602160045260246000fd5b604051634e7fc88160e11b8152600490fd5b634e487b7160e01b600052601160045260246000fd5b604051631e86addb60e01b8152600490fd5b50600481015415610851565b604051633093624d60e21b8152600490fd5b90919250600d8401546000526040600020015416141583808061083d565b6040516314bc0c2f60e31b8152600490fd5b5082600d54163314156107c2565b3461023c5761040036600319011261023c576004602435101561023c576001600160401b036044351161023c5736602360443501121561023c576001600160401b03600460443501351161023c573660246044356004013560051b60443501011161023c576064356001600160401b03811161023c576109d7903690600401612cb5565b6084356001600160401b03811161023c576109f6903690600401612cb5565b90916103603660a319011261023c576004356000526003602052600160406000200154156102d657600254336001600160a01b03918216141590816113e2575b816113d3575b506113c1576004356000526003602052604060002092600160ff601486015416610a65816126b3565b036109335760ff600285015416611391575b60158401600060a45b6006821061135b57505050601b840160006102245b6006821061131f575050506103a43560ff8116810361023c5760ff1660ff1960218601541617602185015560ff6103c435166103c4350361023c57610ae06103c43560218601613250565b60036103e435101561023c57610afc6103e435602286016131c6565b610bf6600285015460ff610b11818316613266565b91610b1d6024356126b3565b60243560020361130f57610b398260058a015460081c16613266565b925b610b466024356126b3565b6024356003036112ff57610b628360058b015460101c16613266565b915b604051610b708161284b565b848316815260018060401b034216602082015260006040820152600060608201526000608082015284861660a082015260c085851691015283610100600160481b034260081b1692169060018060481b031916171760028901556000600389015560006004890155610bef8260058a0194811986541686551684613250565b1690613278565b610c016024356126b3565b6024356002036112c857604051600181526000805160206153b8833981519152602060043592a25b835492604051926104008401610c406024356126b3565b6024358552426020860152610400604086015260443560040135905261042084019660246044350160005b6044356004013581106112a857505093610ccb600296947f1cc12e86ff5f2b2e761ab2fd8a6e3ee635d92958237b110363a2868ed2b6f8be94610cbd8b859660ff9c9a87602d9f0360608901526132b2565b9184830360808601526132b2565b610cdb60a083016015880161332f565b610cec6102208301601b880161332f565b610d0c6103a083016021880160ff60209154818116845260081c16910152565b610d21886022880154166103e08401906125dc565b0390a20154161015610d2f57005b600060043560005260036020526040600020602d60ff600283015416106112965760068101546000526004602052610d796040600020600d83015460005260406000209083615145565b5060043560005260036020526040600020600681015460005260046020526040600020600d8201546000526040600020906032600584015460ff808260081c169160101c16908181116000146112885750505060645b60058201541580611271575b611225575b6005830154158061120e575b6111c2575b6007840154600e8501546001600160401b039081169116808210156111b957818103905b61046682101561023c578083106111ab575b60199210156111a257610320035b04600a600182161561119757600a919088915b60011c90815b6111445750505091610f859391610e80610e78610e73610e73610e73610fa3986152e6565b6152e6565b60640161525f565b90601402818110918260001461113c5703905b156110e257600383018054916001600160401b039081169190610eb883858316615214565b166001600160401b0319938416179055600383018054909290916001600160401b0390610ee79082851661522d565b1691161790555b6003810190610f5882549661138880988160018060401b038216106110ce575b50506003850180549098906001600160401b03811682116110ba575b50508354610f44906001600160401b031660078301613bfc565b87546001600160401b031690600e01613bfc565b5490546040516000805160206153988339815191529586928291906001600160401b031660043583615246565b0390a25492546040519182916001600160401b031660043583615246565b0390a2815b60085490818110156110ae57610fbd81612c1b565b60043591549060031b1c14610fd6576001915001610fa8565b6000199180830190811161109a5790611001610ff461101a93612c1b565b90549060031b1c91612c1b565b90919082549060031b91821b91600019901b1916179055565b6008548015611086579160149160ff930161104861103782612c1b565b8154906000199060031b1b19169055565b6008555b015460081c169061106060405180936125dc565b611069816131bc565b6020820152600080516020615478833981519152604060043592a2005b634e487b7160e01b84526031600452602484fd5b634e487b7160e01b85526011600452602485fd5b5050601460ff9161104c565b6001600160401b0319161788558a80610f2a565b6001600160401b031916178455878b610f0e565b600382018054916001600160401b03908116919061110283858316615214565b166001600160401b0319938416179055600384018054909290916001600160401b03906111319082851661522d565b169116179055610eee565b900390610e93565b8060801c6111935780029161118f578160018216611169575b5060011c889181610e4e565b9092809950818082020403611184575b60009802918961115d565b801561117957600080fd5b8880fd5b8280fd5b600191908891610e48565b61032001610e35565b6103208210610e2757600080fd5b80820390610e15565b6003830180546127106001600160401b03199182168117909255600e860180549092919060646001600160401b03821614611201575b50505050610df1565b16179055868080806111f8565b5060038301546001600160401b0316606414610dec565b6003820180546127106001600160401b031991821681179092556007860180549092919060646001600160401b03821614611264575b50505050610de0565b161790558680808061125b565b5060038201546001600160401b0316606414610ddb565b1015610dcf57506000610dcf565b604051636ff6cfe560e01b8152600490fd5b909860208060019260ff6112bb8e612c7a565b168152019a019101610c6b565b6112d36024356126b3565b600360243503610c2957604051600281526000805160206153b8833981519152602060043592a2610c29565b8260058a015460101c1691610b64565b81600589015460081c1692610b3b565b600160408260ff6113308495613242565b1660ff1987541617865561134f61134960208301613242565b87613250565b01930191019091610a95565b600160408260ff61136c8495613242565b1660ff1987541617865561138561134960208301613242565b01930191019091610a80565b60038401541580156113b5575b15610a7757604051631e86addb60e01b8152600490fd5b5060048401541561139e565b604051631c307ff760e31b8152600490fd5b90506000541633141585610a3c565b809150600d541633141590610a36565b3461023c57600036600319011261023c5761140b61359b565b6000805160206153d883398151915280546001600160a01b031981169091556000906001600160a01b03166000805160206154188339815191528280a3005b3461023c57602036600319011261023c576004356001600160401b03811161023c5760ff611495602061148281943690600401612977565b8160405193828580945193849201612556565b8101600b81520301902054166040519015158152f35b3461023c57600036600319011261023c576020600754604051908152f35b3461023c57600036600319011261023c57604051600c546000826114ec83612b4b565b918282526020936001908560018216918260001461156f57505060011461152f575b5061151b92500383612902565b61055e604051928284938452830190612579565b849150600c60005281600020906000915b85831061155757505061151b93508201018561150e565b80548389018501528794508693909201918101611540565b60ff19168582015261151b95151560051b850101925087915061150e9050565b3461023c57600036600319011261023c577f00000000000000000000000000000000000000000000000000000000000000006001600160a01b031630036115e85760206040516000805160206153f88339815191528152f35b60405163703e46dd60e11b8152600490fd5b3461023c57604036600319011261023c576024356001600160401b03811161023c5761162d61026a913690600401612c88565b9060043533613c67565b604036600319011261023c5761164b612c64565b6024356001600160401b03811161023c573660238201121561023c5761167b903690602481600401359101612940565b906001600160a01b037f00000000000000000000000000000000000000000000000000000000000000008116308114908115611825575b506115e8576116bf61359b565b6040516352d1902d60e01b8152908216916020918281600481875afa600091816117f6575b5061170257604051634c9c8ce360e01b815260048101859052602490fd5b9284936000805160206153f8833981519152908181036117de5750823b156117c55780546001600160a01b03191682179055604051907fbc7cd75a20ee27fd9adebab32041f755214dbc6bffa90cc0225b39da2e5c2d3b600080a28351156117ab5750600080848461026a96519101845af4903d156117a2573d61178581612925565b906117936040519283612902565b8152600081943d92013e615283565b60609250615283565b92505050346117b657005b63b398979f60e01b8152600490fd5b604051634c9c8ce360e01b815260048101839052602490fd5b60249060405190632a87526960e21b82526004820152fd5b9091508381813d831161181e575b61180e8183612902565b8101031261023c575190866116e4565b503d611804565b9050816000805160206153f883398151915254161415846116b2565b3461023c57604036600319011261023c576004356001600160401b03811161023c57611871903690600401612977565b60243560ff8116810361023c5761026a9133613637565b3461023c57606036600319011261023c576118a1612c64565b600154336001600160a01b03918216141590816118cf575b506102e85761026a906044359060243590613418565b9050600d5416331415826118b9565b3461023c57602036600319011261023c576004356000526004602052604060002080549060018060a01b0360018201541690604051611924816106af8160028601612b85565b60018060401b039160ff8360038301541693600483015461196f600685015492600860078701549601541695604051998a99610120918b5260208b01528060408b0152890190612579565b956060880152608087015281811660a087015260081c16151560c085015260e08401526101008301520390f35b3461023c57602036600319011261023c576119b561359b565b604051428152600080516020615438833981519152602060043592a2005b3461023c5760a036600319011261023c576119ec612c64565b6001600160a01b03602435818116929083900361023c576044359082821680920361023c5760643583811680910361023c576001600160401b039060843582811161023c57611a3f903690600401612977565b956000805160206154588339815191529485549660ff8860401c16159585891698891580611cad575b6001809b149081611ca3575b159081611c9a575b50611c88576001600160401b031981168a17895587611c6d575b5016918215611c5b578015611c5b578115611c5b578315611c5b5760018060a01b0319928360005416176000558288541617875581600d541617600d5560025416176002558451908111611c4557611aef600c54612b4b565b601f8111611beb575b50602094601f8211600114611b8657611b1f929394958291600092611b7b575b505061322f565b600c555b611b2b6150fe565b611b336150fe565b611b3c33613391565b611b4257005b805460ff60401b191690556040519081527fc7f505b2f371ae2175ee4913f4499e1f2633a7b5936321eed1cdaeb6115181d290602090a1005b015190508680611b18565b601f19821695600c600052806000209160005b888110611bd557508387989795969710611bbc575b505050811b01600c55611b23565b015160001960f88460031b161c19169055858080611bae565b8183015184559287019260209283019201611b99565b600c600052611c35907fdf6966c971051c3d54ec59162606531493a51404a002842f56009d7e5cf4a8c7601f840160051c81019160208510611c3b575b601f0160051c01906131de565b85611af8565b9091508190611c28565b634e487b7160e01b600052604160045260246000fd5b6040516301369f3160e61b8152600490fd5b6001600160481b0319166001600160401b011788558a611a96565b60405163f92ee8a960e01b8152600490fd5b9050158c611a7c565b303b159150611a74565b5087611a68565b3461023c57602036600319011261023c57600435806000526003602052600160406000200154156102d657806000526003602052600160406000200154156102d6578060005260036020526040600020600160ff601483015416611d17816126b3565b036109335760068101546000908152600460205260409020600101546001600160a01b039081163314159081611d9d575b506109035760038101541580156108f7576108e55760018060401b03600282015460081c16603c81018091116108cf574211156108bd576005015460ff1660038110156108a757156108955761026a906146c2565b9050600d820154600052339060016040600020015416141583611d48565b3461023c57600036600319011261023c576000546040516001600160a01b039091168152602090f35b3461023c57602036600319011261023c57611dfd612c64565b611e0561359b565b6001600160a01b03168015611c5b57600d80546001600160a01b031916919091179055005b3461023c5761026a611e3b366125c6565b9033613418565b3461023c57600036600319011261023c5760405180600854808352602080930180916008600052846000209060005b86828210611ec7578686611e8782880383612902565b604051928392818401908285525180915260408401929160005b828110611eb057505050500390f35b835185528695509381019392810192600101611ea1565b835485529093019260019283019201611e71565b3461023c57600036600319011261023c576001546040516001600160a01b039091168152602090f35b3461023c57600036600319011261023c576020600854604051908152f35b3461023c57602036600319011261023c5760043560085481101561023c57611f4b602091612c1b565b90546040519160031b1c8152f35b3461023c57602036600319011261023c5760043560005260036020526040600020805460018201549060028301611f8f9061299e565b92611f9c60068201612a04565b91611fa9600d8301612a04565b601483015460ff811690611fbf60158601612afc565b90602386015492602487015460ff16946040519788806025830190611fe391612b85565b03611fee908a612902565b6026015460ff16986040519b8c9b610780998d5260208d015260408c01612014916125e9565b6101208b0161202291612641565b6102408a0161203091612641565b612039816126b3565b61036089015261038088019060081c60ff1690612055916125dc565b6103a08701612063916126fc565b610700860152151561072085015280610740850152830161208391612579565b906107608301520390f35b3461023c57608036600319011261023c576004356024356003811015908161023c57604435600281101561023c576064356001600160401b03811161023c576120db903690600401612977565b600254909390336001600160a01b03918216141590816121f5575b816121e6575b506113c15761210a826131bc565b60018214806121da575b612168575b50906121636000805160206154988339815191529361213e93604051948580956125dc565b612147816131bc565b6020840152426040840152608060608401526080830190612579565b0390a2005b8460009392935260036020526040600020906108a7576000805160206154988339815191529361213e9361216392600185036121b757600501805460ff191660021790555b9293509350612119565b600285146121c6575b506121ad565b600501805460ff19166001179055876121c0565b50506000821515612114565b905060005416331415866120fc565b809150600d5416331415906120f6565b3461023c57602036600319011261023c57600435806000526003602052600160406000200154156102d6576000526003602052602060ff6014604060002001541660405190612253816126b3565b8152f35b3461023c57612265366125c6565b908060005260209160048352604060002054156102d65761228591612f17565b6040519082820192808352815180945260408301938160408260051b8601019301916000955b8287106122b85785850386f35b9091929382806122d4600193603f198a82030186528851612752565b96019201960195929190926122ab565b3461023c57602036600319011261023c57600435906123028161282f565b6000815260006020820152606060408201526000606082015260006080820152606060a0820152600060c0820152600060e08201526000610100820152600061012082015261014060405191612357836128e6565b813684370152806000526004602052604060002054156102d657600052600460205260406000206040519061238b8261282f565b8054825260018101546001600160a01b031660208301526040516123b6816106af8160028601612b85565b604083015260018060401b036003820154166060830152600481015460808301526005810160405190816020825491828152019160005260206000209060005b818110612540578661245560098888612411818a0382612902565b60a0850152600681015460ff81811660c0870152600891821c16151560e086015260078201546101008601528101546001600160401b031661012085015201612ce5565b6101408201526040805160208082528351818301528301516001600160a01b031681830152908201516102806060830152612495906102a0830190612579565b60018060401b036060840151166080830152608083015160a083015260a083015190601f198382030160c08401526020808351928381520192019060005b81811061252a5750505061055e6101408460ff60c0869701511660e086015260e0810151151561010086015261010081015161012086015260018060401b036101208201511682860152015161016084019061259e565b82518452602093840193909201916001016124d3565b82548452602090930192600192830192016123f6565b60005b8381106125695750506000910152565b8181015183820152602001612559565b9060209161259281518092818552858086019101612556565b601f01601f1916010190565b6000915b600a83106125af57505050565b6001908251815260208091019201920191906125a2565b604090600319011261023c576004359060243590565b9060038210156108a75752565b60ff60c0809282815116855260018060401b036020820151166020860152604081015160408601526060810151606086015261262d608082015160808701906125dc565b8260a08201511660a0860152015116910152565b805182526020808201516001600160401b03908116828501526040808401519091169084015260608201519093926001929091838110156108a757606083015260809081015160009590929091015b600586106126a057505050509050565b8251815294830194918101918101612690565b600411156108a757565b906000905b600682106126cf57505050565b60206040826126f0600194875160ff60208092828151168552015116910152565b019301910190916126c2565b906103406060612750936127118482516126bd565b61272460208201516101808601906126bd565b612746604082015161030086019060ff60208092828151168552015116910152565b01519101906125dc565b565b9061282c906107806101806128126108c08651855260208701516020860152612783604088015160408701906125e9565b60608701516127986101209182880190612641565b6127ab6080890151610240880190612641565b60a08801516127b9816126b3565b6103608701526127d260c08901516103808801906125dc565b6127e560e08901516103a08801906126fc565b61010088015161070087015287015115156107208601526101408701519080610740870152850190612579565b9460ff61016082015116610760850152015191019061259e565b90565b61016081019081106001600160401b03821117611c4557604052565b60e081019081106001600160401b03821117611c4557604052565b6101a081019081106001600160401b03821117611c4557604052565b608081019081106001600160401b03821117611c4557604052565b60a081019081106001600160401b03821117611c4557604052565b604081019081106001600160401b03821117611c4557604052565b6001600160401b038111611c4557604052565b61014081019081106001600160401b03821117611c4557604052565b601f909101601f19168101906001600160401b03821190821017611c4557604052565b6001600160401b038111611c4557601f01601f191660200190565b92919261294c82612925565b9161295a6040519384612902565b82948184528183011161023c578281602093846000960137010152565b9080601f8301121561023c5781602061282c93359101612940565b60038210156108a75752565b906040516129ab8161284b565b60c060ff600383958054838116865260018060401b039060081c166020860152600181015460408601526002810154606086015201546129f082821660808601612992565b818160081c1660a085015260101c16910152565b9060405191612a128361289d565b82815481526001808301549260ff60018060401b039460209580821660208701528160401c16604086015260801c1660018110156108a757606084015260405193600290910190600090855b60058310612a7b575050505050608090612a778361289d565b0152565b8354815292840192918401918101612a5e565b90604051612a9b816128b8565b602060ff829454818116845260081c16910152565b604051919060c083016001600160401b03811184821017611c45576040526000835b60068210612adf57505050565b600160208192612aee86612a8e565b815201930191019091612ad2565b90612750604051612b0c81612882565b606060ff600d8396612b1d81612ab0565b8552612b2b60068201612ab0565b6020860152612b3c600c8201612a8e565b60408601520154169101612992565b90600182811c92168015612b7b575b6020831014612b6557565b634e487b7160e01b600052602260045260246000fd5b91607f1691612b5a565b805460009392612b9482612b4b565b91828252602093600191600181169081600014612bfc5750600114612bbb575b5050505050565b90939495506000929192528360002092846000945b838610612be857505050500101903880808080612bb4565b805485870183015294019385908201612bd0565b60ff19168685015250505090151560051b010191503880808080612bb4565b600854811015612c3657600860005260206000200190600090565b634e487b7160e01b600052603260045260246000fd5b8054821015612c365760005260206000200190600090565b600435906001600160a01b038216820361023c57565b359060ff8216820361023c57565b9181601f8401121561023c578235916001600160401b03831161023c576020838186019501011161023c57565b9181601f8401121561023c578235916001600160401b03831161023c5760208085019460c0850201011161023c57565b60405191906000835b600a8210612d0257505050612750826128e6565b6001602081928554815201930191019091612cee565b6001600160401b038111611c455760051b60200190565b60405190612d3c8261289d565b8160008152600060208201526000604082015260006060820152608060405191612d658361289d565b60a03684370152565b60408051919060c0908184016001600160401b03811185821017611c45576040528360009160005b848110612da4575050505050565b6020908251612db2816128b8565b85815285838201528185015201612d96565b604090815191612dd383612866565b610180836000928382528360208301528051612dee8161284b565b84815284602082015284828201528460608201528460808201528460a08201528460c082015281830152612e20612d2f565b6060830152612e2d612d2f565b60808301528360a08301528360c08301528051612e4981612882565b612e51612d6e565b8152612e5b612d6e565b60208201528151612e6b816128b8565b8581528560208201528282015284606082015260e08301528361010083015283610120830152610140936060858401526101608301525192612eac846128e6565b3684370152565b90612ebd82612d18565b612eca6040519182612902565b8281528092612edb601f1991612d18565b019060005b828110612eec57505050565b602090612ef7612dc4565b82828501015201612ee0565b8051821015612c365760209160051b010190565b90600091825260049060206004815260406005818620019485548015613184578085101561307f57612f4885612eb3565b96825b868110612f5d57505050505050505090565b86830383811161306c5781810180911161306c5790612f7e60019284612c4c565b9054600391821b1c8652875285852061304a6027885192612f9e84612866565b80548452858101548b850152612fb66002820161299e565b8a850152612fc660068201612a04565b6060850152612fd7600d8201612a04565b60808501526014810154612ff460ff828180941661065d816126b3565b61300060158301612afc565b60e086015260238201546101008601528060248301541615156101208601528a51613032816106af8160258701612b85565b61014086015260268201541661016085015201612ce5565b61018082015261305a828c612f03565b52613065818b612f03565b5001612f4b565b634e487b7160e01b855260118952602485fd5b94509192509061308e84612eb3565b94815b8581106130a15750505050505090565b806130ae60019284612c4c565b9054600391821b1c8552865284842061316260278751926130ce84612866565b80548452858101548a8501526130e66002820161299e565b898501526130f660068201612a04565b6060850152613107600d8201612a04565b6080850152601481015461312460ff828180941661065d816126b3565b61313060158301612afc565b60e086015260238201546101008601528060248301541615156101208601528951613032816106af8160258701612b85565b610180820152613172828a612f03565b5261317d8189612f03565b5001613091565b5081519550935090840191506001600160401b038211848310176131a85752815290565b634e487b7160e01b83526041600452602483fd5b600211156108a757565b9060038110156108a75760ff80198354169116179055565b8181106131e9575050565b600081556001016131de565b9190601f811161320457505050565b612750926000526020600020906020601f840160051c83019310611c3b57601f0160051c01906131de565b8160011b916000199060031b1c19161790565b3560ff8116810361023c5790565b9061ff0082549160081b169061ff001916179055565b60ff60019116019060ff82116108cf57565b9062ff000082549160101b169062ff00001916179055565b60ff6132ac60208093836132a382612c7a565b16865201612c7a565b16910152565b91818152602080910192916000916000905b8282106132d357505050505090565b90919293948535815281860135600481101561332b5790816132f66001936126b3565b8382015261330a6040808301908901613290565b61331a6080808301908901613290565b60c0908101960194939201906132c4565b8580fd5b906000905b6006821061334157505050565b600160408261336083948760ff60209154818116845260081c16910152565b01930191019091613334565b6040519061337982612882565b60006060838281528260208201528260408201520152565b6001600160a01b039081169081156133da576000805160206153d883398151915280546001600160a01b03198116841790915516600080516020615418833981519152600080a3565b604051631e4fbdf760e01b815260006004820152602490fd5b60001981146108cf5760010190565b6040919493926060820195825260208201520152565b929192600093828552600494602090868252604093848220541561358b57838252878352848220541561358b5785825287835284822054848352858320541461357b57858252878352848220600101546001600160a01b039081169082160361356b5783825287835260ff6006868420015460081c1661355b5796600785837f1cce6a28f1564d6cb3044145a4ccc8873cf34f87429af3289490527d7c0437e6999a89613546989796528486528383832001548061354b575b50506134de600a546133f3565b9384600a556134eb61336c565b508251956134f887612882565b858752808701958b87526003858901918a835260608a0190428252865260098452868620928a51998a8555516001850155516002840155519101558a83525220015551925193849384613402565b0390a1565b613554916148d4565b38806134d1565b8451635e003ea960e01b81528890fd5b8451633093624d60e21b81528890fd5b8451634de6470960e01b81528890fd5b845163b0ce759160e01b81528890fd5b6000805160206153d8833981519152546001600160a01b031633036135bc57565b60405163118cdaa760e01b8152336004820152602490fd5b81601f8201121561023c5780516135ea81612925565b926135f86040519485612902565b8184526020828401011161023c5761282c9160208085019101612556565b51906001600160401b038216820361023c57565b5190811515820361023c57565b9060018060a01b038083166000526005602052604060002054613bea57815115613bd85761369991600073__$18826597157b5485acfb86513cd242e4d3$__9160405180958192630fb93a7160e21b8352602060048401526024830190612579565b0381845af4928315613b7a57600093613b98575b5060ff60405160208186516136c58183858b01612556565b8101600b8152030190205416613b865760006136e26007546133f3565b80600755604051928391631d029a8d60e01b83526004830152848716602483015260a06044830152818061371960a4820189612579565b60ff8b16606483015242608483015203915af4908115613b7a576000916139e0575b5080516000526004602052604060002081518155600181018360208401511660018060a01b031982541617905560028101604083015180519060018060401b038211611c45576137958261378f8554612b4b565b856131f5565b602090601f8311600114613978576137b792916000918361396d57505061322f565b90555b60608201516003820180546001600160401b0319166001600160401b039283161790556080830151600483015560a08301518051918211611c4557600160401b8211611c4557602090600584015483600586015580841061394d575b500160058301600052602060002060005b83811061393957505050506006810160ff60c08401511681549061ff0060e0860151151560081b169161ffff19161717905561010082015160078201556008810160018060401b036101208401511660018060401b031982541617905561014082015160005b600a81106139225750505091613914917f1599aa311a61861ca44d28454c9e07d6e99428d1fcd90906d4eb6c322d7c52a29360405160208185516138d48183858a01612556565b8101600b815203019020600160ff1982541617905580518287166000526005602052604060002055519460ff604051948594604086526040860190612579565b9716602084015216940390a3565b60019060208351930192600982860101550161388d565b600190602084519401938184015501613827565b6139679060058601600052848460002091820191016131de565b38613816565b015190503880611b18565b90601f198316918460005260206000209260005b8181106139c857509084600195949392106139af575b505050811b0190556137ba565b015160001960f88460031b161c191690553880806139a2565b9293602060018192878601518155019501930161398c565b90503d806000833e6139f28183612902565b810160208282031261023c5781516001600160401b039283821161023c57019061028090818382031261023c5760405193613a2c8561282f565b835185526020840151868116810361023c576020860152604084015181811161023c5782613a5b9186016135d4565b6040860152613a6c60608501613616565b60608601526080840151608086015260a084015190811161023c57830181601f8201121561023c57805190613aa082612d18565b91613aae6040519384612902565b80835260208084019160051b8301019184831161023c57602001905b828210613b6a5750505060a085015260c083015160ff8116810361023c5760c0850152613af960e0840161362a565b60e08501526101008084015190850152610120613b17818501613616565b90850152610140918161015f8501121561023c5760405193613b38856128e6565b8491810192831161023c578301905b828210613b5a575050508201523861373b565b8151815260209182019101613b47565b8151815260209182019101613aca565b6040513d6000823e3d90fd5b604051634749bdef60e11b8152600490fd5b9092503d806000833e613bab8183612902565b810160208282031261023c5781516001600160401b03811161023c57613bd192016135d4565b91386136ad565b60405163d9f415a960e01b8152600490fd5b60405163f2d8e7a360e01b8152600490fd5b8054600160401b600160801b03191660409290921b600160401b600160801b0316919091179055565b9060038110156108a75761ff0082549160081b169061ff001916179055565b80549190600160401b831015611c45578261100191600161275095018155612c4c565b60009082825260096020526003604083200154156102d657828252600960205260026040832001548252600460205260018060a01b038060016040852001541691160361090357818152600960205260016040822001548152600460205260ff600660408320015460081c166146b057818152600960205260026040822001548152600460205260ff600660408320015460081c166146b0578181526009602052600260408220015481526004602052600760408220015461462b575b818152600960205260408120916002600184015493015493613d476006546133f3565b90816006558484526004602052613d8360018060401b036003604087200154169187865260018060401b03600360408820015416983691612940565b613d8b612dc4565b50604051613d988161289d565b85815285602082015285604082015285606082015285608082015260405192613dc08461289d565b87845260208401528560408401528560608401526080830152604051613de58161289d565b85815285602082015285604082015285606082015285608082015260405198613e0d8a61289d565b888a5260208a01528560408a01528560608a01526080890152613e2e612d6e565b50613e37612d6e565b604051613e43816128b8565b60018152600560208201528152604051613e5c816128b8565b60048152600260208201526020820152604051613e78816128b8565b60048152600860208201526040820152604051613e94816128b8565b60068152600360208201526060820152604051613eb0816128b8565b60068152600760208201526080820152604051613ecc816128b8565b600881526005602082015260a0820152613ee4612d6e565b50613eed612d6e565b98604051613efa816128b8565b600f8152600560208201528a52604051613f13816128b8565b600c81526002602082015260208b0152604051613f2f816128b8565b600c81526008602082015260408b0152604051613f4b816128b8565b600a81526002602082015260608b0152604051613f67816128b8565b600a81526008602082015260808b0152604051613f83816128b8565b600a81526005602082015260a08b015260405199613fa08b61284b565b878b528760208c01528760408c01528760608c01528760808c01528760a08c01528760c08c015260405190613fd4826128b8565b600882526005602083015260405193613fec85612882565b84526020840152604083015260016060830152604051938461014081011060018060401b0361014087011117611c455761014085016040528785528760208601528760408601528760608601528760808601528760a08601528760c08601528760e086015287610100860152876101208601526040519a61406c8c612866565b868c524260208d015260408c015260608b015260808a0152600160a08a01528560c08a015260e089015284610100890152846101208901526101408801526001610160880152610180870152825260036020526040822085518155602086015160018201556002810160408701519060ff825116815490610100600160481b03602085015160081b169160018060481b031916171790556040810151600383015560608101516004830155608081015160038110156146005760c06141599261413a60ff93600587016131c6565b61414d8360a08301511660058701613250565b01511660058301613278565b60608601518051600683015560208101516007830180546001600160401b0319166001600160401b039283161781556040830151614198921690613bfc565b606081015160018110156146005760078301805460ff60801b1916608092831b60ff60801b161790550151835b6005811061461457505060808601518051600d8301556020810151600e830180546001600160401b0319166001600160401b03928316178155604083015161420e921690613bfc565b6060810151600181101561460057600e8301805460ff60801b1916608092831b60ff60801b161790550151835b600581106145e957505060a0860151614253816126b3565b61425c816126b3565b60ff8019601484015416911617601482015560c08601516003811015614577576142899060148301613c25565b60e08601518051601583019085905b600682106145ba575050506020810151601b83019085905b6006821061458b575050506060906142e36021840160ff6020604085015182815116831985541617845501511690613250565b01516003811015614577576142fb90602283016131c6565b610100860151602382015560248101610120870151151560ff8019835416911617905561014086015180519060018060401b0382116145635761434e826143456025860154612b4b565b602586016131f5565b602090601f83116001146144f45761436f929186918361396d57505061322f565b60258201555b6026810160ff6101608801511660ff19825416179055610180860151835b600a81106144dd5750505073__$18826597157b5485acfb86513cd242e4d3$__90813b15611193578290606460405180948193636c2a23bf60e01b8352600960048401526004602484015260448301525af480156144d2576144bb575b5060056040828461444e9452600460205260068282200161ff001990610100828254161790558682526101006006848420019182541617905584815261443c8383832001885190613c44565b85815260046020522001845190613c44565b825160085490600160401b821015611c45576110018260016144739401600855612c1b565b82517f94b80033a8327ab5e699285e343e5f1027e2299b685ec5836a08f3a8faacbd59602060405160018152a4516000805160206154388339815191526020604051428152a2565b6144c582916128d3565b6144cf57386143f0565b80fd5b6040513d84823e3d90fd5b600190602083519301926027828601015501614393565b9190602584018652602086209086935b601f1984168510614548576001945083601f1981161061452f575b505050811b016025820155614375565b015160001960f88460031b161c1916905538808061451f565b81810151835560209485019460019093019290910190614504565b634e487b7160e01b85526041600452602485fd5b634e487b7160e01b84526021600452602484fd5b60016020826145ae60ff838596518281511683198b5416178a5501511687613250565b019301910190916142b0565b60016020826145dd60ff838596518281511683198b5416178a5501511687613250565b01930191019091614298565b60019060208351930192600f82860101550161423b565b634e487b7160e01b85526021600452602485fd5b6001906020835193019260088286010155016141c5565b73__$18826597157b5485acfb86513cd242e4d3$__82825260096020526002604083200154825260046020526007604083200154813b15611193578290606460405180948193636c2a23bf60e01b8352600960048401526004602484015260448301525af480156144d2576146a1575b50613d24565b6146aa906128d3565b3861469b565b604051635e003ea960e01b8152600490fd5b90600091808352600380602052604084206006810154855260049060046020526040862092600d82015487526040872092601483019360ff85541693614707856126b3565b60018095036148d0576005916006806008998a810180549060018060401b03908161473381851661512d565b166001600160401b03199384161790558c860180549092909161475781841661512d565b169116179055019161ff00199283815416905501908154169055019788549860ff8a1699600360ff1988541617875560038b10156148bc576001869798999a9b146000146148aa5750805462ffff0019166103001790555b80945b6147eb575b505050505060ff6000805160206154788339815191529260409254901c166147e1825180926125dc565b60016020820152a2565b8654808610156148a457886147ff87612c1b565b905490861b1c14614815575083809501946147b2565b94919350916000199485810190811161489157614844929161483961100192612c1b565b9054911b1c91612c1b565b845491821561487e5750509260409260ff92600080516020615478833981519152950161487361103782612c1b565b8255928194386147b7565b634e487b7160e01b825260319052602490fd5b634e487b7160e01b845260118552602484fd5b506147b7565b62ffff001916620300001790556147af565b634e487b7160e01b83526021600452602483fd5b8980fd5b91909182156102d657600092808452600960205260406003818620015415614a315781855260096020526001818620015485526004928360205260018060a01b03806001848920015416911603614a2257818552600960205260038186200154603c8101809111614a0f57421115614a0057818552600960205280852092600260018501549401549573__$18826597157b5485acfb86513cd242e4d3$__91823b156149fc5781906064855180958193636c2a23bf60e01b835260098184015260248301528860448301525af49081156149f15750917f773e15a265d8549eebc3e80bafb0e2cbeba28c5d2b2a081e31c34554c7d0507d959691613546936149e2575b505193849384613402565b6149eb906128d3565b386149d7565b8351903d90823e3d90fd5b5080fd5b516343dcbe9f60e01b81529050fd5b634e487b7160e01b865260118452602486fd5b51633093624d60e21b81529050fd5b5163b0ce759160e01b8152600490fd5b929092836000526003602052604060002090600160ff601484015416614a66816126b3565b036109335760038410156108a75783156150ec5782156150da576001841480806150cd575b6150ae57600285149081806150c0575b6150ae5715615071575060068201546000908152600460205260409020600101546001600160a01b03908116911603610903576002905b0191602d60ff8454161015614b8f57614b0290604051936378e02d7160e11b8552600485015260248401906125dc565b604482015260208160648173__$18826597157b5485acfb86513cd242e4d3$__5af4908115613b7a57600091614b55575b50614b3b5750565b6000805160206154388339815191526020604051428152a2565b90506020813d602011614b87575b81614b7060209383612902565b8101031261023c57614b819061362a565b38614b33565b3d9150614b63565b505050600090806000526003602052604060002091602d60ff600285015416106112965760068301546000526004602052614bdc6040600020600d85015460005260406000209085615145565b508160005260036020526040600020600681015460005260046020526040600020600d8201546000526040600020906032600584015460ff808260081c169160101c16908181116000146150635750505060645b6005820154158061504c575b615000575b60058301541580614fe9575b614f9d575b6007840154600e8501546001600160401b039182169116818110918215614f9657035b61046681101561023c5781614f88575b60199115614f7f57610320035b04600a6001821615614f7757600a915b60011c90815b614f2857505091614dba9391614ccc610e78610e73610e73610e73614dd6986152e6565b906014028181109182600014614f205703905b15614ec657600383018054916001600160401b039081169190614d0483858316615214565b166001600160401b0319938416179055600383018054909290916001600160401b0390614d339082851661522d565b1691161790555b6003810190614d8f82549661138880988160018060401b03821610614eb2575b50506003850180549098906001600160401b0381168211614e9e5750508354610f44906001600160401b031660078301613bfc565b5490546040516000805160206153988339815191529586928291906001600160401b03168b83615246565b0390a25492546040519182916001600160401b03168783615246565b0390a2805b60085480821015614e7f5783614df083612c1b565b90549060031b1c14614e055750600101614ddb565b92939192600019919082810190811161109a5790611001610ff4614e2893612c1b565b6008548015611086576014604093600080516020615478833981519152959360ff9301614e5761103782612c1b565b6008555b015460081c1690614e6e835180936125dc565b614e77816131bc565b6020820152a2565b505060409060ff60146000805160206154788339815191529495614e5b565b6001600160401b0319161788553880610f2a565b6001600160401b0319161784558738614d5a565b600382018054916001600160401b039081169190614ee683858316615214565b166001600160401b0319938416179055600384018054909290916001600160401b0390614f159082851661522d565b169116179055614d3a565b900390614cdf565b8060801c614f735780029087614f73578160018216614f4d575b5060011c9081614ca8565b9092809850818082020403614f68575b600097029138614f42565b8015614f5d57600080fd5b8780fd5b600191614ca2565b61032001614c92565b6103208110614c8557600080fd5b9003614c75565b6003830180546127106001600160401b03199182168117909255600e860180549092919060646001600160401b03821614614fdc575b50505050614c52565b1617905538808080614fd3565b5060038301546001600160401b0316606414614c4d565b6003820180546127106001600160401b031991821681179092556007860180549092919060646001600160401b0382161461503f575b50505050614c41565b1617905538808080615036565b5060038201546001600160401b0316606414614c3c565b1015614c3057506000614c30565b61507f575b50600290614ad2565b600d8201546000908152600460205260409020600101546001600160a01b039081169116036109035738615076565b604051635ce6d95760e11b8152600490fd5b5060048401541515614a9b565b5060038301541515614a8b565b604051635101966360e01b8152600490fd5b604051636f6fc75f60e11b8152600490fd5b60ff6000805160206154588339815191525460401c161561511b57565b604051631afcd79f60e31b8152600490fd5b6001600160401b039081169081146108cf5760010190565b6014810192600160ff85541661515a816126b3565b0361023c576008830180546005946006928392906001600160401b03908161518381851661512d565b166001600160401b0319938416179055600886018054909290916151a881841661512d565b169116179055019161ff00199283815416905501908154169055015460ff808260081c169160101c16908181116000146151f657505061282c600180925b805460ff19166002178155613c25565b10156152085761282c600280926151e6565b61282c600080926151e6565b6001600160401b0391821690821601919082116108cf57565b6001600160401b0391821690821603919082116108cf57565b9081526001600160401b03909116602082015260400190565b801561526d5762030d400490565b634e487b7160e01b600052601260045260246000fd5b906152aa575080511561529857602081519101fd5b60405163d6bda27560e01b8152600490fd5b815115806152dd575b6152bb575090565b604051639996b31560e01b81526001600160a01b039091166004820152602490fd5b50803b156152b3565b60b581600160881b811015615385575b6201000090600160481b811015615378575b600160281b81101561536b575b630100000081101561535e575b010260121c60019080830401811c80830401811c80830401811c80830401811c80830401811c80830401811c80830401901c8080920410900390565b60101c9160081b91615322565b60201c9160101b91615315565b60401c9160201b91615308565b5060b560401b9050608082901c6152f656fecbbcee95272cfb3753df326bdc92854d09463c4834c094a042f4066cc803b9b5579c31d7f947df31adb29f8688c651ffa98030b83bb0d87632c86357f13afafd9016d09d72d40fdae2fd8ceac6b6234c7706214fd39c1cd1e609a0528c199300360894a13ba1a3210667c828492db98dca3e2076cc3735a920a3ca505d382bbc8be0079c531659141344cd1fd0a4f28419497f9722a3daafe3b4186f6b6457e0d6ad8b09cb4bf385f0569c05c242d45e491f752df651aae6a2db9ff589bd9faef0c57e16840df040f15088dc2f81fe391c3923bec73e23a9662efc9c229c6a004019f194fe4a757f9f1441d256eeb40c3f12e80f9da6188b5ad1a5fcda7217d740f6909351d16bebd2bb97c72ea15dc2508f321a25ba4ff1df4c330cced53820a264697066735822122005bc0f5a199e390c7b40ea6c1de3b0fa32447f8faed2e1c060ea702fe519e69b64736f6c63430008180033",
  "linkReferences": {
    "contracts/GameLib.sol": {
      "GameLib": [
        {
          "length": 20,
          "start": 14138
        },
        {
          "length": 20,
          "start": 17527
        },
        {
          "length": 20,
          "start": 18180
        },
        {
          "length": 20,
          "start": 18998
        },
        {
          "length": 20,
          "start": 19430
        }
      ]
    }
  },
  "deployedLinkReferences": {
    "contracts/GameLib.sol": {
      "GameLib": [
        {
          "length": 20,
          "start": 13923
        },
        {
          "length": 20,
          "start": 17312
        },
        {
          "length": 20,
          "start": 17965
        },
        {
          "length": 20,
          "start": 18783
        },
        {
          "length": 20,
          "start": 19215
        }
      ]
    }
  }
}