{
  "_format": "hh-sol-artifact-1",
  "contractName": "ChessBallGame",
  "sourceName": "contracts/Game.sol",
  "abi": [
    {
      "inputs": [],
      "stateMutability": "nonpayable",
      "type": "constructor"
    },
    {
      "inputs": [],
      "name": "ActionsNotCommitted",
      "type": "error"
    },
    {
      "inputs": [
        {
          "internalType": "address",
          "name": "target",
          "type": "address"
        }
      ],
      "name": "AddressEmptyCode",
      "type": "error"
    },
    {
      "inputs": [],
      "name": "CreateTeam_NameIsRequired",
      "type": "error"
    },
    {
      "inputs": [],
      "name": "CreateTeam_TeamAlreadyExists",
      "type": "error"
    },
    {
      "inputs": [],
      "name": "CreateTeam_TeamNameAlreadyExists",
      "type": "error"
    },
    {
      "inputs": [],
      "name": "DoesNotExist",
      "type": "error"
    },
    {
      "inputs": [
        {
          "internalType": "address",
          "name": "implementation",
          "type": "address"
        }
      ],
      "name": "ERC1967InvalidImplementation",
      "type": "error"
    },
    {
      "inputs": [],
      "name": "ERC1967NonPayable",
      "type": "error"
    },
    {
      "inputs": [],
      "name": "FailedCall",
      "type": "error"
    },
    {
      "inputs": [],
      "name": "FinishGameByTimeout_NoLastMove",
      "type": "error"
    },
    {
      "inputs": [],
      "name": "GameHasNotReachedMaxMoves",
      "type": "error"
    },
    {
      "inputs": [],
      "name": "GameIsNotActive",
      "type": "error"
    },
    {
      "inputs": [],
      "name": "GameOwnerShouldCall",
      "type": "error"
    },
    {
      "inputs": [],
      "name": "GameRequestNotExpired",
      "type": "error"
    },
    {
      "inputs": [],
      "name": "GameRequestTimeoutNotReached",
      "type": "error"
    },
    {
      "inputs": [],
      "name": "InitAddressCannotBeZero",
      "type": "error"
    },
    {
      "inputs": [],
      "name": "InvalidInitialization",
      "type": "error"
    },
    {
      "inputs": [],
      "name": "InvalidTeam",
      "type": "error"
    },
    {
      "inputs": [],
      "name": "MovesAlreadyCommitted",
      "type": "error"
    },
    {
      "inputs": [],
      "name": "MovesEncryptedCannotBeZero",
      "type": "error"
    },
    {
      "inputs": [],
      "name": "NotInitializing",
      "type": "error"
    },
    {
      "inputs": [],
      "name": "OnlyGameEngineServerCanCall",
      "type": "error"
    },
    {
      "inputs": [],
      "name": "OnlyRelayerCanCall",
      "type": "error"
    },
    {
      "inputs": [
        {
          "internalType": "address",
          "name": "owner",
          "type": "address"
        }
      ],
      "name": "OwnableInvalidOwner",
      "type": "error"
    },
    {
      "inputs": [
        {
          "internalType": "address",
          "name": "account",
          "type": "address"
        }
      ],
      "name": "OwnableUnauthorizedAccount",
      "type": "error"
    },
    {
      "inputs": [],
      "name": "TeamAlreadyHasActiveGame",
      "type": "error"
    },
    {
      "inputs": [],
      "name": "TeamsCannotBeSame",
      "type": "error"
    },
    {
      "inputs": [],
      "name": "UUPSUnauthorizedCallContext",
      "type": "error"
    },
    {
      "inputs": [
        {
          "internalType": "bytes32",
          "name": "slot",
          "type": "bytes32"
        }
      ],
      "name": "UUPSUnsupportedProxiableUUID",
      "type": "error"
    },
    {
      "anonymous": false,
      "inputs": [
        {
          "indexed": true,
          "internalType": "uint256",
          "name": "teamId",
          "type": "uint256"
        },
        {
          "indexed": false,
          "internalType": "uint256",
          "name": "gameId",
          "type": "uint256"
        },
        {
          "indexed": false,
          "internalType": "uint64",
          "name": "eloRating",
          "type": "uint64"
        }
      ],
      "name": "EloUpdated",
      "type": "event"
    },
    {
      "anonymous": false,
      "inputs": [
        {
          "indexed": true,
          "internalType": "uint256",
          "name": "gameId",
          "type": "uint256"
        },
        {
          "indexed": false,
          "internalType": "enum GameLib.TeamEnum",
          "name": "winner",
          "type": "uint8"
        },
        {
          "indexed": false,
          "internalType": "enum GameLib.FinishReason",
          "name": "finishReason",
          "type": "uint8"
        }
      ],
      "name": "GameFinished",
      "type": "event"
    },
    {
      "anonymous": false,
      "inputs": [
        {
          "indexed": false,
          "internalType": "uint256",
          "name": "gameRequestId",
          "type": "uint256"
        },
        {
          "indexed": false,
          "internalType": "uint256",
          "name": "team1id",
          "type": "uint256"
        },
        {
          "indexed": false,
          "internalType": "uint256",
          "name": "team2id",
          "type": "uint256"
        }
      ],
      "name": "GameRequestCancelled",
      "type": "event"
    },
    {
      "anonymous": false,
      "inputs": [
        {
          "indexed": false,
          "internalType": "uint256",
          "name": "gameRequestId",
          "type": "uint256"
        },
        {
          "indexed": false,
          "internalType": "uint256",
          "name": "team1id",
          "type": "uint256"
        },
        {
          "indexed": false,
          "internalType": "uint256",
          "name": "team2id",
          "type": "uint256"
        }
      ],
      "name": "GameRequestCreated",
      "type": "event"
    },
    {
      "anonymous": false,
      "inputs": [
        {
          "indexed": true,
          "internalType": "uint256",
          "name": "gameId",
          "type": "uint256"
        },
        {
          "indexed": true,
          "internalType": "uint256",
          "name": "team1id",
          "type": "uint256"
        },
        {
          "indexed": true,
          "internalType": "uint256",
          "name": "team2id",
          "type": "uint256"
        },
        {
          "indexed": false,
          "internalType": "enum GameLib.TeamEnum",
          "name": "teamWithBall",
          "type": "uint8"
        }
      ],
      "name": "GameStarted",
      "type": "event"
    },
    {
      "anonymous": false,
      "inputs": [
        {
          "indexed": true,
          "internalType": "uint256",
          "name": "gameId",
          "type": "uint256"
        },
        {
          "indexed": false,
          "internalType": "enum GameLib.TeamEnum",
          "name": "cauzedByTeam",
          "type": "uint8"
        },
        {
          "indexed": false,
          "internalType": "enum ChessBallGame.ErrorType",
          "name": "errorType",
          "type": "uint8"
        },
        {
          "indexed": false,
          "internalType": "uint256",
          "name": "time",
          "type": "uint256"
        },
        {
          "indexed": false,
          "internalType": "string",
          "name": "errorMsg",
          "type": "string"
        }
      ],
      "name": "GameStateError",
      "type": "event"
    },
    {
      "anonymous": false,
      "inputs": [
        {
          "indexed": true,
          "internalType": "uint256",
          "name": "gameId",
          "type": "uint256"
        },
        {
          "indexed": false,
          "internalType": "enum GameLib.TeamEnum",
          "name": "scoringTeam",
          "type": "uint8"
        }
      ],
      "name": "GoalScored",
      "type": "event"
    },
    {
      "anonymous": false,
      "inputs": [
        {
          "indexed": false,
          "internalType": "uint64",
          "name": "version",
          "type": "uint64"
        }
      ],
      "name": "Initialized",
      "type": "event"
    },
    {
      "anonymous": false,
      "inputs": [
        {
          "indexed": true,
          "internalType": "uint256",
          "name": "gameId",
          "type": "uint256"
        },
        {
          "indexed": false,
          "internalType": "enum GameLib.StateType",
          "name": "stateType",
          "type": "uint8"
        },
        {
          "indexed": false,
          "internalType": "uint256",
          "name": "time",
          "type": "uint256"
        },
        {
          "indexed": false,
          "internalType": "uint8[]",
          "name": "clashRandomNumbers",
          "type": "uint8[]"
        },
        {
          "components": [
            {
              "internalType": "uint256",
              "name": "playerId",
              "type": "uint256"
            },
            {
              "internalType": "enum GameLib.MoveType",
              "name": "moveType",
              "type": "uint8"
            },
            {
              "components": [
                {
                  "internalType": "uint8",
                  "name": "x",
                  "type": "uint8"
                },
                {
                  "internalType": "uint8",
                  "name": "y",
                  "type": "uint8"
                }
              ],
              "internalType": "struct GameLib.Position",
              "name": "oldPosition",
              "type": "tuple"
            },
            {
              "components": [
                {
                  "internalType": "uint8",
                  "name": "x",
                  "type": "uint8"
                },
                {
                  "internalType": "uint8",
                  "name": "y",
                  "type": "uint8"
                }
              ],
              "internalType": "struct GameLib.Position",
              "name": "newPosition",
              "type": "tuple"
            }
          ],
          "indexed": false,
          "internalType": "struct GameLib.GameAction[]",
          "name": "team1Actions",
          "type": "tuple[]"
        },
        {
          "components": [
            {
              "internalType": "uint256",
              "name": "playerId",
              "type": "uint256"
            },
            {
              "internalType": "enum GameLib.MoveType",
              "name": "moveType",
              "type": "uint8"
            },
            {
              "components": [
                {
                  "internalType": "uint8",
                  "name": "x",
                  "type": "uint8"
                },
                {
                  "internalType": "uint8",
                  "name": "y",
                  "type": "uint8"
                }
              ],
              "internalType": "struct GameLib.Position",
              "name": "oldPosition",
              "type": "tuple"
            },
            {
              "components": [
                {
                  "internalType": "uint8",
                  "name": "x",
                  "type": "uint8"
                },
                {
                  "internalType": "uint8",
                  "name": "y",
                  "type": "uint8"
                }
              ],
              "internalType": "struct GameLib.Position",
              "name": "newPosition",
              "type": "tuple"
            }
          ],
          "indexed": false,
          "internalType": "struct GameLib.GameAction[]",
          "name": "team2Actions",
          "type": "tuple[]"
        },
        {
          "components": [
            {
              "components": [
                {
                  "internalType": "uint8",
                  "name": "x",
                  "type": "uint8"
                },
                {
                  "internalType": "uint8",
                  "name": "y",
                  "type": "uint8"
                }
              ],
              "internalType": "struct GameLib.Position[6]",
              "name": "team1PlayerPositions",
              "type": "tuple[6]"
            },
            {
              "components": [
                {
                  "internalType": "uint8",
                  "name": "x",
                  "type": "uint8"
                },
                {
                  "internalType": "uint8",
                  "name": "y",
                  "type": "uint8"
                }
              ],
              "internalType": "struct GameLib.Position[6]",
              "name": "team2PlayerPositions",
              "type": "tuple[6]"
            },
            {
              "components": [
                {
                  "internalType": "uint8",
                  "name": "x",
                  "type": "uint8"
                },
                {
                  "internalType": "uint8",
                  "name": "y",
                  "type": "uint8"
                }
              ],
              "internalType": "struct GameLib.Position",
              "name": "ballPosition",
              "type": "tuple"
            },
            {
              "internalType": "enum GameLib.TeamEnum",
              "name": "ballOwner",
              "type": "uint8"
            }
          ],
          "indexed": false,
          "internalType": "struct GameLib.BoardState",
          "name": "boardState",
          "type": "tuple"
        }
      ],
      "name": "NewGameState",
      "type": "event"
    },
    {
      "anonymous": false,
      "inputs": [
        {
          "indexed": true,
          "internalType": "address",
          "name": "previousOwner",
          "type": "address"
        },
        {
          "indexed": true,
          "internalType": "address",
          "name": "newOwner",
          "type": "address"
        }
      ],
      "name": "OwnershipTransferred",
      "type": "event"
    },
    {
      "anonymous": false,
      "inputs": [
        {
          "indexed": true,
          "internalType": "uint256",
          "name": "teamId",
          "type": "uint256"
        },
        {
          "indexed": true,
          "internalType": "address",
          "name": "owner",
          "type": "address"
        },
        {
          "indexed": false,
          "internalType": "string",
          "name": "name",
          "type": "string"
        },
        {
          "indexed": false,
          "internalType": "uint8",
          "name": "country",
          "type": "uint8"
        }
      ],
      "name": "TeamCreated",
      "type": "event"
    },
    {
      "anonymous": false,
      "inputs": [
        {
          "indexed": true,
          "internalType": "address",
          "name": "implementation",
          "type": "address"
        }
      ],
      "name": "Upgraded",
      "type": "event"
    },
    {
      "anonymous": false,
      "inputs": [
        {
          "indexed": true,
          "internalType": "uint256",
          "name": "gameId",
          "type": "uint256"
        },
        {
          "indexed": false,
          "internalType": "uint256",
          "name": "timestamp",
          "type": "uint256"
        }
      ],
      "name": "gameActionCommitted",
      "type": "event"
    },
    {
      "inputs": [],
      "name": "UPGRADE_INTERFACE_VERSION",
      "outputs": [
        {
          "internalType": "string",
          "name": "",
          "type": "string"
        }
      ],
      "stateMutability": "view",
      "type": "function"
    },
    {
      "inputs": [
        {
          "internalType": "uint256",
          "name": "",
          "type": "uint256"
        }
      ],
      "name": "activeGames",
      "outputs": [
        {
          "internalType": "uint256",
          "name": "",
          "type": "uint256"
        }
      ],
      "stateMutability": "view",
      "type": "function"
    },
    {
      "inputs": [
        {
          "internalType": "uint256",
          "name": "gameRequestId",
          "type": "uint256"
        }
      ],
      "name": "cancelGameRequest",
      "outputs": [],
      "stateMutability": "nonpayable",
      "type": "function"
    },
    {
      "inputs": [
        {
          "internalType": "address",
          "name": "sender",
          "type": "address"
        },
        {
          "internalType": "uint256",
          "name": "gameRequestId",
          "type": "uint256"
        }
      ],
      "name": "cancelGameRequestRelayer",
      "outputs": [],
      "stateMutability": "nonpayable",
      "type": "function"
    },
    {
      "inputs": [
        {
          "internalType": "address",
          "name": "sender",
          "type": "address"
        },
        {
          "internalType": "uint256",
          "name": "gameId",
          "type": "uint256"
        },
        {
          "internalType": "enum GameLib.TeamEnum",
          "name": "team",
          "type": "uint8"
        },
        {
          "internalType": "bytes32",
          "name": "movesEncrypted",
          "type": "bytes32"
        }
      ],
      "name": "commitGameActionsRelayer",
      "outputs": [],
      "stateMutability": "nonpayable",
      "type": "function"
    },
    {
      "inputs": [
        {
          "internalType": "uint256",
          "name": "team1id",
          "type": "uint256"
        },
        {
          "internalType": "uint256",
          "name": "team2id",
          "type": "uint256"
        }
      ],
      "name": "createGameRequest",
      "outputs": [],
      "stateMutability": "nonpayable",
      "type": "function"
    },
    {
      "inputs": [
        {
          "internalType": "address",
          "name": "sender",
          "type": "address"
        },
        {
          "internalType": "uint256",
          "name": "team1id",
          "type": "uint256"
        },
        {
          "internalType": "uint256",
          "name": "team2id",
          "type": "uint256"
        }
      ],
      "name": "createGameRequestRelayer",
      "outputs": [],
      "stateMutability": "nonpayable",
      "type": "function"
    },
    {
      "inputs": [
        {
          "internalType": "string",
          "name": "name",
          "type": "string"
        },
        {
          "internalType": "uint8",
          "name": "country",
          "type": "uint8"
        }
      ],
      "name": "createTeam",
      "outputs": [],
      "stateMutability": "nonpayable",
      "type": "function"
    },
    {
      "inputs": [
        {
          "internalType": "address",
          "name": "sender",
          "type": "address"
        },
        {
          "internalType": "string",
          "name": "name",
          "type": "string"
        },
        {
          "internalType": "uint8",
          "name": "country",
          "type": "uint8"
        }
      ],
      "name": "createTeamRelayer",
      "outputs": [],
      "stateMutability": "nonpayable",
      "type": "function"
    },
    {
      "inputs": [
        {
          "internalType": "uint256",
          "name": "gameId",
          "type": "uint256"
        }
      ],
      "name": "finishGameByTimeout",
      "outputs": [],
      "stateMutability": "nonpayable",
      "type": "function"
    },
    {
      "inputs": [
        {
          "internalType": "address",
          "name": "sender",
          "type": "address"
        },
        {
          "internalType": "uint256",
          "name": "gameId",
          "type": "uint256"
        }
      ],
      "name": "finishGameByTimeoutRelayer",
      "outputs": [],
      "stateMutability": "nonpayable",
      "type": "function"
    },
    {
      "inputs": [],
      "name": "gameEngineServerAddress",
      "outputs": [
        {
          "internalType": "address",
          "name": "",
          "type": "address"
        }
      ],
      "stateMutability": "view",
      "type": "function"
    },
    {
      "inputs": [],
      "name": "gamePublicKey",
      "outputs": [
        {
          "internalType": "string",
          "name": "",
          "type": "string"
        }
      ],
      "stateMutability": "view",
      "type": "function"
    },
    {
      "inputs": [],
      "name": "gameRequestIndex",
      "outputs": [
        {
          "internalType": "uint256",
          "name": "",
          "type": "uint256"
        }
      ],
      "stateMutability": "view",
      "type": "function"
    },
    {
      "inputs": [
        {
          "internalType": "uint256",
          "name": "",
          "type": "uint256"
        }
      ],
      "name": "gameRequests",
      "outputs": [
        {
          "internalType": "uint256",
          "name": "gameRequestId",
          "type": "uint256"
        },
        {
          "internalType": "uint256",
          "name": "team1id",
          "type": "uint256"
        },
        {
          "internalType": "uint256",
          "name": "team2id",
          "type": "uint256"
        },
        {
          "internalType": "uint256",
          "name": "createdAt",
          "type": "uint256"
        }
      ],
      "stateMutability": "view",
      "type": "function"
    },
    {
      "inputs": [
        {
          "internalType": "uint256",
          "name": "",
          "type": "uint256"
        }
      ],
      "name": "games",
      "outputs": [
        {
          "internalType": "uint256",
          "name": "gameId",
          "type": "uint256"
        },
        {
          "internalType": "uint256",
          "name": "createdAt",
          "type": "uint256"
        },
        {
          "components": [
            {
              "internalType": "uint8",
              "name": "movesMade",
              "type": "uint8"
            },
            {
              "internalType": "uint64",
              "name": "lastMoveAt",
              "type": "uint64"
            },
            {
              "internalType": "bytes32",
              "name": "team1MovesEncrypted",
              "type": "bytes32"
            },
            {
              "internalType": "bytes32",
              "name": "team2MovesEncrypted",
              "type": "bytes32"
            },
            {
              "internalType": "enum GameLib.TeamEnum",
              "name": "lastMoveTeam",
              "type": "uint8"
            },
            {
              "internalType": "uint8",
              "name": "team1score",
              "type": "uint8"
            },
            {
              "internalType": "uint8",
              "name": "team2score",
              "type": "uint8"
            }
          ],
          "internalType": "struct GameLib.GameState",
          "name": "gameState",
          "type": "tuple"
        },
        {
          "components": [
            {
              "internalType": "uint256",
              "name": "teamId",
              "type": "uint256"
            },
            {
              "internalType": "uint64",
              "name": "eloRating",
              "type": "uint64"
            },
            {
              "internalType": "uint64",
              "name": "eloRatingNew",
              "type": "uint64"
            },
            {
              "internalType": "enum GameLib.TeamFormation",
              "name": "formation",
              "type": "uint8"
            },
            {
              "internalType": "uint256[5]",
              "name": "__gap",
              "type": "uint256[5]"
            }
          ],
          "internalType": "struct GameLib.TeamInfo",
          "name": "team1",
          "type": "tuple"
        },
        {
          "components": [
            {
              "internalType": "uint256",
              "name": "teamId",
              "type": "uint256"
            },
            {
              "internalType": "uint64",
              "name": "eloRating",
              "type": "uint64"
            },
            {
              "internalType": "uint64",
              "name": "eloRatingNew",
              "type": "uint64"
            },
            {
              "internalType": "enum GameLib.TeamFormation",
              "name": "formation",
              "type": "uint8"
            },
            {
              "internalType": "uint256[5]",
              "name": "__gap",
              "type": "uint256[5]"
            }
          ],
          "internalType": "struct GameLib.TeamInfo",
          "name": "team2",
          "type": "tuple"
        },
        {
          "internalType": "enum GameLib.GameStatus",
          "name": "status",
          "type": "uint8"
        },
        {
          "internalType": "enum GameLib.TeamEnum",
          "name": "winner",
          "type": "uint8"
        },
        {
          "components": [
            {
              "components": [
                {
                  "internalType": "uint8",
                  "name": "x",
                  "type": "uint8"
                },
                {
                  "internalType": "uint8",
                  "name": "y",
                  "type": "uint8"
                }
              ],
              "internalType": "struct GameLib.Position[6]",
              "name": "team1PlayerPositions",
              "type": "tuple[6]"
            },
            {
              "components": [
                {
                  "internalType": "uint8",
                  "name": "x",
                  "type": "uint8"
                },
                {
                  "internalType": "uint8",
                  "name": "y",
                  "type": "uint8"
                }
              ],
              "internalType": "struct GameLib.Position[6]",
              "name": "team2PlayerPositions",
              "type": "tuple[6]"
            },
            {
              "components": [
                {
                  "internalType": "uint8",
                  "name": "x",
                  "type": "uint8"
                },
                {
                  "internalType": "uint8",
                  "name": "y",
                  "type": "uint8"
                }
              ],
              "internalType": "struct GameLib.Position",
              "name": "ballPosition",
              "type": "tuple"
            },
            {
              "internalType": "enum GameLib.TeamEnum",
              "name": "ballOwner",
              "type": "uint8"
            }
          ],
          "internalType": "struct GameLib.BoardState",
          "name": "lastBoardState",
          "type": "tuple"
        },
        {
          "internalType": "bytes32",
          "name": "historyIPFS",
          "type": "bytes32"
        },
        {
          "internalType": "bool",
          "name": "isVerified",
          "type": "bool"
        },
        {
          "internalType": "bytes",
          "name": "encryptedKey",
          "type": "bytes"
        },
        {
          "internalType": "uint8",
          "name": "gameEngineVersion",
          "type": "uint8"
        }
      ],
      "stateMutability": "view",
      "type": "function"
    },
    {
      "inputs": [],
      "name": "gelatoAddress",
      "outputs": [
        {
          "internalType": "address",
          "name": "",
          "type": "address"
        }
      ],
      "stateMutability": "view",
      "type": "function"
    },
    {
      "inputs": [],
      "name": "getActiveGameCount",
      "outputs": [
        {
          "internalType": "uint256",
          "name": "",
          "type": "uint256"
        }
      ],
      "stateMutability": "view",
      "type": "function"
    },
    {
      "inputs": [],
      "name": "getActiveGames",
      "outputs": [
        {
          "internalType": "uint256[]",
          "name": "",
          "type": "uint256[]"
        }
      ],
      "stateMutability": "view",
      "type": "function"
    },
    {
      "inputs": [
        {
          "internalType": "uint256",
          "name": "gameId",
          "type": "uint256"
        }
      ],
      "name": "getGame",
      "outputs": [
        {
          "components": [
            {
              "internalType": "uint256",
              "name": "gameId",
              "type": "uint256"
            },
            {
              "internalType": "uint256",
              "name": "createdAt",
              "type": "uint256"
            },
            {
              "components": [
                {
                  "internalType": "uint8",
                  "name": "movesMade",
                  "type": "uint8"
                },
                {
                  "internalType": "uint64",
                  "name": "lastMoveAt",
                  "type": "uint64"
                },
                {
                  "internalType": "bytes32",
                  "name": "team1MovesEncrypted",
                  "type": "bytes32"
                },
                {
                  "internalType": "bytes32",
                  "name": "team2MovesEncrypted",
                  "type": "bytes32"
                },
                {
                  "internalType": "enum GameLib.TeamEnum",
                  "name": "lastMoveTeam",
                  "type": "uint8"
                },
                {
                  "internalType": "uint8",
                  "name": "team1score",
                  "type": "uint8"
                },
                {
                  "internalType": "uint8",
                  "name": "team2score",
                  "type": "uint8"
                }
              ],
              "internalType": "struct GameLib.GameState",
              "name": "gameState",
              "type": "tuple"
            },
            {
              "components": [
                {
                  "internalType": "uint256",
                  "name": "teamId",
                  "type": "uint256"
                },
                {
                  "internalType": "uint64",
                  "name": "eloRating",
                  "type": "uint64"
                },
                {
                  "internalType": "uint64",
                  "name": "eloRatingNew",
                  "type": "uint64"
                },
                {
                  "internalType": "enum GameLib.TeamFormation",
                  "name": "formation",
                  "type": "uint8"
                },
                {
                  "internalType": "uint256[5]",
                  "name": "__gap",
                  "type": "uint256[5]"
                }
              ],
              "internalType": "struct GameLib.TeamInfo",
              "name": "team1",
              "type": "tuple"
            },
            {
              "components": [
                {
                  "internalType": "uint256",
                  "name": "teamId",
                  "type": "uint256"
                },
                {
                  "internalType": "uint64",
                  "name": "eloRating",
                  "type": "uint64"
                },
                {
                  "internalType": "uint64",
                  "name": "eloRatingNew",
                  "type": "uint64"
                },
                {
                  "internalType": "enum GameLib.TeamFormation",
                  "name": "formation",
                  "type": "uint8"
                },
                {
                  "internalType": "uint256[5]",
                  "name": "__gap",
                  "type": "uint256[5]"
                }
              ],
              "internalType": "struct GameLib.TeamInfo",
              "name": "team2",
              "type": "tuple"
            },
            {
              "internalType": "enum GameLib.GameStatus",
              "name": "status",
              "type": "uint8"
            },
            {
              "internalType": "enum GameLib.TeamEnum",
              "name": "winner",
              "type": "uint8"
            },
            {
              "components": [
                {
                  "components": [
                    {
                      "internalType": "uint8",
                      "name": "x",
                      "type": "uint8"
                    },
                    {
                      "internalType": "uint8",
                      "name": "y",
                      "type": "uint8"
                    }
                  ],
                  "internalType": "struct GameLib.Position[6]",
                  "name": "team1PlayerPositions",
                  "type": "tuple[6]"
                },
                {
                  "components": [
                    {
                      "internalType": "uint8",
                      "name": "x",
                      "type": "uint8"
                    },
                    {
                      "internalType": "uint8",
                      "name": "y",
                      "type": "uint8"
                    }
                  ],
                  "internalType": "struct GameLib.Position[6]",
                  "name": "team2PlayerPositions",
                  "type": "tuple[6]"
                },
                {
                  "components": [
                    {
                      "internalType": "uint8",
                      "name": "x",
                      "type": "uint8"
                    },
                    {
                      "internalType": "uint8",
                      "name": "y",
                      "type": "uint8"
                    }
                  ],
                  "internalType": "struct GameLib.Position",
                  "name": "ballPosition",
                  "type": "tuple"
                },
                {
                  "internalType": "enum GameLib.TeamEnum",
                  "name": "ballOwner",
                  "type": "uint8"
                }
              ],
              "internalType": "struct GameLib.BoardState",
              "name": "lastBoardState",
              "type": "tuple"
            },
            {
              "internalType": "bytes32",
              "name": "historyIPFS",
              "type": "bytes32"
            },
            {
              "internalType": "bool",
              "name": "isVerified",
              "type": "bool"
            },
            {
              "internalType": "bytes",
              "name": "encryptedKey",
              "type": "bytes"
            },
            {
              "internalType": "uint8",
              "name": "gameEngineVersion",
              "type": "uint8"
            },
            {
              "internalType": "uint256[10]",
              "name": "__gap",
              "type": "uint256[10]"
            }
          ],
          "internalType": "struct GameLib.Game",
          "name": "",
          "type": "tuple"
        }
      ],
      "stateMutability": "view",
      "type": "function"
    },
    {
      "inputs": [
        {
          "internalType": "uint256",
          "name": "requestId",
          "type": "uint256"
        }
      ],
      "name": "getGameRequest",
      "outputs": [
        {
          "components": [
            {
              "internalType": "uint256",
              "name": "gameRequestId",
              "type": "uint256"
            },
            {
              "internalType": "uint256",
              "name": "team1id",
              "type": "uint256"
            },
            {
              "internalType": "uint256",
              "name": "team2id",
              "type": "uint256"
            },
            {
              "internalType": "uint256",
              "name": "createdAt",
              "type": "uint256"
            }
          ],
          "internalType": "struct GameLib.GameRequest",
          "name": "",
          "type": "tuple"
        }
      ],
      "stateMutability": "view",
      "type": "function"
    },
    {
      "inputs": [
        {
          "internalType": "uint256",
          "name": "gameId",
          "type": "uint256"
        }
      ],
      "name": "getGameStatus",
      "outputs": [
        {
          "internalType": "enum GameLib.GameStatus",
          "name": "",
          "type": "uint8"
        }
      ],
      "stateMutability": "view",
      "type": "function"
    },
    {
      "inputs": [
        {
          "internalType": "uint256",
          "name": "teamId",
          "type": "uint256"
        },
        {
          "internalType": "uint256",
          "name": "n",
          "type": "uint256"
        }
      ],
      "name": "getLastNGames",
      "outputs": [
        {
          "components": [
            {
              "internalType": "uint256",
              "name": "gameId",
              "type": "uint256"
            },
            {
              "internalType": "uint256",
              "name": "createdAt",
              "type": "uint256"
            },
            {
              "components": [
                {
                  "internalType": "uint8",
                  "name": "movesMade",
                  "type": "uint8"
                },
                {
                  "internalType": "uint64",
                  "name": "lastMoveAt",
                  "type": "uint64"
                },
                {
                  "internalType": "bytes32",
                  "name": "team1MovesEncrypted",
                  "type": "bytes32"
                },
                {
                  "internalType": "bytes32",
                  "name": "team2MovesEncrypted",
                  "type": "bytes32"
                },
                {
                  "internalType": "enum GameLib.TeamEnum",
                  "name": "lastMoveTeam",
                  "type": "uint8"
                },
                {
                  "internalType": "uint8",
                  "name": "team1score",
                  "type": "uint8"
                },
                {
                  "internalType": "uint8",
                  "name": "team2score",
                  "type": "uint8"
                }
              ],
              "internalType": "struct GameLib.GameState",
              "name": "gameState",
              "type": "tuple"
            },
            {
              "components": [
                {
                  "internalType": "uint256",
                  "name": "teamId",
                  "type": "uint256"
                },
                {
                  "internalType": "uint64",
                  "name": "eloRating",
                  "type": "uint64"
                },
                {
                  "internalType": "uint64",
                  "name": "eloRatingNew",
                  "type": "uint64"
                },
                {
                  "internalType": "enum GameLib.TeamFormation",
                  "name": "formation",
                  "type": "uint8"
                },
                {
                  "internalType": "uint256[5]",
                  "name": "__gap",
                  "type": "uint256[5]"
                }
              ],
              "internalType": "struct GameLib.TeamInfo",
              "name": "team1",
              "type": "tuple"
            },
            {
              "components": [
                {
                  "internalType": "uint256",
                  "name": "teamId",
                  "type": "uint256"
                },
                {
                  "internalType": "uint64",
                  "name": "eloRating",
                  "type": "uint64"
                },
                {
                  "internalType": "uint64",
                  "name": "eloRatingNew",
                  "type": "uint64"
                },
                {
                  "internalType": "enum GameLib.TeamFormation",
                  "name": "formation",
                  "type": "uint8"
                },
                {
                  "internalType": "uint256[5]",
                  "name": "__gap",
                  "type": "uint256[5]"
                }
              ],
              "internalType": "struct GameLib.TeamInfo",
              "name": "team2",
              "type": "tuple"
            },
            {
              "internalType": "enum GameLib.GameStatus",
              "name": "status",
              "type": "uint8"
            },
            {
              "internalType": "enum GameLib.TeamEnum",
              "name": "winner",
              "type": "uint8"
            },
            {
              "components": [
                {
                  "components": [
                    {
                      "internalType": "uint8",
                      "name": "x",
                      "type": "uint8"
                    },
                    {
                      "internalType": "uint8",
                      "name": "y",
                      "type": "uint8"
                    }
                  ],
                  "internalType": "struct GameLib.Position[6]",
                  "name": "team1PlayerPositions",
                  "type": "tuple[6]"
                },
                {
                  "components": [
                    {
                      "internalType": "uint8",
                      "name": "x",
                      "type": "uint8"
                    },
                    {
                      "internalType": "uint8",
                      "name": "y",
                      "type": "uint8"
                    }
                  ],
                  "internalType": "struct GameLib.Position[6]",
                  "name": "team2PlayerPositions",
                  "type": "tuple[6]"
                },
                {
                  "components": [
                    {
                      "internalType": "uint8",
                      "name": "x",
                      "type": "uint8"
                    },
                    {
                      "internalType": "uint8",
                      "name": "y",
                      "type": "uint8"
                    }
                  ],
                  "internalType": "struct GameLib.Position",
                  "name": "ballPosition",
                  "type": "tuple"
                },
                {
                  "internalType": "enum GameLib.TeamEnum",
                  "name": "ballOwner",
                  "type": "uint8"
                }
              ],
              "internalType": "struct GameLib.BoardState",
              "name": "lastBoardState",
              "type": "tuple"
            },
            {
              "internalType": "bytes32",
              "name": "historyIPFS",
              "type": "bytes32"
            },
            {
              "internalType": "bool",
              "name": "isVerified",
              "type": "bool"
            },
            {
              "internalType": "bytes",
              "name": "encryptedKey",
              "type": "bytes"
            },
            {
              "internalType": "uint8",
              "name": "gameEngineVersion",
              "type": "uint8"
            },
            {
              "internalType": "uint256[10]",
              "name": "__gap",
              "type": "uint256[10]"
            }
          ],
          "internalType": "struct GameLib.Game[]",
          "name": "",
          "type": "tuple[]"
        }
      ],
      "stateMutability": "view",
      "type": "function"
    },
    {
      "inputs": [
        {
          "internalType": "uint256",
          "name": "teamId",
          "type": "uint256"
        }
      ],
      "name": "getTeam",
      "outputs": [
        {
          "components": [
            {
              "internalType": "uint256",
              "name": "id",
              "type": "uint256"
            },
            {
              "internalType": "address",
              "name": "wallet",
              "type": "address"
            },
            {
              "internalType": "string",
              "name": "name",
              "type": "string"
            },
            {
              "internalType": "uint64",
              "name": "eloRating",
              "type": "uint64"
            },
            {
              "internalType": "uint256",
              "name": "registeredAt",
              "type": "uint256"
            },
            {
              "internalType": "uint256[]",
              "name": "games",
              "type": "uint256[]"
            },
            {
              "internalType": "uint8",
              "name": "country",
              "type": "uint8"
            },
            {
              "internalType": "bool",
              "name": "hasActiveGame",
              "type": "bool"
            },
            {
              "internalType": "uint256",
              "name": "gameRequestId",
              "type": "uint256"
            },
            {
              "internalType": "uint64",
              "name": "totalGames",
              "type": "uint64"
            },
            {
              "internalType": "uint256[10]",
              "name": "__gap",
              "type": "uint256[10]"
            }
          ],
          "internalType": "struct GameLib.Team",
          "name": "",
          "type": "tuple"
        }
      ],
      "stateMutability": "view",
      "type": "function"
    },
    {
      "inputs": [
        {
          "internalType": "address",
          "name": "wallet",
          "type": "address"
        }
      ],
      "name": "getTeamIdByWallet",
      "outputs": [
        {
          "internalType": "uint256",
          "name": "",
          "type": "uint256"
        }
      ],
      "stateMutability": "view",
      "type": "function"
    },
    {
      "inputs": [
        {
          "internalType": "address",
          "name": "_gelatoAddress",
          "type": "address"
        },
        {
          "internalType": "address",
          "name": "_relayerAddress",
          "type": "address"
        },
        {
          "internalType": "address",
          "name": "_relayerSmartAccountAddress",
          "type": "address"
        },
        {
          "internalType": "address",
          "name": "_gameEngineServerAddress",
          "type": "address"
        },
        {
          "internalType": "string",
          "name": "_publicKey",
          "type": "string"
        }
      ],
      "name": "initialize",
      "outputs": [],
      "stateMutability": "nonpayable",
      "type": "function"
    },
    {
      "inputs": [
        {
          "internalType": "uint256",
          "name": "gameId",
          "type": "uint256"
        },
        {
          "internalType": "enum GameLib.StateType",
          "name": "stateType",
          "type": "uint8"
        },
        {
          "internalType": "uint8[]",
          "name": "clashRandomNumbers",
          "type": "uint8[]"
        },
        {
          "components": [
            {
              "internalType": "uint256",
              "name": "playerId",
              "type": "uint256"
            },
            {
              "internalType": "enum GameLib.MoveType",
              "name": "moveType",
              "type": "uint8"
            },
            {
              "components": [
                {
                  "internalType": "uint8",
                  "name": "x",
                  "type": "uint8"
                },
                {
                  "internalType": "uint8",
                  "name": "y",
                  "type": "uint8"
                }
              ],
              "internalType": "struct GameLib.Position",
              "name": "oldPosition",
              "type": "tuple"
            },
            {
              "components": [
                {
                  "internalType": "uint8",
                  "name": "x",
                  "type": "uint8"
                },
                {
                  "internalType": "uint8",
                  "name": "y",
                  "type": "uint8"
                }
              ],
              "internalType": "struct GameLib.Position",
              "name": "newPosition",
              "type": "tuple"
            }
          ],
          "internalType": "struct GameLib.GameAction[]",
          "name": "team1Actions",
          "type": "tuple[]"
        },
        {
          "components": [
            {
              "internalType": "uint256",
              "name": "playerId",
              "type": "uint256"
            },
            {
              "internalType": "enum GameLib.MoveType",
              "name": "moveType",
              "type": "uint8"
            },
            {
              "components": [
                {
                  "internalType": "uint8",
                  "name": "x",
                  "type": "uint8"
                },
                {
                  "internalType": "uint8",
                  "name": "y",
                  "type": "uint8"
                }
              ],
              "internalType": "struct GameLib.Position",
              "name": "oldPosition",
              "type": "tuple"
            },
            {
              "components": [
                {
                  "internalType": "uint8",
                  "name": "x",
                  "type": "uint8"
                },
                {
                  "internalType": "uint8",
                  "name": "y",
                  "type": "uint8"
                }
              ],
              "internalType": "struct GameLib.Position",
              "name": "newPosition",
              "type": "tuple"
            }
          ],
          "internalType": "struct GameLib.GameAction[]",
          "name": "team2Actions",
          "type": "tuple[]"
        },
        {
          "components": [
            {
              "components": [
                {
                  "internalType": "uint8",
                  "name": "x",
                  "type": "uint8"
                },
                {
                  "internalType": "uint8",
                  "name": "y",
                  "type": "uint8"
                }
              ],
              "internalType": "struct GameLib.Position[6]",
              "name": "team1PlayerPositions",
              "type": "tuple[6]"
            },
            {
              "components": [
                {
                  "internalType": "uint8",
                  "name": "x",
                  "type": "uint8"
                },
                {
                  "internalType": "uint8",
                  "name": "y",
                  "type": "uint8"
                }
              ],
              "internalType": "struct GameLib.Position[6]",
              "name": "team2PlayerPositions",
              "type": "tuple[6]"
            },
            {
              "components": [
                {
                  "internalType": "uint8",
                  "name": "x",
                  "type": "uint8"
                },
                {
                  "internalType": "uint8",
                  "name": "y",
                  "type": "uint8"
                }
              ],
              "internalType": "struct GameLib.Position",
              "name": "ballPosition",
              "type": "tuple"
            },
            {
              "internalType": "enum GameLib.TeamEnum",
              "name": "ballOwner",
              "type": "uint8"
            }
          ],
          "internalType": "struct GameLib.BoardState",
          "name": "boardState",
          "type": "tuple"
        }
      ],
      "name": "newGameState",
      "outputs": [],
      "stateMutability": "nonpayable",
      "type": "function"
    },
    {
      "inputs": [],
      "name": "nextGameId",
      "outputs": [
        {
          "internalType": "uint256",
          "name": "",
          "type": "uint256"
        }
      ],
      "stateMutability": "view",
      "type": "function"
    },
    {
      "inputs": [],
      "name": "nextTeamId",
      "outputs": [
        {
          "internalType": "uint256",
          "name": "",
          "type": "uint256"
        }
      ],
      "stateMutability": "view",
      "type": "function"
    },
    {
      "inputs": [],
      "name": "owner",
      "outputs": [
        {
          "internalType": "address",
          "name": "",
          "type": "address"
        }
      ],
      "stateMutability": "view",
      "type": "function"
    },
    {
      "inputs": [],
      "name": "proxiableUUID",
      "outputs": [
        {
          "internalType": "bytes32",
          "name": "",
          "type": "bytes32"
        }
      ],
      "stateMutability": "view",
      "type": "function"
    },
    {
      "inputs": [],
      "name": "relayerAddress",
      "outputs": [
        {
          "internalType": "address",
          "name": "",
          "type": "address"
        }
      ],
      "stateMutability": "view",
      "type": "function"
    },
    {
      "inputs": [],
      "name": "relayerSmartAccountAddress",
      "outputs": [
        {
          "internalType": "address",
          "name": "",
          "type": "address"
        }
      ],
      "stateMutability": "view",
      "type": "function"
    },
    {
      "inputs": [],
      "name": "renounceOwnership",
      "outputs": [],
      "stateMutability": "nonpayable",
      "type": "function"
    },
    {
      "inputs": [
        {
          "internalType": "uint256",
          "name": "gameId",
          "type": "uint256"
        },
        {
          "internalType": "enum GameLib.TeamEnum",
          "name": "cauzedByTeam",
          "type": "uint8"
        },
        {
          "internalType": "enum ChessBallGame.ErrorType",
          "name": "errorType",
          "type": "uint8"
        },
        {
          "internalType": "string",
          "name": "errorMsg",
          "type": "string"
        }
      ],
      "name": "setGameError",
      "outputs": [],
      "stateMutability": "nonpayable",
      "type": "function"
    },
    {
      "inputs": [
        {
          "internalType": "uint256",
          "name": "gameRequestId",
          "type": "uint256"
        },
        {
          "internalType": "bytes",
          "name": "_encryptedKey",
          "type": "bytes"
        }
      ],
      "name": "startGame",
      "outputs": [],
      "stateMutability": "nonpayable",
      "type": "function"
    },
    {
      "inputs": [
        {
          "internalType": "address",
          "name": "sender",
          "type": "address"
        },
        {
          "internalType": "uint256",
          "name": "gameRequestId",
          "type": "uint256"
        },
        {
          "internalType": "bytes",
          "name": "_encryptedKey",
          "type": "bytes"
        }
      ],
      "name": "startGameRelayer",
      "outputs": [],
      "stateMutability": "nonpayable",
      "type": "function"
    },
    {
      "inputs": [
        {
          "internalType": "address",
          "name": "",
          "type": "address"
        }
      ],
      "name": "teamIdByWallet",
      "outputs": [
        {
          "internalType": "uint256",
          "name": "",
          "type": "uint256"
        }
      ],
      "stateMutability": "view",
      "type": "function"
    },
    {
      "inputs": [
        {
          "internalType": "string",
          "name": "",
          "type": "string"
        }
      ],
      "name": "teamNames",
      "outputs": [
        {
          "internalType": "bool",
          "name": "",
          "type": "bool"
        }
      ],
      "stateMutability": "view",
      "type": "function"
    },
    {
      "inputs": [
        {
          "internalType": "uint256",
          "name": "",
          "type": "uint256"
        }
      ],
      "name": "teams",
      "outputs": [
        {
          "internalType": "uint256",
          "name": "id",
          "type": "uint256"
        },
        {
          "internalType": "address",
          "name": "wallet",
          "type": "address"
        },
        {
          "internalType": "string",
          "name": "name",
          "type": "string"
        },
        {
          "internalType": "uint64",
          "name": "eloRating",
          "type": "uint64"
        },
        {
          "internalType": "uint256",
          "name": "registeredAt",
          "type": "uint256"
        },
        {
          "internalType": "uint8",
          "name": "country",
          "type": "uint8"
        },
        {
          "internalType": "bool",
          "name": "hasActiveGame",
          "type": "bool"
        },
        {
          "internalType": "uint256",
          "name": "gameRequestId",
          "type": "uint256"
        },
        {
          "internalType": "uint64",
          "name": "totalGames",
          "type": "uint64"
        }
      ],
      "stateMutability": "view",
      "type": "function"
    },
    {
      "inputs": [
        {
          "internalType": "uint256",
          "name": "gameId",
          "type": "uint256"
        }
      ],
      "name": "testTriggerGameActionCommitted",
      "outputs": [],
      "stateMutability": "nonpayable",
      "type": "function"
    },
    {
      "inputs": [
        {
          "internalType": "address",
          "name": "newOwner",
          "type": "address"
        }
      ],
      "name": "transferOwnership",
      "outputs": [],
      "stateMutability": "nonpayable",
      "type": "function"
    },
    {
      "inputs": [
        {
          "internalType": "address",
          "name": "newImplementation",
          "type": "address"
        },
        {
          "internalType": "bytes",
          "name": "data",
          "type": "bytes"
        }
      ],
      "name": "upgradeToAndCall",
      "outputs": [],
      "stateMutability": "payable",
      "type": "function"
    }
  ],
  "bytecode": "0x60a08060405234620000d157306080527ff0c57e16840df040f15088dc2f81fe391c3923bec73e23a9662efc9c229c6a009081549060ff8260401c16620000c257506001600160401b036002600160401b0319828216016200007c575b6040516154e99081620000d782396080518181816115c701526116ab0152f35b6001600160401b031990911681179091556040519081527fc7f505b2f371ae2175ee4913f4499e1f2633a7b5936321eed1cdaeb6115181d290602090a13880806200005c565b63f92ee8a960e01b8152600490fd5b600080fdfe608080604052600436101561001357600080fd5b60003560e01c9081628e0f1b146122f65750806302f785fd146122695780630f1bf454146122175780630fb9f869146120a0578063117a5b9014611f6b57806313e4c71414611f345780631894c75614611f1657806318a7cca814611eed5780631b76929c14611e5457806322d60b1a14611e3c5780632cc9c96414611e135780632df84be514611cd95780632fb3b361146119f857806337900ba2146119c15780633ed2b77a1461190357806349e3969a146118ad5780634cf97fad146118665780634f1ef2861461165c57806351903bd91461161f57806352d1902d146115b457806359bcfbe4146114ee57806368599d0c146114d05780636e6964d71461146f578063715018a61461141757806371f5001f1461097857806379b880ac146107815780637bb597fa146107635780638da5cb5b1461072d57806392a52e81146106df578063a2f77bcc146105a9578063a462816c14610580578063a89ae45714610557578063ad3cb1cc1461050d578063afcaa6e314610499578063b135bbb01461047b578063c4b634f314610400578063c6480413146101f7578063c9495041146103ae578063e34c2e581461031b578063ec5c504e146102fe578063f2b1ffcf14610261578063f2fde38b146102365763ff156d00146101f757600080fd5b34610231576020366003190112610231576001600160a01b03610218612c76565b1660005260056020526020604060002054604051908152f35b600080fd5b346102315760203660031901126102315761025f610252612c76565b61025a6135ad565b6133a3565b005b346102315760803660031901126102315761027a612c76565b60243590604435600381101561023157600154336001600160a01b03918216141590816102ef575b506102dd57826000526003602052600160406000200154156102cb5761025f9260643592614a3d565b60405163b0ce759160e01b8152600490fd5b604051639608c6ff60e01b8152600490fd5b9050600d5416331415846102a2565b346102315760203660031901126102315761025f600435336148d0565b346102315760203660031901126102315760043561033761337e565b50806000526009602052600360406000200154156102cb5760005260096020526080604060002060405161036a81612894565b815491828252600181015460208301908152606060036002840154936040860194855201549301928352604051938452516020840152516040830152516060820152f35b34610231576040366003190112610231576103c7612c76565b600154336001600160a01b03918216141590816103f1575b506102dd5761025f90602435906148d0565b9050600d5416331415826103df565b3461023157606036600319011261023157610419612c76565b6024356001600160401b03811161023157610438903690600401612989565b6044359060ff8216820361023157600154336001600160a01b039182161415908161046c575b506102dd5761025f92613649565b9050600d54163314158461045e565b34610231576000366003190112610231576020600654604051908152f35b34610231576060366003190112610231576104b2612c76565b6044356001600160401b038111610231576104d1903690600401612c9a565b600154909190336001600160a01b03918216141590816104fe575b506102dd5761025f9260243590613c79565b9050600d5416331415846104ec565b346102315760003660031901126102315761055360405161052d816128ca565b60058152640352e302e360dc1b602082015260405191829160208352602083019061258b565b0390f35b3461023157600036600319011261023157600d546040516001600160a01b039091168152602090f35b34610231576000366003190112610231576002546040516001600160a01b039091168152602090f35b3461023157602080600319360112610231576004356105c6612dd6565b508060005260038252600160406000200154156102cb57600052600381526040600020906106c56027604051936105fc85612878565b80548552600181015484860152610615600282016129b0565b604086015261062660068201612a16565b6060860152610637600d8201612a16565b608086015261066460ff6014830154818116610652816126c5565b60a089015260081c1660c087016129a4565b61067060158201612b0e565b60e0860152602381015461010086015260ff60248201541615156101208601526040516106ab816106a48160258601612b97565b0382612914565b61014086015260ff60268201541661016086015201612cf7565b610180830152610553604051928284938452830190612764565b34610231576020366003190112610231576004356000526009602052608060406000208054906001810154906003600282015491015491604051938452602084015260408301526060820152f35b34610231576000366003190112610231576000805160206153d4833981519152546040516001600160a01b039091168152602090f35b34610231576000366003190112610231576020600a54604051908152f35b346102315760403660031901126102315761079a612c76565b6001805460243592906001600160a01b039081163314158061096a575b6102dd5783600052602092600384528060406000200154156102cb5784600052600384528060406000200154156102cb5784600052600384526040600020938160ff601487015416610808816126c5565b03610958576006850154806000526004825283808460406000200154169516809514158061093d575b61092b57600052600481528383836040600020015416148061091f575b61090157600490600d8601546000525260406000200154161480610913575b6109015760018060401b03600282015460081c16603c81018091116108eb574211156108d9576005015460ff1660038110156108c357156108b15761025f906146be565b6040516356eff76b60e01b8152600490fd5b634e487b7160e01b600052602160045260246000fd5b604051634e7fc88160e11b8152600490fd5b634e487b7160e01b600052601160045260246000fd5b604051631e86addb60e01b8152600490fd5b5060048101541561086d565b5060038501541561084e565b604051633093624d60e21b8152600490fd5b50600d86015460005284848460406000200154161415610831565b6040516314bc0c2f60e31b8152600490fd5b5080600d54163314156107b7565b34610231576104003660031901126102315760046024351015610231576001600160401b036044351161023157366023604435011215610231576001600160401b036004604435013511610231573660246044356004013560051b604435010111610231576064356001600160401b038111610231576109fc903690600401612cc7565b6084356001600160401b03811161023157610a1b903690600401612cc7565b90916103603660a3190112610231576004356000526003602052600160406000200154156102cb57600254336001600160a01b0391821614159081611407575b816113f8575b506113e6576004356000526003602052604060002092600160ff601486015416610a8a816126c5565b036109585760ff6002850154166113b6575b60158401600060a45b6006821061138057505050601b840160006102245b60068210611344575050506103a43560ff811681036102315760ff1660ff1960218601541617602185015560ff6103c435166103c4350361023157610b056103c43560218601613262565b60036103e435101561023157610b216103e435602286016131d8565b610c1b600285015460ff610b36818316613278565b91610b426024356126c5565b60243560020361133457610b5e8260058a015460081c16613278565b925b610b6b6024356126c5565b60243560030361132457610b878360058b015460101c16613278565b915b604051610b958161285d565b848316815260018060401b034216602082015260006040820152600060608201526000608082015284861660a082015260c085851691015283610100600160481b034260081b1692169060018060481b031916171760028901556000600389015560006004890155610c148260058a0194811986541686551684613262565b169061328a565b610c266024356126c5565b6024356002036112ed57604051600181526000805160206153b4833981519152602060043592a25b835492604051926104008401610c656024356126c5565b6024358552426020860152610400604086015260443560040135905261042084019660246044350160005b6044356004013581106112cd57505093610cf0600296947f1cc12e86ff5f2b2e761ab2fd8a6e3ee635d92958237b110363a2868ed2b6f8be94610ce28b859660ff9c9a87602d9f0360608901526132c4565b9184830360808601526132c4565b610d0060a0830160158801613341565b610d116102208301601b8801613341565b610d316103a083016021880160ff60209154818116845260081c16910152565b610d46886022880154166103e08401906125ee565b0390a20154161015610d5457005b600060043560005260036020526040600020602d60ff600283015416106112bb5760068101546000526004602052610d9e6040600020600d83015460005260406000209083615141565b5060043560005260036020526040600020600681015460005260046020526040600020600d8201546000526040600020906032600584015460ff808260081c169160101c16908181116000146112ad5750505060645b60058201541580611296575b61124a575b60058301541580611233575b6111e7575b6007840154600e8501546001600160401b039081169116808210156111de57818103905b610466821015610231578083106111d0575b60199210156111c757610320035b04600a60018216156111bc57600a919088915b60011c90815b6111695750505091610faa9391610ea5610e9d610e98610e98610e98610fc8986152e2565b6152e2565b60640161525b565b9060140281811091826000146111615703905b1561110757600383018054916001600160401b039081169190610edd83858316615210565b166001600160401b0319938416179055600383018054909290916001600160401b0390610f0c90828516615229565b1691161790555b6003810190610f7d82549661138880988160018060401b038216106110f3575b50506003850180549098906001600160401b03811682116110df575b50508354610f69906001600160401b031660078301613c0e565b87546001600160401b031690600e01613c0e565b5490546040516000805160206153948339815191529586928291906001600160401b031660043583615242565b0390a25492546040519182916001600160401b031660043583615242565b0390a2815b60085490818110156110d357610fe281612c2d565b60043591549060031b1c14610ffb576001915001610fcd565b600019918083019081116110bf579061102661101961103f93612c2d565b90549060031b1c91612c2d565b90919082549060031b91821b91600019901b1916179055565b60085480156110ab579160149160ff930161106d61105c82612c2d565b8154906000199060031b1b19169055565b6008555b015460081c169061108560405180936125ee565b61108e816131ce565b6020820152600080516020615474833981519152604060043592a2005b634e487b7160e01b84526031600452602484fd5b634e487b7160e01b85526011600452602485fd5b5050601460ff91611071565b6001600160401b0319161788558a80610f4f565b6001600160401b031916178455878b610f33565b600382018054916001600160401b03908116919061112783858316615210565b166001600160401b0319938416179055600384018054909290916001600160401b039061115690828516615229565b169116179055610f13565b900390610eb8565b8060801c6111b8578002916111b457816001821661118e575b5060011c889181610e73565b90928099508180820204036111a9575b600098029189611182565b801561119e57600080fd5b8880fd5b8280fd5b600191908891610e6d565b61032001610e5a565b6103208210610e4c57600080fd5b80820390610e3a565b6003830180546127106001600160401b03199182168117909255600e860180549092919060646001600160401b03821614611226575b50505050610e16565b161790558680808061121d565b5060038301546001600160401b0316606414610e11565b6003820180546127106001600160401b031991821681179092556007860180549092919060646001600160401b03821614611289575b50505050610e05565b1617905586808080611280565b5060038201546001600160401b0316606414610e00565b1015610df457506000610df4565b604051636ff6cfe560e01b8152600490fd5b909860208060019260ff6112e08e612c8c565b168152019a019101610c90565b6112f86024356126c5565b600360243503610c4e57604051600281526000805160206153b4833981519152602060043592a2610c4e565b8260058a015460101c1691610b89565b81600589015460081c1692610b60565b600160408260ff6113558495613254565b1660ff1987541617865561137461136e60208301613254565b87613262565b01930191019091610aba565b600160408260ff6113918495613254565b1660ff198754161786556113aa61136e60208301613254565b01930191019091610aa5565b60038401541580156113da575b15610a9c57604051631e86addb60e01b8152600490fd5b506004840154156113c3565b604051631c307ff760e31b8152600490fd5b90506000541633141585610a61565b809150600d541633141590610a5b565b34610231576000366003190112610231576114306135ad565b6000805160206153d483398151915280546001600160a01b031981169091556000906001600160a01b03166000805160206154148339815191528280a3005b34610231576020366003190112610231576004356001600160401b0381116102315760ff6114ba60206114a781943690600401612989565b8160405193828580945193849201612568565b8101600b81520301902054166040519015158152f35b34610231576000366003190112610231576020600754604051908152f35b3461023157600036600319011261023157604051600c5460008261151183612b5d565b9182825260209360019085600182169182600014611594575050600114611554575b5061154092500383612914565b61055360405192828493845283019061258b565b849150600c60005281600020906000915b85831061157c575050611540935082010185611533565b80548389018501528794508693909201918101611565565b60ff19168582015261154095151560051b85010192508791506115339050565b34610231576000366003190112610231577f00000000000000000000000000000000000000000000000000000000000000006001600160a01b0316300361160d5760206040516000805160206153f48339815191528152f35b60405163703e46dd60e11b8152600490fd5b34610231576040366003190112610231576024356001600160401b0381116102315761165261025f913690600401612c9a565b9060043533613c79565b604036600319011261023157611670612c76565b6024356001600160401b0381116102315736602382011215610231576116a0903690602481600401359101612952565b906001600160a01b037f0000000000000000000000000000000000000000000000000000000000000000811630811490811561184a575b5061160d576116e46135ad565b6040516352d1902d60e01b8152908216916020918281600481875afa6000918161181b575b5061172757604051634c9c8ce360e01b815260048101859052602490fd5b9284936000805160206153f4833981519152908181036118035750823b156117ea5780546001600160a01b03191682179055604051907fbc7cd75a20ee27fd9adebab32041f755214dbc6bffa90cc0225b39da2e5c2d3b600080a28351156117d05750600080848461025f96519101845af4903d156117c7573d6117aa81612937565b906117b86040519283612914565b8152600081943d92013e61527f565b6060925061527f565b92505050346117db57005b63b398979f60e01b8152600490fd5b604051634c9c8ce360e01b815260048101839052602490fd5b60249060405190632a87526960e21b82526004820152fd5b9091508381813d8311611843575b6118338183612914565b8101031261023157519086611709565b503d611829565b9050816000805160206153f483398151915254161415846116d7565b34610231576040366003190112610231576004356001600160401b03811161023157611896903690600401612989565b60243560ff811681036102315761025f9133613649565b34610231576060366003190112610231576118c6612c76565b600154336001600160a01b03918216141590816118f4575b506102dd5761025f90604435906024359061342a565b9050600d5416331415826118de565b34610231576020366003190112610231576004356000526004602052604060002080549060018060a01b0360018201541690604051611949816106a48160028601612b97565b60018060401b039160ff83600383015416936004830154611994600685015492600860078701549601541695604051998a99610120918b5260208b01528060408b015289019061258b565b956060880152608087015281811660a087015260081c16151560c085015260e08401526101008301520390f35b34610231576020366003190112610231576119da6135ad565b604051428152600080516020615434833981519152602060043592a2005b346102315760a036600319011261023157611a11612c76565b6001600160a01b036024358181169290839003610231576044359082821680920361023157606435838116809103610231576001600160401b039060843582811161023157611a64903690600401612989565b956000805160206154548339815191529485549660ff8860401c16159585891698891580611cd2575b6001809b149081611cc8575b159081611cbf575b50611cad576001600160401b031981168a17895587611c92575b5016918215611c80578015611c80578115611c80578315611c805760018060a01b0319928360005416176000558288541617875581600d541617600d5560025416176002558451908111611c6a57611b14600c54612b5d565b601f8111611c10575b50602094601f8211600114611bab57611b44929394958291600092611ba0575b5050613241565b600c555b611b506150fa565b611b586150fa565b611b61336133a3565b611b6757005b805460ff60401b191690556040519081527fc7f505b2f371ae2175ee4913f4499e1f2633a7b5936321eed1cdaeb6115181d290602090a1005b015190508680611b3d565b601f19821695600c600052806000209160005b888110611bfa57508387989795969710611be1575b505050811b01600c55611b48565b015160001960f88460031b161c19169055858080611bd3565b8183015184559287019260209283019201611bbe565b600c600052611c5a907fdf6966c971051c3d54ec59162606531493a51404a002842f56009d7e5cf4a8c7601f840160051c81019160208510611c60575b601f0160051c01906131f0565b85611b1d565b9091508190611c4d565b634e487b7160e01b600052604160045260246000fd5b6040516301369f3160e61b8152600490fd5b6001600160481b0319166001600160401b011788558a611abb565b60405163f92ee8a960e01b8152600490fd5b9050158c611aa1565b303b159150611a99565b5087611a8d565b34610231576020806003193601126102315760043590816000526003815260018060406000200154156102cb5782600052600382528060406000200154156102cb5782600052600382526040600020918160ff601485015416611d3b816126c5565b03610958576006830154600081815260048352604090208301546001600160a01b03929190831633141580611df8575b61092b576000526004815233828460406000200154161480611dec575b61090157600490600d85015460005252339160406000200154161480610913576109015760018060401b03600282015460081c16603c81018091116108eb574211156108d9576005015460ff1660038110156108c357156108b15761025f906146be565b50600384015415611d88565b50600d85015460005233838560406000200154161415611d6b565b34610231576000366003190112610231576000546040516001600160a01b039091168152602090f35b346102315761025f611e4d366125d8565b903361342a565b346102315760003660031901126102315760405180600854808352602080930180916008600052846000209060005b86828210611ed9578686611e9982880383612914565b604051928392818401908285525180915260408401929160005b828110611ec257505050500390f35b835185528695509381019392810192600101611eb3565b835485529093019260019283019201611e83565b34610231576000366003190112610231576001546040516001600160a01b039091168152602090f35b34610231576000366003190112610231576020600854604051908152f35b346102315760203660031901126102315760043560085481101561023157611f5d602091612c2d565b90546040519160031b1c8152f35b346102315760203660031901126102315760043560005260036020526040600020805460018201549060028301611fa1906129b0565b92611fae60068201612a16565b91611fbb600d8301612a16565b601483015460ff811690611fd160158601612b0e565b90602386015492602487015460ff16946040519788806025830190611ff591612b97565b03612000908a612914565b6026015460ff16986040519b8c9b610780998d5260208d015260408c01612026916125fb565b6101208b0161203491612653565b6102408a0161204291612653565b61204b816126c5565b61036089015261038088019060081c60ff1690612067916125ee565b6103a087016120759161270e565b61070086015215156107208501528061074085015283016120959161258b565b906107608301520390f35b346102315760803660031901126102315760043560243560038110159081610231576044356002811015610231576064356001600160401b038111610231576120ed903690600401612989565b600254909390336001600160a01b0391821614159081612207575b816121f8575b506113e65761211c826131ce565b60018214806121ec575b61217a575b50906121756000805160206154948339815191529361215093604051948580956125ee565b612159816131ce565b602084015242604084015260806060840152608083019061258b565b0390a2005b8460009392935260036020526040600020906108c357600080516020615494833981519152936121509361217592600185036121c957600501805460ff191660021790555b929350935061212b565b600285146121d8575b506121bf565b600501805460ff19166001179055876121d2565b50506000821515612126565b9050600054163314158661210e565b809150600d541633141590612108565b3461023157602036600319011261023157600435806000526003602052600160406000200154156102cb576000526003602052602060ff6014604060002001541660405190612265816126c5565b8152f35b3461023157612277366125d8565b908060005260209160048352604060002054156102cb5761229791612f29565b6040519082820192808352815180945260408301938160408260051b8601019301916000955b8287106122ca5785850386f35b9091929382806122e6600193603f198a82030186528851612764565b96019201960195929190926122bd565b34610231576020366003190112610231576004359061231481612841565b6000815260006020820152606060408201526000606082015260006080820152606060a0820152600060c0820152600060e08201526000610100820152600061012082015261014060405191612369836128f8565b813684370152806000526004602052604060002054156102cb57600052600460205260406000206040519061239d82612841565b8054825260018101546001600160a01b031660208301526040516123c8816106a48160028601612b97565b604083015260018060401b036003820154166060830152600481015460808301526005810160405190816020825491828152019160005260206000209060005b818110612552578661246760098888612423818a0382612914565b60a0850152600681015460ff81811660c0870152600891821c16151560e086015260078201546101008601528101546001600160401b031661012085015201612cf7565b6101408201526040805160208082528351818301528301516001600160a01b0316818301529082015161028060608301526124a7906102a083019061258b565b60018060401b036060840151166080830152608083015160a083015260a083015190601f198382030160c08401526020808351928381520192019060005b81811061253c575050506105536101408460ff60c0869701511660e086015260e0810151151561010086015261010081015161012086015260018060401b03610120820151168286015201516101608401906125b0565b82518452602093840193909201916001016124e5565b8254845260209093019260019283019201612408565b60005b83811061257b5750506000910152565b818101518382015260200161256b565b906020916125a481518092818552858086019101612568565b601f01601f1916010190565b6000915b600a83106125c157505050565b6001908251815260208091019201920191906125b4565b6040906003190112610231576004359060243590565b9060038210156108c35752565b60ff60c0809282815116855260018060401b036020820151166020860152604081015160408601526060810151606086015261263f608082015160808701906125ee565b8260a08201511660a0860152015116910152565b805182526020808201516001600160401b03908116828501526040808401519091169084015260608201519093926001929091838110156108c357606083015260809081015160009590929091015b600586106126b257505050509050565b82518152948301949181019181016126a2565b600411156108c357565b906000905b600682106126e157505050565b6020604082612702600194875160ff60208092828151168552015116910152565b019301910190916126d4565b906103406060612762936127238482516126cf565b61273660208201516101808601906126cf565b612758604082015161030086019060ff60208092828151168552015116910152565b01519101906125ee565b565b9061283e906107806101806128246108c08651855260208701516020860152612795604088015160408701906125fb565b60608701516127aa6101209182880190612653565b6127bd6080890151610240880190612653565b60a08801516127cb816126c5565b6103608701526127e460c08901516103808801906125ee565b6127f760e08901516103a088019061270e565b6101008801516107008701528701511515610720860152610140870151908061074087015285019061258b565b9460ff6101608201511661076085015201519101906125b0565b90565b61016081019081106001600160401b03821117611c6a57604052565b60e081019081106001600160401b03821117611c6a57604052565b6101a081019081106001600160401b03821117611c6a57604052565b608081019081106001600160401b03821117611c6a57604052565b60a081019081106001600160401b03821117611c6a57604052565b604081019081106001600160401b03821117611c6a57604052565b6001600160401b038111611c6a57604052565b61014081019081106001600160401b03821117611c6a57604052565b601f909101601f19168101906001600160401b03821190821017611c6a57604052565b6001600160401b038111611c6a57601f01601f191660200190565b92919261295e82612937565b9161296c6040519384612914565b829481845281830111610231578281602093846000960137010152565b9080601f830112156102315781602061283e93359101612952565b60038210156108c35752565b906040516129bd8161285d565b60c060ff600383958054838116865260018060401b039060081c16602086015260018101546040860152600281015460608601520154612a02828216608086016129a4565b818160081c1660a085015260101c16910152565b9060405191612a24836128af565b82815481526001808301549260ff60018060401b039460209580821660208701528160401c16604086015260801c1660018110156108c357606084015260405193600290910190600090855b60058310612a8d575050505050608090612a89836128af565b0152565b8354815292840192918401918101612a70565b90604051612aad816128ca565b602060ff829454818116845260081c16910152565b604051919060c083016001600160401b03811184821017611c6a576040526000835b60068210612af157505050565b600160208192612b0086612aa0565b815201930191019091612ae4565b90612762604051612b1e81612894565b606060ff600d8396612b2f81612ac2565b8552612b3d60068201612ac2565b6020860152612b4e600c8201612aa0565b604086015201541691016129a4565b90600182811c92168015612b8d575b6020831014612b7757565b634e487b7160e01b600052602260045260246000fd5b91607f1691612b6c565b805460009392612ba682612b5d565b91828252602093600191600181169081600014612c0e5750600114612bcd575b5050505050565b90939495506000929192528360002092846000945b838610612bfa57505050500101903880808080612bc6565b805485870183015294019385908201612be2565b60ff19168685015250505090151560051b010191503880808080612bc6565b600854811015612c4857600860005260206000200190600090565b634e487b7160e01b600052603260045260246000fd5b8054821015612c485760005260206000200190600090565b600435906001600160a01b038216820361023157565b359060ff8216820361023157565b9181601f84011215610231578235916001600160401b038311610231576020838186019501011161023157565b9181601f84011215610231578235916001600160401b0383116102315760208085019460c0850201011161023157565b60405191906000835b600a8210612d1457505050612762826128f8565b6001602081928554815201930191019091612d00565b6001600160401b038111611c6a5760051b60200190565b60405190612d4e826128af565b8160008152600060208201526000604082015260006060820152608060405191612d77836128af565b60a03684370152565b60408051919060c0908184016001600160401b03811185821017611c6a576040528360009160005b848110612db6575050505050565b6020908251612dc4816128ca565b85815285838201528185015201612da8565b604090815191612de583612878565b610180836000928382528360208301528051612e008161285d565b84815284602082015284828201528460608201528460808201528460a08201528460c082015281830152612e32612d41565b6060830152612e3f612d41565b60808301528360a08301528360c08301528051612e5b81612894565b612e63612d80565b8152612e6d612d80565b60208201528151612e7d816128ca565b8581528560208201528282015284606082015260e08301528361010083015283610120830152610140936060858401526101608301525192612ebe846128f8565b3684370152565b90612ecf82612d2a565b612edc6040519182612914565b8281528092612eed601f1991612d2a565b019060005b828110612efe57505050565b602090612f09612dd6565b82828501015201612ef2565b8051821015612c485760209160051b010190565b90600091825260049060206004815260406005818620019485548015613196578085101561309157612f5a85612ec5565b96825b868110612f6f57505050505050505090565b86830383811161307e5781810180911161307e5790612f9060019284612c5e565b9054600391821b1c8652875285852061305c6027885192612fb084612878565b80548452858101548b850152612fc8600282016129b0565b8a850152612fd860068201612a16565b6060850152612fe9600d8201612a16565b6080850152601481015461300660ff8281809416610652816126c5565b61301260158301612b0e565b60e086015260238201546101008601528060248301541615156101208601528a51613044816106a48160258701612b97565b61014086015260268201541661016085015201612cf7565b61018082015261306c828c612f15565b52613077818b612f15565b5001612f5d565b634e487b7160e01b855260118952602485fd5b9450919250906130a084612ec5565b94815b8581106130b35750505050505090565b806130c060019284612c5e565b9054600391821b1c8552865284842061317460278751926130e084612878565b80548452858101548a8501526130f8600282016129b0565b8985015261310860068201612a16565b6060850152613119600d8201612a16565b6080850152601481015461313660ff8281809416610652816126c5565b61314260158301612b0e565b60e086015260238201546101008601528060248301541615156101208601528951613044816106a48160258701612b97565b610180820152613184828a612f15565b5261318f8189612f15565b50016130a3565b5081519550935090840191506001600160401b038211848310176131ba5752815290565b634e487b7160e01b83526041600452602483fd5b600211156108c357565b9060038110156108c35760ff80198354169116179055565b8181106131fb575050565b600081556001016131f0565b9190601f811161321657505050565b612762926000526020600020906020601f840160051c83019310611c6057601f0160051c01906131f0565b8160011b916000199060031b1c19161790565b3560ff811681036102315790565b9061ff0082549160081b169061ff001916179055565b60ff60019116019060ff82116108eb57565b9062ff000082549160101b169062ff00001916179055565b60ff6132be60208093836132b582612c8c565b16865201612c8c565b16910152565b91818152602080910192916000916000905b8282106132e557505050505090565b90919293948535815281860135600481101561333d5790816133086001936126c5565b8382015261331c60408083019089016132a2565b61332c60808083019089016132a2565b60c0908101960194939201906132d6565b8580fd5b906000905b6006821061335357505050565b600160408261337283948760ff60209154818116845260081c16910152565b01930191019091613346565b6040519061338b82612894565b60006060838281528260208201528260408201520152565b6001600160a01b039081169081156133ec576000805160206153d483398151915280546001600160a01b03198116841790915516600080516020615414833981519152600080a3565b604051631e4fbdf760e01b815260006004820152602490fd5b60001981146108eb5760010190565b6040919493926060820195825260208201520152565b929192600093828552600494602090868252604093848220541561359d57838252878352848220541561359d5785825287835284822054848352858320541461358d57858252878352848220600101546001600160a01b039081169082160361357d5783825287835260ff6006868420015460081c1661356d5796600785837f1cce6a28f1564d6cb3044145a4ccc8873cf34f87429af3289490527d7c0437e6999a89613558989796528486528383832001548061355d575b50506134f0600a54613405565b9384600a556134fd61337e565b5082519561350a87612894565b858752808701958b87526003858901918a835260608a0190428252865260098452868620928a51998a8555516001850155516002840155519101558a83525220015551925193849384613414565b0390a1565b613566916148d0565b38806134e3565b8451635e003ea960e01b81528890fd5b8451633093624d60e21b81528890fd5b8451634de6470960e01b81528890fd5b845163b0ce759160e01b81528890fd5b6000805160206153d4833981519152546001600160a01b031633036135ce57565b60405163118cdaa760e01b8152336004820152602490fd5b81601f820112156102315780516135fc81612937565b9261360a6040519485612914565b818452602082840101116102315761283e9160208085019101612568565b51906001600160401b038216820361023157565b5190811515820361023157565b9060018060a01b038083166000526005602052604060002054613bfc57815115613bea576136ab91600073__$18826597157b5485acfb86513cd242e4d3$__9160405180958192630fb93a7160e21b835260206004840152602483019061258b565b0381845af4928315613b8c57600093613baa575b5060ff60405160208186516136d78183858b01612568565b8101600b8152030190205416613b985760006136f4600754613405565b80600755604051928391631d029a8d60e01b83526004830152848716602483015260a06044830152818061372b60a482018961258b565b60ff8b16606483015242608483015203915af4908115613b8c576000916139f2575b5080516000526004602052604060002081518155600181018360208401511660018060a01b031982541617905560028101604083015180519060018060401b038211611c6a576137a7826137a18554612b5d565b85613207565b602090601f831160011461398a576137c992916000918361397f575050613241565b90555b60608201516003820180546001600160401b0319166001600160401b039283161790556080830151600483015560a08301518051918211611c6a57600160401b8211611c6a57602090600584015483600586015580841061395f575b500160058301600052602060002060005b83811061394b57505050506006810160ff60c08401511681549061ff0060e0860151151560081b169161ffff19161717905561010082015160078201556008810160018060401b036101208401511660018060401b031982541617905561014082015160005b600a81106139345750505091613926917f1599aa311a61861ca44d28454c9e07d6e99428d1fcd90906d4eb6c322d7c52a29360405160208185516138e68183858a01612568565b8101600b815203019020600160ff1982541617905580518287166000526005602052604060002055519460ff60405194859460408652604086019061258b565b9716602084015216940390a3565b60019060208351930192600982860101550161389f565b600190602084519401938184015501613839565b6139799060058601600052848460002091820191016131f0565b38613828565b015190503880611b3d565b90601f198316918460005260206000209260005b8181106139da57509084600195949392106139c1575b505050811b0190556137cc565b015160001960f88460031b161c191690553880806139b4565b9293602060018192878601518155019501930161399e565b90503d806000833e613a048183612914565b81016020828203126102315781516001600160401b03928382116102315701906102809081838203126102315760405193613a3e85612841565b835185526020840151868116810361023157602086015260408401518181116102315782613a6d9186016135e6565b6040860152613a7e60608501613628565b60608601526080840151608086015260a084015190811161023157830181601f8201121561023157805190613ab282612d2a565b91613ac06040519384612914565b80835260208084019160051b8301019184831161023157602001905b828210613b7c5750505060a085015260c083015160ff811681036102315760c0850152613b0b60e0840161363c565b60e08501526101008084015190850152610120613b29818501613628565b90850152610140918161015f850112156102315760405193613b4a856128f8565b84918101928311610231578301905b828210613b6c575050508201523861374d565b8151815260209182019101613b59565b8151815260209182019101613adc565b6040513d6000823e3d90fd5b604051634749bdef60e11b8152600490fd5b9092503d806000833e613bbd8183612914565b81016020828203126102315781516001600160401b03811161023157613be392016135e6565b91386136bf565b60405163d9f415a960e01b8152600490fd5b60405163f2d8e7a360e01b8152600490fd5b8054600160401b600160801b03191660409290921b600160401b600160801b0316919091179055565b9060038110156108c35761ff0082549160081b169061ff001916179055565b80549190600160401b831015611c6a578261102691600161276295018155612c5e565b9290919260009083825260096020526003604083200154156102cb57838252600960205260026040832001548252600460205260018060a01b038060016040852001541691160361092b57828152600960205260016040822001548152600460205260ff600660408320015460081c166146ac57828152600960205260026040822001548152600460205260ff600660408320015460081c166146ac5782815260096020526002604082200154815260046020526007604082200154614627575b828152600960205260408120926002600185015494015494613d5d600654613405565b90816006558584526004602052613d9960018060401b036003604087200154169188865260018060401b03600360408820015416963691612952565b613da1612dd6565b50604051613dae816128af565b85815285602082015285604082015285606082015285608082015260405192613dd6846128af565b88845260208401528560408401528560608401526080830152604051613dfb816128af565b85815285602082015285604082015285606082015285608082015260405196613e23886128af565b89885260208801528560408801528560608801526080870152613e44612d80565b50613e4d612d80565b604051613e59816128ca565b60018152600560208201528152604051613e72816128ca565b60048152600260208201526020820152604051613e8e816128ca565b60048152600860208201526040820152604051613eaa816128ca565b60068152600360208201526060820152604051613ec6816128ca565b60068152600760208201526080820152604051613ee2816128ca565b600881526005602082015260a0820152613efa612d80565b50613f03612d80565b96604051613f10816128ca565b600f8152600560208201528852604051613f29816128ca565b600c8152600260208201526020890152604051613f45816128ca565b600c8152600860208201526040890152604051613f61816128ca565b600a8152600260208201526060890152604051613f7d816128ca565b600a8152600860208201526080890152604051613f99816128ca565b600a81526005602082015260a089015260405197613fb68961285d565b8789528760208a01528760408a01528760608a01528760808a01528760a08a01528760c08a015260405190613fea826128ca565b60088252600560208301526040519361400285612894565b84526020840152604083015260016060830152604051938461014081011060018060401b0361014087011117611c6a5761014085016040528785528760208601528760408601528760608601528760808601528760a08601528760c08601528760e08601528761010086015287610120860152604051986140828a612878565b868a524260208b015260408a015260608901526080880152600160a08801528560c088015260e087015284610100870152846101208701526101408601526001610160860152610180850152825260036020526040822083518155602084015160018201556002810160408501519060ff825116815490610100600160481b03602085015160081b169160018060481b031916171790556040810151600383015560608101516004830155608081015160038110156145fc5760c061416f9261415060ff93600587016131d8565b6141638360a08301511660058701613262565b0151166005830161328a565b60608401518051600683015560208101516007830180546001600160401b0319166001600160401b0392831617815560408301516141ae921690613c0e565b606081015160018110156145fc5760078301805460ff60801b1916608092831b60ff60801b161790550151835b6005811061461057505060808401518051600d8301556020810151600e830180546001600160401b0319166001600160401b039283161781556040830151614224921690613c0e565b606081015160018110156145fc57600e8301805460ff60801b1916608092831b60ff60801b161790550151835b600581106145e557505060a0840151614269816126c5565b614272816126c5565b60ff8019601484015416911617601482015560c084015160038110156145735761429f9060148301613c37565b60e08401518051601583019085905b600682106145b6575050506020810151601b83019085905b60068210614587575050506060906142f96021840160ff6020604085015182815116831985541617845501511690613262565b015160038110156145735761431190602283016131d8565b610100840151602382015560248101610120850151151560ff8019835416911617905561014084015180519060018060401b03821161455f576143648261435b6025860154612b5d565b60258601613207565b602090601f83116001146144f057614385929186918361397f575050613241565b60258201555b6026810160ff6101608601511660ff19825416179055610180840151835b600a81106144d95750505073__$18826597157b5485acfb86513cd242e4d3$__90813b156111b8578290606460405180948193636c2a23bf60e01b8352600960048401526004602484015260448301525af480156144ce576144b7575b506005604082856144649452600460205260068282200161ff00199061010082825416179055878252610100600684842001918254161790558581526144528383832001865190613c56565b86815260046020522001825190613c56565b805160085490600160401b821015611c6a576110268260016144899401600855612c2d565b517f94b80033a8327ab5e699285e343e5f1027e2299b685ec5836a08f3a8faacbd59602060405160018152a4565b6144c182916128e5565b6144cb5738614406565b80fd5b6040513d84823e3d90fd5b6001906020835193019260278286010155016143a9565b9190602584018652602086209086935b601f1984168510614544576001945083601f1981161061452b575b505050811b01602582015561438b565b015160001960f88460031b161c1916905538808061451b565b81810151835560209485019460019093019290910190614500565b634e487b7160e01b85526041600452602485fd5b634e487b7160e01b84526021600452602484fd5b60016020826145aa60ff838596518281511683198b5416178a5501511687613262565b019301910190916142c6565b60016020826145d960ff838596518281511683198b5416178a5501511687613262565b019301910190916142ae565b60019060208351930192600f828601015501614251565b634e487b7160e01b85526021600452602485fd5b6001906020835193019260088286010155016141db565b73__$18826597157b5485acfb86513cd242e4d3$__83825260096020526002604083200154825260046020526007604083200154813b156111b8578290606460405180948193636c2a23bf60e01b8352600960048401526004602484015260448301525af480156144ce5761469d575b50613d3a565b6146a6906128e5565b38614697565b604051635e003ea960e01b8152600490fd5b90600091808352600380602052604084206006810154855260049060046020526040862092600d82015487526040872092601483019360ff85541693614703856126c5565b60018095036148cc576005916006806008998a810180549060018060401b03908161472f818516615129565b166001600160401b03199384161790558c8601805490929091614753818416615129565b169116179055019161ff00199283815416905501908154169055019788549860ff8a1699600360ff1988541617875560038b10156148b8576001869798999a9b146000146148a65750805462ffff0019166103001790555b80945b6147e7575b505050505060ff6000805160206154748339815191529260409254901c166147dd825180926125ee565b60016020820152a2565b8654808610156148a057886147fb87612c2d565b905490861b1c14614811575083809501946147ae565b94919350916000199485810190811161488d57614840929161483561102692612c2d565b9054911b1c91612c2d565b845491821561487a5750509260409260ff92600080516020615474833981519152950161486f61105c82612c2d565b8255928194386147b3565b634e487b7160e01b825260319052602490fd5b634e487b7160e01b845260118552602484fd5b506147b3565b62ffff001916620300001790556147ab565b634e487b7160e01b83526021600452602483fd5b8980fd5b91909182156102cb57600092808452600960205260406003818620015415614a2d5781855260096020526001818620015485526004928360205260018060a01b03806001848920015416911603614a1e57818552600960205260038186200154603c8101809111614a0b574211156149fc57818552600960205280852092600260018501549401549573__$18826597157b5485acfb86513cd242e4d3$__91823b156149f85781906064855180958193636c2a23bf60e01b835260098184015260248301528860448301525af49081156149ed5750917f773e15a265d8549eebc3e80bafb0e2cbeba28c5d2b2a081e31c34554c7d0507d959691613558936149de575b505193849384613414565b6149e7906128e5565b386149d3565b8351903d90823e3d90fd5b5080fd5b516343dcbe9f60e01b81529050fd5b634e487b7160e01b865260118452602486fd5b51633093624d60e21b81529050fd5b5163b0ce759160e01b8152600490fd5b929092836000526003602052604060002090600160ff601484015416614a62816126c5565b036109585760038410156108c35783156150e85782156150d6576001841480806150c9575b6150aa57600285149081806150bc575b6150aa571561506d575060068201546000908152600460205260409020600101546001600160a01b0390811691160361092b576002905b0191602d60ff8454161015614b8b57614afe90604051936378e02d7160e11b8552600485015260248401906125ee565b604482015260208160648173__$18826597157b5485acfb86513cd242e4d3$__5af4908115613b8c57600091614b51575b50614b375750565b6000805160206154348339815191526020604051428152a2565b90506020813d602011614b83575b81614b6c60209383612914565b8101031261023157614b7d9061363c565b38614b2f565b3d9150614b5f565b505050600090806000526003602052604060002091602d60ff600285015416106112bb5760068301546000526004602052614bd86040600020600d85015460005260406000209085615141565b508160005260036020526040600020600681015460005260046020526040600020600d8201546000526040600020906032600584015460ff808260081c169160101c169081811160001461505f5750505060645b60058201541580615048575b614ffc575b60058301541580614fe5575b614f99575b6007840154600e8501546001600160401b039182169116818110918215614f9257035b6104668110156102315781614f84575b60199115614f7b57610320035b04600a6001821615614f7357600a915b60011c90815b614f2457505091614db69391614cc8610e9d610e98610e98610e98614dd2986152e2565b906014028181109182600014614f1c5703905b15614ec257600383018054916001600160401b039081169190614d0083858316615210565b166001600160401b0319938416179055600383018054909290916001600160401b0390614d2f90828516615229565b1691161790555b6003810190614d8b82549661138880988160018060401b03821610614eae575b50506003850180549098906001600160401b0381168211614e9a5750508354610f69906001600160401b031660078301613c0e565b5490546040516000805160206153948339815191529586928291906001600160401b03168b83615242565b0390a25492546040519182916001600160401b03168783615242565b0390a2805b60085480821015614e7b5783614dec83612c2d565b90549060031b1c14614e015750600101614dd7565b9293919260001991908281019081116110bf5790611026611019614e2493612c2d565b60085480156110ab576014604093600080516020615474833981519152959360ff9301614e5361105c82612c2d565b6008555b015460081c1690614e6a835180936125ee565b614e73816131ce565b6020820152a2565b505060409060ff60146000805160206154748339815191529495614e57565b6001600160401b0319161788553880610f4f565b6001600160401b0319161784558738614d56565b600382018054916001600160401b039081169190614ee283858316615210565b166001600160401b0319938416179055600384018054909290916001600160401b0390614f1190828516615229565b169116179055614d36565b900390614cdb565b8060801c614f6f5780029087614f6f578160018216614f49575b5060011c9081614ca4565b9092809850818082020403614f64575b600097029138614f3e565b8015614f5957600080fd5b8780fd5b600191614c9e565b61032001614c8e565b6103208110614c8157600080fd5b9003614c71565b6003830180546127106001600160401b03199182168117909255600e860180549092919060646001600160401b03821614614fd8575b50505050614c4e565b1617905538808080614fcf565b5060038301546001600160401b0316606414614c49565b6003820180546127106001600160401b031991821681179092556007860180549092919060646001600160401b0382161461503b575b50505050614c3d565b1617905538808080615032565b5060038201546001600160401b0316606414614c38565b1015614c2c57506000614c2c565b61507b575b50600290614ace565b600d8201546000908152600460205260409020600101546001600160a01b0390811691160361092b5738615072565b604051635ce6d95760e11b8152600490fd5b5060048401541515614a97565b5060038301541515614a87565b604051635101966360e01b8152600490fd5b604051636f6fc75f60e11b8152600490fd5b60ff6000805160206154548339815191525460401c161561511757565b604051631afcd79f60e31b8152600490fd5b6001600160401b039081169081146108eb5760010190565b6014810192600160ff855416615156816126c5565b03610231576008830180546005946006928392906001600160401b03908161517f818516615129565b166001600160401b0319938416179055600886018054909290916151a4818416615129565b169116179055019161ff00199283815416905501908154169055015460ff808260081c169160101c16908181116000146151f257505061283e600180925b805460ff19166002178155613c37565b10156152045761283e600280926151e2565b61283e600080926151e2565b6001600160401b0391821690821601919082116108eb57565b6001600160401b0391821690821603919082116108eb57565b9081526001600160401b03909116602082015260400190565b80156152695762030d400490565b634e487b7160e01b600052601260045260246000fd5b906152a6575080511561529457602081519101fd5b60405163d6bda27560e01b8152600490fd5b815115806152d9575b6152b7575090565b604051639996b31560e01b81526001600160a01b039091166004820152602490fd5b50803b156152af565b60b581600160881b811015615381575b6201000090600160481b811015615374575b600160281b811015615367575b630100000081101561535a575b010260121c60019080830401811c80830401811c80830401811c80830401811c80830401811c80830401811c80830401901c8080920410900390565b60101c9160081b9161531e565b60201c9160101b91615311565b60401c9160201b91615304565b5060b560401b9050608082901c6152f256fecbbcee95272cfb3753df326bdc92854d09463c4834c094a042f4066cc803b9b5579c31d7f947df31adb29f8688c651ffa98030b83bb0d87632c86357f13afafd9016d09d72d40fdae2fd8ceac6b6234c7706214fd39c1cd1e609a0528c199300360894a13ba1a3210667c828492db98dca3e2076cc3735a920a3ca505d382bbc8be0079c531659141344cd1fd0a4f28419497f9722a3daafe3b4186f6b6457e0d6ad8b09cb4bf385f0569c05c242d45e491f752df651aae6a2db9ff589bd9faef0c57e16840df040f15088dc2f81fe391c3923bec73e23a9662efc9c229c6a004019f194fe4a757f9f1441d256eeb40c3f12e80f9da6188b5ad1a5fcda7217d740f6909351d16bebd2bb97c72ea15dc2508f321a25ba4ff1df4c330cced53820a26469706673582212205f2e486fd3080796892fea13bdffaa6dc22c88f3da696a40fc00f7b4d2a149c464736f6c63430008180033",
  "linkReferences": {
    "contracts/GameLib.sol": {
      "GameLib": [
        {
          "length": 20,
          "start": 14156
        },
        {
          "length": 20,
          "start": 17549
        },
        {
          "length": 20,
          "start": 18176
        },
        {
          "length": 20,
          "start": 18994
        },
        {
          "length": 20,
          "start": 19426
        }
      ]
    }
  },
  "deployedLinkReferences": {
    "contracts/GameLib.sol": {
      "GameLib": [
        {
          "length": 20,
          "start": 13941
        },
        {
          "length": 20,
          "start": 17334
        },
        {
          "length": 20,
          "start": 17961
        },
        {
          "length": 20,
          "start": 18779
        },
        {
          "length": 20,
          "start": 19211
        }
      ]
    }
  }
}