{
  "_format": "hh-sol-artifact-1",
  "contractName": "ChessBallGame",
  "sourceName": "contracts/Game.sol",
  "abi": [
    {
      "inputs": [],
      "stateMutability": "nonpayable",
      "type": "constructor"
    },
    {
      "inputs": [],
      "name": "ActionsNotCommitted",
      "type": "error"
    },
    {
      "inputs": [
        {
          "internalType": "address",
          "name": "target",
          "type": "address"
        }
      ],
      "name": "AddressEmptyCode",
      "type": "error"
    },
    {
      "inputs": [],
      "name": "CreateTeam_NameIsRequired",
      "type": "error"
    },
    {
      "inputs": [],
      "name": "CreateTeam_TeamAlreadyExists",
      "type": "error"
    },
    {
      "inputs": [],
      "name": "CreateTeam_TeamNameAlreadyExists",
      "type": "error"
    },
    {
      "inputs": [],
      "name": "DoesNotExist",
      "type": "error"
    },
    {
      "inputs": [
        {
          "internalType": "address",
          "name": "implementation",
          "type": "address"
        }
      ],
      "name": "ERC1967InvalidImplementation",
      "type": "error"
    },
    {
      "inputs": [],
      "name": "ERC1967NonPayable",
      "type": "error"
    },
    {
      "inputs": [],
      "name": "FailedCall",
      "type": "error"
    },
    {
      "inputs": [],
      "name": "FinishGameByTimeout_NoLastMove",
      "type": "error"
    },
    {
      "inputs": [],
      "name": "GameHasNotReachedMaxMoves",
      "type": "error"
    },
    {
      "inputs": [],
      "name": "GameIsNotActive",
      "type": "error"
    },
    {
      "inputs": [],
      "name": "GameOwnerShouldCall",
      "type": "error"
    },
    {
      "inputs": [],
      "name": "GameRequestNotExpired",
      "type": "error"
    },
    {
      "inputs": [],
      "name": "GameRequestTimeoutNotReached",
      "type": "error"
    },
    {
      "inputs": [],
      "name": "InitAddressCannotBeZero",
      "type": "error"
    },
    {
      "inputs": [],
      "name": "InvalidInitialization",
      "type": "error"
    },
    {
      "inputs": [],
      "name": "InvalidTeam",
      "type": "error"
    },
    {
      "inputs": [],
      "name": "MovesAlreadyCommitted",
      "type": "error"
    },
    {
      "inputs": [],
      "name": "MovesEncryptedCannotBeZero",
      "type": "error"
    },
    {
      "inputs": [],
      "name": "NotInitializing",
      "type": "error"
    },
    {
      "inputs": [],
      "name": "OnlyGameEngineServerCanCall",
      "type": "error"
    },
    {
      "inputs": [],
      "name": "OnlyRelayerCanCall",
      "type": "error"
    },
    {
      "inputs": [
        {
          "internalType": "address",
          "name": "owner",
          "type": "address"
        }
      ],
      "name": "OwnableInvalidOwner",
      "type": "error"
    },
    {
      "inputs": [
        {
          "internalType": "address",
          "name": "account",
          "type": "address"
        }
      ],
      "name": "OwnableUnauthorizedAccount",
      "type": "error"
    },
    {
      "inputs": [],
      "name": "TeamAlreadyHasActiveGame",
      "type": "error"
    },
    {
      "inputs": [],
      "name": "TeamsCannotBeSame",
      "type": "error"
    },
    {
      "inputs": [],
      "name": "UUPSUnauthorizedCallContext",
      "type": "error"
    },
    {
      "inputs": [
        {
          "internalType": "bytes32",
          "name": "slot",
          "type": "bytes32"
        }
      ],
      "name": "UUPSUnsupportedProxiableUUID",
      "type": "error"
    },
    {
      "anonymous": false,
      "inputs": [
        {
          "indexed": true,
          "internalType": "uint256",
          "name": "teamId",
          "type": "uint256"
        },
        {
          "indexed": false,
          "internalType": "uint64",
          "name": "eloRating",
          "type": "uint64"
        }
      ],
      "name": "EloUpdated",
      "type": "event"
    },
    {
      "anonymous": false,
      "inputs": [
        {
          "indexed": true,
          "internalType": "uint256",
          "name": "gameId",
          "type": "uint256"
        },
        {
          "indexed": false,
          "internalType": "enum GameLib.TeamEnum",
          "name": "winner",
          "type": "uint8"
        },
        {
          "indexed": false,
          "internalType": "enum GameLib.FinishReason",
          "name": "finishReason",
          "type": "uint8"
        }
      ],
      "name": "GameFinished",
      "type": "event"
    },
    {
      "anonymous": false,
      "inputs": [
        {
          "indexed": false,
          "internalType": "uint256",
          "name": "gameRequestId",
          "type": "uint256"
        },
        {
          "indexed": false,
          "internalType": "uint256",
          "name": "team1id",
          "type": "uint256"
        },
        {
          "indexed": false,
          "internalType": "uint256",
          "name": "team2id",
          "type": "uint256"
        }
      ],
      "name": "GameRequestCancelled",
      "type": "event"
    },
    {
      "anonymous": false,
      "inputs": [
        {
          "indexed": false,
          "internalType": "uint256",
          "name": "gameRequestId",
          "type": "uint256"
        },
        {
          "indexed": false,
          "internalType": "uint256",
          "name": "team1id",
          "type": "uint256"
        },
        {
          "indexed": false,
          "internalType": "uint256",
          "name": "team2id",
          "type": "uint256"
        }
      ],
      "name": "GameRequestCreated",
      "type": "event"
    },
    {
      "anonymous": false,
      "inputs": [
        {
          "indexed": true,
          "internalType": "uint256",
          "name": "gameId",
          "type": "uint256"
        },
        {
          "indexed": true,
          "internalType": "uint256",
          "name": "team1id",
          "type": "uint256"
        },
        {
          "indexed": true,
          "internalType": "uint256",
          "name": "team2id",
          "type": "uint256"
        },
        {
          "indexed": false,
          "internalType": "enum GameLib.TeamEnum",
          "name": "teamWithBall",
          "type": "uint8"
        }
      ],
      "name": "GameStarted",
      "type": "event"
    },
    {
      "anonymous": false,
      "inputs": [
        {
          "indexed": true,
          "internalType": "uint256",
          "name": "gameId",
          "type": "uint256"
        },
        {
          "indexed": false,
          "internalType": "enum GameLib.TeamEnum",
          "name": "cauzedByTeam",
          "type": "uint8"
        },
        {
          "indexed": false,
          "internalType": "enum ChessBallGame.ErrorType",
          "name": "errorType",
          "type": "uint8"
        },
        {
          "indexed": false,
          "internalType": "uint256",
          "name": "time",
          "type": "uint256"
        },
        {
          "indexed": false,
          "internalType": "string",
          "name": "errorMsg",
          "type": "string"
        }
      ],
      "name": "GameStateError",
      "type": "event"
    },
    {
      "anonymous": false,
      "inputs": [
        {
          "indexed": true,
          "internalType": "uint256",
          "name": "gameId",
          "type": "uint256"
        },
        {
          "indexed": false,
          "internalType": "enum GameLib.TeamEnum",
          "name": "scoringTeam",
          "type": "uint8"
        }
      ],
      "name": "GoalScored",
      "type": "event"
    },
    {
      "anonymous": false,
      "inputs": [
        {
          "indexed": false,
          "internalType": "uint64",
          "name": "version",
          "type": "uint64"
        }
      ],
      "name": "Initialized",
      "type": "event"
    },
    {
      "anonymous": false,
      "inputs": [
        {
          "indexed": true,
          "internalType": "uint256",
          "name": "gameId",
          "type": "uint256"
        },
        {
          "indexed": false,
          "internalType": "enum GameLib.StateType",
          "name": "stateType",
          "type": "uint8"
        },
        {
          "indexed": false,
          "internalType": "uint256",
          "name": "time",
          "type": "uint256"
        },
        {
          "indexed": false,
          "internalType": "uint8[]",
          "name": "clashRandomNumbers",
          "type": "uint8[]"
        },
        {
          "components": [
            {
              "internalType": "uint256",
              "name": "playerId",
              "type": "uint256"
            },
            {
              "internalType": "enum GameLib.MoveType",
              "name": "moveType",
              "type": "uint8"
            },
            {
              "components": [
                {
                  "internalType": "uint8",
                  "name": "x",
                  "type": "uint8"
                },
                {
                  "internalType": "uint8",
                  "name": "y",
                  "type": "uint8"
                }
              ],
              "internalType": "struct GameLib.Position",
              "name": "oldPosition",
              "type": "tuple"
            },
            {
              "components": [
                {
                  "internalType": "uint8",
                  "name": "x",
                  "type": "uint8"
                },
                {
                  "internalType": "uint8",
                  "name": "y",
                  "type": "uint8"
                }
              ],
              "internalType": "struct GameLib.Position",
              "name": "newPosition",
              "type": "tuple"
            }
          ],
          "indexed": false,
          "internalType": "struct GameLib.GameAction[]",
          "name": "team1Actions",
          "type": "tuple[]"
        },
        {
          "components": [
            {
              "internalType": "uint256",
              "name": "playerId",
              "type": "uint256"
            },
            {
              "internalType": "enum GameLib.MoveType",
              "name": "moveType",
              "type": "uint8"
            },
            {
              "components": [
                {
                  "internalType": "uint8",
                  "name": "x",
                  "type": "uint8"
                },
                {
                  "internalType": "uint8",
                  "name": "y",
                  "type": "uint8"
                }
              ],
              "internalType": "struct GameLib.Position",
              "name": "oldPosition",
              "type": "tuple"
            },
            {
              "components": [
                {
                  "internalType": "uint8",
                  "name": "x",
                  "type": "uint8"
                },
                {
                  "internalType": "uint8",
                  "name": "y",
                  "type": "uint8"
                }
              ],
              "internalType": "struct GameLib.Position",
              "name": "newPosition",
              "type": "tuple"
            }
          ],
          "indexed": false,
          "internalType": "struct GameLib.GameAction[]",
          "name": "team2Actions",
          "type": "tuple[]"
        },
        {
          "components": [
            {
              "components": [
                {
                  "internalType": "uint8",
                  "name": "x",
                  "type": "uint8"
                },
                {
                  "internalType": "uint8",
                  "name": "y",
                  "type": "uint8"
                }
              ],
              "internalType": "struct GameLib.Position[6]",
              "name": "team1PlayerPositions",
              "type": "tuple[6]"
            },
            {
              "components": [
                {
                  "internalType": "uint8",
                  "name": "x",
                  "type": "uint8"
                },
                {
                  "internalType": "uint8",
                  "name": "y",
                  "type": "uint8"
                }
              ],
              "internalType": "struct GameLib.Position[6]",
              "name": "team2PlayerPositions",
              "type": "tuple[6]"
            },
            {
              "components": [
                {
                  "internalType": "uint8",
                  "name": "x",
                  "type": "uint8"
                },
                {
                  "internalType": "uint8",
                  "name": "y",
                  "type": "uint8"
                }
              ],
              "internalType": "struct GameLib.Position",
              "name": "ballPosition",
              "type": "tuple"
            },
            {
              "internalType": "enum GameLib.TeamEnum",
              "name": "ballOwner",
              "type": "uint8"
            }
          ],
          "indexed": false,
          "internalType": "struct GameLib.BoardState",
          "name": "boardState",
          "type": "tuple"
        }
      ],
      "name": "NewGameState",
      "type": "event"
    },
    {
      "anonymous": false,
      "inputs": [
        {
          "indexed": true,
          "internalType": "address",
          "name": "previousOwner",
          "type": "address"
        },
        {
          "indexed": true,
          "internalType": "address",
          "name": "newOwner",
          "type": "address"
        }
      ],
      "name": "OwnershipTransferred",
      "type": "event"
    },
    {
      "anonymous": false,
      "inputs": [
        {
          "indexed": true,
          "internalType": "uint256",
          "name": "teamId",
          "type": "uint256"
        },
        {
          "indexed": true,
          "internalType": "address",
          "name": "owner",
          "type": "address"
        },
        {
          "indexed": false,
          "internalType": "string",
          "name": "name",
          "type": "string"
        },
        {
          "indexed": false,
          "internalType": "uint8",
          "name": "country",
          "type": "uint8"
        }
      ],
      "name": "TeamCreated",
      "type": "event"
    },
    {
      "anonymous": false,
      "inputs": [
        {
          "indexed": true,
          "internalType": "address",
          "name": "implementation",
          "type": "address"
        }
      ],
      "name": "Upgraded",
      "type": "event"
    },
    {
      "anonymous": false,
      "inputs": [
        {
          "indexed": true,
          "internalType": "uint256",
          "name": "gameId",
          "type": "uint256"
        },
        {
          "indexed": false,
          "internalType": "uint256",
          "name": "timestamp",
          "type": "uint256"
        }
      ],
      "name": "gameActionCommitted",
      "type": "event"
    },
    {
      "inputs": [],
      "name": "UPGRADE_INTERFACE_VERSION",
      "outputs": [
        {
          "internalType": "string",
          "name": "",
          "type": "string"
        }
      ],
      "stateMutability": "view",
      "type": "function"
    },
    {
      "inputs": [
        {
          "internalType": "uint256",
          "name": "",
          "type": "uint256"
        }
      ],
      "name": "activeGames",
      "outputs": [
        {
          "internalType": "uint256",
          "name": "",
          "type": "uint256"
        }
      ],
      "stateMutability": "view",
      "type": "function"
    },
    {
      "inputs": [
        {
          "internalType": "uint256",
          "name": "gameRequestId",
          "type": "uint256"
        }
      ],
      "name": "cancelGameRequest",
      "outputs": [],
      "stateMutability": "nonpayable",
      "type": "function"
    },
    {
      "inputs": [
        {
          "internalType": "address",
          "name": "sender",
          "type": "address"
        },
        {
          "internalType": "uint256",
          "name": "gameRequestId",
          "type": "uint256"
        }
      ],
      "name": "cancelGameRequestRelayer",
      "outputs": [],
      "stateMutability": "nonpayable",
      "type": "function"
    },
    {
      "inputs": [
        {
          "internalType": "address",
          "name": "sender",
          "type": "address"
        },
        {
          "internalType": "uint256",
          "name": "gameId",
          "type": "uint256"
        },
        {
          "internalType": "enum GameLib.TeamEnum",
          "name": "team",
          "type": "uint8"
        },
        {
          "internalType": "bytes32",
          "name": "movesEncrypted",
          "type": "bytes32"
        }
      ],
      "name": "commitGameActionsRelayer",
      "outputs": [],
      "stateMutability": "nonpayable",
      "type": "function"
    },
    {
      "inputs": [
        {
          "internalType": "uint256",
          "name": "team1id",
          "type": "uint256"
        },
        {
          "internalType": "uint256",
          "name": "team2id",
          "type": "uint256"
        }
      ],
      "name": "createGameRequest",
      "outputs": [],
      "stateMutability": "nonpayable",
      "type": "function"
    },
    {
      "inputs": [
        {
          "internalType": "address",
          "name": "sender",
          "type": "address"
        },
        {
          "internalType": "uint256",
          "name": "team1id",
          "type": "uint256"
        },
        {
          "internalType": "uint256",
          "name": "team2id",
          "type": "uint256"
        }
      ],
      "name": "createGameRequestRelayer",
      "outputs": [],
      "stateMutability": "nonpayable",
      "type": "function"
    },
    {
      "inputs": [
        {
          "internalType": "string",
          "name": "name",
          "type": "string"
        },
        {
          "internalType": "uint8",
          "name": "country",
          "type": "uint8"
        }
      ],
      "name": "createTeam",
      "outputs": [],
      "stateMutability": "nonpayable",
      "type": "function"
    },
    {
      "inputs": [
        {
          "internalType": "address",
          "name": "sender",
          "type": "address"
        },
        {
          "internalType": "string",
          "name": "name",
          "type": "string"
        },
        {
          "internalType": "uint8",
          "name": "country",
          "type": "uint8"
        }
      ],
      "name": "createTeamRelayer",
      "outputs": [],
      "stateMutability": "nonpayable",
      "type": "function"
    },
    {
      "inputs": [
        {
          "internalType": "uint256",
          "name": "gameId",
          "type": "uint256"
        }
      ],
      "name": "finishGameByTimeout",
      "outputs": [],
      "stateMutability": "nonpayable",
      "type": "function"
    },
    {
      "inputs": [
        {
          "internalType": "address",
          "name": "sender",
          "type": "address"
        },
        {
          "internalType": "uint256",
          "name": "gameId",
          "type": "uint256"
        }
      ],
      "name": "finishGameByTimeoutRelayer",
      "outputs": [],
      "stateMutability": "nonpayable",
      "type": "function"
    },
    {
      "inputs": [],
      "name": "gameEngineServerAddress",
      "outputs": [
        {
          "internalType": "address",
          "name": "",
          "type": "address"
        }
      ],
      "stateMutability": "view",
      "type": "function"
    },
    {
      "inputs": [],
      "name": "gamePublicKey",
      "outputs": [
        {
          "internalType": "string",
          "name": "",
          "type": "string"
        }
      ],
      "stateMutability": "view",
      "type": "function"
    },
    {
      "inputs": [],
      "name": "gameRequestIndex",
      "outputs": [
        {
          "internalType": "uint256",
          "name": "",
          "type": "uint256"
        }
      ],
      "stateMutability": "view",
      "type": "function"
    },
    {
      "inputs": [
        {
          "internalType": "uint256",
          "name": "",
          "type": "uint256"
        }
      ],
      "name": "gameRequests",
      "outputs": [
        {
          "internalType": "uint256",
          "name": "gameRequestId",
          "type": "uint256"
        },
        {
          "internalType": "uint256",
          "name": "team1id",
          "type": "uint256"
        },
        {
          "internalType": "uint256",
          "name": "team2id",
          "type": "uint256"
        },
        {
          "internalType": "uint256",
          "name": "createdAt",
          "type": "uint256"
        }
      ],
      "stateMutability": "view",
      "type": "function"
    },
    {
      "inputs": [
        {
          "internalType": "uint256",
          "name": "",
          "type": "uint256"
        }
      ],
      "name": "games",
      "outputs": [
        {
          "internalType": "uint256",
          "name": "gameId",
          "type": "uint256"
        },
        {
          "internalType": "uint256",
          "name": "createdAt",
          "type": "uint256"
        },
        {
          "components": [
            {
              "internalType": "uint8",
              "name": "movesMade",
              "type": "uint8"
            },
            {
              "internalType": "uint64",
              "name": "lastMoveAt",
              "type": "uint64"
            },
            {
              "internalType": "bytes32",
              "name": "team1MovesEncrypted",
              "type": "bytes32"
            },
            {
              "internalType": "bytes32",
              "name": "team2MovesEncrypted",
              "type": "bytes32"
            },
            {
              "internalType": "enum GameLib.TeamEnum",
              "name": "lastMoveTeam",
              "type": "uint8"
            },
            {
              "internalType": "uint8",
              "name": "team1score",
              "type": "uint8"
            },
            {
              "internalType": "uint8",
              "name": "team2score",
              "type": "uint8"
            }
          ],
          "internalType": "struct GameLib.GameState",
          "name": "gameState",
          "type": "tuple"
        },
        {
          "components": [
            {
              "internalType": "uint256",
              "name": "teamId",
              "type": "uint256"
            },
            {
              "internalType": "uint64",
              "name": "eloRating",
              "type": "uint64"
            },
            {
              "internalType": "uint64",
              "name": "eloRatingNew",
              "type": "uint64"
            },
            {
              "internalType": "enum GameLib.TeamFormation",
              "name": "formation",
              "type": "uint8"
            },
            {
              "internalType": "uint256[5]",
              "name": "__gap",
              "type": "uint256[5]"
            }
          ],
          "internalType": "struct GameLib.TeamInfo",
          "name": "team1",
          "type": "tuple"
        },
        {
          "components": [
            {
              "internalType": "uint256",
              "name": "teamId",
              "type": "uint256"
            },
            {
              "internalType": "uint64",
              "name": "eloRating",
              "type": "uint64"
            },
            {
              "internalType": "uint64",
              "name": "eloRatingNew",
              "type": "uint64"
            },
            {
              "internalType": "enum GameLib.TeamFormation",
              "name": "formation",
              "type": "uint8"
            },
            {
              "internalType": "uint256[5]",
              "name": "__gap",
              "type": "uint256[5]"
            }
          ],
          "internalType": "struct GameLib.TeamInfo",
          "name": "team2",
          "type": "tuple"
        },
        {
          "internalType": "enum GameLib.GameStatus",
          "name": "status",
          "type": "uint8"
        },
        {
          "internalType": "enum GameLib.TeamEnum",
          "name": "winner",
          "type": "uint8"
        },
        {
          "components": [
            {
              "components": [
                {
                  "internalType": "uint8",
                  "name": "x",
                  "type": "uint8"
                },
                {
                  "internalType": "uint8",
                  "name": "y",
                  "type": "uint8"
                }
              ],
              "internalType": "struct GameLib.Position[6]",
              "name": "team1PlayerPositions",
              "type": "tuple[6]"
            },
            {
              "components": [
                {
                  "internalType": "uint8",
                  "name": "x",
                  "type": "uint8"
                },
                {
                  "internalType": "uint8",
                  "name": "y",
                  "type": "uint8"
                }
              ],
              "internalType": "struct GameLib.Position[6]",
              "name": "team2PlayerPositions",
              "type": "tuple[6]"
            },
            {
              "components": [
                {
                  "internalType": "uint8",
                  "name": "x",
                  "type": "uint8"
                },
                {
                  "internalType": "uint8",
                  "name": "y",
                  "type": "uint8"
                }
              ],
              "internalType": "struct GameLib.Position",
              "name": "ballPosition",
              "type": "tuple"
            },
            {
              "internalType": "enum GameLib.TeamEnum",
              "name": "ballOwner",
              "type": "uint8"
            }
          ],
          "internalType": "struct GameLib.BoardState",
          "name": "lastBoardState",
          "type": "tuple"
        },
        {
          "internalType": "bytes32",
          "name": "historyIPFS",
          "type": "bytes32"
        },
        {
          "internalType": "bool",
          "name": "isVerified",
          "type": "bool"
        },
        {
          "internalType": "bytes",
          "name": "encryptedKey",
          "type": "bytes"
        },
        {
          "internalType": "uint8",
          "name": "gameEngineVersion",
          "type": "uint8"
        }
      ],
      "stateMutability": "view",
      "type": "function"
    },
    {
      "inputs": [],
      "name": "gelatoAddress",
      "outputs": [
        {
          "internalType": "address",
          "name": "",
          "type": "address"
        }
      ],
      "stateMutability": "view",
      "type": "function"
    },
    {
      "inputs": [],
      "name": "getActiveGameCount",
      "outputs": [
        {
          "internalType": "uint256",
          "name": "",
          "type": "uint256"
        }
      ],
      "stateMutability": "view",
      "type": "function"
    },
    {
      "inputs": [],
      "name": "getActiveGames",
      "outputs": [
        {
          "internalType": "uint256[]",
          "name": "",
          "type": "uint256[]"
        }
      ],
      "stateMutability": "view",
      "type": "function"
    },
    {
      "inputs": [
        {
          "internalType": "uint256",
          "name": "gameId",
          "type": "uint256"
        }
      ],
      "name": "getGame",
      "outputs": [
        {
          "components": [
            {
              "internalType": "uint256",
              "name": "gameId",
              "type": "uint256"
            },
            {
              "internalType": "uint256",
              "name": "createdAt",
              "type": "uint256"
            },
            {
              "components": [
                {
                  "internalType": "uint8",
                  "name": "movesMade",
                  "type": "uint8"
                },
                {
                  "internalType": "uint64",
                  "name": "lastMoveAt",
                  "type": "uint64"
                },
                {
                  "internalType": "bytes32",
                  "name": "team1MovesEncrypted",
                  "type": "bytes32"
                },
                {
                  "internalType": "bytes32",
                  "name": "team2MovesEncrypted",
                  "type": "bytes32"
                },
                {
                  "internalType": "enum GameLib.TeamEnum",
                  "name": "lastMoveTeam",
                  "type": "uint8"
                },
                {
                  "internalType": "uint8",
                  "name": "team1score",
                  "type": "uint8"
                },
                {
                  "internalType": "uint8",
                  "name": "team2score",
                  "type": "uint8"
                }
              ],
              "internalType": "struct GameLib.GameState",
              "name": "gameState",
              "type": "tuple"
            },
            {
              "components": [
                {
                  "internalType": "uint256",
                  "name": "teamId",
                  "type": "uint256"
                },
                {
                  "internalType": "uint64",
                  "name": "eloRating",
                  "type": "uint64"
                },
                {
                  "internalType": "uint64",
                  "name": "eloRatingNew",
                  "type": "uint64"
                },
                {
                  "internalType": "enum GameLib.TeamFormation",
                  "name": "formation",
                  "type": "uint8"
                },
                {
                  "internalType": "uint256[5]",
                  "name": "__gap",
                  "type": "uint256[5]"
                }
              ],
              "internalType": "struct GameLib.TeamInfo",
              "name": "team1",
              "type": "tuple"
            },
            {
              "components": [
                {
                  "internalType": "uint256",
                  "name": "teamId",
                  "type": "uint256"
                },
                {
                  "internalType": "uint64",
                  "name": "eloRating",
                  "type": "uint64"
                },
                {
                  "internalType": "uint64",
                  "name": "eloRatingNew",
                  "type": "uint64"
                },
                {
                  "internalType": "enum GameLib.TeamFormation",
                  "name": "formation",
                  "type": "uint8"
                },
                {
                  "internalType": "uint256[5]",
                  "name": "__gap",
                  "type": "uint256[5]"
                }
              ],
              "internalType": "struct GameLib.TeamInfo",
              "name": "team2",
              "type": "tuple"
            },
            {
              "internalType": "enum GameLib.GameStatus",
              "name": "status",
              "type": "uint8"
            },
            {
              "internalType": "enum GameLib.TeamEnum",
              "name": "winner",
              "type": "uint8"
            },
            {
              "components": [
                {
                  "components": [
                    {
                      "internalType": "uint8",
                      "name": "x",
                      "type": "uint8"
                    },
                    {
                      "internalType": "uint8",
                      "name": "y",
                      "type": "uint8"
                    }
                  ],
                  "internalType": "struct GameLib.Position[6]",
                  "name": "team1PlayerPositions",
                  "type": "tuple[6]"
                },
                {
                  "components": [
                    {
                      "internalType": "uint8",
                      "name": "x",
                      "type": "uint8"
                    },
                    {
                      "internalType": "uint8",
                      "name": "y",
                      "type": "uint8"
                    }
                  ],
                  "internalType": "struct GameLib.Position[6]",
                  "name": "team2PlayerPositions",
                  "type": "tuple[6]"
                },
                {
                  "components": [
                    {
                      "internalType": "uint8",
                      "name": "x",
                      "type": "uint8"
                    },
                    {
                      "internalType": "uint8",
                      "name": "y",
                      "type": "uint8"
                    }
                  ],
                  "internalType": "struct GameLib.Position",
                  "name": "ballPosition",
                  "type": "tuple"
                },
                {
                  "internalType": "enum GameLib.TeamEnum",
                  "name": "ballOwner",
                  "type": "uint8"
                }
              ],
              "internalType": "struct GameLib.BoardState",
              "name": "lastBoardState",
              "type": "tuple"
            },
            {
              "internalType": "bytes32",
              "name": "historyIPFS",
              "type": "bytes32"
            },
            {
              "internalType": "bool",
              "name": "isVerified",
              "type": "bool"
            },
            {
              "internalType": "bytes",
              "name": "encryptedKey",
              "type": "bytes"
            },
            {
              "internalType": "uint8",
              "name": "gameEngineVersion",
              "type": "uint8"
            },
            {
              "internalType": "uint256[10]",
              "name": "__gap",
              "type": "uint256[10]"
            }
          ],
          "internalType": "struct GameLib.Game",
          "name": "",
          "type": "tuple"
        }
      ],
      "stateMutability": "view",
      "type": "function"
    },
    {
      "inputs": [
        {
          "internalType": "uint256",
          "name": "requestId",
          "type": "uint256"
        }
      ],
      "name": "getGameRequest",
      "outputs": [
        {
          "components": [
            {
              "internalType": "uint256",
              "name": "gameRequestId",
              "type": "uint256"
            },
            {
              "internalType": "uint256",
              "name": "team1id",
              "type": "uint256"
            },
            {
              "internalType": "uint256",
              "name": "team2id",
              "type": "uint256"
            },
            {
              "internalType": "uint256",
              "name": "createdAt",
              "type": "uint256"
            }
          ],
          "internalType": "struct GameLib.GameRequest",
          "name": "",
          "type": "tuple"
        }
      ],
      "stateMutability": "view",
      "type": "function"
    },
    {
      "inputs": [
        {
          "internalType": "uint256",
          "name": "gameId",
          "type": "uint256"
        }
      ],
      "name": "getGameStatus",
      "outputs": [
        {
          "internalType": "enum GameLib.GameStatus",
          "name": "",
          "type": "uint8"
        }
      ],
      "stateMutability": "view",
      "type": "function"
    },
    {
      "inputs": [
        {
          "internalType": "uint256",
          "name": "teamId",
          "type": "uint256"
        },
        {
          "internalType": "uint256",
          "name": "n",
          "type": "uint256"
        }
      ],
      "name": "getLastNGames",
      "outputs": [
        {
          "components": [
            {
              "internalType": "uint256",
              "name": "gameId",
              "type": "uint256"
            },
            {
              "internalType": "uint256",
              "name": "createdAt",
              "type": "uint256"
            },
            {
              "components": [
                {
                  "internalType": "uint8",
                  "name": "movesMade",
                  "type": "uint8"
                },
                {
                  "internalType": "uint64",
                  "name": "lastMoveAt",
                  "type": "uint64"
                },
                {
                  "internalType": "bytes32",
                  "name": "team1MovesEncrypted",
                  "type": "bytes32"
                },
                {
                  "internalType": "bytes32",
                  "name": "team2MovesEncrypted",
                  "type": "bytes32"
                },
                {
                  "internalType": "enum GameLib.TeamEnum",
                  "name": "lastMoveTeam",
                  "type": "uint8"
                },
                {
                  "internalType": "uint8",
                  "name": "team1score",
                  "type": "uint8"
                },
                {
                  "internalType": "uint8",
                  "name": "team2score",
                  "type": "uint8"
                }
              ],
              "internalType": "struct GameLib.GameState",
              "name": "gameState",
              "type": "tuple"
            },
            {
              "components": [
                {
                  "internalType": "uint256",
                  "name": "teamId",
                  "type": "uint256"
                },
                {
                  "internalType": "uint64",
                  "name": "eloRating",
                  "type": "uint64"
                },
                {
                  "internalType": "uint64",
                  "name": "eloRatingNew",
                  "type": "uint64"
                },
                {
                  "internalType": "enum GameLib.TeamFormation",
                  "name": "formation",
                  "type": "uint8"
                },
                {
                  "internalType": "uint256[5]",
                  "name": "__gap",
                  "type": "uint256[5]"
                }
              ],
              "internalType": "struct GameLib.TeamInfo",
              "name": "team1",
              "type": "tuple"
            },
            {
              "components": [
                {
                  "internalType": "uint256",
                  "name": "teamId",
                  "type": "uint256"
                },
                {
                  "internalType": "uint64",
                  "name": "eloRating",
                  "type": "uint64"
                },
                {
                  "internalType": "uint64",
                  "name": "eloRatingNew",
                  "type": "uint64"
                },
                {
                  "internalType": "enum GameLib.TeamFormation",
                  "name": "formation",
                  "type": "uint8"
                },
                {
                  "internalType": "uint256[5]",
                  "name": "__gap",
                  "type": "uint256[5]"
                }
              ],
              "internalType": "struct GameLib.TeamInfo",
              "name": "team2",
              "type": "tuple"
            },
            {
              "internalType": "enum GameLib.GameStatus",
              "name": "status",
              "type": "uint8"
            },
            {
              "internalType": "enum GameLib.TeamEnum",
              "name": "winner",
              "type": "uint8"
            },
            {
              "components": [
                {
                  "components": [
                    {
                      "internalType": "uint8",
                      "name": "x",
                      "type": "uint8"
                    },
                    {
                      "internalType": "uint8",
                      "name": "y",
                      "type": "uint8"
                    }
                  ],
                  "internalType": "struct GameLib.Position[6]",
                  "name": "team1PlayerPositions",
                  "type": "tuple[6]"
                },
                {
                  "components": [
                    {
                      "internalType": "uint8",
                      "name": "x",
                      "type": "uint8"
                    },
                    {
                      "internalType": "uint8",
                      "name": "y",
                      "type": "uint8"
                    }
                  ],
                  "internalType": "struct GameLib.Position[6]",
                  "name": "team2PlayerPositions",
                  "type": "tuple[6]"
                },
                {
                  "components": [
                    {
                      "internalType": "uint8",
                      "name": "x",
                      "type": "uint8"
                    },
                    {
                      "internalType": "uint8",
                      "name": "y",
                      "type": "uint8"
                    }
                  ],
                  "internalType": "struct GameLib.Position",
                  "name": "ballPosition",
                  "type": "tuple"
                },
                {
                  "internalType": "enum GameLib.TeamEnum",
                  "name": "ballOwner",
                  "type": "uint8"
                }
              ],
              "internalType": "struct GameLib.BoardState",
              "name": "lastBoardState",
              "type": "tuple"
            },
            {
              "internalType": "bytes32",
              "name": "historyIPFS",
              "type": "bytes32"
            },
            {
              "internalType": "bool",
              "name": "isVerified",
              "type": "bool"
            },
            {
              "internalType": "bytes",
              "name": "encryptedKey",
              "type": "bytes"
            },
            {
              "internalType": "uint8",
              "name": "gameEngineVersion",
              "type": "uint8"
            },
            {
              "internalType": "uint256[10]",
              "name": "__gap",
              "type": "uint256[10]"
            }
          ],
          "internalType": "struct GameLib.Game[]",
          "name": "",
          "type": "tuple[]"
        }
      ],
      "stateMutability": "view",
      "type": "function"
    },
    {
      "inputs": [
        {
          "internalType": "uint256",
          "name": "teamId",
          "type": "uint256"
        }
      ],
      "name": "getTeam",
      "outputs": [
        {
          "components": [
            {
              "internalType": "uint256",
              "name": "id",
              "type": "uint256"
            },
            {
              "internalType": "address",
              "name": "wallet",
              "type": "address"
            },
            {
              "internalType": "string",
              "name": "name",
              "type": "string"
            },
            {
              "internalType": "uint64",
              "name": "eloRating",
              "type": "uint64"
            },
            {
              "internalType": "uint256",
              "name": "registeredAt",
              "type": "uint256"
            },
            {
              "internalType": "uint256[]",
              "name": "games",
              "type": "uint256[]"
            },
            {
              "internalType": "uint8",
              "name": "country",
              "type": "uint8"
            },
            {
              "internalType": "bool",
              "name": "hasActiveGame",
              "type": "bool"
            },
            {
              "internalType": "uint256",
              "name": "gameRequestId",
              "type": "uint256"
            },
            {
              "internalType": "uint64",
              "name": "totalGames",
              "type": "uint64"
            },
            {
              "internalType": "uint256[10]",
              "name": "__gap",
              "type": "uint256[10]"
            }
          ],
          "internalType": "struct GameLib.Team",
          "name": "",
          "type": "tuple"
        }
      ],
      "stateMutability": "view",
      "type": "function"
    },
    {
      "inputs": [
        {
          "internalType": "address",
          "name": "wallet",
          "type": "address"
        }
      ],
      "name": "getTeamIdByWallet",
      "outputs": [
        {
          "internalType": "uint256",
          "name": "",
          "type": "uint256"
        }
      ],
      "stateMutability": "view",
      "type": "function"
    },
    {
      "inputs": [
        {
          "internalType": "address",
          "name": "_gelatoAddress",
          "type": "address"
        },
        {
          "internalType": "address",
          "name": "_relayerAddress",
          "type": "address"
        },
        {
          "internalType": "address",
          "name": "_relayerSmartAccountAddress",
          "type": "address"
        },
        {
          "internalType": "address",
          "name": "_gameEngineServerAddress",
          "type": "address"
        },
        {
          "internalType": "string",
          "name": "_publicKey",
          "type": "string"
        }
      ],
      "name": "initialize",
      "outputs": [],
      "stateMutability": "nonpayable",
      "type": "function"
    },
    {
      "inputs": [
        {
          "internalType": "uint256",
          "name": "gameId",
          "type": "uint256"
        },
        {
          "internalType": "enum GameLib.StateType",
          "name": "stateType",
          "type": "uint8"
        },
        {
          "internalType": "uint8[]",
          "name": "clashRandomNumbers",
          "type": "uint8[]"
        },
        {
          "components": [
            {
              "internalType": "uint256",
              "name": "playerId",
              "type": "uint256"
            },
            {
              "internalType": "enum GameLib.MoveType",
              "name": "moveType",
              "type": "uint8"
            },
            {
              "components": [
                {
                  "internalType": "uint8",
                  "name": "x",
                  "type": "uint8"
                },
                {
                  "internalType": "uint8",
                  "name": "y",
                  "type": "uint8"
                }
              ],
              "internalType": "struct GameLib.Position",
              "name": "oldPosition",
              "type": "tuple"
            },
            {
              "components": [
                {
                  "internalType": "uint8",
                  "name": "x",
                  "type": "uint8"
                },
                {
                  "internalType": "uint8",
                  "name": "y",
                  "type": "uint8"
                }
              ],
              "internalType": "struct GameLib.Position",
              "name": "newPosition",
              "type": "tuple"
            }
          ],
          "internalType": "struct GameLib.GameAction[]",
          "name": "team1Actions",
          "type": "tuple[]"
        },
        {
          "components": [
            {
              "internalType": "uint256",
              "name": "playerId",
              "type": "uint256"
            },
            {
              "internalType": "enum GameLib.MoveType",
              "name": "moveType",
              "type": "uint8"
            },
            {
              "components": [
                {
                  "internalType": "uint8",
                  "name": "x",
                  "type": "uint8"
                },
                {
                  "internalType": "uint8",
                  "name": "y",
                  "type": "uint8"
                }
              ],
              "internalType": "struct GameLib.Position",
              "name": "oldPosition",
              "type": "tuple"
            },
            {
              "components": [
                {
                  "internalType": "uint8",
                  "name": "x",
                  "type": "uint8"
                },
                {
                  "internalType": "uint8",
                  "name": "y",
                  "type": "uint8"
                }
              ],
              "internalType": "struct GameLib.Position",
              "name": "newPosition",
              "type": "tuple"
            }
          ],
          "internalType": "struct GameLib.GameAction[]",
          "name": "team2Actions",
          "type": "tuple[]"
        },
        {
          "components": [
            {
              "components": [
                {
                  "internalType": "uint8",
                  "name": "x",
                  "type": "uint8"
                },
                {
                  "internalType": "uint8",
                  "name": "y",
                  "type": "uint8"
                }
              ],
              "internalType": "struct GameLib.Position[6]",
              "name": "team1PlayerPositions",
              "type": "tuple[6]"
            },
            {
              "components": [
                {
                  "internalType": "uint8",
                  "name": "x",
                  "type": "uint8"
                },
                {
                  "internalType": "uint8",
                  "name": "y",
                  "type": "uint8"
                }
              ],
              "internalType": "struct GameLib.Position[6]",
              "name": "team2PlayerPositions",
              "type": "tuple[6]"
            },
            {
              "components": [
                {
                  "internalType": "uint8",
                  "name": "x",
                  "type": "uint8"
                },
                {
                  "internalType": "uint8",
                  "name": "y",
                  "type": "uint8"
                }
              ],
              "internalType": "struct GameLib.Position",
              "name": "ballPosition",
              "type": "tuple"
            },
            {
              "internalType": "enum GameLib.TeamEnum",
              "name": "ballOwner",
              "type": "uint8"
            }
          ],
          "internalType": "struct GameLib.BoardState",
          "name": "boardState",
          "type": "tuple"
        }
      ],
      "name": "newGameState",
      "outputs": [],
      "stateMutability": "nonpayable",
      "type": "function"
    },
    {
      "inputs": [],
      "name": "nextGameId",
      "outputs": [
        {
          "internalType": "uint256",
          "name": "",
          "type": "uint256"
        }
      ],
      "stateMutability": "view",
      "type": "function"
    },
    {
      "inputs": [],
      "name": "nextTeamId",
      "outputs": [
        {
          "internalType": "uint256",
          "name": "",
          "type": "uint256"
        }
      ],
      "stateMutability": "view",
      "type": "function"
    },
    {
      "inputs": [],
      "name": "owner",
      "outputs": [
        {
          "internalType": "address",
          "name": "",
          "type": "address"
        }
      ],
      "stateMutability": "view",
      "type": "function"
    },
    {
      "inputs": [],
      "name": "proxiableUUID",
      "outputs": [
        {
          "internalType": "bytes32",
          "name": "",
          "type": "bytes32"
        }
      ],
      "stateMutability": "view",
      "type": "function"
    },
    {
      "inputs": [],
      "name": "relayerAddress",
      "outputs": [
        {
          "internalType": "address",
          "name": "",
          "type": "address"
        }
      ],
      "stateMutability": "view",
      "type": "function"
    },
    {
      "inputs": [],
      "name": "relayerSmartAccountAddress",
      "outputs": [
        {
          "internalType": "address",
          "name": "",
          "type": "address"
        }
      ],
      "stateMutability": "view",
      "type": "function"
    },
    {
      "inputs": [],
      "name": "renounceOwnership",
      "outputs": [],
      "stateMutability": "nonpayable",
      "type": "function"
    },
    {
      "inputs": [
        {
          "internalType": "uint256",
          "name": "gameId",
          "type": "uint256"
        },
        {
          "internalType": "enum GameLib.TeamEnum",
          "name": "cauzedByTeam",
          "type": "uint8"
        },
        {
          "internalType": "enum ChessBallGame.ErrorType",
          "name": "errorType",
          "type": "uint8"
        },
        {
          "internalType": "string",
          "name": "errorMsg",
          "type": "string"
        }
      ],
      "name": "setGameError",
      "outputs": [],
      "stateMutability": "nonpayable",
      "type": "function"
    },
    {
      "inputs": [
        {
          "internalType": "address",
          "name": "_relayerSmartAccountAddress",
          "type": "address"
        }
      ],
      "name": "setRelayerSmartAccountAddress",
      "outputs": [],
      "stateMutability": "nonpayable",
      "type": "function"
    },
    {
      "inputs": [
        {
          "internalType": "uint256",
          "name": "gameRequestId",
          "type": "uint256"
        },
        {
          "internalType": "bytes",
          "name": "_encryptedKey",
          "type": "bytes"
        }
      ],
      "name": "startGame",
      "outputs": [],
      "stateMutability": "nonpayable",
      "type": "function"
    },
    {
      "inputs": [
        {
          "internalType": "address",
          "name": "sender",
          "type": "address"
        },
        {
          "internalType": "uint256",
          "name": "gameRequestId",
          "type": "uint256"
        },
        {
          "internalType": "bytes",
          "name": "_encryptedKey",
          "type": "bytes"
        }
      ],
      "name": "startGameRelayer",
      "outputs": [],
      "stateMutability": "nonpayable",
      "type": "function"
    },
    {
      "inputs": [
        {
          "internalType": "address",
          "name": "",
          "type": "address"
        }
      ],
      "name": "teamIdByWallet",
      "outputs": [
        {
          "internalType": "uint256",
          "name": "",
          "type": "uint256"
        }
      ],
      "stateMutability": "view",
      "type": "function"
    },
    {
      "inputs": [
        {
          "internalType": "string",
          "name": "",
          "type": "string"
        }
      ],
      "name": "teamNames",
      "outputs": [
        {
          "internalType": "bool",
          "name": "",
          "type": "bool"
        }
      ],
      "stateMutability": "view",
      "type": "function"
    },
    {
      "inputs": [
        {
          "internalType": "uint256",
          "name": "",
          "type": "uint256"
        }
      ],
      "name": "teams",
      "outputs": [
        {
          "internalType": "uint256",
          "name": "id",
          "type": "uint256"
        },
        {
          "internalType": "address",
          "name": "wallet",
          "type": "address"
        },
        {
          "internalType": "string",
          "name": "name",
          "type": "string"
        },
        {
          "internalType": "uint64",
          "name": "eloRating",
          "type": "uint64"
        },
        {
          "internalType": "uint256",
          "name": "registeredAt",
          "type": "uint256"
        },
        {
          "internalType": "uint8",
          "name": "country",
          "type": "uint8"
        },
        {
          "internalType": "bool",
          "name": "hasActiveGame",
          "type": "bool"
        },
        {
          "internalType": "uint256",
          "name": "gameRequestId",
          "type": "uint256"
        },
        {
          "internalType": "uint64",
          "name": "totalGames",
          "type": "uint64"
        }
      ],
      "stateMutability": "view",
      "type": "function"
    },
    {
      "inputs": [
        {
          "internalType": "uint256",
          "name": "gameId",
          "type": "uint256"
        }
      ],
      "name": "testTriggerGameActionCommitted",
      "outputs": [],
      "stateMutability": "nonpayable",
      "type": "function"
    },
    {
      "inputs": [
        {
          "internalType": "address",
          "name": "newOwner",
          "type": "address"
        }
      ],
      "name": "transferOwnership",
      "outputs": [],
      "stateMutability": "nonpayable",
      "type": "function"
    },
    {
      "inputs": [
        {
          "internalType": "address",
          "name": "newImplementation",
          "type": "address"
        },
        {
          "internalType": "bytes",
          "name": "data",
          "type": "bytes"
        }
      ],
      "name": "upgradeToAndCall",
      "outputs": [],
      "stateMutability": "payable",
      "type": "function"
    }
  ],
  "bytecode": "0x60a08060405234620000d157306080527ff0c57e16840df040f15088dc2f81fe391c3923bec73e23a9662efc9c229c6a009081549060ff8260401c16620000c257506001600160401b036002600160401b0319828216016200007c575b6040516154cd9081620000d7823960805181818161159e01526116820152f35b6001600160401b031990911681179091556040519081527fc7f505b2f371ae2175ee4913f4499e1f2633a7b5936321eed1cdaeb6115181d290602090a13880806200005c565b63f92ee8a960e01b8152600490fd5b600080fdfe608080604052600436101561001357600080fd5b60003560e01c9081628e0f1b146122e05750806302f785fd146122535780630f1bf454146122015780630fb9f8691461208a578063117a5b9014611f5557806313e4c71414611f1e5780631894c75614611f0057806318a7cca814611ed75780631b76929c14611e3e57806322d60b1a14611e265780632681438714611de05780632cc9c96414611db75780632df84be514611cb05780632fb3b361146119cf57806337900ba2146119985780633ed2b77a146118da57806349e3969a146118845780634cf97fad1461183d5780634f1ef2861461163357806351903bd9146115f657806352d1902d1461158b57806359bcfbe4146114c557806368599d0c146114a75780636e6964d714611446578063715018a6146113ee57806371f5001f1461095357806379b880ac1461078c5780637bb597fa1461076e5780638da5cb5b1461073857806392a52e81146106ea578063a2f77bcc146105b4578063a462816c1461058b578063a89ae45714610562578063ad3cb1cc14610518578063afcaa6e3146104a4578063b135bbb014610486578063c4b634f31461040b578063c648041314610202578063c9495041146103b9578063e34c2e5814610326578063ec5c504e14610309578063f2b1ffcf1461026c578063f2fde38b146102415763ff156d001461020257600080fd5b3461023c57602036600319011261023c576001600160a01b03610223612c60565b1660005260056020526020604060002054604051908152f35b600080fd5b3461023c57602036600319011261023c5761026a61025d612c60565b610265613597565b61338d565b005b3461023c57608036600319011261023c57610285612c60565b60243590604435600381101561023c57600154336001600160a01b03918216141590816102fa575b506102e857826000526003602052600160406000200154156102d65761026a9260643592614a3d565b60405163b0ce759160e01b8152600490fd5b604051639608c6ff60e01b8152600490fd5b9050600d5416331415846102ad565b3461023c57602036600319011261023c5761026a600435336148d0565b3461023c57602036600319011261023c57600435610342613368565b50806000526009602052600360406000200154156102d6576000526009602052608060406000206040516103758161287e565b815491828252600181015460208301908152606060036002840154936040860194855201549301928352604051938452516020840152516040830152516060820152f35b3461023c57604036600319011261023c576103d2612c60565b600154336001600160a01b03918216141590816103fc575b506102e85761026a90602435906148d0565b9050600d5416331415826103ea565b3461023c57606036600319011261023c57610424612c60565b6024356001600160401b03811161023c57610443903690600401612973565b6044359060ff8216820361023c57600154336001600160a01b0391821614159081610477575b506102e85761026a92613633565b9050600d541633141584610469565b3461023c57600036600319011261023c576020600654604051908152f35b3461023c57606036600319011261023c576104bd612c60565b6044356001600160401b03811161023c576104dc903690600401612c84565b600154909190336001600160a01b0391821614159081610509575b506102e85761026a9260243590613c63565b9050600d5416331415846104f7565b3461023c57600036600319011261023c5761055e604051610538816128b4565b60058152640352e302e360dc1b6020820152604051918291602083526020830190612575565b0390f35b3461023c57600036600319011261023c57600d546040516001600160a01b039091168152602090f35b3461023c57600036600319011261023c576002546040516001600160a01b039091168152602090f35b3461023c5760208060031936011261023c576004356105d1612dc0565b508060005260038252600160406000200154156102d657600052600381526040600020906106d060276040519361060785612862565b805485526001810154848601526106206002820161299a565b604086015261063160068201612a00565b6060860152610642600d8201612a00565b608086015261066f60ff601483015481811661065d816126af565b60a089015260081c1660c0870161298e565b61067b60158201612af8565b60e0860152602381015461010086015260ff60248201541615156101208601526040516106b6816106af8160258601612b81565b03826128fe565b61014086015260ff60268201541661016086015201612ce1565b61018083015261055e60405192828493845283019061274e565b3461023c57602036600319011261023c576004356000526009602052608060406000208054906001810154906003600282015491015491604051938452602084015260408301526060820152f35b3461023c57600036600319011261023c57600080516020615398833981519152546040516001600160a01b039091168152602090f35b3461023c57600036600319011261023c576020600a54604051908152f35b3461023c57604036600319011261023c576107a5612c60565b60018054602435926001600160a01b039291831633141580610945575b6102e8578360005260036020528160406000200154156102d6578360005260036020528160406000200154156102d6578360005260036020526040600020928260ff601486015416610813816126af565b03610933576006840154600052600460205280808460406000200154169216809214159283610915575b5050506109035760038101541580156108f7575b6108e55760018060401b03600282015460081c16603c81018091116108cf574211156108bd576005015460ff1660038110156108a757156108955761026a906146be565b6040516356eff76b60e01b8152600490fd5b634e487b7160e01b600052602160045260246000fd5b604051634e7fc88160e11b8152600490fd5b634e487b7160e01b600052601160045260246000fd5b604051631e86addb60e01b8152600490fd5b50600481015415610851565b604051633093624d60e21b8152600490fd5b90919250600d8401546000526040600020015416141583808061083d565b6040516314bc0c2f60e31b8152600490fd5b5082600d54163314156107c2565b3461023c5761040036600319011261023c576004602435101561023c576001600160401b036044351161023c5736602360443501121561023c576001600160401b03600460443501351161023c573660246044356004013560051b60443501011161023c576064356001600160401b03811161023c576109d7903690600401612cb1565b6084356001600160401b03811161023c576109f6903690600401612cb1565b90916103603660a319011261023c576004356000526003602052600160406000200154156102d657600254336001600160a01b03918216141590816113de575b816113cf575b506113bd576004356000526003602052604060002092600160ff601486015416610a65816126af565b036109335760ff60028501541661138d575b60158401600060a45b6006821061135757505050601b840160006102245b6006821061131b575050506103a43560ff8116810361023c5760ff1660ff1960218601541617602185015560ff6103c435166103c4350361023c57610ae06103c4356021860161324c565b60036103e435101561023c57610afc6103e435602286016131c2565b610bf6600285015460ff610b11818316613262565b91610b1d6024356126af565b60243560020361130b57610b398260058a015460081c16613262565b925b610b466024356126af565b6024356003036112fb57610b628360058b015460101c16613262565b915b604051610b7081612847565b848316815260018060401b034216602082015260006040820152600060608201526000608082015284861660a082015260c085851691015283610100600160481b034260081b1692169060018060481b031916171760028901556000600389015560006004890155610bef8260058a019481198654168655168461324c565b1690613274565b610c016024356126af565b6024356002036112c45760405160018152600080516020615378833981519152602060043592a25b835492604051926104008401610c406024356126af565b6024358552426020860152610400604086015260443560040135905261042084019660246044350160005b6044356004013581106112a457505093610ccb600296947f1cc12e86ff5f2b2e761ab2fd8a6e3ee635d92958237b110363a2868ed2b6f8be94610cbd8b859660ff9c9a87602d9f0360608901526132ae565b9184830360808601526132ae565b610cdb60a083016015880161332b565b610cec6102208301601b880161332b565b610d0c6103a083016021880160ff60209154818116845260081c16910152565b610d21886022880154166103e08401906125d8565b0390a20154161015610d2f57005b600060043560005260036020526040600020602d60ff600283015416106112925760068101546000526004602052610d796040600020600d8301546000526040600020908361513e565b5060043560005260036020526040600020600681015460005260046020526040600020600d8201546000526040600020916032600582015460ff808260081c169160101c16908181116000146112845750505060645b6005830154158061126d575b611221575b6005840154158061120a575b6111be575b6007820154600e8301546001600160401b039081169116808210156111b557818103905b61046682101561023c578083106111a7575b601992101561119e57610320035b04600a600182161561119357600a919088915b60011c90815b6111405750505091610f5591610e7f610e77610e72610e72610e72602099986152c6565b6152c6565b60640161523f565b9060140281811091826000146111385703905b156110de57600386018054916001600160401b039081169190610eb78385831661520d565b166001600160401b0319938416179055600385018054909290916001600160401b0390610ee690828516615226565b1691161790555b60038301546113889081906001600160401b03811682116110c7575b505060038601546001600160401b03811682116110b0575b50506003830154610f3e906001600160401b031660078301613bf8565b60038501546001600160401b031690600e01613bf8565b80546003909101546040516001600160401b039091168152600080516020615418833981519152928391a281546003909201546040516001600160401b039091168152602090a2815b60085490818110156110a457610fb381612c17565b60043591549060031b1c14610fcc576001915001610f9e565b600019918083019081116110905790610ff7610fea61101093612c17565b90549060031b1c91612c17565b90919082549060031b91821b91600019901b1916179055565b600854801561107c579160149160ff930161103e61102d82612c17565b8154906000199060031b1b19169055565b6008555b015460081c169061105660405180936125d8565b61105f816131b8565b6020820152600080516020615458833981519152604060043592a2005b634e487b7160e01b84526031600452602484fd5b634e487b7160e01b85526011600452602485fd5b5050601460ff91611042565b6001600160401b0319161760038601558780610f21565b6001600160401b0319161760038501558089610f09565b600384018054916001600160401b0390811691906110fe8385831661520d565b166001600160401b0319938416179055600387018054909290916001600160401b039061112d90828516615226565b169116179055610eed565b900390610e92565b8060801c61118f5780029161118b578160018216611165575b5060011c889181610e4e565b9092809950818082020403611180575b600098029189611159565b801561117557600080fd5b8880fd5b8280fd5b600191908891610e48565b61032001610e35565b6103208210610e2757600080fd5b80820390610e15565b6003840180546127106001600160401b03199182168117909255600e840180549092919060646001600160401b038216146111fd575b50505050610df1565b16179055868080806111f4565b5060038401546001600160401b0316606414610dec565b6003830180546127106001600160401b031991821681179092556007840180549092919060646001600160401b03821614611260575b50505050610de0565b1617905586808080611257565b5060038301546001600160401b0316606414610ddb565b1015610dcf57506000610dcf565b604051636ff6cfe560e01b8152600490fd5b909860208060019260ff6112b78e612c76565b168152019a019101610c6b565b6112cf6024356126af565b600360243503610c295760405160028152600080516020615378833981519152602060043592a2610c29565b8260058a015460101c1691610b64565b81600589015460081c1692610b3b565b600160408260ff61132c849561323e565b1660ff1987541617865561134b6113456020830161323e565b8761324c565b01930191019091610a95565b600160408260ff611368849561323e565b1660ff198754161786556113816113456020830161323e565b01930191019091610a80565b60038401541580156113b1575b15610a7757604051631e86addb60e01b8152600490fd5b5060048401541561139a565b604051631c307ff760e31b8152600490fd5b90506000541633141585610a3c565b809150600d541633141590610a36565b3461023c57600036600319011261023c57611407613597565b60008051602061539883398151915280546001600160a01b031981169091556000906001600160a01b03166000805160206153d88339815191528280a3005b3461023c57602036600319011261023c576004356001600160401b03811161023c5760ff611491602061147e81943690600401612973565b8160405193828580945193849201612552565b8101600b81520301902054166040519015158152f35b3461023c57600036600319011261023c576020600754604051908152f35b3461023c57600036600319011261023c57604051600c546000826114e883612b47565b918282526020936001908560018216918260001461156b57505060011461152b575b50611517925003836128fe565b61055e604051928284938452830190612575565b849150600c60005281600020906000915b85831061155357505061151793508201018561150a565b8054838901850152879450869390920191810161153c565b60ff19168582015261151795151560051b850101925087915061150a9050565b3461023c57600036600319011261023c577f00000000000000000000000000000000000000000000000000000000000000006001600160a01b031630036115e45760206040516000805160206153b88339815191528152f35b60405163703e46dd60e11b8152600490fd5b3461023c57604036600319011261023c576024356001600160401b03811161023c5761162961026a913690600401612c84565b9060043533613c63565b604036600319011261023c57611647612c60565b6024356001600160401b03811161023c573660238201121561023c5761167790369060248160040135910161293c565b906001600160a01b037f00000000000000000000000000000000000000000000000000000000000000008116308114908115611821575b506115e4576116bb613597565b6040516352d1902d60e01b8152908216916020918281600481875afa600091816117f2575b506116fe57604051634c9c8ce360e01b815260048101859052602490fd5b9284936000805160206153b8833981519152908181036117da5750823b156117c15780546001600160a01b03191682179055604051907fbc7cd75a20ee27fd9adebab32041f755214dbc6bffa90cc0225b39da2e5c2d3b600080a28351156117a75750600080848461026a96519101845af4903d1561179e573d61178181612921565b9061178f60405192836128fe565b8152600081943d92013e615263565b60609250615263565b92505050346117b257005b63b398979f60e01b8152600490fd5b604051634c9c8ce360e01b815260048101839052602490fd5b60249060405190632a87526960e21b82526004820152fd5b9091508381813d831161181a575b61180a81836128fe565b8101031261023c575190866116e0565b503d611800565b9050816000805160206153b883398151915254161415846116ae565b3461023c57604036600319011261023c576004356001600160401b03811161023c5761186d903690600401612973565b60243560ff8116810361023c5761026a9133613633565b3461023c57606036600319011261023c5761189d612c60565b600154336001600160a01b03918216141590816118cb575b506102e85761026a906044359060243590613414565b9050600d5416331415826118b5565b3461023c57602036600319011261023c576004356000526004602052604060002080549060018060a01b0360018201541690604051611920816106af8160028601612b81565b60018060401b039160ff8360038301541693600483015461196b600685015492600860078701549601541695604051998a99610120918b5260208b01528060408b0152890190612575565b956060880152608087015281811660a087015260081c16151560c085015260e08401526101008301520390f35b3461023c57602036600319011261023c576119b1613597565b6040514281526000805160206153f8833981519152602060043592a2005b3461023c5760a036600319011261023c576119e8612c60565b6001600160a01b03602435818116929083900361023c576044359082821680920361023c5760643583811680910361023c576001600160401b039060843582811161023c57611a3b903690600401612973565b956000805160206154388339815191529485549660ff8860401c16159585891698891580611ca9575b6001809b149081611c9f575b159081611c96575b50611c84576001600160401b031981168a17895587611c69575b5016918215611c57578015611c57578115611c57578315611c575760018060a01b0319928360005416176000558288541617875581600d541617600d5560025416176002558451908111611c4157611aeb600c54612b47565b601f8111611be7575b50602094601f8211600114611b8257611b1b929394958291600092611b77575b505061322b565b600c555b611b276150f7565b611b2f6150f7565b611b383361338d565b611b3e57005b805460ff60401b191690556040519081527fc7f505b2f371ae2175ee4913f4499e1f2633a7b5936321eed1cdaeb6115181d290602090a1005b015190508680611b14565b601f19821695600c600052806000209160005b888110611bd157508387989795969710611bb8575b505050811b01600c55611b1f565b015160001960f88460031b161c19169055858080611baa565b8183015184559287019260209283019201611b95565b600c600052611c31907fdf6966c971051c3d54ec59162606531493a51404a002842f56009d7e5cf4a8c7601f840160051c81019160208510611c37575b601f0160051c01906131da565b85611af4565b9091508190611c24565b634e487b7160e01b600052604160045260246000fd5b6040516301369f3160e61b8152600490fd5b6001600160481b0319166001600160401b011788558a611a92565b60405163f92ee8a960e01b8152600490fd5b9050158c611a78565b303b159150611a70565b5087611a64565b3461023c57602036600319011261023c57600435806000526003602052600160406000200154156102d657806000526003602052600160406000200154156102d6578060005260036020526040600020600160ff601483015416611d13816126af565b036109335760068101546000908152600460205260409020600101546001600160a01b039081163314159081611d99575b506109035760038101541580156108f7576108e55760018060401b03600282015460081c16603c81018091116108cf574211156108bd576005015460ff1660038110156108a757156108955761026a906146be565b9050600d820154600052339060016040600020015416141583611d44565b3461023c57600036600319011261023c576000546040516001600160a01b039091168152602090f35b3461023c57602036600319011261023c57611df9612c60565b611e01613597565b6001600160a01b03168015611c5757600d80546001600160a01b031916919091179055005b3461023c5761026a611e37366125c2565b9033613414565b3461023c57600036600319011261023c5760405180600854808352602080930180916008600052846000209060005b86828210611ec3578686611e83828803836128fe565b604051928392818401908285525180915260408401929160005b828110611eac57505050500390f35b835185528695509381019392810192600101611e9d565b835485529093019260019283019201611e6d565b3461023c57600036600319011261023c576001546040516001600160a01b039091168152602090f35b3461023c57600036600319011261023c576020600854604051908152f35b3461023c57602036600319011261023c5760043560085481101561023c57611f47602091612c17565b90546040519160031b1c8152f35b3461023c57602036600319011261023c5760043560005260036020526040600020805460018201549060028301611f8b9061299a565b92611f9860068201612a00565b91611fa5600d8301612a00565b601483015460ff811690611fbb60158601612af8565b90602386015492602487015460ff16946040519788806025830190611fdf91612b81565b03611fea908a6128fe565b6026015460ff16986040519b8c9b610780998d5260208d015260408c01612010916125e5565b6101208b0161201e9161263d565b6102408a0161202c9161263d565b612035816126af565b61036089015261038088019060081c60ff1690612051916125d8565b6103a0870161205f916126f8565b610700860152151561072085015280610740850152830161207f91612575565b906107608301520390f35b3461023c57608036600319011261023c576004356024356003811015908161023c57604435600281101561023c576064356001600160401b03811161023c576120d7903690600401612973565b600254909390336001600160a01b03918216141590816121f1575b816121e2575b506113bd57612106826131b8565b60018214806121d6575b612164575b509061215f6000805160206154788339815191529361213a93604051948580956125d8565b612143816131b8565b6020840152426040840152608060608401526080830190612575565b0390a2005b8460009392935260036020526040600020906108a7576000805160206154788339815191529361213a9361215f92600185036121b357600501805460ff191660021790555b9293509350612115565b600285146121c2575b506121a9565b600501805460ff19166001179055876121bc565b50506000821515612110565b905060005416331415866120f8565b809150600d5416331415906120f2565b3461023c57602036600319011261023c57600435806000526003602052600160406000200154156102d6576000526003602052602060ff601460406000200154166040519061224f816126af565b8152f35b3461023c57612261366125c2565b908060005260209160048352604060002054156102d65761228191612f13565b6040519082820192808352815180945260408301938160408260051b8601019301916000955b8287106122b45785850386f35b9091929382806122d0600193603f198a8203018652885161274e565b96019201960195929190926122a7565b3461023c57602036600319011261023c57600435906122fe8161282b565b6000815260006020820152606060408201526000606082015260006080820152606060a0820152600060c0820152600060e08201526000610100820152600061012082015261014060405191612353836128e2565b813684370152806000526004602052604060002054156102d65760005260046020526040600020604051906123878261282b565b8054825260018101546001600160a01b031660208301526040516123b2816106af8160028601612b81565b604083015260018060401b036003820154166060830152600481015460808301526005810160405190816020825491828152019160005260206000209060005b81811061253c57866124516009888861240d818a03826128fe565b60a0850152600681015460ff81811660c0870152600891821c16151560e086015260078201546101008601528101546001600160401b031661012085015201612ce1565b6101408201526040805160208082528351818301528301516001600160a01b031681830152908201516102806060830152612491906102a0830190612575565b60018060401b036060840151166080830152608083015160a083015260a083015190601f198382030160c08401526020808351928381520192019060005b8181106125265750505061055e6101408460ff60c0869701511660e086015260e0810151151561010086015261010081015161012086015260018060401b036101208201511682860152015161016084019061259a565b82518452602093840193909201916001016124cf565b82548452602090930192600192830192016123f2565b60005b8381106125655750506000910152565b8181015183820152602001612555565b9060209161258e81518092818552858086019101612552565b601f01601f1916010190565b6000915b600a83106125ab57505050565b60019082518152602080910192019201919061259e565b604090600319011261023c576004359060243590565b9060038210156108a75752565b60ff60c0809282815116855260018060401b0360208201511660208601526040810151604086015260608101516060860152612629608082015160808701906125d8565b8260a08201511660a0860152015116910152565b805182526020808201516001600160401b03908116828501526040808401519091169084015260608201519093926001929091838110156108a757606083015260809081015160009590929091015b6005861061269c57505050509050565b825181529483019491810191810161268c565b600411156108a757565b906000905b600682106126cb57505050565b60206040826126ec600194875160ff60208092828151168552015116910152565b019301910190916126be565b90610340606061274c9361270d8482516126b9565b61272060208201516101808601906126b9565b612742604082015161030086019060ff60208092828151168552015116910152565b01519101906125d8565b565b906128289061078061018061280e6108c0865185526020870151602086015261277f604088015160408701906125e5565b6060870151612794610120918288019061263d565b6127a7608089015161024088019061263d565b60a08801516127b5816126af565b6103608701526127ce60c08901516103808801906125d8565b6127e160e08901516103a08801906126f8565b61010088015161070087015287015115156107208601526101408701519080610740870152850190612575565b9460ff61016082015116610760850152015191019061259a565b90565b61016081019081106001600160401b03821117611c4157604052565b60e081019081106001600160401b03821117611c4157604052565b6101a081019081106001600160401b03821117611c4157604052565b608081019081106001600160401b03821117611c4157604052565b60a081019081106001600160401b03821117611c4157604052565b604081019081106001600160401b03821117611c4157604052565b6001600160401b038111611c4157604052565b61014081019081106001600160401b03821117611c4157604052565b601f909101601f19168101906001600160401b03821190821017611c4157604052565b6001600160401b038111611c4157601f01601f191660200190565b92919261294882612921565b9161295660405193846128fe565b82948184528183011161023c578281602093846000960137010152565b9080601f8301121561023c578160206128289335910161293c565b60038210156108a75752565b906040516129a781612847565b60c060ff600383958054838116865260018060401b039060081c166020860152600181015460408601526002810154606086015201546129ec8282166080860161298e565b818160081c1660a085015260101c16910152565b9060405191612a0e83612899565b82815481526001808301549260ff60018060401b039460209580821660208701528160401c16604086015260801c1660018110156108a757606084015260405193600290910190600090855b60058310612a77575050505050608090612a7383612899565b0152565b8354815292840192918401918101612a5a565b90604051612a97816128b4565b602060ff829454818116845260081c16910152565b604051919060c083016001600160401b03811184821017611c41576040526000835b60068210612adb57505050565b600160208192612aea86612a8a565b815201930191019091612ace565b9061274c604051612b088161287e565b606060ff600d8396612b1981612aac565b8552612b2760068201612aac565b6020860152612b38600c8201612a8a565b6040860152015416910161298e565b90600182811c92168015612b77575b6020831014612b6157565b634e487b7160e01b600052602260045260246000fd5b91607f1691612b56565b805460009392612b9082612b47565b91828252602093600191600181169081600014612bf85750600114612bb7575b5050505050565b90939495506000929192528360002092846000945b838610612be457505050500101903880808080612bb0565b805485870183015294019385908201612bcc565b60ff19168685015250505090151560051b010191503880808080612bb0565b600854811015612c3257600860005260206000200190600090565b634e487b7160e01b600052603260045260246000fd5b8054821015612c325760005260206000200190600090565b600435906001600160a01b038216820361023c57565b359060ff8216820361023c57565b9181601f8401121561023c578235916001600160401b03831161023c576020838186019501011161023c57565b9181601f8401121561023c578235916001600160401b03831161023c5760208085019460c0850201011161023c57565b60405191906000835b600a8210612cfe5750505061274c826128e2565b6001602081928554815201930191019091612cea565b6001600160401b038111611c415760051b60200190565b60405190612d3882612899565b8160008152600060208201526000604082015260006060820152608060405191612d6183612899565b60a03684370152565b60408051919060c0908184016001600160401b03811185821017611c41576040528360009160005b848110612da0575050505050565b6020908251612dae816128b4565b85815285838201528185015201612d92565b604090815191612dcf83612862565b610180836000928382528360208301528051612dea81612847565b84815284602082015284828201528460608201528460808201528460a08201528460c082015281830152612e1c612d2b565b6060830152612e29612d2b565b60808301528360a08301528360c08301528051612e458161287e565b612e4d612d6a565b8152612e57612d6a565b60208201528151612e67816128b4565b8581528560208201528282015284606082015260e08301528361010083015283610120830152610140936060858401526101608301525192612ea8846128e2565b3684370152565b90612eb982612d14565b612ec660405191826128fe565b8281528092612ed7601f1991612d14565b019060005b828110612ee857505050565b602090612ef3612dc0565b82828501015201612edc565b8051821015612c325760209160051b010190565b90600091825260049060206004815260406005818620019485548015613180578085101561307b57612f4485612eaf565b96825b868110612f5957505050505050505090565b868303838111613068578181018091116130685790612f7a60019284612c48565b9054600391821b1c865287528585206130466027885192612f9a84612862565b80548452858101548b850152612fb26002820161299a565b8a850152612fc260068201612a00565b6060850152612fd3600d8201612a00565b60808501526014810154612ff060ff828180941661065d816126af565b612ffc60158301612af8565b60e086015260238201546101008601528060248301541615156101208601528a5161302e816106af8160258701612b81565b61014086015260268201541661016085015201612ce1565b610180820152613056828c612eff565b52613061818b612eff565b5001612f47565b634e487b7160e01b855260118952602485fd5b94509192509061308a84612eaf565b94815b85811061309d5750505050505090565b806130aa60019284612c48565b9054600391821b1c8552865284842061315e60278751926130ca84612862565b80548452858101548a8501526130e26002820161299a565b898501526130f260068201612a00565b6060850152613103600d8201612a00565b6080850152601481015461312060ff828180941661065d816126af565b61312c60158301612af8565b60e08601526023820154610100860152806024830154161515610120860152895161302e816106af8160258701612b81565b61018082015261316e828a612eff565b526131798189612eff565b500161308d565b5081519550935090840191506001600160401b038211848310176131a45752815290565b634e487b7160e01b83526041600452602483fd5b600211156108a757565b9060038110156108a75760ff80198354169116179055565b8181106131e5575050565b600081556001016131da565b9190601f811161320057505050565b61274c926000526020600020906020601f840160051c83019310611c3757601f0160051c01906131da565b8160011b916000199060031b1c19161790565b3560ff8116810361023c5790565b9061ff0082549160081b169061ff001916179055565b60ff60019116019060ff82116108cf57565b9062ff000082549160101b169062ff00001916179055565b60ff6132a8602080938361329f82612c76565b16865201612c76565b16910152565b91818152602080910192916000916000905b8282106132cf57505050505090565b9091929394853581528186013560048110156133275790816132f26001936126af565b83820152613306604080830190890161328c565b613316608080830190890161328c565b60c0908101960194939201906132c0565b8580fd5b906000905b6006821061333d57505050565b600160408261335c83948760ff60209154818116845260081c16910152565b01930191019091613330565b604051906133758261287e565b60006060838281528260208201528260408201520152565b6001600160a01b039081169081156133d65760008051602061539883398151915280546001600160a01b031981168417909155166000805160206153d8833981519152600080a3565b604051631e4fbdf760e01b815260006004820152602490fd5b60001981146108cf5760010190565b6040919493926060820195825260208201520152565b92919260009382855260049460209086825260409384822054156135875783825287835284822054156135875785825287835284822054848352858320541461357757858252878352848220600101546001600160a01b03908116908216036135675783825287835260ff6006868420015460081c166135575796600785837f1cce6a28f1564d6cb3044145a4ccc8873cf34f87429af3289490527d7c0437e6999a896135429897965284865283838320015480613547575b50506134da600a546133ef565b9384600a556134e7613368565b508251956134f48761287e565b858752808701958b87526003858901918a835260608a0190428252865260098452868620928a51998a8555516001850155516002840155519101558a835252200155519251938493846133fe565b0390a1565b613550916148d0565b38806134cd565b8451635e003ea960e01b81528890fd5b8451633093624d60e21b81528890fd5b8451634de6470960e01b81528890fd5b845163b0ce759160e01b81528890fd5b600080516020615398833981519152546001600160a01b031633036135b857565b60405163118cdaa760e01b8152336004820152602490fd5b81601f8201121561023c5780516135e681612921565b926135f460405194856128fe565b8184526020828401011161023c576128289160208085019101612552565b51906001600160401b038216820361023c57565b5190811515820361023c57565b9060018060a01b038083166000526005602052604060002054613be657815115613bd45761369591600073__$18826597157b5485acfb86513cd242e4d3$__9160405180958192630fb93a7160e21b8352602060048401526024830190612575565b0381845af4928315613b7657600093613b94575b5060ff60405160208186516136c18183858b01612552565b8101600b8152030190205416613b825760006136de6007546133ef565b80600755604051928391631d029a8d60e01b83526004830152848716602483015260a06044830152818061371560a4820189612575565b60ff8b16606483015242608483015203915af4908115613b76576000916139dc575b5080516000526004602052604060002081518155600181018360208401511660018060a01b031982541617905560028101604083015180519060018060401b038211611c41576137918261378b8554612b47565b856131f1565b602090601f8311600114613974576137b392916000918361396957505061322b565b90555b60608201516003820180546001600160401b0319166001600160401b039283161790556080830151600483015560a08301518051918211611c4157600160401b8211611c41576020906005840154836005860155808410613949575b500160058301600052602060002060005b83811061393557505050506006810160ff60c08401511681549061ff0060e0860151151560081b169161ffff19161717905561010082015160078201556008810160018060401b036101208401511660018060401b031982541617905561014082015160005b600a811061391e5750505091613910917f1599aa311a61861ca44d28454c9e07d6e99428d1fcd90906d4eb6c322d7c52a29360405160208185516138d08183858a01612552565b8101600b815203019020600160ff1982541617905580518287166000526005602052604060002055519460ff604051948594604086526040860190612575565b9716602084015216940390a3565b600190602083519301926009828601015501613889565b600190602084519401938184015501613823565b6139639060058601600052848460002091820191016131da565b38613812565b015190503880611b14565b90601f198316918460005260206000209260005b8181106139c457509084600195949392106139ab575b505050811b0190556137b6565b015160001960f88460031b161c1916905538808061399e565b92936020600181928786015181550195019301613988565b90503d806000833e6139ee81836128fe565b810160208282031261023c5781516001600160401b039283821161023c57019061028090818382031261023c5760405193613a288561282b565b835185526020840151868116810361023c576020860152604084015181811161023c5782613a579186016135d0565b6040860152613a6860608501613612565b60608601526080840151608086015260a084015190811161023c57830181601f8201121561023c57805190613a9c82612d14565b91613aaa60405193846128fe565b80835260208084019160051b8301019184831161023c57602001905b828210613b665750505060a085015260c083015160ff8116810361023c5760c0850152613af560e08401613626565b60e08501526101008084015190850152610120613b13818501613612565b90850152610140918161015f8501121561023c5760405193613b34856128e2565b8491810192831161023c578301905b828210613b565750505082015238613737565b8151815260209182019101613b43565b8151815260209182019101613ac6565b6040513d6000823e3d90fd5b604051634749bdef60e11b8152600490fd5b9092503d806000833e613ba781836128fe565b810160208282031261023c5781516001600160401b03811161023c57613bcd92016135d0565b91386136a9565b60405163d9f415a960e01b8152600490fd5b60405163f2d8e7a360e01b8152600490fd5b8054600160401b600160801b03191660409290921b600160401b600160801b0316919091179055565b9060038110156108a75761ff0082549160081b169061ff001916179055565b80549190600160401b831015611c415782610ff791600161274c95018155612c48565b60009082825260096020526003604083200154156102d657828252600960205260026040832001548252600460205260018060a01b038060016040852001541691160361090357818152600960205260016040822001548152600460205260ff600660408320015460081c166146ac57818152600960205260026040822001548152600460205260ff600660408320015460081c166146ac5781815260096020526002604082200154815260046020526007604082200154614627575b818152600960205260408120916002600184015493015493613d436006546133ef565b90816006558484526004602052613d7f60018060401b036003604087200154169187865260018060401b0360036040882001541698369161293c565b613d87612dc0565b50604051613d9481612899565b85815285602082015285604082015285606082015285608082015260405192613dbc84612899565b87845260208401528560408401528560608401526080830152604051613de181612899565b85815285602082015285604082015285606082015285608082015260405198613e098a612899565b888a5260208a01528560408a01528560608a01526080890152613e2a612d6a565b50613e33612d6a565b604051613e3f816128b4565b60018152600560208201528152604051613e58816128b4565b60048152600260208201526020820152604051613e74816128b4565b60048152600860208201526040820152604051613e90816128b4565b60068152600360208201526060820152604051613eac816128b4565b60068152600760208201526080820152604051613ec8816128b4565b600881526005602082015260a0820152613ee0612d6a565b50613ee9612d6a565b98604051613ef6816128b4565b600f8152600560208201528a52604051613f0f816128b4565b600c81526002602082015260208b0152604051613f2b816128b4565b600c81526008602082015260408b0152604051613f47816128b4565b600a81526002602082015260608b0152604051613f63816128b4565b600a81526008602082015260808b0152604051613f7f816128b4565b600a81526005602082015260a08b015260405199613f9c8b612847565b878b528760208c01528760408c01528760608c01528760808c01528760a08c01528760c08c015260405190613fd0826128b4565b600882526005602083015260405193613fe88561287e565b84526020840152604083015260016060830152604051938461014081011060018060401b0361014087011117611c415761014085016040528785528760208601528760408601528760608601528760808601528760a08601528760c08601528760e086015287610100860152876101208601526040519a6140688c612862565b868c524260208d015260408c015260608b015260808a0152600160a08a01528560c08a015260e089015284610100890152846101208901526101408801526001610160880152610180870152825260036020526040822085518155602086015160018201556002810160408701519060ff825116815490610100600160481b03602085015160081b169160018060481b031916171790556040810151600383015560608101516004830155608081015160038110156145fc5760c06141559261413660ff93600587016131c2565b6141498360a0830151166005870161324c565b01511660058301613274565b60608601518051600683015560208101516007830180546001600160401b0319166001600160401b039283161781556040830151614194921690613bf8565b606081015160018110156145fc5760078301805460ff60801b1916608092831b60ff60801b161790550151835b6005811061461057505060808601518051600d8301556020810151600e830180546001600160401b0319166001600160401b03928316178155604083015161420a921690613bf8565b606081015160018110156145fc57600e8301805460ff60801b1916608092831b60ff60801b161790550151835b600581106145e557505060a086015161424f816126af565b614258816126af565b60ff8019601484015416911617601482015560c08601516003811015614573576142859060148301613c21565b60e08601518051601583019085905b600682106145b6575050506020810151601b83019085905b60068210614587575050506060906142df6021840160ff602060408501518281511683198554161784550151169061324c565b01516003811015614573576142f790602283016131c2565b610100860151602382015560248101610120870151151560ff8019835416911617905561014086015180519060018060401b03821161455f5761434a826143416025860154612b47565b602586016131f1565b602090601f83116001146144f05761436b929186918361396957505061322b565b60258201555b6026810160ff6101608801511660ff19825416179055610180860151835b600a81106144d95750505073__$18826597157b5485acfb86513cd242e4d3$__90813b1561118f578290606460405180948193636c2a23bf60e01b8352600960048401526004602484015260448301525af480156144ce576144b7575b5060056040828461444a9452600460205260068282200161ff00199061010082825416179055868252610100600684842001918254161790558481526144388383832001885190613c40565b85815260046020522001845190613c40565b825160085490600160401b821015611c4157610ff782600161446f9401600855612c17565b82517f94b80033a8327ab5e699285e343e5f1027e2299b685ec5836a08f3a8faacbd59602060405160018152a4516000805160206153f88339815191526020604051428152a2565b6144c182916128cf565b6144cb57386143ec565b80fd5b6040513d84823e3d90fd5b60019060208351930192602782860101550161438f565b9190602584018652602086209086935b601f1984168510614544576001945083601f1981161061452b575b505050811b016025820155614371565b015160001960f88460031b161c1916905538808061451b565b81810151835560209485019460019093019290910190614500565b634e487b7160e01b85526041600452602485fd5b634e487b7160e01b84526021600452602484fd5b60016020826145aa60ff838596518281511683198b5416178a550151168761324c565b019301910190916142ac565b60016020826145d960ff838596518281511683198b5416178a550151168761324c565b01930191019091614294565b60019060208351930192600f828601015501614237565b634e487b7160e01b85526021600452602485fd5b6001906020835193019260088286010155016141c1565b73__$18826597157b5485acfb86513cd242e4d3$__82825260096020526002604083200154825260046020526007604083200154813b1561118f578290606460405180948193636c2a23bf60e01b8352600960048401526004602484015260448301525af480156144ce5761469d575b50613d20565b6146a6906128cf565b38614697565b604051635e003ea960e01b8152600490fd5b90600091808352600380602052604084206006810154855260049060046020526040862092600d82015487526040872092601483019360ff85541693614703856126af565b60018095036148cc576005916006806008998a810180549060018060401b03908161472f818516615126565b166001600160401b03199384161790558c8601805490929091614753818416615126565b169116179055019161ff00199283815416905501908154169055019788549860ff8a1699600360ff1988541617875560038b10156148b8576001869798999a9b146000146148a65750805462ffff0019166103001790555b80945b6147e7575b505050505060ff6000805160206154588339815191529260409254901c166147dd825180926125d8565b60016020820152a2565b8654808610156148a057886147fb87612c17565b905490861b1c14614811575083809501946147ae565b94919350916000199485810190811161488d576148409291614835610ff792612c17565b9054911b1c91612c17565b845491821561487a5750509260409260ff92600080516020615458833981519152950161486f61102d82612c17565b8255928194386147b3565b634e487b7160e01b825260319052602490fd5b634e487b7160e01b845260118552602484fd5b506147b3565b62ffff001916620300001790556147ab565b634e487b7160e01b83526021600452602483fd5b8980fd5b91909182156102d657600092808452600960205260406003818620015415614a2d5781855260096020526001818620015485526004928360205260018060a01b03806001848920015416911603614a1e57818552600960205260038186200154603c8101809111614a0b574211156149fc57818552600960205280852092600260018501549401549573__$18826597157b5485acfb86513cd242e4d3$__91823b156149f85781906064855180958193636c2a23bf60e01b835260098184015260248301528860448301525af49081156149ed5750917f773e15a265d8549eebc3e80bafb0e2cbeba28c5d2b2a081e31c34554c7d0507d959691613542936149de575b5051938493846133fe565b6149e7906128cf565b386149d3565b8351903d90823e3d90fd5b5080fd5b516343dcbe9f60e01b81529050fd5b634e487b7160e01b865260118452602486fd5b51633093624d60e21b81529050fd5b5163b0ce759160e01b8152600490fd5b929092836000526003602052604060002090600160ff601484015416614a62816126af565b036109335760038410156108a75783156150e55782156150d3576001841480806150c6575b6150a757600285149081806150b9575b6150a7571561506a575060068201546000908152600460205260409020600101546001600160a01b03908116911603610903576002905b0191602d60ff8454161015614b8b57614afe90604051936378e02d7160e11b8552600485015260248401906125d8565b604482015260208160648173__$18826597157b5485acfb86513cd242e4d3$__5af4908115613b7657600091614b51575b50614b375750565b6000805160206153f88339815191526020604051428152a2565b90506020813d602011614b83575b81614b6c602093836128fe565b8101031261023c57614b7d90613626565b38614b2f565b3d9150614b5f565b505050600090806000526003602052604060002091602d60ff600285015416106112925760068301546000526004602052614bd86040600020600d8501546000526040600020908561513e565b508160005260036020526040600020600681015460005260046020526040600020600d8201546000526040600020916032600582015460ff808260081c169160101c169081811160001461505c5750505060645b60058301541580615045575b614ff9575b60058401541580614fe2575b614f96575b6007820154600e8301546001600160401b039182169116818110918215614f8f57035b61046681101561023c5781614f81575b60199115614f7857610320035b04600a6001821615614f7057600a915b60011c90815b614f2157505091614d8591614cc7610e77610e72610e72610e72602099986152c6565b906014028181109182600014614f195703905b15614ebf57600386018054916001600160401b039081169190614cff8385831661520d565b166001600160401b0319938416179055600385018054909290916001600160401b0390614d2e90828516615226565b1691161790555b60038301546113889081906001600160401b0381168211614ea8575b505060038601546001600160401b0381168211614e915750506003830154610f3e906001600160401b031660078301613bf8565b80546003909101546040516001600160401b039091168152600080516020615418833981519152928391a281546003909201546040516001600160401b039091168152602090a2805b60085480821015614e725783614de383612c17565b90549060031b1c14614df85750600101614dce565b9293919260001991908281019081116110905790610ff7610fea614e1b93612c17565b600854801561107c576014604093600080516020615458833981519152959360ff9301614e4a61102d82612c17565b6008555b015460081c1690614e61835180936125d8565b614e6a816131b8565b6020820152a2565b505060409060ff60146000805160206154588339815191529495614e4e565b6001600160401b0319161760038601553880610f21565b6001600160401b0319161760038501558038614d51565b600384018054916001600160401b039081169190614edf8385831661520d565b166001600160401b0319938416179055600387018054909290916001600160401b0390614f0e90828516615226565b169116179055614d35565b900390614cda565b8060801c614f6c5780029087614f6c578160018216614f46575b5060011c9081614ca4565b9092809850818082020403614f61575b600097029138614f3b565b8015614f5657600080fd5b8780fd5b600191614c9e565b61032001614c8e565b6103208110614c8157600080fd5b9003614c71565b6003840180546127106001600160401b03199182168117909255600e840180549092919060646001600160401b03821614614fd5575b50505050614c4e565b1617905538808080614fcc565b5060038401546001600160401b0316606414614c49565b6003830180546127106001600160401b031991821681179092556007840180549092919060646001600160401b03821614615038575b50505050614c3d565b161790553880808061502f565b5060038301546001600160401b0316606414614c38565b1015614c2c57506000614c2c565b615078575b50600290614ace565b600d8201546000908152600460205260409020600101546001600160a01b03908116911603610903573861506f565b604051635ce6d95760e11b8152600490fd5b5060048401541515614a97565b5060038301541515614a87565b604051635101966360e01b8152600490fd5b604051636f6fc75f60e11b8152600490fd5b60ff6000805160206154388339815191525460401c161561511457565b604051631afcd79f60e31b8152600490fd5b6001600160401b039081169081146108cf5760010190565b6014810192600160ff855416615153816126af565b0361023c576008830180546005946006928392906001600160401b03908161517c818516615126565b166001600160401b0319938416179055600886018054909290916151a1818416615126565b169116179055019161ff00199283815416905501908154169055015460ff808260081c169160101c16908181116000146151ef575050612828600180925b805460ff19166002178155613c21565b101561520157612828600280926151df565b612828600080926151df565b6001600160401b0391821690821601919082116108cf57565b6001600160401b0391821690821603919082116108cf57565b801561524d5762030d400490565b634e487b7160e01b600052601260045260246000fd5b9061528a575080511561527857602081519101fd5b60405163d6bda27560e01b8152600490fd5b815115806152bd575b61529b575090565b604051639996b31560e01b81526001600160a01b039091166004820152602490fd5b50803b15615293565b60b581600160881b811015615365575b6201000090600160481b811015615358575b600160281b81101561534b575b630100000081101561533e575b010260121c60019080830401811c80830401811c80830401811c80830401811c80830401811c80830401811c80830401901c8080920410900390565b60101c9160081b91615302565b60201c9160101b916152f5565b60401c9160201b916152e8565b5060b560401b9050608082901c6152d656fe579c31d7f947df31adb29f8688c651ffa98030b83bb0d87632c86357f13afafd9016d09d72d40fdae2fd8ceac6b6234c7706214fd39c1cd1e609a0528c199300360894a13ba1a3210667c828492db98dca3e2076cc3735a920a3ca505d382bbc8be0079c531659141344cd1fd0a4f28419497f9722a3daafe3b4186f6b6457e0d6ad8b09cb4bf385f0569c05c242d45e491f752df651aae6a2db9ff589bd9fae45f86bffb6b3e2b2928d4ebc3190e6bca236b43076a1adbf5d2366c8ee1ca5e3f0c57e16840df040f15088dc2f81fe391c3923bec73e23a9662efc9c229c6a004019f194fe4a757f9f1441d256eeb40c3f12e80f9da6188b5ad1a5fcda7217d740f6909351d16bebd2bb97c72ea15dc2508f321a25ba4ff1df4c330cced53820a26469706673582212203fbe5ad4709425e57dd7f215d07fbf50dca105c0abfcda544c8cbaa21749914d64736f6c63430008180033",
  "linkReferences": {
    "contracts/GameLib.sol": {
      "GameLib": [
        {
          "length": 20,
          "start": 14134
        },
        {
          "length": 20,
          "start": 17523
        },
        {
          "length": 20,
          "start": 18176
        },
        {
          "length": 20,
          "start": 18994
        },
        {
          "length": 20,
          "start": 19426
        }
      ]
    }
  },
  "deployedLinkReferences": {
    "contracts/GameLib.sol": {
      "GameLib": [
        {
          "length": 20,
          "start": 13919
        },
        {
          "length": 20,
          "start": 17308
        },
        {
          "length": 20,
          "start": 17961
        },
        {
          "length": 20,
          "start": 18779
        },
        {
          "length": 20,
          "start": 19211
        }
      ]
    }
  }
}