{
  "_format": "hh-sol-artifact-1",
  "contractName": "ChessBallGame",
  "sourceName": "contracts/Game.sol",
  "abi": [
    {
      "inputs": [],
      "stateMutability": "nonpayable",
      "type": "constructor"
    },
    {
      "inputs": [],
      "name": "ActionsNotCommitted",
      "type": "error"
    },
    {
      "inputs": [
        {
          "internalType": "address",
          "name": "target",
          "type": "address"
        }
      ],
      "name": "AddressEmptyCode",
      "type": "error"
    },
    {
      "inputs": [],
      "name": "CreateTeam_NameIsRequired",
      "type": "error"
    },
    {
      "inputs": [],
      "name": "CreateTeam_TeamAlreadyExists",
      "type": "error"
    },
    {
      "inputs": [],
      "name": "CreateTeam_TeamNameAlreadyExists",
      "type": "error"
    },
    {
      "inputs": [],
      "name": "DoesNotExist",
      "type": "error"
    },
    {
      "inputs": [
        {
          "internalType": "address",
          "name": "implementation",
          "type": "address"
        }
      ],
      "name": "ERC1967InvalidImplementation",
      "type": "error"
    },
    {
      "inputs": [],
      "name": "ERC1967NonPayable",
      "type": "error"
    },
    {
      "inputs": [],
      "name": "FailedCall",
      "type": "error"
    },
    {
      "inputs": [],
      "name": "FinishGameByTimeout_NoLastMove",
      "type": "error"
    },
    {
      "inputs": [],
      "name": "GameHasNotReachedMaxMoves",
      "type": "error"
    },
    {
      "inputs": [],
      "name": "GameIsNotActive",
      "type": "error"
    },
    {
      "inputs": [],
      "name": "GameOwnerShouldCall",
      "type": "error"
    },
    {
      "inputs": [],
      "name": "GameRequestNotExpired",
      "type": "error"
    },
    {
      "inputs": [],
      "name": "GameRequestTimeoutNotReached",
      "type": "error"
    },
    {
      "inputs": [],
      "name": "InitAddressCannotBeZero",
      "type": "error"
    },
    {
      "inputs": [],
      "name": "InvalidInitialization",
      "type": "error"
    },
    {
      "inputs": [],
      "name": "InvalidTeam",
      "type": "error"
    },
    {
      "inputs": [],
      "name": "MovesAlreadyCommitted",
      "type": "error"
    },
    {
      "inputs": [],
      "name": "MovesEncryptedCannotBeZero",
      "type": "error"
    },
    {
      "inputs": [],
      "name": "NotInitializing",
      "type": "error"
    },
    {
      "inputs": [],
      "name": "OnlyGameEngineServerCanCall",
      "type": "error"
    },
    {
      "inputs": [],
      "name": "OnlyRelayerCanCall",
      "type": "error"
    },
    {
      "inputs": [
        {
          "internalType": "address",
          "name": "owner",
          "type": "address"
        }
      ],
      "name": "OwnableInvalidOwner",
      "type": "error"
    },
    {
      "inputs": [
        {
          "internalType": "address",
          "name": "account",
          "type": "address"
        }
      ],
      "name": "OwnableUnauthorizedAccount",
      "type": "error"
    },
    {
      "inputs": [],
      "name": "TeamAlreadyHasActiveGame",
      "type": "error"
    },
    {
      "inputs": [],
      "name": "TeamsCannotBeSame",
      "type": "error"
    },
    {
      "inputs": [],
      "name": "UUPSUnauthorizedCallContext",
      "type": "error"
    },
    {
      "inputs": [
        {
          "internalType": "bytes32",
          "name": "slot",
          "type": "bytes32"
        }
      ],
      "name": "UUPSUnsupportedProxiableUUID",
      "type": "error"
    },
    {
      "anonymous": false,
      "inputs": [
        {
          "indexed": true,
          "internalType": "uint256",
          "name": "teamId",
          "type": "uint256"
        },
        {
          "indexed": false,
          "internalType": "uint64",
          "name": "eloRating",
          "type": "uint64"
        }
      ],
      "name": "EloUpdated",
      "type": "event"
    },
    {
      "anonymous": false,
      "inputs": [
        {
          "indexed": true,
          "internalType": "uint256",
          "name": "gameId",
          "type": "uint256"
        },
        {
          "indexed": false,
          "internalType": "enum GameLib.TeamEnum",
          "name": "winner",
          "type": "uint8"
        },
        {
          "indexed": false,
          "internalType": "enum GameLib.FinishReason",
          "name": "finishReason",
          "type": "uint8"
        }
      ],
      "name": "GameFinished",
      "type": "event"
    },
    {
      "anonymous": false,
      "inputs": [
        {
          "indexed": false,
          "internalType": "uint256",
          "name": "gameRequestId",
          "type": "uint256"
        },
        {
          "indexed": false,
          "internalType": "uint256",
          "name": "team1id",
          "type": "uint256"
        },
        {
          "indexed": false,
          "internalType": "uint256",
          "name": "team2id",
          "type": "uint256"
        }
      ],
      "name": "GameRequestCancelled",
      "type": "event"
    },
    {
      "anonymous": false,
      "inputs": [
        {
          "indexed": false,
          "internalType": "uint256",
          "name": "gameRequestId",
          "type": "uint256"
        },
        {
          "indexed": false,
          "internalType": "uint256",
          "name": "team1id",
          "type": "uint256"
        },
        {
          "indexed": false,
          "internalType": "uint256",
          "name": "team2id",
          "type": "uint256"
        }
      ],
      "name": "GameRequestCreated",
      "type": "event"
    },
    {
      "anonymous": false,
      "inputs": [
        {
          "indexed": true,
          "internalType": "uint256",
          "name": "gameId",
          "type": "uint256"
        },
        {
          "indexed": true,
          "internalType": "uint256",
          "name": "team1id",
          "type": "uint256"
        },
        {
          "indexed": true,
          "internalType": "uint256",
          "name": "team2id",
          "type": "uint256"
        },
        {
          "indexed": false,
          "internalType": "enum GameLib.TeamEnum",
          "name": "teamWithBall",
          "type": "uint8"
        }
      ],
      "name": "GameStarted",
      "type": "event"
    },
    {
      "anonymous": false,
      "inputs": [
        {
          "indexed": true,
          "internalType": "uint256",
          "name": "gameId",
          "type": "uint256"
        },
        {
          "indexed": false,
          "internalType": "enum GameLib.TeamEnum",
          "name": "cauzedByTeam",
          "type": "uint8"
        },
        {
          "indexed": false,
          "internalType": "enum ChessBallGame.ErrorType",
          "name": "errorType",
          "type": "uint8"
        },
        {
          "indexed": false,
          "internalType": "uint256",
          "name": "time",
          "type": "uint256"
        },
        {
          "indexed": false,
          "internalType": "string",
          "name": "errorMsg",
          "type": "string"
        }
      ],
      "name": "GameStateError",
      "type": "event"
    },
    {
      "anonymous": false,
      "inputs": [
        {
          "indexed": true,
          "internalType": "uint256",
          "name": "gameId",
          "type": "uint256"
        },
        {
          "indexed": false,
          "internalType": "enum GameLib.TeamEnum",
          "name": "scoringTeam",
          "type": "uint8"
        }
      ],
      "name": "GoalScored",
      "type": "event"
    },
    {
      "anonymous": false,
      "inputs": [
        {
          "indexed": false,
          "internalType": "uint64",
          "name": "version",
          "type": "uint64"
        }
      ],
      "name": "Initialized",
      "type": "event"
    },
    {
      "anonymous": false,
      "inputs": [
        {
          "indexed": true,
          "internalType": "uint256",
          "name": "gameId",
          "type": "uint256"
        },
        {
          "indexed": false,
          "internalType": "enum GameLib.StateType",
          "name": "stateType",
          "type": "uint8"
        },
        {
          "indexed": false,
          "internalType": "uint256",
          "name": "time",
          "type": "uint256"
        },
        {
          "indexed": false,
          "internalType": "uint8[]",
          "name": "clashRandomNumbers",
          "type": "uint8[]"
        },
        {
          "components": [
            {
              "internalType": "uint256",
              "name": "playerId",
              "type": "uint256"
            },
            {
              "internalType": "enum GameLib.MoveType",
              "name": "moveType",
              "type": "uint8"
            },
            {
              "components": [
                {
                  "internalType": "uint8",
                  "name": "x",
                  "type": "uint8"
                },
                {
                  "internalType": "uint8",
                  "name": "y",
                  "type": "uint8"
                }
              ],
              "internalType": "struct GameLib.Position",
              "name": "oldPosition",
              "type": "tuple"
            },
            {
              "components": [
                {
                  "internalType": "uint8",
                  "name": "x",
                  "type": "uint8"
                },
                {
                  "internalType": "uint8",
                  "name": "y",
                  "type": "uint8"
                }
              ],
              "internalType": "struct GameLib.Position",
              "name": "newPosition",
              "type": "tuple"
            }
          ],
          "indexed": false,
          "internalType": "struct GameLib.GameAction[]",
          "name": "team1Actions",
          "type": "tuple[]"
        },
        {
          "components": [
            {
              "internalType": "uint256",
              "name": "playerId",
              "type": "uint256"
            },
            {
              "internalType": "enum GameLib.MoveType",
              "name": "moveType",
              "type": "uint8"
            },
            {
              "components": [
                {
                  "internalType": "uint8",
                  "name": "x",
                  "type": "uint8"
                },
                {
                  "internalType": "uint8",
                  "name": "y",
                  "type": "uint8"
                }
              ],
              "internalType": "struct GameLib.Position",
              "name": "oldPosition",
              "type": "tuple"
            },
            {
              "components": [
                {
                  "internalType": "uint8",
                  "name": "x",
                  "type": "uint8"
                },
                {
                  "internalType": "uint8",
                  "name": "y",
                  "type": "uint8"
                }
              ],
              "internalType": "struct GameLib.Position",
              "name": "newPosition",
              "type": "tuple"
            }
          ],
          "indexed": false,
          "internalType": "struct GameLib.GameAction[]",
          "name": "team2Actions",
          "type": "tuple[]"
        },
        {
          "components": [
            {
              "components": [
                {
                  "internalType": "uint8",
                  "name": "x",
                  "type": "uint8"
                },
                {
                  "internalType": "uint8",
                  "name": "y",
                  "type": "uint8"
                }
              ],
              "internalType": "struct GameLib.Position[6]",
              "name": "team1PlayerPositions",
              "type": "tuple[6]"
            },
            {
              "components": [
                {
                  "internalType": "uint8",
                  "name": "x",
                  "type": "uint8"
                },
                {
                  "internalType": "uint8",
                  "name": "y",
                  "type": "uint8"
                }
              ],
              "internalType": "struct GameLib.Position[6]",
              "name": "team2PlayerPositions",
              "type": "tuple[6]"
            },
            {
              "components": [
                {
                  "internalType": "uint8",
                  "name": "x",
                  "type": "uint8"
                },
                {
                  "internalType": "uint8",
                  "name": "y",
                  "type": "uint8"
                }
              ],
              "internalType": "struct GameLib.Position",
              "name": "ballPosition",
              "type": "tuple"
            },
            {
              "internalType": "enum GameLib.TeamEnum",
              "name": "ballOwner",
              "type": "uint8"
            }
          ],
          "indexed": false,
          "internalType": "struct GameLib.BoardState",
          "name": "boardState",
          "type": "tuple"
        }
      ],
      "name": "NewGameState",
      "type": "event"
    },
    {
      "anonymous": false,
      "inputs": [
        {
          "indexed": true,
          "internalType": "address",
          "name": "previousOwner",
          "type": "address"
        },
        {
          "indexed": true,
          "internalType": "address",
          "name": "newOwner",
          "type": "address"
        }
      ],
      "name": "OwnershipTransferred",
      "type": "event"
    },
    {
      "anonymous": false,
      "inputs": [
        {
          "indexed": true,
          "internalType": "uint256",
          "name": "teamId",
          "type": "uint256"
        },
        {
          "indexed": true,
          "internalType": "address",
          "name": "owner",
          "type": "address"
        },
        {
          "indexed": false,
          "internalType": "string",
          "name": "name",
          "type": "string"
        },
        {
          "indexed": false,
          "internalType": "uint8",
          "name": "country",
          "type": "uint8"
        }
      ],
      "name": "TeamCreated",
      "type": "event"
    },
    {
      "anonymous": false,
      "inputs": [
        {
          "indexed": true,
          "internalType": "address",
          "name": "implementation",
          "type": "address"
        }
      ],
      "name": "Upgraded",
      "type": "event"
    },
    {
      "anonymous": false,
      "inputs": [
        {
          "indexed": true,
          "internalType": "uint256",
          "name": "gameId",
          "type": "uint256"
        },
        {
          "indexed": false,
          "internalType": "uint256",
          "name": "timestamp",
          "type": "uint256"
        }
      ],
      "name": "gameActionCommitted",
      "type": "event"
    },
    {
      "inputs": [],
      "name": "UPGRADE_INTERFACE_VERSION",
      "outputs": [
        {
          "internalType": "string",
          "name": "",
          "type": "string"
        }
      ],
      "stateMutability": "view",
      "type": "function"
    },
    {
      "inputs": [
        {
          "internalType": "uint256",
          "name": "",
          "type": "uint256"
        }
      ],
      "name": "activeGames",
      "outputs": [
        {
          "internalType": "uint256",
          "name": "",
          "type": "uint256"
        }
      ],
      "stateMutability": "view",
      "type": "function"
    },
    {
      "inputs": [
        {
          "internalType": "uint256",
          "name": "gameRequestId",
          "type": "uint256"
        }
      ],
      "name": "cancelGameRequest",
      "outputs": [],
      "stateMutability": "nonpayable",
      "type": "function"
    },
    {
      "inputs": [
        {
          "internalType": "address",
          "name": "sender",
          "type": "address"
        },
        {
          "internalType": "uint256",
          "name": "gameRequestId",
          "type": "uint256"
        }
      ],
      "name": "cancelGameRequestRelayer",
      "outputs": [],
      "stateMutability": "nonpayable",
      "type": "function"
    },
    {
      "inputs": [
        {
          "internalType": "address",
          "name": "sender",
          "type": "address"
        },
        {
          "internalType": "uint256",
          "name": "gameId",
          "type": "uint256"
        },
        {
          "internalType": "enum GameLib.TeamEnum",
          "name": "team",
          "type": "uint8"
        },
        {
          "internalType": "bytes32",
          "name": "movesEncrypted",
          "type": "bytes32"
        }
      ],
      "name": "commitGameActionsRelayer",
      "outputs": [],
      "stateMutability": "nonpayable",
      "type": "function"
    },
    {
      "inputs": [
        {
          "internalType": "uint256",
          "name": "team1id",
          "type": "uint256"
        },
        {
          "internalType": "uint256",
          "name": "team2id",
          "type": "uint256"
        }
      ],
      "name": "createGameRequest",
      "outputs": [],
      "stateMutability": "nonpayable",
      "type": "function"
    },
    {
      "inputs": [
        {
          "internalType": "address",
          "name": "sender",
          "type": "address"
        },
        {
          "internalType": "uint256",
          "name": "team1id",
          "type": "uint256"
        },
        {
          "internalType": "uint256",
          "name": "team2id",
          "type": "uint256"
        }
      ],
      "name": "createGameRequestRelayer",
      "outputs": [],
      "stateMutability": "nonpayable",
      "type": "function"
    },
    {
      "inputs": [
        {
          "internalType": "string",
          "name": "name",
          "type": "string"
        },
        {
          "internalType": "uint8",
          "name": "country",
          "type": "uint8"
        }
      ],
      "name": "createTeam",
      "outputs": [],
      "stateMutability": "nonpayable",
      "type": "function"
    },
    {
      "inputs": [
        {
          "internalType": "address",
          "name": "sender",
          "type": "address"
        },
        {
          "internalType": "string",
          "name": "name",
          "type": "string"
        },
        {
          "internalType": "uint8",
          "name": "country",
          "type": "uint8"
        }
      ],
      "name": "createTeamRelayer",
      "outputs": [],
      "stateMutability": "nonpayable",
      "type": "function"
    },
    {
      "inputs": [
        {
          "internalType": "uint256",
          "name": "gameId",
          "type": "uint256"
        }
      ],
      "name": "finishGameByTimeout",
      "outputs": [],
      "stateMutability": "nonpayable",
      "type": "function"
    },
    {
      "inputs": [
        {
          "internalType": "address",
          "name": "sender",
          "type": "address"
        },
        {
          "internalType": "uint256",
          "name": "gameId",
          "type": "uint256"
        }
      ],
      "name": "finishGameByTimeoutRelayer",
      "outputs": [],
      "stateMutability": "nonpayable",
      "type": "function"
    },
    {
      "inputs": [],
      "name": "gameEngineServerAddress",
      "outputs": [
        {
          "internalType": "address",
          "name": "",
          "type": "address"
        }
      ],
      "stateMutability": "view",
      "type": "function"
    },
    {
      "inputs": [],
      "name": "gamePublicKey",
      "outputs": [
        {
          "internalType": "string",
          "name": "",
          "type": "string"
        }
      ],
      "stateMutability": "view",
      "type": "function"
    },
    {
      "inputs": [],
      "name": "gameRequestIndex",
      "outputs": [
        {
          "internalType": "uint256",
          "name": "",
          "type": "uint256"
        }
      ],
      "stateMutability": "view",
      "type": "function"
    },
    {
      "inputs": [
        {
          "internalType": "uint256",
          "name": "",
          "type": "uint256"
        }
      ],
      "name": "gameRequests",
      "outputs": [
        {
          "internalType": "uint256",
          "name": "gameRequestId",
          "type": "uint256"
        },
        {
          "internalType": "uint256",
          "name": "team1id",
          "type": "uint256"
        },
        {
          "internalType": "uint256",
          "name": "team2id",
          "type": "uint256"
        },
        {
          "internalType": "uint256",
          "name": "createdAt",
          "type": "uint256"
        }
      ],
      "stateMutability": "view",
      "type": "function"
    },
    {
      "inputs": [
        {
          "internalType": "uint256",
          "name": "",
          "type": "uint256"
        }
      ],
      "name": "games",
      "outputs": [
        {
          "internalType": "uint256",
          "name": "gameId",
          "type": "uint256"
        },
        {
          "internalType": "uint256",
          "name": "createdAt",
          "type": "uint256"
        },
        {
          "components": [
            {
              "internalType": "uint8",
              "name": "movesMade",
              "type": "uint8"
            },
            {
              "internalType": "uint64",
              "name": "lastMoveAt",
              "type": "uint64"
            },
            {
              "internalType": "bytes32",
              "name": "team1MovesEncrypted",
              "type": "bytes32"
            },
            {
              "internalType": "bytes32",
              "name": "team2MovesEncrypted",
              "type": "bytes32"
            },
            {
              "internalType": "enum GameLib.TeamEnum",
              "name": "lastMoveTeam",
              "type": "uint8"
            },
            {
              "internalType": "uint8",
              "name": "team1score",
              "type": "uint8"
            },
            {
              "internalType": "uint8",
              "name": "team2score",
              "type": "uint8"
            }
          ],
          "internalType": "struct GameLib.GameState",
          "name": "gameState",
          "type": "tuple"
        },
        {
          "components": [
            {
              "internalType": "uint256",
              "name": "teamId",
              "type": "uint256"
            },
            {
              "internalType": "uint64",
              "name": "eloRating",
              "type": "uint64"
            },
            {
              "internalType": "uint64",
              "name": "eloRatingNew",
              "type": "uint64"
            },
            {
              "internalType": "enum GameLib.TeamFormation",
              "name": "formation",
              "type": "uint8"
            },
            {
              "internalType": "uint256[5]",
              "name": "__gap",
              "type": "uint256[5]"
            }
          ],
          "internalType": "struct GameLib.TeamInfo",
          "name": "team1",
          "type": "tuple"
        },
        {
          "components": [
            {
              "internalType": "uint256",
              "name": "teamId",
              "type": "uint256"
            },
            {
              "internalType": "uint64",
              "name": "eloRating",
              "type": "uint64"
            },
            {
              "internalType": "uint64",
              "name": "eloRatingNew",
              "type": "uint64"
            },
            {
              "internalType": "enum GameLib.TeamFormation",
              "name": "formation",
              "type": "uint8"
            },
            {
              "internalType": "uint256[5]",
              "name": "__gap",
              "type": "uint256[5]"
            }
          ],
          "internalType": "struct GameLib.TeamInfo",
          "name": "team2",
          "type": "tuple"
        },
        {
          "internalType": "enum GameLib.GameStatus",
          "name": "status",
          "type": "uint8"
        },
        {
          "internalType": "enum GameLib.TeamEnum",
          "name": "winner",
          "type": "uint8"
        },
        {
          "components": [
            {
              "components": [
                {
                  "internalType": "uint8",
                  "name": "x",
                  "type": "uint8"
                },
                {
                  "internalType": "uint8",
                  "name": "y",
                  "type": "uint8"
                }
              ],
              "internalType": "struct GameLib.Position[6]",
              "name": "team1PlayerPositions",
              "type": "tuple[6]"
            },
            {
              "components": [
                {
                  "internalType": "uint8",
                  "name": "x",
                  "type": "uint8"
                },
                {
                  "internalType": "uint8",
                  "name": "y",
                  "type": "uint8"
                }
              ],
              "internalType": "struct GameLib.Position[6]",
              "name": "team2PlayerPositions",
              "type": "tuple[6]"
            },
            {
              "components": [
                {
                  "internalType": "uint8",
                  "name": "x",
                  "type": "uint8"
                },
                {
                  "internalType": "uint8",
                  "name": "y",
                  "type": "uint8"
                }
              ],
              "internalType": "struct GameLib.Position",
              "name": "ballPosition",
              "type": "tuple"
            },
            {
              "internalType": "enum GameLib.TeamEnum",
              "name": "ballOwner",
              "type": "uint8"
            }
          ],
          "internalType": "struct GameLib.BoardState",
          "name": "lastBoardState",
          "type": "tuple"
        },
        {
          "internalType": "bytes32",
          "name": "historyIPFS",
          "type": "bytes32"
        },
        {
          "internalType": "bool",
          "name": "isVerified",
          "type": "bool"
        },
        {
          "internalType": "bytes",
          "name": "encryptedKey",
          "type": "bytes"
        },
        {
          "internalType": "uint8",
          "name": "gameEngineVersion",
          "type": "uint8"
        }
      ],
      "stateMutability": "view",
      "type": "function"
    },
    {
      "inputs": [],
      "name": "gelatoAddress",
      "outputs": [
        {
          "internalType": "address",
          "name": "",
          "type": "address"
        }
      ],
      "stateMutability": "view",
      "type": "function"
    },
    {
      "inputs": [],
      "name": "getActiveGameCount",
      "outputs": [
        {
          "internalType": "uint256",
          "name": "",
          "type": "uint256"
        }
      ],
      "stateMutability": "view",
      "type": "function"
    },
    {
      "inputs": [],
      "name": "getActiveGames",
      "outputs": [
        {
          "internalType": "uint256[]",
          "name": "",
          "type": "uint256[]"
        }
      ],
      "stateMutability": "view",
      "type": "function"
    },
    {
      "inputs": [
        {
          "internalType": "uint256",
          "name": "gameId",
          "type": "uint256"
        }
      ],
      "name": "getGame",
      "outputs": [
        {
          "components": [
            {
              "internalType": "uint256",
              "name": "gameId",
              "type": "uint256"
            },
            {
              "internalType": "uint256",
              "name": "createdAt",
              "type": "uint256"
            },
            {
              "components": [
                {
                  "internalType": "uint8",
                  "name": "movesMade",
                  "type": "uint8"
                },
                {
                  "internalType": "uint64",
                  "name": "lastMoveAt",
                  "type": "uint64"
                },
                {
                  "internalType": "bytes32",
                  "name": "team1MovesEncrypted",
                  "type": "bytes32"
                },
                {
                  "internalType": "bytes32",
                  "name": "team2MovesEncrypted",
                  "type": "bytes32"
                },
                {
                  "internalType": "enum GameLib.TeamEnum",
                  "name": "lastMoveTeam",
                  "type": "uint8"
                },
                {
                  "internalType": "uint8",
                  "name": "team1score",
                  "type": "uint8"
                },
                {
                  "internalType": "uint8",
                  "name": "team2score",
                  "type": "uint8"
                }
              ],
              "internalType": "struct GameLib.GameState",
              "name": "gameState",
              "type": "tuple"
            },
            {
              "components": [
                {
                  "internalType": "uint256",
                  "name": "teamId",
                  "type": "uint256"
                },
                {
                  "internalType": "uint64",
                  "name": "eloRating",
                  "type": "uint64"
                },
                {
                  "internalType": "uint64",
                  "name": "eloRatingNew",
                  "type": "uint64"
                },
                {
                  "internalType": "enum GameLib.TeamFormation",
                  "name": "formation",
                  "type": "uint8"
                },
                {
                  "internalType": "uint256[5]",
                  "name": "__gap",
                  "type": "uint256[5]"
                }
              ],
              "internalType": "struct GameLib.TeamInfo",
              "name": "team1",
              "type": "tuple"
            },
            {
              "components": [
                {
                  "internalType": "uint256",
                  "name": "teamId",
                  "type": "uint256"
                },
                {
                  "internalType": "uint64",
                  "name": "eloRating",
                  "type": "uint64"
                },
                {
                  "internalType": "uint64",
                  "name": "eloRatingNew",
                  "type": "uint64"
                },
                {
                  "internalType": "enum GameLib.TeamFormation",
                  "name": "formation",
                  "type": "uint8"
                },
                {
                  "internalType": "uint256[5]",
                  "name": "__gap",
                  "type": "uint256[5]"
                }
              ],
              "internalType": "struct GameLib.TeamInfo",
              "name": "team2",
              "type": "tuple"
            },
            {
              "internalType": "enum GameLib.GameStatus",
              "name": "status",
              "type": "uint8"
            },
            {
              "internalType": "enum GameLib.TeamEnum",
              "name": "winner",
              "type": "uint8"
            },
            {
              "components": [
                {
                  "components": [
                    {
                      "internalType": "uint8",
                      "name": "x",
                      "type": "uint8"
                    },
                    {
                      "internalType": "uint8",
                      "name": "y",
                      "type": "uint8"
                    }
                  ],
                  "internalType": "struct GameLib.Position[6]",
                  "name": "team1PlayerPositions",
                  "type": "tuple[6]"
                },
                {
                  "components": [
                    {
                      "internalType": "uint8",
                      "name": "x",
                      "type": "uint8"
                    },
                    {
                      "internalType": "uint8",
                      "name": "y",
                      "type": "uint8"
                    }
                  ],
                  "internalType": "struct GameLib.Position[6]",
                  "name": "team2PlayerPositions",
                  "type": "tuple[6]"
                },
                {
                  "components": [
                    {
                      "internalType": "uint8",
                      "name": "x",
                      "type": "uint8"
                    },
                    {
                      "internalType": "uint8",
                      "name": "y",
                      "type": "uint8"
                    }
                  ],
                  "internalType": "struct GameLib.Position",
                  "name": "ballPosition",
                  "type": "tuple"
                },
                {
                  "internalType": "enum GameLib.TeamEnum",
                  "name": "ballOwner",
                  "type": "uint8"
                }
              ],
              "internalType": "struct GameLib.BoardState",
              "name": "lastBoardState",
              "type": "tuple"
            },
            {
              "internalType": "bytes32",
              "name": "historyIPFS",
              "type": "bytes32"
            },
            {
              "internalType": "bool",
              "name": "isVerified",
              "type": "bool"
            },
            {
              "internalType": "bytes",
              "name": "encryptedKey",
              "type": "bytes"
            },
            {
              "internalType": "uint8",
              "name": "gameEngineVersion",
              "type": "uint8"
            },
            {
              "internalType": "uint256[10]",
              "name": "__gap",
              "type": "uint256[10]"
            }
          ],
          "internalType": "struct GameLib.Game",
          "name": "",
          "type": "tuple"
        }
      ],
      "stateMutability": "view",
      "type": "function"
    },
    {
      "inputs": [
        {
          "internalType": "uint256",
          "name": "requestId",
          "type": "uint256"
        }
      ],
      "name": "getGameRequest",
      "outputs": [
        {
          "components": [
            {
              "internalType": "uint256",
              "name": "gameRequestId",
              "type": "uint256"
            },
            {
              "internalType": "uint256",
              "name": "team1id",
              "type": "uint256"
            },
            {
              "internalType": "uint256",
              "name": "team2id",
              "type": "uint256"
            },
            {
              "internalType": "uint256",
              "name": "createdAt",
              "type": "uint256"
            }
          ],
          "internalType": "struct GameLib.GameRequest",
          "name": "",
          "type": "tuple"
        }
      ],
      "stateMutability": "view",
      "type": "function"
    },
    {
      "inputs": [
        {
          "internalType": "uint256",
          "name": "gameId",
          "type": "uint256"
        }
      ],
      "name": "getGameStatus",
      "outputs": [
        {
          "internalType": "enum GameLib.GameStatus",
          "name": "",
          "type": "uint8"
        }
      ],
      "stateMutability": "view",
      "type": "function"
    },
    {
      "inputs": [
        {
          "internalType": "uint256",
          "name": "teamId",
          "type": "uint256"
        },
        {
          "internalType": "uint256",
          "name": "n",
          "type": "uint256"
        }
      ],
      "name": "getLastNGames",
      "outputs": [
        {
          "components": [
            {
              "internalType": "uint256",
              "name": "gameId",
              "type": "uint256"
            },
            {
              "internalType": "uint256",
              "name": "createdAt",
              "type": "uint256"
            },
            {
              "components": [
                {
                  "internalType": "uint8",
                  "name": "movesMade",
                  "type": "uint8"
                },
                {
                  "internalType": "uint64",
                  "name": "lastMoveAt",
                  "type": "uint64"
                },
                {
                  "internalType": "bytes32",
                  "name": "team1MovesEncrypted",
                  "type": "bytes32"
                },
                {
                  "internalType": "bytes32",
                  "name": "team2MovesEncrypted",
                  "type": "bytes32"
                },
                {
                  "internalType": "enum GameLib.TeamEnum",
                  "name": "lastMoveTeam",
                  "type": "uint8"
                },
                {
                  "internalType": "uint8",
                  "name": "team1score",
                  "type": "uint8"
                },
                {
                  "internalType": "uint8",
                  "name": "team2score",
                  "type": "uint8"
                }
              ],
              "internalType": "struct GameLib.GameState",
              "name": "gameState",
              "type": "tuple"
            },
            {
              "components": [
                {
                  "internalType": "uint256",
                  "name": "teamId",
                  "type": "uint256"
                },
                {
                  "internalType": "uint64",
                  "name": "eloRating",
                  "type": "uint64"
                },
                {
                  "internalType": "uint64",
                  "name": "eloRatingNew",
                  "type": "uint64"
                },
                {
                  "internalType": "enum GameLib.TeamFormation",
                  "name": "formation",
                  "type": "uint8"
                },
                {
                  "internalType": "uint256[5]",
                  "name": "__gap",
                  "type": "uint256[5]"
                }
              ],
              "internalType": "struct GameLib.TeamInfo",
              "name": "team1",
              "type": "tuple"
            },
            {
              "components": [
                {
                  "internalType": "uint256",
                  "name": "teamId",
                  "type": "uint256"
                },
                {
                  "internalType": "uint64",
                  "name": "eloRating",
                  "type": "uint64"
                },
                {
                  "internalType": "uint64",
                  "name": "eloRatingNew",
                  "type": "uint64"
                },
                {
                  "internalType": "enum GameLib.TeamFormation",
                  "name": "formation",
                  "type": "uint8"
                },
                {
                  "internalType": "uint256[5]",
                  "name": "__gap",
                  "type": "uint256[5]"
                }
              ],
              "internalType": "struct GameLib.TeamInfo",
              "name": "team2",
              "type": "tuple"
            },
            {
              "internalType": "enum GameLib.GameStatus",
              "name": "status",
              "type": "uint8"
            },
            {
              "internalType": "enum GameLib.TeamEnum",
              "name": "winner",
              "type": "uint8"
            },
            {
              "components": [
                {
                  "components": [
                    {
                      "internalType": "uint8",
                      "name": "x",
                      "type": "uint8"
                    },
                    {
                      "internalType": "uint8",
                      "name": "y",
                      "type": "uint8"
                    }
                  ],
                  "internalType": "struct GameLib.Position[6]",
                  "name": "team1PlayerPositions",
                  "type": "tuple[6]"
                },
                {
                  "components": [
                    {
                      "internalType": "uint8",
                      "name": "x",
                      "type": "uint8"
                    },
                    {
                      "internalType": "uint8",
                      "name": "y",
                      "type": "uint8"
                    }
                  ],
                  "internalType": "struct GameLib.Position[6]",
                  "name": "team2PlayerPositions",
                  "type": "tuple[6]"
                },
                {
                  "components": [
                    {
                      "internalType": "uint8",
                      "name": "x",
                      "type": "uint8"
                    },
                    {
                      "internalType": "uint8",
                      "name": "y",
                      "type": "uint8"
                    }
                  ],
                  "internalType": "struct GameLib.Position",
                  "name": "ballPosition",
                  "type": "tuple"
                },
                {
                  "internalType": "enum GameLib.TeamEnum",
                  "name": "ballOwner",
                  "type": "uint8"
                }
              ],
              "internalType": "struct GameLib.BoardState",
              "name": "lastBoardState",
              "type": "tuple"
            },
            {
              "internalType": "bytes32",
              "name": "historyIPFS",
              "type": "bytes32"
            },
            {
              "internalType": "bool",
              "name": "isVerified",
              "type": "bool"
            },
            {
              "internalType": "bytes",
              "name": "encryptedKey",
              "type": "bytes"
            },
            {
              "internalType": "uint8",
              "name": "gameEngineVersion",
              "type": "uint8"
            },
            {
              "internalType": "uint256[10]",
              "name": "__gap",
              "type": "uint256[10]"
            }
          ],
          "internalType": "struct GameLib.Game[]",
          "name": "",
          "type": "tuple[]"
        }
      ],
      "stateMutability": "view",
      "type": "function"
    },
    {
      "inputs": [
        {
          "internalType": "uint256",
          "name": "teamId",
          "type": "uint256"
        }
      ],
      "name": "getTeam",
      "outputs": [
        {
          "components": [
            {
              "internalType": "uint256",
              "name": "id",
              "type": "uint256"
            },
            {
              "internalType": "address",
              "name": "wallet",
              "type": "address"
            },
            {
              "internalType": "string",
              "name": "name",
              "type": "string"
            },
            {
              "internalType": "uint64",
              "name": "eloRating",
              "type": "uint64"
            },
            {
              "internalType": "uint256",
              "name": "registeredAt",
              "type": "uint256"
            },
            {
              "internalType": "uint256[]",
              "name": "games",
              "type": "uint256[]"
            },
            {
              "internalType": "uint8",
              "name": "country",
              "type": "uint8"
            },
            {
              "internalType": "bool",
              "name": "hasActiveGame",
              "type": "bool"
            },
            {
              "internalType": "uint256",
              "name": "gameRequestId",
              "type": "uint256"
            },
            {
              "internalType": "uint64",
              "name": "totalGames",
              "type": "uint64"
            },
            {
              "internalType": "uint256[10]",
              "name": "__gap",
              "type": "uint256[10]"
            }
          ],
          "internalType": "struct GameLib.Team",
          "name": "",
          "type": "tuple"
        }
      ],
      "stateMutability": "view",
      "type": "function"
    },
    {
      "inputs": [
        {
          "internalType": "address",
          "name": "wallet",
          "type": "address"
        }
      ],
      "name": "getTeamIdByWallet",
      "outputs": [
        {
          "internalType": "uint256",
          "name": "",
          "type": "uint256"
        }
      ],
      "stateMutability": "view",
      "type": "function"
    },
    {
      "inputs": [
        {
          "internalType": "address",
          "name": "_gelatoAddress",
          "type": "address"
        },
        {
          "internalType": "address",
          "name": "_relayerAddress",
          "type": "address"
        },
        {
          "internalType": "address",
          "name": "_gameEngineServerAddress",
          "type": "address"
        },
        {
          "internalType": "string",
          "name": "_publicKey",
          "type": "string"
        }
      ],
      "name": "initialize",
      "outputs": [],
      "stateMutability": "nonpayable",
      "type": "function"
    },
    {
      "inputs": [
        {
          "internalType": "uint256",
          "name": "gameId",
          "type": "uint256"
        },
        {
          "internalType": "enum GameLib.StateType",
          "name": "stateType",
          "type": "uint8"
        },
        {
          "internalType": "uint8[]",
          "name": "clashRandomNumbers",
          "type": "uint8[]"
        },
        {
          "components": [
            {
              "internalType": "uint256",
              "name": "playerId",
              "type": "uint256"
            },
            {
              "internalType": "enum GameLib.MoveType",
              "name": "moveType",
              "type": "uint8"
            },
            {
              "components": [
                {
                  "internalType": "uint8",
                  "name": "x",
                  "type": "uint8"
                },
                {
                  "internalType": "uint8",
                  "name": "y",
                  "type": "uint8"
                }
              ],
              "internalType": "struct GameLib.Position",
              "name": "oldPosition",
              "type": "tuple"
            },
            {
              "components": [
                {
                  "internalType": "uint8",
                  "name": "x",
                  "type": "uint8"
                },
                {
                  "internalType": "uint8",
                  "name": "y",
                  "type": "uint8"
                }
              ],
              "internalType": "struct GameLib.Position",
              "name": "newPosition",
              "type": "tuple"
            }
          ],
          "internalType": "struct GameLib.GameAction[]",
          "name": "team1Actions",
          "type": "tuple[]"
        },
        {
          "components": [
            {
              "internalType": "uint256",
              "name": "playerId",
              "type": "uint256"
            },
            {
              "internalType": "enum GameLib.MoveType",
              "name": "moveType",
              "type": "uint8"
            },
            {
              "components": [
                {
                  "internalType": "uint8",
                  "name": "x",
                  "type": "uint8"
                },
                {
                  "internalType": "uint8",
                  "name": "y",
                  "type": "uint8"
                }
              ],
              "internalType": "struct GameLib.Position",
              "name": "oldPosition",
              "type": "tuple"
            },
            {
              "components": [
                {
                  "internalType": "uint8",
                  "name": "x",
                  "type": "uint8"
                },
                {
                  "internalType": "uint8",
                  "name": "y",
                  "type": "uint8"
                }
              ],
              "internalType": "struct GameLib.Position",
              "name": "newPosition",
              "type": "tuple"
            }
          ],
          "internalType": "struct GameLib.GameAction[]",
          "name": "team2Actions",
          "type": "tuple[]"
        },
        {
          "components": [
            {
              "components": [
                {
                  "internalType": "uint8",
                  "name": "x",
                  "type": "uint8"
                },
                {
                  "internalType": "uint8",
                  "name": "y",
                  "type": "uint8"
                }
              ],
              "internalType": "struct GameLib.Position[6]",
              "name": "team1PlayerPositions",
              "type": "tuple[6]"
            },
            {
              "components": [
                {
                  "internalType": "uint8",
                  "name": "x",
                  "type": "uint8"
                },
                {
                  "internalType": "uint8",
                  "name": "y",
                  "type": "uint8"
                }
              ],
              "internalType": "struct GameLib.Position[6]",
              "name": "team2PlayerPositions",
              "type": "tuple[6]"
            },
            {
              "components": [
                {
                  "internalType": "uint8",
                  "name": "x",
                  "type": "uint8"
                },
                {
                  "internalType": "uint8",
                  "name": "y",
                  "type": "uint8"
                }
              ],
              "internalType": "struct GameLib.Position",
              "name": "ballPosition",
              "type": "tuple"
            },
            {
              "internalType": "enum GameLib.TeamEnum",
              "name": "ballOwner",
              "type": "uint8"
            }
          ],
          "internalType": "struct GameLib.BoardState",
          "name": "boardState",
          "type": "tuple"
        }
      ],
      "name": "newGameState",
      "outputs": [],
      "stateMutability": "nonpayable",
      "type": "function"
    },
    {
      "inputs": [],
      "name": "nextGameId",
      "outputs": [
        {
          "internalType": "uint256",
          "name": "",
          "type": "uint256"
        }
      ],
      "stateMutability": "view",
      "type": "function"
    },
    {
      "inputs": [],
      "name": "nextTeamId",
      "outputs": [
        {
          "internalType": "uint256",
          "name": "",
          "type": "uint256"
        }
      ],
      "stateMutability": "view",
      "type": "function"
    },
    {
      "inputs": [],
      "name": "owner",
      "outputs": [
        {
          "internalType": "address",
          "name": "",
          "type": "address"
        }
      ],
      "stateMutability": "view",
      "type": "function"
    },
    {
      "inputs": [],
      "name": "proxiableUUID",
      "outputs": [
        {
          "internalType": "bytes32",
          "name": "",
          "type": "bytes32"
        }
      ],
      "stateMutability": "view",
      "type": "function"
    },
    {
      "inputs": [],
      "name": "relayerAddress",
      "outputs": [
        {
          "internalType": "address",
          "name": "",
          "type": "address"
        }
      ],
      "stateMutability": "view",
      "type": "function"
    },
    {
      "inputs": [],
      "name": "renounceOwnership",
      "outputs": [],
      "stateMutability": "nonpayable",
      "type": "function"
    },
    {
      "inputs": [
        {
          "internalType": "uint256",
          "name": "gameId",
          "type": "uint256"
        },
        {
          "internalType": "enum GameLib.TeamEnum",
          "name": "cauzedByTeam",
          "type": "uint8"
        },
        {
          "internalType": "enum ChessBallGame.ErrorType",
          "name": "errorType",
          "type": "uint8"
        },
        {
          "internalType": "string",
          "name": "errorMsg",
          "type": "string"
        }
      ],
      "name": "setGameError",
      "outputs": [],
      "stateMutability": "nonpayable",
      "type": "function"
    },
    {
      "inputs": [
        {
          "internalType": "uint256",
          "name": "gameRequestId",
          "type": "uint256"
        },
        {
          "internalType": "bytes",
          "name": "_encryptedKey",
          "type": "bytes"
        }
      ],
      "name": "startGame",
      "outputs": [],
      "stateMutability": "nonpayable",
      "type": "function"
    },
    {
      "inputs": [
        {
          "internalType": "address",
          "name": "sender",
          "type": "address"
        },
        {
          "internalType": "uint256",
          "name": "gameRequestId",
          "type": "uint256"
        },
        {
          "internalType": "bytes",
          "name": "_encryptedKey",
          "type": "bytes"
        }
      ],
      "name": "startGameRelayer",
      "outputs": [],
      "stateMutability": "nonpayable",
      "type": "function"
    },
    {
      "inputs": [
        {
          "internalType": "address",
          "name": "",
          "type": "address"
        }
      ],
      "name": "teamIdByWallet",
      "outputs": [
        {
          "internalType": "uint256",
          "name": "",
          "type": "uint256"
        }
      ],
      "stateMutability": "view",
      "type": "function"
    },
    {
      "inputs": [
        {
          "internalType": "string",
          "name": "",
          "type": "string"
        }
      ],
      "name": "teamNames",
      "outputs": [
        {
          "internalType": "bool",
          "name": "",
          "type": "bool"
        }
      ],
      "stateMutability": "view",
      "type": "function"
    },
    {
      "inputs": [
        {
          "internalType": "uint256",
          "name": "",
          "type": "uint256"
        }
      ],
      "name": "teams",
      "outputs": [
        {
          "internalType": "uint256",
          "name": "id",
          "type": "uint256"
        },
        {
          "internalType": "address",
          "name": "wallet",
          "type": "address"
        },
        {
          "internalType": "string",
          "name": "name",
          "type": "string"
        },
        {
          "internalType": "uint64",
          "name": "eloRating",
          "type": "uint64"
        },
        {
          "internalType": "uint256",
          "name": "registeredAt",
          "type": "uint256"
        },
        {
          "internalType": "uint8",
          "name": "country",
          "type": "uint8"
        },
        {
          "internalType": "bool",
          "name": "hasActiveGame",
          "type": "bool"
        },
        {
          "internalType": "uint256",
          "name": "gameRequestId",
          "type": "uint256"
        },
        {
          "internalType": "uint64",
          "name": "totalGames",
          "type": "uint64"
        }
      ],
      "stateMutability": "view",
      "type": "function"
    },
    {
      "inputs": [
        {
          "internalType": "uint256",
          "name": "gameId",
          "type": "uint256"
        }
      ],
      "name": "testTriggerGameActionCommitted",
      "outputs": [],
      "stateMutability": "nonpayable",
      "type": "function"
    },
    {
      "inputs": [
        {
          "internalType": "address",
          "name": "newOwner",
          "type": "address"
        }
      ],
      "name": "transferOwnership",
      "outputs": [],
      "stateMutability": "nonpayable",
      "type": "function"
    },
    {
      "inputs": [
        {
          "internalType": "address",
          "name": "newImplementation",
          "type": "address"
        },
        {
          "internalType": "bytes",
          "name": "data",
          "type": "bytes"
        }
      ],
      "name": "upgradeToAndCall",
      "outputs": [],
      "stateMutability": "payable",
      "type": "function"
    }
  ],
  "bytecode": "0x60a08060405234620000d157306080527ff0c57e16840df040f15088dc2f81fe391c3923bec73e23a9662efc9c229c6a009081549060ff8260401c16620000c257506001600160401b036002600160401b0319828216016200007c575b6040516153679081620000d7823960805181818161178f01526118730152f35b6001600160401b031990911681179091556040519081527fc7f505b2f371ae2175ee4913f4499e1f2633a7b5936321eed1cdaeb6115181d290602090a13880806200005c565b63f92ee8a960e01b8152600490fd5b600080fdfe608080604052600436101561001357600080fd5b60003560e01c9081628e0f1b1461217a5750806302f785fd146120ed5780630f1bf4541461209b5780630fb9f86914611f3a578063117a5b9014611e0557806313e4c71414611dce5780631894c75614611db057806318a7cca814611d875780631b76929c14611cee57806322d60b1a14611cd65780632cc9c96414611cad5780632df84be514611ba657806337900ba214611b6f5780633ed2b77a14611ab157806349e3969a14611a755780634cf97fad14611a2e5780634f1ef2861461182457806351903bd9146117e757806352d1902d1461177c57806359bcfbe4146116b657806365e8e4f4146113f357806368599d0c146113d55780636e6964d714611374578063715018a61461131c57806371f5001f1461089757806379b880ac146106e55780637bb597fa146106c75780638da5cb5b1461069157806392a52e8114610643578063a2f77bcc1461050d578063a462816c146104e4578063ad3cb1cc1461049a578063afcaa6e314610440578063b135bbb014610422578063c4b634f3146103c1578063c6480413146101ec578063c949504114610389578063e34c2e58146102f6578063ec5c504e146102d9578063f2b1ffcf14610256578063f2fde38b1461022b5763ff156d00146101ec57600080fd5b34610226576020366003190112610226576001600160a01b0361020d612afa565b1660005260056020526020604060002054604051908152f35b600080fd5b3461022657602036600319011261022657610254610247612afa565b61024f613431565b613227565b005b346102265760803660031901126102265761026f612afa565b602435906044356003811015610226576001546001600160a01b031633036102c757826000526003602052600160406000200154156102b55761025492606435926148d7565b60405163b0ce759160e01b8152600490fd5b604051639608c6ff60e01b8152600490fd5b34610226576020366003190112610226576102546004353361476a565b3461022657602036600319011261022657600435610312613202565b50806000526009602052600360406000200154156102b55760005260096020526080604060002060405161034581612718565b815491828252600181015460208301908152606060036002840154936040860194855201549301928352604051938452516020840152516040830152516060820152f35b34610226576040366003190112610226576103a2612afa565b6001546001600160a01b031633036102c757610254906024359061476a565b34610226576060366003190112610226576103da612afa565b6024356001600160401b038111610226576103f990369060040161280d565b6044359060ff82168203610226576001546001600160a01b031633036102c757610254926134cd565b34610226576000366003190112610226576020600654604051908152f35b3461022657606036600319011261022657610459612afa565b6044356001600160401b03811161022657610478903690600401612b1e565b6001549091906001600160a01b031633036102c7576102549260243590613afd565b34610226576000366003190112610226576104e06040516104ba8161274e565b60058152640352e302e360dc1b602082015260405191829160208352602083019061240f565b0390f35b34610226576000366003190112610226576002546040516001600160a01b039091168152602090f35b34610226576020806003193601126102265760043561052a612c5a565b508060005260038252600160406000200154156102b55760005260038152604060002090610629602760405193610560856126fc565b8054855260018101548486015261057960028201612834565b604086015261058a6006820161289a565b606086015261059b600d820161289a565b60808601526105c860ff60148301548181166105b681612549565b60a089015260081c1660c08701612828565b6105d460158201612992565b60e0860152602381015461010086015260ff602482015416151561012086015260405161060f816106088160258601612a1b565b0382612798565b61014086015260ff60268201541661016086015201612b7b565b6101808301526104e06040519282849384528301906125e8565b34610226576020366003190112610226576004356000526009602052608060406000208054906001810154906003600282015491015491604051938452602084015260408301526060820152f35b3461022657600036600319011261022657600080516020615232833981519152546040516001600160a01b039091168152602090f35b34610226576000366003190112610226576020600a54604051908152f35b34610226576040366003190112610226576106fe612afa565b60018054602435926001600160a01b039291831633036102c7578360005260036020528160406000200154156102b5578360005260036020528160406000200154156102b5578360005260036020526040600020928260ff60148601541661076581612549565b03610885576006840154600052600460205280808460406000200154169216809214159283610867575b505050610855576003810154158015610849575b6108375760018060401b03600282015460081c16603c81018091116108215742111561080f576005015460ff1660038110156107f957156107e75761025490614558565b6040516356eff76b60e01b8152600490fd5b634e487b7160e01b600052602160045260246000fd5b604051634e7fc88160e11b8152600490fd5b634e487b7160e01b600052601160045260246000fd5b604051631e86addb60e01b8152600490fd5b506004810154156107a3565b604051633093624d60e21b8152600490fd5b90919250600d8401546000526040600020015416141583808061078f565b6040516314bc0c2f60e31b8152600490fd5b34610226576104003660031901126102265760046024351015610226576001600160401b036044351161022657366023604435011215610226576001600160401b036004604435013511610226573660246044356004013560051b604435010111610226576064356001600160401b0381116102265761091b903690600401612b4b565b6084356001600160401b0381116102265761093a903690600401612b4b565b90916103603660a3190112610226576004356000526003602052600160406000200154156102b557600254336001600160a01b039182161415908161130d575b506112fb576004356000526003602052604060002092600160ff6014860154166109a381612549565b036108855760ff6002850154166112cb575b60158401600060a45b6006821061129557505050601b840160006102245b60068210611259575050506103a43560ff811681036102265760ff1660ff1960218601541617602185015560ff6103c435166103c4350361022657610a1e6103c435602186016130e6565b60036103e435101561022657610a3a6103e4356022860161305c565b610b34600285015460ff610a4f8183166130fc565b91610a5b602435612549565b60243560020361124957610a778260058a015460081c166130fc565b925b610a84602435612549565b60243560030361123957610aa08360058b015460101c166130fc565b915b604051610aae816126e1565b848316815260018060401b034216602082015260006040820152600060608201526000608082015284861660a082015260c085851691015283610100600160481b034260081b1692169060018060481b031916171760028901556000600389015560006004890155610b2d8260058a01948119865416865516846130e6565b169061310e565b610b3f602435612549565b6024356002036112025760405160018152600080516020615212833981519152602060043592a25b835492604051926104008401610b7e602435612549565b6024358552426020860152610400604086015260443560040135905261042084019660246044350160005b6044356004013581106111e257505093610c09600296947f1cc12e86ff5f2b2e761ab2fd8a6e3ee635d92958237b110363a2868ed2b6f8be94610bfb8b859660ff9c9a87602d9f036060890152613148565b918483036080860152613148565b610c1960a08301601588016131c5565b610c2a6102208301601b88016131c5565b610c4a6103a083016021880160ff60209154818116845260081c16910152565b610c5f886022880154166103e0840190612472565b0390a20154161015610c6d57005b600060043560005260036020526040600020602d60ff600283015416106111d05760068101546000526004602052610cb76040600020600d83015460005260406000209083614fd8565b5060043560005260036020526040600020600681015460005260046020526040600020600d8201546000526040600020916032600582015460ff808260081c169160101c16908181116000146111c25750505060645b600583015415806111ab575b61115f575b60058401541580611148575b6110fc575b6007820154600e8301546001600160401b039081169116808210156110f357818103905b610466821015610226578083106110e5575b60199210156110dc57610320035b04600a60018216156110d157600a919088915b60011c90815b61107e5750505091610e9391610dbd610db5610db0610db0610db060209998615160565b615160565b6064016150d9565b9060140281811091826000146110765703905b1561101c57600386018054916001600160401b039081169190610df5838583166150a7565b166001600160401b0319938416179055600385018054909290916001600160401b0390610e24908285166150c0565b1691161790555b60038301546113889081906001600160401b0381168211611005575b505060038601546001600160401b0381168211610fee575b50506003830154610e7c906001600160401b031660078301613a92565b60038501546001600160401b031690600e01613a92565b80546003909101546040516001600160401b0390911681526000805160206152b2833981519152928391a281546003909201546040516001600160401b039091168152602090a2815b6008549081811015610fe257610ef181612ab1565b60043591549060031b1c14610f0a576001915001610edc565b60001991808301908111610fce5790610f35610f28610f4e93612ab1565b90549060031b1c91612ab1565b90919082549060031b91821b91600019901b1916179055565b6008548015610fba579160149160ff9301610f7c610f6b82612ab1565b8154906000199060031b1b19169055565b6008555b015460081c1690610f946040518093612472565b610f9d81613052565b60208201526000805160206152f2833981519152604060043592a2005b634e487b7160e01b84526031600452602484fd5b634e487b7160e01b85526011600452602485fd5b5050601460ff91610f80565b6001600160401b0319161760038601558780610e5f565b6001600160401b0319161760038501558089610e47565b600384018054916001600160401b03908116919061103c838583166150a7565b166001600160401b0319938416179055600387018054909290916001600160401b039061106b908285166150c0565b169116179055610e2b565b900390610dd0565b8060801c6110cd578002916110c95781600182166110a3575b5060011c889181610d8c565b90928099508180820204036110be575b600098029189611097565b80156110b357600080fd5b8880fd5b8280fd5b600191908891610d86565b61032001610d73565b6103208210610d6557600080fd5b80820390610d53565b6003840180546127106001600160401b03199182168117909255600e840180549092919060646001600160401b0382161461113b575b50505050610d2f565b1617905586808080611132565b5060038401546001600160401b0316606414610d2a565b6003830180546127106001600160401b031991821681179092556007840180549092919060646001600160401b0382161461119e575b50505050610d1e565b1617905586808080611195565b5060038301546001600160401b0316606414610d19565b1015610d0d57506000610d0d565b604051636ff6cfe560e01b8152600490fd5b909860208060019260ff6111f58e612b10565b168152019a019101610ba9565b61120d602435612549565b600360243503610b675760405160028152600080516020615212833981519152602060043592a2610b67565b8260058a015460101c1691610aa2565b81600589015460081c1692610a79565b600160408260ff61126a84956130d8565b1660ff19875416178655611289611283602083016130d8565b876130e6565b019301910190916109d3565b600160408260ff6112a684956130d8565b1660ff198754161786556112bf611283602083016130d8565b019301910190916109be565b60038401541580156112ef575b156109b557604051631e86addb60e01b8152600490fd5b506004840154156112d8565b604051631c307ff760e31b8152600490fd5b9050600054163314158561097a565b3461022657600036600319011261022657611335613431565b60008051602061523283398151915280546001600160a01b031981169091556000906001600160a01b03166000805160206152728339815191528280a3005b34610226576020366003190112610226576004356001600160401b0381116102265760ff6113bf60206113ac8194369060040161280d565b81604051938285809451938492016123ec565b8101600b81520301902054166040519015158152f35b34610226576000366003190112610226576020600754604051908152f35b346102265760803660031901126102265761140c612afa565b6001600160a01b03602435818116908190036102265760443592828416809403610226576001600160401b036064358181116102265761145090369060040161280d565b946000805160206152d28339815191529384549560ff8760401c161594848816978815806116af575b6001809a1490816116a5575b15908161169c575b5061168a576001600160401b03198116891788558661166f575b501690811561165d57801561165d57821561165d5760018060a01b0319918260005416176000558187541617865560025416176002558451908111611647576114f1600c546129e1565b601f81116115ed575b50602094601f82116001146115885761152192939495829160009261157d575b50506130c5565b600c555b61152d614f91565b611535614f91565b61153e33613227565b61154457005b805460ff60401b191690556040519081527fc7f505b2f371ae2175ee4913f4499e1f2633a7b5936321eed1cdaeb6115181d290602090a1005b01519050868061151a565b601f19821695600c600052806000209160005b8881106115d7575083879897959697106115be575b505050811b01600c55611525565b015160001960f88460031b161c191690558580806115b0565b818301518455928701926020928301920161159b565b600c600052611637907fdf6966c971051c3d54ec59162606531493a51404a002842f56009d7e5cf4a8c7601f840160051c8101916020851061163d575b601f0160051c0190613074565b856114fa565b909150819061162a565b634e487b7160e01b600052604160045260246000fd5b6040516301369f3160e61b8152600490fd5b6001600160481b0319166001600160401b01178755896114a7565b60405163f92ee8a960e01b8152600490fd5b9050158b61148d565b303b159150611485565b5086611479565b3461022657600036600319011261022657604051600c546000826116d9836129e1565b918282526020936001908560018216918260001461175c57505060011461171c575b5061170892500383612798565b6104e060405192828493845283019061240f565b849150600c60005281600020906000915b8583106117445750506117089350820101856116fb565b8054838901850152879450869390920191810161172d565b60ff19168582015261170895151560051b85010192508791506116fb9050565b34610226576000366003190112610226577f00000000000000000000000000000000000000000000000000000000000000006001600160a01b031630036117d55760206040516000805160206152528339815191528152f35b60405163703e46dd60e11b8152600490fd5b34610226576040366003190112610226576024356001600160401b0381116102265761181a610254913690600401612b1e565b9060043533613afd565b604036600319011261022657611838612afa565b6024356001600160401b0381116102265736602382011215610226576118689036906024816004013591016127d6565b906001600160a01b037f00000000000000000000000000000000000000000000000000000000000000008116308114908115611a12575b506117d5576118ac613431565b6040516352d1902d60e01b8152908216916020918281600481875afa600091816119e3575b506118ef57604051634c9c8ce360e01b815260048101859052602490fd5b928493600080516020615252833981519152908181036119cb5750823b156119b25780546001600160a01b03191682179055604051907fbc7cd75a20ee27fd9adebab32041f755214dbc6bffa90cc0225b39da2e5c2d3b600080a28351156119985750600080848461025496519101845af4903d1561198f573d611972816127bb565b906119806040519283612798565b8152600081943d92013e6150fd565b606092506150fd565b92505050346119a357005b63b398979f60e01b8152600490fd5b604051634c9c8ce360e01b815260048101839052602490fd5b60249060405190632a87526960e21b82526004820152fd5b9091508381813d8311611a0b575b6119fb8183612798565b81010312610226575190866118d1565b503d6119f1565b905081600080516020615252833981519152541614158461189f565b34610226576040366003190112610226576004356001600160401b03811161022657611a5e90369060040161280d565b60243560ff811681036102265761025491336134cd565b3461022657606036600319011261022657611a8e612afa565b6001546001600160a01b031633036102c7576102549060443590602435906132ae565b34610226576020366003190112610226576004356000526004602052604060002080549060018060a01b0360018201541690604051611af7816106088160028601612a1b565b60018060401b039160ff83600383015416936004830154611b42600685015492600860078701549601541695604051998a99610120918b5260208b01528060408b015289019061240f565b956060880152608087015281811660a087015260081c16151560c085015260e08401526101008301520390f35b3461022657602036600319011261022657611b88613431565b604051428152600080516020615292833981519152602060043592a2005b3461022657602036600319011261022657600435806000526003602052600160406000200154156102b557806000526003602052600160406000200154156102b5578060005260036020526040600020600160ff601483015416611c0981612549565b036108855760068101546000908152600460205260409020600101546001600160a01b039081163314159081611c8f575b50610855576003810154158015610849576108375760018060401b03600282015460081c16603c81018091116108215742111561080f576005015460ff1660038110156107f957156107e75761025490614558565b9050600d820154600052339060016040600020015416141583611c3a565b34610226576000366003190112610226576000546040516001600160a01b039091168152602090f35b3461022657610254611ce73661245c565b90336132ae565b346102265760003660031901126102265760405180600854808352602080930180916008600052846000209060005b86828210611d73578686611d3382880383612798565b604051928392818401908285525180915260408401929160005b828110611d5c57505050500390f35b835185528695509381019392810192600101611d4d565b835485529093019260019283019201611d1d565b34610226576000366003190112610226576001546040516001600160a01b039091168152602090f35b34610226576000366003190112610226576020600854604051908152f35b346102265760203660031901126102265760043560085481101561022657611df7602091612ab1565b90546040519160031b1c8152f35b346102265760203660031901126102265760043560005260036020526040600020805460018201549060028301611e3b90612834565b92611e486006820161289a565b91611e55600d830161289a565b601483015460ff811690611e6b60158601612992565b90602386015492602487015460ff16946040519788806025830190611e8f91612a1b565b03611e9a908a612798565b6026015460ff16986040519b8c9b610780998d5260208d015260408c01611ec09161247f565b6101208b01611ece916124d7565b6102408a01611edc916124d7565b611ee581612549565b61036089015261038088019060081c60ff1690611f0191612472565b6103a08701611f0f91612592565b6107008601521515610720850152806107408501528301611f2f9161240f565b906107608301520390f35b346102265760803660031901126102265760043560243560038110159081610226576044356002811015610226576064356001600160401b03811161022657611f8790369060040161280d565b600254909390336001600160a01b039182161415908161208c575b506112fb57611fb082613052565b6001821480612080575b61200e575b509061200960008051602061531283398151915293611fe49360405194858095612472565b611fed81613052565b602084015242604084015260806060840152608083019061240f565b0390a2005b8460009392935260036020526040600020906107f95760008051602061531283398151915293611fe493612009926001850361205d57600501805460ff191660021790555b9293509350611fbf565b6002851461206c575b50612053565b600501805460ff1916600117905587612066565b50506000821515611fba565b90506000541633141586611fa2565b3461022657602036600319011261022657600435806000526003602052600160406000200154156102b5576000526003602052602060ff60146040600020015416604051906120e981612549565b8152f35b34610226576120fb3661245c565b908060005260209160048352604060002054156102b55761211b91612dad565b6040519082820192808352815180945260408301938160408260051b8601019301916000955b82871061214e5785850386f35b90919293828061216a600193603f198a820301865288516125e8565b9601920196019592919092612141565b346102265760203660031901126102265760043590612198816126c5565b6000815260006020820152606060408201526000606082015260006080820152606060a0820152600060c0820152600060e082015260006101008201526000610120820152610140604051916121ed8361277c565b813684370152806000526004602052604060002054156102b5576000526004602052604060002060405190612221826126c5565b8054825260018101546001600160a01b0316602083015260405161224c816106088160028601612a1b565b604083015260018060401b036003820154166060830152600481015460808301526005810160405190816020825491828152019160005260206000209060005b8181106123d657866122eb600988886122a7818a0382612798565b60a0850152600681015460ff81811660c0870152600891821c16151560e086015260078201546101008601528101546001600160401b031661012085015201612b7b565b6101408201526040805160208082528351818301528301516001600160a01b03168183015290820151610280606083015261232b906102a083019061240f565b60018060401b036060840151166080830152608083015160a083015260a083015190601f198382030160c08401526020808351928381520192019060005b8181106123c0575050506104e06101408460ff60c0869701511660e086015260e0810151151561010086015261010081015161012086015260018060401b0361012082015116828601520151610160840190612434565b8251845260209384019390920191600101612369565b825484526020909301926001928301920161228c565b60005b8381106123ff5750506000910152565b81810151838201526020016123ef565b90602091612428815180928185528580860191016123ec565b601f01601f1916010190565b6000915b600a831061244557505050565b600190825181526020809101920192019190612438565b6040906003190112610226576004359060243590565b9060038210156107f95752565b60ff60c0809282815116855260018060401b03602082015116602086015260408101516040860152606081015160608601526124c360808201516080870190612472565b8260a08201511660a0860152015116910152565b805182526020808201516001600160401b03908116828501526040808401519091169084015260608201519093926001929091838110156107f957606083015260809081015160009590929091015b6005861061253657505050509050565b8251815294830194918101918101612526565b600411156107f957565b906000905b6006821061256557505050565b6020604082612586600194875160ff60208092828151168552015116910152565b01930191019091612558565b9061034060606125e6936125a7848251612553565b6125ba6020820151610180860190612553565b6125dc604082015161030086019060ff60208092828151168552015116910152565b0151910190612472565b565b906126c2906107806101806126a86108c086518552602087015160208601526126196040880151604087019061247f565b606087015161262e61012091828801906124d7565b61264160808901516102408801906124d7565b60a088015161264f81612549565b61036087015261266860c0890151610380880190612472565b61267b60e08901516103a0880190612592565b6101008801516107008701528701511515610720860152610140870151908061074087015285019061240f565b9460ff610160820151166107608501520151910190612434565b90565b61016081019081106001600160401b0382111761164757604052565b60e081019081106001600160401b0382111761164757604052565b6101a081019081106001600160401b0382111761164757604052565b608081019081106001600160401b0382111761164757604052565b60a081019081106001600160401b0382111761164757604052565b604081019081106001600160401b0382111761164757604052565b6001600160401b03811161164757604052565b61014081019081106001600160401b0382111761164757604052565b601f909101601f19168101906001600160401b0382119082101761164757604052565b6001600160401b03811161164757601f01601f191660200190565b9291926127e2826127bb565b916127f06040519384612798565b829481845281830111610226578281602093846000960137010152565b9080601f83011215610226578160206126c2933591016127d6565b60038210156107f95752565b90604051612841816126e1565b60c060ff600383958054838116865260018060401b039060081c1660208601526001810154604086015260028101546060860152015461288682821660808601612828565b818160081c1660a085015260101c16910152565b90604051916128a883612733565b82815481526001808301549260ff60018060401b039460209580821660208701528160401c16604086015260801c1660018110156107f957606084015260405193600290910190600090855b6005831061291157505050505060809061290d83612733565b0152565b83548152928401929184019181016128f4565b906040516129318161274e565b602060ff829454818116845260081c16910152565b604051919060c083016001600160401b03811184821017611647576040526000835b6006821061297557505050565b60016020819261298486612924565b815201930191019091612968565b906125e66040516129a281612718565b606060ff600d83966129b381612946565b85526129c160068201612946565b60208601526129d2600c8201612924565b60408601520154169101612828565b90600182811c92168015612a11575b60208310146129fb57565b634e487b7160e01b600052602260045260246000fd5b91607f16916129f0565b805460009392612a2a826129e1565b91828252602093600191600181169081600014612a925750600114612a51575b5050505050565b90939495506000929192528360002092846000945b838610612a7e57505050500101903880808080612a4a565b805485870183015294019385908201612a66565b60ff19168685015250505090151560051b010191503880808080612a4a565b600854811015612acc57600860005260206000200190600090565b634e487b7160e01b600052603260045260246000fd5b8054821015612acc5760005260206000200190600090565b600435906001600160a01b038216820361022657565b359060ff8216820361022657565b9181601f84011215610226578235916001600160401b038311610226576020838186019501011161022657565b9181601f84011215610226578235916001600160401b0383116102265760208085019460c0850201011161022657565b60405191906000835b600a8210612b98575050506125e68261277c565b6001602081928554815201930191019091612b84565b6001600160401b0381116116475760051b60200190565b60405190612bd282612733565b8160008152600060208201526000604082015260006060820152608060405191612bfb83612733565b60a03684370152565b60408051919060c0908184016001600160401b03811185821017611647576040528360009160005b848110612c3a575050505050565b6020908251612c488161274e565b85815285838201528185015201612c2c565b604090815191612c69836126fc565b610180836000928382528360208301528051612c84816126e1565b84815284602082015284828201528460608201528460808201528460a08201528460c082015281830152612cb6612bc5565b6060830152612cc3612bc5565b60808301528360a08301528360c08301528051612cdf81612718565b612ce7612c04565b8152612cf1612c04565b60208201528151612d018161274e565b8581528560208201528282015284606082015260e08301528361010083015283610120830152610140936060858401526101608301525192612d428461277c565b3684370152565b90612d5382612bae565b612d606040519182612798565b8281528092612d71601f1991612bae565b019060005b828110612d8257505050565b602090612d8d612c5a565b82828501015201612d76565b8051821015612acc5760209160051b010190565b9060009182526004906020600481526040600581862001948554801561301a5780851015612f1557612dde85612d49565b96825b868110612df357505050505050505090565b868303838111612f0257818101809111612f025790612e1460019284612ae2565b9054600391821b1c86528752858520612ee06027885192612e34846126fc565b80548452858101548b850152612e4c60028201612834565b8a850152612e5c6006820161289a565b6060850152612e6d600d820161289a565b60808501526014810154612e8a60ff82818094166105b681612549565b612e9660158301612992565b60e086015260238201546101008601528060248301541615156101208601528a51612ec8816106088160258701612a1b565b61014086015260268201541661016085015201612b7b565b610180820152612ef0828c612d99565b52612efb818b612d99565b5001612de1565b634e487b7160e01b855260118952602485fd5b945091925090612f2484612d49565b94815b858110612f375750505050505090565b80612f4460019284612ae2565b9054600391821b1c85528652848420612ff86027875192612f64846126fc565b80548452858101548a850152612f7c60028201612834565b89850152612f8c6006820161289a565b6060850152612f9d600d820161289a565b60808501526014810154612fba60ff82818094166105b681612549565b612fc660158301612992565b60e086015260238201546101008601528060248301541615156101208601528951612ec8816106088160258701612a1b565b610180820152613008828a612d99565b526130138189612d99565b5001612f27565b5081519550935090840191506001600160401b0382118483101761303e5752815290565b634e487b7160e01b83526041600452602483fd5b600211156107f957565b9060038110156107f95760ff80198354169116179055565b81811061307f575050565b60008155600101613074565b9190601f811161309a57505050565b6125e6926000526020600020906020601f840160051c8301931061163d57601f0160051c0190613074565b8160011b916000199060031b1c19161790565b3560ff811681036102265790565b9061ff0082549160081b169061ff001916179055565b60ff60019116019060ff821161082157565b9062ff000082549160101b169062ff00001916179055565b60ff613142602080938361313982612b10565b16865201612b10565b16910152565b91818152602080910192916000916000905b82821061316957505050505090565b9091929394853581528186013560048110156131c157908161318c600193612549565b838201526131a06040808301908901613126565b6131b06080808301908901613126565b60c09081019601949392019061315a565b8580fd5b906000905b600682106131d757505050565b60016040826131f683948760ff60209154818116845260081c16910152565b019301910190916131ca565b6040519061320f82612718565b60006060838281528260208201528260408201520152565b6001600160a01b039081169081156132705760008051602061523283398151915280546001600160a01b03198116841790915516600080516020615272833981519152600080a3565b604051631e4fbdf760e01b815260006004820152602490fd5b60001981146108215760010190565b6040919493926060820195825260208201520152565b92919260009382855260049460209086825260409384822054156134215783825287835284822054156134215785825287835284822054848352858320541461341157858252878352848220600101546001600160a01b03908116908216036134015783825287835260ff6006868420015460081c166133f15796600785837f1cce6a28f1564d6cb3044145a4ccc8873cf34f87429af3289490527d7c0437e6999a896133dc98979652848652838383200154806133e1575b5050613374600a54613289565b9384600a55613381613202565b5082519561338e87612718565b858752808701958b87526003858901918a835260608a0190428252865260098452868620928a51998a8555516001850155516002840155519101558a83525220015551925193849384613298565b0390a1565b6133ea9161476a565b3880613367565b8451635e003ea960e01b81528890fd5b8451633093624d60e21b81528890fd5b8451634de6470960e01b81528890fd5b845163b0ce759160e01b81528890fd5b600080516020615232833981519152546001600160a01b0316330361345257565b60405163118cdaa760e01b8152336004820152602490fd5b81601f82011215610226578051613480816127bb565b9261348e6040519485612798565b81845260208284010111610226576126c291602080850191016123ec565b51906001600160401b038216820361022657565b5190811515820361022657565b9060018060a01b038083166000526005602052604060002054613a8057815115613a6e5761352f91600073__$18826597157b5485acfb86513cd242e4d3$__9160405180958192630fb93a7160e21b835260206004840152602483019061240f565b0381845af4928315613a1057600093613a2e575b5060ff604051602081865161355b8183858b016123ec565b8101600b8152030190205416613a1c576000613578600754613289565b80600755604051928391631d029a8d60e01b83526004830152848716602483015260a0604483015281806135af60a482018961240f565b60ff8b16606483015242608483015203915af4908115613a1057600091613876575b5080516000526004602052604060002081518155600181018360208401511660018060a01b031982541617905560028101604083015180519060018060401b0382116116475761362b8261362585546129e1565b8561308b565b602090601f831160011461380e5761364d9291600091836138035750506130c5565b90555b60608201516003820180546001600160401b0319166001600160401b039283161790556080830151600483015560a0830151805191821161164757600160401b82116116475760209060058401548360058601558084106137e3575b500160058301600052602060002060005b8381106137cf57505050506006810160ff60c08401511681549061ff0060e0860151151560081b169161ffff19161717905561010082015160078201556008810160018060401b036101208401511660018060401b031982541617905561014082015160005b600a81106137b857505050916137aa917f1599aa311a61861ca44d28454c9e07d6e99428d1fcd90906d4eb6c322d7c52a293604051602081855161376a8183858a016123ec565b8101600b815203019020600160ff1982541617905580518287166000526005602052604060002055519460ff60405194859460408652604086019061240f565b9716602084015216940390a3565b600190602083519301926009828601015501613723565b6001906020845194019381840155016136bd565b6137fd906005860160005284846000209182019101613074565b386136ac565b01519050388061151a565b90601f198316918460005260206000209260005b81811061385e5750908460019594939210613845575b505050811b019055613650565b015160001960f88460031b161c19169055388080613838565b92936020600181928786015181550195019301613822565b90503d806000833e6138888183612798565b81016020828203126102265781516001600160401b039283821161022657019061028090818382031261022657604051936138c2856126c5565b8351855260208401518681168103610226576020860152604084015181811161022657826138f191860161346a565b6040860152613902606085016134ac565b60608601526080840151608086015260a084015190811161022657830181601f820112156102265780519061393682612bae565b916139446040519384612798565b80835260208084019160051b8301019184831161022657602001905b828210613a005750505060a085015260c083015160ff811681036102265760c085015261398f60e084016134c0565b60e085015261010080840151908501526101206139ad8185016134ac565b90850152610140918161015f8501121561022657604051936139ce8561277c565b84918101928311610226578301905b8282106139f057505050820152386135d1565b81518152602091820191016139dd565b8151815260209182019101613960565b6040513d6000823e3d90fd5b604051634749bdef60e11b8152600490fd5b9092503d806000833e613a418183612798565b81016020828203126102265781516001600160401b03811161022657613a67920161346a565b9138613543565b60405163d9f415a960e01b8152600490fd5b60405163f2d8e7a360e01b8152600490fd5b8054600160401b600160801b03191660409290921b600160401b600160801b0316919091179055565b9060038110156107f95761ff0082549160081b169061ff001916179055565b80549190600160401b8310156116475782610f359160016125e695018155612ae2565b60009082825260096020526003604083200154156102b557828252600960205260026040832001548252600460205260018060a01b038060016040852001541691160361085557818152600960205260016040822001548152600460205260ff600660408320015460081c1661454657818152600960205260026040822001548152600460205260ff600660408320015460081c1661454657818152600960205260026040822001548152600460205260076040822001546144c1575b818152600960205260408120916002600184015493015493613bdd600654613289565b90816006558484526004602052613c1960018060401b036003604087200154169187865260018060401b036003604088200154169836916127d6565b613c21612c5a565b50604051613c2e81612733565b85815285602082015285604082015285606082015285608082015260405192613c5684612733565b87845260208401528560408401528560608401526080830152604051613c7b81612733565b85815285602082015285604082015285606082015285608082015260405198613ca38a612733565b888a5260208a01528560408a01528560608a01526080890152613cc4612c04565b50613ccd612c04565b604051613cd98161274e565b60018152600560208201528152604051613cf28161274e565b60048152600260208201526020820152604051613d0e8161274e565b60048152600860208201526040820152604051613d2a8161274e565b60068152600360208201526060820152604051613d468161274e565b60068152600760208201526080820152604051613d628161274e565b600881526005602082015260a0820152613d7a612c04565b50613d83612c04565b98604051613d908161274e565b600f8152600560208201528a52604051613da98161274e565b600c81526002602082015260208b0152604051613dc58161274e565b600c81526008602082015260408b0152604051613de18161274e565b600a81526002602082015260608b0152604051613dfd8161274e565b600a81526008602082015260808b0152604051613e198161274e565b600a81526005602082015260a08b015260405199613e368b6126e1565b878b528760208c01528760408c01528760608c01528760808c01528760a08c01528760c08c015260405190613e6a8261274e565b600882526005602083015260405193613e8285612718565b84526020840152604083015260016060830152604051938461014081011060018060401b03610140870111176116475761014085016040528785528760208601528760408601528760608601528760808601528760a08601528760c08601528760e086015287610100860152876101208601526040519a613f028c6126fc565b868c524260208d015260408c015260608b015260808a0152600160a08a01528560c08a015260e089015284610100890152846101208901526101408801526001610160880152610180870152825260036020526040822085518155602086015160018201556002810160408701519060ff825116815490610100600160481b03602085015160081b169160018060481b031916171790556040810151600383015560608101516004830155608081015160038110156144965760c0613fef92613fd060ff936005870161305c565b613fe38360a083015116600587016130e6565b0151166005830161310e565b60608601518051600683015560208101516007830180546001600160401b0319166001600160401b03928316178155604083015161402e921690613a92565b606081015160018110156144965760078301805460ff60801b1916608092831b60ff60801b161790550151835b600581106144aa57505060808601518051600d8301556020810151600e830180546001600160401b0319166001600160401b0392831617815560408301516140a4921690613a92565b6060810151600181101561449657600e8301805460ff60801b1916608092831b60ff60801b161790550151835b6005811061447f57505060a08601516140e981612549565b6140f281612549565b60ff8019601484015416911617601482015560c0860151600381101561440d5761411f9060148301613abb565b60e08601518051601583019085905b60068210614450575050506020810151601b83019085905b60068210614421575050506060906141796021840160ff60206040850151828151168319855416178455015116906130e6565b0151600381101561440d57614191906022830161305c565b610100860151602382015560248101610120870151151560ff8019835416911617905561014086015180519060018060401b0382116143f9576141e4826141db60258601546129e1565b6025860161308b565b602090601f831160011461438a5761420592918691836138035750506130c5565b60258201555b6026810160ff6101608801511660ff19825416179055610180860151835b600a81106143735750505073__$18826597157b5485acfb86513cd242e4d3$__90813b156110cd578290606460405180948193636c2a23bf60e01b8352600960048401526004602484015260448301525af4801561436857614351575b506005604082846142e49452600460205260068282200161ff00199061010082825416179055868252610100600684842001918254161790558481526142d28383832001885190613ada565b85815260046020522001845190613ada565b825160085490600160401b82101561164757610f358260016143099401600855612ab1565b82517f94b80033a8327ab5e699285e343e5f1027e2299b685ec5836a08f3a8faacbd59602060405160018152a4516000805160206152928339815191526020604051428152a2565b61435b8291612769565b6143655738614286565b80fd5b6040513d84823e3d90fd5b600190602083519301926027828601015501614229565b9190602584018652602086209086935b601f19841685106143de576001945083601f198116106143c5575b505050811b01602582015561420b565b015160001960f88460031b161c191690553880806143b5565b8181015183556020948501946001909301929091019061439a565b634e487b7160e01b85526041600452602485fd5b634e487b7160e01b84526021600452602484fd5b600160208261444460ff838596518281511683198b5416178a55015116876130e6565b01930191019091614146565b600160208261447360ff838596518281511683198b5416178a55015116876130e6565b0193019101909161412e565b60019060208351930192600f8286010155016140d1565b634e487b7160e01b85526021600452602485fd5b60019060208351930192600882860101550161405b565b73__$18826597157b5485acfb86513cd242e4d3$__82825260096020526002604083200154825260046020526007604083200154813b156110cd578290606460405180948193636c2a23bf60e01b8352600960048401526004602484015260448301525af4801561436857614537575b50613bba565b61454090612769565b38614531565b604051635e003ea960e01b8152600490fd5b90600091808352600380602052604084206006810154855260049060046020526040862092600d82015487526040872092601483019360ff8554169361459d85612549565b6001809503614766576005916006806008998a810180549060018060401b0390816145c9818516614fc0565b166001600160401b03199384161790558c86018054909290916145ed818416614fc0565b169116179055019161ff00199283815416905501908154169055019788549860ff8a1699600360ff1988541617875560038b1015614752576001869798999a9b146000146147405750805462ffff0019166103001790555b80945b614681575b505050505060ff6000805160206152f28339815191529260409254901c1661467782518092612472565b60016020820152a2565b86548086101561473a578861469587612ab1565b905490861b1c146146ab57508380950194614648565b949193509160001994858101908111614727576146da92916146cf610f3592612ab1565b9054911b1c91612ab1565b84549182156147145750509260409260ff926000805160206152f28339815191529501614709610f6b82612ab1565b82559281943861464d565b634e487b7160e01b825260319052602490fd5b634e487b7160e01b845260118552602484fd5b5061464d565b62ffff00191662030000179055614645565b634e487b7160e01b83526021600452602483fd5b8980fd5b91909182156102b5576000928084526009602052604060038186200154156148c75781855260096020526001818620015485526004928360205260018060a01b038060018489200154169116036148b857818552600960205260038186200154603c81018091116148a55742111561489657818552600960205280852092600260018501549401549573__$18826597157b5485acfb86513cd242e4d3$__91823b156148925781906064855180958193636c2a23bf60e01b835260098184015260248301528860448301525af49081156148875750917f773e15a265d8549eebc3e80bafb0e2cbeba28c5d2b2a081e31c34554c7d0507d9596916133dc93614878575b505193849384613298565b61488190612769565b3861486d565b8351903d90823e3d90fd5b5080fd5b516343dcbe9f60e01b81529050fd5b634e487b7160e01b865260118452602486fd5b51633093624d60e21b81529050fd5b5163b0ce759160e01b8152600490fd5b929092836000526003602052604060002090600160ff6014840154166148fc81612549565b036108855760038410156107f9578315614f7f578215614f6d57600184148080614f60575b614f415760028514908180614f53575b614f415715614f04575060068201546000908152600460205260409020600101546001600160a01b03908116911603610855576002905b0191602d60ff8454161015614a255761499890604051936378e02d7160e11b855260048501526024840190612472565b604482015260208160648173__$18826597157b5485acfb86513cd242e4d3$__5af4908115613a10576000916149eb575b506149d15750565b6000805160206152928339815191526020604051428152a2565b90506020813d602011614a1d575b81614a0660209383612798565b8101031261022657614a17906134c0565b386149c9565b3d91506149f9565b505050600090806000526003602052604060002091602d60ff600285015416106111d05760068301546000526004602052614a726040600020600d85015460005260406000209085614fd8565b508160005260036020526040600020600681015460005260046020526040600020600d8201546000526040600020916032600582015460ff808260081c169160101c1690818111600014614ef65750505060645b60058301541580614edf575b614e93575b60058401541580614e7c575b614e30575b6007820154600e8301546001600160401b039182169116818110918215614e2957035b6104668110156102265781614e1b575b60199115614e1257610320035b04600a6001821615614e0a57600a915b60011c90815b614dbb57505091614c1f91614b61610db5610db0610db0610db060209998615160565b906014028181109182600014614db35703905b15614d5957600386018054916001600160401b039081169190614b99838583166150a7565b166001600160401b0319938416179055600385018054909290916001600160401b0390614bc8908285166150c0565b1691161790555b60038301546113889081906001600160401b0381168211614d42575b505060038601546001600160401b0381168211614d2b5750506003830154610e7c906001600160401b031660078301613a92565b80546003909101546040516001600160401b0390911681526000805160206152b2833981519152928391a281546003909201546040516001600160401b039091168152602090a2805b60085480821015614d0c5783614c7d83612ab1565b90549060031b1c14614c925750600101614c68565b929391926000199190828101908111610fce5790610f35610f28614cb593612ab1565b6008548015610fba5760146040936000805160206152f2833981519152959360ff9301614ce4610f6b82612ab1565b6008555b015460081c1690614cfb83518093612472565b614d0481613052565b6020820152a2565b505060409060ff60146000805160206152f28339815191529495614ce8565b6001600160401b0319161760038601553880610e5f565b6001600160401b0319161760038501558038614beb565b600384018054916001600160401b039081169190614d79838583166150a7565b166001600160401b0319938416179055600387018054909290916001600160401b0390614da8908285166150c0565b169116179055614bcf565b900390614b74565b8060801c614e065780029087614e06578160018216614de0575b5060011c9081614b3e565b9092809850818082020403614dfb575b600097029138614dd5565b8015614df057600080fd5b8780fd5b600191614b38565b61032001614b28565b6103208110614b1b57600080fd5b9003614b0b565b6003840180546127106001600160401b03199182168117909255600e840180549092919060646001600160401b03821614614e6f575b50505050614ae8565b1617905538808080614e66565b5060038401546001600160401b0316606414614ae3565b6003830180546127106001600160401b031991821681179092556007840180549092919060646001600160401b03821614614ed2575b50505050614ad7565b1617905538808080614ec9565b5060038301546001600160401b0316606414614ad2565b1015614ac657506000614ac6565b614f12575b50600290614968565b600d8201546000908152600460205260409020600101546001600160a01b039081169116036108555738614f09565b604051635ce6d95760e11b8152600490fd5b5060048401541515614931565b5060038301541515614921565b604051635101966360e01b8152600490fd5b604051636f6fc75f60e11b8152600490fd5b60ff6000805160206152d28339815191525460401c1615614fae57565b604051631afcd79f60e31b8152600490fd5b6001600160401b039081169081146108215760010190565b6014810192600160ff855416614fed81612549565b03610226576008830180546005946006928392906001600160401b039081615016818516614fc0565b166001600160401b03199384161790556008860180549092909161503b818416614fc0565b169116179055019161ff00199283815416905501908154169055015460ff808260081c169160101c16908181116000146150895750506126c2600180925b805460ff19166002178155613abb565b101561509b576126c260028092615079565b6126c260008092615079565b6001600160401b03918216908216019190821161082157565b6001600160401b03918216908216039190821161082157565b80156150e75762030d400490565b634e487b7160e01b600052601260045260246000fd5b90615124575080511561511257602081519101fd5b60405163d6bda27560e01b8152600490fd5b81511580615157575b615135575090565b604051639996b31560e01b81526001600160a01b039091166004820152602490fd5b50803b1561512d565b60b581600160881b8110156151ff575b6201000090600160481b8110156151f2575b600160281b8110156151e5575b63010000008110156151d8575b010260121c60019080830401811c80830401811c80830401811c80830401811c80830401811c80830401811c80830401901c8080920410900390565b60101c9160081b9161519c565b60201c9160101b9161518f565b60401c9160201b91615182565b5060b560401b9050608082901c61517056fe579c31d7f947df31adb29f8688c651ffa98030b83bb0d87632c86357f13afafd9016d09d72d40fdae2fd8ceac6b6234c7706214fd39c1cd1e609a0528c199300360894a13ba1a3210667c828492db98dca3e2076cc3735a920a3ca505d382bbc8be0079c531659141344cd1fd0a4f28419497f9722a3daafe3b4186f6b6457e0d6ad8b09cb4bf385f0569c05c242d45e491f752df651aae6a2db9ff589bd9fae45f86bffb6b3e2b2928d4ebc3190e6bca236b43076a1adbf5d2366c8ee1ca5e3f0c57e16840df040f15088dc2f81fe391c3923bec73e23a9662efc9c229c6a004019f194fe4a757f9f1441d256eeb40c3f12e80f9da6188b5ad1a5fcda7217d740f6909351d16bebd2bb97c72ea15dc2508f321a25ba4ff1df4c330cced53820a2646970667358221220d1ffa9571802c8caf133a1946aea1066613e000196bc830a3f0e7de5dfec798364736f6c63430008180033",
  "linkReferences": {
    "contracts/GameLib.sol": {
      "GameLib": [
        {
          "length": 20,
          "start": 13776
        },
        {
          "length": 20,
          "start": 17165
        },
        {
          "length": 20,
          "start": 17818
        },
        {
          "length": 20,
          "start": 18636
        },
        {
          "length": 20,
          "start": 19068
        }
      ]
    }
  },
  "deployedLinkReferences": {
    "contracts/GameLib.sol": {
      "GameLib": [
        {
          "length": 20,
          "start": 13561
        },
        {
          "length": 20,
          "start": 16950
        },
        {
          "length": 20,
          "start": 17603
        },
        {
          "length": 20,
          "start": 18421
        },
        {
          "length": 20,
          "start": 18853
        }
      ]
    }
  }
}