{
  "_format": "hh-sol-artifact-1",
  "contractName": "ChessBallGame",
  "sourceName": "contracts/Game.sol",
  "abi": [
    {
      "inputs": [],
      "stateMutability": "nonpayable",
      "type": "constructor"
    },
    {
      "inputs": [],
      "name": "ActionsNotCommitted",
      "type": "error"
    },
    {
      "inputs": [
        {
          "internalType": "address",
          "name": "target",
          "type": "address"
        }
      ],
      "name": "AddressEmptyCode",
      "type": "error"
    },
    {
      "inputs": [],
      "name": "CreateTeam_NameIsRequired",
      "type": "error"
    },
    {
      "inputs": [],
      "name": "CreateTeam_TeamAlreadyExists",
      "type": "error"
    },
    {
      "inputs": [],
      "name": "CreateTeam_TeamNameAlreadyExists",
      "type": "error"
    },
    {
      "inputs": [],
      "name": "DoesNotExist",
      "type": "error"
    },
    {
      "inputs": [
        {
          "internalType": "address",
          "name": "implementation",
          "type": "address"
        }
      ],
      "name": "ERC1967InvalidImplementation",
      "type": "error"
    },
    {
      "inputs": [],
      "name": "ERC1967NonPayable",
      "type": "error"
    },
    {
      "inputs": [],
      "name": "FailedCall",
      "type": "error"
    },
    {
      "inputs": [],
      "name": "FinishGameByTimeout_NoLastMove",
      "type": "error"
    },
    {
      "inputs": [],
      "name": "GameHasNotReachedMaxMoves",
      "type": "error"
    },
    {
      "inputs": [],
      "name": "GameIsNotActive",
      "type": "error"
    },
    {
      "inputs": [],
      "name": "GameOwnerShouldCall",
      "type": "error"
    },
    {
      "inputs": [],
      "name": "GameRequestNotExpired",
      "type": "error"
    },
    {
      "inputs": [],
      "name": "GameRequestTimeoutNotReached",
      "type": "error"
    },
    {
      "inputs": [],
      "name": "InitAddressCannotBeZero",
      "type": "error"
    },
    {
      "inputs": [
        {
          "internalType": "uint8",
          "name": "goals",
          "type": "uint8"
        }
      ],
      "name": "InvalidGoals",
      "type": "error"
    },
    {
      "inputs": [],
      "name": "InvalidInitialization",
      "type": "error"
    },
    {
      "inputs": [
        {
          "internalType": "uint256",
          "name": "score",
          "type": "uint256"
        }
      ],
      "name": "InvalidScore",
      "type": "error"
    },
    {
      "inputs": [],
      "name": "InvalidTeam",
      "type": "error"
    },
    {
      "inputs": [],
      "name": "MovesAlreadyCommitted",
      "type": "error"
    },
    {
      "inputs": [],
      "name": "MovesEncryptedCannotBeZero",
      "type": "error"
    },
    {
      "inputs": [],
      "name": "NotInitializing",
      "type": "error"
    },
    {
      "inputs": [],
      "name": "OnlyGameEngineServerCanCall",
      "type": "error"
    },
    {
      "inputs": [],
      "name": "OnlyRelayerCanCall",
      "type": "error"
    },
    {
      "inputs": [
        {
          "internalType": "address",
          "name": "owner",
          "type": "address"
        }
      ],
      "name": "OwnableInvalidOwner",
      "type": "error"
    },
    {
      "inputs": [
        {
          "internalType": "address",
          "name": "account",
          "type": "address"
        }
      ],
      "name": "OwnableUnauthorizedAccount",
      "type": "error"
    },
    {
      "inputs": [],
      "name": "TeamAlreadyHasActiveGame",
      "type": "error"
    },
    {
      "inputs": [],
      "name": "TeamsCannotBeSame",
      "type": "error"
    },
    {
      "inputs": [],
      "name": "UUPSUnauthorizedCallContext",
      "type": "error"
    },
    {
      "inputs": [
        {
          "internalType": "bytes32",
          "name": "slot",
          "type": "bytes32"
        }
      ],
      "name": "UUPSUnsupportedProxiableUUID",
      "type": "error"
    },
    {
      "inputs": [],
      "name": "WrongMoveNumber",
      "type": "error"
    },
    {
      "anonymous": false,
      "inputs": [
        {
          "indexed": true,
          "internalType": "uint256",
          "name": "teamId",
          "type": "uint256"
        },
        {
          "indexed": false,
          "internalType": "uint256",
          "name": "gameId",
          "type": "uint256"
        },
        {
          "indexed": false,
          "internalType": "uint64",
          "name": "eloRating",
          "type": "uint64"
        }
      ],
      "name": "EloUpdated",
      "type": "event"
    },
    {
      "anonymous": false,
      "inputs": [
        {
          "indexed": true,
          "internalType": "uint256",
          "name": "gameId",
          "type": "uint256"
        },
        {
          "indexed": false,
          "internalType": "enum GameLib.TeamEnum",
          "name": "winner",
          "type": "uint8"
        },
        {
          "indexed": false,
          "internalType": "enum GameLib.FinishReason",
          "name": "finishReason",
          "type": "uint8"
        }
      ],
      "name": "GameFinished",
      "type": "event"
    },
    {
      "anonymous": false,
      "inputs": [
        {
          "indexed": false,
          "internalType": "uint256",
          "name": "gameRequestId",
          "type": "uint256"
        },
        {
          "indexed": false,
          "internalType": "uint256",
          "name": "team1id",
          "type": "uint256"
        },
        {
          "indexed": false,
          "internalType": "uint256",
          "name": "team2id",
          "type": "uint256"
        }
      ],
      "name": "GameRequestCancelled",
      "type": "event"
    },
    {
      "anonymous": false,
      "inputs": [
        {
          "indexed": false,
          "internalType": "uint256",
          "name": "gameRequestId",
          "type": "uint256"
        },
        {
          "indexed": false,
          "internalType": "uint256",
          "name": "team1id",
          "type": "uint256"
        },
        {
          "indexed": false,
          "internalType": "uint256",
          "name": "team2id",
          "type": "uint256"
        }
      ],
      "name": "GameRequestCreated",
      "type": "event"
    },
    {
      "anonymous": false,
      "inputs": [
        {
          "indexed": true,
          "internalType": "uint256",
          "name": "gameId",
          "type": "uint256"
        },
        {
          "indexed": true,
          "internalType": "uint256",
          "name": "team1id",
          "type": "uint256"
        },
        {
          "indexed": true,
          "internalType": "uint256",
          "name": "team2id",
          "type": "uint256"
        },
        {
          "indexed": false,
          "internalType": "enum GameLib.TeamEnum",
          "name": "teamWithBall",
          "type": "uint8"
        }
      ],
      "name": "GameStarted",
      "type": "event"
    },
    {
      "anonymous": false,
      "inputs": [
        {
          "indexed": true,
          "internalType": "uint256",
          "name": "gameId",
          "type": "uint256"
        },
        {
          "indexed": false,
          "internalType": "enum GameLib.TeamEnum",
          "name": "cauzedByTeam",
          "type": "uint8"
        },
        {
          "indexed": false,
          "internalType": "enum ChessBallGame.ErrorType",
          "name": "errorType",
          "type": "uint8"
        },
        {
          "indexed": false,
          "internalType": "uint256",
          "name": "time",
          "type": "uint256"
        },
        {
          "indexed": false,
          "internalType": "string",
          "name": "errorMsg",
          "type": "string"
        }
      ],
      "name": "GameStateError",
      "type": "event"
    },
    {
      "anonymous": false,
      "inputs": [
        {
          "indexed": true,
          "internalType": "uint256",
          "name": "gameId",
          "type": "uint256"
        },
        {
          "indexed": false,
          "internalType": "enum GameLib.TeamEnum",
          "name": "scoringTeam",
          "type": "uint8"
        }
      ],
      "name": "GoalScored",
      "type": "event"
    },
    {
      "anonymous": false,
      "inputs": [
        {
          "indexed": false,
          "internalType": "uint64",
          "name": "version",
          "type": "uint64"
        }
      ],
      "name": "Initialized",
      "type": "event"
    },
    {
      "anonymous": false,
      "inputs": [
        {
          "indexed": true,
          "internalType": "uint256",
          "name": "gameId",
          "type": "uint256"
        },
        {
          "indexed": false,
          "internalType": "enum GameLib.StateType",
          "name": "stateType",
          "type": "uint8"
        },
        {
          "indexed": false,
          "internalType": "uint256",
          "name": "time",
          "type": "uint256"
        },
        {
          "indexed": false,
          "internalType": "uint8[]",
          "name": "clashRandomNumbers",
          "type": "uint8[]"
        },
        {
          "components": [
            {
              "internalType": "uint256",
              "name": "playerId",
              "type": "uint256"
            },
            {
              "internalType": "enum GameLib.MoveType",
              "name": "moveType",
              "type": "uint8"
            },
            {
              "components": [
                {
                  "internalType": "uint8",
                  "name": "x",
                  "type": "uint8"
                },
                {
                  "internalType": "uint8",
                  "name": "y",
                  "type": "uint8"
                }
              ],
              "internalType": "struct GameLib.Position",
              "name": "oldPosition",
              "type": "tuple"
            },
            {
              "components": [
                {
                  "internalType": "uint8",
                  "name": "x",
                  "type": "uint8"
                },
                {
                  "internalType": "uint8",
                  "name": "y",
                  "type": "uint8"
                }
              ],
              "internalType": "struct GameLib.Position",
              "name": "newPosition",
              "type": "tuple"
            }
          ],
          "indexed": false,
          "internalType": "struct GameLib.GameAction[]",
          "name": "team1Actions",
          "type": "tuple[]"
        },
        {
          "components": [
            {
              "internalType": "uint256",
              "name": "playerId",
              "type": "uint256"
            },
            {
              "internalType": "enum GameLib.MoveType",
              "name": "moveType",
              "type": "uint8"
            },
            {
              "components": [
                {
                  "internalType": "uint8",
                  "name": "x",
                  "type": "uint8"
                },
                {
                  "internalType": "uint8",
                  "name": "y",
                  "type": "uint8"
                }
              ],
              "internalType": "struct GameLib.Position",
              "name": "oldPosition",
              "type": "tuple"
            },
            {
              "components": [
                {
                  "internalType": "uint8",
                  "name": "x",
                  "type": "uint8"
                },
                {
                  "internalType": "uint8",
                  "name": "y",
                  "type": "uint8"
                }
              ],
              "internalType": "struct GameLib.Position",
              "name": "newPosition",
              "type": "tuple"
            }
          ],
          "indexed": false,
          "internalType": "struct GameLib.GameAction[]",
          "name": "team2Actions",
          "type": "tuple[]"
        },
        {
          "components": [
            {
              "components": [
                {
                  "internalType": "uint8",
                  "name": "x",
                  "type": "uint8"
                },
                {
                  "internalType": "uint8",
                  "name": "y",
                  "type": "uint8"
                }
              ],
              "internalType": "struct GameLib.Position[6]",
              "name": "team1PlayerPositions",
              "type": "tuple[6]"
            },
            {
              "components": [
                {
                  "internalType": "uint8",
                  "name": "x",
                  "type": "uint8"
                },
                {
                  "internalType": "uint8",
                  "name": "y",
                  "type": "uint8"
                }
              ],
              "internalType": "struct GameLib.Position[6]",
              "name": "team2PlayerPositions",
              "type": "tuple[6]"
            },
            {
              "components": [
                {
                  "internalType": "uint8",
                  "name": "x",
                  "type": "uint8"
                },
                {
                  "internalType": "uint8",
                  "name": "y",
                  "type": "uint8"
                }
              ],
              "internalType": "struct GameLib.Position",
              "name": "ballPosition",
              "type": "tuple"
            },
            {
              "internalType": "enum GameLib.TeamEnum",
              "name": "ballOwner",
              "type": "uint8"
            }
          ],
          "indexed": false,
          "internalType": "struct GameLib.BoardState",
          "name": "boardState",
          "type": "tuple"
        }
      ],
      "name": "NewGameState",
      "type": "event"
    },
    {
      "anonymous": false,
      "inputs": [
        {
          "indexed": true,
          "internalType": "address",
          "name": "previousOwner",
          "type": "address"
        },
        {
          "indexed": true,
          "internalType": "address",
          "name": "newOwner",
          "type": "address"
        }
      ],
      "name": "OwnershipTransferred",
      "type": "event"
    },
    {
      "anonymous": false,
      "inputs": [
        {
          "indexed": true,
          "internalType": "uint256",
          "name": "teamId",
          "type": "uint256"
        },
        {
          "indexed": true,
          "internalType": "address",
          "name": "owner",
          "type": "address"
        },
        {
          "indexed": false,
          "internalType": "string",
          "name": "name",
          "type": "string"
        },
        {
          "indexed": false,
          "internalType": "uint8",
          "name": "country",
          "type": "uint8"
        }
      ],
      "name": "TeamCreated",
      "type": "event"
    },
    {
      "anonymous": false,
      "inputs": [
        {
          "indexed": true,
          "internalType": "address",
          "name": "implementation",
          "type": "address"
        }
      ],
      "name": "Upgraded",
      "type": "event"
    },
    {
      "anonymous": false,
      "inputs": [
        {
          "indexed": true,
          "internalType": "uint256",
          "name": "gameId",
          "type": "uint256"
        },
        {
          "indexed": false,
          "internalType": "uint256",
          "name": "timestamp",
          "type": "uint256"
        }
      ],
      "name": "gameActionCommitted",
      "type": "event"
    },
    {
      "inputs": [],
      "name": "UPGRADE_INTERFACE_VERSION",
      "outputs": [
        {
          "internalType": "string",
          "name": "",
          "type": "string"
        }
      ],
      "stateMutability": "view",
      "type": "function"
    },
    {
      "inputs": [
        {
          "internalType": "uint256",
          "name": "",
          "type": "uint256"
        }
      ],
      "name": "activeGames",
      "outputs": [
        {
          "internalType": "uint256",
          "name": "",
          "type": "uint256"
        }
      ],
      "stateMutability": "view",
      "type": "function"
    },
    {
      "inputs": [
        {
          "internalType": "uint256",
          "name": "gameRequestId",
          "type": "uint256"
        }
      ],
      "name": "cancelGameRequest",
      "outputs": [],
      "stateMutability": "nonpayable",
      "type": "function"
    },
    {
      "inputs": [
        {
          "internalType": "address",
          "name": "sender",
          "type": "address"
        },
        {
          "internalType": "uint256",
          "name": "gameRequestId",
          "type": "uint256"
        }
      ],
      "name": "cancelGameRequestRelayer",
      "outputs": [],
      "stateMutability": "nonpayable",
      "type": "function"
    },
    {
      "inputs": [
        {
          "internalType": "address",
          "name": "sender",
          "type": "address"
        },
        {
          "internalType": "uint256",
          "name": "gameId",
          "type": "uint256"
        },
        {
          "internalType": "enum GameLib.TeamEnum",
          "name": "team",
          "type": "uint8"
        },
        {
          "internalType": "bytes32",
          "name": "movesEncrypted",
          "type": "bytes32"
        },
        {
          "internalType": "uint8",
          "name": "movesMade",
          "type": "uint8"
        }
      ],
      "name": "commitGameActionsRelayer",
      "outputs": [],
      "stateMutability": "nonpayable",
      "type": "function"
    },
    {
      "inputs": [
        {
          "internalType": "uint256",
          "name": "team1id",
          "type": "uint256"
        },
        {
          "internalType": "uint256",
          "name": "team2id",
          "type": "uint256"
        }
      ],
      "name": "createGameRequest",
      "outputs": [],
      "stateMutability": "nonpayable",
      "type": "function"
    },
    {
      "inputs": [
        {
          "internalType": "address",
          "name": "sender",
          "type": "address"
        },
        {
          "internalType": "uint256",
          "name": "team1id",
          "type": "uint256"
        },
        {
          "internalType": "uint256",
          "name": "team2id",
          "type": "uint256"
        }
      ],
      "name": "createGameRequestRelayer",
      "outputs": [],
      "stateMutability": "nonpayable",
      "type": "function"
    },
    {
      "inputs": [
        {
          "internalType": "string",
          "name": "name",
          "type": "string"
        },
        {
          "internalType": "uint8",
          "name": "country",
          "type": "uint8"
        }
      ],
      "name": "createTeam",
      "outputs": [],
      "stateMutability": "nonpayable",
      "type": "function"
    },
    {
      "inputs": [
        {
          "internalType": "address",
          "name": "sender",
          "type": "address"
        },
        {
          "internalType": "string",
          "name": "name",
          "type": "string"
        },
        {
          "internalType": "uint8",
          "name": "country",
          "type": "uint8"
        }
      ],
      "name": "createTeamRelayer",
      "outputs": [],
      "stateMutability": "nonpayable",
      "type": "function"
    },
    {
      "inputs": [
        {
          "internalType": "uint256",
          "name": "gameId",
          "type": "uint256"
        }
      ],
      "name": "finishGameByTimeout",
      "outputs": [],
      "stateMutability": "nonpayable",
      "type": "function"
    },
    {
      "inputs": [
        {
          "internalType": "address",
          "name": "sender",
          "type": "address"
        },
        {
          "internalType": "uint256",
          "name": "gameId",
          "type": "uint256"
        }
      ],
      "name": "finishGameByTimeoutRelayer",
      "outputs": [],
      "stateMutability": "nonpayable",
      "type": "function"
    },
    {
      "inputs": [],
      "name": "fixGame101",
      "outputs": [],
      "stateMutability": "nonpayable",
      "type": "function"
    },
    {
      "inputs": [],
      "name": "gameEngineServerAddress",
      "outputs": [
        {
          "internalType": "address",
          "name": "",
          "type": "address"
        }
      ],
      "stateMutability": "view",
      "type": "function"
    },
    {
      "inputs": [],
      "name": "gamePublicKey",
      "outputs": [
        {
          "internalType": "string",
          "name": "",
          "type": "string"
        }
      ],
      "stateMutability": "view",
      "type": "function"
    },
    {
      "inputs": [],
      "name": "gameRequestIndex",
      "outputs": [
        {
          "internalType": "uint256",
          "name": "",
          "type": "uint256"
        }
      ],
      "stateMutability": "view",
      "type": "function"
    },
    {
      "inputs": [
        {
          "internalType": "uint256",
          "name": "",
          "type": "uint256"
        }
      ],
      "name": "gameRequests",
      "outputs": [
        {
          "internalType": "uint256",
          "name": "gameRequestId",
          "type": "uint256"
        },
        {
          "internalType": "uint256",
          "name": "team1id",
          "type": "uint256"
        },
        {
          "internalType": "uint256",
          "name": "team2id",
          "type": "uint256"
        },
        {
          "internalType": "uint256",
          "name": "createdAt",
          "type": "uint256"
        }
      ],
      "stateMutability": "view",
      "type": "function"
    },
    {
      "inputs": [
        {
          "internalType": "uint256",
          "name": "",
          "type": "uint256"
        }
      ],
      "name": "games",
      "outputs": [
        {
          "internalType": "uint256",
          "name": "gameId",
          "type": "uint256"
        },
        {
          "internalType": "uint256",
          "name": "createdAt",
          "type": "uint256"
        },
        {
          "components": [
            {
              "internalType": "uint8",
              "name": "movesMade",
              "type": "uint8"
            },
            {
              "internalType": "uint64",
              "name": "lastMoveAt",
              "type": "uint64"
            },
            {
              "internalType": "bytes32",
              "name": "team1MovesEncrypted",
              "type": "bytes32"
            },
            {
              "internalType": "bytes32",
              "name": "team2MovesEncrypted",
              "type": "bytes32"
            },
            {
              "internalType": "enum GameLib.TeamEnum",
              "name": "lastMoveTeam",
              "type": "uint8"
            },
            {
              "internalType": "uint8",
              "name": "team1score",
              "type": "uint8"
            },
            {
              "internalType": "uint8",
              "name": "team2score",
              "type": "uint8"
            }
          ],
          "internalType": "struct GameLib.GameState",
          "name": "gameState",
          "type": "tuple"
        },
        {
          "components": [
            {
              "internalType": "uint256",
              "name": "teamId",
              "type": "uint256"
            },
            {
              "internalType": "uint64",
              "name": "eloRating",
              "type": "uint64"
            },
            {
              "internalType": "uint64",
              "name": "eloRatingNew",
              "type": "uint64"
            },
            {
              "internalType": "enum GameLib.TeamFormation",
              "name": "formation",
              "type": "uint8"
            },
            {
              "internalType": "uint256[5]",
              "name": "__gap",
              "type": "uint256[5]"
            }
          ],
          "internalType": "struct GameLib.TeamInfo",
          "name": "team1",
          "type": "tuple"
        },
        {
          "components": [
            {
              "internalType": "uint256",
              "name": "teamId",
              "type": "uint256"
            },
            {
              "internalType": "uint64",
              "name": "eloRating",
              "type": "uint64"
            },
            {
              "internalType": "uint64",
              "name": "eloRatingNew",
              "type": "uint64"
            },
            {
              "internalType": "enum GameLib.TeamFormation",
              "name": "formation",
              "type": "uint8"
            },
            {
              "internalType": "uint256[5]",
              "name": "__gap",
              "type": "uint256[5]"
            }
          ],
          "internalType": "struct GameLib.TeamInfo",
          "name": "team2",
          "type": "tuple"
        },
        {
          "internalType": "enum GameLib.GameStatus",
          "name": "status",
          "type": "uint8"
        },
        {
          "internalType": "enum GameLib.TeamEnum",
          "name": "winner",
          "type": "uint8"
        },
        {
          "components": [
            {
              "components": [
                {
                  "internalType": "uint8",
                  "name": "x",
                  "type": "uint8"
                },
                {
                  "internalType": "uint8",
                  "name": "y",
                  "type": "uint8"
                }
              ],
              "internalType": "struct GameLib.Position[6]",
              "name": "team1PlayerPositions",
              "type": "tuple[6]"
            },
            {
              "components": [
                {
                  "internalType": "uint8",
                  "name": "x",
                  "type": "uint8"
                },
                {
                  "internalType": "uint8",
                  "name": "y",
                  "type": "uint8"
                }
              ],
              "internalType": "struct GameLib.Position[6]",
              "name": "team2PlayerPositions",
              "type": "tuple[6]"
            },
            {
              "components": [
                {
                  "internalType": "uint8",
                  "name": "x",
                  "type": "uint8"
                },
                {
                  "internalType": "uint8",
                  "name": "y",
                  "type": "uint8"
                }
              ],
              "internalType": "struct GameLib.Position",
              "name": "ballPosition",
              "type": "tuple"
            },
            {
              "internalType": "enum GameLib.TeamEnum",
              "name": "ballOwner",
              "type": "uint8"
            }
          ],
          "internalType": "struct GameLib.BoardState",
          "name": "lastBoardState",
          "type": "tuple"
        },
        {
          "internalType": "bytes32",
          "name": "historyIPFS",
          "type": "bytes32"
        },
        {
          "internalType": "bool",
          "name": "isVerified",
          "type": "bool"
        },
        {
          "internalType": "bytes",
          "name": "encryptedKey",
          "type": "bytes"
        },
        {
          "internalType": "uint8",
          "name": "gameEngineVersion",
          "type": "uint8"
        }
      ],
      "stateMutability": "view",
      "type": "function"
    },
    {
      "inputs": [],
      "name": "gelatoAddress",
      "outputs": [
        {
          "internalType": "address",
          "name": "",
          "type": "address"
        }
      ],
      "stateMutability": "view",
      "type": "function"
    },
    {
      "inputs": [],
      "name": "getActiveGameCount",
      "outputs": [
        {
          "internalType": "uint256",
          "name": "",
          "type": "uint256"
        }
      ],
      "stateMutability": "view",
      "type": "function"
    },
    {
      "inputs": [],
      "name": "getActiveGames",
      "outputs": [
        {
          "internalType": "uint256[]",
          "name": "",
          "type": "uint256[]"
        }
      ],
      "stateMutability": "view",
      "type": "function"
    },
    {
      "inputs": [
        {
          "internalType": "uint256",
          "name": "gameId",
          "type": "uint256"
        }
      ],
      "name": "getGame",
      "outputs": [
        {
          "components": [
            {
              "internalType": "uint256",
              "name": "gameId",
              "type": "uint256"
            },
            {
              "internalType": "uint256",
              "name": "createdAt",
              "type": "uint256"
            },
            {
              "components": [
                {
                  "internalType": "uint8",
                  "name": "movesMade",
                  "type": "uint8"
                },
                {
                  "internalType": "uint64",
                  "name": "lastMoveAt",
                  "type": "uint64"
                },
                {
                  "internalType": "bytes32",
                  "name": "team1MovesEncrypted",
                  "type": "bytes32"
                },
                {
                  "internalType": "bytes32",
                  "name": "team2MovesEncrypted",
                  "type": "bytes32"
                },
                {
                  "internalType": "enum GameLib.TeamEnum",
                  "name": "lastMoveTeam",
                  "type": "uint8"
                },
                {
                  "internalType": "uint8",
                  "name": "team1score",
                  "type": "uint8"
                },
                {
                  "internalType": "uint8",
                  "name": "team2score",
                  "type": "uint8"
                }
              ],
              "internalType": "struct GameLib.GameState",
              "name": "gameState",
              "type": "tuple"
            },
            {
              "components": [
                {
                  "internalType": "uint256",
                  "name": "teamId",
                  "type": "uint256"
                },
                {
                  "internalType": "uint64",
                  "name": "eloRating",
                  "type": "uint64"
                },
                {
                  "internalType": "uint64",
                  "name": "eloRatingNew",
                  "type": "uint64"
                },
                {
                  "internalType": "enum GameLib.TeamFormation",
                  "name": "formation",
                  "type": "uint8"
                },
                {
                  "internalType": "uint256[5]",
                  "name": "__gap",
                  "type": "uint256[5]"
                }
              ],
              "internalType": "struct GameLib.TeamInfo",
              "name": "team1",
              "type": "tuple"
            },
            {
              "components": [
                {
                  "internalType": "uint256",
                  "name": "teamId",
                  "type": "uint256"
                },
                {
                  "internalType": "uint64",
                  "name": "eloRating",
                  "type": "uint64"
                },
                {
                  "internalType": "uint64",
                  "name": "eloRatingNew",
                  "type": "uint64"
                },
                {
                  "internalType": "enum GameLib.TeamFormation",
                  "name": "formation",
                  "type": "uint8"
                },
                {
                  "internalType": "uint256[5]",
                  "name": "__gap",
                  "type": "uint256[5]"
                }
              ],
              "internalType": "struct GameLib.TeamInfo",
              "name": "team2",
              "type": "tuple"
            },
            {
              "internalType": "enum GameLib.GameStatus",
              "name": "status",
              "type": "uint8"
            },
            {
              "internalType": "enum GameLib.TeamEnum",
              "name": "winner",
              "type": "uint8"
            },
            {
              "components": [
                {
                  "components": [
                    {
                      "internalType": "uint8",
                      "name": "x",
                      "type": "uint8"
                    },
                    {
                      "internalType": "uint8",
                      "name": "y",
                      "type": "uint8"
                    }
                  ],
                  "internalType": "struct GameLib.Position[6]",
                  "name": "team1PlayerPositions",
                  "type": "tuple[6]"
                },
                {
                  "components": [
                    {
                      "internalType": "uint8",
                      "name": "x",
                      "type": "uint8"
                    },
                    {
                      "internalType": "uint8",
                      "name": "y",
                      "type": "uint8"
                    }
                  ],
                  "internalType": "struct GameLib.Position[6]",
                  "name": "team2PlayerPositions",
                  "type": "tuple[6]"
                },
                {
                  "components": [
                    {
                      "internalType": "uint8",
                      "name": "x",
                      "type": "uint8"
                    },
                    {
                      "internalType": "uint8",
                      "name": "y",
                      "type": "uint8"
                    }
                  ],
                  "internalType": "struct GameLib.Position",
                  "name": "ballPosition",
                  "type": "tuple"
                },
                {
                  "internalType": "enum GameLib.TeamEnum",
                  "name": "ballOwner",
                  "type": "uint8"
                }
              ],
              "internalType": "struct GameLib.BoardState",
              "name": "lastBoardState",
              "type": "tuple"
            },
            {
              "internalType": "bytes32",
              "name": "historyIPFS",
              "type": "bytes32"
            },
            {
              "internalType": "bool",
              "name": "isVerified",
              "type": "bool"
            },
            {
              "internalType": "bytes",
              "name": "encryptedKey",
              "type": "bytes"
            },
            {
              "internalType": "uint8",
              "name": "gameEngineVersion",
              "type": "uint8"
            },
            {
              "internalType": "uint256[10]",
              "name": "__gap",
              "type": "uint256[10]"
            }
          ],
          "internalType": "struct GameLib.Game",
          "name": "",
          "type": "tuple"
        }
      ],
      "stateMutability": "view",
      "type": "function"
    },
    {
      "inputs": [
        {
          "internalType": "uint256",
          "name": "requestId",
          "type": "uint256"
        }
      ],
      "name": "getGameRequest",
      "outputs": [
        {
          "components": [
            {
              "internalType": "uint256",
              "name": "gameRequestId",
              "type": "uint256"
            },
            {
              "internalType": "uint256",
              "name": "team1id",
              "type": "uint256"
            },
            {
              "internalType": "uint256",
              "name": "team2id",
              "type": "uint256"
            },
            {
              "internalType": "uint256",
              "name": "createdAt",
              "type": "uint256"
            }
          ],
          "internalType": "struct GameLib.GameRequest",
          "name": "",
          "type": "tuple"
        }
      ],
      "stateMutability": "view",
      "type": "function"
    },
    {
      "inputs": [
        {
          "internalType": "uint256",
          "name": "gameId",
          "type": "uint256"
        }
      ],
      "name": "getGameStatus",
      "outputs": [
        {
          "internalType": "enum GameLib.GameStatus",
          "name": "",
          "type": "uint8"
        }
      ],
      "stateMutability": "view",
      "type": "function"
    },
    {
      "inputs": [
        {
          "internalType": "uint256",
          "name": "teamId",
          "type": "uint256"
        },
        {
          "internalType": "uint256",
          "name": "n",
          "type": "uint256"
        }
      ],
      "name": "getLastNGames",
      "outputs": [
        {
          "components": [
            {
              "internalType": "uint256",
              "name": "gameId",
              "type": "uint256"
            },
            {
              "internalType": "uint256",
              "name": "createdAt",
              "type": "uint256"
            },
            {
              "components": [
                {
                  "internalType": "uint8",
                  "name": "movesMade",
                  "type": "uint8"
                },
                {
                  "internalType": "uint64",
                  "name": "lastMoveAt",
                  "type": "uint64"
                },
                {
                  "internalType": "bytes32",
                  "name": "team1MovesEncrypted",
                  "type": "bytes32"
                },
                {
                  "internalType": "bytes32",
                  "name": "team2MovesEncrypted",
                  "type": "bytes32"
                },
                {
                  "internalType": "enum GameLib.TeamEnum",
                  "name": "lastMoveTeam",
                  "type": "uint8"
                },
                {
                  "internalType": "uint8",
                  "name": "team1score",
                  "type": "uint8"
                },
                {
                  "internalType": "uint8",
                  "name": "team2score",
                  "type": "uint8"
                }
              ],
              "internalType": "struct GameLib.GameState",
              "name": "gameState",
              "type": "tuple"
            },
            {
              "components": [
                {
                  "internalType": "uint256",
                  "name": "teamId",
                  "type": "uint256"
                },
                {
                  "internalType": "uint64",
                  "name": "eloRating",
                  "type": "uint64"
                },
                {
                  "internalType": "uint64",
                  "name": "eloRatingNew",
                  "type": "uint64"
                },
                {
                  "internalType": "enum GameLib.TeamFormation",
                  "name": "formation",
                  "type": "uint8"
                },
                {
                  "internalType": "uint256[5]",
                  "name": "__gap",
                  "type": "uint256[5]"
                }
              ],
              "internalType": "struct GameLib.TeamInfo",
              "name": "team1",
              "type": "tuple"
            },
            {
              "components": [
                {
                  "internalType": "uint256",
                  "name": "teamId",
                  "type": "uint256"
                },
                {
                  "internalType": "uint64",
                  "name": "eloRating",
                  "type": "uint64"
                },
                {
                  "internalType": "uint64",
                  "name": "eloRatingNew",
                  "type": "uint64"
                },
                {
                  "internalType": "enum GameLib.TeamFormation",
                  "name": "formation",
                  "type": "uint8"
                },
                {
                  "internalType": "uint256[5]",
                  "name": "__gap",
                  "type": "uint256[5]"
                }
              ],
              "internalType": "struct GameLib.TeamInfo",
              "name": "team2",
              "type": "tuple"
            },
            {
              "internalType": "enum GameLib.GameStatus",
              "name": "status",
              "type": "uint8"
            },
            {
              "internalType": "enum GameLib.TeamEnum",
              "name": "winner",
              "type": "uint8"
            },
            {
              "components": [
                {
                  "components": [
                    {
                      "internalType": "uint8",
                      "name": "x",
                      "type": "uint8"
                    },
                    {
                      "internalType": "uint8",
                      "name": "y",
                      "type": "uint8"
                    }
                  ],
                  "internalType": "struct GameLib.Position[6]",
                  "name": "team1PlayerPositions",
                  "type": "tuple[6]"
                },
                {
                  "components": [
                    {
                      "internalType": "uint8",
                      "name": "x",
                      "type": "uint8"
                    },
                    {
                      "internalType": "uint8",
                      "name": "y",
                      "type": "uint8"
                    }
                  ],
                  "internalType": "struct GameLib.Position[6]",
                  "name": "team2PlayerPositions",
                  "type": "tuple[6]"
                },
                {
                  "components": [
                    {
                      "internalType": "uint8",
                      "name": "x",
                      "type": "uint8"
                    },
                    {
                      "internalType": "uint8",
                      "name": "y",
                      "type": "uint8"
                    }
                  ],
                  "internalType": "struct GameLib.Position",
                  "name": "ballPosition",
                  "type": "tuple"
                },
                {
                  "internalType": "enum GameLib.TeamEnum",
                  "name": "ballOwner",
                  "type": "uint8"
                }
              ],
              "internalType": "struct GameLib.BoardState",
              "name": "lastBoardState",
              "type": "tuple"
            },
            {
              "internalType": "bytes32",
              "name": "historyIPFS",
              "type": "bytes32"
            },
            {
              "internalType": "bool",
              "name": "isVerified",
              "type": "bool"
            },
            {
              "internalType": "bytes",
              "name": "encryptedKey",
              "type": "bytes"
            },
            {
              "internalType": "uint8",
              "name": "gameEngineVersion",
              "type": "uint8"
            },
            {
              "internalType": "uint256[10]",
              "name": "__gap",
              "type": "uint256[10]"
            }
          ],
          "internalType": "struct GameLib.Game[]",
          "name": "",
          "type": "tuple[]"
        }
      ],
      "stateMutability": "view",
      "type": "function"
    },
    {
      "inputs": [
        {
          "internalType": "uint256",
          "name": "teamId",
          "type": "uint256"
        }
      ],
      "name": "getTeam",
      "outputs": [
        {
          "components": [
            {
              "internalType": "uint256",
              "name": "id",
              "type": "uint256"
            },
            {
              "internalType": "address",
              "name": "wallet",
              "type": "address"
            },
            {
              "internalType": "string",
              "name": "name",
              "type": "string"
            },
            {
              "internalType": "uint64",
              "name": "eloRating",
              "type": "uint64"
            },
            {
              "internalType": "uint256",
              "name": "registeredAt",
              "type": "uint256"
            },
            {
              "internalType": "uint256[]",
              "name": "games",
              "type": "uint256[]"
            },
            {
              "internalType": "uint8",
              "name": "country",
              "type": "uint8"
            },
            {
              "internalType": "bool",
              "name": "hasActiveGame",
              "type": "bool"
            },
            {
              "internalType": "uint256",
              "name": "gameRequestId",
              "type": "uint256"
            },
            {
              "internalType": "uint64",
              "name": "totalGames",
              "type": "uint64"
            },
            {
              "internalType": "uint256[10]",
              "name": "__gap",
              "type": "uint256[10]"
            }
          ],
          "internalType": "struct GameLib.Team",
          "name": "",
          "type": "tuple"
        }
      ],
      "stateMutability": "view",
      "type": "function"
    },
    {
      "inputs": [
        {
          "internalType": "address",
          "name": "wallet",
          "type": "address"
        }
      ],
      "name": "getTeamIdByWallet",
      "outputs": [
        {
          "internalType": "uint256",
          "name": "",
          "type": "uint256"
        }
      ],
      "stateMutability": "view",
      "type": "function"
    },
    {
      "inputs": [
        {
          "internalType": "address",
          "name": "_relayerAddress",
          "type": "address"
        },
        {
          "internalType": "address",
          "name": "_relayerSmartAccountAddress",
          "type": "address"
        },
        {
          "internalType": "address",
          "name": "_gameEngineServerAddress",
          "type": "address"
        },
        {
          "internalType": "string",
          "name": "_publicKey",
          "type": "string"
        }
      ],
      "name": "initialize",
      "outputs": [],
      "stateMutability": "nonpayable",
      "type": "function"
    },
    {
      "inputs": [
        {
          "internalType": "uint256",
          "name": "gameId",
          "type": "uint256"
        },
        {
          "internalType": "enum GameLib.StateType",
          "name": "stateType",
          "type": "uint8"
        },
        {
          "internalType": "uint8[]",
          "name": "clashRandomNumbers",
          "type": "uint8[]"
        },
        {
          "components": [
            {
              "internalType": "uint256",
              "name": "playerId",
              "type": "uint256"
            },
            {
              "internalType": "enum GameLib.MoveType",
              "name": "moveType",
              "type": "uint8"
            },
            {
              "components": [
                {
                  "internalType": "uint8",
                  "name": "x",
                  "type": "uint8"
                },
                {
                  "internalType": "uint8",
                  "name": "y",
                  "type": "uint8"
                }
              ],
              "internalType": "struct GameLib.Position",
              "name": "oldPosition",
              "type": "tuple"
            },
            {
              "components": [
                {
                  "internalType": "uint8",
                  "name": "x",
                  "type": "uint8"
                },
                {
                  "internalType": "uint8",
                  "name": "y",
                  "type": "uint8"
                }
              ],
              "internalType": "struct GameLib.Position",
              "name": "newPosition",
              "type": "tuple"
            }
          ],
          "internalType": "struct GameLib.GameAction[]",
          "name": "team1Actions",
          "type": "tuple[]"
        },
        {
          "components": [
            {
              "internalType": "uint256",
              "name": "playerId",
              "type": "uint256"
            },
            {
              "internalType": "enum GameLib.MoveType",
              "name": "moveType",
              "type": "uint8"
            },
            {
              "components": [
                {
                  "internalType": "uint8",
                  "name": "x",
                  "type": "uint8"
                },
                {
                  "internalType": "uint8",
                  "name": "y",
                  "type": "uint8"
                }
              ],
              "internalType": "struct GameLib.Position",
              "name": "oldPosition",
              "type": "tuple"
            },
            {
              "components": [
                {
                  "internalType": "uint8",
                  "name": "x",
                  "type": "uint8"
                },
                {
                  "internalType": "uint8",
                  "name": "y",
                  "type": "uint8"
                }
              ],
              "internalType": "struct GameLib.Position",
              "name": "newPosition",
              "type": "tuple"
            }
          ],
          "internalType": "struct GameLib.GameAction[]",
          "name": "team2Actions",
          "type": "tuple[]"
        },
        {
          "components": [
            {
              "components": [
                {
                  "internalType": "uint8",
                  "name": "x",
                  "type": "uint8"
                },
                {
                  "internalType": "uint8",
                  "name": "y",
                  "type": "uint8"
                }
              ],
              "internalType": "struct GameLib.Position[6]",
              "name": "team1PlayerPositions",
              "type": "tuple[6]"
            },
            {
              "components": [
                {
                  "internalType": "uint8",
                  "name": "x",
                  "type": "uint8"
                },
                {
                  "internalType": "uint8",
                  "name": "y",
                  "type": "uint8"
                }
              ],
              "internalType": "struct GameLib.Position[6]",
              "name": "team2PlayerPositions",
              "type": "tuple[6]"
            },
            {
              "components": [
                {
                  "internalType": "uint8",
                  "name": "x",
                  "type": "uint8"
                },
                {
                  "internalType": "uint8",
                  "name": "y",
                  "type": "uint8"
                }
              ],
              "internalType": "struct GameLib.Position",
              "name": "ballPosition",
              "type": "tuple"
            },
            {
              "internalType": "enum GameLib.TeamEnum",
              "name": "ballOwner",
              "type": "uint8"
            }
          ],
          "internalType": "struct GameLib.BoardState",
          "name": "boardState",
          "type": "tuple"
        }
      ],
      "name": "newGameState",
      "outputs": [],
      "stateMutability": "nonpayable",
      "type": "function"
    },
    {
      "inputs": [],
      "name": "nextGameId",
      "outputs": [
        {
          "internalType": "uint256",
          "name": "",
          "type": "uint256"
        }
      ],
      "stateMutability": "view",
      "type": "function"
    },
    {
      "inputs": [],
      "name": "nextTeamId",
      "outputs": [
        {
          "internalType": "uint256",
          "name": "",
          "type": "uint256"
        }
      ],
      "stateMutability": "view",
      "type": "function"
    },
    {
      "inputs": [],
      "name": "owner",
      "outputs": [
        {
          "internalType": "address",
          "name": "",
          "type": "address"
        }
      ],
      "stateMutability": "view",
      "type": "function"
    },
    {
      "inputs": [],
      "name": "proxiableUUID",
      "outputs": [
        {
          "internalType": "bytes32",
          "name": "",
          "type": "bytes32"
        }
      ],
      "stateMutability": "view",
      "type": "function"
    },
    {
      "inputs": [],
      "name": "relayerAddress",
      "outputs": [
        {
          "internalType": "address",
          "name": "",
          "type": "address"
        }
      ],
      "stateMutability": "view",
      "type": "function"
    },
    {
      "inputs": [],
      "name": "relayerSmartAccountAddress",
      "outputs": [
        {
          "internalType": "address",
          "name": "",
          "type": "address"
        }
      ],
      "stateMutability": "view",
      "type": "function"
    },
    {
      "inputs": [],
      "name": "renounceOwnership",
      "outputs": [],
      "stateMutability": "nonpayable",
      "type": "function"
    },
    {
      "inputs": [
        {
          "internalType": "uint256",
          "name": "gameId",
          "type": "uint256"
        },
        {
          "internalType": "enum GameLib.TeamEnum",
          "name": "cauzedByTeam",
          "type": "uint8"
        },
        {
          "internalType": "enum ChessBallGame.ErrorType",
          "name": "errorType",
          "type": "uint8"
        },
        {
          "internalType": "string",
          "name": "errorMsg",
          "type": "string"
        }
      ],
      "name": "setGameError",
      "outputs": [],
      "stateMutability": "nonpayable",
      "type": "function"
    },
    {
      "inputs": [
        {
          "internalType": "uint256",
          "name": "gameRequestId",
          "type": "uint256"
        },
        {
          "internalType": "bytes",
          "name": "_encryptedKey",
          "type": "bytes"
        }
      ],
      "name": "startGame",
      "outputs": [],
      "stateMutability": "nonpayable",
      "type": "function"
    },
    {
      "inputs": [
        {
          "internalType": "address",
          "name": "sender",
          "type": "address"
        },
        {
          "internalType": "uint256",
          "name": "gameRequestId",
          "type": "uint256"
        },
        {
          "internalType": "bytes",
          "name": "_encryptedKey",
          "type": "bytes"
        }
      ],
      "name": "startGameRelayer",
      "outputs": [],
      "stateMutability": "nonpayable",
      "type": "function"
    },
    {
      "inputs": [
        {
          "internalType": "address",
          "name": "",
          "type": "address"
        }
      ],
      "name": "teamIdByWallet",
      "outputs": [
        {
          "internalType": "uint256",
          "name": "",
          "type": "uint256"
        }
      ],
      "stateMutability": "view",
      "type": "function"
    },
    {
      "inputs": [
        {
          "internalType": "string",
          "name": "",
          "type": "string"
        }
      ],
      "name": "teamNames",
      "outputs": [
        {
          "internalType": "bool",
          "name": "",
          "type": "bool"
        }
      ],
      "stateMutability": "view",
      "type": "function"
    },
    {
      "inputs": [
        {
          "internalType": "uint256",
          "name": "",
          "type": "uint256"
        }
      ],
      "name": "teams",
      "outputs": [
        {
          "internalType": "uint256",
          "name": "id",
          "type": "uint256"
        },
        {
          "internalType": "address",
          "name": "wallet",
          "type": "address"
        },
        {
          "internalType": "string",
          "name": "name",
          "type": "string"
        },
        {
          "internalType": "uint64",
          "name": "eloRating",
          "type": "uint64"
        },
        {
          "internalType": "uint256",
          "name": "registeredAt",
          "type": "uint256"
        },
        {
          "internalType": "uint8",
          "name": "country",
          "type": "uint8"
        },
        {
          "internalType": "bool",
          "name": "hasActiveGame",
          "type": "bool"
        },
        {
          "internalType": "uint256",
          "name": "gameRequestId",
          "type": "uint256"
        },
        {
          "internalType": "uint64",
          "name": "totalGames",
          "type": "uint64"
        }
      ],
      "stateMutability": "view",
      "type": "function"
    },
    {
      "inputs": [
        {
          "internalType": "address",
          "name": "newOwner",
          "type": "address"
        }
      ],
      "name": "transferOwnership",
      "outputs": [],
      "stateMutability": "nonpayable",
      "type": "function"
    },
    {
      "inputs": [
        {
          "internalType": "address",
          "name": "newImplementation",
          "type": "address"
        },
        {
          "internalType": "bytes",
          "name": "data",
          "type": "bytes"
        }
      ],
      "name": "upgradeToAndCall",
      "outputs": [],
      "stateMutability": "payable",
      "type": "function"
    }
  ],
  "bytecode": "0x60a08060405234620000d157306080527ff0c57e16840df040f15088dc2f81fe391c3923bec73e23a9662efc9c229c6a009081549060ff8260401c16620000c257506001600160401b036002600160401b0319828216016200007c575b6040516151d19081620000d7823960805181818161132d01526114a30152f35b6001600160401b031990911681179091556040519081527fc7f505b2f371ae2175ee4913f4499e1f2633a7b5936321eed1cdaeb6115181d290602090a13880806200005c565b63f92ee8a960e01b8152600490fd5b600080fdfe608080604052600436101561001357600080fd5b60003560e01c9081628e0f1b14611dd65750806302f785fd14611d495780630f1bf45414611cf75780630fb9f86914611b80578063117a5b9014611a4b57806313e4c71414611a145780631894c756146119f657806318a7cca8146119cd5780631b76929c1461193457806322d60b1a1461191c5780632cc9c964146118f35780632df84be5146117b95780633ed2b77a146116fb57806349e3969a146116a55780634cf97fad1461165e5780634f1ef286146114545780634f9bc7d9146113c257806351903bd91461138557806352d1902d1461131a57806359bcfbe41461125457806365e8e4f414610f9157806368599d0c14610f735780636e6964d714610f12578063715018a614610eba57806371f5001f1461098757806379b880ac146107905780637bb597fa146107725780638da5cb5b1461073c57806392a52e81146106ee578063a2f77bcc146105b8578063a462816c1461058f578063a89ae45714610566578063ad3cb1cc1461051c578063afcaa6e3146104a8578063b135bbb01461048a578063c0d039db14610402578063c4b634f314610387578063c6480413146101f7578063c949504114610323578063e34c2e581461027e578063ec5c504e14610261578063f2fde38b146102365763ff156d00146101f757600080fd5b34610231576020366003190112610231576001600160a01b03610218612756565b1660005260056020526020604060002054604051908152f35b600080fd5b346102315760203660031901126102315761025f610252612756565b61025a6136d6565b612ea4565b005b346102315760203660031901126102315761025f60043533614af3565b346102315760203660031901126102315760043561029a612e7f565b5080600052600960205260036040600020015415610311576000526009602052608060406000206040516102cd81612374565b815491828252600181015460208301908152606060036002840154936040860194855201549301928352604051938452516020840152516040830152516060820152f35b60405163b0ce759160e01b8152600490fd5b346102315760403660031901126102315761033c612756565b600154336001600160a01b0391821614159081610378575b506103665761025f9060243590614af3565b604051639608c6ff60e01b8152600490fd5b9050600d541633141582610354565b34610231576060366003190112610231576103a0612756565b6024356001600160401b038111610231576103bf903690600401612469565b6044359060ff8216820361023157600154336001600160a01b03918216141590816103f3575b506103665761025f92613111565b9050600d5416331415846103e5565b346102315760a03660031901126102315761041b612756565b60243590604435906003821015610231576084359160ff8316830361023157600154336001600160a01b039182161415908161047b575b5061036657836000526003602052600160406000200154156103115761025f936064359261488b565b9050600d541633141585610452565b34610231576000366003190112610231576020600654604051908152f35b34610231576060366003190112610231576104c1612756565b6044356001600160401b038111610231576104e090369060040161277a565b600154909190336001600160a01b039182161415908161050d575b506103665761025f9260243590613793565b9050600d5416331415846104fb565b346102315760003660031901126102315761056260405161053c816123aa565b60058152640352e302e360dc1b602082015260405191829160208352602083019061206b565b0390f35b3461023157600036600319011261023157600d546040516001600160a01b039091168152602090f35b34610231576000366003190112610231576002546040516001600160a01b039091168152602090f35b3461023157602080600319360112610231576004356105d56128b6565b5080600052600382526001604060002001541561031157600052600381526040600020906106d460276040519361060b85612358565b8054855260018101548486015261062460028201612490565b6040860152610635600682016124f6565b6060860152610646600d82016124f6565b608086015261067360ff6014830154818116610661816121a5565b60a089015260081c1660c08701612484565b61067f601582016125ee565b60e0860152602381015461010086015260ff60248201541615156101208601526040516106ba816106b38160258601612677565b03826123f4565b61014086015260ff602682015416610160860152016127d7565b610180830152610562604051928284938452830190612244565b34610231576020366003190112610231576004356000526009602052608060406000208054906001810154906003600282015491015491604051938452602084015260408301526060820152f35b34610231576000366003190112610231576000805160206150dc833981519152546040516001600160a01b039091168152602090f35b34610231576000366003190112610231576020600a54604051908152f35b34610231576040366003190112610231576107a9612756565b6001805460243592906001600160a01b0390811633141580610979575b6103665783600052602092600384528060406000200154156103115784600052600384528060406000200154156103115784600052600384526040600020938160ff601487015416610817816121a5565b03610967576006850154806000526004825283808460406000200154169516809514158061094c575b61093a57600052600481528383836040600020015416148061092e575b61091057600490600d8601546000525260406000200154161480610922575b6109105760018060401b03600282015460081c16603c81018091116108fa574211156108e8576005015460ff1660038110156108d257156108c05761025f906141dc565b6040516356eff76b60e01b8152600490fd5b634e487b7160e01b600052602160045260246000fd5b604051634e7fc88160e11b8152600490fd5b634e487b7160e01b600052601160045260246000fd5b604051631e86addb60e01b8152600490fd5b5060048101541561087c565b5060038501541561085d565b604051633093624d60e21b8152600490fd5b50600d86015460005284848460406000200154161415610840565b6040516314bc0c2f60e31b8152600490fd5b5080600d54163314156107c6565b34610231576104003660031901126102315760046024351015610231576001600160401b036044351161023157366023604435011215610231576001600160401b036004604435013511610231573660246044356004013560051b604435010111610231576064356001600160401b03811161023157610a0b9036906004016127a7565b6084356001600160401b03811161023157610a2a9036906004016127a7565b90916103603660a31901126102315760043560005260036020526001604060002001541561031157600254336001600160a01b0391821614159081610eaa575b81610e9b575b50610e89576004356000526003602052604060002092600160ff601486015416610a99816121a5565b036109675760ff600285015416610e59575b60158401600060a45b60068210610e2357505050601b840160006102245b60068210610de7575050506103a43560ff811681036102315760ff1660ff1960218601541617602185015560ff6103c435166103c4350361023157610b146103c43560218601612d63565b60036103e435101561023157610b306103e43560228601612cb4565b610c2a60c06002860154610b4660ff8216612d79565b90610b526024356121a5565b602435600203610dd657610b6f60ff60058a015460081c16612d79565b905b610b7c6024356121a5565b602435600303610dc557610b9960ff60058b015460101c16612d79565b925b60ff808060405193610bac8561233d565b169485845260018060401b034216602085015260006040850152600060608501526000608085015216948560a084015216948591015260ff1916176002880155610c0160018060401b03421660028901612ccc565b6000600388015560006004880155610c25600588019160ff19835416835582612d63565b612d8b565b610c356024356121a5565b602435600203610d8e57604051600181526000805160206150bc833981519152602060043592a25b835492604051926104008401610c746024356121a5565b6024358552426020860152610400604086015260443560040135905261042084019660246044350160005b604435600401358110610d6e57505093610cff600296947f1cc12e86ff5f2b2e761ab2fd8a6e3ee635d92958237b110363a2868ed2b6f8be94610cf18b859660ff9c9a87602d9f036060890152612dc5565b918483036080860152612dc5565b610d0f60a0830160158801612e42565b610d206102208301601b8801612e42565b610d406103a083016021880160ff60209154818116845260081c16910152565b610d55886022880154166103e08401906120ce565b0390a20154161015610d6357005b61025f60043561441b565b909860208060019260ff610d818e61276c565b168152019a019101610c9f565b610d996024356121a5565b600360243503610c5d57604051600281526000805160206150bc833981519152602060043592a2610c5d565b60ff60058a015460101c1692610b9b565b60ff600589015460081c1690610b71565b600160408260ff610df88495612d55565b1660ff19875416178655610e17610e1160208301612d55565b87612d63565b01930191019091610ac9565b600160408260ff610e348495612d55565b1660ff19875416178655610e4d610e1160208301612d55565b01930191019091610ab4565b6003840154158015610e7d575b15610aab57604051631e86addb60e01b8152600490fd5b50600484015415610e66565b604051631c307ff760e31b8152600490fd5b9050600d541633141585610a70565b8091506001541633141590610a6a565b3461023157600036600319011261023157610ed36136d6565b6000805160206150dc83398151915280546001600160a01b031981169091556000906001600160a01b031660008051602061511c8339815191528280a3005b34610231576020366003190112610231576004356001600160401b0381116102315760ff610f5d6020610f4a81943690600401612469565b8160405193828580945193849201612048565b8101600b81520301902054166040519015158152f35b34610231576000366003190112610231576020600754604051908152f35b3461023157608036600319011261023157610faa612756565b6001600160a01b03602435818116908190036102315760443592828416809403610231576001600160401b0360643581811161023157610fee903690600401612469565b9460008051602061513c8339815191529384549560ff8760401c1615948488169788158061124d575b6001809a149081611243575b15908161123a575b50611228576001600160401b03198116891788558661120d575b50169081156111fb5780156111fb5782156111fb5760018060a01b0319918288541617875581600d541617600d55600254161760025584519081116111e55761108f600c5461263d565b601f811161118b575b50602094601f8211600114611126576110bf92939495829160009261111b575b5050612d42565b600c555b6110cb614c60565b6110d3614c60565b6110dc33612ea4565b6110e257005b805460ff60401b191690556040519081527fc7f505b2f371ae2175ee4913f4499e1f2633a7b5936321eed1cdaeb6115181d290602090a1005b0151905086806110b8565b601f19821695600c600052806000209160005b8881106111755750838798979596971061115c575b505050811b01600c556110c3565b015160001960f88460031b161c1916905585808061114e565b8183015184559287019260209283019201611139565b600c6000526111d5907fdf6966c971051c3d54ec59162606531493a51404a002842f56009d7e5cf4a8c7601f840160051c810191602085106111db575b601f0160051c0190612cf1565b85611098565b90915081906111c8565b634e487b7160e01b600052604160045260246000fd5b6040516301369f3160e61b8152600490fd5b6001600160481b0319166001600160401b0117875589611045565b60405163f92ee8a960e01b8152600490fd5b9050158b61102b565b303b159150611023565b5086611017565b3461023157600036600319011261023157604051600c546000826112778361263d565b91828252602093600190856001821691826000146112fa5750506001146112ba575b506112a6925003836123f4565b61056260405192828493845283019061206b565b849150600c60005281600020906000915b8583106112e25750506112a6935082010185611299565b805483890185015287945086939092019181016112cb565b60ff1916858201526112a695151560051b85010192508791506112999050565b34610231576000366003190112610231577f00000000000000000000000000000000000000000000000000000000000000006001600160a01b031630036113735760206040516000805160206150fc8339815191528152f35b60405163703e46dd60e11b8152600490fd5b34610231576040366003190112610231576024356001600160401b038111610231576113b861025f91369060040161277a565b9060043533613793565b34610231576000366003190112610231576113db6136d6565b60656000908152600360205260047f5ed25f7f90ee98fc55a6c59d7b052a857d4bf613ad8f5f7fd8077c1e252c6c1a61143d426001600160401b03167f5ed25f7f90ee98fc55a6c59d7b052a857d4bf613ad8f5f7fd8077c1e252c6c1c612ccc565b60058101805460ff19169055600381018390550155005b604036600319011261023157611468612756565b6024356001600160401b038111610231573660238201121561023157611498903690602481600401359101612432565b906001600160a01b037f00000000000000000000000000000000000000000000000000000000000000008116308114908115611642575b50611373576114dc6136d6565b6040516352d1902d60e01b8152908216916020918281600481875afa60009181611613575b5061151f57604051634c9c8ce360e01b815260048101859052602490fd5b9284936000805160206150fc833981519152908181036115fb5750823b156115e25780546001600160a01b03191682179055604051907fbc7cd75a20ee27fd9adebab32041f755214dbc6bffa90cc0225b39da2e5c2d3b600080a28351156115c85750600080848461025f96519101845af4903d156115bf573d6115a281612417565b906115b060405192836123f4565b8152600081943d92013e614cc0565b60609250614cc0565b92505050346115d357005b63b398979f60e01b8152600490fd5b604051634c9c8ce360e01b815260048101839052602490fd5b60249060405190632a87526960e21b82526004820152fd5b9091508381813d831161163b575b61162b81836123f4565b8101031261023157519086611501565b503d611621565b9050816000805160206150fc83398151915254161415846114cf565b34610231576040366003190112610231576004356001600160401b0381116102315761168e903690600401612469565b60243560ff811681036102315761025f9133613111565b34610231576060366003190112610231576116be612756565b600154336001600160a01b03918216141590816116ec575b506103665761025f906044359060243590612f2b565b9050600d5416331415826116d6565b34610231576020366003190112610231576004356000526004602052604060002080549060018060a01b0360018201541690604051611741816106b38160028601612677565b60018060401b039160ff8360038301541693600483015461178c600685015492600860078701549601541695604051998a99610120918b5260208b01528060408b015289019061206b565b956060880152608087015281811660a087015260081c16151560c085015260e08401526101008301520390f35b34610231576020806003193601126102315760043590816000526003815260018060406000200154156103115782600052600382528060406000200154156103115782600052600382526040600020918160ff60148501541661181b816121a5565b03610967576006830154600081815260048352604090208301546001600160a01b039291908316331415806118d8575b61093a5760005260048152338284604060002001541614806118cc575b61091057600490600d85015460005252339160406000200154161480610922576109105760018060401b03600282015460081c16603c81018091116108fa574211156108e8576005015460ff1660038110156108d257156108c05761025f906141dc565b50600384015415611868565b50600d8501546000523383856040600020015416141561184b565b34610231576000366003190112610231576000546040516001600160a01b039091168152602090f35b346102315761025f61192d366120b8565b9033612f2b565b346102315760003660031901126102315760405180600854808352602080930180916008600052846000209060005b868282106119b9578686611979828803836123f4565b604051928392818401908285525180915260408401929160005b8281106119a257505050500390f35b835185528695509381019392810192600101611993565b835485529093019260019283019201611963565b34610231576000366003190112610231576001546040516001600160a01b039091168152602090f35b34610231576000366003190112610231576020600854604051908152f35b346102315760203660031901126102315760043560085481101561023157611a3d60209161270d565b90546040519160031b1c8152f35b346102315760203660031901126102315760043560005260036020526040600020805460018201549060028301611a8190612490565b92611a8e600682016124f6565b91611a9b600d83016124f6565b601483015460ff811690611ab1601586016125ee565b90602386015492602487015460ff16946040519788806025830190611ad591612677565b03611ae0908a6123f4565b6026015460ff16986040519b8c9b610780998d5260208d015260408c01611b06916120db565b6101208b01611b1491612133565b6102408a01611b2291612133565b611b2b816121a5565b61036089015261038088019060081c60ff1690611b47916120ce565b6103a08701611b55916121ee565b6107008601521515610720850152806107408501528301611b759161206b565b906107608301520390f35b346102315760803660031901126102315760043560243560038110159081610231576044356002811015610231576064356001600160401b03811161023157611bcd903690600401612469565b600254909390336001600160a01b0391821614159081611ce7575b81611cd8575b50610e8957611bfc82612caa565b6001821480611ccc575b611c5a575b5090611c5560008051602061517c83398151915293611c3093604051948580956120ce565b611c3981612caa565b602084015242604084015260806060840152608083019061206b565b0390a2005b8460009392935260036020526040600020906108d25760008051602061517c83398151915293611c3093611c559260018503611ca957600501805460ff191660021790555b9293509350611c0b565b60028514611cb8575b50611c9f565b600501805460ff1916600117905587611cb2565b50506000821515611c06565b9050600d541633141586611bee565b8091506001541633141590611be8565b346102315760203660031901126102315760043580600052600360205260016040600020015415610311576000526003602052602060ff6014604060002001541660405190611d45816121a5565b8152f35b3461023157611d57366120b8565b9080600052602091600483526040600020541561031157611d7791612a23565b6040519082820192808352815180945260408301938160408260051b8601019301916000955b828710611daa5785850386f35b909192938280611dc6600193603f198a82030186528851612244565b9601920196019592919092611d9d565b346102315760203660031901126102315760043590611df481612321565b6000815260006020820152606060408201526000606082015260006080820152606060a0820152600060c0820152600060e08201526000610100820152600061012082015261014060405191611e49836123d8565b81368437015280600052600460205260406000205415610311576000526004602052604060002060405190611e7d82612321565b8054825260018101546001600160a01b03166020830152604051611ea8816106b38160028601612677565b604083015260018060401b036003820154166060830152600481015460808301526005810160405190816020825491828152019160005260206000209060005b8181106120325786611f4760098888611f03818a03826123f4565b60a0850152600681015460ff81811660c0870152600891821c16151560e086015260078201546101008601528101546001600160401b0316610120850152016127d7565b6101408201526040805160208082528351818301528301516001600160a01b031681830152908201516102806060830152611f87906102a083019061206b565b60018060401b036060840151166080830152608083015160a083015260a083015190601f198382030160c08401526020808351928381520192019060005b81811061201c575050506105626101408460ff60c0869701511660e086015260e0810151151561010086015261010081015161012086015260018060401b0361012082015116828601520151610160840190612090565b8251845260209384019390920191600101611fc5565b8254845260209093019260019283019201611ee8565b60005b83811061205b5750506000910152565b818101518382015260200161204b565b9060209161208481518092818552858086019101612048565b601f01601f1916010190565b6000915b600a83106120a157505050565b600190825181526020809101920192019190612094565b6040906003190112610231576004359060243590565b9060038210156108d25752565b60ff60c0809282815116855260018060401b036020820151166020860152604081015160408601526060810151606086015261211f608082015160808701906120ce565b8260a08201511660a0860152015116910152565b805182526020808201516001600160401b03908116828501526040808401519091169084015260608201519093926001929091838110156108d257606083015260809081015160009590929091015b6005861061219257505050509050565b8251815294830194918101918101612182565b600411156108d257565b906000905b600682106121c157505050565b60206040826121e2600194875160ff60208092828151168552015116910152565b019301910190916121b4565b906103406060612242936122038482516121af565b61221660208201516101808601906121af565b612238604082015161030086019060ff60208092828151168552015116910152565b01519101906120ce565b565b9061231e906107806101806123046108c08651855260208701516020860152612275604088015160408701906120db565b606087015161228a6101209182880190612133565b61229d6080890151610240880190612133565b60a08801516122ab816121a5565b6103608701526122c460c08901516103808801906120ce565b6122d760e08901516103a08801906121ee565b6101008801516107008701528701511515610720860152610140870151908061074087015285019061206b565b9460ff610160820151166107608501520151910190612090565b90565b61016081019081106001600160401b038211176111e557604052565b60e081019081106001600160401b038211176111e557604052565b6101a081019081106001600160401b038211176111e557604052565b608081019081106001600160401b038211176111e557604052565b60a081019081106001600160401b038211176111e557604052565b604081019081106001600160401b038211176111e557604052565b6001600160401b0381116111e557604052565b61014081019081106001600160401b038211176111e557604052565b601f909101601f19168101906001600160401b038211908210176111e557604052565b6001600160401b0381116111e557601f01601f191660200190565b92919261243e82612417565b9161244c60405193846123f4565b829481845281830111610231578281602093846000960137010152565b9080601f830112156102315781602061231e93359101612432565b60038210156108d25752565b9060405161249d8161233d565b60c060ff600383958054838116865260018060401b039060081c166020860152600181015460408601526002810154606086015201546124e282821660808601612484565b818160081c1660a085015260101c16910152565b90604051916125048361238f565b82815481526001808301549260ff60018060401b039460209580821660208701528160401c16604086015260801c1660018110156108d257606084015260405193600290910190600090855b6005831061256d5750505050506080906125698361238f565b0152565b8354815292840192918401918101612550565b9060405161258d816123aa565b602060ff829454818116845260081c16910152565b604051919060c083016001600160401b038111848210176111e5576040526000835b600682106125d157505050565b6001602081926125e086612580565b8152019301910190916125c4565b906122426040516125fe81612374565b606060ff600d839661260f816125a2565b855261261d600682016125a2565b602086015261262e600c8201612580565b60408601520154169101612484565b90600182811c9216801561266d575b602083101461265757565b634e487b7160e01b600052602260045260246000fd5b91607f169161264c565b8054600093926126868261263d565b918282526020936001916001811690816000146126ee57506001146126ad575b5050505050565b90939495506000929192528360002092846000945b8386106126da575050505001019038808080806126a6565b8054858701830152940193859082016126c2565b60ff19168685015250505090151560051b0101915038808080806126a6565b60085481101561272857600860005260206000200190600090565b634e487b7160e01b600052603260045260246000fd5b80548210156127285760005260206000200190600090565b600435906001600160a01b038216820361023157565b359060ff8216820361023157565b9181601f84011215610231578235916001600160401b038311610231576020838186019501011161023157565b9181601f84011215610231578235916001600160401b0383116102315760208085019460c0850201011161023157565b60405191906000835b600a82106127f457505050612242826123d8565b60016020819285548152019301910190916127e0565b6001600160401b0381116111e55760051b60200190565b6040519061282e8261238f565b81600081526000602082015260006040820152600060608201526080604051916128578361238f565b60a03684370152565b60408051919060c0908184016001600160401b038111858210176111e5576040528360009160005b848110612896575050505050565b60209082516128a4816123aa565b85815285838201528185015201612888565b6040908151916128c583612358565b6101808360009283825283602083015280516128e08161233d565b84815284602082015284828201528460608201528460808201528460a08201528460c082015281830152612912612821565b606083015261291f612821565b60808301528360a08301528360c0830152805161293b81612374565b612943612860565b815261294d612860565b6020820152815161295d816123aa565b8581528560208201528282015284606082015260e0830152836101008301528361012083015261014093606085840152610160830152519261299e846123d8565b3684370152565b906129af8261280a565b6129bc60405191826123f4565b82815280926129cd601f199161280a565b019060005b8281106129de57505050565b6020906129e96128b6565b828285010152016129d2565b80518210156127285760209160051b010190565b919082039182116108fa57565b919082018092116108fa57565b60009081526020600481526040600581842001928354938415612c735784861015612b7257612a51866129a5565b95825b818110612a65575050505050505090565b80612a84612a7e600193612a79868c612a09565b612a16565b8561273e565b9054600391821b1c86528752858520612b506027885192612aa484612358565b80548452858101548b850152612abc60028201612490565b8a850152612acc600682016124f6565b6060850152612add600d82016124f6565b60808501526014810154612afa60ff8281809416610661816121a5565b612b06601583016125ee565b60e086015260238201546101008601528060248301541615156101208601528a51612b38816106b38160258701612677565b610140860152602682015416610160850152016127d7565b610180820152612b60828b6129f5565b52612b6b818a6129f5565b5001612a54565b9450612b7d846129a5565b94815b858110612b905750505050505090565b80612b9d6001928461273e565b9054600391821b1c85528652848420612c516027875192612bbd84612358565b80548452858101548a850152612bd560028201612490565b89850152612be5600682016124f6565b6060850152612bf6600d82016124f6565b60808501526014810154612c1360ff8281809416610661816121a5565b612c1f601583016125ee565b60e086015260238201546101008601528060248301541615156101208601528951612b38816106b38160258701612677565b610180820152612c61828a6129f5565b52612c6c81896129f5565b5001612b80565b50815194509250908301906001600160401b03821184831017612c965752815290565b634e487b7160e01b83526041600452602483fd5b600211156108d257565b9060038110156108d25760ff80198354169116179055565b8054610100600160481b03191660089290921b610100600160481b0316919091179055565b818110612cfc575050565b60008155600101612cf1565b9190601f8111612d1757505050565b612242926000526020600020906020601f840160051c830193106111db57601f0160051c0190612cf1565b8160011b916000199060031b1c19161790565b3560ff811681036102315790565b9061ff0082549160081b169061ff001916179055565b60ff60019116019060ff82116108fa57565b9062ff000082549160101b169062ff00001916179055565b60ff612dbf6020809383612db68261276c565b1686520161276c565b16910152565b91818152602080910192916000916000905b828210612de657505050505090565b909192939485358152818601356004811015612e3e579081612e096001936121a5565b83820152612e1d6040808301908901612da3565b612e2d6080808301908901612da3565b60c090810196019493920190612dd7565b8580fd5b906000905b60068210612e5457505050565b6001604082612e7383948760ff60209154818116845260081c16910152565b01930191019091612e47565b60405190612e8c82612374565b60006060838281528260208201528260408201520152565b6001600160a01b03908116908115612eed576000805160206150dc83398151915280546001600160a01b0319811684179091551660008051602061511c833981519152600080a3565b604051631e4fbdf760e01b815260006004820152602490fd5b60001981146108fa5760010190565b6040919493926060820195825260208201520152565b929192600093828552600494602090868252604093848220541561309e57838252878352848220541561309e5785825287835284822054848352858320541461308e57858252878352848220600101546001600160a01b039081169082160361307e5783825287835260ff6006868420015460081c1661306e5796600785837f1cce6a28f1564d6cb3044145a4ccc8873cf34f87429af3289490527d7c0437e6999a89613059989796528486528383832001548061305e575b5050612ff1600a54612f06565b9384600a55612ffe612e7f565b5082519561300b87612374565b858752808701958b87526003858901918a835260608a0190428252865260098452868620928a51998a8555516001850155516002840155519101558a83525220015551925193849384612f15565b0390a1565b61306791614af3565b3880612fe4565b8451635e003ea960e01b81528890fd5b8451633093624d60e21b81528890fd5b8451634de6470960e01b81528890fd5b845163b0ce759160e01b81528890fd5b81601f820112156102315780516130c481612417565b926130d260405194856123f4565b818452602082840101116102315761231e9160208085019101612048565b51906001600160401b038216820361023157565b5190811515820361023157565b9060018060a01b0380831660005260056020526040600020546136c4578151156136b25761317391600073__$18826597157b5485acfb86513cd242e4d3$__9160405180958192630fb93a7160e21b835260206004840152602483019061206b565b0381845af492831561365457600093613672575b5060ff604051602081865161319f8183858b01612048565b8101600b81520301902054166136605760006131bc600754612f06565b80600755604051928391631d029a8d60e01b83526004830152848716602483015260a0604483015281806131f360a482018961206b565b60ff8b16606483015242608483015203915af4908115613654576000916134ba575b5080516000526004602052604060002081518155600181018360208401511660018060a01b031982541617905560028101604083015180519060018060401b0382116111e55761326f82613269855461263d565b85612d08565b602090601f831160011461345257613291929160009183613447575050612d42565b90555b60608201516003820180546001600160401b0319166001600160401b039283161790556080830151600483015560a083015180519182116111e557600160401b82116111e5576020906005840154836005860155808410613427575b500160058301600052602060002060005b83811061341357505050506006810160ff60c08401511681549061ff0060e0860151151560081b169161ffff19161717905561010082015160078201556008810160018060401b036101208401511660018060401b031982541617905561014082015160005b600a81106133fc57505050916133ee917f1599aa311a61861ca44d28454c9e07d6e99428d1fcd90906d4eb6c322d7c52a29360405160208185516133ae8183858a01612048565b8101600b815203019020600160ff1982541617905580518287166000526005602052604060002055519460ff60405194859460408652604086019061206b565b9716602084015216940390a3565b600190602083519301926009828601015501613367565b600190602084519401938184015501613301565b613441906005860160005284846000209182019101612cf1565b386132f0565b0151905038806110b8565b90601f198316918460005260206000209260005b8181106134a25750908460019594939210613489575b505050811b019055613294565b015160001960f88460031b161c1916905538808061347c565b92936020600181928786015181550195019301613466565b90503d806000833e6134cc81836123f4565b81016020828203126102315781516001600160401b0392838211610231570190610280908183820312610231576040519361350685612321565b8351855260208401518681168103610231576020860152604084015181811161023157826135359186016130ae565b6040860152613546606085016130f0565b60608601526080840151608086015260a084015190811161023157830181601f820112156102315780519061357a8261280a565b9161358860405193846123f4565b80835260208084019160051b8301019184831161023157602001905b8282106136445750505060a085015260c083015160ff811681036102315760c08501526135d360e08401613104565b60e085015261010080840151908501526101206135f18185016130f0565b90850152610140918161015f850112156102315760405193613612856123d8565b84918101928311610231578301905b8282106136345750505082015238613215565b8151815260209182019101613621565b81518152602091820191016135a4565b6040513d6000823e3d90fd5b604051634749bdef60e11b8152600490fd5b9092503d806000833e61368581836123f4565b81016020828203126102315781516001600160401b038111610231576136ab92016130ae565b9138613187565b60405163d9f415a960e01b8152600490fd5b60405163f2d8e7a360e01b8152600490fd5b6000805160206150dc833981519152546001600160a01b031633036136f757565b60405163118cdaa760e01b8152336004820152602490fd5b8054600160401b600160801b03191660409290921b600160401b600160801b0316919091179055565b9060038110156108d25761ff0082549160081b169061ff001916179055565b80549190600160401b8310156111e5578261377a9160016122429501815561273e565b90919082549060031b91821b91600019901b1916179055565b92909192600090838252600960205260036040832001541561031157838252600960205260026040832001548252600460205260018060a01b038060016040852001541691160361093a57828152600960205260016040822001548152600460205260ff600660408320015460081c166141ca57828152600960205260026040822001548152600460205260ff600660408320015460081c166141ca5782815260096020526002604082200154815260046020526007604082200154614145575b828152600960205260408120926002600185015494015494613877600654612f06565b908160065585845260046020526138b360018060401b036003604087200154169188865260018060401b03600360408820015416963691612432565b6138bb6128b6565b506040516138c88161238f565b858152856020820152856040820152856060820152856080820152604051926138f08461238f565b888452602084015285604084015285606084015260808301526040516139158161238f565b8581528560208201528560408201528560608201528560808201526040519661393d8861238f565b8988526020880152856040880152856060880152608087015261395e612860565b50613967612860565b604051613973816123aa565b6001815260056020820152815260405161398c816123aa565b600481526002602082015260208201526040516139a8816123aa565b600481526008602082015260408201526040516139c4816123aa565b600681526003602082015260608201526040516139e0816123aa565b600681526007602082015260808201526040516139fc816123aa565b600881526005602082015260a0820152613a14612860565b50613a1d612860565b96604051613a2a816123aa565b600f8152600560208201528852604051613a43816123aa565b600c8152600260208201526020890152604051613a5f816123aa565b600c8152600860208201526040890152604051613a7b816123aa565b600a8152600260208201526060890152604051613a97816123aa565b600a8152600860208201526080890152604051613ab3816123aa565b600a81526005602082015260a089015260405197613ad08961233d565b8789528760208a01528760408a01528760608a01528760808a01528760a08a01528760c08a015260405190613b04826123aa565b600882526005602083015260405193613b1c85612374565b84526020840152604083015260016060830152604051938461014081011060018060401b03610140870111176111e55761014085016040528785528760208601528760408601528760608601528760808601528760a08601528760c08601528760e0860152876101008601528761012086015260405198613b9c8a612358565b868a524260208b015260408a015260608901526080880152600160a08801528560c088015260e08701528461010087015284610120870152610140860152600161016086015261018085015282526003602052604082208351815560208401516001820155604084015160ff81511660ff19600284015416176002830155613c3360018060401b0360208301511660028401612ccc565b60408101516003830155606081015160048301556080810151600381101561411a5760c0613c8992613c6a60ff9360058701612cb4565b613c7d8360a08301511660058701612d63565b01511660058301612d8b565b60608401518051600683015560208101516007830180546001600160401b0319166001600160401b039283161781556040830151613cc892169061370f565b6060810151600181101561411a5760078301805460ff60801b1916608092831b60ff60801b161790550151835b6005811061412e57505060808401518051600d8301556020810151600e830180546001600160401b0319166001600160401b039283161781556040830151613d3e92169061370f565b6060810151600181101561411a57600e8301805460ff60801b1916608092831b60ff60801b161790550151835b6005811061410357505060a0840151613d83816121a5565b613d8c816121a5565b60ff8019601484015416911617601482015560c0840151600381101561409157613db99060148301613738565b60e08401518051601583019085905b600682106140d4575050506020810151601b83019085905b600682106140a557505050606090613e136021840160ff6020604085015182815116831985541617845501511690612d63565b0151600381101561409157613e2b9060228301612cb4565b610100840151602382015560248101610120850151151560ff8019835416911617905561014084015180519060018060401b03821161407d57613e7e82613e75602586015461263d565b60258601612d08565b602090601f831160011461400e57613e9f9291869183613447575050612d42565b60258201555b6026810160ff6101608601511660ff19825416179055610180840151835b600a8110613ff75750505073__$18826597157b5485acfb86513cd242e4d3$__90813b15613ff3578290606460405180948193636c2a23bf60e01b8352600960048401526004602484015260448301525af48015613fe857613fd1575b50600560408285613f7e9452600460205260068282200161ff0019906101008282541617905587825261010060068484200191825416179055858152613f6c8383832001865190613757565b86815260046020522001825190613757565b805160085490600160401b8210156111e55761377a826001613fa3940160085561270d565b517f94b80033a8327ab5e699285e343e5f1027e2299b685ec5836a08f3a8faacbd59602060405160018152a4565b613fdb82916123c5565b613fe55738613f20565b80fd5b6040513d84823e3d90fd5b8280fd5b600190602083519301926027828601015501613ec3565b9190602584018652602086209086935b601f1984168510614062576001945083601f19811610614049575b505050811b016025820155613ea5565b015160001960f88460031b161c19169055388080614039565b8181015183556020948501946001909301929091019061401e565b634e487b7160e01b85526041600452602485fd5b634e487b7160e01b84526021600452602484fd5b60016020826140c860ff838596518281511683198b5416178a5501511687612d63565b01930191019091613de0565b60016020826140f760ff838596518281511683198b5416178a5501511687612d63565b01930191019091613dc8565b60019060208351930192600f828601015501613d6b565b634e487b7160e01b85526021600452602485fd5b600190602083519301926008828601015501613cf5565b73__$18826597157b5485acfb86513cd242e4d3$__83825260096020526002604083200154825260046020526007604083200154813b15613ff3578290606460405180948193636c2a23bf60e01b8352600960048401526004602484015260448301525af48015613fe8576141bb575b50613854565b6141c4906123c5565b386141b5565b604051635e003ea960e01b8152600490fd5b60008181526003806020526040918281209060068201548152600492600460205284822093600d840154835285832092601485019460ff86541694614220866121a5565b60018096036143e2579060059160068060089a8b810180549060018060401b03908161424d818516614c8f565b166001600160401b03199384161790558d8601805490929091614271818416614c8f565b169116179055019161ff0019928381541690550190815416905501805460ff8116600360ff19895416178855600381101561409157869594939291906001036143d05750805462ffff0019166103001790555b80945b6142ff575b505050505060008051602061515c833981519152929160ff9154901c166142f5825180926120ce565b60016020820152a2565b8654808610156143ca57896143138761270d565b905490861b1c14614329575083809501946142c7565b9491935091600019948581019081116143b757614358929161434d61377a9261270d565b9054911b1c9161270d565b84549182156143a45750509160008051602061515c83398151915294939160ff93016143976143868261270d565b8154906000199060031b1b19169055565b82559181939438806142cc565b634e487b7160e01b825260319052602490fd5b634e487b7160e01b845260118552602484fd5b506142cc565b62ffff001916620300001790556142c4565b885162461bcd60e51b815260206004820152601260248201527147616d65206973206e6f742061637469766560701b6044820152606490fd5b90600091808352600392602084815260409182812060ff90602d826002830154161061487a57600681015483526004906004855285842091600d820154855286852060148301938585541693614470856121a5565b60018095036148415791898594928a8f8e8a8d8d9c9b9960089d8e80890194855493600160401b600190039c8d9b8c98898089166144ad90614c8f565b166001600160401b03199889161790558482018054888b6144cf818416614c8f565b1691161790556006019061ff0019918281541690556006019081541690556005015490838083851c169260101c16808311600014926145229361482c5750506001905b805460ff19166002178155613738565b85845286885260048a85209860068a0154865252848a852094600d8a01548152818c82209a6005880154158061481d575b6147e5575b60058c015415828c8e836147d5575b50505061479d575b60078101948280875416600e840198806005848c541696015480951c169360101c1695506145ac6145a287858785614d23565b9490978387614d23565b9690931561478d576145bd91612a09565b16935b1561477e576145ce91612a09565b165b858a88019a8c019e8f9216915416178d5516908388541691808317895561138894858092109561462f9461463997614774575b50508d548289821610614768575b5050509295509295809a9b9c5084995097969793909354169061370f565b838854169061370f565b54935416928d8d518061466f7fcbbcee95272cfb3753df326bdc92854d09463c4834c094a042f4066cc803b9b597889483614ca7565b0390a2549254168b6146858c5192839283614ca7565b0390a285825b6146bd575b50505060008051602061515c8339815191529697985054901c16916146b7845180946120ce565b820152a2565b845480821015614762578a8d6146d28461270d565b9054911b1c146146e5575082018261468b565b9250909a6000199283810190811161474f57614708929161434d61377a9261270d565b8254801561473c5760008051602061515c83398151915298999a50016147306143868261270d565b82558897963880614690565b634e487b7160e01b865260318b52602486fd5b634e487b7160e01b885260118d52602488fd5b50614690565b16178c55388080614611565b178a558138614603565b61478791612a16565b166145d0565b61479691612a16565b16936145c0565b8a8c01612710908189825416179055600e8201908882546064868216146147c8575b5050505061456f565b16179055388088816147bf565b6064935001541614828c8e614567565b8a88016127109081898254161790556007820190888254606486821614614810575b50505050614558565b1617905538808881614807565b506064828c8a01541614614553565b101561483a57600290614512565b8590614512565b895162461bcd60e51b8152600481018a9052601260248201527147616d65206973206e6f742061637469766560701b6044820152606490fd5b8451636ff6cfe560e01b8152600490fd5b9290936000918583526020936003855260409586852090600160ff6014840154166148b5816121a5565b03614ae2576003831015614ace578215614abd578315614aac57600183148080614a9f575b614a8e5760028414908180614a81575b614a705715614a3857506006820154865260048752878620600101546001600160a01b03908116911603614a27576002905b019260ff8454169060ff8061493084612d79565b9216911603614a1657602d1115614a0757614961908651936378e02d7160e11b8552600485015260248401906120ce565b6044820152828160648173__$18826597157b5485acfb86513cd242e4d3$__5af49182156149fc5780926149c4575b505061499b57505050565b7fd6ad8b09cb4bf385f0569c05c242d45e491f752df651aae6a2db9ff589bd9fae9151428152a2565b9091508282813d83116149f5575b6149dc81836123f4565b81010312613fe557506149ee90613104565b3880614990565b503d6149d2565b8451903d90823e3d90fd5b5050505050506122429061441b565b8651638291953560e01b8152600490fd5b8651633093624d60e21b8152600490fd5b614a46575b5060029061491c565b600d820154865260048752878620600101546001600160a01b03908116911603614a275738614a3d565b8951635ce6d95760e11b8152600490fd5b50600484015415156148ea565b8851635ce6d95760e11b8152600490fd5b50600383015415156148da565b8751635101966360e01b8152600490fd5b8751636f6fc75f60e11b8152600490fd5b634e487b7160e01b86526021600452602486fd5b87516314bc0c2f60e31b8152600490fd5b919091821561031157600092808452600960205260406003818620015415614c505781855260096020526001818620015485526004928360205260018060a01b03806001848920015416911603614c4157818552600960205260038186200154603c8101809111614c2e57421115614c1f57818552600960205280852092600260018501549401549573__$18826597157b5485acfb86513cd242e4d3$__91823b15614c1b5781906064855180958193636c2a23bf60e01b835260098184015260248301528860448301525af4908115614c105750917f773e15a265d8549eebc3e80bafb0e2cbeba28c5d2b2a081e31c34554c7d0507d95969161305993614c01575b505193849384612f15565b614c0a906123c5565b38614bf6565b8351903d90823e3d90fd5b5080fd5b516343dcbe9f60e01b81529050fd5b634e487b7160e01b865260118452602486fd5b51633093624d60e21b81529050fd5b5163b0ce759160e01b8152600490fd5b60ff60008051602061513c8339815191525460401c1615614c7d57565b604051631afcd79f60e31b8152600490fd5b6001600160401b039081169081146108fa5760010190565b9081526001600160401b03909116602082015260400190565b90614ce75750805115614cd557602081519101fd5b60405163d6bda27560e01b8152600490fd5b81511580614d1a575b614cf8575090565b604051639996b31560e01b81526001600160a01b039091166004820152602490fd5b50803b15614cf0565b90939160ff811691601483118015614f7f575b614f4d57600060ff86168085149485600014614f38575050506032905b60009060648311614f1f5781978360051b9360018060fb1b03811603614f0b57818103614de7575050506106405b80821096508615614ddf5703935b8492612710809611614dd7575b614dcf57614da991614fa0565b908181029181830414901517156108fa5760649004925b91808411614dcb5750565b9250565b505092614dc0565b859350614d9c565b900393614d8f565b8060199183119283600014614efd5790614e0091612a09565b610465808211614ef5575b50600192919004600a83821615614eeb57600a91908b915b851c90815b614e9c57505050614e41614e41614e41614e469361500a565b61500a565b918215614e94575b5015614e805760648101918215614e6c575060051b60640204614d81565b634e487b7160e01b81526012600452602490fd5b606401908115614e6c5750610c8004614d81565b915038614e4e565b8060801c613ff357800291614ee75781858216614ebf575b50841c8b9181614e28565b8084029c509092818d0403614ed9575b50849a9138614eb4565b614ee35738614ecf565b8480fd5b8b80fd5b8391908b91614e23565b905038614e0b565b614f0691612a09565b614e00565b634e487b7160e01b83526011600452602483fd5b604051632c870e6b60e11b815260048101849052602490fd5b1115614f475750606490614d53565b90614d53565b508360249260ff821610600014614f7857505b60ff6040519163fc8c9a9b60e01b8352166004820152fd5b9050614f60565b50601460ff861611614d36565b9060ff8091169116039060ff82116108fa57565b9060ff81169160ff8116928084146150015760ff931115614ff35790614fc591614f8c565b1660018114614fed5760028114614fe757600314614fe25760c890565b60af90565b50609690565b50606490565b614ffc91614f8c565b614fc5565b50505050606490565b60b581600160881b8110156150a9575b6201000090600160481b81101561509c575b600160281b81101561508f575b6301000000811015615082575b010260121c60019080830401811c80830401811c80830401811c80830401811c80830401811c80830401811c80830401901c8080920410900390565b60101c9160081b91615046565b60201c9160101b91615039565b60401c9160201b9161502c565b5060b560401b9050608082901c61501a56fe579c31d7f947df31adb29f8688c651ffa98030b83bb0d87632c86357f13afafd9016d09d72d40fdae2fd8ceac6b6234c7706214fd39c1cd1e609a0528c199300360894a13ba1a3210667c828492db98dca3e2076cc3735a920a3ca505d382bbc8be0079c531659141344cd1fd0a4f28419497f9722a3daafe3b4186f6b6457e0f0c57e16840df040f15088dc2f81fe391c3923bec73e23a9662efc9c229c6a004019f194fe4a757f9f1441d256eeb40c3f12e80f9da6188b5ad1a5fcda7217d740f6909351d16bebd2bb97c72ea15dc2508f321a25ba4ff1df4c330cced53820a2646970667358221220e001e0f30314be757f02d7fffecd2421cadaac28fddeabb8e4d2b6bc5471b7a764736f6c63430008180033",
  "linkReferences": {
    "contracts/GameLib.sol": {
      "GameLib": [
        {
          "length": 20,
          "start": 12820
        },
        {
          "length": 20,
          "start": 16295
        },
        {
          "length": 20,
          "start": 16926
        },
        {
          "length": 20,
          "start": 19012
        },
        {
          "length": 20,
          "start": 19541
        }
      ]
    }
  },
  "deployedLinkReferences": {
    "contracts/GameLib.sol": {
      "GameLib": [
        {
          "length": 20,
          "start": 12605
        },
        {
          "length": 20,
          "start": 16080
        },
        {
          "length": 20,
          "start": 16711
        },
        {
          "length": 20,
          "start": 18797
        },
        {
          "length": 20,
          "start": 19326
        }
      ]
    }
  }
}